:100000000C94DD010C94FC010C94FC010C94FC019B
:100010000C94FC010C94FC010C94FC010C94FC016C
:100020000C94FC010C94FC010C94FC010C94FC015C
:100030000C94FC010C94BF110C94FC010C949F0CCB
:100040000C94CD1F0C9403200C94560D0C94610D50
:100050000C946C0D0C94FC010C94FC010C94FC01B0
:100060000C94B30C0C94490F0C94FC010C94CC0F21
:100070000C94FC010C94FC010C94FC010C942311D5
:100080000C9402110C940D110C9418110C9436114F
:100090000C94E5100C94FC010C94F7100C94FC01EA
:1000A0000C94FC010C94FC010C94FC010C94FC01DC
:1000B0000C94FC010C94FC010C94FC010C94FC01CC
:1000C0000C94FC010C94FC010C94FC01F013F5134E
:1000D000EB13F013F513EB13FA13F013F513EB1303
:1000E000FA13F013F513EB13F013F513EB135A1483
:1000F0005F1455145A145F14551464145A145F1481
:10010000551464145A145F1455145A145F1455147A
:100110000F15161508150F15161508151D150F15B1
:10012000161508151D150F15161508150F1516159A
:100130000815851890187A18851890187A189B1841
:10014000851890187A189B18851890187A188518B1
:1001500090187A18E518F018DA18E518F018DA1877
:10016000FB18E518F018DA18FB18E518F018DA187B
:10017000E518F018DA18F02F0F304230D62FBF30C4
:10018000D0301531BF310C32583287352D3691358C
:10019000A535913734363B3685369537B637D9375E
:1001A000DD2FEB37E82F05380F38F33818391A39B7
:1001B0002539483900002110422063308440A55081
:1001C000C660E770088129914AA16BB18CC1ADD19D
:1001D000CEE1EFF13112100273325222B552944245
:1001E000F772D662399318837BB35AA3BDD39CC3ED
:1001F000FFF3DEE36224433420040114E664C77491
:10020000A44485546AA54BB528850995EEE5CFF53C
:10021000ACC58DD55336722611163006D776F666E4
:100220009556B4465BB77AA719973887DFF7FEE78C
:100230009DD7BCC7C448E5588668A77840086118B0
:1002400002282338CCC9EDD98EE9AFF948896999DC
:100250000AA92BB9F55AD44AB77A966A711A500A84
:10026000333A122AFDDBDCCBBFFB9EEB799B588B2C
:100270003BBB1AABA66C877CE44CC55C222C033CD0
:10028000600C411CAEED8FFDECCDCDDD2AAD0BBD7C
:10029000688D499D977EB66ED55EF44E133E322E24
:1002A000511E700E9FFFBEEFDDDFFCCF1BBF3AAFCC
:1002B000599F788F8891A981CAB1EBA10CD12DC12A
:1002C0004EF16FE18010A100C230E32004502540C0
:1002D00046706760B9839893FBA3DAB33DC31CD320
:1002E0007FE35EF3B1029012F322D2323542145210
:1002F00077625672EAB5CBA5A89589856EF54FE56C
:100300002CD50DC5E234C324A0148104667447645F
:1003100024540544DBA7FAB79987B8975FE77EF7BF
:100320001DC73CD7D326F2369106B01657667676AF
:10033000154634564CD96DC90EF92FE9C899E9898B
:100340008AB9ABA94458654806782768C018E108FF
:100350008238A3287DCB5CDB3FEB1EFBF98BD89B5F
:10036000BBAB9ABB754A545A376A167AF10AD01A4F
:10037000B32A923A2EFD0FED6CDD4DCDAABD8BADAB
:10038000E89DC98D267C076C645C454CA23C832C9F
:10039000E01CC10C1FEF3EFF5DCF7CDF9BAFBABFFF
:1003A000D98FF89F176E367E554E745E932EB23EEF
:1003B000D10EF01E00020E060C0411241FBECFEF5A
:1003C000D1E2DEBFCDBF12E0A0E0B2E0E0EFFCE79B
:1003D00000E00BBF02C007900D92AA32B107D9F717
:1003E00010E1AAE2B2E001C01D92AA3EB107E1F716
:1003F0000E9499390C94773E0C940000FC0120E097
:1004000030E007C082819381280F391F0480F58175
:10041000E02D3097B9F7C9010895FB01518340835E
:1004200033832283958384830895CF92DF92EF9262
:10043000FF920F931F93CF93DF938C01FB017A01FF
:10044000690105C0E81BF90BE8010C811D81E80179
:100450008A819B81E817F907A8F71CC0E8018A8107
:100460009B818E1B9F0BE7018E159F0508F4EC0105
:10047000D8018D919C91AE01B6018E0F9F1F0E94F5
:10048000513ECC0EDD1EEC1AFD0AE8010C811D81E7
:10049000E0E0F0E00115110519F01E141F04F4F25C
:1004A00080E090E0DF91CF911F910F91FF90EF904E
:1004B000DF90CF9008954F925F926F927F928F92CC
:1004C0009F92AF92BF92CF92DF92EF92FF920F93E3
:1004D0001F93CF93DF938C014B015A013901CC2438
:1004E000DD2404C06C01F80104811581011511059A
:1004F00019F44424552436C0F801828193818C0D6F
:100500009D1D8816990670F74424552428C074014F
:10051000EC18FD08F801828193818E199F09E5018D
:100520008A159B0508F4EC01F801608171816E0D5C
:100530007F1DAE01C3010E94513E4C0E5D1EF801AD
:10054000048115810115110569F0CE0CDF1CCC0E5C
:10055000DD1E8C0E9D1EAC1ABD0A6C0E7D1E1A147B
:100560001B04ACF2C201DF91CF911F910F91FF905C
:10057000EF90DF90CF90BF90AF909F908F907F9043
:100580006F905F904F900895EF92FF920F931F939B
:10059000CF93DF93FC0120E030E040E050E0A0E0AA
:1005A000B0E02EC0628173816115710531F1C081A7
:1005B000D18100E010E01EC0888100FD0BC09927AA
:1005C000982F8827A82BB92BC80101968617970763
:1005D00071F403C09927A82BB92B7D01C701AA2765
:1005E000BB27280F391F4A1F5B1FA0E0B0E00F5F39
:1005F0001F4F219606171707F9F60480F581E02DA5
:10060000309781F60BC0DA01C901A070B0709A0171
:1006100044275527280F391F4A1F5B1F203080E0D1
:10062000380781E0480780E0580768F7C9018095DE
:100630009095DF91CF911F910F91FF90EF900895CA
:10064000EF92FF920F931F93CF93DF93CDB7DEB757
:100650006A970FB6F894DEBF0FBECDBFE42E0896A2
:100660009A87898740E150E05C874B879E01215F34
:100670003F4F3E872D874096988B8F875A8B498BAB
:10068000CE0145969C8B8B8BCE0101969E8B8D8BDC
:1006900088E090E0988F8F8B7A8F698FCB010E94D2
:1006A000FE01AA2797FDA095BA2FBC01CD010E949B
:1006B000C70469837A838B839C83FF2400271127D7
:1006C000C801B7010E94C7046D837E838F8398871A
:1006D000CE0109960E94C4026A960FB6F894DEBF56
:1006E0000FBECDBFDF91CF911F910F91FF90EF9083
:1006F00008958CED95E090934E0280934D020895FD
:10070000ADE4B2E004969C0121703070280F391FCF
:1007100002C0A40FB51F8D919C911197AC015F7021
:100720004217530710F097FF06C0CD018D54924039
:100730008C5D954074F388E0A932B80718F080E02A
:1007400090E00895C90102979C013F7030681196AE
:100750003C932E93FD01E80FF91F481B590B5F7066
:1007600051834083CD0102960895CF93DF939C017E
:10077000EDE4F2E0C0E0D0E006C0808191819F709E
:10078000EF01E80FF91FCF0102968217930739F0A6
:10079000CF018D5492408C5D95407CF327C08081C1
:1007A00091819C013F70DF01A20FB31F9F7791835E
:1007B0008083CD018D5492408C5D95404CF48D9199
:1007C0009C9197FD05C09F70280F391F31832083AE
:1007D000209761F02881398137FD08C03F70808102
:1007E00091819F70280F391F39832883DF91CF9122
:1007F0000895EDE4F2E040E050E00BC0208131814B
:1008000037FD04C0C9019F70480F591F3F70E20FA8
:10081000F31FCF018D5492408C5D95407CF3CA014B
:1008200008956F927F928F929F92AF92BF92CF92D4
:10083000DF92EF92FF920F931F93CF93DF93FB0111
:100840005A018B01040F151FDC01CC24DD2440E08C
:1008500050E07AE398EF692E9FEF792E600E711EBB
:100860006E167F0608F460C0ED01E980FC9024E07C
:1008700030E08FEF882E982ECCE0D0E0C401022E1D
:1008800002C0969587950A94E2F78E159F0530F081
:1008900042305105B1F42031310599F4C7010C2ED5
:1008A00002C0969587950A94E2F7682F6F708F7053
:1008B00090700A9718F4862F805D02C0862F895A9F
:1008C00081932C5F3F4F249724313105B9F68D91E8
:1008D0009C911197892B21F54115510559F471937C
:1008E0008D919C911197892B19F441E050E002C041
:1008F00042E050E087E0C816D10424F441305105AD
:1009000009F071930894C11CD11C129688E0C81696
:10091000D10409F0A5CF4130510531F4719304C0E1
:100920004130510539F7E4CF11920A191B09CF0163
:10093000801B910BDF91CF911F910F91FF90EF9052
:10094000DF90CF90BF90AF909F908F907F906F90EF
:100950000895DC018C918370823021F4FD012181A6
:10096000328113C0833019F020E030E00EC0FD0169
:10097000319620E030E0AD01475F5F4F819191916A
:10098000280F391FE417F507C9F7C9010895EF9239
:10099000FF920F931F93FB01BC01882799272F2FEC
:1009A0003E2F44275527A90133272227E72EF62E6D
:1009B000002711272E293F29402B512BCA01B901AD
:1009C0001F910F91FF90EF9008959C01DB01FC01B6
:1009D00004C08D9181934150504041155105C9F794
:1009E000C90108958F929F92AF92BF92CF92DF92EA
:1009F000EF92FF920F931F93CF93DF936C014B0104
:100A0000892B09F4A3C06115710509F49FC080E129
:100A1000EB0119928A95E9F7D60160E070E090E069
:100A200046C02A3301F1822F80538A3030F43327B5
:100A300027FD3095205330400EC0422F552747FDEB
:100A400050952154263020F49A012753304003C09A
:100A50009A012755304044E0660F771F4A95E1F729
:100A6000622B732B0DC0E92FFF27EE0FFF1FE80D40
:100A7000F91D072F162F118300839F5F60E070E040
:100A8000FD013196ED012981222359F4E92FFF2739
:100A9000EE0FFF1FE80DF91DE72EF62EF182E08222
:100AA00055C08C918A3311F42A3341F0DF012C9127
:100AB000222309F0B6CFFD0101C031968081882341
:100AC000E1F7DF01119760E070E017E090E03BC0D4
:100AD0002C912A3311F1822F80538A3030F433273E
:100AE00027FD3095205330400EC0422F552747FD3B
:100AF00050952154263020F49A012753304003C0EA
:100B00009A0127553040092E02C0220F331F0A9444
:100B1000E2F7622B732B9C5F0EC0E12FFF27EE0FD5
:100B2000FF1FE80DF91DA72EB62EB182A08211502D
:100B300060E070E090E01197FD0181818A3319F443
:100B40008C918A3319F0CA16DB0610F2DF91CF912F
:100B50001F910F91FF90EF90DF90CF90BF90AF90DB
:100B60009F908F900895FC0171836083538342832B
:100B7000358324830895CF92DF92EF92FF920F93F3
:100B80001F93CF93DF938C016B01EE24FF241AC0D7
:100B9000F80182819381E89EE001E99ED00DF89EE4
:100BA000D00D112480819181C80FD91FCE01F6018B
:100BB0000995FFEF8F3F9F0759F0019759F008946F
:100BC000E11CF11CF80184819581E816F90600F317
:100BD000C0E0D0E0CE01DF91CF911F910F91FF9047
:100BE000EF90DF90CF900895EF92FF920F931F93B5
:100BF000CF93DF93EC017B0100E010E012C08A810B
:100C00009B819C01029FC001039F900D129F900D3C
:100C1000112428813981820F931FF70109950F5FF5
:100C20001F4F8C819D810817190748F3DF91CF91E1
:100C30001F910F91FF90EF9008958FB7F894992727
:100C400008958FBF0895282F9FB7F894E82FFF27A6
:100C5000E352F74F80818F3F81F4E091DE10E2177D
:100C600071F40BC020934B0E04C0FF27E352F74FE3
:100C700020832093DE1020E007C025E005C080918E
:100C80004B0E8F3F91F7EECF892F99278FBF822F81
:100C9000992708951F931FB7F8948091D710882340
:100CA00041F489E10E942306882319F481E08093AE
:100CB000D710812F99278FBF1F910895382FFA01E0
:100CC000422F213718F082E090E008956683872F45
:100CD0009927858333872187809140029091410233
:100CE000892B19F085E090E008952FB7F894332709
:100CF00085E08093430210924402F0933F02E09318
:100D00003E0282E090E09093410280934002109274
:100D1000460210924502445F409342022FBF8FB7B4
:100D2000F894282F33278091F90D8A3011F42FBFC2
:100D300019C02FBF9FB7F8948091B90A882311F08A
:100D400020E006C081E08093B90A1092BA0A21E03F
:100D5000892F99278FBF222329F00E944A0680E01D
:100D600090E00895109241021092400281E090E0DC
:100D70000895CF93DF9310922202A091490EB09173
:100D80004A0E109721F08091AD0A80FF08C081E0E3
:100D90008093220217C088E10E94230613C0FD0140
:100DA000359624813327ED016D817727762F6627CD
:100DB00081819927682B792BAD0186810E945E067F
:100DC000882349F7DF91CF9108958091F90D8A30FA
:100DD00021F480918C0A843021F081E080933B02E1
:100DE00008958BE10E94230610923B0208952FB7CD
:100DF000F89433278093C600E0ECF0E080818064B3
:100E000080832FBF0895FC016115710519F481E0FD
:100E100090E008958091B40A9091B50A892B19F059
:100E200085E090E0089570932D0E60932C0EF09362
:100E3000B50AE093B40A10928E0A10928D0A81E0EE
:100E400080938F0A8091C00080648093C00080915D
:100E5000C10080648093C100808121E030E0309344
:100E60008E0A20938D0A0E94F70680E090E0089594
:100E70008FB7F894992720914C022E7F20934C0233
:100E80002EE72093FD088FBF61E070E08DEF98E0C2
:100E90000E94030799270895CF92DF92EF92FF9265
:100EA0000F931F93CF93DF936C018B017A01E901BC
:100EB000232B19F1FB0123E0F695E7952A95E1F73D
:100EC000EE0DFF1D808199279B012770307002C0B5
:100ED000959587952A95E2F780FF06C0F601718304
:100EE000608380E090E00BC0CB010196BE010E94C0
:100EF000D13DBC0180179107E9F681E090E0DF91D8
:100F0000CF911F910F91FF90EF90DF90CF900895B8
:100F1000EF920F931F93AE2D99E0899FF00111245A
:100F2000EA55F34F408351836283738304831583AF
:100F300026833783A17080858E7F8A2B826080878D
:100F400082E00E9423061F910F91EF9008957FB7D2
:100F5000F8946091B2002091D8083091D90840915E
:100F6000DA085091DB08B99B11C08091B3009091D1
:100F7000B200280F311D411D511D2F5F3F4F4F4FB4
:100F80005F4F290F311D411D511D04C0260F311D1A
:100F9000411D511D872F99278FBFCA01B90108959F
:100FA0002F923F924F925F926F927F928F929F9279
:100FB000AF92BF92CF92DF92EF92FF920F931F9367
:100FC000CF93DF93CDB7DEB729970FB6F894DEBF86
:100FD0000FBECDBF6FB76983F8942090A10A3090FF
:100FE000A20A4090A30A5090A40A66247724882479
:100FF000EEE4AE2E73E8B72ECC24DD24EE24FF24DD
:1010000000E010E0222D332D442D552D662D772D37
:10101000882D90E00E94313C2A833B834C835D8382
:101020006E837F8388879987822E932EA42EB52E78
:101030002401350100E20E942F3DA22EB32EC42EC2
:10104000D52EA301920156954795379527952A0DE0
:101050003B1D4C1D5D1D57FF05C05F772F5F3F4F48
:101060004F4F5F4F2093A10A3093A20A4093A30AE7
:101070005093A40AE9818E2F99278FBFCA01B90125
:1010800029960FB6F894DEBF0FBECDBFDF91CF918A
:101090001F910F91FF90EF90DF90CF90BF90AF9096
:1010A0009F908F907F906F905F904F903F902F9088
:1010B00008950B960895CF93DF93FC018FE3828709
:1010C000809129088F5F80932908DF011196ED0137
:1010D0008A8380912F02882319F085E090E026C052
:1010E000E458FF4F80819181EC57F040892B71F0DB
:1010F000ED0129813327322F2227818199278062B0
:10110000282B392B2183232F33272983F093090E92
:10111000E093080E1092FD0D1092FC0D81E080937B
:101120002F0286E00E94230680E090E0DF91CF91BD
:101130000895E4EBF1E06927660FF11DE60FF11D5C
:10114000C895982F802D3196C895902508951F93A6
:10115000CF93DF93142FEB0104C069910E9499088B
:1011600011501123D1F7DF91CF911F910895CF93A3
:10117000DF93982F8FB7F894C82FDD272C2F8091FD
:101180003402882361F481E0809334029093D31079
:1011900083E10E942306CFBF80E090E021C0E92FC9
:1011A000FF27E151F64F80818F3F89F4E0912002C3
:1011B000E91789F40CC090931F0204C0FF27E15186
:1011C000F64F90839093200280E090E002C085E08B
:1011D00090E02FBF05C080911F028F3F79F7EBCFC2
:1011E000DF91CF9108951F93182F80913A028823A1
:1011F000E1F4623041F0633041F0613011F081E0A0
:1012000007C080E103C08EE001C08FE00E94B708F4
:1012100090E0882309F491E090933A02992329F011
:101220001093380E80E090E002C081E090E01F91C2
:1012300008958FB7F894282F3327922F8091210299
:10124000813149F480913402823029F42FBF86E144
:101250000E94230608959FBF81E10E94B708089568
:10126000CF92DF92EF92FF920F931F9380933202FF
:1012700060933B0EC901880F892F881F990B9195A8
:1012800080933C0E220F812F9927282B20933D0E0F
:1012900000933E0ED092F20DC092F10DF092B10A81
:1012A000E092B00A4093AC0A81E10E9423061F91AC
:1012B0000F91FF90EF90DF90CF9008951F93982F9C
:1012C0008FB7F894182F809133028330B1F5809155
:1012D0001E02891791F580911C0220E030E08F3FBB
:1012E00011F421E030E0232BF9F48F3F19F42FEFB4
:1012F00030E00EC0282F3327F901EE5AF14F8081DC
:1013000080931C028F3F11F480931D028FEF808326
:1013100020931D0E8FEF80931E0281E08093330295
:1013200082E10E94230605C084E080931E02109291
:1013300033021FBF80E090E003C01FBF81E090E058
:101340001F910895E82F9A01AB01BB27A52F942F79
:10135000832FBC01E13049F0E13078F0E23041F018
:10136000E33049F060E078E008C060507F4F05C08E
:1013700060507E4F02C060507D4F88279927982F7C
:10138000872F762F6627307044275527620F731FEB
:10139000841F951F0895882319F08CB5806402C0BE
:1013A0008CB58F7B8CBD0895882319F08CB580682F
:1013B00002C08CB58F778CBD08950F931F9380E08A
:1013C0000E94CB090FB7F8941127229A2398219AEB
:1013D000209A8CB580618CBD80E00E94D4098CB5C8
:1013E000877F8CBD8CB58B7F8CBD81E00E94CB0943
:1013F0008DB581608DBD8CB58C7F8CBD0FBF1F916D
:101400000F9108950F931F93CF93DF93182F0FB76A
:10141000F89480913002882311F40E94DD09802F16
:1014200099278FBF8FB7F894C82FDD272C2F809175
:101430003002882361F481E0809330021093B30A74
:101440008DE00E942306CFBF80E090E021C0E12F15
:10145000FF27E155F54F80818F3F89F4E091190214
:10146000E11789F40CC01093180204C0FF27E1555E
:10147000F54F10831093190280E090E002C085E0E0
:1014800090E02FBF05C0809118028F3F79F7EBCF16
:10149000DF91CF911F910F9108958FB7F89420910C
:1014A000960C3091970C4091980C5091990CE091CA
:1014B0008400F0918500B09B08C02F5F3F4F4F4FD5
:1014C0005F4FE0918400F091850099278FBFC9019B
:1014D000772766279F0144275527622B732B842B80
:1014E000952B0895FC01EC57FF4F8081826080832B
:1014F000089580589F4F0895FC0182819927982F65
:10150000882721813327822B932BE5E096958795B9
:10151000EA95E1F7817090700895AC01EFB7F89407
:101520002091840030918500C901841B950B03969E
:101530008617970720F0B9016D5F7F4F02C0640FD7
:10154000751F6115710511F461E070E06150704024
:10155000709389006093880082E086BB80916F0061
:10156000826080936F008E2F99278FBF0895CF934D
:10157000DF93EC010E947C0A882339F18A8129815A
:101580009927982F88273327822B932B87749C7C4D
:1015900081549848D1F48F814E812FB7F894332726
:1015A00060911202709113022FBF20E09927982FAB
:1015B00088275527842B952B8617970709F021E05C
:1015C00081E02827822F992702C080E090E0DF91F8
:1015D000CF910895EF92FF920F931F937C018FB7E5
:1015E000F89499270091FE0D1091FF0D0F5E1E4F8C
:1015F0001093FF0D0093FE0D015111408FBF8AE043
:101600000E942306C801B7010E94D13D8A5D9E4F0A
:101610001F910F91FF90EF900895813049F0813034
:1016200078F0823041F0833049F060E070E008C02B
:1016300060507E4F05C060507D4F02C060507F4FAC
:10164000CB010895982F4FB7F89455272BB1277DDC
:101650002BB980E097FD5B9A5D9A4A9980682BB917
:1016600096FD5B9A5D9A4A9980642BB995FD5B9AC9
:101670005D9A4A9980622BB994FD5B9A5D9A4A996A
:1016800080612BB993FD5B9A5D9A4A9988602BB96A
:1016900092FD5B9A5D9A4A9984602BB991FD5B9AA1
:1016A0005D9A4A9982602BB990FD5B9A5D9A4A993E
:1016B00081604FBF99270895AF92BF92CF92DF927A
:1016C000EF92FF920F931F93282F33278BE090E028
:1016D000289FF001299FF00D389FF00D1124E65D41
:1016E000F74F82819381A481B5810097A105B1054F
:1016F00069F080819181880F991F91838083815047
:10170000944020F080E094E0918380838BE090E02F
:10171000289F5001299FB00C389FB00C11248AE2F9
:1017200098E0A80EB91EF50186819781A085B18544
:1017300082839383A483B583C080D180EE24FF2469
:1017400069E0CC0CDD1CEE1CFF1C6A95D1F70E94F1
:10175000D007DC01CB01F50100811181B801762FA2
:101760006627770F0E94D13DAA27BB278C0D9D1DB0
:10177000AE1DBF1D222733274AE0000F111F221F75
:10178000331F4A95D1F7081B190B2A0B3B0B068315
:101790001783208731872281338144815581280F27
:1017A000391F4A1F5B1F22833383448355831F9154
:1017B0000F91FF90EF90DF90CF90BF90AF90089582
:1017C0004FB7F8945527FC01A3E0F695E795AA9545
:1017D000E1F7EC50F24F8770907021E030E002C0EA
:1017E000220F331F8A95E2F78081822B80834FBFBF
:1017F0000895DF92EF92FF920F931F938FB7F894A3
:10180000282F3327D22E9091B3008091B20047B396
:10181000981711F041FF02C02FBF71C08091920A4A
:101820008823E1F10E94A707E090CE08F090CF084E
:101830000091D0081091D1082091570E3091580E88
:101840004091590E50915A0E6E197F09800B910BE1
:10185000621773078407950720F01092920A71E0CF
:101860001EC02E0D3F1D401F511F8091D808909122
:10187000D908A091DA08B091DB08281B390B4A0B74
:101880005B0B273E31054105510540F4822F223084
:1018900010F070E005C070E082E002C070E086EEFB
:1018A000682F61508091B60083FDFCCF8091B2001B
:1018B000681709F46F5F2091D8083091D9084091DA
:1018C000DA085091DB08DA01C9010196A11DB11DAA
:1018D000860F911DA11DB11D82179307A407B5079F
:1018E00010F4622F60958091B60083FDFCCF609369
:1018F000B300DFBE772319F081E00E9423061F9119
:101900000F91FF90EF90DF900895AFB7F894BB2749
:10191000E1E0E093920A6093CE087093CF08809341
:10192000D0089093D1082093570E3093580E4093CF
:10193000590E50935A0EAFBF0E94F90B08951F9293
:101940000F920FB60F9211248F938091B000809365
:10195000B0008091B60081FDFCCF8F910F900FBE3B
:101960000F901F9018951F920F920FB60F9211248F
:101970000F931F932F933F934F935F936F937F9397
:101980008F939F93AF93BF93CF93DF93EF93FF9387
:101990002EB5E091EE0DF091EF0D309739F080917A
:1019A000010C9091020CE80FF91F20838091010C2B
:1019B0009091020C01969093020C8093010C80E0B0
:1019C0000E94D409C091010CD091020C20913608DC
:1019D00030913708C217D30708F042C00091D110E8
:1019E0001091D2104091EE0D5091EF0DCE010A965C
:1019F0002817390708F4C901DA01AC0FBD1FF80137
:101A0000EC0FFD1F9C012150304015C00115110540
:101A100031F080818EBD0DB407FEFDCF04C01EBC29
:101A20000DB407FEFDCF8EB54115510509F08C931D
:101A3000219611963196C217D30740F381E00E9498
:101A4000D4090115110531F00C0F1D1FF80180811B
:101A50008EBD01C01EBCD093020CC093010C11C0FE
:101A60001092EF0D1092EE0D1092D2101092D11034
:101A700010923708109236081092020C1092010C46
:101A80008EB5FF91EF91DF91CF91BF91AF919F9173
:101A90008F917F916F915F914F913F912F911F9106
:101AA0000F910F900FBE0F901F90189578941F9272
:101AB0000F920FB60F9211240F900FBE0F901F9030
:101AC000189578941F920F920FB60F9211240F90D1
:101AD0000FBE0F901F90189578941F920F920FB61B
:101AE0000F9211242F933F938F939F93AF93BF93A4
:101AF0002FB7F89433278091960C9091970CA09172
:101B0000980CB091990C0196A11DB11D8093960C73
:101B10009093970CA093980CB093990C2FBFBF9102
:101B2000AF919F918F913F912F910F900FBE0F908A
:101B30001F901895982F80914702882389F5992343
:101B400079F531E030934702809123028093480277
:101B500020913C02822F81708093D40880912802CA
:101B60009091290290934A028093490280913D020C
:101B700080934B0232273170267EE32FFF27EE0F32
:101B8000FF1FEC5DFD4F808191819093290280932E
:101B90002802232B20933C028EE10E942306089505
:101BA00080913C0280FF02C08B7F01C08D7F8093BB
:101BB0003C0208950F931F93082F162F80918C0AD3
:101BC0008130D9F0813038F0823009F44AC0833056
:101BD00009F028C159C0002309F458C11092250EFC
:101BE0001092240E1092070E1092440E1092910A39
:101BF00010929D0C10929C0C39C1002309F046C133
:101C000080919C0C90919D0C0E94990890939D0C42
:101C100080939C0C82E080938C0A1093440E1434C1
:101C200009F000C125C18695869503C080913C02CC
:101C30008695817009F0F6C080913C02992311F0DD
:101C4000846001C0826080933C0280913C02877E68
:101C5000886080933C0210923D028FEF80932302B4
:101C600015C1002309F0DEC06093910A80919C0C9D
:101C700090919D0C0E94990890939D0C80939C0CD0
:101C800083E080938C0A02C18091070E8F3F09F494
:101C9000C9C0002309F461C0823008F4C3C0E091D8
:101CA000240EEE2309F4EBC04E2F4150E42FFF2702
:101CB000EC5DF14F82819927382F2227442311F4BC
:101CC000E2E002C0E42FE150FF27EC5DF14F82819A
:101CD0009927282B392B80919C0C90919D0C2817CB
:101CE000390709F09FC080E00E949A0D3091910A57
:101CF0008091F80B2091F90B982F9F5F963008F098
:101D000090E0921771F0E82FFF27E850F44F3283EC
:101D10008F5F8093F80B863010F01092F80B0E94C2
:101D20004A061092250E1092240E94E090938C0A8D
:101D30001092070E1092440E1092910A10929D0C70
:101D400010929C0C80914C028D7F80934C0280916C
:101D50003B02882309F49AC084C0823008F44EC044
:101D6000E091250EFF27EC5DF14F8281482F55272A
:101D7000342F20913C02822F86958695869583701C
:101D800099278130910519F00297F9F40EC0277E4A
:101D9000206120933C02442311F485E001C080E0DF
:101DA00080933D023093230210C080913D0287381A
:101DB00060F4E0912802F0912902E80FF11D4083C0
:101DC00080913D028F5F80933D028091250EE82F28
:101DD000FF27EC5DF14F62818F5F8093250E83308A
:101DE00010F01092250E772780919C0C90919D0CFD
:101DF0000E94990890939D0C80939C0C8091240ED6
:101E0000E82FFF27EC5DF14F12838F5F8093240E44
:101E1000833010F01092240E8091070E8F5F809314
:101E2000070E34C01092250E1092240E14E0109369
:101E30008C0A1092070E1092440E1092910A109282
:101E40009D0C10929C0C80914C028D7F80934C02D3
:101E500081E00E949A0D80913B02882329F0109323
:101E60008C0A0E94E50612C0002381F081E009CFB0
:101E700080913C02982F917080FDD5CED7CE809175
:101E8000280E9927382F222742E01CCF1F910F914F
:101E900008951F920F920FB60F9211242F933F9324
:101EA0004F935F936F937F938F939F93AF93BF9362
:101EB000EF93FF938091C00087FF42C06091C600FE
:101EC000E0919E0CF0919F0C309719F18091D51004
:101ED0009091D610E80FF91F608301969093D61069
:101EE0008093D5102091E3103091E410821793076E
:101EF00038F110929F0C10929E0C8091F60D833059
:101F0000F9F08091C1008F778093C1001092F60D97
:101F100017C06E3719F460E081E010C080914C0268
:101F20006D3721F4826080934C020AC081FF05C0A6
:101F30008D7F80934C0280E2682780E00E94DA0D5A
:101F4000FF91EF91BF91AF919F918F917F916F9191
:101F50005F914F913F912F910F900FBE0F901F9067
:101F60001895982F8D57823068F480914C028160CB
:101F700080934C0280E289278093060E8DE7809340
:101F8000FD0802C09093FD0861E070E08DEF98E0DD
:101F90000E9403079927089578941F920F920FB615
:101FA0000F921124FF920F931F932F933F934F9300
:101FB0005F936F937F938F939F93AF93BF93CF93D1
:101FC000DF93EF93FF9320918D0A30918E0A8091D9
:101FD0002C0E90912D0E2817390780F4E091B40A49
:101FE000F091B50AE20FF31F80812F5F3F4F3093CE
:101FF0008E0A20938D0A0E94F706D1C01092B50A6E
:102000001092B40A10928F0A8091C1008F7B809346
:10201000C100FFB6F89480914C0280FF0EC08E7F05
:1020200080934C028091060E8093FD0861E070E081
:102030008DEF98E00E940307AFC08091F90D8430C6
:1020400009F48CC0853040F4823021F18330B8F53A
:10205000813009F09CC00DC0863009F48DC08630F7
:1020600008F483C0873009F48EC0883009F08FC02F
:1020700091C08091B20A0E94B10F082F83E0809333
:10208000F90D6091B20A8091E1109091E2100E94E6
:10209000990810C080914F0E0E94B10F082F83E065
:1020A0008093F90D60914F0E8091E1109091E210B4
:1020B0000E9499089093E2108093E11066C0E0912D
:1020C000A20CFF27EE0FFF1FE854F54F80810E94FE
:1020D000B10F082F1091A20CC12FDD27FE01EE0FCA
:1020E000FF1FE854F54F60818091E1109091E2105C
:1020F0000E9499089093E2108093E1102091AE0A1B
:102100002F5F2093AE0A113039F580914302E091A0
:102110003E02F0913F02E80FF11DE0818F5F809356
:10212000430290914202981730F482E08093B90AFA
:1021300040E050E002C04E2F5527DE01AA0FBB1F22
:10214000FD01E954F54F8081823031F02F3F21F0BD
:10215000A854B54F4C9319C084E012C08091E1108F
:102160000E94B10F082F85E00BC08091E2100E9401
:10217000B10F082F86E004C00E943807082F87E0BF
:102180008093F90D02C088E003C0002329F089E0A4
:102190008093F90D0E944A068F2D99278FBFFF91DA
:1021A000EF91DF91CF91BF91AF919F918F917F91EF
:1021B0006F915F914F913F912F911F910F91FF90E0
:1021C0000F900FBE0F901F9018951F920F920FB691
:1021D0000F9211248F938091C80087FF02C08091D5
:1021E000CE008F910F900FBE0F901F90189578948E
:1021F0001F920F920FB60F9211240F900FBE0F90E7
:102200001F90189578941F920F920FB60F92112479
:102210000F900FBE0F901F90189578941F920F92F9
:102220000FB60F9211240F900FBE0F901F901895AC
:1022300078941F920F920FB60F9211240F900FBE39
:102240000F901F90189578941F920F920FB60F92CF
:1022500011248F939F9380919600909197009F9166
:102260008F910F900FBE0F901F90189578941F922A
:102270000F920FB60F9211242F933F938F939F933A
:102280002FB7F89433278091A80A9091A90A019654
:102290009093A90A8093A80A2FBF9F918F913F9195
:1022A0002F910F900FBE0F901F901895EF92FF92F5
:1022B0000F931F93CF93DF93EA017B010AC08C0138
:1022C0000F5F1F4F0E94613EF70181937F012197AD
:1022D000C8012097A1F780E090E0DF91CF911F9196
:1022E0000F91FF90EF900895CF92DF92EF92FF92BF
:1022F0000F931F93CF93DF93CDB7DEB728970FB619
:10230000F894DEBF0FBECDBF7B018C018FB7F89470
:1023100048E050E06E010894C11CD11CB60180EF6A
:102320009FE00E945611EB82FC820D831E838FEF8B
:102330008F83188680910002909101029A8389838D
:10234000760180EF9FE0F70161917F018C010F5FC3
:102350001F4F0E94693EFFE0083F1F0711F0C801B0
:10236000F2CFF999FECF88E190E029E00FB6F8941A
:10237000A895809360000FBE20936000FFCF1F924E
:102380000F920FB60F9211242F933F934F935F93A9
:102390006F937F938F939F93AF93BF93EF93FF932D
:1023A0008091B0008093B0008091B60081FDFCCF99
:1023B0008091B30099270196AA27BB272091D808BE
:1023C0003091D9084091DA085091DB08280F391F65
:1023D0004A1F5B1F2093D8083093D9084093DA082E
:1023E0005093DB0878940E94F90BFF91EF91BF9115
:1023F000AF919F918F917F916F915F914F913F919D
:102400002F910F900FBE0F901F90189521E02093F1
:10241000B60A2093F00D2091840030918500BC0114
:10242000C9010E948D0A08950F931F93982F1FB71B
:10243000F89480913002823099F580911A028917C0
:1024400079F58091180220E030E08F3F11F421E00F
:1024500030E0232BF1F49FEF90931A028F3F19F491
:102460002FEF30E00DC0282F3327F901E155F54F4C
:102470008081809318028F3F11F49093190290830A
:102480002093B30A81E0809330028DE00E942306FE
:1024900005C08FEF80931A021092300201E001C054
:1024A00000E0812F99278FBF1FB7F89480913002E9
:1024B000882311F40E94CB09812F99278FBF90E0C8
:1024C000013009F491E081E09827892F99271F9125
:1024D0000F9108951F93982F1FB7F894809134029D
:1024E000823099F580912102891779F580911F0238
:1024F00020E030E08F3F11F421E030E0232BF1F4B5
:102500009FEF909321028F3F19F42FEF30E00DC021
:10251000282F3327F901E151F64F808180931F0264
:102520008F3F11F49093200290832093D31081E089
:102530008093340283E10E94230605C08FEF8093CD
:1025400021021092340221E001C020E0812F99275E
:102550008FBF90E0213009F491E081E09827892F26
:1025600099271F91089510923A02823031F08330FA
:1025700041F0813049F480E101C08EE00E946A128E
:1025800008958FE00E946A1208958FB7F894282F5B
:102590003327922F80911A02882331F480913002E0
:1025A000823011F42FBF13C09FBF8FB7F894282F2C
:1025B000332780913002882369F482E080933002CF
:1025C00010921A022FBF0E94DD09209A289A81E0FA
:1025D00090E008952FBF80E00E94020A80E090E022
:1025E0000895CF93DF93982F8FB7F894282F332730
:1025F000422F80913302882321F581E080933302BA
:1026000090931D0E2FBF8FB7F894C82FDD279C2FF6
:1026100080911E02843099F480913302813021F43C
:1026200082E10E94230609C0823049F480911D0E88
:1026300080931E0283E080933302CFBF07C09FBF09
:1026400005C080911D0E891721F42FBF80E090E016
:1026500021C0E92FFF27EE5AF14F80818F3F89F487
:10266000E0911D02E91789F40CC090931C0204C08C
:10267000FF27EE5AF14F908390931D0280E090E087
:1026800002C085E090E04FBF05C080911C028F3FE3
:1026900079F7EBCFDF91CF910895CF92DF92EF9250
:1026A000FF920F931F93CF93DF93782FC62FDD27D1
:1026B0008BE090E0C89FF001C99FF00DD89FF00D0E
:1026C0001124E453F44F8081882319F085E090E0D1
:1026D00048C0643018F480E091E002C080E090E0EF
:1026E000AA27BB27BA2FA92F982F882782179307CD
:1026F000A407B507A0F1821B930BA40BB50B8C1597
:102700009D05AE05BF0558F18BE090E0C89FF00134
:10271000C99FF00DD89FF00D1124E453F44F70833E
:102720002383348345835683C782D086E186F2862D
:1027300012830183613069F0613028F0623059F012
:10274000633059F003C080E00E94F11280E090E015
:1027500008C081E0F9CF82E0F7CF83E0F5CF86E0D3
:1027600090E0DF91CF911F910F91FF90EF90DF905C
:10277000CF900895BF92CF92DF92EF92FF920F9386
:102780001F93B82E6701780180913102882319F0D8
:1027900085E090E034C0EB2DFF27E131F105B8F47E
:1027A000EA59FF4FEE0FFF1F0590F491E02D0994B9
:1027B00084E00E944D139927282F882349F481E053
:1027C00080933102B092D81080E090E018C021E0F0
:1027D000822F992714C089019A01AB0163E0E8CFE9
:1027E00089019A01AB0161E0E3CF89019A01AB0154
:1027F00062E0DECF89019A01AB0160E0D9CF1F9181
:102800000F91FF90EF90DF90CF90BF900895EF92DF
:10281000FF920F931F93813051F0813030F082305E
:1028200041F0833041F081E009C086E005C089E0D5
:1028300003C087E001C088E00E94BA1399271F9166
:102840000F91FF90EF900895BF92CF92DF92EF9299
:10285000FF920F931F93B82E670178018091310288
:10286000882319F085E090E034C0EB2DFF27E1319B
:10287000F105B8F4E958FF4FEE0FFF1F0590F491F2
:10288000E02D099481E00E944D139927282F882379
:1028900049F481E080933102B092D81080E090E05A
:1028A00018C021E0822F992714C089019A01AB0139
:1028B00063E0E8CF89019A01AB0161E0E3CF8901D0
:1028C0009A01AB0162E0DECF89019A01AB0160E0C1
:1028D000D9CF1F910F91FF90EF90DF90CF90BF90D5
:1028E0000895AF92BF92CF92DF92EF92FF920F9333
:1028F0001F938091900A992720E730E0829FA001E2
:10290000839F500D929F500D1124FA01EB50F04F10
:102910008081A82EBB24CC24DD241AE0AA0CBB1C89
:10292000CC1CDD1C1A95D1F7FA01EA50F04F8081DA
:102930002AE6829FC0011124AA27BB27A80EB91E30
:10294000CA1EDB1E9A012950304F80912C02823022
:1029500079F08330B1F0813011F081E01CC0BAE62B
:10296000EB2EF12C012D112DB601A50185E011C032
:10297000AAE6EA2EF12C012D112DB601A50183E066
:1029800008C0FAE6EF2EF12C012D112DB601A5019C
:1029900084E00E942414882311F01092FC081F91F7
:1029A0000F91FF90EF90DF90CF90BF90AF90089580
:1029B000BF92CF92DF92EF92FF920F931F93B82EA8
:1029C000D70180913102882319F085E090E03CC066
:1029D000EB2DFF27E131F105B8F4E857FF4FEE0F7B
:1029E000FF1F0590F491E02D099485E00E944D139E
:1029F0009927282F882349F481E080933102B092EF
:102A0000D81080E090E020C021E0822F99271CC0E0
:102A1000680179018D019A01AB0163E0E6CF68019D
:102A200079018D019A01AB0161E0DFCF6801790185
:102A30008D019A01AB0162E0D8CF680179018D0167
:102A40009A01AB0160E0D1CF1F910F91FF90EF9001
:102A5000DF90CF90BF9008951F93982F1FB7F894E1
:102A600080912E02823099F580911702891779F5AD
:102A70008091150220E030E08F3F11F421E030E03A
:102A8000232BF1F49FEF909317028F3F19F42FEF50
:102A900030E00DC0282F3327F901E551F64F808132
:102AA000809315028F3F11F4909316029083209328
:102AB000E70981E080932E0285E00E94230605C08D
:102AC0008FEF8093170210922E0221E001C020E0C8
:102AD000812F99278FBF90E0213009F491E081E0A8
:102AE0009827892F99271F910895FF920F931F937D
:102AF000CF93DF93F82E8B01EA01622F213718F074
:102B000086E090E092C0FA0131968181298170E0DF
:102B10009927582F44273327422B532BCA018774F8
:102B20009C7C8154984809F471E0772349F4CA01E8
:102B300080739070816498688983892F9927818335
:102B4000635F68832FB7F8943327809112029091C6
:102B500013022FBF8887892F992789872FB7F89469
:102B60003327809114022FBF99278C831D82CE01B9
:102B70000E945908FC01F0820E83812F99278F83D0
:102B80008FB7F894282F332780912E02882371F471
:102B900082E080932E02109217022FBFCE010E9476
:102BA0005B089927182F882399F00FC02FBFD09367
:102BB000E909C093E8098FB7F894C82FDD272C2FB7
:102BC00080912E02882399F406C080E00E942C1583
:102BD000812F99272AC081E080932E021092E70965
:102BE00085E00E942306CFBF80E090E01EC0809168
:102BF000EB098F3F89F4E0911602EE2369F010C0D3
:102C00001092150204C0FF27E551F64F1082109272
:102C1000160280E090E002C085E090E02FBF05C082
:102C2000809115028F3F79F7EBCFDF91CF911F9104
:102C30000F91FF900895EF92FF920F931F93CF9300
:102C4000DF93809111029927019665E070E00E9460
:102C5000E53D682F8093110200E0462F5527FA01C9
:102C6000EE0FFF1FE457F34FC081D181209799F0F9
:102C7000E62FE695E695E695FF27EA5AF14F808123
:102C800099279A012770307002C0959587952A95EB
:102C9000E2F780FF0DC0CA01019665E070E00E9476
:102CA000E53D682F0F5F0530C1F6009311021FC08C
:102CB000609311026530D8F4E88083EFE80EFF24BA
:102CC0000F811127102F00278E819927082B192B90
:102CD000CE010E945908FC012E2DAE01B801808161
:102CE0000E947515882319F084E00E942306DF9165
:102CF000CF911F910F91FF90EF900895EF92FF9267
:102D00000F931F93CF93DF93E82E8B01F42E84E073
:102D10008E1518F481E090E03BC0CE2DDD27CC0F5E
:102D2000DD1FC457D34F88819981892B19F085E025
:102D300090E02EC079836883EDE0FE0EFB01F08207
:102D4000F3EFFF0E80911102853018F480E090E0DF
:102D50001FC0CB010E945908FC018081F8016781E6
:102D60007727762F662726813327622B732BE092F5
:102D700011022F2DA8010E9475159927282F88234D
:102D800029F085E08093110219821882822F9927F9
:102D9000DF91CF911F910F91FF90EF900895AF9227
:102DA000BF92CF92DF92EF92FF920F931F93BC01DD
:102DB0008091CD08882309F47DC08091880A8823FA
:102DC00009F078C081E08093880A60934508872FD6
:102DD0009927809344088EED6030780721F0AA246B
:102DE000BB24650108C0A0903502B0903602C090A7
:102DF0003702D0903802A092490811270D2DFC2CE3
:102E0000EB2CE09248089601442755272093470869
:102E10008D2D9927AA27BB27E4E4F8E08283FF24BD
:102E200000271127102F0F2DFE2CEE24B82FAA27D4
:102E300099278827332744275527A9013327222795
:102E4000822B932BA42BB52B2A2D332744275527D0
:102E5000822B932BA42BB52BE82AF92A0A2B1B2BA8
:102E6000E114F1040105110511F410E010C06050E7
:102E70007E4D21F41AE063E17EE003C010E060E0E3
:102E800070E0412F55278AE498E00E94513E8FEF71
:102E900080933E0880933F0888E398E00E94590899
:102EA000FC0180E680831A5F412F68E378E083E0CD
:102EB0000E947E161F910F91FF90EF90DF90CF90B0
:102EC000BF90AF90089580918A0A823031F481E0FA
:102ED00080938A0A88E00E9423060895AF92BF92E9
:102EE000CF92DF92EF920F931F93882389F00E9475
:102EF000D0075B016C018FEF90E0A0E0B0E0A8226A
:102F0000B922CA22DB2280E190E0A0E0B0E010C04C
:102F10000E94D0075B016C018FE790E0A0E0B0E079
:102F2000A822B922CA22DB2280E890E0A0E0B0E02B
:102F3000A80EB91ECA1EDB1E0E94A707AB01BC016A
:102F4000A1E0EA2E9601850180E00E9488071F918A
:102F50000F91EF90DF90CF90BF90AF900895809346
:102F60005B0E882311F484E001C081E080938A0A1B
:102F700088E00E9423060895843021F0853051F0C6
:102F8000833079F480910602813059F480E00E9408
:102F90002306089580910602813019F480E00E9492
:102FA00023060895BF92CF92DF92EF92FF920F9384
:102FB0001F93B82E8091C108882339F085E0809353
:102FC000320281E10E9423061DC08B2D9927FC014E
:102FD000EE0FFF1FE80FF91FE250F74F20813181FC
:102FE000BB2011F461E601C060E6B1E0CB2ED12C2C
:102FF000EE24FF2400E010E040E08AE00E94300967
:10300000B092A00C1F910F91FF90EF90DF90CF90A6
:10301000BF900895CF92DF92EF92FF920F931F938C
:103020008091C108882339F085E08093320281E1E4
:103030000E94230629C04091A30C842F9927FC01EC
:10304000EE0FFF1FE80FF91FDF01A250B74F2D91C0
:103050003C91E050F74F808182FF06C0442311F07D
:1030600068E807C069E805C0442311F063E801C0BF
:1030700066E801E0C02ED12CEE24FF2400E010E031
:1030800040E089E00E9430091F910F91FF90EF907E
:10309000DF90CF900895BF92CF92DF92EF92FF9290
:1030A0000F931F93B82E80913102882319F085E089
:1030B00090E04CC0EB2DFF27E131F105B8F4E75665
:1030C000FF4FEE0FFF1F0590F491E02D099482E071
:1030D0000E944D139927282F882349F481E080937B
:1030E0003102B092D81080E090E030C021E0822F11
:1030F00099272CC0CC24DD24760100E010E020E0EC
:1031000030E040E050E063E0E2CFCC24DD24760103
:1031100000E010E020E030E040E050E061E0D7CF98
:10312000CC24DD24760100E010E020E030E040E037
:1031300050E062E0CCCFCC24DD24760100E010E04A
:1031400020E030E040E050E060E0C1CF1F910F91FF
:10315000FF90EF90DF90CF90BF900895CF92DF92D5
:10316000EF92FF920F931F93982F80913102882343
:1031700019F085E090E04AC0E92FFF27E131F10521
:10318000A8F4E655FF4FEE0FFF1F0590F491E02DD8
:10319000099483E00E944D139927282F882339F43E
:1031A00081E08093310280E090E030C021E0822F06
:1031B00099272CC0CC24DD24760100E010E020E02B
:1031C00030E040E050E063E0E4CFCC24DD24760141
:1031D00000E010E020E030E040E050E061E0D9CFD6
:1031E000CC24DD24760100E010E020E030E040E077
:1031F00050E062E0CECFCC24DD24760100E010E088
:1032000020E030E040E050E060E0C3CF1F910F913C
:10321000FF90EF90DF90CF9008954F925F926F9262
:103220007F928F929F92AF92BF92CF92DF92EF9256
:10323000FF920F931F93CF93DF932C01809135085A
:10324000882309F08EC18091D410853009F089C19E
:103250000E94C512882309F484C18091290E882315
:1032600009F07FC1E201CC57DF4F888182FD02C0A7
:1032700090E00BC025E830E0420E531EF201918130
:103280002BE73FEF420E531E9F708091420B981721
:1032900081F09093420B289885EC8EBD0DB407FE0B
:1032A000FDCF8EB590689EBD0DB407FEFDCF8EB5E7
:1032B000289A42010894811C911CF4018181F20139
:1032C000218140E09927982F88273327822B932B41
:1032D00087749C7C8154984809F441E0442301F1AF
:1032E000289886E88EBD0DB407FEFDCF8EB51EBCB6
:1032F0000DB407FEFDCF8EB5289A99278F71907077
:103300002091A50A4091EC09240F312D311D43E095
:10331000359527954A95E1F7281739070CF421C10F
:10332000289882EC8EBD0DB407FEFDCF8EB589E0E6
:103330008EBD0DB407FEFDCF8EB5289A0E944D0AB2
:103340007B018C01888184FD03C0C0E0D0E006C011
:10335000F20180818550E201C80FD11D289881E8D3
:103360008EBD0DB407FEFDCF8EB51EBC0DB407FE9D
:10337000FDCF8EB5289A8F71893079F0289882EC2C
:103380008EBD0DB407FEFDCF8EB586E08EBD0DB4AB
:1033900007FEFDCF8EB5289AE4C08FB7F894992721
:1033A0002F9A20918400309185008FBF2F98289804
:1033B00080E68EBDF20190810DB407FEFDCF8EB583
:1033C0009EBD792F7250773010F4672F01C067E0EF
:1033D000962FF40141910DB407FEFDCF8EB54EBD81
:1033E0009150C1F76150F401E60FF11D6F5F319606
:1033F0002E193F092E553F4F3901882477FC8094C0
:10340000982C6E0C7F1C801E911E209719F4972F0C
:10341000961B42C02881E9808A81AB809927AA2720
:10342000BB27BA2FA92F982F882733274427552742
:10343000522F442733272227FF24002711278701F3
:10344000FF24EE242E293F29402B512BBB24CC24D2
:10345000DD242A293B294C295D29822B932BA42B7F
:10346000B52B86199709A809B9098B83292F3A2FFB
:103470004B2F55272A839D014427552729838B2FBE
:103480009927AA27BB278883C2CF20810DB407FEC6
:10349000FDCF31968EB52EBD9150B8F70DB407FE15
:1034A000FDCF8EB5289A289882EC8EBD0DB407FE0C
:1034B000FDCF8EB586E08EBD0DB407FEFDCF8EB577
:1034C000289A2097D1F12881E9808A81AB809927B9
:1034D000AA27BB27BA2FA92F982F8827332744273D
:1034E0005527522F442733272227FF24002711274F
:1034F0008701FF24EE242E293F29402B512BBB248A
:10350000CC24DD242A293B294C295D29822B932BAD
:10351000A42BB52B860D971DA81DB91D8B83292FB4
:103520003A2F4B2F55272A839D014427552729835E
:103530008B2F9927AA27BB278883C2010E94720A72
:10354000C2010E94790AFC016082718282829382A8
:1035500086E08093D41084E08093350880E090E08A
:1035600002C085E090E0DF91CF911F910F91FF9015
:10357000EF90DF90CF90BF90AF909F908F907F9013
:103580006F905F904F900895AF92BF92CF92DF926D
:10359000EF92FF920F931F93CF93DF938091290EA9
:1035A000882309F407C10E94C512882309F402C1C7
:1035B0008FB7F8949927C091AA0AD091AB0A8FBF10
:1035C0001092290E28988FE88EBD0DB407FEFDCF0E
:1035D0008EB51EBC0DB407FEFDCF8EB5289A982F70
:1035E00080913508833011F0873031F485E0809385
:1035F000D41088E080933508A92EBB24A2FE68C0B1
:1036000080913508863019F41092350803C088235C
:1036100009F05EC0943009F046C0289886E88EBD57
:103620000DB407FEFDCF8EB51EBC0DB407FEFDCF59
:103630002EB5289A2F718091EC09982F9695969522
:10364000322F391B830F8093EC09E091D208F0915F
:10365000D308DF01AC57BF4F8C918B7F88608C9370
:10366000EB57FF4F21830E944D0A6B017C010091B3
:10367000D2081091D308C8010E94720AC8010E94A2
:10368000790AFC01CC19DD092797CE01AA2797FDFD
:10369000A095BA2F8C0D9D1DAE1DBF1D80839183FB
:1036A000A283B38312C0E091D208F091D308EC5703
:1036B000FF4F8081877F8083E091D208F091D3080B
:1036C000EC57FF4F80818D7F808385E080933508A4
:1036D000A3FE70C080913508843009F04EC085E0AB
:1036E0008093D410109235088091D508833019F456
:1036F0001092D5085FC0C091DF10D091E010CE01CC
:103700000E947C0A882389F18A8129819927982F30
:1037100088273327822B932B87749C7C815498486D
:1037200021F58F812E819927982F88273327822B87
:10373000932B8F5F9F4FC9F090E08091F00D88230D
:1037400009F491E0992389F012E01093B60A81E020
:103750008093F00D809184009091850069E973E079
:103760000E948D0A1093D50825C01092D50810929A
:103770008B0A80E00E94AF171DC08530D9F42091DC
:10378000A50A289886E88EBD0DB407FEFDCF8EB53C
:103790001EBC0DB407FEFDCF8EB5289A8F71922FF7
:1037A00096959695891B280F2093A50A89E080930A
:1037B000350808C090913508992309F4E9C2993079
:1037C00009F016C2289880E28EBD0DB407FEFDCF29
:1037D0008EB51EBC0DB407FEFDCF8EB5482F552704
:1037E000433008F49DC3842F99278E3791050CF040
:1037F00097C31EBCE091D208F091D3084083542FA8
:103800005250573010F4452F01C047E0DF011196A8
:10381000242FFD0160E070E00DB407FEFDCF8EB5F2
:103820001EBC992781936827062E6295607F6025CC
:10383000072E762F62956F70062666957627672786
:10384000660F660F660F6025215031F74150A40FB7
:10385000B11D4F5F1196E091D208F091D30881819C
:1038600090E08770823009F491E0992349F020E0DC
:1038700030E08091D508823081F421E030E00DC045
:103880008FB7F894282F332790E080911E0E833055
:1038900008F491E02FBF292F3327232B09F45EC0B2
:1038A000952F941B18C00DB407FEFDCF8EB51EBC1E
:1038B0008C938D916827062E6295607F6025072E78
:1038C000762F62956F700626669576276727660FB6
:1038D000660F660F6025915030F70DB407FEFDCFDF
:1038E0008EB51EBC9B012827022E2295207F202505
:1038F000032E322F22952F7002262695322723275A
:10390000220F220F220F20250DB407FEFDCF8EB50A
:103910001EBC2827022E2295207F2025032E322F21
:1039200022952F700226269532272327220F220F59
:10393000220F20250DB407FEFDCF8EB5E091D208F1
:10394000F091D308EB57FF4F8083289A15E010932E
:10395000D41010923508232B31F016C20DB407FE97
:10396000FDCF8EB5DDC2E090D208F090D30867019C
:103970000894C11CD11CF701818190E0282F3327C6
:10398000277030702230310509F491E08091D5081C
:10399000992329F1823009F026C1F7019381E09142
:1039A000DF10F091E0108381981709F01CC12230DC
:1039B000310509F018C180916F008D7F80936F00F1
:1039C0001092F00DEC57FF4F808181608083109240
:1039D000D50810928B0A80E00E94AF1704C188239B
:1039E000C9F4C7010E94B70A8823A1F01093430BC2
:1039F00082E08093440B1092450BF7018381809302
:103A0000460B83E49BE00E940D19882319F483E0A0
:103A10008093D5080091840010918500C7010E9411
:103A2000B70A882311F0045E1C4F10938B0C00938F
:103A30008A0C80918400909185009801281B390B95
:103A400012161306A4F480918B0A882369F490E07F
:103A50008091F00D882309F491E0992341F0C90188
:103A60000E94061280E801C0806880938B0AF601EC
:103A7000808527819927582F44273327422B532BA2
:103A80008091DC08282F3327F901EE0FFF1FE25D3C
:103A9000F14F808191817091F30D8417950769F43E
:103AA000F901E752FF4E8081871709F467C0872F1D
:103AB0008F5F8093F30D80831DC000E010E080E0F5
:103AC00090E0CEE2DEE0E9EDF0E1DF01682F9C015D
:103AD000888199818417950779F42093DC08909167
:103AE000F30D8C91891709F449C0892F8F5F80935A
:103AF000F30D8C9300E829C08081972F981B09173C
:103B000010F4092F122F6F5FC901019611962296AA
:103B1000319685309105D1F66530B9F41093DC0803
:103B2000A12FBB27FD01EE0FFF1FE25DF14F518377
:103B300040838091F30D8F5F8093F30DFD01E75279
:103B4000FF4E8083AB51BF4E1C929091F30D892F95
:103B50008F778F3779F40F3768F0E9EDF0E1292F8F
:103B6000207880818F6789132083319630E1EE3D84
:103B7000F307B9F78091DC08282F3327F6019281EB
:103B8000A22FBB27FD01EB51FF4E808180FF07C0B4
:103B9000FD01E15EF14F8081981729F102C081603B
:103BA0008083A15EB14F9C93DFB6F89480911E0E86
:103BB0008330B0F4E0914E0EE80FE33008F0E350AC
:103BC000FF27EE0FFF1FEE53F74F00811181F182A7
:103BD000E0828F5F80931E0E89E00E9423067801A9
:103BE0008D2D99278FBFF092D308E092D208C3C0E1
:103BF000892F8150833008F09CC081508230E0F4DE
:103C00003091D4103130C1F420E08091F00D882340
:103C100009F421E0222381F02F9883E08093B60AF3
:103C20003093F00D80918400909185006BE273E0F9
:103C30000E948D0A82E068C0933009F042C08091F2
:103C4000D410833009F097C00E94C5128823C9F1AF
:103C500028988FE88EBD0DB407FEFDCF8EB51EBC33
:103C60000DB407FEFDCF8EB5289A80918100806447
:103C70008093810080E286BB80916F008062809398
:103C80006F009091E609289888EC8EBD0DB407FE70
:103C9000FDCF8EB590669EBD0DB407FEFDCF8EB5EF
:103CA000289A289882EC8EBD0DB407FEFDCF8EB504
:103CB00086E08EBD0DB407FEFDCF8EB5289A84E058
:103CC00023C0809135088150823000F58091D41056
:103CD0008530E1F40E94C5128823C1F0289882EC57
:103CE0008EBD0DB407FEFDCF8EB583E08EBD0DB445
:103CF00007FEFDCF8EB5289A80916F008F7D80934F
:103D00006F001092290E83E08093D41090913508B3
:103D1000913041F48091D4108330B1F52F9A909373
:103D2000D41025C0923039F58091D410833061F5DC
:103D30001EC0973001F50E94C5128823E1F09091D2
:103D4000E609289888EC8EBD0DB407FEFDCF8EB530
:103D500090669EBD0DB407FEFDCF8EB5289A80916A
:103D6000D410853021F484E08093D41004C088E01E
:103D70008093350804C080913508883029F410926A
:103D8000350887E00E94230680913508882309F5CD
:103D90008091D4108530D1F48091290E8823B1F41C
:103DA0008091D508882391F480918B0A882371F43F
:103DB00090E08091F00D882309F491E0992331F08F
:103DC0000E94631780913508882319F48BE00E94C4
:103DD00023068091F00D823009F095C01092F00D0D
:103DE000C090B60AF2E0CF1609F469C023E0C2160B
:103DF00009F46DC031E0C31609F085C020918A0C2A
:103E000030918B0C809184009091850040918B0AB9
:103E1000403829F410928B0A0E94631774C08901FC
:103E2000081B190B47FF03C01016110604F1C091BF
:103E3000ED09D091EE098091D5088823C1F4CE0117
:103E40000E940D199927882369F4FE01EC57FF4F52
:103E500080818E7F8083C092D508D093E010C0937C
:103E6000DF1029C09927F82E882329F102C065E0C8
:103E7000F62E20918B0A822F99278F77019759F47C
:103E80002078226020938B0A80E198E00E94EA0A61
:103E90000E94061238C027FF0AC0101611063CF413
:103EA00080E880938B0AC8010E94061202C010921B
:103EB0008B0A8F2D09C083E080938B0A24C0109257
:103EC000D50810928B0A80E00E94AF171CC0809129
:103ED000D410823019F4C092D41013C080913508E8
:103EE000863079F410923508289881E88EBD0DB49B
:103EF00007FEFDCF8EB51EBC0DB407FEFDCF8EB5FF
:103F0000289A0E94B91F8FB7F894282F33278091E1
:103F1000E509813061F081E08093E5092FBF3ECB58
:103F2000289A85E08093D410109235082DCF1092F6
:103F3000E5092FBFDF91CF911F910F91FF90EF9077
:103F4000DF90CF90BF90AF9008958FB7F894282F4F
:103F500033278091E50981508093E509803811F07D
:103F60002FBF089581E08093E5092FBF0E94C41AF6
:103F700008958FB7F894282F33278091E509882377
:103F800029F080688093E5092FBF089581E0809330
:103F9000E5092FBF0E94C41A089578941F920F92CA
:103FA0000FB60F9211242F933F934F935F936F930C
:103FB0007F938F939F93AF93BF93EF93FF93E6E825
:103FC000F0E080819181208131818FB7F894992729
:103FD0003093AB0A2093AA0A21E02093290E8FBFC9
:103FE0000E94B91FFF91EF91BF91AF919F918F9167
:103FF0007F916F915F914F913F912F910F900FBEE5
:104000000F901F90189578941F920F920FB60F92F1
:1040100011242F933F934F935F936F937F938F93CD
:104020009F93AF93BF93EF93FF9380916F008D7F2A
:1040300080936F0078949FB7F8948091F00D813051
:1040400019F482E08093F00D892F99278FBF0E9489
:10405000B91FFF91EF91BF91AF919F918F917F9188
:104060006F915F914F913F912F910F900FBE0F90E5
:104070001F901895EF92FF920F931F938091000C61
:10408000843090F41092C80864E5E62EF12C012DDE
:10409000112D21E939E040E050E060E070E08091CE
:1040A0009F0A0E9407142DC08FB7F894992720917A
:1040B000E5092F5F2093E5098FBF80918A0A882345
:1040C000D9F4809135088823B9F48091D4108130D7
:1040D00049F490E08091F00D882309F491E0992350
:1040E00059F002C0853041F083E0809335080E948A
:1040F000B91F85E080938A0A0E94A51F83E0809300
:10410000C8081F910F91FF90EF900895EF92FF92D2
:104110000F931F938091C808823009F04EC08091A0
:10412000D6089927982F88272091D7083327822BE4
:10413000932BE816F906A9F080919F0A813049F087
:10414000813028F0823049F08330B9F508C08AE028
:1041500001C08DE00E944B1830C08BE0FBCF8CE09B
:10416000F9CF4091EA094F5F4093EA09809199099C
:104170004817B0F481E08093C8085527440F551FB5
:1041800040585F4F66277727E2E0EE2EF12C012D95
:10419000112D26ED38E080919F0A0E9407140DC072
:1041A000E091000CEF5FE093000CFF27EE5FFD4F06
:1041B000808180939F0A0E943A201F910F91FF9067
:1041C000EF900895CF92EF92FF920F931F93873055
:1041D00061F0883018F4863079F405C0883039F001
:1041E000893051F406C080E005C082E003C083E05E
:1041F00001C081E00E9486201F910F91FF90EF90F7
:10420000CF9008958091C808823019F0833071F4FE
:10421000FBCFE091000CEF5FE093000CFF27EE5F17
:10422000FD4F808180939F0A0E943A2008959F92BB
:10423000AF92BF92CF92DF92EF92FF920F931F93B4
:10424000982EF9018091C808813009F4D5C08130D9
:1042500008F478C0843009F00FC183E08093C80867
:104260008091390E882309F007C1A280BB24CC2499
:10427000DD24DC2CCB2CBA2CAA2420813327442724
:104280005527522F44273327222781819927AA2790
:10429000BB27DC0199278827282B392B4A2B5B2B3E
:1042A00083819927AA27BB27282B392B4A2B5B2BE5
:1042B000A22AB32AC42AD52AE090980AFF2400270C
:1042C0001127102F0F2DFE2CEE242091960A332754
:1042D00044275527522F4427332722278091970AB6
:1042E0009927AA27BB27DC0199278827282B392B58
:1042F0004A2B5B2B8091990A9927AA27BB27282B49
:10430000392B4A2B5B2BE22AF32A042B152BAE14F4
:10431000BF04C006D10681F48091950A843051F41F
:1043200040E050E060E070E0892D0E94A2090E9408
:104330007411A2C081E001C082E0809339020E9422
:1043400019099AC0CC2009F097C0E0909309FF2486
:1043500000271127102F0F2DFE2CEE2420919109FC
:10436000332744275527522F44273327222780916C
:1043700092099927AA27BB27DC0199278827282B90
:10438000392B4A2B5B2B809194099927AA27BB27AD
:10439000282B392B4A2B5B2BE22AF32A042B152BD3
:1043A0008FEFE8168FEFF8068FEF08078FEF1807EB
:1043B000A9F01092EA0981E08093C808B2E0EB2EE0
:1043C000F12C012D112D26ED38E040E850E060E0A1
:1043D00070E080919F0A0E9407144EC0E091000C8B
:1043E000EF5FE093000CFF27EE5FFD4F808180932D
:1043F0009F0A0E943A2040C082E08093C8086091E2
:10440000EA0977278827992720E534E040E050E043
:104410000E94B23DAB01BC0140585E4F6F4F7F4FD1
:1044200080919F0A813079F0813028F0823099F0B4
:10443000833011F518C0EE24FF2400E514E020E0DD
:1044400030E086E017C0EE24FF2400E514E020E011
:1044500030E089E00FC0EE24FF2400E514E020E006
:1044600030E087E007C0EE24FF2400E514E020E000
:1044700030E088E00E94D8141F910F91FF90EF90D8
:10448000DF90CF90BF90AF909F900895AF92BF9272
:10449000CF92DF92EF92FF920F931F930E94A70794
:1044A0007B018C016091C10C7091C20C8091C30C96
:1044B0009091C40CA0902C08B0902D08C0902E08AC
:1044C000D0902F08A114B104C104D10409F44EC046
:1044D000EFB7F8942091F40D20FD36C0A8019701A4
:1044E000261B370B480B590B2A153B054C055D0560
:1044F000C8F4A21AB30AC40AD50A80912C08909174
:104500002D08A0912E08B0912F08821B930BA40BAD
:10451000B50B80932C0890932D08A0932E08B09390
:104520002F0815C081E090E0A0E0B0E080932C0857
:1045300090932D08A0932E08B0932F0821E0A22E6F
:10454000B12CC12CD12C03C02E7F2093F40D8E2FC3
:1045500099278FBF0E94A707AB01BC0191E0E92E0C
:104560009601850183E00E94880705C08091C90CEF
:104570008D7F8093C90C1F910F91FF90EF90DF907A
:10458000CF90BF90AF900895FF920F931F93CF935A
:10459000DF93F82E282F33278BE090E0289FE0014F
:1045A000299FD00D389FD00D1124C65DD74F81E0D3
:1045B00090E0998388831A868A819B81AC81BD8132
:1045C0000097A105B105A1F00FB7F8941127C90113
:1045D0000E94E00B0FBF1A821B821C821D821E826A
:1045E0001F82188619868F2D0E945C0B0E9446221E
:1045F000DF91CF911F910F91FF900895AF92BF92DD
:10460000CF92DF92EF920F931F932091040E3327E6
:104610002150304081E090E0A0E0B0E004C0880F7D
:10462000991FAA1FBB1F2A95D2F78093000E909363
:10463000010EA093020EB093030E0E94D007A0902B
:10464000000EB090010EC090020ED090030E88278D
:1046500099270894A108B108C108D1086A217B21D3
:104660008C219D210894A11CB11CC11CD11CA60E3B
:10467000B71EC81ED91EA092000EB092010EC092A5
:10468000020ED092030E8091050E8E7F8093050E50
:104690008091C00C8D7F8093C00C0E94A707AB0156
:1046A000BC0131E0E32E9601850182E00E9488077B
:1046B0001F910F91EF90DF90CF90BF90AF90089532
:1046C0008091040E893029F089E08093040E0E94C5
:1046D000FE220895EF92FF920F931F93CF93DF93E3
:1046E000CDB7DEB722970FB6F894DEBF0FBECDBFB1
:1046F00060912B02862F8250823008F0CBC0E09070
:104700000C0EFF2400271127102F0F2DFE2CEE2456
:1047100020910A0E332744275527522F4427332749
:10472000222780910B0E9927AA27BB27DC01992706
:104730008827282B392B4A2B5B2B80910D0E99272C
:10474000AA27BB27282B392B4A2B5B2BE22AF32ADB
:10475000042B152B8091070290910802A091090269
:10476000B0910A028E159F05A007B10729F4809128
:10477000050E81608093050E623061F580912D02F7
:10478000882309F087C081E080932D0283E00E9496
:1047900057248091070290910802A0910902B091DC
:1047A0000A028093120C292F3A2F4B2F5527209362
:1047B000110C9D01442755272093100C8B2F99270E
:1047C000AA27BB2780930F0C80910B028093130CB8
:1047D0001092140C6091140C77272AE030E047EF18
:1047E0005DE0CE0101960E944C07882321F081E014
:1047F0000E9457244FC089818093140C20910B0292
:10480000422F5527662777271AE0440F551F661F4A
:10481000771F1A95D1F72AE6829FC0011124AA2793
:10482000BB27480F591F6A1F7B1F80912C028230C3
:1048300079F08330B1F0813011F081E01CC0BAE62C
:10484000EB2EF12C012D112D25E13CE082E011C071
:10485000AAE6EA2EF12C012D112D25E13CE080E0A5
:1048600008C0FAE6EF2EF12C012D112D25E13CE0D8
:1048700081E00E94BA13882369F00E94A707AB0168
:10488000BC01E1E0EE2E00E110E020E030E080E04D
:104890000E94880722960FB6F894DEBF0FBECDBFE8
:1048A000DF91CF911F910F91FF90EF90089582308B
:1048B00040F490912B02933011F0953011F4109246
:1048C0002D0280932B0208950F931F938B019C015F
:1048D00090912B02892F82508230F0F48091070250
:1048E00090910802A0910902B0910A0208171907D5
:1048F0002A073B074CF0081719072A073B0741F521
:1049000080910B02481720F581E00E9457241092F5
:10491000F70D1092F80D1CC094509230C8F480919D
:104920000C0290910D02A0910E02B0910F02081797
:1049300019072A073B074CF0081719072A073B07F6
:1049400039F480911002841718F081E080933A0EB8
:104950001F910F910895DF92EF92FF920F931F9393
:104960007B018C01D42E80912B02882319F481E0E5
:104970000E945724E0920C02F0920D0200930E0266
:1049800010930F02D09210028FEF8093CA0B809386
:10499000CB0B80E090E01F910F91FF90EF90DF90A4
:1049A000089580912B028430F1F580912D028823A7
:1049B00009F079C081E080932D0285E00E945724A0
:1049C0008091A40C9091A50C8093100C892F9927AD
:1049D00080930F0C80910002909101028093120C41
:1049E000892F99278093110C80910C0290910D02D0
:1049F000A0910E02B0910F028093160C292F3A2F2E
:104A00004B2F55272093150C9D01442755272093A4
:104A1000140C8B2F9927AA27BB278093130C809106
:104A200010028093170C80912B028530E1F5809164
:104A30003A0E882331F080E00E946E1710923A0EF1
:104A400008958091A00A882321F481E00E945724D0
:104A500008958091CA0B8093180C8091CB0B8093A2
:104A6000190C80910F0C9927982F88272091100CF2
:104A70003327822B932B8093090C892F99278093BE
:104A80000A0C83E09CE00E945908FC0181E58083C8
:104A90004BE063E07CE081E00E947E16882319F001
:104AA00080E00E946E170895AF92BF92CF92DF927E
:104AB000EF92FF920F931F93CF93DF935B016C01F3
:104AC000C0E0D0E0E6EAFCE0608561FF00C1208143
:104AD000318142815381E480F58006811781D601BE
:104AE000C501821B930BA40BB50B8E159F05A00768
:104AF000B10708F4ECC060FF03C06D7F608708C099
:104B00002E0D3F1D401F511F20833183428353834D
:104B1000C230C1F0C33030F4CC2359F0C13009F0B9
:104B2000DCC00CC0C33009F468C0C53009F0D5C082
:104B300099C00E94D1240E946A23CFC086E00E94BF
:104B40002306CBC08091050E80FD33C080912A02E0
:104B5000882379F5809100029091010280931109D8
:104B6000892F99278093100982E08093120910926F
:104B70001309A4E1B9E0EAE0FEE089E001900D92BA
:104B80008150E1F78FEF80930A0980930B0984E04D
:104B900099E00E945908FC0180E580834EE064E0C2
:104BA00079E080E00E947E16882319F481E08093EA
:104BB0002A0290E080912B02823008F091E08091EF
:104BC000050E992319F08170846007C0982F96957F
:104BD00031F09150990F8170892B8093050E80914F
:104BE000050E8E7F39F48091040E863118F48F5FA4
:104BF0008093040E0E94FE2270C02091C50C30915B
:104C0000C60C4091C70C5091C80C80912C08909113
:104C10002D08A0912E08B0912F080097A105B1058D
:104C2000F1F082179307A407B507C9F480913408FF
:104C3000882361F42FB7F89433278091A10C816009
:104C40008093A10C2FBF85E10E94230680E090E0B5
:104C50000E94E00B80E00E945C0B109234080E94DE
:104C600046223BC02FB7F894332782B194E08927BE
:104C700082B92FBF10920D0A41E05AE08FEF809366
:104C8000070A8093060A10920C0A8091490E9091AF
:104C90004A0E892B11F550934A0E4093490E11E0AC
:104CA00010930A0A809122028823B9F010922202FE
:104CB00021E06FEF7FEF80E00E945E06882369F0BD
:104CC0001093220210924A0E1092490E06C02196AD
:104CD0003996C630D10509F0F7CE82E00E9423064E
:104CE000DF91CF911F910F91FF90EF90DF90CF90C8
:104CF000BF90AF9008958091C00C8D7F8093C00CC1
:104D00008091AE0C8D7F8093AE0C80E00E94572482
:104D10008FEF90E0A0E0B0E080930C0290930D0242
:104D2000A0930E02B0930F029FEF90931002109287
:104D3000CA0B1092CB0B1092F70D1092F80D85E074
:104D40008093060290930D0E10920C0E10920B0E93
:104D500010920A0E90930E0E9093110E1092040E64
:104D600080E090E00895EF92FF920F931F9380915F
:104D7000110EE82FFF2780910E0EE817A0F5609125
:104D80000C0E772788279927982F872F762F66274D
:104D9000E0900A0EFF24002711271E2D0027FF2474
:104DA000EE2420910B0E332744275527A9013327E2
:104DB0002227E22AF32A042B152B20910D0E3327EC
:104DC00044275527E22AF32A042B152B6E297F2925
:104DD000802B912B4E2F0E94AB2484E08093050EF4
:104DE0000E9460231BC04FEF6FEF70E080E090E007
:104DF0000E94AB240E947B2681E080930602809172
:104E0000BF08823031F0833031F0813039F485E0F1
:104E100003C083E001C084E00E94AE181F910F918F
:104E2000FF90EF90089583E0809306028091C90877
:104E30009091CA08A091CB08B091CC0880930D0E38
:104E4000292F3A2F4B2F552720930C0E9D014427D5
:104E5000552720930B0E8B2F9927AA27BB278093CA
:104E60000A0E8091EA0D9091EB0DA091EC0DB0919E
:104E7000ED0D0197A109B1093AE0B695A79597956F
:104E800087953A95D1F78F5F80930E0E1092110E91
:104E900045E06AE07EE080E090E00E94A708809311
:104EA000100E892F992780930F0E80910602833070
:104EB00011F40E94602384E0809306028091BF0871
:104EC00080932C020E94B32608958B3029F18C30F8
:104ED00060F48430C1F0853018F4833071F513C06C
:104EE000853089F08A3049F515C08E30E9F08F3071
:104EF00028F48C3099F08D3001F512C08F30B1F06C
:104F00008031D9F417C0809106028823B1F40E9441
:104F10001327089580E005C082E003C083E001C04C
:104F200081E00E940221089582E001C083E00E9496
:104F3000B312089581E00E94B3120895CF92EF92C8
:104F4000FF920F931F93CF93DF93CDB7DEB72297D6
:104F50000FB6F894DEBF0FBECDBF8091900A482FE8
:104F6000552780E790E0489FF001499FF00D589F3A
:104F7000F00D1124CF018950904F2817390709F0FF
:104F8000E8C0CC2031F08FEF8093CA0B8093CB0B1D
:104F9000D7C0EA50F04F20813327E22FE695E695FF
:104FA000E695FF27E653F44F2770307081E090E0DC
:104FB00002C0880F991F2A95E2F780952081282347
:104FC0002083CA01019662E070E00E94E53D809373
:104FD000900A8091FC0881508093FC082AE030E020
:104FE0004AEC5BE060E070E0CE0101960E944C0765
:104FF000882309F4A8C060911002E0900C0EFF24F1
:1050000000271127102F0F2DFE2CEE2420910A0EC1
:10501000332744275527522F4427332722278091AF
:105020000B0E9927AA27BB27DC0199278827282B55
:10503000392B4A2B5B2B80910D0E9927AA27BB2772
:10504000282B392B4A2B5B2BE22AF32A042B152B16
:1050500080910C0290910D02A0910E02B0910F026E
:105060008E159F05A007B10709F067C08091110E4A
:10507000681709F062C06F5F6093110E45E06AE047
:105080007EE080E090E00E94A7088093100E892FB8
:10509000992780930F0E8091110EE82FFF278091A2
:1050A0000E0EE81718F40E94B32647C060910C0E4C
:1050B000772788279927982F872F762F6627E090C4
:1050C0000A0EFF24002711271E2D0027FF24EE249F
:1050D00020910B0E332744275527A9013327222778
:1050E000E22AF32A042B152B20910D0E3327442797
:1050F0005527E22AF32A042B152B6E297F29802BB2
:10510000912B4E2F0E94AB2481E080930602809168
:10511000BF08823041F0833041F0813011F081E0EE
:1051200007C085E003C083E001C084E00E94AE18A0
:10513000882319F080E00E94230681E00E94572412
:105140001092FC0806C08091FC08882311F00E9490
:10515000711422960FB6F894DEBF0FBECDBFDF915B
:10516000CF911F910F91FF90EF90CF900895CF9224
:10517000EF92FF920F931F93843031F0853031F01E
:10518000833039F482E003C083E001C081E00E94F3
:105190009E271F910F91FF90EF90CF90089581E18E
:1051A0000E946A1280913902823031F460919A0A29
:1051B000772780E00E94F3080E947B261092390234
:1051C0000895AF92BF92CF92DF92EF92FF920F932A
:1051D0001F938091130E9927813041F0813008F49C
:1051E000C9C08350823008F0C5C003C00E94CF28D8
:1051F000C1C080913902823009F064C0A090160EBF
:10520000BB24CC24DD24DC2CCB2CBA2CAA2420916A
:10521000140E332744275527522F4427332722279C
:105220008091150E9927AA27BB27DC01992788278B
:10523000282B392B4A2B5B2B8091170E9927AA27F5
:10524000BB27282B392B4A2B5B2BA22AB32AC42A33
:10525000D52AE090980AFF2400271127102F0F2D40
:10526000FE2CEE242091960A332744275527522FEF
:105270004427332722278091970A9927AA27BB27FB
:10528000DC0199278827282B392B4A2B5B2B80910F
:10529000990A9927AA27BB27282B392B4A2B5B2B46
:1052A000E22AF32A042B152BAE14BF04C006D10644
:1052B00039F49091180E80919A0A981709F45AC0FF
:1052C0000E94CF28E090160EFF2400271127102FF0
:1052D0000F2DFE2CEE242091140E33274427552742
:1052E000522F4427332722278091150E9927AA276A
:1052F000BB27DC0199278827282B392B4A2B5B2BCE
:105300008091170E9927AA27BB27282B392B4A2BC8
:105310005B2BE22AF32A042B152B80EDE81687EA93
:10532000F80680E7080786EA1807F9F09091180E4A
:105330008091C8088330F1F41092390EA4E5EA2E6A
:10534000F12C012D112D21E939E040E050E060E021
:1053500070E0892F0E940714882311F484E002C0B2
:105360008091C8088093C80805C081E08093390205
:105370000E941909A5E9BAE0E3E1FEE08AE00190A4
:105380000D928150E1F71F910F91FF90EF90DF9008
:10539000CF90BF90AF900895EF92FF920F931F931D
:1053A00079018A016A3018F04AE050E002C0462FC5
:1053B0005527BC0183E19EE00E94513EE0923502F8
:1053C000F092360200933702109338020E94E128CF
:1053D0001F910F91FF90EF9008957F928F929F926F
:1053E000AF92BF92CF92DF92EF92FF920F931F93F3
:1053F00080913902813021F0823009F04CC1CAC05D
:1054000080909A0AA0909D0ABB24CC24DD24DC2C39
:10541000CB2CBA2CAA2420919B0A3327442755274A
:10542000522F44273327222780919C0A9927AA27A5
:10543000BB27DC0199278827282B392B4A2B5B2B8C
:1054400080919E0A9927AA27BB27282B392B4A2B04
:105450005B2BA22AB32AC42AD52AE090980AFF24FB
:1054600000271127102F0F2DFE2CEE242091960AD5
:10547000332744275527522F44273327222780914B
:10548000970A9927AA27BB27DC0199278827282B69
:10549000392B4A2B5B2B8091990A9927AA27BB2786
:1054A000282B392B4A2B5B2BE22AF32A042B152BB2
:1054B0000E947B2682E080930602E0920D0EBB27BD
:1054C000A12F902F8F2D80930C0EC801AA27BB27E8
:1054D00080930B0EE12EFF2400271127E0920A0E85
:1054E0000894A108B108C108D108BAE0D694C794BD
:1054F000B794A794BA95D1F7A394A0920E0EA09258
:10550000110E45E06AE07EE080E090E00E94A7088E
:105510008093100E892F992780930F0E8091060299
:10552000823011F40E94602384E08093060280920E
:105530002C0240910E0E552760910C0E772788277C
:105540009927982F872F762F6627C0900A0EDD2483
:10555000EE24FF24FC2CEE24DD24CC2400910B0E41
:10556000112722273327980111270027C02AD12A83
:10557000E22AF32A00910D0E112722273327C02A91
:10558000D12AE22AF32A6C297D298E299F290E949B
:10559000AB2481C080909A0A9924A0909D0ABB24D4
:1055A000CC24DD24DC2CCB2CBA2CAA2420919B0A01
:1055B000332744275527522F44273327222780910A
:1055C0009C0A9927AA27BB27DC0199278827282B23
:1055D000392B4A2B5B2B80919E0A9927AA27BB2740
:1055E000282B392B4A2B5B2BA22AB32AC42AD52A73
:1055F000E090980AFF2400271127102F0F2DFE2C72
:10560000EE242091960A332744275527522F44270A
:10561000332722278091970A9927AA27BB27DC01E5
:1056200099278827282B392B4A2B5B2B8091990AA5
:105630009927AA27BB27282B392B4A2B5B2BE22A39
:10564000F32A042B152B0E947B26E092C908F092C6
:10565000CA080093CB081093CC08A092EA0DB09230
:10566000EB0DC092EC0DD092ED0D8092BF0882E060
:10567000881641F083E0881639F081E0881639F405
:1056800085E003C083E001C084E00E944B188823BA
:1056900011F4109206021F910F91FF90EF90DF908E
:1056A000CF90BF90AF909F908F907F900895EF9292
:1056B0000F931F938230E1F0833028F4882341F068
:1056C0008130D9F508C08330B1F18430B1F533C0F1
:1056D00010922A0232C080912B02853071F58091A0
:1056E000A00A81508093A00A80E00E946E1725C016
:1056F0002091140CE22FE695E695E695FF27E950F8
:10570000F24F277081E090E002C0880F991F2A9520
:10571000E2F780952081282320830E94A707AB0110
:10572000BC0111E0E12E02E010E020E030E080E07A
:105730000E94880702C01092880A1F910F91EF9073
:105740000895CF92EF920F931F93890125513C400A
:1057500089F580912B02833069F5CC2021F081E01E
:105760000E94572427C08091A40C9091A50C80938F
:10577000090C892F992780930A0CC80142970E942F
:105780005908FC0182E5808340E7B801625170400E
:1057900082E00E947E16882369F00E94A707AB0171
:1057A000BC0101E0E02E00E110E020E030E080E00C
:1057B0000E9488071F910F91EF90CF900895CF928C
:1057C000EF92FF920F931F938630C1F0873038F429
:1057D000813071F0813050F08230C9F40DC08830D2
:1057E00089F0883068F0893091F40EC082E001C001
:1057F00083E00E94A12B0BC081E0FBCF80E005C0BD
:1058000082E003C083E001C081E00E9417211F9164
:105810000F91FF90EF90CF900895CF92DF92EF928B
:10582000FF920F931F93CF93DF93C82E7B01D090ED
:105830001B02CD2DDD278BE090E0C89FF001C99FB2
:10584000F00DD89FF00D1124E453F44F10818FEF29
:1058500080931B02108281E0D81659F0D81638F0D8
:1058600082E0D81641F083E0D81651F406C080E0FB
:1058700005C081E003C082E001C083E00E945E09B0
:10588000133009F4A3C0143030F41130B1F11230E8
:1058900009F0AEC05EC0143021F0153009F0A8C088
:1058A0006CC0E0908B09F0908C0900918D091091EB
:1058B0008E098BE090E0C89FF001C99FF00DD89F42
:1058C000F00D1124E453F44F4381548165817681B6
:1058D0002181328181E0D81649F0D81638F082E073
:1058E000D81621F083E0D81609F082C01092310258
:1058F0008091D8100E94DF2B7BC0E0908B09F09044
:105900008C0900918D0910918E098BE090E0C89F61
:10591000F001C99FF00DD89FF00D1124E453F44F0E
:1059200043815481658176812181328181E0D8165D
:1059300049F0D81638F082E0D81621F083E0D81666
:1059400009F056C0109231028091D8100E94B728F9
:105950004FC081E0D81649F0D81638F082E0D8164A
:1059600021F083E0D81609F043C0109231026C2D6B
:105970008091D8100E9465273BC000918B0910913F
:105980008C0920918D0930918E098BE090E0C89FA1
:10599000F001C99FF00DD89FF00D1124E453F44F8E
:1059A000438154816581768181E0D81641F0D81613
:1059B00030F082E0D81619F083E0D816C9F41092BE
:1059C00031028091D8100E94E22012C081E0D816E6
:1059D00041F0D81630F082E0D81619F083E0D816DE
:1059E00039F4109231026C2D8091D8100E94BC17AE
:1059F000DF91CF911F910F91FF90EF90DF90CF90AB
:105A00000895282F8091890A4093890A8330A9F04C
:105A1000843028F4813089F0823069F506C0843002
:105A200009F18650823038F513C080911B028F3FF8
:105A300011F1222389F4CB0108C080911B028F3F12
:105A4000D1F0222349F480E090E00E94DC2E0895FA
:105A500080911B028F3F79F060E070E0822F0E94FE
:105A60000D2C089580911B028F3F29F060E070E0BB
:105A7000822F0E940D2C0895CF92DF92EF92FF9219
:105A80000F931F932091930A3091940A6091A30C75
:105A9000462F5527FA01EE0FFF1FE40FF51FDF0118
:105AA000A250B74F8D919C9111972817390709F093
:105AB000D3C09091890A953009F44DC0963080F496
:105AC000923009F493C0933020F4913009F0F7C07C
:105AD00072C0933009F4A5C0943009F0F0C007C03B
