:100000000C9469000C9488000C9488000C9488006F
:100010000C9488000C9488000C9488000C94880040
:100020000C9488000C9488000C9488000C94880030
:100030000C9488000C9456070C9488000C94B2051C
:100040000C9488000C9488000C9488000C94880010
:100050000C9488000C9488000C9488000C94880000
:100060000C9488000C94C9050C9488000C94190613
:100070000C9488000C9488000C9488000C94A006C2
:100080000C947F060C948A060C9495060C94B30687
:100090000C9462060C9488000C9474060C948800EE
:1000A0000C9488000C9488000C9488000C948800B0
:1000B0000C9488000C9488000C9488000C948800A0
:1000C0000C9488000C9488000C94880000020E06A2
:1000D0000C0411241FBECFEFD1E2DEBFCDBF12E072
:1000E000A0E0B2E0EEEDFAE100E00BBF02C0079045
:1000F0000D92A235B107D9F718E0A2E5B2E001C030
:100100001D92AA36B107E1F70E9495080C946E0D76
:100110000C940000FC0120E030E007C08281938154
:10012000280F391F0480F581E02D3097B9F7C901F8
:100130000895FB0151834083338322839583848315
:100140000895CF92DF92EF92FF920F931F93CF9378
:10015000DF938C01FB017A01690105C0E81BF90BF3
:10016000E8010C811D81E8018A819B81E817F9076C
:10017000A8F71CC0E8018A819B818E1B9F0BE701B9
:100180008E159F0508F4EC01D8018D919C91AE016C
:10019000B6018E0F9F1F0E944C0ACC0EDD1EEC1A7A
:1001A000FD0AE8010C811D81E0E0F0E00115110578
:1001B00019F01E141F04F4F280E090E0DF91CF915B
:1001C0001F910F91FF90EF90DF90CF9008954F9285
:1001D0005F926F927F928F929F92AF92BF92CF92D7
:1001E000DF92EF92FF920F931F93CF93DF938C01D7
:1001F0004B015A013901CC24DD2404C06C01F80103
:10020000048115810115110519F44424552436C0C3
:10021000F801828193818C0D9D1D8816990670F7D7
:100220004424552428C07401EC18FD08F80182818B
:1002300093818E199F09E5018A159B0508F4EC014D
:10024000F801608171816E0D7F1DAE01C3010E94B6
:100250004C0A4C0E5D1EF801048115810115110533
:1002600069F0CE0CDF1CCC0EDD1E8C0E9D1EAC1A70
:10027000BD0A6C0E7D1E1A141B04ACF2C201DF9184
:10028000CF911F910F91FF90EF90DF90CF90BF9093
:10029000AF909F908F907F906F905F904F90089558
:1002A000EF92FF920F931F93CF93DF93FC0120E017
:1002B00030E040E050E0A0E0B0E02EC06281738109
:1002C0006115710531F1C081D18100E010E01EC0DF
:1002D000888100FD0BC09927982F8827A82BB92B60
:1002E000C80101968617970771F403C09927A82BB8
:1002F000B92B7D01C701AA27BB27280F391F4A1F29
:100300005B1FA0E0B0E00F5F1F4F21960617170795
:10031000F9F60480F581E02D309781F60BC0DA0103
:10032000C901A070B0709A0144275527280F391FC2
:100330004A1F5B1F203080E0380781E0480780E0DB
:10034000580768F7C90180959095DF91CF911F916B
:100350000F91FF90EF900895EF92FF920F931F93EC
:10036000CF93DF93CDB7DEB76A970FB6F894DEBFB1
:100370000FBECDBFE42E08969A87898740E150E0F2
:100380005C874B879E01215F3F4F3E872D874096BC
:10039000988B8F875A8B498BCE0145969C8B8B8B84
:1003A000CE0101969E8B8D8B88E090E0988F8F8B8D
:1003B0007A8F698FCB010E948A00AA2797FDA095AA
:1003C000BA2FBC01CD010E94530369837A838B83CA
:1003D0009C83FF2400271127C801B7010E94530303
:1003E0006D837E838F839887CE0109960E9450018A
:1003F0006A960FB6F894DEBF0FBECDBFDF91CF91E6
:100400001F910F91FF90EF9008958CED95E09093E0
:100410005302809352020895A2E5B2E004969C0133
:1004200021703070280F391F02C0A40FB51F8D91A5
:100430009C911197AC015F704217530710F097FF22
:1004400006C0CD01825592408C5D954074F388E0E2
:10045000AE32B80718F080E090E00895C901029725
:100460009C013F70306811963C932E93FD01E80F7C
:10047000F91F481B590B5F7051834083CD010296D1
:100480000895CF93DF939C01E2E5F2E0C0E0D0E075
:1004900006C0808191819F70EF01E80FF91FCF01A5
:1004A00002968217930739F0CF01825592408C5DF6
:1004B00095407CF327C0808191819C013F70DF01D2
:1004C000A20FB31F9F7791838083CD018255924005
:1004D0008C5D95404CF48D919C9197FD05C09F706B
:1004E000280F391F31832083209761F028813981BB
:1004F00037FD08C03F70808191819F70280F391FA0
:1005000039832883DF91CF910895E2E5F2E040E05E
:1005100050E00BC02081318137FD04C0C9019F70BC
:10052000480F591F3F70E20FF31FCF0182559240D1
:100530008C5D95407CF3CA0108956F927F928F92F3
:100540009F92AF92BF92CF92DF92EF92FF920F9362
:100550001F93CF93DF93FB015A018B01040F151FEB
:10056000DC01CC24DD2440E050E07AE398EF692EF2
:100570009FEF792E600E711E6E167F0608F460C024
:10058000ED01E980FC9024E030E08FEF882E982E7A
:10059000CCE0D0E0C401022E02C0969587950A9463
:1005A000E2F78E159F0530F042305105B1F420314D
:1005B000310599F4C7010C2E02C0969587950A94CF
:1005C000E2F7682F6F708F7090700A9718F4862F7B
:1005D000805D02C0862F895A81932C5F3F4F2497FC
:1005E00024313105B9F68D919C911197892B21F514
:1005F0004115510559F471938D919C911197892B57
:1006000019F441E050E002C042E050E087E0C81633
:10061000D10424F44130510509F071930894C11CB0
:10062000D11C129688E0C816D10409F0A5CF41303C
:10063000510531F4719304C04130510539F7E4CFCD
:1006400011920A191B09CF01801B910BDF91CF91E9
:100650001F910F91FF90EF90DF90CF90BF90AF90E0
:100660009F908F907F906F900895DC018C918370A4
:10067000823021F4FD012181328113C0833019F0D1
:1006800020E030E00EC0FD01319620E030E0AD0109
:10069000475F5F4F81919191280F391FE417F5074C
:1006A000C9F7C9010895EF92FF920F931F93FB01C1
:1006B000BC01882799272F2F3E2F44275527A901B2
:1006C00033272227E72EF62E002711272E293F2930
:1006D000402B512BCA01B9011F910F91FF90EF9050
:1006E00008959C01DB01FC0104C08D918193415070
:1006F000504041155105C9F7C90108958F929F9245
:10070000AF92BF92CF92DF92EF92FF920F931F931F
:10071000CF93DF936C014B01892B09F4A3C06115C2
:10072000710509F49FC080E1EB0119928A95E9F700
:10073000D60160E070E090E046C02A3301F1822FDC
:1007400080538A3030F4332727FD309520533040D2
:100750000EC0422F552747FD50952154263020F4D6
:100760009A012753304003C09A012755304044E096
:10077000660F771F4A95E1F7622B732B0DC0E92FA7
:10078000FF27EE0FFF1FE80DF91D072F162F11830E
:1007900000839F5F60E070E0FD013196ED012981EB
:1007A000222359F4E92FFF27EE0FFF1FE80DF91D53
:1007B000E72EF62EF182E08255C08C918A3311F437
:1007C0002A3341F0DF012C91222309F0B6CFFD013D
:1007D00001C0319680818823E1F7DF01119760E045
:1007E00070E017E090E03BC02C912A3311F1822F8A
:1007F00080538A3030F4332727FD30952053304022
:100800000EC0422F552747FD50952154263020F425
:100810009A012753304003C09A0127553040092ED2
:1008200002C0220F331F0A94E2F7622B732B9C5FE6
:100830000EC0E12FFF27EE0FFF1FE80DF91DA72EB9
:10084000B62EB182A082115060E070E090E0119766
:10085000FD0181818A3319F48C918A3319F0CA160B
:10086000DB0610F2DF91CF911F910F91FF90EF9077
:10087000DF90CF90BF90AF909F908F900895FC0134
:100880007183608353834283358324830895CF9299
:10089000DF92EF92FF920F931F93CF93DF938C0120
:1008A0006B01EE24FF241AC0F80182819381E89E37
:1008B000E001E99ED00DF89ED00D11248081918138
:1008C000C80FD91FCE01F6010995FFEF8F3F9F0793
:1008D00059F0019759F00894E11CF11CF80184814A
:1008E0009581E816F90600F3C0E0D0E0CE01DF9173
:1008F000CF911F910F91FF90EF90DF90CF900895CF
:10090000EF92FF920F931F93CF93DF93EC017B0144
:1009100000E010E012C08A819B819C01029FC0010F
:10092000039F900D129F900D112428813981820F11
:10093000931FF70109950F5F1F4F8C819D81081749
:10094000190748F3DF91CF911F910F91FF90EF901E
:1009500008958FB7F894992708958FBF08957FB7AA
:10096000F8946091B20020913208309133084091A0
:10097000340850913508B99B11C08091B300909113
:10098000B200280F311D411D511D2F5F3F4F4F4FAA
:100990005F4F290F311D411D511D04C0260F311D10
:1009A000411D511D872F99278FBFCA01B901089595
:1009B000282F9FB7F894E82FFF27EA5CF74F808134
:1009C0008F3F81F4E0916108E21771F40BC020932E
:1009D000580804C0FF27EA5CF74F20832093610882
:1009E00020E007C025E005C0809158088F3F91F7AF
:1009F000EECF892F99278FBF822F99270895DF92F5
:100A0000EF92FF920F931F938FB7F894282F3327FD
:100A1000D22E9091B3008091B20047B3981711F095
:100A200041FF02C02FBF71C080913D088823E1F1D2
:100A30000E94AF04E0902E08F0902F08009130083B
:100A40001091310820915B0830915C0840915D085D
:100A500050915E086E197F09800B910B6217730726
:100A60008407950720F010923D0871E01EC02E0DFE
:100A70003F1D401F511F8091320890913308A09173
:100A80003408B0913508281B390B4A0B5B0B273E05
:100A900031054105510540F4822F223010F070E0FD
:100AA00005C070E082E002C070E086EE682F615001
:100AB0008091B60083FDFCCF8091B200681709F4E5
:100AC0006F5F209132083091330840913408509183
:100AD0003508DA01C9010196A11DB11D860F911DCE
:100AE000A11DB11D82179307A407B50710F4622F4B
:100AF00060958091B60083FDFCCF6093B300DFBEAC
:100B0000772319F081E00E94D8041F910F91FF9084
:100B1000EF90DF900895AFB7F894BB27E1E0E09342
:100B20003D0860932E0870932F08809330089093AF
:100B3000310820935B0830935C0840935D08509324
:100B40005E08AFBF0E94FF040895813039F0813004
:100B500018F0823031F404C0129808951198089565
:100B6000109808951F920F920FB60F9211248F9331
:100B70008091B0008093B0008091B60081FDFCCFE1
:100B80008F910F900FBE0F901F90189580E090E00E
:100B900008951F920F920FB60F9211242F933F9337
:100BA0008F939F93EF93FF938091C00087FF2AC09C
:100BB0002091C600E0914408F0914508309711F16A
:100BC00080915F0890916008E80FF91F20830196DB
:100BD0009093600880935F082091620830916308C9
:100BE0008217930778F0109245081092440880917C
:100BF0004F08833039F08091C1008F778093C10016
:100C000010924F08FF91EF919F918F913F912F91FB
:100C10000F900FBE0F901F9018952FB7F8943327A1
:100C20008093C600E0ECF0E08081806480832FBF79
:100C3000089578941F920F920FB60F9211242F935C
:100C40003F934F935F936F937F938F939F93AF9354
:100C5000BF93EF93FF9320913A0830913B08809126
:100C60005208909153082817390780F4E0913E0804
:100C7000F0913F08E20FF31F80812F5F3F4F3093C9
:100C80003B0820933A080E940D060BC010923F08C3
:100C900010923E0810923C088091C1008F7B809397
:100CA000C100FF91EF91BF91AF919F918F917F9183
:100CB0006F915F914F913F912F910F900FBE0F90C9
:100CC0001F9018951F920F920FB60F9211248F93B9
:100CD0008091C80087FF02C08091CE008F910F9055
:100CE0000FBE0F901F90189578941F920F920FB619
:100CF0000F9211240F900FBE0F901F9018957894AB
:100D00001F920F920FB60F9211240F900FBE0F90EB
:100D10001F90189578941F920F920FB60F9211247E
:100D20000F900FBE0F901F90189578941F920F92FE
:100D30000FB60F9211240F900FBE0F901F901895B1
:100D400078941F920F920FB60F9211248F939F9356
:100D500080919600909197009F918F910F900FBE78
:100D60000F901F90189578941F920F920FB60F92C4
:100D700011242F933F938F939F932FB7F89433278A
:100D80008091420890914308019690934308809384
:100D900042082FBF9F918F913F912F910F900FBECF
:100DA0000F901F901895CF93DF93982F80913C0858
:100DB000882319F0CFEFDFEF0BC0C92FDD27C7FD68
:100DC000D0958C2F0E940D068091C00086FFFCCF2D
:100DD000CE01DF91CF910895CF93DF938FB7F89431
:100DE0009927129A119A109A8FBF8091400890917A
:100DF00041088230910559F08330910591F00097B8
:100E0000B1F480E00E94A50580E092E005C082E098
:100E10000E94A50585E092E00E94730AC0E0D8E038
:100E200014C081E00E94A5058DE092E0F5CF9F936C
:100E30008F9384E192E09F938F930E945C0AC0E0BD
:100E4000D0E00F900F900F900F90809140089091FC
:100E5000410801969093410880934008069721F439
:100E600010924108109240080E94AF046093460817
:100E7000709347088093480890934908CE01AA27A9
:100E800097FDA095BA2F80934A0890934B08A093A2
:100E90004C08B0934D0880914E08836080934E08B3
:100EA00082E00E94D804DF91CF9108951F920F92A3
:100EB0000FB60F9211242F933F934F935F936F932D
:100EC0007F938F939F93AF93BF93EF93FF93809103
:100ED000B0008093B0008091B60081FDFCCF80917E
:100EE000B30099270196AA27BB2720913208309199
:100EF00033084091340850913508280F391F4A1F94
:100F00005B1F20933208309333084093340850938A
:100F1000350878940E94FF04FF91EF91BF91AF9143
:100F20009F918F917F916F915F914F913F912F9101
:100F30000F900FBE0F901F901895EF92FF920F9396
:100F40001F93E0914E08E1FF2EC02091460830919A
:100F500047084091480850914908E0904A08F090AD
:100F60004B0800914C0810914D08621B730B840BC9
:100F7000950B6E157F0580079107A8F0E0FF04C070
:100F8000ED7FE0934E080CC02E0D3F1D401F511FFA
:100F900020934608309347084093480850934908E7
:100FA00080E00E94D80482E00E94D8041F910F9133
:100FB000FF90EF900895EF92FF920F931F930E947E
:100FC000AF047B018C018FB7F894992710923D08EC
:100FD0008FBF80914E0881FF3DC08091460890915F
:100FE0004708A0914808B0914908A8019701281B1B
:100FF000390B4A0B5B0BDA01C90120914A08309189
:101000004B0840914C0850914D08281B390B4A0B56
:101010005B0B2F3F8FEF38078FEF48078FE758079D
:10102000C9F012161306140615062CF0C801B701F4
:101030000E949D070FC02093540830935508409399
:1010400056085093570881E080933908C801B701CA
:101050000E948B051F910F91FF90EF900895EF92E2
:10106000FF920F931F9380913908882361F5209197
:101070005408309155084091560850915708EFB7E1
:10108000F894FF2760912E0870912F088091300806
:1010900090913108E0905B08F0905C0800915D0849
:1010A00010915E086E0D7F1D801F911FEFBF209372
:1010B000540830935508409356085093570810929F
:1010C00039080E948B050E94AF040E949D071F9162
:1010D0000F91FF90EF900895809158088F3F11F184
:1010E000282F3327F901EA5CF74F80818093580855
:1010F0008F3F11F4809361088FEF80832F3F91F031
:10110000213041F0213018F0223039F008C00E941F
:10111000EC0605C00E942F0802C00E94DB0781E098
:1011200090E0089580E090E00895FF920F931F9360
:10113000FFB6F89414BE88E10FB6F894809360006F
:10114000109260000FBE43E050E06FEF70E086E366
:1011500098E00E94550A8FEF8093580880936108A9
:1011600081E08093810080E28093B60083E08093E9
:10117000B10080918400909185004AE7209184001D
:10118000309185002817390708F44150442311F0A5
:10119000C901F4CF9091B2008091B2008917E1F3B8
:1011A00020918400309185009091B2008091B2002E
:1011B0008917E1F38091840090918500821B930B45
:1011C000409635E0969587953A95E1F790935A08C1
:1011D000809359081092B1008091B10080938100F2
:1011E000809181008093B6001092B2001092850029
:1011F000109284008FEF87BB87B386BB8091B600C7
:101200008571E1F70A9A099A089A129A119A109A26
:1012100018B88FEF87B90C98149810929500109217
:1012200094008091710081608093710080919100A1
:10123000887F8260809391000E946C088823E1F788
:1012400084E492E0909367088093660812E006E0D9
:101250006091590870915A08882799272CE0660FE9
:10126000771F881F991F2A95D1F720E031EE40E0C3
:1012700050E00E942A0A215030402093C400832F5E
:1012800099278093C5001093C0000093C20010926C
:10129000C1002093CC008093CD001093C800009330
:1012A000CA001092C90084E490E0909351088093A2
:1012B00050088091C1008F7B8093C1008091C10054
:1012C0008F778093C10010924F0810923C08809154
:1012D000C10088608093C1008091C10080618093CB
:1012E000C1008091C10080688093C1008091B600E8
:1012F00080628093B6008091B60081FDFCCF82E0D1
:101300008093B0008091B60080FDFCCF83E0809395
:10131000B1008091B60083FDFCCF86EE8093B300D0
:10132000809170008260809370000E94FF040E9490
:101330006C088823E1F78F2D99278FBF789410923E
:1013400041081092400880E00E94D8048FB7F894BA
:10135000482F552757C0809170009927837090704F
:10136000892B19F4E5E0F0E014C08091B6008A7191
:10137000E1F78091B3009091B200891B8C3038F076
:101380008091B200853F18F4E3E0F0E002C0E2E0B3
:10139000F0E080916E00867009F580916F008E728A
:1013A000E9F4809171008E72C9F40CB407FC16C088
:1013B0008091C100887191F48091C900887171F4A5
:1013C0008091BC0082FD0AC080917A0087FF03C033
:1013D00081E090E005C085E090E002C080E090E010
:1013E00023B78E1708F4E82FFF27E453FF4FE4914B
:1013F000207F2160E22BE3BF78948895F89483B72F
:101400008E7F83BF809158088F3F09F4A4CF282F87
:101410003327F901EA5CF74F8081809358088F3FAA
:1014200011F4809361088FEF80832F3F09F493CFED
:101430004FBF213049F0213020F0223009F086CF13
:1014400006C00E94EC0682CF0E942F087FCF0E9428
:10145000DB077CCFA1E21A2EAA1BBB1BFD010DC02E
:10146000AA1FBB1FEE1FFF1FA217B307E407F50754
:1014700020F0A21BB30BE40BF50B661F771F881F30
:10148000991F1A9469F760957095809590959B01C6
:10149000AC01BD01CF010895FB01DC0102C0019048
:1014A0000D9241505040D8F70895DC0101C06D9372
:1014B00041505040E0F70895A2E0B0E0E2E6FAE0E3
:1014C0000C94470DFE01379661917191FA83E9837F
:1014D000AF0180916608909167080E94A60AE2E039
:1014E00022960C94630D0F931F93CF93DF938C017F
:1014F000E0916608F0916708838181FF1FC0C0E01A
:10150000D0E00AC0FD0120853185BD01F9010995B2
:10151000892B11F0CFEFDFEFF80181918F01A091BE
:101520006608B0916708882369F7FD012085318539
:10153000BD018AE0F9010995892B11F0CFEFDFEFAA
:10154000CE01DF91CF911F910F910895ABE0B0E0F4
:10155000ECEAFAE00C94390D3C014B016A01FC0104
:1015600017821682838181FD03C08FEF9FEFDAC15E
:10157000F3013381F40133FD859133FF81914F01F4
:10158000882309F4CCC1853239F433FD859133FFCA
:1015900081914F01853229F4B30199270E94AC0C47
:1015A000E7CF00E0442455244AE00032B0F48B3207
:1015B00069F08C3228F4803251F0833271F40BC020
:1015C0008D3239F0803349F4016028C00260046034
:1015D00025C0086023C0006121C007FD29C0282F55
:1015E00020532A3078F406FF06C0549EC00111240F
:1015F000522E580E13C0449EC0011124422E480E94
:1016000000620CC08E3221F406FD89C1006406C060
:101610008C3611F4006802C0883651F4F40133FDB1
:10162000859133FF81914F01882309F46FC0BDCFAD
:10163000982F8554833018F08052833038F424E09A
:1016400030E0C20ED31E8FE389830FC0933631F092
:10165000933799F0933509F05BC023C0F601808180
:10166000898322E030E0C20ED31E7E010894E11C83
:10167000F11C51E0A52EB12C12C0F601E080F180E2
:1016800006FD03C06FEF7FEF02C0652D772722E0D4
:1016900030E0C20ED31EC7010E94A10C5C010F777F
:1016A00013C0F601E080F18006FD03C06FEF7FEF0D
:1016B00002C0652D772722E030E0C20ED31EC7019D
:1016C0000E94960C5C01006803FF07C01BC0B301B9
:1016D00080E290E00E94AC0C4A94842D9927A816D1
:1016E000B906A8F30FC0F70107FD859107FF8191A7
:1016F0007F01B30199270E94AC0C41104A940894D1
:10170000A108B108A114B10471F706C190E03EC070
:10171000943611F0993691F507FF0AC0F601608101
:1017200071818281938124E030E0C20ED31E0DC00E
:10173000F601808191819C01B901882777FD809510
:10174000982F42E050E0C40ED51E4FE6B42EB022D2
:1017500097FF09C090958095709561957F4F8F4F49
:101760009F4F50E8B52A8E010F5F1F4F2AE030E0EF
:10177000A8010E94D90CA82EA01A4DC0953731F4AB
:101780003FEEF32EF0222AE030E023C029EFF22EC4
:10179000F0229F3661F0903720F4983509F0BFC0F1
:1017A00012C0903739F0983709F0B9C005C028E069
:1017B00030E00FC080E1F82AF4FE02C094E0F92A7C
:1017C00020E130E006C0F4FE02C0E6E0FE2A20E19F
:1017D00032E0F7FE0AC0F601608171818281938157
:1017E00044E050E0C40ED51E0BC0F601808191810B
:1017F000AC01BA0188279927E2E0F0E0CE0EDF1EA7
:101800008E010F5F1F4FA8010E94D90CA82EA01AAD
:101810008FE7B82EBF20B6FE10C0FEEFBF22A51482
:1018200060F42B2D332724FF1AC022FF02C0052DA0
:1018300009C02FEEB222052D01C00A2D2B2D332712
:1018400024FF0EC0FE01EA0DF11D8081803319F4E2
:1018500039EEB32209C00F5F22FF06C004C0052D78
:10186000822F867809F00F5FEB2CFF24E3FC14C075
:10187000E0FE0FC0041510F05A2C0BC0542C501A67
:101880005A0C042D06C0B30180E290E00E94AC0C1B
:101890000F5F0415C0F304C0041510F4401A01C012
:1018A0004424E4FE10C0B30180E390E00E94AC0C3D
:1018B000E2FE1EC0E1FE03C088E590E002C088E7BA
:1018C00090E0B3010CC08E2D867891F0E1FE02C04D
:1018D0008BE201C080E2B7FC8DE2B30199270E9440
:1018E000AC0C06C0B30180E390E00E94AC0C5A94AB
:1018F000A514C0F3AA94FE01EA0DF11D8181B30184
:1019000099270E94AC0CAA2039F0F4CFB30180E2F1
:1019100090E00E94AC0C4A944420C1F729CEF30118
:1019200086819781E0E12B960C94550DFC01059082
:10193000615070400110D8F7809590958E0F9F1FD1
:101940000895FC016150704001900110D8F7809516
:1019500090958E0F9F1F08950F931F93CF93DF9342
:101960008C01EB018B81992781FF1BC082FF0DC089
:101970002E813F818C819D812817390764F4E8818D
:10198000F9810193F983E88306C0E885F985802F02
:101990000995892B31F48E819F8101969F838E83D7
:1019A00002C00FEF1FEFC801DF91CF911F910F9180
:1019B0000895FA01AA27283051F1203181F1E894E5
:1019C0006F936E7F6E5F7F4F8F4F9F4FAF4FB1E032
:1019D0003ED0B4E03CD0670F781F891F9A1FA11D2D
:1019E000680F791F8A1F911DA11D6A0F711D811D2E
:1019F000911DA11D20D009F468943F912AE0269FF3
:101A000011243019305D3193DEF6CF010895462F51
:101A10004770405D4193B3E00FD0C9F7F6CF462F32
:101A20004F70405D4A3318F0495D31FD405241939B
:101A300002D0A9F7EACFB4E0A69597958795779558
:101A40006795BA95C9F700976105710508959B01DF
:101A5000AC010A2E06945795479537952795BA9568
:101A6000C9F7620F731F841F951FA01D08952F9241
:101A70003F924F925F926F927F928F929F92AF921E
:101A8000BF92CF92DF92EF92FF920F931F93CF936B
:101A9000DF93CDB7DEB7CA1BDB0B0FB6F894DEBF02
:101AA0000FBECDBF09942A88398848885F846E8428
:101AB0007D848C849B84AA84B984C884DF80EE8072
:101AC000FD800C811B81AA81B981CE0FD11D0FB67B
:0E1AD000F894DEBF0FBECDBFED010895FFCF2D
:101ADE005265640D0059656C6C6F770D0047726529
:101AEE00656E0D00436F6C6F7220696E64657820B1
:101AFE002564206E6F7420737570706F72746564D8
:101B0E00206F6E207468697320706C6174666F72DA
:101B1E006D0D0A000000000200000000D306000058
:021B2E000000B5
:00000001FF
