S01700006275696C642F697269732F6D61696E2E7372656343
S11300000C948E000C94AD0D0C94B70D0C94C10D92
S11300100C94CB0D0C94D50D0C94DF0D0C94E90DC0
S11300200C94F30D0C94AD000C94AD000C94AD0045
S11300300C94AD000C94690F0C94AD000C94B20CAC
S11300400C94571E0C948D1E0C94690D0C94740D15
S11300500C947F0D0C94AD000C94AD000C94AD0089
S11300600C94C60C0C94AD000C94AD000C94AD0033
S11300700C94AD000C9418150C94AD000C94360F30
S11300800C94DF0E0C94200F0C942B0F0C94490F3E
S11300900C94AD000C94AD000C94AD000C94AD0028
S11300A00C94AD000C94AD000C94AD000C94AD0018
S11300B00C94AD000C94AD000C94AD000C94AD0008
S11300C00C94AD000C94AD000C94AD00ED283629D1
S11300D05F29FD29302A882A1C2B682B6B2B122CB4
S11300E0762B8A2B192C392C4C2C582C5A2C5E2C00
S11300F0622C662C782C892CFF2C6B2D7A2DA52D47
S1130100A82DAA2DCB2D092EF228372E4B2EF928F7
S11301105D2E262F133000020E060C0411241FBE80
S1130120CFEFD1E2DEBFCDBF12E0A0E0B2E0EAE75C
S1130130FBE600E00BBF02C007900D92A631B107A9
S1130140D9F716E1A6E1B2E001C01D92AA37B107C2
S1130150E1F70E941C310C94BC350C940000FC01A6
S113016020E030E007C082819381280F391F04808A
S1130170F581E02D3097B9F7C9010895FB0151834A
S1130180408333832283958384830895CF92DF92BF
S1130190EF92FF920F931F93CF93DF938C01FB0198
S11301A07A01690105C0E81BF90BE8010C811D8186
S11301B0E8018A819B81E817F907A8F71CC0E801C8
S11301C08A819B818E1B9F0BE7018E159F0508F486
S11301D0EC01D8018D919C91AE01B6018E0F9F1F49
S11301E00E94AC35CC0EDD1EEC1AFD0AE8010C8130
S11301F01D81E0E0F0E00115110519F01E141F0443
S1130200F4F280E090E0DF91CF911F910F91FF9085
S1130210EF90DF90CF9008954F925F926F927F920C
S11302208F929F92AF92BF92CF92DF92EF92FF9202
S11302300F931F93CF93DF938C014B015A01390124
S1130240CC24DD2404C06C01F8010481158101155E
S1130250110519F44424552436C0F8018281938190
S11302608C0D9D1D8816990670F74424552428C0CA
S11302707401EC18FD08F801828193818E199F099D
S1130280E5018A159B0508F4EC01F8016081718190
S11302906E0D7F1DAE01C3010E94AC354C0E5D1E78
S11302A0F801048115810115110569F0CE0CDF1CDC
S11302B0CC0EDD1E8C0E9D1EAC1ABD0A6C0E7D1E6E
S11302C01A141B04ACF2C201DF91CF911F910F915C
S11302D0FF90EF90DF90CF90BF90AF909F908F9062
S11302E07F906F905F904F900895EF92FF920F93DD
S11302F01F93CF93DF93FC0120E030E040E050E017
S1130300A0E0B0E02EC0628173816115710531F106
S1130310C081D18100E010E01EC0888100FD0BC0C7
S11303209927982F8827A82BB92BC80101968617DF
S1130330970771F403C09927A82BB92B7D01C70136
S1130340AA27BB27280F391F4A1F5B1FA0E0B0E074
S11303500F5F1F4F219606171707F9F60480F581E2
S1130360E02D309781F60BC0DA01C901A070B0709E
S11303709A0144275527280F391F4A1F5B1F203035
S113038080E0380781E0480780E0580768F7C90132
S113039080959095DF91CF911F910F91FF90EF90F1
S11303A00895EF92FF920F931F93CF93DF93CDB7EE
S11303B0DEB76A970FB6F894DEBF0FBECDBFE42E4A
S11303C008969A87898740E150E05C874B879E01B5
S11303D0215F3F4F3E872D874096988B8F875A8B9E
S11303E0498BCE0145969C8B8B8BCE0101969E8BBF
S11303F08D8B88E090E0988F8F8B7A8F698FCB01FB
S11304000E94AF00AA2797FDA095BA2FBC01CD0189
S11304100E94780369837A838B839C83FF2400275B
S11304201127C801B7010E9478036D837E838F83EF
S11304309887CE0109960E9475016A960FB6F894C2
S1130440DEBF0FBECDBFDF91CF911F910F91FF9003
S1130450EF9008958CED95E09093380280933702E5
S11304600895A7E3B2E004969C0121703070280F30
S1130470391F02C0A40FB51F8D919C911197AC0137
S11304805F704217530710F097FF06C0CD018753E2
S113049092408C5D954074F388E0A331B80718F05E
S11304A080E090E00895C90102979C013F70306894
S11304B011963C932E93FD01E80FF91F481B590B2D
S11304C05F7051834083CD0102960895CF93DF93EB
S11304D09C01E7E3F2E0C0E0D0E006C080819181B6
S11304E09F70EF01E80FF91FCF010296821793075F
S11304F039F0CF01875392408C5D95407CF327C03F
S1130500808191819C013F70DF01A20FB31F9F770F
S113051091838083CD01875392408C5D95404CF448
S11305208D919C9197FD05C09F70280F391F3183D1
S11305302083209761F02881398137FD08C03F70FE
S1130540808191819F70280F391F39832883DF911F
S1130550CF910895E7E3F2E040E050E00BC0208142
S1130560318137FD04C0C9019F70480F591F3F7086
S1130570E20FF31FCF01875392408C5D95407CF3CB
S1130580CA0108956F927F928F929F92AF92BF9209
S1130590CF92DF92EF92FF920F931F93CF93DF934B
S11305A0FB015A018B01040F151FDC01CC24DD244F
S11305B040E050E07AE398EF692E9FEF792E600EC9
S11305C0711E6E167F0608F460C0ED01E980FC9090
S11305D024E030E08FEF882E982ECCE0D0E0C401E8
S11305E0022E02C0969587950A94E2F78E159F0510
S11305F030F042305105B1F42031310599F4C7018E
S11306000C2E02C0969587950A94E2F7682F6F70B6
S11306108F7090700A9718F4862F805D02C0862F21
S1130620895A81932C5F3F4F249724313105B9F6C1
S11306308D919C911197892B21F54115510559F400
S113064071938D919C911197892B19F441E050E09D
S113065002C042E050E087E0C816D10424F44130DF
S1130660510509F071930894C11CD11C129688E0BD
S1130670C816D10409F0A5CF4130510531F4719366
S113068004C04130510539F7E4CF11920A191B090E
S1130690CF01801B910BDF91CF911F910F91FF90A0
S11306A0EF90DF90CF90BF90AF909F908F907F900E
S11306B06F900895DC018C918370823021F4FD01E8
S11306C02181328113C0833019F020E030E00EC064
S11306D0FD01319620E030E0AD01475F5F4F81912D
S11306E09191280F391FE417F507C9F7C901089537
S11306F0EF92FF920F931F93FB01BC018827992768
S11307002F2F3E2F44275527A90133272227E72ED1
S1130710F62E002711272E293F29402B512BCA01E1
S1130720B9011F910F91FF90EF9008959C01DB0197
S1130730FC0104C08D9181934150504041155105F5
S1130740C9F7C90108958F929F92AF92BF92CF9239
S1130750DF92EF92FF920F931F93CF93DF936C017D
S11307604B01892B09F4A3C06115710509F49FC0DD
S113077080E1EB0119928A95E9F7D60160E070E017
S113078090E046C02A3301F1822F80538A3030F43E
S1130790332727FD3095205330400EC0422F552774
S11307A047FD50952154263020F49A0127533040B8
S11307B003C09A012755304044E0660F771F4A95DD
S11307C0E1F7622B732B0DC0E92FFF27EE0FFF1FFC
S11307D0E80DF91D072F162F118300839F5F60E03A
S11307E070E0FD013196ED012981222359F4E92FAE
S11307F0FF27EE0FFF1FE80DF91DE72EF62EF182FD
S1130800E08255C08C918A3311F42A3341F0DF0120
S11308102C91222309F0B6CFFD0101C031968081CD
S11308208823E1F7DF01119760E070E017E090E0C2
S11308303BC02C912A3311F1822F80538A3030F43B
S1130840332727FD3095205330400EC0422F5527C3
S113085047FD50952154263020F49A012753304007
S113086003C09A0127553040092E02C0220F331FBE
S11308700A94E2F7622B732B9C5F0EC0E12FFF27D3
S1130880EE0FFF1FE80DF91DA72EB62EB182A08230
S1130890115060E070E090E01197FD0181818A338E
S11308A019F48C918A3319F0CA16DB0610F2DF9121
S11308B0CF911F910F91FF90EF90DF90CF90BF9059
S11308C0AF909F908F900895FC0171836083538350
S11308D04283358324830895CF92DF92EF92FF926F
S11308E00F931F93CF93DF938C016B01EE24FF24AE
S11308F01AC0F80182819381E89EE001E99ED00D3F
S1130900F89ED00D112480819181C80FD91FCE018A
S1130910F6010995FFEF8F3F9F0759F0019759F0B2
S11309200894E11CF11CF80184819581E816F9060C
S113093000F3C0E0D0E0CE01DF91CF911F910F9181
S1130940FF90EF90DF90CF900895EF92FF920F9376
S11309501F93CF93DF93EC017B0100E010E012C002
S11309608A819B819C01029FC001039F900D129F6D
S1130970900D112428813981820F931FF701099565
S11309800F5F1F4F8C819D810817190748F3DF9172
S1130990CF911F910F91FF90EF9008958FB7F89426
S11309A0992708958FBF0895AC01EAE4FCE080E044
S11309B090E09C01858180FF05C08081918184172E
S11309C0950741F0C90101963B968A30910589F754
S11309D02FEF30E0C90108950E94D4048F3F91F0B5
S11309E099272BE030E0829FF001839FF00D929FC6
S11309F0F00D1124E65BF34F858181FF03C08781ED
S1130A00908508958FEF9FEF08950E94D4048F3F3F
S1130A1019F481E090E00895282F33278BE090E0CB
S1130A20289FF001299FF00D389FF00D1124E65BFB
S1130A30F34F85818860858380E090E008952F924C
S1130A403F924F925F926F927F928F929F92AF925A
S1130A50BF92CF92DF92EF92FF920F931F93CF93A7
S1130A60DF93CDB7DEB729970FB6F894DEBF0FBE7C
S1130A70CDBF6FB76983F8942090800A3090810AC3
S1130A804090820A5090830A6624772488242EE4B6
S1130A90A22E93E8B92ECC24DD24EE24FF2400E01A
S1130AA010E0222D332D442D552D662D772D882DC4
S1130AB090E00E9480332A833B834C835D836E8362
S1130AC07F8388879987822E932EA42EB52E2401A6
S1130AD0350100E20E947E34A22EB32EC42ED52E00
S1130AE0A301920156954795379527952A0D3B1DED
S1130AF04C1D5D1D57FF05C05F772F5F3F4F4F4F64
S1130B005F4F2093800A3093810A4093820A509366
S1130B10830AE9818E2F99278FBFCA01B9012996CB
S1130B200FB6F894DEBF0FBECDBFDF91CF911F91FA
S1130B300F91FF90EF90DF90CF90BF90AF909F9078
S1130B408F907F906F905F904F903F902F9008957B
S1130B50282F9FB7F894E82FFF27EE5AF64F80818D
S1130B608F3F81F4E0915A16E21771F40BC0209381
S1130B708D1404C0FF27EE5AF64F208320935A1693
S1130B8020E007C025E005C080918D148F3F91F7C8
S1130B90EECF892F99278FBF822F99270895EF923F
S1130BA00F931F93AE2D99E0899FF0011124E65411
S1130BB0F34F4083518362837383048315832683B5
S1130BC03783A17080858E7F8A2B8260808784E042
S1130BD00E94A8051F910F91EF9008957FB7F89494
S1130BE06091B20020914D0930914E0940914F0916
S1130BF050915009B99B11C08091B3009091B200FB
S1130C00280F311D411D511D2F5F3F4F4F4F5F4F27
S1130C10290F311D411D511D04C0260F311D411DD9
S1130C20511D872F99278FBFCA01B9010895AF922B
S1130C30BF92CF92DF92EF92FF920F931F93F82E01
S1130C405A016B010E94EE05AB01BC0131E0E32EB9
S1130C50960185018F2D0E94CF051F910F91FF9062
S1130C60EF90DF90CF90BF90AF900895613718F068
S1130C7080E090E008950C9608956E5F0E94360619
S1130C80009709F0029608950B960895CF93DF9389
S1130C90FC01DC0111962181662351F0ED0189816B
S1130CA09927982F882733272062822B932B09C0FA
S1130CB0ED0189819927982F88273327822B932B3D
S1130CC08F7D8183892F99278983DF91CF9108951F
S1130CD0CF93DF93EC018FE38A87809113088F5FB2
S1130CE0809313088B8380911702882319F085E081
S1130CF090E01CC0C458DF4F88819981CC57D04004
S1130D00892B21F061E0CE010E944606D093F50DB7
S1130D10C093F40D1092D10D1092D00D81E0809308
S1130D20170282E00E94A80580E090E0DF91CF9155
S1130D3008950F931F93CF93DF93EC01892BE9F070
S1130D4020917214309173148FEF2F3F3807A9F05C
S1130D508091AB08813019F4198218820BC000917C
S1130D60741410917514C9010E94EC04080F191F22
S1130D701983088380E090E002C081E090E0DF9175
S1130D80CF911F910F91089580912E02E82FFF2794
S1130D90EE0FFF1FE15BFB4E0190F081E02D2091EF
S1130DA03002222351F08F5F80932E028D3011F494
S1130DB010922E02215020933002CF010895AC01ED
S1130DC02091AD0B2C3018F081E090E008958091D3
S1130DD0870A682F620F712D711DFB016C3071053C
S1130DE008F03C97EE0FFF1FEA52F24F5183408305
S1130DF02F5F2093AD0B80E090E00895AC0120912B
S1130E00AC0B2C3018F081E090E008958091B1147F
S1130E10682F620F712D711DFB016C30710508F094
S1130E203C97EE0FFF1FE35AF94E518340832F5F27
S1130E302093AC0B80E090E00895685F0E94360632
S1130E40009709F008960895FC018081855199273F
S1130E500895FC0127813085C90143E0880F991F5B
S1130E604A95E1F7820F931F860F971F6AE070E09F
S1130E700E942C35708767830895FC0161859285F3
S1130E80662329F48AE0989FB001112409C07727CA
S1130E908AE0989FC00111240E9440351186128671
S1130EA0CF010E9429070895FC01635F60830895C0
S1130EB0AF92BF92CF92DF92EF92FF920F931F9364
S1130EC0F82E5A016B010E94EE05AB01BC01EE2421
S1130ED0960185018F2D0E94CF051F910F91FF90E0
S1130EE0EF90DF90CF90BF90AF900895982F969594
S1130EF096959695E8E4FCE0E90FF11D877021E0F2
S1130F0030E002C0220F331F8A95E2F780818223EA
S1130F1099270895EF92FF920F931F93CF93DF9336
S1130F20982F8FB7F894E82E80912402833009F02B
S1130F3045C080910D02891709F040C08091480C8A
S1130F40882309F04AC03EC0EF2DE695E695E69564
S1130F50FF274F2D5527E85BF34F9A012770307018
S1130F6081E090E002C0880F991F2A95E2F78095EE
S1130F70208128232083C093230211C02196C230EC
S1130F80D10511F4C0E0D0E0FC2E8C2F0E9476072E
S1130F908823D1F6C017D10789F74FEF50E040936B
S1130FA0B80C8FEF80930D0281E08093240285E1D9
S1130FB00E94A805EFBE80E090E015C0EFBE81E07E
S1130FC090E011C082E080930D021092240280917F
S1130FD07A008F7780937A00EDCF80912302082FD7
S1130FE01127E801CBCFDF91CF911F910F91FF9093
S1130FF0EF900895982F969596959695E2E8F4E1EA
S1131000E90FF11D877021E030E002C0220F331F89
S11310108A95E2F780818223992708959FB7F894EF
S1131020292F3327422F90910B02981741F4809176
S11310301A02833021F42FBF81E090E008954FBF5E
S113104080E090E00895982F969596959695ECE417
S1131050F9E0E90FF11D877021E030E002C0220FB2
S1131060331F8A95E2F78081822399270895882384
S113107039F083E090E09093931480939214109845
S11310800895AC01209130022D3018F081E090E0F9
S1131090089580912F02E82FFF27EE0FFF1FE15BD9
S11310A0FB4E518340838F5F80932F028D3011F468
S11310B010922F022F5F2093300280E090E0089579
S11310C0F82F722FAFB7F89480918D098E7F80939B
S11310D08D0980917C00E82FEF71262F33278295AC
S11310E086958695837099272817390719F020E08B
S11310F030E00DC050E02F2F33278E2F992728176B
S1131100390709F051E081E05827252F3327522F62
S11311105170252F220F80918D0981783F2F3F71C7
S1131120932F990F990F822B892B80938D094170EE
S11311304295440F407E40726295660F660F607C54
S1131140432B462B842F992780937C00783061F5BC
S113115080918E1490918F1421E08638920718F0B4
S113116027E030E020C0833C910518F026E030E011
S11311701AC08136910518F025E030E014C08033A0
S1131180910518F024E030E00EC08831910518F084
S113119023E030E008C08C30910518F022E030E004
S11311A002C020E030E0722F7770887D872B886D35
S11311B0992780937A008A2F99278FBF852F9927A3
S11311C0089580910F02882319F08FE120E002C076
S11311D028E083E040E060E00E9460080895809188
S11311E09914882319F08FE120E002C028E081E0FF
S11311F040E060E00E9460080895982F96959695C7
S11312009695E9EBFCE0E90FF11D877021E030E0F1
S113121002C0220F331F8A95E2F780818223992727
S113122008950F931F93CF93DF93182F8FB7F894DC
S1131230282F3327022F80911A02882331F581E069
S113124080931A021093FA0D2FBF8FB7F894C82F0A
S1131250DD279C2F80910B028230A9F480911A0221
S1131260813021F48CE00E94A80509C0823059F431
S11312708091FA0D80930B0283E080931A02CFBF12
S113128080E090E025C09FBFFBCF8091FA0D8117CD
S113129011F42FBFF5CF812F0E94FD08882319F088
S11312A085E090E014C0E12FE695E695E695FF27EA
S11312B0E754F34F177081E090E002C0880F991F44
S11312C01A95E2F72081282B208380E090E00FBF5D
S11312D0DF91CF911F910F910895882319F08CB558
S11312E0806402C08CB58F7B8CBD08950F931F93CF
S11312F0982F1FB7F89480911802823099F5809145
S11313000A02891779F58091080220E030E08F3FC6
S113131011F421E030E0232BF1F49FEF90930A02C3
S11313208F3F19F42FEF30E00DC0282F3327F90138
S1131330EE56F54F8081809308028F3F11F490930D
S11313400902908320931E0B81E0809318028BE0A6
S11313500E94A80505C08FEF80930A02109218021C
S113136001E001C000E0812F99278FBF1FB7F894D7
S113137080911802882311F40E946D09812F992706
S11313808FBF90E0013009F491E081E09827892F24
S113139099271F910F910895882319F08CB58068BF
S11313A002C08CB58F778CBD08950F931F9380E096
S11313B00E946D090FB7F8941127229A2398219A55
S11313C0209A8CB580618CBD80E00E94CC098CB5DC
S11313D0877F8CBD8CB58B7F8CBD81E00E946D09AD
S11313E08DB581608DBD8CB58C7F8CBD0FBF1F9179
S11313F00F9108958FB7F8942091440C3091450CC7
S11314004091460C5091470CE0918400F091850086
S1131410B09B08C02F5F3F4F4F4F5F4FE091840058
S1131420F091850099278FBFC901772766279F010F
S113143044275527622B732B842B952B0895FC018D
S1131440EC57FF4F808182608083089580589F4FBE
S11314500895FC0182819927982F882721813327B9
S1131460822B932BE5E096958795EA95E1F78170B9
S113147090700895AC01EFB7F894209184003091F6
S11314808500C901841B950B03968617970720F0E6
S1131490B9016D5F7F4F02C0640F751F611571053F
S11314A011F461E070E061507040709389006093C2
S11314B0880082E086BB80916F00826080936F0019
S11314C08E2F99278FBF0895CF93DF93EC010E944D
S11314D0290A882339F18A8129819927982F882715
S11314E03327822B932B87749C7C81549848D1F4A6
S11314F08F814E812FB7F894332760910202709147
S113150003022FBF20E09927982F88275527842B83
S1131510952B8617970709F021E081E02827822F71
S1131520992702C080E090E0DF91CF910895EF9277
S1131530FF920F931F937C018FB7F8949927009122
S1131540D20D1091D30D0F5E1E4F1093D30D009347
S1131550D20D015111408FBF88E00E94A805C80137
S1131560B7010E942C358A5D9E4F1F910F91FF9009
S1131570EF9008954FB7F8945527FC0153E0F69582
S1131580E7955A95E1F7E656F24F8770907021E09F
S113159030E002C0220F331F8A95E2F78081822B4C
S11315A080834FBF08959BE0899FF0011124E65B7F
S11315B0F34F7183608312821382148285E08583E2
S11315C01682108617820895882349F0682F77279A
S11315D084EC99E00E9440356B3F710510F06FEF89
S11315E07FEFCB010895CF92DF92FF920F931F9369
S11315F0CF93DF93282F062F482F55278BE090E0B9
S1131600489FE001499FD00D589FD00D1124C65B1F
S1131610D34F8D8182FF02C08B7F8D838A81302FCF
S1131620381B0A838B818F5F8B83332379F08C8102
S1131630830F81508C833B3048F068817981822FFD
S11316400E94D30A0A8381E08B836EC08BE090E012
S1131650489FF001499FF00D589FF00D1124E65B5F
S1131660F34F83812481820F912D911D03971CF4E4
S1131670333008F459C0C080D180CAE4DCE08881EA
S113168099818C159D0509F049C08D81282F332738
S113169020FF44C06B81FC80F60E21FD16C0772725
S11316A0882799272AEF30E040E050E00E94013576
S11316B02F2D3327442755270E945335DA01C901BA
S11316C02E830E94E40A98878F838D8182608D83A4
S11316D00E8189E0089F800111246B817727882778
S11316E099272AEF30E040E050E00E9401352F2D89
S11316F03327442755270E945335C801820F911D73
S11317006AE070E00E944035CB016E831B821C822C
S11317100E94E40ABC01CE010E9429072B968CE0AA
S1131720C83BD80709F0ABCFDF91CF911F910F9140
S1131730FF90DF90CF90089580E090E0EFE4FCE02C
S11317409C01808180FF08C0C90101963B968A30C4
S11317509105B1F72FEF30E0C9010895982FAFEF4D
S113176060E070E040E050E0EFE4FCE08081282F8E
S1131770332720FF0BC021FF09C023FD07C02281AE
S113178033812617370710F0A42FB9014F5F5F4F3D
S11317903B964A30510551F7892F992768177907E5
S11317A018F48FEF90E008958A2F99270895AC01DB
S11317B030914A098FEF4F3F580711F020E012C0D3
S11317C0832F99270895E22FFF2763E0EE0FFF1F71
S11317D06A95E1F7EC56F64F80819181841795075D
S11317E019F02F5F231779F7822F992708951F93F4
S11317F0CF93DF93162FC0E0D0E06EE60E943D0643
S1131800FC0180818123811711F4C1E0D0E0CE0175
S1131810DF91CF911F910895DF92EF92FF920F9382
S11318201F938FB7F894282F3327D22E9091B300AB
S11318308091B20047B3981711F041FF02C02FBF47
S113184071C080917A0A8823E1F10E94EE05E0904C
S1131850B408F090B5080091B6081091B70820912B
S1131860B2143091B3144091B4145091B5146E195C
S11318707F09800B910B621773078407950720F08B
S113188010927A0A71E01EC02E0D3F1D401F511F99
S113189080914D0990914E09A0914F09B091500942
S11318A0281B390B4A0B5B0B273E310541055105BB
S11318B040F4822F223010F070E005C070E082E026
S11318C002C070E086EE682F61508091B60083FDFF
S11318D0FCCF8091B200681709F46F5F20914D0925
S11318E030914E0940914F0950915009DA01C901D4
S11318F00196A11DB11D860F911DA11DB11D821759
S11319009307A407B50710F4622F60958091B60081
S113191083FDFCCF6093B300DFBE772319F083E02F
S11319200E94A8051F910F91FF90EF90DF900895FA
S1131930AFB7F894BB27E1E0E0937A0A6093B40868
S11319407093B5088093B6089093B7082093B214A7
S11319503093B3144093B4145093B514AFBF0E94A2
S11319600C0C08951F920F920FB60F9211248F93AF
S11319708091B0008093B0008091B60081FDFCCFCF
S11319808F910F900FBE0F901F9018951F920F927A
S11319900FB60F9211240F931F932F933F934F93DE
S11319A05F936F937F938F939F93AF93BF93CF93E3
S11319B0DF93EF93FF932EB5E0910B0DF0910C0D97
S11319C0309739F08091360C9091370CE80FF91F5D
S11319D020838091360C9091370C01969093370CAC
S11319E08093360C80E00E94CC09C091360CD091D3
S11319F0370C2091200830912108C217D30708F032
S1131A0042C0009152161091531640910B0D509103
S1131A100C0DCE010A962817390708F4C901DA011A
S1131A20AC0FBD1FF801EC0FFD1F9C01215030408D
S1131A3015C00115110531F080818EBD0DB407FE6E
S1131A40FDCF04C01EBC0DB407FEFDCF8EB54115FD
S1131A50510509F08C93219611963196C217D3073C
S1131A6040F381E00E94CC090115110531F00C0FFF
S1131A701D1FF80180818EBD01C01EBCD093370CA0
S1131A80C093360C11C010920C0D10920B0D1092D5
S1131A905316109252161092210810922008109298
S1131AA0370C1092360C8EB5FF91EF91DF91CF91E8
S1131AB0BF91AF919F918F917F916F915F914F9162
S1131AC03F912F911F910F910F900FBE0F901F9078
S1131AD0189578941F920F920FB60F9211240F90BD
S1131AE00FBE0F901F90189578941F920F920FB607
S1131AF00F9211240F900FBE0F901F901895789499
S1131B001F920F920FB60F9211242F933F938F932E
S1131B109F93AF93BF932FB7F89433278091440CCE
S1131B209091450CA091460CB091470C0196A11DD3
S1131B30B11D8093440C9093450CA093460CB09334
S1131B40470C2FBFBF91AF919F918F913F912F91E0
S1131B500F900FBE0F901F9018951F920F920FB603
S1131B600F9211240F900FBE0F901F9018951F9283
S1131B700F920FB60F9211240F900FBE0F901F906B
S1131B8018951F920F920FB60F9211240F900FBE4B
S1131B900F901F9018951F920F920FB60F92112459
S1131BA00F900FBE0F901F9018951F920F920FB6B3
S1131BB00F9211240F900FBE0F901F9018951F9233
S1131BC00F920FB60F9211240F900FBE0F901F901B
S1131BD018951F920F920FB60F9211240F900FBEFB
S1131BE00F901F9018951F920F920FB60F92112409
S1131BF00F900FBE0F901F9018958FB7F8946091B7
S1131C00880A7091890A2091940030919500C09BB4
S1131C1006C06F5F7F4F2091940030919500992703
S1131C208FBF88279927CB01772766274427552715
S1131C30622B732B842B952B0895EF92FF920F93B5
S1131C401F930E94FD0D7B018C0120911A0B309192
S1131C501B0B40911C0B50911D0B80918C0A909191
S1131C608D0AA0918E0AB0918F0A820F931FA41F30
S1131C70B51FE216F3060407150730F08217930721
S1131C80A407B50758F005C082179307A407B50742
S1131C90E0F5E816F9060A071B07B8F59C01AD0143
S1131CA02E193F09400B510B213060E8360760E0E4
S1131CB0460760E0560768F180E090E8A0E0B0E0F5
S1131CC0E80EF91E0A1F1B1FE0921A0BF0921B0B61
S1131CD000931C0B10931D0B80E090E8AFEFBFEF57
S1131CE0E80EF91E0A1F1B1F205030484040504088
S1131CF020938C0A30938D0A40938E0A50938F0A56
S1131D0020E030E840E050E014C020E030E040E063
S1131D1050E080931A0B90931B0BA0931C0BB09371
S1131D201D0B10928C0A10928D0A10928E0A10923A
S1131D308F0AA901B7012091940030919500C9013F
S1131D408E199F098C599F4F8417950720F0B9016C
S1131D506C597F4F02C0640F751F6115710511F432
S1131D6061E070E061507040709399006093980056
S1131D7082E088BB809171008260809371001F9122
S1131D800F91FF90EF9008950F931F930FB7F8945E
S1131D90112760931A0B70931B0B80931C0B909369
S1131DA01D0B20938C0A30938D0A40938E0A509316
S1131DB08F0A0E941D0E0FBF1F910F9108957894F2
S1131DC01F920F920FB60F9211241F932F933F93DC
S1131DD04F935F936F937F938F939F93AF93BF932F
S1131DE0EF93FF93809171008D7F809371007894BD
S1131DF01FB7F89480918C0A90918D0AA0918E0A55
S1131E00B0918F0A0097A105B10519F40E94E10869
S1131E1002C00E941D0E812F99278FBFFF91EF9161
S1131E20BF91AF919F918F917F916F915F914F91EE
S1131E303F912F911F910F900FBE0F901F901895F7
S1131E4078941F920F920FB60F9211240F900FBE29
S1131E500F901F90189578941F920F920FB60F92BF
S1131E6011240F900FBE0F901F90189578941F9215
S1131E700F920FB60F9211248F939F938091960027
S1131E80909197009F918F910F900FBE0F901F908C
S1131E90189578941F920F920FB60F9211242F93D6
S1131EA03F938F939F932FB7F89433278091880A99
S1131EB09091890A01969093890A8093880A2FBF8A
S1131EC09F918F913F912F910F900FBE0F901F9074
S1131ED018951F920F920FB60F9211242F933F93D0
S1131EE04F935F936F937F938F939F93AF93BF931E
S1131EF0EF93FF938091B0008093B0008091B6007F
S1131F0081FDFCCF8091B30099270196AA27BB27B6
S1131F1020914D0930914E0940914F09509150093B
S1131F20280F391F4A1F5B1F20934D0930934E0918
S1131F3040934F095093500978940E940C0CFF91E0
S1131F40EF91BF91AF919F918F917F916F915F912D
S1131F504F913F912F910F900FBE0F901F901895A6
S1131F6021E02093220B2093940D20918400309142
S1131F708500BC01C9010E943A0A089583E090E0FB
S1131F80909393148093921411988091F60D9091EC
S1131F90F70DA091F80DB091F90D80934609909337
S1131FA04709A0934809B09349094091F80D552772
S1131FB0542F44278091F90D9927482B592B6627D4
S1131FC0772781E00E9458070895EF92FF920F93BC
S1131FD01F9379018A01643018F044E050E002C094
S1131FE0462F5527BC0186EF9DE00E94AC35E09258
S1131FF02902F0922A0200932B0210932C020E94D1
S1132000BE0F1F910F91FF90EF9008951F93982F8B
S11320101FB7F89480911602823091F580910702DF
S1132020891771F58091050220E030E08F3F11F4AB
S113203021E030E0232BE9F49FEF909307028F3FD8
S113204019F42FEF30E00DC0282F3327F901ED5696
S1132050F64F8081809305028F3F11F4909306021E
S113206090832093900981E0809316020E94A80532
S113207005C08FEF809307021092160221E001C081
S113208020E0812F99278FBF90E0213009F491E05F
S113209081E09827892F99271F910895FF920F9324
S11320A01F93CF93DF93F82E8B01EA01622F213720
S11320B018F086E090E091C0FA013196818129817F
S11320C070E09927582F44273327422B532BCA01FA
S11320D087749C7C8154984809F471E0772349F40F
S11320E0CA0180739070816498688983892F9927C5
S11320F08183635F68832FB7F8943327809102024A
S1132100909103022FBF8887892F992789872FB73A
S1132110F8943327809104022FBF99278C831D8262
S1132120CE010E944406FC01F0820E83812F992780
S11321308F838FB7F894282F332780911602882332
S113214071F482E080931602109207022FBFCE0131
S11321500E9468069927182F882399F00FC02FBF73
S1132160D0939209C09391098FB7F894C82FDD27B3
S11321702C2F80911602882391F406C080E00E94DF
S11321800610812F992729C081E0809316021092AE
S113219090090E94A805CFBF80E090E01EC0809106
S11321A093098F3F89F4E0910602EE2369F010C091
S11321B01092050204C0FF27ED56F64F10821092CC
S11321C0060280E090E002C085E090E02FBF05C0E9
S11321D0809105028F3F79F7EBCFDF91CF911F916B
S11321E00F91FF900895EF92FF920F931F93CF9357
S11321F0DF93809110029927019665E070E00E94B8
S11322004035682F8093100200E0462F5527FA01CD
S1132210EE0FFF1FE65CF34FC081D181209799F048
S1132220E62FE695E695E695FF27E055FB4E80817F
S113223099279A012770307002C0959587952A9541
S1132240E2F780FF0DC0CA01019665E070E00E94CC
S11322504035682F0F5F0530C1F6009310021FC090
S1132260609310026530D8F4E88083EFE80EFF2411
S11322700F811127102F00278E819927082B192BE6
S1132280CE010E944406FC012E2DAE01B8018081CE
S11322900E944E10882319F08FE10E94A805DF9157
S11322A0CF911F910F91FF90EF900895EF92FF92BD
S11322B00F931F93CF93DF93E82E8B01F42E84E0CA
S11322C08E1518F481E090E03BC0CE2DDD27CC0FB5
S11322D0DD1FC65CD34F88819981892B19F085E075
S11322E090E02EC079836883EDE0FE0EFB01F0825E
S11322F0F3EFFF0E80911002853018F480E090E037
S11323001FC0CB010E944406FC018081F801678153
S11323107727762F662726813327622B732BE0924B
S113232010022F2DA8010E944E109927282F8823D0
S113233029F085E08093100219821882822F992750
S1132340DF91CF911F910F91FF90EF900895CF925D
S1132350DF92EF92FF920F931F93CF93DF936C0161
S11323608091B308882309F484C08091EF098823FD
S113237009F07FC066E082E298E00E943606EC0134
S1132380892B09F476C081E08093EF09C9828D2DF1
S1132390992788838AE2C816D10429F020E030E026
S11323A040E050E008C02091290230912A02409177
S11323B02B0250912C02FE0132962383BB27A52FBA
S11323C0942F832F8283CA01AA27BB278183252FB9
S11323D03327442755272A83E280FF240027112727
S11323E0102F0F2DFE2CEE24522F442733272227A3
S11323F09927AA27BB27DC0199278827282B392B63
S11324004A2B5B2B83819927AA27BB27282B392B9F
S11324104A2B5B2BE22AF32A042B152BE114F1043B
S11324200105110511F410E011C08AE2C816D104A7
S113243021F414E066EF7DE003C010E060E070E09A
S1132440412F5527CE0106960E94AC358FEF80931D
S113245028088093290882E298E00E944406FC013F
S113246080E680831A5F412F62E278E080E00E9478
S11324705611DF91CF911F910F91FF90EF90DF9054
S1132480CF9008950F931F93CF93DF93182F0FB717
S1132490F89480911802882311F40E94D509802FA2
S11324A099278FBF8FB7F894C82FDD272C2F8091E1
S11324B01802882361F481E08093180210931E0BA4
S11324C08BE00E94A805CFBF80E090E021C0E12FFF
S11324D0FF27EE56F54F80818F3F89F4E091090282
S11324E0E11789F40CC01093080204C0FF27EE56CC
S11324F0F54F10831093090280E090E002C085E05C
S113250090E02FBF05C0809108028F3F79F7EBCF91
S1132510DF91CF911F910F910895EF92FF920F9346
S11325201F93CF93DF93982F8FB7F894E82E809161
S11325301A02833009F045C080910B02891709F013
S113254040C08091B90C882309F045C03EC0EF2DEE
S1132550E695E695E695FF274F2D5527E754F34F6B
S11325609A012770307081E090E002C0880F991FB3
S11325702A95E2F78095208128232083C0931902AD
S113258011C02196C230D10511F4C0E0D0E0FC2E78
S11325908C2F0E94FD088823D1F6C017D10789F734
S11325A04FEF50E04093FA0D8FEF80930B0281E0E0
S11325B080931A028CE00E94A805EFBE80E090E0B0
S11325C010C0EFBE81E090E00CC082E080930B026B
S11325D010921A02F2CF80911902082F1127E801F4
S11325E0D0CFDF91CF911F910F91FF90EF9008957D
S11325F00F931F93CF93DF93182F8FB7F894282F3F
S11326003327022F80912402882379F581E0809377
S113261024021093B80C2FBF2FB7F894332780915E
S11326207A00806880937A002FBF8FB7F894C82F00
S1132630DD279C2F80910D028230A9F48091240221
S1132640813021F485E10E94A80509C0823059F443
S11326508091B80C80930D0283E080932402CFBF55
S113266080E090E025C09FBFFBCF8091B80C81171C
S113267011F42FBFF5CF812F0E947607882319F01C
S113268085E090E014C0E12FE695E695E695FF27F6
S1132690E85BF34F177081E090E002C0880F991F48
S11326A01A95E2F72081282B208380E090E00FBF69
S11326B0DF91CF911F910F9108950F931F93FC0108
S11326C000810D50112762E00E943606FC01208132
S11326D033272F703070C901880F991F820F931F01
S11326E0081B0250802F99271F910F910895EF9294
S11326F0FF920F931F93CF93DF93982F8FB7F89484
S1132700E82E80912602833009F045C080910E02A4
S1132710891709F040C080918214882309F048C0C9
S11327203EC0EF2DE695E695E695FF274F2D5527FC
S1132730EE57FB4E9A012770307081E090E002C0A2
S1132740880F991F2A95E2F78095208128232083FA
S1132750C093250211C02196C130D10511F4C0E007
S1132760D0E0FC2E8C2F0E94FA078823D1F6C017E4
S1132770D10789F74FEF50E04093B2088FEF809371
S11327800E0281E08093260288E10E94A805EFBE34
S113279080E090E013C0EFBE81E090E00FC081E0E4
S11327A080930E0210922602809327028AE1EDCFD5
S11327B080912502082F1127E801CDCFDF91CF9119
S11327C01F910F91FF90EF9008958FB7F894282FE1
S11327D03327922F80910A02882331F480911802C2
S11327E0823011F42FBF13C09FBF8FB7F894282FE6
S11327F0332780911802882369F482E080931802B9
S113280010920A022FBF0E94D509209A289A81E0CB
S113281090E008952FBF80E00E94421280E090E093
S113282008958091F109823031F481E08093F109B7
S113283086E00E94A80508958093B614882311F4B5
S113284084E001C081E08093F10986E00E94A8053C
S11328500895AF92BF92CF92DF92EF92FF920F93BF
S11328601F93282F33278BE090E0289FF001299FA6
S1132870F00D389FF00D1124EC5EF74F82819381A7
S1132880A481B5810097A105B10569F0808191818A
S1132890880F991F918380838150944020F080E0B9
S11328A094E0918380838BE090E0289F5001299FDE
S11328B0B00C389FB00C112484E198E0A80EB91E26
S11328C0F50186819781A085B18582839383A48352
S11328D0B583C080D180EE24FF24B9E0CC0CDD1C8C
S11328E0EE1CFF1CBA95D1F70E941F05DC01CB0139
S11328F0F50100811181B801762F6627770F0E94B8
S11329002C35AA27BB278C0D9D1DAE1DBF1D22276C
S113291033275AE0000F111F221F331F5A95D1F796
S1132920081B190B2A0B3B0B06831783208731875F
S11329302281338144815581280F391F4A1F5B1F2F
S113294022833383448355831F910F91FF90EF902B
S1132950DF90CF90BF90AF9008951F93CF93DF93F4
S11329601FB7F89480910F02E82FFF27EE0FFF1F87
S11329709F012C5B364FE901A881B981109741F47E
S1132980E057FB4E118210828BE10E94A80549C0DA
S1132990ED018A819B81E90199838883892B21F444
S11329A0E057FB4E318320838D919C911197909336
S11329B0D50D8093D40DB0938814A0938714B0934D
S11329C0BC08A093BB082091950D3091960D4091C1
S11329D0970D5091980D60914E1670914F168091FD
S11329E05016909151160E94C40E80914E169091EB
S11329F04F16A0915016B09151162091950D30911B
S1132A00960D4091970D5091980D820F931FA41F1E
S1132A10B51F80934E1690934F16A0935016B09303
S1132A205116812F99278FBFDF91CF911F91089560
S1132A301F920F920FB60F921124EF92FF921F93E1
S1132A402F933F934F935F936F937F938F939F93B2
S1132A50AF93BF93CF93DF93EF93FF93E09078000E
S1132A60F090790078948FB7F894992720918D0984
S1132A70122F1695117021708FBF222309F0B1C057
S1132A8080917A00877F80937A0080910F02813051
S1132A9009F487C08091D40D9091D50D892B59F4F8
S1132AA00E94FD0D60934E1670934F16809350163E
S1132AB09093511645C0E091BB08F091BC08E19297
S1132AC0F192F093BC08E093BB088091D40D9091EF
S1132AD0D50D880F991F2091871430918814820F87
S1132AE0931FE817F90779F58FB7F894C82FDD27F6
S1132AF08091840A9091850A892B71F0E0910F02EC
S1132B00FF27EE0FFF1FE057FB4E118210828CE16E
S1132B100E94A805CFBF45C08091D40D9091D50DDA
S1132B209093AF148093AE1480918714909188147D
S1132B309093850A8093840ACFBF8DE10E94A805F3
S1132B400E94AD142EC02091950D3091960D4091A8
S1132B50970D5091980D60914E1670914F1680917B
S1132B605016909151160E94C40E80914E16909169
S1132B704F16A0915016B09151162091950D309199
S1132B80960D4091970D5091980D820F931FA41F9D
S1132B90B51F80934E1690934F16A0935016B09382
S1132BA051168091AA0B813021F0823009F043C084
S1132BB00AC0112351F0F092CD0DE092CC0D86E1C4
S1132BC00E94A80538C0112349F48DE790E00197CD
S1132BD001960197E1F70E94EF082DC01092AA0B0D
S1132BE02AC08FB7F89499278FBF2FB7F89433274B
S1132BF080917A00582F5770482F4072987D942BFB
S1132C00952B8074977B982B90619F77892F9927B8
S1132C1080937A00887D842B852B87738061992724
S1132C2080937A00887D842B852B877B8069992704
S1132C3080937A002FBFFF91EF91DF91CF91BF91E5
S1132C40AF919F918F917F916F915F914F913F9140
S1132C502F911F91FF90EF900F900FBE0F901F9038
S1132C601895CF93DF93EC010E94D70B282F809106
S1132C704A092817D1F0382F315030934A0913C02C
S1132C80822F992743E0880F991F4A95E1F7DC01C9
S1132C90AC56B64FFC01E456F64F88E001900D9215
S1132CA08150E1F72F5F231758F3809172149091AC
S1132CB073148C179D07A1F48FEF9FEF90937314F7
S1132CC080937214109275141092741410927614E6
S1132CD01092771481E08093360283E20E94A80563
S1132CE0DF91CF91089568E00E943606FC0184814B
S1132CF09927982F882725813327822B932B089592
S1132D0068E00E943606FC0186819927089568E0F0
S1132D100E943606FC0187819927089568E00E9485
S1132D203606FC0181819927089568E00E943606E1
S1132D30FC01868199270895DF92EF92FF920F9309
S1132D401F93CF93DF938C01D090AA08F090350C99
S1132D50EE2432C068E0C8010E943606FC014F2D03
S1132D604370552724813327322F222785819927C1
S1132D70282B392BEA01CC0FDD1FCC0FDD1FC40F2C
S1132D80D51FC858D64F888199812817390791F4DF
S1132D90C8010E9495169A81981761F4C8010E948F
S1132DA08E169C81981731F4C8010E9487169B8166
S1132DB0981721F0E394F394ED1461F68E2D99277E
S1132DC0DF91CF911F910F91FF90EF90DF900895C5
S1132DD08F929F92AF92BF92DF92EF92FF920F93E6
S1132DE01F93CF93DF934C01FC018281882329F444
S1132DF090924D1680924C168FC0442309F484C0DF
S1132E00F401A080B1808091AA08843009F046C002
S1132E10C5010E949C162091AA08622F0E942035A9
S1132E20492F9217D8F5992359F48091350C992795
S1132E30019664E070E00E9440358093350C29C00F
S1132E408091350C840F912D911D9C01237030705D
S1132E50E901CC0FDD1FCC0FDD1FC20FD31F01967C
S1132E6064E070E00E944035FC01EE0FFF1FEE0F9E
S1132E70FF1FE80FF91FC858D64FE858F64F85E0F2
S1132E80019009928150E1F74F5F8091AA08481799
S1132E90B8F28091AA0881508093AA08D090AA0819
S1132EA00091350C0D0D112D111D0370107068E08B
S1132EB0C5010E943606FC017801EE0CFF1CEE0CE5
S1132EC0FF1CE00EF11E88E799E0E80EF91E8481EC
S1132ED09927982F882725813327822B932BF70155
S1132EE091838083C5010E949516F7018283C501F1
S1132EF00E948E16F7018483C5010E948716F7018C
S1132F008383D394D092AA08F401808191810E9492
S1132F10DF06C4010E94FE06DF91CF911F910F913D
S1132F20FF90EF90DF90BF90AF909F908F900895A7
S1132F304F925F926F927F928F929F92AF92BF92C5
S1132F40CF92DF92EF92FF920F931F93CF93DF9371
S1132F502C0180911F08882309F08DC1809154169B
S1132F60853009F088C10E94E513882309F483C1E0
S1132F7080917114882309F07EC164E8862E912C17
S1132F80840C951CD4018C9182FD02C090E00BC08E
S1132F90E5E8F0E04E0E5F1EF20191812BE73FEF72
S1132FA0420E531E9F708091AB0B981781F0909343
S1132FB0AB0B289885EC8EBD0DB407FEFDCF8EB506
S1132FC090689EBD0DB407FEFDCF8EB5289AE20130
S1132FD021968981F201218140E09927982F882741
S1132FE03327822B932B87749C7C8154984809F453
S1132FF041E0442301F1289886E88EBD0DB407FE14
S1133000FDCF8EB51EBC0DB407FEFDCF8EB5289A3C
S113301099278F7190702091860A4091E409240FBA
S1133020312D311D43E0359527954A95E1F7281751
S113303039070CF420C1289882EC8EBD0DB407FE2C
S1133040FDCF8EB589E08EBD0DB407FEFDCF8EB5E4
S1133050289A0E94FA097B018C01D4018C9184FD89
S113306003C0E0E0F0E005C0F20180818550E80F84
S1133070F11D289881E88EBD0DB407FEFDCF8EB5F5
S11330801EBC0DB407FEFDCF8EB5289A8F71893012
S113309079F0289882EC8EBD0DB407FEFDCF8EB575
S11330A086E08EBD0DB407FEFDCF8EB5289AE3C031
S11330B08FB7F89499272F9A209184003091850036
S11330C08FBF2F98289880E68EBDD2019C910DB4B5
S11330D007FEFDCF8EB59EBD792F7250773010F468
S11330E0672F01C067E0DE01962F4D910DB407FEF6
S11330F0FDCF8EB54EBD9150C1F76150C60FD11DA5
S11331006F5F21962E193F092E553F4F39018824B0
S113311077FC8094982C6E0C7F1C801E911E309737
S113312019F4972F961B42C02081E1808281A380ED
S11331309927AA27BB27BA2FA92F982F8827332787
S113314044275527522F442733272227FF240027BB
S113315011278701FF24EE242E293F29402B512BD0
S1133160BB24CC24DD242A293B294C295D29822B2C
S1133170932BA42BB52B86199709A809B909838326
S1133180292F3A2F4B2F552722839D01442755275A
S113319021838B2F9927AA27BB278083C2CF28811D
S11331A00DB407FEFDCF21968EB52EBD9150B8F714
S11331B00DB407FEFDCF8EB5289A289882EC8EBDFB
S11331C00DB407FEFDCF8EB586E08EBD0DB407FEAF
S11331D0FDCF8EB5289A3097D1F12081E18082818C
S11331E0A3809927AA27BB27BA2FA92F982F88270E
S11331F0332744275527522F442733272227FF24D8
S1133200002711278701FF24EE242E293F29402B74
S1133210512BBB24CC24DD242A293B294C295D29AC
S1133220822B932BA42BB52B860D971DA81DB91D9E
S11332308383292F3A2F4B2F552722839D0144271F
S1133240552721838B2F9927AA27BB278083C20167
S11332500E941F0AC2010E94260AFC016082718238
S11332608282938286E08093541684E080931F08C0
S113327080E090E002C085E090E0DF91CF911F9163
S11332800F91FF90EF90DF90CF90BF90AF909F9001
S11332908F907F906F905F904F900895AF92BF9200
S11332A0CF92DF92EF92FF920F931F93CF93DF930E
S11332B080917114882309F407C10E94E5138823BF
S11332C009F402C18FB7F8949927C0918A0AD09162
S11332D08B0A8FBF1092711428988FE88EBD0DB49D
S11332E007FEFDCF8EB51EBC0DB407FEFDCF8EB517
S11332F0289A982F80911F08833011F0873031F479
S113330085E08093541688E080931F08A92EBB247F
S1133310A2FE68C080911F08863019F410921F081D
S113332003C0882309F05EC0943009F046C0289891
S113333086E88EBD0DB407FEFDCF8EB51EBC0DB460
S113334007FEFDCF2EB5289A2F718091E409982F9E
S113335096959695322F391B830F8093E409E0915B
S1133360B808F091B908DF01AC57BF4F8C918B7F3F
S113337088608C93EB57FF4F21830E94FA096B01FD
S11333807C010091B8081091B908C8010E941F0A75
S1133390C8010E94260AFC01CC19DD092797CE0139
S11333A0AA2797FDA095BA2F8C0D9D1DAE1DBF1D9C
S11333B080839183A283B38312C0E091B808F09113
S11333C0B908EC57FF4F8081877F8083E091B8086C
S11333D0F091B908EC57FF4F80818D7F808385E0A1
S11333E080931F08A3FE70C080911F08843009F0E9
S11333F04EC085E08093541610921F0880914B09AB
S1133400833019F410924B095FC0C0915B16D091C0
S11334105C16CE010E94290A882389F18A812981B8
S11334209927982F88273327822B932B87749C7C8A
S11334308154984821F58F812E819927982F8827C8
S11334403327822B932B8F5F9F4FC9F090E080919D
S1133450940D882309F491E0992389F012E01093E4
S1133460220B81E08093940D8091840090918500DB
S113347069E973E00E943A0A10934B0925C010923F
S11334804B091092F20980E00E941C141DC0853083
S1133490D9F42091860A289886E88EBD0DB407FEDB
S11334A0FDCF8EB51EBC0DB407FEFDCF8EB5289A98
S11334B08F71922F96959695891B280F2093860AD3
S11334C089E080931F0808C090911F08992309F48C
S11334D0E9C2993009F016C2289880E28EBD0DB475
S11334E007FEFDCF8EB51EBC0DB407FEFDCF8EB515
S11334F0482F5527433008F49DC3842F99278E37CE
S113350091050CF097C31EBCE091B808F091B9087E
S11335104083542F5250573010F4452F01C047E0D8
S1133520DF011196242FFD0160E070E00DB407FE69
S1133530FDCF8EB51EBC992781936827062E629510
S1133540607F6025072E762F62956F70062666953C
S113355076276727660F660F660F6025215031F7BF
S11335604150A40FB11D4F5F1196E091B808F0913E
S1133570B908818190E08770823009F491E0992341
S113358049F020E030E080914B09823081F421E061
S113359030E00DC08FB7F894282F332790E0809146
S11335A06914833008F491E02FBF292F3327232B8C
S11335B009F45EC0952F941B18C00DB407FEFDCF0F
S11335C08EB51EBC8C938D916827062E6295607F04
S11335D06025072E762F62956F70062666957627EE
S11335E06727660F660F660F6025915030F70DB49C
S11335F007FEFDCF8EB51EBC9B012827022E229507
S1133600207F2025032E322F22952F700226269507
S113361032272327220F220F220F20250DB407FE65
S1133620FDCF8EB51EBC2827022E2295207F202593
S1133630032E322F22952F70022626953227232718
S1133640220F220F220F20250DB407FEFDCF8EB5C9
S1133650E091B808F091B908EB57FF4F8083289A9E
S113366015E01093541610921F08232B31F016C244
S11336700DB407FEFDCF8EB5DDC2E090B808F09022
S1133680B90867010894C11CD11CF701818190E03D
S1133690282F3327277030702230310509F491E048
S11336A080914B09992329F1823009F026C1F70151
S11336B09381E0915B16F0915C168381981709F071
S11336C01CC12230310509F018C180916F008D7F33
S11336D080936F001092940DEC57FF4F80818160AE
S11336E0808310924B091092F20980E00E941C140E
S11336F004C18823C9F4C7010E94640A8823A1F085
S11337001093AE0B82E08093AF0B1092B00BF701D5
S113371083818093B10B8EEA9BE00E9498178823E3
S113372019F483E080934B09009184001091850083
S1133730C7010E94640A882311F0045E1C4F109391
S1133740390C0093380C8091840090918500980185
S1133750281B390B12161306A4F48091F20988234E
S113376069F490E08091940D882309F491E0992301
S113377041F0C9010E94B00F80E801C080688093C5
S1133780F209F601808527819927582F442733278A
S1133790422B532B80915109282F3327F901EE0F27
S11337A0FF1FE858FB4E808191817091990D841719
S11337B0950769F4F901EB5AF94E8081871709F4EA
S11337C067C0872F8F5F8093990D80831DC000E0B1
S11337D010E080E090E0C8E7D4E1E5E5F6E1DF0140
S11337E0682F9C01888199818417950779F4209327
S11337F051099091990D8C91891709F449C0892F29
S11338008F5F8093990D8C9300E829C08081972F56
S1133810981B091710F4092F122F6F5FC901019625
S113382011962296319685309105D1F66530B9F41A
S113383010935109A12FBB27FD01EE0FFF1FE8587C
S1133840FB4E518340838091990D8F5F8093990D36
S1133850FD01EB5AF94E8083AB58B94E1C929091FE
S1133860990D892F8F778F3779F40F3768F0E5E555
S1133870F6E1292F207880818F6789132083319680
S113388036E1EA35F307B9F780915109282F332738
S1133890F6019281A22FBB27FD01EB58F94E8081DE
S11338A080FF07C0FD01E559FB4E8081981729F17F
S11338B002C081608083A559BB4E9C93DFB6F89407
S11338C0809169148330B0F4E0919814E80FE330E8
S11338D008F0E350FF27EE0FFF1FE455F74F008178
S11338E01181F182E0828F5F8093691487E00E94E6
S11338F0A80578018D2D99278FBFF092B908E09221
S1133900B808C3C0892F8150833008F09CC081500F
S11339108230E0F4309154163130C1F420E08091CB
S1133920940D882309F421E0222381F02F9883E069
S11339308093220B3093940D8091840090918500A4
S11339406BE273E00E943A0A82E068C0933009F0A7
S113395042C080915416833009F097C00E94E51349
S11339608823C9F128988FE88EBD0DB407FEFDCFDA
S11339708EB51EBC0DB407FEFDCF8EB5289A80917E
S1133980810080648093810080E286BB80916F0017
S1133990806280936F0090918F09289888EC8EBD87
S11339A00DB407FEFDCF8EB590669EBD0DB407FE27
S11339B0FDCF8EB5289A289882EC8EBD0DB407FEF3
S11339C0FDCF8EB586E08EBD0DB407FEFDCF8EB55E
S11339D0289A84E023C080911F088150823000F52A
S11339E0809154168530E1F40E94E5138823C1F0D8
S11339F0289882EC8EBD0DB407FEFDCF8EB583E012
S1133A008EBD0DB407FEFDCF8EB5289A80916F0050
S1133A108F7D80936F001092711483E0809354160D
S1133A2090911F08913041F4809154168330B1F580
S1133A302F9A9093541625C0923039F580915416DC
S1133A40833061F51EC0973001F50E94E513882389
S1133A50E1F090918F09289888EC8EBD0DB407FE93
S1133A60FDCF8EB590669EBD0DB407FEFDCF8EB51D
S1133A70289A80915416853021F484E0809354165A
S1133A8004C088E080931F0804C080911F08883018
S1133A9029F410921F0885E00E94A80580911F0850
S1133AA0882309F5809154168530D1F480917114DE
S1133AB08823B1F480914B09882391F48091F20911
S1133AC0882371F490E08091940D882309F491E0A7
S1133AD0992331F00E94111480911F08882319F44E
S1133AE089E00E94A8058091940D823009F095C068
S1133AF01092940DC090220BF2E0CF1609F469C025
S1133B0023E0C21609F46DC031E0C31609F085C084
S1133B102091380C3091390C80918400909185006B
S1133B204091F209403829F41092F2090E941114CC
S1133B3074C08901081B190B47FF03C01016110636
S1133B4004F1C091ED09D091EE0980914B098823CD
S1133B50C1F4CE010E9498179927882369F4FE01C5
S1133B60EC57FF4F80818E7F8083C0924B09D093A6
S1133B705C16C0935B1629C09927F82E882329F177
S1133B8002C075E0F72E2091F209822F99278F77D2
S1133B90019759F4207822602093F20980E198E09B
S1133BA00E94970A0E94B00F38C027FF0AC010165F
S1133BB011063CF480E88093F209C8010E94B00F1A
S1133BC002C01092F2098F2D09C083E08093F2099C
S1133BD024C010924B091092F20980E00E941C1438
S1133BE01CC080915416823019F4C092541613C02C
S1133BF080911F08863079F410921F08289881E874
S1133C008EBD0DB407FEFDCF8EB51EBC0DB407FEF0
S1133C10FDCF8EB5289A0E94431E8FB7F894282FA3
S1133C20332780918E09813061F081E080938E0981
S1133C302FBF3ECB289A85E08093541610921F081C
S1133C402DCF10928E092FBFDF91CF911F910F912D
S1133C50FF90EF90DF90CF90BF90AF9008958FB713
S1133C60F894282F332780918E09815080938E09F0
S1133C70803811F02FBF089581E080938E092FBF03
S1133C800E944E1908958FB7F894282F33278091F6
S1133C908E09882329F0806880938E092FBF0895A8
S1133CA081E080938E092FBF0E944E190895789465
S1133CB01F920F920FB60F9211242F933F934F939D
S1133CC05F936F937F938F939F93AF93BF93EF9380
S1133CD0FF93E6E8F0E080819181208131818FB704
S1133CE0F894992730938B0A20938A0A21E0209331
S1133CF071148FBF0E94431EFF91EF91BF91AF914A
S1133D009F918F917F916F915F914F913F912F91EF
S1133D100F900FBE0F901F90189578941F920F92DA
S1133D200FB60F9211242F933F934F935F936F938A
S1133D307F938F939F93AF93BF93EF93FF93809160
S1133D406F008D7F80936F0078949FB7F894809173
S1133D50940D813019F482E08093940D892F992772
S1133D608FBF0E94431EFF91EF91BF91AF919F912E
S1133D708F917F916F915F914F913F912F910F9010
S1133D800FBE0F901F901895AF92BF92CF92DF9203
S1133D90EF920F931F935B016C010E94EE05AB0140
S1133DA0BC01E1E0EE2E9601850188E00E94CF057A
S1133DB01F910F91EF90DF90CF90BF90AF90089537
S1133DC0CF92DF92EF92FF920F931F936C017B01CE
S1133DD00E941F05DC01CB01B6010E942C35E80EC0
S1133DE0F91E00271127C801B7010E94C41E1F91A4
S1133DF00F91FF90EF90DF90CF9008950F931F9352
S1133E00CF93DF93EC01E0912E02FF27EE0FFF1F0B
S1133E10E15BFB4E00811181662329F06CE170E0C7
S1133E208CE190E033C080912D0283FF41C0CC57D8
S1133E30DF4F8881C458D04080FD3AC08F819927D4
S1133E40982F88272E813327822B932B0E94D4040A
S1133E50982F8F3F71F08BE0989FF0011124E65B5F
S1133E60F34F82858F5F8287853018F0CF010E94DF
S1133E703D0783E20E94A805F80183818150838372
S1133E80882339F067E070E087E090E00E94E01E4C
S1133E903FC00E94C40680912D028F7E80932D0224
S1133EA067E070E087E090E00E94E01E40E02CC0F4
S1133EB00E94C40680912D028F7E80932D0267E0BC
S1133EC070E087E090E00E94E01E8F819927982F90
S1133ED088272E813327822B932B0E94D404982F7A
S1133EE08F3F89F08BE0989FF0011124E65BF34F3C
S1133EF081858F5F818782858F5F8287853018F007
S1133F00CF010E943D0741E0BE01C8010E94E816AE
S1133F10DF91CF911F910F910895282FCB0121306C
S1133F2039F0213028F0223031F0233089F407C0F1
S1133F301092EF090895642F0E94FE1E0895635F96
S1133F40794031F480913502882311F010923502C2
S1133F5008950F931F93CF93DF93062F10911002B0
S1133F601530A0F4E12FFF27EE0FFF1FE65CF34F9F
S1133F70C081D181C817D90749F4118210820E94E7
S1133F80F310402FBE01812F0E948D1FDF91CF912E
S1133F901F910F910895EF92FF920F931F938091B9
S1133FA04609282F332720FF07C083E090E0909331
S1133FB0931480939214129821FF3AC08091E60CD6
S1133FC081FF27C0E090E20CF090E30C0091E40C38
S1133FD01091E50C0E94EE059B01AC018091DE0C72
S1133FE09091DF0CA091E00CB091E10C281B390BEF
S1133FF04A0B5B0B2E153F054007510750F4E21A9C
S1134000F30A040B150B85E6E816F1040105110506
S113401078F40E94EE05AB01BC01E1E0EE2E04E66B
S113402010E020E030E084E00E94CF053A9A429A02
S11340308091460982FF14C08FEF8093990A809380
S11340409A0A83E99AE00E944406FC0183E680838D
S113405040E063E97AE084E00E9456110E94370848
S11340608091460983FF5BC00DEB18E062E0C80154
S11340700E941D07FC01892B09F451C080910002A4
S1134080909101028183892F9927808380912D0249
S113409081FD03C084E090E040C06AE0C8010E9452
S11340A0540768E0C8010E943606FC0180910002B2
S11340B0909101028583892F992784838091BA087E
S11340C08F5F8093BA08815086838BE08783118247
S11340D0E0914C16F0914D16309719F485E090E07C
S11340E01CC01183008312828EE18383CF010E945E
S11340F04108882319F081E090E00FC080912D02DF
S113410082FF05C084FD03C082E20E94A8051092CC
S11341104D1610924C1680E090E00E9437081F91D3
S11341200F91FF90EF900895AF92BF92CF92DF92DC
S1134130EF92FF920F931F930E94EE057B018C0177
S11341406091E70C7091E80C8091E90C9091EA0C75
S1134150A0901608B0901708C0901808D0901908BD
S1134160A114B104C104D10409F44EC0EFB7F8940A
S113417020919A0D20FD36C0A8019701261B370B0C
S1134180480B590B2A153B054C055D05C8F4A21ACA
S1134190B30AC40AD50A8091160890911708A09111
S11341A01808B0911908821B930BA40BB50B8093CC
S11341B0160890931708A0931808B093190815C00F
S11341C081E090E0A0E0B0E0809316089093170897
S11341D0A0931808B0931908A1E0AA2EB12CC12C01
S11341E0D12C03C02E7F20939A0D8E2F99278FBF39
S11341F00E94EE05AB01BC01F1E0EF2E96018501B2
S113420085E00E94CF0505C08091EF0C8D7F8093DF
S1134210EF0C1F910F91FF90EF90DF90CF90BF9024
S1134220AF900895FF920F931F93CF93DF93F82ECF
S1134230282F33278BE090E0289FE001299FD00DA1
S1134240389FD00D1124CC5ED74F81E090E0998344
S113425088831A868A819B81AC81BD810097A105E0
S1134260B105A1F00FB7F8941127C9010E94BA0A49
S11342700FBF1A821B821C821D821E821F82188617
S113428019868F2D0E9429140E949420DF91CF91CA
S11342901F910F91FF900895EF920F931F933C9AF3
S11342A0449A0E94EE05AB01BC01B1E0EB2E01E1A2
S11342B010E020E030E083E00E94CF0580E090E051
S11342C01F910F91EF900895AF92BF92CF92DF921A
S11342D0EF92FF920F931F93809112029091130219
S11342E0A0911402B0911502B695A795979587955C
S11342F08093E9099093EA09A093EB09B093EC0940
S11343000E941F05E090E909F090EA090091EB0989
S11343101091EC09A80197010E9453355B016C01CF
S1134320AE0CBF1CC01ED11EA092E909B092EA09CE
S1134330C092EB09D092EC0910926A140E94EE0527
S1134340AB01BC0111E0E12E9601850186E00E94DB
S1134350CF051F910F91FF90EF90DF90CF90BF900A
S1134360AF9008956F927F928F929F92AF92BF9277
S1134370CF92DF92EF92FF920F931F933B014C0178
S113438060E070E0EAEBFCE0A084A1FE44C220817E
S1134390318142815381E480F58006811781D40103
S11343A0C301821B930BA40BB50B8E159F05A007AD
S11343B0B10708F430C2A0FE04C02DEFA222A086EB
S11343C008C02E0D3F1D401F511F2083318342839F
S11343D05383643009F476C1653058F46130C1F018
S11343E06130A0F0623009F4B2C0633009F01AC23F
S11343F02EC1663009F49DC1663008F465C167308A
S113440009F4F6C1683009F00DC2FCC182E000C2B3
S11344108091921490919314009751F00197909386
S1134420931480939214892B19F4129A119A109A66
S11344308091470980FF28C08FB7F894082F11276F
S113444080911C02882389F491E090931C021092BD
S11344507F0A0FBF80911F02882321F48FE00E94FE
S1134460A80512C0909320020FC080917F0A882370
S113447051F080E00E942308882329F480914C099C
S1134480816080934C090FBF8091470981FFCAC1A5
S11344908FB7F894482F5527E0919014F091911418
S11344A03097A1F02AE934E18AE090E090939B14DC
S11344B080939A1410929D1410929C14318320833B
S11344C02E5F3F4F30939114209390144FBF8FB7BA
S11344D0F894282F3327122F80912602882389F4F9
S11344E091E0909326021092B2082FBF8091270288
S11344F0882321F489E10E94A8051CC09093280216
S113450019C08091B208882311F42FBF13C080E032
S11345100E94FA07882319F085E090E007C0809193
S1134520821481608093821480E090E01FBF892B05
S113453009F078C180E197E2A0E0B0E08093E5095A
S11345409093E609A093E709B093E8096BC180E072
S11345500E940E08882309F43AC09FB7F89420916A
S11345601C02222319F421E030E00FC080910C02D8
S1134570813019F020E030E008C040E050E02150E4
S1134580223010F441E050E09A01892F99278FBF1F
S11345902223E9F08FB7F894082F1127902F8091E8
S11345A00C02813099F480911C02813021F48DE059
S11345B00E94A80509C0823049F480917F0A809343
S11345C00C0283E080931C020FBF01C09FBF81E0F7
S11345D00E940E08882309F425C19FB7F8942091FE
S11345E01D02222319F421E030E00FC080911E0245
S11345F0882319F020E030E008C040E050E021506A
S1134600223010F441E050E09A01892F99278FBF9E
S1134610222309F407C18FB7F894082F1127902F8C
S113462080911E02882309F04BC080911D028130C5
S113463011F48EE038C0823009F042C080917709CD
S113464080931E0283E080931D020FBFEBC09FB7CF
S1134650F89420912602222319F421E030E00FC0BF
S113466080910E02813019F020E030E008C040E073
S113467050E02150223010F441E050E09A01892F9B
S113468099278FBF222309F4CDC08FB7F894082F40
S11346901127902F80910E02813091F4809126028F
S11346A0813021F488E10E94A805CFCF823041F403
S11346B08091B20880930E0283E080932602C5CFD6
S11346C09FBFB0C04298AEC02091EB0C3091EC0C6F
S11346D04091ED0C5091EE0C8091160890911708C2
S11346E0A0911808B09119080097A105B105F1F03F
S11346F082179307A407B507C9F480911E0888237D
S113470061F42FB7F89433278091490C816080932A
S1134710490C2FBF81E20E94A80580E090E00E942E
S1134720BA0A80E00E94291410921E080E94942064
S113473079C080913302882309F474C080913402D3
S1134740882309F46FC080916A14882349F583E2B1
S11347500E94A80584E20E94A805A0901202B090CD
S11347601302C0901402D09015028091E90990912F
S1134770EA09A091EB09B091EC09A81AB90ACA0A8E
S1134780DB0A81E080936A140E94EE05AB01BC0150
S113479031E0E32E9601850186E00E94CF0542C0F8
S11347A08091120290911302A0911402B09115020B
S11347B0880F991FAA1FBB1F8093120290931302A4
S11347C0A0931402B09315028150904DA740B040BD
S11347D060F080E090EDA7E0B0E080931202909347
S11347E01302A0931402B09315020E9464211AC00C
S11347F0809133028823B1F080913402882391F0B0
S113480083E206C080912D028F7E80932D0282E286
S11348100E94A80507C06F5F7F4F39966930710504
S113482009F0B2CD84E00E94A8051F910F91FF907A
S1134830EF90DF90CF90BF90AF909F908F907F903C
S11348406F9008952F923F924F925F926F927F9252
S11348508F929F92AF92BF92CF92DF92EF92FF928C
S11348600F931F93CF93DF93CDB7DEB722970FB685
S1134870F894DEBF0FBECDBF8FB7F894282F33272F
S113488080916914882309F469C4E0919814FF277E
S1134890EE0FFF1FE455F74F808091802FBFF40186
S11348A08285178106818F3309F01AC4C4010E94DE
S11348B044062C01FC017081F40161915F01812F98
S11348C09927582F4427802F9927482B592B8FB786
S11348D0F894992720910202309103028FBF421766
S11348E0530721F04F5F5F4F09F030C49CE0292E3D
S11348F0312C280C391C83EF782E760E733609F48C
S1134900C6C0743630F4703659F0713609F002C4FA
S113491096C0703709F4C3C0713709F0FBC3B1C244
S1134920F401848525859927782F66273327622B00
S1134930732B26856784908951886A32710521F02A
S1134940AA24BB24650108C0A0902902B0902A02C1
S1134950C0902B02D0902C028091B308882309F4D4
S1134960D9C3892F9927AA27BB27EE24F82E092F0C
S11349701A2F332744275527522F4427332722271A
S1134980862D9927AA27BB27DC0199278827282B5E
S1134990392B4A2B5B2B852D9927AA27BB27282B3C
S11349A0392B4A2B5B2BE22AF32A042B152BA11457
S11349B0B104C104D10461F4E114F1040105110549
S11349C091F16A32710509F0A5C3FAEF7F0E1BC09D
S11349D0E114F1040105110529F46A32710509F0A5
S11349E099C318C0D801C7018A199B09AC09BD092C
S11349F0181619061A061B068CF46A32710509F09A
S1134A0089C32AEF720EA8019701672DC10106968A
S1134A100E94E50F80E00E9412217CC3EA14FB048B
S1134A200C051D0551F46A32710509F073C38091B8
S1134A301E088F5F80931E086DC3CB0125C0809133
S1134A40B308882309F466C3F4018485258599276E
S1134A50982F88273327822B932B8A9709F05AC3E0
S1134A608091290290912A02A0912B02B0912C02EC
S1134A700097A105B10509F44DC3F101808199277F
S1134A80982F8827822B932B0E94A71143C383E07E
S1134A9090E0909393148093921412983BC3F40182
S1134AA0878126819927982F88273327822B932B58
S1134AB08F5F9F4F09F0F7C062E0C4010E94360681
S1134AC07C01F401818520859927D82ECC243327B5
S1134AD0C22AD32AC6010E94D4048F3F21F0F701D1
S1134AE0618177271CC00E949C0B182F8F3FD1F047
S1134AF0B6010E94D30AF7014181212F33278BE0AD
S1134B0090E0289FF001299FF00D389FF00D1124AB
S1134B10E65BF34F4283F70161817727812F0E947F
S1134B20F30AC1C081E40E94AE0B182F8F3FA1F09D
S1134B30282F33278BE090E0289FF001299FF00D68
S1134B40389FF00D1124E65BF34F808191810E9420
S1134B503116B601812FA5C090E025E830E0820E21
S1134B60931EF40180812BE73FEF820E931E893C54
S1134B7008F091E0992309F496C0C4010E945D13E2
S1134B80982FF2018081803709F08DC0953009F0AB
S1134B90C1C265E0C4010E943D068C01FC01818113
S1134BA022819927982F88273327822B932B8F5F75
S1134BB09F4F09F47EC0F801838124819927582FDF
S1134BC044273327422B532B4115510521F1809162
S1134BD04A09E82EFF246091721470917314A0E0C6
S1134BE020E030E0E4E9F9E00EC08081918186178D
S1134BF0970731F0848195814817590708F4A1E09B
S1134C002F5F3F4F38962E153F0514F4AA2369F3FE
S1134C10AA2309F453C010E0EFE4FCE08081992753
S1134C2080FF04C083FD02C081FF1F5F3B962CE020
S1134C30ED3BF20799F71123B1F10E941F05DC0146
S1134C40CB01612F77270E942C3500E010E0EFE4C0
S1134C50FCE09081992349F0292F332723FD05C0D7
S1134C6021FD03C081508F3F39F00F5F1F4F3B96EA
S1134C700A30110571F717C0202F0F3FA1F0332719
S1134C808BE090E0289FF001299FF00D389FF00DF4
S1134C901124E65BF34F808191810E943116B601A5
S1134CA0802F0E94D30AC4010E945D13853009F04D
S1134CB031C265E0C4010E943D068C01F501F08417
S1134CC0B78060E4C4010E94F70B382E6801089491
S1134CD0C11CD11CF801818126010894411C511C7E
S1134CE0F60121819927982F88273327822B932B2C
S1134CF08F5F9F4F09F4BDC08F2D9927F82EEE24A6
S1134D008B2D9927E82AF92A83E0A82EB12CA00E2E
S1134D10B11EF8018381B4E06B2E712C600E711EFC
S1134D2024819927982F88273327822B932B892B2B
S1134D3049F5C7010E94D4048F3F09F50E949C0BDA
S1134D408F3F11F0B70119C08AE00E94AE0B182FF3
S1134D508F3FA9F0282F33278BE090E0289FF001A4
S1134D60299FF00D389FF00D1124E65BF34F8081ED
S1134D7091810E943116B701812F0E94D30AC70185
S1134D800E940505F501B080F301A080F601D080F2
S1134D90F201C080C7010E94EC048C01C7010E948B
S1134DA0D70B482F8A30F1F18B2D9927782F66275E
S1134DB08A2D9927682B792B8D2D9927382F222717
S1134DC08C2D9927282B392B80914A094817C9F42F
S1134DD00233110538F5E42FFF2753E0EE0FFF1FD0
S1134DE05A95E1F7EC56F64FF182E0823383228341
S1134DF07583648381E0868317824F5F40934A09F9
S1134E0011C0E42FFF2743E0EE0FFF1F4A95E1F79F
S1134E10EC56F64FF182E0823383228375836483F8
S1134E2081E0868380911102882319F5C7010E94CD
S1134E30D70BE82F80914A09E81748F4FF2793E03D
S1134E40EE0FFF1F9A95E1F7EC56F64F37828091EB
S1134E507714882311F0332049F0809172149091D3
S1134E6073148E159F0529F4332019F083E20E94F0
S1134E70A80560E8C4010E94F70B882309F44AC11D
S1134E8020C1C4010E948E16182F1F5F68E0C40160
S1134E900E9436066C01FC011183F0E7F71508F453
S1134EA039C1C4010E949C1620E09091AA08891778
S1134EB008F421E0222309F02DC120913002822F31
S1134EC09927B82E882309F44EC000912E02020FB0
S1134ED00150BA940D3010F4E02F02C0E02FED50D1
S1134EE0FF27EE0FFF1FE15BFB4E0190F081E02DE9
S1134EF0E080F18068E0C7010E943606FC0124814D
S1134F004581F601848165813327322F2227552775
S1134F10242B352B9927982F88277727862B972B97
S1134F202817390709F015C1C7010E949516182FD3
S1134F30C4010E949516181709F00BC1C7010E94FD
S1134F408E16182FC4010E948E16181709F001C17D
S1134F50C7010E948716182FC4010E9487161817CC
S1134F6009F0F7C0D7C08091AB08882309F0D2C0FC
S1134F702091AD0B222309F481E0882309F0CAC0F3
S1134F809091AC0B992309F481E0882309F0C2C005
S1134F90992309F4BFC08091B114E82FFF27EE0FC5
S1134FA0FF1FE35AF94E0081118111821082915042
S1134FB09093AC0B8F5F8093B1148C3011F41092EA
S1134FC0B1140115110509F4A5C0222309F4A2C0E6
S1134FD08091870AE82FFF27EE0FFF1FEA52F24F56
S1134FE0E080F1801182108221502093AD0B8F5FFD
S1134FF08093870A8C3011F41092870AE114F1042B
S113500009F488C087E8F70111928A95E9F72CE73B
S113501030E0820E931E8BE0F40111928A95E9F739
S113502024E83FEF820E931EF801918280828FEF75
S113503082838EE18383C8010E944108882389F515
S1135040CE0101960E949906882311F5F60182810A
S113505023819927982F88273327822B932B298103
S11350603A8128173907A0F080E890E0A0E0B0E08A
S11350708093120290931302A0931402B09315022A
S11350800E9464216CE170E08CE190E00E94E01EDB
S113509080910A0D81FD03C082E20E94A8054701A8
S11350A039C0C7010E94DF06C8010E94FE0632C053
S11350B068E0C4010E943606FC0180818078803853
S11350C049F580E890E0A0E0B0E08093120290936C
S11350D01302A0931402B09315020E9464211AC013
S11350E0812F9927582F4427802F9927482B592BF4
S11350F08FB7F894992720910202309103028FBF51
S11351004217530719F04F5F5F4F21F48FB7F8949C
S113511099278FBF9FB7F89480919814E82FFF27A1
S1135120EE0FFF1FE455F74F918280828F5F8093CB
S11351309814833010F0109298148091691481505F
S113514080936914892F99278FBF96CB713711F7F4
S1135150AFCF0150BB2009F0BCCE05CF2FBF2296A4
S11351600FB6F894DEBF0FBECDBFDF91CF911F9174
S11351700F91FF90EF90DF90CF90BF90AF909F90F2
S11351808F907F906F905F904F903F902F900895F5
S11351906F927F928F929F92AF92BF92CF92DF9243
S11351A0EF92FF920F931F93CF93DF93CDB7DEB7A8
S11351B022970FB6F894DEBF0FBECDBFE82FFF27AE
S11351C0E532F10510F00C94EA30EA59FF4FEE0F86
S11351D0FF1F0590F491E02D099420E030E0EAE906
S11351E0F4E113C08091B014882309F01AC50C941B
S11351F0EA308FB7F8942091490C20FD4FC520E088
S113520051C581919191280F391F44E1EE3AF40779
S1135210C1F7C9016AE070E00E942C3520E030E05B
S113522040E050E0749781919191861B970BDC01CB
S1135230AA9FC001AB9F900DBA9F900D1124AA277D
S113524097FDA095BA2F280F391F4A1F5B1FB4E1A1
S1135250EE3AFB0741F7293231054105510510F4B7
S11352600C94EA300E94CB1F0C94EA302FB7F894C8
S11352703327809190098093070282E0809316027D
S11352802FBF80910702882311F00C94EA3080919B
S11352909109909192090E946806082F1127002312
S11352A011F40C94EA3080E00E940610602F809183
S11352B09109909192090E94A91F0C94EA30E091FF
S11352C0F40DF091F50DDF01A458BF4F2D913C91E1
S11352D01197D090170242E0D41649F521153105F3
S11352E029F0EC57FF4F808180FF02C084E01AC090
S11352F08091D00D9091D10D01969093D10D809312
S1135300D00D8217930768F481E080931702FD01A2
S1135310428153814115510569F06627772780E062
S1135320A2C285E080931702D090170227C0F1E053
S1135330DF1621F582E0809317024091F40D50911D
S1135340F50D2FB7F894332780918E098F5F8093E2
S11353508E092FBF8091F109882369F45093CF0DF2
S11353604093CE0D81E08093F10910929B0D86E06D
S11353700E94A805A5C10E942F1EA8C143E04D1597
S113538008F028C7232B61F0E091F40DF091F50D9E
S1135390E458FF4F8091D00D9091D10D918380837B
S11353A0109217020091F40D1091F50DF801828509
S11353B08F3309F00FC780E00E940610C8010E94D5
S11353C04406C0901002F4E0FC1508F403C7EC2D69
S11353D0FF27EE0FFF1FE65CF34FE080F180E0163D
S11353E0F10609F0F7C6118210820E94F3102CEF27
S11353F0D20E4D2DB7018C2D4BC480918C0988237E
S113540061F5209183143091841440918514509156
S11354108614EFB7F894FF276091B4087091B5082B
S11354208091B6089091B708E090B214F090B3144C
S11354300091B4141091B5146E0D7F1D801F911F3F
S1135440EFBF2093831430938414409385145093B6
S1135450861410928C090E94980C0E94EE0543C099
S11354600E94EE055B016C018FB7F89499271092A6
S11354707A0A8FBF3FEFE32E3FEFF32E3FEF032F68
S11354803FE7132F60E0EAEBFCE0808581FF1CC05E
S113549080819181A281B381A6019501281B390BDA
S11354A04A0B5B0BDA01C90124813581468157819E
S11354B0281B390B4A0B5B0B2E153F054007510780
S11354C01CF479018A0161E039963DE0EB30F30781
S11354D0E1F6662309F47EC61E141F0410061106A5
S11354E02CF0C601B5010E94B22174C6E092831467
S11354F0F0928414009385141093861481E08093B1
S11355008C09A8019701C601B5010E94980C62C6D6
S11355108091F1091092F109853009F07FC021E0F2
S1135520F22EF092330280913402882311F00E940B
S11355301F0580912D02846080932D0290E080915C
S11355403002882309F491E0992319F482E20E943D
S1135550A8058091160890911708A0911808B09199
S113556019080097A105B10529F5109216081092A3
S11355701708109218081092190810921A0810921D
S11355801B0810921C0810921D0810921E0880E03F
S11355900E9429140FB7F894112780E090E00E942C
S11355A0BA0A0FBF0E94942080E00E941221F09258
S11355B0A90803C080E00E94122141E04093B3088F
S11355C080912D02826080932D028FB7F8949927E1
S11355D020910202309103028FBF3093EF0D20938C
S11355E0EE0D80913402882309F0F4C5409334020F
S11355F080E890E0A0E0B0E0809312029093130260
S1135600A0931402B09315020E94642140E050E27A
S113561060E070E087E00E945807DCC5863031F412
S11356201092330280912D028B7F00C4873009F4DD
S1135630D1C58093F109CEC52FB7F8943327809153
S11356408E098F5F80938E092FBF4091F1094130FD
S113565071F580919B0D8F5F80939B0D863038F59B
S11356602091CE0D3091CF0D8091F2098823C1F4A1
S113567090E08091940D882309F491E0992381F0BE
S11356803093EE092093ED094093F2098BED91E1FB
S11356900E94970A0E94B00F1092B61483E004C0CF
S11356A085E08093B61482E08093F10909C01092DA
S11356B0F1090E942F1E8091B614882321F406C09C
S11356C00E942F1E87C58C5F8093170282E0BBC3A4
S11356D00E9422247FC50E941F052FB7F894332708
S11356E07093D30D6093D20D2FBF74C58FB7F89408
S11356F0992710920C0D10920B0D109253161092C4
S1135700521610922108109220081092370C109211
S1135710360CCCC02FB7F894332780911E0B80939E
S11357200A0282E0809318022FBF80910A02882324
S113573009F050C5209A289A80915416882309F0BC
S113574075C08EEF91E0019701960197E1F71698E5
S11357502F9886E090E0019701960197E1F7169A59
S1135760289883EC8EBD0DB407FEFDCF8EB51EBC0C
S11357700DB407FEFDCF8EB5289A289882EC8EBD15
S11357800DB407FEFDCF8EB588E08EBD0DB407FEC7
S1135790FDCF8EB5289A8EEF91E00197019601977F
S11357A0E1F728988EEC8EBD0DB407FEFDCF8EB5C3
S11357B08DE48EBD0DB407FEFDCF8EB5289A2898D2
S11357C089EC8EBD0DB407FEFDCF8EB587EC8EBD82
S11357D00DB407FEFDCF8EB5289A289885EC8EBDB2
S11357E00DB407FEFDCF8EB580E88EBD0DB407FE67
S11357F0FDCF8EB5289A1092AB0B8BE080938F0966
S1135800289888EC8EBD0DB407FEFDCF8EB58BE6CF
S11358108EBD0DB407FEFDCF8EB5289A2F9A81E078
S11358208093541680E00E947609D4C40E94431EDB
S1135830D1C48FB7F89499272091FA0D20930B02C5
S113584023E020931A028FBF80910B02882321F05A
S1135850813009F0BFC40AC06D9A759A4AE050E0DD
S113586060E070E082E00E941706B4C46E9A769AF3
S1135870F5CF2FB7F894332780917F0A80930C02D9
S113588083E080931C022FBF80910C0280937014DC
S113589080E00E94F8129EC48FB7F8949927209153
S11358A0770920931E0223E020931D028FBF92C428
S11358B080E005C075986D9883E1C5C281E00E94BF
S11358C0110988C476986E9884E1BDC280E00E9474
S11358D08D1280912002813019F480E00E94110918
S11358E08FB7F89499271092200210921F02DECFEE
S11358F081E00E948D1280912202813011F40E9475
S113590011098FB7F894992710922202109221025C
S1135910CDCF8FB7F89499272091B80C20930D021E
S113592023E0209324028FBF80910D02882321F06D
S1135930813009F04FC408C081E08093AA0B109213
S113594099140E94EF0846C4E090F00DF090F10D18
S11359500091F20D1091F30D1092BC081092BB0847
S113596010928814109287141092D50D1092D40DB1
S1135970A0908E14B0908F14CC24DD248AE790E09C
S1135980A0E0B0E0E80EF91E0A1F1B1FC801B70112
S113599024EF30E040E050E00E9453353B014C01DD
S11359A0C801B70124EF30E040E050E00E945335D5
S11359B0CA01B901A60195010E9401357B018C0140
S11359C0C401B3010E94013566587F4F8F4F9F4F2A
S11359D024EF30E040E050E00E945335E20EF31E25
S11359E0041F151FE092950DF092960D0093970DEC
S11359F01093980D10920F020E94E108EBC31092CD
S1135A00AA0BA090CC0DB090CD0D80919914882351
S1135A1009F0E0C30E948A0780E00E940E088823F0
S1135A2009F455C0909070148FB7F894C82E8091E3
S1135A301C02833009F041C080910C028915E9F5FC
S1135A4080914C09882309F0BFC3B5C3ED2DE695B9
S1135A50E695E695FF274D2D5527E45BF64F9A0111
S1135A602770307081E090E002C0880F991F2A955A
S1135A70E2F7809520812823208300931B0212C023
S1135A800F5F1F4F0130110511F400E010E0D02E1C
S1135A90802F0E9423088823C9F60E151F0581F75D
S1135AA04FEF50E040937F0A8FEF80930C0281E028
S1135AB080931C028DE00E94A805CFBE992039F482
S1135AC098E5A91692E0B90610F40E94CB1F81E074
S1135AD00E940E087FC3449880912802813011F4FB
S1135AE00E944C218FB7F8949927109228021092A3
S1135AF02702DCCE2FB7F89433278091B208809325
S1135B000E0283E0809326022FBF80910E02E82FBD
S1135B10FF27EE0FFF1FEE0FFF1FEB51F64FE08044
S1135B20F18002811381882309F054C381E00E942B
S1135B30F812882309F04EC3E092F00DF092F10DB3
S1135B400093F20D1093F30D45C30E944C2142C300
S1135B5087E179C120910F028FB7F8949927E22F3A
S1135B60FF27EE0FFF1FDF01AC5BB64F11961C92AF
S1135B701E92E057FB4EB183A0838FBF81E08093D8
S1135B800F02222309F026C30E948A0780E00E94A4
S1135B90771380E058C140910F028FB7F89499278A
S1135BA0A42FBB27FD01EE0FFF1FEC5BF64F019006
S1135BB0F081E02D8FBF03C00280F381E02D309788
S1135BC0D9F72FB7F8943327AA0FBB1FFD01EC5B5D
S1135BD0F64F11821082A057BB4E842F9927880F4D
S1135BE0991F8C5B964F8D939C932FBF81E080937C
S1135BF00F02442309F0EEC20E948A0780E00E944B
S1135C00771383E090E09093931480939214109808
S1135C10E1C28FB7F89499271092850A1092840AEA
S1135C2045CE71E0D72EEE24FF240AE31CE09091C8
S1135C30B0148D2D892379F0D8016D917C91119741
S1135C401D921C928D2D809598239093B01443E05F
S1135C508E2D0E948D1F0894E11CF11C0E5F1F4FB6
S1135C60B8E0EB16F10409F4B5C2DD0CE0CF1091F5
S1135C701002E12FFF27EE0FFF1FE65CF34FE080D9
S1135C80F180118210820E94F31041E0B701812F4C
S1135C900E948D1F9FC20E94BE0F9CC22E7F209324
S1135CA0490C21E099278FBF222309F493C28AE289
S1135CB090E00E94A71181E2C6C080912D0284FD6C
S1135CC089C290E080913002882309F491E09923FD
S1135CD009F080C28091AB08882359F420E08091B8
S1135CE07214909173148F5F9F4F09F021E0222367
