:100000000C9469010C9488010C9488010C9488016B
:100010000C9488010C9488010C9488010C9488013C
:100020000C9488010C9488010C9488010C9488012C
:100030000C9488010C94030E0C9488010C94B30C5E
:100040000C949E170C94E7170C946A0D0C94750D84
:100050000C94800D0C9488010C9488010C948801F8
:100060000C94C70C0C94A60A0C9488010C94290BD0
:100070000C9488010C9488010C9488010C94800CD9
:100080000C945F0C0C946A0C0C94750C0C94930CEF
:100090000C94420C0C9488010C94540C0C94880120
:1000A0000C9488010C9488010C9488010C948801AC
:1000B0000C9488010C9488010C9488010C9488019C
:1000C0000C9488010C9488010C9488010000211084
:1000D000422063308440A550C660E77008812991B2
:1000E0004AA16BB18CC1ADD1CEE1EFF1311210025A
:1000F00073325222B5529442F772D6623993188302
:100100007BB35AA3BDD39CC3FFF3DEE36224433425
:1001100020040114E664C774A44485546AA54BB551
:1001200028850995EEE5CFF5ACC58DD553367226F9
:1001300011163006D776F6669556B4465BB77AA7A1
:1001400019973887DFF7FEE79DD7BCC7C448E55845
:100150008668A7784008611802282338CCC9EDD9F1
:100160008EE9AFF9488969990AA92BB9F55AD44A99
:10017000B77A966A711A500A333A122AFDDBDCCB41
:10018000BFFB9EEB799B588B3BBB1AABA66C877C65
:10019000E44CC55C222C033C600C411CAEED8FFD91
:1001A000ECCDCDDD2AAD0BBD688D499D977EB66E39
:1001B000D55EF44E133E322E511E700E9FFFBEEFE1
:1001C000DDDFFCCF1BBF3AAF599F788F8891A981A3
:1001D000CAB1EBA10CD12DC14EF16FE18010A1008D
:1001E000C230E3200450254046706760B98398937D
:1001F000FBA3DAB33DC31CD37FE35EF3B1029012DD
:10020000F322D2323542145277625672EAB5CBA548
:10021000A89589856EF54FE52CD50DC5E234C3242C
:10022000A01481046674476424540544DBA7FAB71C
:100230009987B8975FE77EF71DC73CD7D326F2367C
:100240009106B01657667676154634564CD96DC968
:100250000EF92FE9C899E9898AB9ABA944586548CC
:1002600006782768C018E1088238A3287DCB5CDBBC
:100270003FEB1EFBF98BD89BBBAB9ABB754A545A1C
:10028000376A167AF10AD01AB32A923A2EFD0FED88
:100290006CDD4DCDAABD8BADE89DC98D267C076C6C
:1002A000645C454CA23C832CE01CC10C1FEF3EFF5C
:1002B0005DCF7CDF9BAFBABFD98FF89F176E367EBC
:1002C000554E745E932EB23ED10EF01E00020E0605
:1002D0000C0411241FBECFEFD1E2DEBFCDBF13E06F
:1002E000A0E0B2E0EEE1FCE300E00BBF02C007904B
:1002F0000D92AE32B107D9F71BE2AEE2B3E001C016
:100300001D92A836B107E1F70E94041C0C940E1E42
:100310000C940000FC0120E030E007C08281938152
:10032000280F391F0480F581E02D3097B9F7C901F6
:100330000895FB0151834083338322839583848313
:100340000895CF92DF92EF92FF920F931F93CF9376
:10035000DF938C01FB017A01690105C0E81BF90BF1
:10036000E8010C811D81E8018A819B81E817F9076A
:10037000A8F71CC0E8018A819B818E1B9F0BE701B7
:100380008E159F0508F4EC01D8018D919C91AE016A
:10039000B6018E0F9F1F0E94FE1DCC0EDD1EEC1AB3
:1003A000FD0AE8010C811D81E0E0F0E00115110576
:1003B00019F01E141F04F4F280E090E0DF91CF9159
:1003C0001F910F91FF90EF90DF90CF9008954F9283
:1003D0005F926F927F928F929F92AF92BF92CF92D5
:1003E000DF92EF92FF920F931F93CF93DF938C01D5
:1003F0004B015A013901CC24DD2404C06C01F80101
:10040000048115810115110519F44424552436C0C1
:10041000F801828193818C0D9D1D8816990670F7D5
:100420004424552428C07401EC18FD08F801828189
:1004300093818E199F09E5018A159B0508F4EC014B
:10044000F801608171816E0D7F1DAE01C3010E94B4
:10045000FE1D4C0E5D1EF80104811581011511056C
:1004600069F0CE0CDF1CCC0EDD1E8C0E9D1EAC1A6E
:10047000BD0A6C0E7D1E1A141B04ACF2C201DF9182
:10048000CF911F910F91FF90EF90DF90CF90BF9091
:10049000AF909F908F907F906F905F904F90089556
:1004A000EF92FF920F931F93CF93DF93FC0120E015
:1004B00030E040E050E0A0E0B0E02EC06281738107
:1004C0006115710531F1C081D18100E010E01EC0DD
:1004D000888100FD0BC09927982F8827A82BB92B5E
:1004E000C80101968617970771F403C09927A82BB6
:1004F000B92B7D01C701AA27BB27280F391F4A1F27
:100500005B1FA0E0B0E00F5F1F4F21960617170793
:10051000F9F60480F581E02D309781F60BC0DA0101
:10052000C901A070B0709A0144275527280F391FC0
:100530004A1F5B1F203080E0380781E0480780E0D9
:10054000580768F7C90180959095DF91CF911F9169
:100550000F91FF90EF900895EF92FF920F931F93EA
:10056000CF93DF93CDB7DEB76A970FB6F894DEBFAF
:100570000FBECDBFE42E08969A87898740E150E0F0
:100580005C874B879E01215F3F4F3E872D874096BA
:10059000988B8F875A8B498BCE0145969C8B8B8B82
:1005A000CE0101969E8B8D8B88E090E0988F8F8B8B
:1005B0007A8F698FCB010E948A01AA2797FDA095A7
:1005C000BA2FBC01CD010E94530469837A838B83C7
:1005D0009C83FF2400271127C801B7010E94530400
:1005E0006D837E838F839887CE0109960E94500287
:1005F0006A960FB6F894DEBF0FBECDBFDF91CF91E4
:100600001F910F91FF90EF9008958CED95E09093DE
:100610004403809343030895A3E4B3E004969C014C
:1006200021703070280F391F02C0A40FB51F8D91A3
:100630009C911197AC015F704217530710F097FF20
:1006400006C0CD01835493408C5D954074F389E0DE
:10065000AF31B80718F080E090E00895C901029723
:100660009C013F70306811963C932E93FD01E80F7A
:10067000F91F481B590B5F7051834083CD010296CF
:100680000895CF93DF939C01E3E4F3E0C0E0D0E072
:1006900006C0808191819F70EF01E80FF91FCF01A3
:1006A00002968217930739F0CF01835493408C5DF3
:1006B00095407CF327C0808191819C013F70DF01D0
:1006C000A20FB31F9F7791838083CD018354934002
:1006D0008C5D95404CF48D919C9197FD05C09F7069
:1006E000280F391F31832083209761F028813981B9
:1006F00037FD08C03F70808191819F70280F391F9E
:1007000039832883DF91CF910895E3E4F3E040E05B
:1007100050E00BC02081318137FD04C0C9019F70BA
:10072000480F591F3F70E20FF31FCF0183549340CE
:100730008C5D95407CF3CA0108956F927F928F92F1
:100740009F92AF92BF92CF92DF92EF92FF920F9360
:100750001F93CF93DF93FB015A018B01040F151FE9
:10076000DC01CC24DD2440E050E07AE398EF692EF0
:100770009FEF792E600E711E6E167F0608F460C022
:10078000ED01E980FC9024E030E08FEF882E982E78
:10079000CCE0D0E0C401022E02C0969587950A9461
:1007A000E2F78E159F0530F042305105B1F420314B
:1007B000310599F4C7010C2E02C0969587950A94CD
:1007C000E2F7682F6F708F7090700A9718F4862F79
:1007D000805D02C0862F895A81932C5F3F4F2497FA
:1007E00024313105B9F68D919C911197892B21F512
:1007F0004115510559F471938D919C911197892B55
:1008000019F441E050E002C042E050E087E0C81631
:10081000D10424F44130510509F071930894C11CAE
:10082000D11C129688E0C816D10409F0A5CF41303A
:10083000510531F4719304C04130510539F7E4CFCB
:1008400011920A191B09CF01801B910BDF91CF91E7
:100850001F910F91FF90EF90DF90CF90BF90AF90DE
:100860009F908F907F906F900895DC018C918370A2
:10087000823021F4FD012181328113C0833019F0CF
:1008800020E030E00EC0FD01319620E030E0AD0107
:10089000475F5F4F81919191280F391FE417F5074A
:1008A000C9F7C9010895EF92FF920F931F93FB01BF
:1008B000BC01882799272F2F3E2F44275527A901B0
:1008C00033272227E72EF62E002711272E293F292E
:1008D000402B512BCA01B9011F910F91FF90EF904E
:1008E00008959C01DB01FC0104C08D91819341506E
:1008F000504041155105C9F7C90108958F929F9243
:10090000AF92BF92CF92DF92EF92FF920F931F931D
:10091000CF93DF936C014B01892B09F4A3C06115C0
:10092000710509F49FC080E1EB0119928A95E9F7FE
:10093000D60160E070E090E046C02A3301F1822FDA
:1009400080538A3030F4332727FD309520533040D0
:100950000EC0422F552747FD50952154263020F4D4
:100960009A012753304003C09A012755304044E094
:10097000660F771F4A95E1F7622B732B0DC0E92FA5
:10098000FF27EE0FFF1FE80DF91D072F162F11830C
:1009900000839F5F60E070E0FD013196ED012981E9
:1009A000222359F4E92FFF27EE0FFF1FE80DF91D51
:1009B000E72EF62EF182E08255C08C918A3311F435
:1009C0002A3341F0DF012C91222309F0B6CFFD013B
:1009D00001C0319680818823E1F7DF01119760E043
:1009E00070E017E090E03BC02C912A3311F1822F88
:1009F00080538A3030F4332727FD30952053304020
:100A00000EC0422F552747FD50952154263020F423
:100A10009A012753304003C09A0127553040092ED0
:100A200002C0220F331F0A94E2F7622B732B9C5FE4
:100A30000EC0E12FFF27EE0FFF1FE80DF91DA72EB7
:100A4000B62EB182A082115060E070E090E0119764
:100A5000FD0181818A3319F48C918A3319F0CA1609
:100A6000DB0610F2DF91CF911F910F91FF90EF9075
:100A7000DF90CF90BF90AF909F908F900895FC0132
:100A80007183608353834283358324830895CF9297
:100A9000DF92EF92FF920F931F93CF93DF938C011E
:100AA0006B01EE24FF241AC0F80182819381E89E35
:100AB000E001E99ED00DF89ED00D11248081918136
:100AC000C80FD91FCE01F6010995FFEF8F3F9F0791
:100AD00059F0019759F00894E11CF11CF801848148
:100AE0009581E816F90600F3C0E0D0E0CE01DF9171
:100AF000CF911F910F91FF90EF90DF90CF900895CD
:100B0000EF92FF920F931F93CF93DF93EC017B0142
:100B100000E010E012C08A819B819C01029FC0010D
:100B2000039F900D129F900D112428813981820F0F
:100B3000931FF70109950F5F1F4F8C819D81081747
:100B4000190748F3DF91CF911F910F91FF90EF901C
:100B500008958FB7F894992708958FBF08958FB798
:100B6000F894282F332780912603813021F02FBF5E
:100B700080E090E0089582E0809326031092CD09F2
:100B80002FBF81E090E00895382F809126038230B6
:100B9000D1F42091CD09E22FFF27CF01830F911DC2
:100BA000803791059CF583E0809326032093DC0930
:100BB0002F5F2093CD098091270390912803E80FA0
:100BC000F91F64871DC080912603833011F5809141
:100BD000CD09830F912D911D81379105BCF482E0E1
:100BE00080932603E0912703F09128033C9680919F
:100BF000DC09E80FF11D6295607F8081860F80839C
:100C00008091CD09380F3093CD0904C084E08093E2
:100C100026038FEF992787FD90950895282F9FB77A
:100C2000F894E82FFF27E25DF64F80818F3F81F433
:100C3000E091632BE21771F40BC02093532B04C097
:100C4000FF27E25DF64F20832093632B20E007C04F
:100C500025E005C08091532B8F3F91F7EECF892F70
:100C600099278FBF822F992708959FB7F894292F2E
:100C70003327422F90912C03981741F4809142031F
:100C8000823021F42FBF81E090E008954FBF80E0D3
:100C900090E00895882319F08CB5806402C08CB56B
:100CA0008F7B8CBD08950F931F93982F1FB7F894D7
:100CB00080914203823099F580912C03891779F550
:100CC00080912A0320E030E08F3F11F421E030E0F2
:100CD000232BF1F49FEF90932C038F3F19F42FEF08
:100CE00030E00DC0282F3327F901ED5BF64F8081EE
:100CF00080932A038F3F11F490932B0390832093CA
:100D0000420981E0809342038DE00E940E0605C0F7
:100D10008FEF80932C031092420301E001C000E0AA
:100D2000812F99278FBF1FB7F894809142038823A2
:100D300011F40E944A06812F99278FBF90E001305D
:100D400009F491E081E09827892F99271F910F914D
:100D50000895882319F08CB5806802C08CB58F7710
:100D60008CBD08950F931F9380E00E944A060FB731
:100D7000F8941127229A2398219A209A8CB58061A1
:100D80008CBD80E00E94A9068CB5877F8CBD8CB598
:100D90008B7F8CBD81E00E944A068DB581608DBD40
:100DA0008CB58C7F8CBD0FBF1F910F9108958FB7AD
:100DB000F8942091D5093091D6094091D7095091E6
:100DC000D809E0918400F0918500B09B08C02F5FA6
:100DD0003F4F4F4F5F4FE0918400F091850099277E
:100DE0008FBFC901772766279F0144275527622BAC
:100DF000732B842B952B0895FB01EC57FF4F21E0BB
:100E000030E002C0220F331F8A95E2F780818223EF
:100E1000992708957FB7F8946091B20020912A092C
:100E200030912B0940912C0950912D09B99B11C08B
:100E30008091B3009091B200280F311D411D511DCA
:100E40002F5F3F4F4F4F5F4F290F311D411D511DE8
:100E500004C0260F311D411D511D872F99278FBFBB
:100E6000CA01B9010895EF92FF920F931F93E09189
:100E7000890AE1FF2BC02091810A3091820A4091BA
:100E8000830A5091840AE090850AF090860A0091C6
:100E9000870A1091880A621B730B840B950B6E15E1
:100EA0007F058007910790F0E0FF04C0ED7FE0939D
:100EB000890A0CC02E0D3F1D401F511F2093810A2F
:100EC0003093820A4093830A5093840A8AE00E94F6
:100ED0000E061F910F91FF90EF900895DF92EF9211
:100EE000FF920F931F938FB7F894282F3327D22E9A
:100EF0009091B3008091B20047B3981711F041FF71
:100F000002C02FBF71C08091D3098823E1F10E94F4
:100F10000A07E0902209F09023090091240910911A
:100F200025092091582B3091592B40915A2B5091E3
:100F30005B2B6E197F09800B910B62177307840777
:100F4000950720F01092D30971E01EC02E0D3F1DB1
:100F5000401F511F80912A0990912B09A0912C09C3
:100F6000B0912D09281B390B4A0B5B0B273E31052D
:100F70004105510540F4822F223010F070E005C089
:100F800070E082E002C070E086EE682F61508091D0
:100F9000B60083FDFCCF8091B200681709F46F5F43
:100FA00020912A0930912B0940912C0950912D094B
:100FB000DA01C9010196A11DB11D860F911DA11D68
:100FC000B11D82179307A407B50710F4622F60952F
:100FD0008091B60083FDFCCF6093B300DFBE772322
:100FE00019F089E00E940E061F910F91FF90EF907B
:100FF000DF900895AFB7F894BB27E1E0E093D30901
:101000006093220970932309809324099093250902
:101010002093582B3093592B40935A2B50935B2B92
:10102000AFBF0E946E0708951F931FB7F894809179
:10103000622B882339F40E940E06882319F481E07C
:101040008093622B812F99278FBF1F910895382F8E
:10105000FA01422F213718F082E090E0089566836C
:10106000872F992785833387218780913303909138
:101070003403892B19F085E090E008952FB7F89498
:10108000332785E08093360310923703F0933203C1
:10109000E093310382E090E0909334038093330334
:1010A0001092390310923803445F409335032FBFE9
:1010B0008FB7F894282F332780919C0B8A3011F436
:1010C0002FBF19C02FBF9FB7F8948091E4098823E0
:1010D00011F020E006C081E08093E4091092E50958
:1010E00021E0892F99278FBF222329F00E9414081D
:1010F00080E090E00895109234031092330381E071
:1011000090E0089580919C0B8A3021F48091CC0965
:10111000843021F081E080932E03089582E00E94C4
:101120000E0610922E0308952FB7F894332780935C
:10113000C600E0ECF0E08081806480832FBF0895DA
:10114000FC016115710519F481E090E0089580912A
:10115000DF099091E009892B19F085E090E008956E
:101160007093A90B6093A80BF093E009E093DF095B
:101170001092CF091092CE0981E08093D00980911E
:10118000C00080648093C0008091C100806480931F
:10119000C100808121E030E03093CF092093CE0957
:1011A0000E94940880E090E008958FB7F894992702
:1011B00020913F032E7F20933F032EE720933C098D
:1011C0008FBF61E070E08CE399E00E94A00899274E
:1011D0000895ECECF0E06927660FF11DE60FF11DB4
:1011E000C895982F802D3196C89590250895982FF1
:1011F00080913A03882389F5992379F531E030937A
:101200003A0380911F0380933B0320912F03822F89
:1012100081708093290980912403909125039093F4
:101220003D0380933C038091300380933E0332273B
:101230003170267EE32FFF27EE0FFF1FE05EFC4F8D
:10124000808191819093250380932403232B209305
:101250002F0385E00E940E06089580912F0380FFE2
:1012600002C08B7F01C08D7F80932F0308950F9361
:101270001F93082F162F8091CC098130D9F081302F
:1012800038F0823009F44AC0833009F028C159C0CF
:10129000002309F458C11092A10B1092A00B1092D8
:1012A0009E0B10924E2B1092D20910927D0A109232
:1012B0007C0A39C1002309F046C180917C0A9091D3
:1012C0007D0A0E94E90890937D0A80937C0A82E05F
:1012D0008093CC0910934E2B143409F000C125C122
:1012E0008695869503C080912F038695817009F0BD
:1012F000F6C080912F03992311F0846001C08260B1
:1013000080932F0380912F03877E886080932F0323
:10131000109230038FEF80931F0315C1002309F053
:10132000DEC06093D20980917C0A90917D0A0E9470
:10133000E90890937D0A80937C0A83E08093CC092E
:1013400002C180919E0B8F3F09F4C9C0002309F4AC
:1013500061C0823008F4C3C0E091A00BEE2309F411
:10136000EBC04E2F4150E42FFF27E056F44F82810F
:101370009927382F2227442311F4E2E002C0E42FFA
:10138000E150FF27E056F44F82819927282B392B13
:1013900080917C0A90917D0A2817390709F09FC037
:1013A00080E00E94F7083091D20980916E0A209166
:1013B0006F0A982F9F5F963008F090E0921771F0B7
:1013C000E82FFF27E259F54F32838F5F80936E0A33
:1013D000863010F010926E0A0E9414081092A10B31
:1013E0001092A00B94E09093CC0910929E0B109257
:1013F0004E2B1092D20910927D0A10927C0A809195
:101400003F038D7F80933F0380912E03882309F44F
:101410009AC084C0823008F44EC0E091A10BFF272F
:10142000E056F44F8281482F5527342F20912F0307
:10143000822F8695869586958370992781309105B0
:1014400019F00297F9F40EC0277E206120932F0334
:10145000442311F485E001C080E080933003309391
:101460001F0310C080913003873860F4E09124039B
:10147000F0912503E80FF11D4083809130038F5FC9
:10148000809330038091A10BE82FFF27E056F44FA3
:1014900062818F5F8093A10B833010F01092A10BBB
:1014A000772780917C0A90917D0A0E94E9089093A9
:1014B0007D0A80937C0A8091A00BE82FFF27E056DD
:1014C000F44F12838F5F8093A00B833010F0109243
:1014D000A00B80919E0B8F5F80939E0B34C0109267
:1014E000A10B1092A00B14E01093CC0910929E0B4C
:1014F00010924E2B1092D20910927D0A10927C0A03
:1015000080913F038D7F80933F0381E00E94F70825
:1015100080912E03882329F01093CC090E94820821
:1015200012C0002381F081E009CF80912F03982F12
:10153000917080FDD5CED7CE8091A40B9927382FFE
:10154000222742E01CCF1F910F9108951F920F9206
:101550000FB60F9211242F933F934F935F936F9386
:101560007F938F939F93AF93BF93EF93FF9380915C
:10157000C00087FF42C06091C600E0917E0AF091F2
:101580007F0A309719F18091602B9091612BE80FC1
:10159000F91F608301969093612B8093602B2091BB
:1015A000662B3091672B8217930738F110927F0AD0
:1015B00010927E0A80919B0B8330F9F08091C100DC
:1015C0008F778093C10010929B0B17C06E3719F470
:1015D00060E081E010C080913F036D3721F48260AC
:1015E00080933F030AC081FF05C08D7F80933F0336
:1015F00080E2682780E00E943709FF91EF91BF9158
:10160000AF919F918F917F916F915F914F913F919A
:101610002F910F900FBE0F901F901895982F8D57F8
:10162000823068F480913F03816080933F0380E2C1
:10163000892780939D0B8DE780933C0902C090938E
:101640003C0961E070E08CE399E00E94A0089927D2
:10165000089578941F920F920FB60F921124FF9263
:101660000F931F932F933F934F935F936F937F93AA
:101670008F939F93AF93BF93CF93DF93EF93FF939A
:101680002091CE093091CF098091A80B9091A90BA0
:101690002817390780F4E091DF09F091E009E20FA3
:1016A000F31F80812F5F3F4F3093CF092093CE09E6
:1016B0000E949408D1C01092E0091092DF091092A4
:1016C000D0098091C1008F7B8093C100FFB6F89450
:1016D00080913F0380FF0EC08E7F80933F038091F7
:1016E0009D0B80933C0961E070E08CE399E00E94DF
:1016F000A008AFC080919C0B843009F48CC0853069
:1017000040F4823021F18330B8F5813009F09CC07B
:101710000DC0863009F48DC0863008F483C0873050
:1017200009F48EC0883009F08FC091C08091DD0926
:101730000E940E0B082F83E080939C0B6091DD09C3
:101740008091642B9091652B0E94E90810C08091D4
:10175000562B0E940E0B082F83E080939C0B609108
:10176000562B8091642B9091652B0E94E9089093F1
:10177000652B8093642B66C0E091800AFF27EE0FF3
:10178000FF1FED51F64F80810E940E0B082F109124
:10179000800AC12FDD27FE01EE0FFF1FED51F64F2E
:1017A00060818091642B9091652B0E94E908909351
:1017B000652B8093642B2091DB092F5F2093DB093D
:1017C000113039F580913603E0913103F091320305
:1017D000E80FF11DE0818F5F809336039091350310
:1017E000981730F482E08093E40940E050E002C0B2
:1017F0004E2F5527DE01AA0FBB1FFD01EE51F64FFC
:101800008081823031F02F3F21F0AD51B64F4C93A3
:1018100019C084E012C08091642B0E940E0B082F27
:1018200085E00BC08091652B0E940E0B082F86E08F
:1018300004C00E94D508082F87E080939C0B02C04B
:1018400088E003C0002329F089E080939C0B0E946C
:1018500014088F2D99278FBFFF91EF91DF91CF91C2
:10186000BF91AF919F918F917F916F915F914F91B8
:101870003F912F911F910F91FF900F900FBE0F90EE
:101880001F9018951F920F920FB60F9211248F93ED
:101890008091C80087FF02C08091CE008F910F9089
:1018A0000FBE0F901F90189578941F920F920FB64D
:1018B0000F9211240F900FBE0F901F9018957894DF
:1018C0001F920F920FB60F9211240F900FBE0F9020
:1018D0001F90189578941F920F920FB60F921124B3
:1018E0000F900FBE0F901F90189578941F920F9233
:1018F0000FB60F9211240F900FBE0F901F901895E6
:1019000078941F920F920FB60F9211248F939F938A
:1019100080919600909197009F918F910F900FBEAC
:101920000F901F90189578941F920F920FB60F92F8
:1019300011242F933F938F939F932FB7F8943327BE
:1019400080917A0A90917B0A019690937B0A80930A
:101950007A0A2FBF9F918F913F912F910F900FBEC9
:101960000F901F9018951F920F920FB60F9211248F
:101970008F938091B0008093B0008091B60081FD7C
:10198000FCCF8F910F900FBE0F901F9018951F9254
:101990000F920FB60F9211240F931F932F933F9323
:1019A0004F935F936F937F938F939F93AF93BF9367
:1019B000CF93DF93EF93FF932EB5E091980BF091C7
:1019C000990B309739F08091760A9091770AE80F59
:1019D000F91F20838091760A9091770A019690935F
:1019E000770A8093760A80E00E94A906C091760A61
:1019F000D091770A2091200930912109C217D3078D
:101A000008F042C000915D2B10915E2B4091980B25
:101A10005091990BCE010A962817390708F4C9018D
:101A2000DA01AC0FBD1FF801EC0FFD1F9C01215026
:101A3000304015C00115110531F080818EBD0DB407
:101A400007FEFDCF04C01EBC0DB407FEFDCF8EB552
:101A50004115510509F08C93219611963196C217C4
:101A6000D30740F381E00E94A9060115110531F06A
:101A70000C0F1D1FF80180818EBD01C01EBCD093CC
:101A8000770AC093760A11C01092990B1092980BA6
:101A900010925E2B10925D2B10922109109220095A
:101AA0001092770A1092760A8EB5FF91EF91DF912E
:101AB000CF91BF91AF919F918F917F916F915F91E6
:101AC0004F913F912F911F910F910F900FBE0F904B
:101AD0001F90189578941F920F920FB60F921124B1
:101AE0000F900FBE0F901F90189578941F920F9231
:101AF0000FB60F9211240F900FBE0F901F901895E4
:101B000078941F920F920FB60F9211242F933F9348
:101B10008F939F93AF93BF932FB7F8943327809100
:101B2000D5099091D609A091D709B091D80901960D
:101B3000A11DB11D8093D5099093D609A093D70913
:101B4000B093D8092FBFBF91AF919F918F913F91D3
:101B50002F910F900FBE0F901F9018951F93CF934A
:101B6000DF93182FEA010E94C405282F87FD0FC0BC
:101B700080912703909128030C96332727FD3095F9
:101B8000412F5527BE01820F931F0E94FE1DDF913A
:101B9000CF911F9108951F93CF93DF93EC0120E025
:101BA00030E0FC01422F8191882329F02F5F3F4FC5
:101BB00020313105B9F7142F403108F01FE06FE0F4
:101BC000812F8F5F0E94C40587FD19C0282F3327FE
:101BD00027FD3095E0912703F0912803E20FF31FD2
:101BE00010551487105B8091270390912803820F72
:101BF000931F412F5527BE010D960E94FE1DDF91B8
:101C0000CF911F9108951F920F920FB60F9211243A
:101C10002F933F934F935F936F937F938F939F93F4
:101C2000AF93BF93EF93FF938091B0008093B00088
:101C30008091B60081FDFCCF8091B3009927019679
:101C4000AA27BB2720912A0930912B0940912C0902
:101C500050912D09280F391F4A1F5B1F20932A0915
:101C600030932B0940932C0950932D0978940E94AE
:101C70006E07FF91EF91BF91AF919F918F917F91EF
:101C80006F915F914F913F912F910F900FBE0F90E9
:101C90001F9018950F931F93CF93DF93182F0FB7B3
:101CA000F89480914203882311F40E94B206802F99
:101CB00099278FBF8FB7F894C82FDD272C2F8091DD
:101CC0004203882361F481E0809342031093420928
:101CD0008DE00E940E06CFBF80E090E021C0E12F92
:101CE000FF27ED5BF64F80818F3F89F4E0912B0356
:101CF000E11789F40CC010932A0304C0FF27ED5BA1
:101D0000F64F108310932B0380E090E002C085E033
:101D100090E02FBF05C080912A038F3F79F7EBCF6A
:101D2000DF91CF911F910F9108951F93809126030A
:101D3000813009F43CC08091CD09E0912703F091F6
:101D4000280380831FB7F89480914003909141034A
:101D5000892B71F48091270390912803909341037C
:101D60008093400382E08093D10986E00E940E06B2
:101D7000209127033091280329573F4F8BE22E34BF
:101D8000380710F02AEA3BE030932803209327031A
:101D900080914003909141032817390711F485E0A1
:101DA00001C081E080932603812F99278FBF1F9167
:101DB00008951F931FB7F894662339F08091D109D5
:101DC00081508093D1098823D1F420914003309130
:101DD000410329573F4F8BE22E34380710F02AEA8F
:101DE0003BE080912703909128032817390759F089
:101DF000309341032093400382E08093D10986E031
:101E00000E940E0615C0109241031092400380916B
:101E10002603853069F481E0809326030E94AF0594
:101E2000882331F080E092E00E94CB0D0E94950E55
:101E3000812F99278FBF1F910895EF92FF920F93E3
:101E40001F93CF93DF93182F7B01042FE82FFF27D9
:101E5000EE0FFF1FE858F54F1182108210922903F0
:101E6000A091780AB091790A109721F08091572BB0
:101E700080FF0EC081E08093290303C088E00E94A8
:101E80000E061123C9F4602FC7010E94D90E14C099
:101E9000FD01359624813327ED016D817727762F5B
:101EA000662781819927682B792BAD0186810E9455
:101EB0002708882331F3E2CFDF91CF911F910F9153
:101EC000FF90EF900895DF92EF92FF920F931F9390
:101ED000CF93DF93CDB7DEB722970FB6F894DEBF6E
:101EE0000FBECDBF8B017A01882351F50E94AF054B
:101EF000882331F1DD2480E090E007C0EC3511F05B
:101F0000EF3211F4D22ED3940196282FF801E80F66
:101F1000F11DE081EE2391F780E192E00E94CB0D6C
:101F2000C8018D0D911D0E94CB0DFA82E982AE0190
:101F30004F5F5F4F65E082E00E94AE0D0E94950EFC
:101F400022960FB6F894DEBF0FBECDBFDF91CF91C2
:101F50001F910F91FF90EF90DF9008951F93CF9303
:101F6000DF93182FEB0190E080919A0B882309F4FE
:101F700091E045E650E067E172E0892F0E94630F2F
:101F80001093E10981E080939A0B40918400509175
:101F90008500EFB7F8942091840030918500C90145
:101FA000841B950B03968C179D0720F0B9016D5F7C
:101FB0007F4F03C0BA016C0F7D1F6115710511F4CD
:101FC00061E070E061507040709389006093880018
:101FD00082E086BB80916F00826080936F008E2FBD
:101FE00099278FBFDF91CF911F9108951F93CF93B2
:101FF000DF93182FEB0180E0183008F481E044E40F
:1020000050E06DE472E00E94630FFE01EC57FF4F59
:1020100081E090E002C0880F991F1A95E2F72081B5
:10202000282B2083DF91CF911F9108951F93CF9389
:10203000DF93182FEB0180E0183008F481E04BE4C7
:1020400050E06DE472E00E94630FFE01EC57FF4F19
:1020500081E090E002C0880F991F1A95E2F7809501
:10206000208128232083DF91CF911F9108951F9312
:10207000182F80E00E94350649EA50E06DE872E0D2
:102080000E94630F212F3327E0E0C9018F73907006
:102090002817390709F4E1E04AEA50E06DE872E0F8
:1020A0008E2F0E94630F289810681EBD0DB407FE86
:1020B000FDCF8EB51EBC0DB407FEFDCF8EB5289AA0
:1020C00099271F91089580E00E943506882391F496
:1020D0008FB7F894282F332780914203882369F41F
:1020E00082E08093420310922C032FBF0E94B2061D
:1020F000209A289A81E090E008952FBF80E00E9406
:102100004A0E80E090E008952F923F924F925F92A6
:102110006F927F928F929F92AF92BF92CF92DF92F7
:10212000EF92FF920F931F93CF93DF93CDB7DEB75C
:1021300022970FB6F894DEBF0FBECDBF8FB7F894CD
:10214000282F332780914009882349F080688093A5
:1021500040092FBFDAC6109240090FBFD6C681E0F2
:10216000809340092FBF8091A50B882309F4CEC12D
:102170000E946310882309F4C9C18FB7F894992786
:102180006090D9097090DA098FBF1092A50B80E09A
:102190000E94350649EA50E06DE872E00E94630F44
:1021A0004AEA50E06DE872E081E00E94630F2898EF
:1021B0008FE88EBD0DB407FEFDCF8EB51EBC0DB4ED
:1021C00007FEFDCF8EB5289AF82E882E992486FE1C
:1021D00079C00E94AF05882309F474C084EC92E0B2
:1021E0000E94CB0D80918400909185009A83898311
:1021F000AE014F5F5F4F65E082E00E94AE0D80E070
:102200000E94350649EA50E06DE872E00E94630FD3
:102210004AEA50E06DE872E081E00E94630F28987E
:1022200081E88EBD0DB407FEFDCF8EB51EBC0DB48A
:1022300007FEFDCF8EB5289A8983AE014F5F5F4FB1
:1022400063E081E00E94AE0D80E00E94350649EA1D
:1022500050E06DE872E00E94630F4AEA50E06DE8DA
:1022600072E081E00E94630F289882E88EBD0DB471
:1022700007FEFDCF8EB51EBC0DB407FEFDCF8EB59B
:10228000289A89838E010F5F1F4FA80163E081E0C8
:102290000E94AE0DF982A80163E081E00E94AE0DBC
:1022A00080915F2B8983A80162E081E00E94AE0DDE
:1022B00080911F098983A80162E081E00E94AE0D30
:1022C0000E94950E90911F09933011F09730E1F420
:1022D0004AEE52E06DE872E08F2D81700E94630F2C
:1022E00090E080915F2B843009F491E04BEE52E056
:1022F0006DE872E0892F0E94630F85E080935F2B69
:1023000088E080931F0919C080FE17C080E09430D8
:1023100009F481E042EF52E06DE872E00E94630F41
:1023200090E080915F2B863009F491E043EF52E01A
:102330006DE872E0892F0E94630F94E0492E512CC2
:102340004820592082FE93C090911F09963019F4BD
:1023500010921F0903C0992309F07FC090E080917B
:102360005F2B853009F491E040E053E06DE872E0C6
:10237000892F0E94630F24E0F21609F05CC080E010
:102380000E94350649EA50E06DE872E00E94630F52
:102390004AEA50E06DE872E081E00E94630F2898FD
:1023A00086E88EBD0DB407FEFDCF8EB51EBC0DB404
:1023B00007FEFDCFFEB4289A8FE1F82280914409F0
:1023C000982F96959695AF2DA91B8A0F8093440957
:1023D0000091260910912709B80181E00E9416108A
:1023E000B80182E00E94F60F0B571F4FF801F182EF
:1023F0000E94D7066B017C010091260910912709E4
:10240000B80180E00E94F60F00581F4F6C187D083D
:1024100089EF9FEF680E791EC301AA2797FDA0954B
:10242000BA2F8C0D9D1DAE1DBF1DF80180839183B9
:10243000A283B3830EC0609126097091270982E0C0
:102440000E941610609126097091270980E00E9471
:10245000161085E080931F090AC080E0913009F4CE
:1024600081E044E253E06DE872E00E94630F83FE76
:102470004DC080911F09843011F590E080915F2B51
:10248000863009F491E04BE253E06DE872E0892F69
:102490000E94630F85E080935F2B10921F0945E82F
:1024A00050E06EEC72E081E00E94630F80E045280E
:1024B00009F481E042E353E06DE872E025C0853025
:1024C000F1F490E080915F2B853009F491E046E3D0
:1024D00053E06DE872E0892F0E94630F86E00E944E
:1024E00037109091D4098F71292F26952695821B3C
:1024F000980F9093D40989E080931F090FC04EE391
:1025000053E06DE872E080E00E94630F90911F0934
:10251000992309F44EC2993009F0C8C0289880E286
:102520008EBD0DB407FEFDCF8EB51EBC0DB407FEEB
:10253000FDCF8EB5E82EFF241E2D133008F4DEC427
:1025400047E853E06DE872E081E00E94630F8E2D52
:1025500099278E3791050CF0D1C41EBCE091260955
:10256000F0912709E0825E2D5250573010F4952FDC
:1025700001C097E0BF016F5F7F4F492FFB0120E053
:1025800030E00DB407FEFDCF8EB51EBC8083819177
:102590002827022E2295207F2025032E322F2295D8
:1025A0002F700226269532272327220F220F220F73
:1025B0002025415031F79150FB01E90FF11D9F5F3C
:1025C0003196591B952F18C00DB407FEFDCF8EB55F
:1025D0001EBC808381912827022E2295207F2025F2
:1025E000032E322F22952F7002262695322723277D
:1025F000220F220F220F2025915030F70DB407FE35
:10260000FDCF8EB51EBC2827022E2295207F2025C7
:10261000032E322F22952F7002262695322723274C
:10262000220F220F220F20250DB407FEFDCF8EB5FD
:102630001EBC2827022E2295207F2025032E322F14
:1026400022952F700226269532272327220F220F4C
:10265000220F20250DB407FEFDCF8EB5E09126098F
:10266000F0912709EB57FF4F8083289A85E08093EC
:102670005F2B10921F09232B09F097C14091260967
:1026800050912709809128098F5F8093280988231A
:1026900041F48FB7F894992722B131E0232722B96A
:1026A0008FBF509327094093260954C1892F815029
:1026B000833008F0FFC081508230A0F480915F2BFE
:1026C000813081F420E080919A0B882309F421E085
:1026D000222341F02F986BE273E081E00E94AE0F5D
:1026E00082E0D0C0933009F09AC080915F2B833094
:1026F00009F030C10E946310882309F490C090E073
:102700008091A50B882309F491E042E651E06DE841
:1027100072E0892F0E94630F8FE00E943710809132
:10272000810080648093810080E286BB80916F008D
:10273000806280936F001091410980E00E9435060D
:102740004DE950E06DE872E00E94630F4EE950E001
:102750006DE872E081E00E94630F289888EC8EBDDE
:102760000DB407FEFDCF8EB510661EBD0DB407FE7D
:10277000FDCF8EB5289A80E00E9435064DE950E0E5
:102780006DE872E00E94630F4EE950E06DE872E080
:1027900081E00E94630F289882EC8EBD0DB407FE85
:1027A000FDCF8EB586E08EBD0DB407FEFDCF8EB594
:1027B000289A84E080935F2B0E94AF05882309F458
:1027C00063C082EE92E00E94CB0D8CE10E94371034
:1027D00089838E010F5F1F4FA80163E081E00E9493
:1027E000AE0D8DE10E9437108983A80163E081E07E
:1027F0000E94AE0D8EE10E9437108983A80163E02C
:1028000081E00E94AE0D8FE10E9437108983A801FC
:1028100063E081E00E94AE0D0E94950E35C080916C
:102820001F098150823080F580915F2B853061F5E2
:102830000E946310882341F180E00E9435064DE933
:1028400050E06DE872E00E94630F4EE950E06DE8E1
:1028500072E081E00E94630F289882EC8EBD0DB477
:1028600007FEFDCF8EB583E08EBD0DB407FEFDCF14
:102870008EB5289A80916F008F7D80936F001092A3
:10288000A50B83E080935F2B90911F09913049F451
:1028900080915F2B833009F088C02F9A90935F2B33
:1028A00055C0923009F056C080915F2B833009F0FB
:1028B0007CC04CC0973009F04DC046E451E06DE853
:1028C00072E081E00E94630F90915F2B913051F094
:1028D000933041F020E030E0953011F421E030E019
:1028E000C90102C081E090E047E451E06DE872E088
:1028F0000E94630F0E946310882361F110914109C7
:1029000080E00E9435064DE950E06DE872E00E94DB
:10291000630F4EE950E06DE872E081E00E94630FC2
:10292000289888EC8EBD0DB407FEFDCF8EB51066DD
:102930001EBD0DB407FEFDCF8EB5289A80915F2B8A
:10294000853021F484E080935F2B04C088E080937D
:102950001F0904C080911F09883039F510921F09A2
:102960001092C9094EE753E06DE872E081E00E94E1
:10297000630F4FE753E06DE872E081E00E94630F60
:1029800084E08093450990E080919A0B882309F4B4
:1029900091E04AE550E06EEC72E0892F0E94630FEF
:1029A00061E070E080E00E94AE0F80911F098823F3
:1029B00019F48BE00E940E0680919A0B823009F088
:1029C00085C210929A0B8091E109882321F0813011
:1029D00009F07CC232C280913E0990913F098D5C22
:1029E000984F90933F0980933E09DFB6F894209169
:1029F00084003091850080913E0990913F09821BAF
:102A0000930B7C01002711271E141F0410061106CA
:102A10002CF081E0E82EF12C012D112DB70180E082
:102A20000E94AE0F8D2D99278FBF80E0F2E0EF1648
:102A3000F104010511050CF081E04FE650E06EEC69
:102A400072E00E94630F80911D038093460980917C
:102A50009F0B8F5F80939F0B8093470980911F0985
:102A6000882309F0D3C180915F2B853009F0CEC156
:102A70000E946310882309F4C9C18091A50B8823A3
:102A800009F0C4C165E479E081E00E94FC06882376
:102A900011F410E003C01091CB091F7080916D0AF2
:102AA000181701F110936D0A80E00E9435064DE978
:102AB00050E06DE872E00E94630F4EE950E06DE86F
:102AC00072E081E00E94630F289885EC8EBD0DB402
:102AD00007FEFDCF8EB510681EBD0DB407FEFDCFFD
:102AE0008EB5289A80E00E9435064DE950E06DE8E9
:102AF00072E00E94630F4EE950E06DE872E081E001
:102B00000E94630F289882EC8EBD0DB407FEFDCFA6
:102B10008EB589E08EBD0DB407FEFDCF8EB5289A27
:102B20000E94D7066B017C0165E479E083E00E9496
:102B3000FC06882319F48824992409C0809145094A
:102B40008550882E992485E499E0880E991E81E0AD
:102B50000E9437108F71893009F448C080E00E94CC
:102B6000350649EA50E06DE872E00E94630F4AEAD8
:102B700050E06DE872E081E00E94630F289881E8E0
:102B80008EBD0DB407FEFDCF8EB51EBC0DB407FE85
:102B9000FDCF8EB5289A90E08F71813009F491E0D5
:102BA0004BED51E06DE872E0892F0E94630F80E0E9
:102BB0000E9435064DE950E06DE872E00E94630F17
:102BC0004EE950E06DE872E081E00E94630F2898C2
:102BD00082EC8EBD0DB407FEFDCF8EB586E08EBDB6
:102BE0000DB407FEFDCF8EB5289A10C18FB7F894AB
:102BF00099272F9A00918400109185008FBF2F98FC
:102C000090E08091A50B882309F491E04AEE51E011
:102C10006DE872E0892F0E94630F289880E68EBDD0
:102C2000909145090DB407FEFDCF8EB59EBD792F5D
:102C30007250773010F4672F01C067E0E6E4F9E0E6
:102C4000962F21910DB407FEFDCF8EB52EBD91506C
:102C5000C1F76150262E33246F5FA6E4B9E02A0E37
:102C60003B1E0C191D090E551F4F2801662457FCE9
:102C70006094762C4C0C5D1C6E1C7F1C811491049E
:102C8000D9F1F4012081E1808281A3809927AA27CC
:102C9000BB27BA2FA92F982F8827332744275527DA
:102CA000522F442733272227FF240027112787018B
:102CB000FF24EE242E293F29402B512BBB24CC246A
:102CC000DD242A293B294C295D29822B932BA42B17
:102CD000B52B84199509A609B7098383292F3A2FA3
:102CE0004B2F552722839D014427552721838B2F66
:102CF0009927AA27BB278083972F961BF10107C02E
:102D000021810DB407FEFDCF8EB52EBD31969150B9
:102D1000B8F70DB407FEFDCF8EB5289A80E00E946B
:102D200035064DE950E06DE872E00E94630F4EE910
:102D300050E06DE872E081E00E94630F289882EC19
:102D40008EBD0DB407FEFDCF8EB586E08EBD0DB4F1
:102D500007FEFDCF8EB5289A81149104E1F1D401CC
:102D60002C91F401E1808281A3809927AA27BB27B7
:102D7000BA2FA92F982F8827332744275527522F5A
:102D8000442733272227FF24002711278701FF2408
:102D9000EE242E293F29402B512BBB24CC24DD24AB
:102DA0002A293B294C295D29822B932BA42BB52B57
:102DB000840D951DA61DB71D8383292F3A2F4B2FF8
:102DC000552722839D014427552721838B2F99273F
:102DD000AA27BB27808365E479E080E00E94F60F94
:102DE0004092C5095092C6096092C7097092C809FD
:102DF00086E080935F2B84E080931F0980915C2B99
:102E00008F5F80935C2B882379F060C08091DE090E
:102E10008F5F8093DE09882309F058C08FB7F8943C
:102E2000992722B134E005C08FB7F894992722B1D1
:102E300032E0232722B98FBF49C090915F2B923097
:102E400021F483E080935F2B3FC080911F0986307F
:102E5000A1F580E0953009F481E048EC50E06DE8A0
:102E600072E00E94630F10921F0980E00E943506F5
:102E700049EA50E06DE872E00E94630F4AEA50E0D0
:102E80006DE872E081E00E94630F289881E88EBDB2
:102E90000DB407FEFDCF8EB51EBC0DB407FEFDCFF1
:102EA0008EB5289A90E08F71863009F491E04DEC50
:102EB00050E06DE872E0892F05C042ED50E06DE80A
:102EC00072E080E00E94630F0E9484108FB7F89434
:102ED000082F112790914009913009F43CC980E0F6
:102EE000913809F481E048E550E06AEE72E00E9412
:102EF000630F81E0809340090FBF35C9289A85E0B0
:102F000080935F2B10921F0950CD22960FB6F89434
:102F1000DEBF0FBECDBFDF91CF911F910F91FF900C
:102F2000EF90DF90CF90BF90AF909F908F907F9069
:102F30006F905F904F903F902F90089578941F92DC
:102F40000F920FB60F9211242F933F934F935F93DD
:102F50006F937F938F939F93AF93BF93CF93DF93A1
:102F6000EF93FF938091860090918700C091860037
:102F7000D091870090E08091A50B882309F491E01F
:102F800042EB52E06DE872E0892F0E94630F8FB729
:102F9000F8949927D093DA09C093D90921E02093B6
:102FA000A50B8FBF0E948410FF91EF91DF91CF910D
:102FB000BF91AF919F918F917F916F915F914F9151
:102FC0003F912F910F900FBE0F901F9018957894FE
:102FD0001F920F920FB60F9211242F933F934F938E
:102FE0005F936F937F938F939F93AF93BF93EF9371
:102FF000FF9380916F008D7F80936F0078949FB7CF
:10300000F89480919A0B813019F482E080939A0BA6
:10301000892F99278FBF0E948410FF91EF91BF9154
:10302000AF919F918F917F916F915F914F913F9160
:103030002F910F900FBE0F901F901895EF92FF9257
:103040000F931F93863009F4C3C1873090F4823008
:1030500009F469C1833030F4882349F1813009F0E3
:10306000B1C30AC1843009F46DC1853008F08FC145
:103070005EC18A3009F457C28B3038F4883009F4C5
:1030800011C2893008F01CC20AC08C3009F498C201
:103090008C3008F491C38D3009F094C3A5C280919F
:1030A000572B882309F48EC390E011E0D8C18FB765
:1030B000F8941092622B20919C0B40E0283009F488
:1030C00041E030E0293009F431E0442311F43323A6
:1030D00051F010929C0BE091800AFF27EE0FFF1F2A
:1030E000EE51F64F108299278FBF442311F43323FA
:1030F00031F19FB7F8948091562B8F5F8093562BB8
:103100008091DD09833479F420916F0A80916E0AF1
:10311000821779F0822F8F5F80936F0A863048F094
:1031200010926F0A06C0A0E0442309F4A1E071E008
:1031300002C0A0E070E0892F99278FBF06C022232C
:1031400011F0FF246DC0A0E070E08FB7F8949927CC
:1031500020912E038FBF222341F08FB7F894992737
:103160002AE020939C0B8FBF42C08FB7F894992719
:103170006091E2094091E4098FBF8FB7F894282F3E
:10318000332750E090916E0A80916F0A981709F4E6
:1031900051E02FBF552341F5662331F55FB7F89411
:1031A00082E08093E2098FB7F894282F332740E01C
:1031B00090916E0A80916F0A981709F441E02FBF31
:1031C000442311F080E006C0E0916F0AFF27E25926
:1031D000F54F82818093E30983E48093DD091092A7
:1031E000800A852F99270EC04150423010F0FF24ED
:1031F0000CC08FB7F894992725E42093DD0921E0CE
:103200002093800A8FBFE1E0FE2E772349F08FB72D
:10321000F8949927A09337038FBF84E00E940E068D
:103220008FB7F894082F112780919C0B8A3021F4D6
:103230000E9482080FBFC6C20FBFFF2009F4C2C29E
:103240002FB7F89433271092652B1092642B1092AD
:10325000DB0981E080939C0B2FBF0E94D508882357
:1032600009F4B0C28FB7F894992729E020939C0BFA
:103270008FBF0E941408A6C28091C1008F7B8093EB
:10328000C1008091C1008F778093C10010929B0B89
:103290001092D0098091C10088608093C100809114
:1032A000C10080618093C1008091C10080688093DB
:1032B000C1008FB7F894992710929C0B1092CC09FB
:1032C0008FBF4BE450E06EEC72E081E00E94630F30
:1032D00080911F098823D1F480915F2B813049F4BC
:1032E00090E080919A0B882309F491E0992371F082
:1032F00005C0853019F429E030E00AC083E08093EE
:103300001F090E94841020E030E002C025E030E078
:1033100080E0232B09F481E04EE450E06EEC72E093
:103320000E94630F4FC283E00E940E064BC2809141
:10333000C100877F8093C1008091C1008F7E809300
:10334000C10040C210923403109233038FB7F89437
:103350009927409137038FBF80913803811143E053
:10336000209131033091320380913903882309F091
:1033700029C280912903882309F024C26091780A28
:103380007091790A6217730709F01CC296C08FB753
:10339000F894992720913C0330913D0340912909ED
:1033A0008FBF8FB7F894E42FFF27EE0FFF1FE05E6B
:1033B000FC4F3183208320912F03442311F02B7F76
:1033C00001C02D7F20932F0310923A03992745C007
:1033D0008FB7F8949927E0914003F09141038FBF94
:1033E00020818FEF8683858381EB83878091780AA4
:1033F0009091790A892B51F5422F5527F093790A3C
:10340000E093780A418780912903882309F4DAC17F
:10341000838565812681109229037727762F662779
:103420003327622B732B242FAF010E942708992783
:10343000282F882309F4C6C181E0809329031092C4
:10344000790A1092780A222309F4BCC18FB7F89444
:10345000992710924103109240038FBFB3C120916E
:10346000572B812F8223C1F0E92FFF27EE0FFF1F7B
:10347000E858F54F4081518111821082812F80954B
:1034800028232093572B992339F463E0CA010E9423
:10349000D90E110F91E0E3CF9F5F983008F092C1F1
:1034A000110FDDCF80912903E82FFF27EE0FFF1FBB
:1034B000E858F54F6081718141E00E941D0F82C183
:1034C00080913D09882361F520914F2B3091502B3D
:1034D0004091512B5091522BEFB7F894FF276091F8
:1034E0002209709123098091240990912509E09087
:1034F000582BF090592B00915A2B10915B2B6E0D8D
:103500007F1D801F911FEFBF20934F2B3093502BB7
:103510004093512B5093522B10923D090E94FA0771
:103520000E940A073AC00E940A077B018C018FB7EC
:10353000F89499271092D3098FBF8091890A81FF4F
:1035400041C18091810A9091820AA091830AB09131
:10355000840AA8019701281B390B4A0B5B0BDA017F
:10356000C9012091850A3091860A4091870A5091BD
:10357000880A281B390B4A0B5B0B2F3F8FEF38074C
:103580008FEF48078FE7580709F41CC1121613067E
:10359000140615062CF0C801B7010E94330712C1AA
:1035A00020934F2B3093502B4093512B5093522B01
:1035B00081E080933D09C801B7010E94FA0702C16A
:1035C0008FB7F89499271092990B1092980B10923C
:1035D0005E2B10925D2B10922109109220091092FF
:1035E000770A1092760A39CF2FB7F8943327809153
:1035F000420980932C0382E0809342032FBF809185
:103600002C03882309F0DEC0209A289A80915F2B32
:10361000882309F0D5C08EEF91E0019701960197BC
:10362000E1F716982F9886E090E0019701960197B0
:10363000E1F7169A80E00E9435064DE950E06DE80A
:1036400072E00E94630F4EE950E06DE872E081E0A5
:103650000E94630F289883EC8EBD0DB407FEFDCF4A
:103660008EB51EBC0DB407FEFDCF8EB5289A80E046
:103670000E9435064DE950E06DE872E00E94630F4C
:103680004EE950E06DE872E081E00E94630F2898F7
:1036900082EC8EBD0DB407FEFDCF8EB588E08EBDE9
:1036A0000DB407FEFDCF8EB5289A8EEF91E00197FD
:1036B00001960197E1F780E00E9435064DE950E060
:1036C0006DE872E00E94630F4EE950E06DE872E031
:1036D00081E00E94630F28988EEC8EBD0DB407FE2A
:1036E000FDCF8EB58DE48EBD0DB407FEFDCF8EB53A
:1036F000289A80E00E9435064DE950E06DE872E0BE
:103700000E94630F4EE950E06DE872E081E00E9494
:10371000630F289889EC8EBD0DB407FEFDCF8EB5E2
:1037200087EC8EBD0DB407FEFDCF8EB5289A80E0E4
:103730000E9435064DE950E06DE872E00E94630F8B
:103740004EE950E06DE872E081E00E94630F289836
:1037500085EC8EBD0DB407FEFDCF8EB580E88EBD25
:103760000DB407FEFDCF8EB5289A10926D0A8BE03E
:103770008093410980E00E9435064DE950E06DE8F4
:1037800072E00E94630F4EE950E06DE872E081E064
:103790000E94630F289888EC8EBD0DB407FEFDCF04
:1037A0008EB58BE68EBD0DB407FEFDCF8EB5289A83
:1037B0002F9A81E080935F2B80E00E94530602C025
:1037C0000E9484101F910F91FF90EF9008958091B7
:1037D000532B8F3FB1F0282F3327F901E25DF64FCD
:1037E00080818093532B8F3F11F48093632B8FEF55
:1037F00080832F3F31F0822F0E941E1881E090E0DD
:10380000089580E090E00895FF920F931F93FFB614
:10381000F89414BE88E10FB6F8948093600010927B
:1038200060000FBE4EE050E06FEF70E08EE299E076
:103830000E94071E8FEF8093532B8093632B569823
:103840005E9854985C9880916F008F7D80936F0094
:10385000209A289A279A2F980E9A169A86EE99E01F
:1038600090932709809326091092D4098AE58093C2
:10387000440981E08093810080E28093B60083E078
:103880008093B10080918400909185004AE7209157
:103890008400309185002817390708F441504423EB
:1038A00011F0C901F4CF9091B2008091B200891754
:1038B000E1F320918400309185009091B2008091D5
:1038C000B2008917E1F38091840090918500821BFA
:1038D000930B409635E0969587953A95E1F790934E
:1038E000552B8093542B1092B1008091B10080939E
:1038F0008100809181008093B6001092B2001092F6
:103900008500109284008FEF87BB87B386BB8091C0
:10391000B6008571E1F70A9A099A089A129A119AE3
:10392000109A18B88FEF87B90C98149810928500E8
:103930001092840080916F00816080936F0080916D
:103940008100887F826080938100109295001092A0
:10395000940080917100816080937100809191004A
:10396000887F8260809391000E94E71B8823E1F7A3
:103970008FEF8093430980E00E944A0E8091B60049
:1039800080628093B6008091B60081FDFCCF82E01A
:103990008093B0008091B60080FDFCCF83E08093DF
:1039A000B1008091B60083FDFCCF86EE8093B3001A
:1039B000809170008260809370000E946E0712E018
:1039C00006E06091542B7091552B882799272CE0A5
:1039D000660F771F881F991F2A95D1F720E031EED7
:1039E00040E050E00E94DC1D215030402093C40094
:1039F000832F99278093C5001093C0000093C200C5
:103A00001092C1002093CC008093CD001093C80089
:103A10000093CA001092C90084E490E09093A70B31
:103A20008093A60B1092E2091092E4098AE0809339
:103A30009C0B1092DB091092DD091092562B10920C
:103A4000652B1092642B1092622B1092800A1092B8
:103A5000A10B1092A00B84E08093CC0910929E0BD6
:103A600010924E2B1092D20910927D0A10927C0A6D
:103A700010926F0A10926E0A0E94E71B8823E1F7EA
:103A80008F2D99278FBF78948FB7F894282F3327DD
:103A9000922F80919C0B8A3041F08091CC09843028
:103AA00021F02FBF29E030E006C09FBF81E00E94D7
:103AB0000E0620E030E080E0232B09F481E046E4AC
:103AC00050E06EEC72E00E94630F8FB7F894482FBD
:103AD000552757C080917000992783709070892B6B
:103AE00019F4E5E0F0E014C08091B6008A71E1F7C6
:103AF0008091B3009091B200891B8C3038F0809196
:103B0000B200853F18F4E3E0F0E002C0E2E0F0E04C
:103B100080916E00867009F580916F008E72E9F4D5
:103B2000809171008E72C9F40CB407FC16C08091AC
:103B3000C100887191F48091C900887171F48091FD
:103B4000BC0082FD0AC080917A0087FF03C081E03B
:103B500090E005C085E090E002C080E090E023B7EF
:103B60008E1708F4E82FFF27E453FD4FE491207FE0
:103B70002160E22BE3BF78948895F89483B78E7F19
:103B800083BF8091532B8F3F09F4A4CF282F332775
:103B9000F901E25DF64F80818093532B8F3F11F442
:103BA0008093632B8FEF80832F3F09F493CF4FBF18
:103BB000822F0E941E1889CFA1E21A2EAA1BBB1BBE
:103BC000FD010DC0AA1FBB1FEE1FFF1FA217B307E9
:103BD000E407F50720F0A21BB30BE40BF50B661FFF
:103BE000771F881F991F1A9469F7609570958095C3
:103BF00090959B01AC01BD01CF010895FB01DC0153
:103C000002C001900D9241505040D8F70895DC0158
:0E3C100001C06D9341505040E0F70895FFCF82
:103C1E00446961674D73674F766572666C6F7700A6
:103C2E00617373657274002F6F70742F74696E797F
:103C3E006F732D322E312E322F746F732F6C69628B
:103C4E002F7266786C696E6B2F7574696C2F52616A
:103C5E0064696F416C61726D502E6E63002F6F70D0
:103C6E00742F74696E796F732D322E312E322F743C
:103C7E006F732F6C69622F7266786C696E6B2F6C26
:103C8E0061796572732F4D65746164617461466C00
:103C9E006167734C61796572432E6E63002F6F708E
:103CAE00742F74696E796F732D322E312E322F74FC
:103CBE006F732F63686970732F72663233302F52B1
:103CCE00463233304472697665724C617965725052
:103CDE002E6E630061737365727420757200546585
:103CEE007374526164696F447269766572502E6E98
:103CFE006300706172746E756D002F6F70742F7427
:103D0E00696E796F732D322E312E322F746F732FA1
:103D1E006C69622F7266786C696E6B2F7574696C44
:103D2E002F5461736B6C6574432E6E63000100FF3C
:0E3D3E008A0A110B8A0A01AA0B01FFFFFF007F
:00000001FF
