:100000000C9469000C9488000C9488000C9488006F
:100010000C9488000C9488000C9488000C94880040
:100020000C9488000C9488000C9488000C94880030
:100030000C9488000C9488000C9488000C94880020
:100040000C9488000C9488000C9488000C94880010
:100050000C9488000C9488000C9488000C94880000
:100060000C9488000C9488000C9488000C948800F0
:100070000C9488000C9438080C9488000C94950714
:100080000C943E070C947F070C948A070C94A807E5
:100090000C9488000C9488000C9488000C948800C0
:1000A0000C9488000C9488000C9488000C948800B0
:1000B0000C9488000C9488000C9488000C948800A0
:1000C0000C9488000C9488000C94880000020E06A2
:1000D0000C0411241FBECFEFD1E2DEBFCDBF12E072
:1000E000A0E0B2E0E6E2F8E100E00BBF02C007905A
:1000F0000D92A230B107D9F718E0A2E0B2E001C03A
:100100001D92AE3DB107E1F70E94950A0C94120CC6
:100110000C940000FC0120E030E007C08281938154
:10012000280F391F0480F581E02D3097B9F7C901F8
:100130000895FB0151834083338322839583848315
:100140000895CF92DF92EF92FF920F931F93CF9378
:10015000DF938C01FB017A01690105C0E81BF90BF3
:10016000E8010C811D81E8018A819B81E817F9076C
:10017000A8F71CC0E8018A819B818E1B9F0BE701B9
:100180008E159F0508F4EC01D8018D919C91AE016C
:10019000B6018E0F9F1F0E94020CCC0EDD1EEC1AC2
:1001A000FD0AE8010C811D81E0E0F0E00115110578
:1001B00019F01E141F04F4F280E090E0DF91CF915B
:1001C0001F910F91FF90EF90DF90CF9008954F9285
:1001D0005F926F927F928F929F92AF92BF92CF92D7
:1001E000DF92EF92FF920F931F93CF93DF938C01D7
:1001F0004B015A013901CC24DD2404C06C01F80103
:10020000048115810115110519F44424552436C0C3
:10021000F801828193818C0D9D1D8816990670F7D7
:100220004424552428C07401EC18FD08F80182818B
:1002300093818E199F09E5018A159B0508F4EC014D
:10024000F801608171816E0D7F1DAE01C3010E94B6
:10025000020C4C0E5D1EF80104811581011511057B
:1002600069F0CE0CDF1CCC0EDD1E8C0E9D1EAC1A70
:10027000BD0A6C0E7D1E1A141B04ACF2C201DF9184
:10028000CF911F910F91FF90EF90DF90CF90BF9093
:10029000AF909F908F907F906F905F904F90089558
:1002A000EF92FF920F931F93CF93DF93FC0120E017
:1002B00030E040E050E0A0E0B0E02EC06281738109
:1002C0006115710531F1C081D18100E010E01EC0DF
:1002D000888100FD0BC09927982F8827A82BB92B60
:1002E000C80101968617970771F403C09927A82BB8
:1002F000B92B7D01C701AA27BB27280F391F4A1F29
:100300005B1FA0E0B0E00F5F1F4F21960617170795
:10031000F9F60480F581E02D309781F60BC0DA0103
:10032000C901A070B0709A0144275527280F391FC2
:100330004A1F5B1F203080E0380781E0480780E0DB
:10034000580768F7C90180959095DF91CF911F916B
:100350000F91FF90EF900895EF92FF920F931F93EC
:10036000CF93DF93CDB7DEB76A970FB6F894DEBFB1
:100370000FBECDBFE42E08969A87898740E150E0F2
:100380005C874B879E01215F3F4F3E872D874096BC
:10039000988B8F875A8B498BCE0145969C8B8B8B84
:1003A000CE0101969E8B8D8B88E090E0988F8F8B8D
:1003B0007A8F698FCB010E948A00AA2797FDA095AA
:1003C000BA2FBC01CD010E94530369837A838B83CA
:1003D0009C83FF2400271127C801B7010E94530303
:1003E0006D837E838F839887CE0109960E9450018A
:1003F0006A960FB6F894DEBF0FBECDBFDF91CF91E6
:100400001F910F91FF90EF9008958CED95E09093E0
:100410000502809304020895A4E0B2E004969C01D2
:1004200021703070280F391F02C0A40FB51F8D91A5
:100430009C911197AC015F704217530710F097FF22
:1004400006C0CD01845092408C5D954074F387E0E6
:10045000A03EB80718F080E090E00895C901029727
:100460009C013F70306811963C932E93FD01E80F7C
:10047000F91F481B590B5F7051834083CD010296D1
:100480000895CF93DF939C01E4E0F2E0C0E0D0E078
:1004900006C0808191819F70EF01E80FF91FCF01A5
:1004A00002968217930739F0CF01845092408C5DF9
:1004B00095407CF327C0808191819C013F70DF01D2
:1004C000A20FB31F9F7791838083CD018450924008
:1004D0008C5D95404CF48D919C9197FD05C09F706B
:1004E000280F391F31832083209761F028813981BB
:1004F00037FD08C03F70808191819F70280F391FA0
:1005000039832883DF91CF910895E4E0F2E040E061
:1005100050E00BC02081318137FD04C0C9019F70BC
:10052000480F591F3F70E20FF31FCF0184509240D4
:100530008C5D95407CF3CA0108956F927F928F92F3
:100540009F92AF92BF92CF92DF92EF92FF920F9362
:100550001F93CF93DF93FB015A018B01040F151FEB
:10056000DC01CC24DD2440E050E07AE398EF692EF2
:100570009FEF792E600E711E6E167F0608F460C024
:10058000ED01E980FC9024E030E08FEF882E982E7A
:10059000CCE0D0E0C401022E02C0969587950A9463
:1005A000E2F78E159F0530F042305105B1F420314D
:1005B000310599F4C7010C2E02C0969587950A94CF
:1005C000E2F7682F6F708F7090700A9718F4862F7B
:1005D000805D02C0862F895A81932C5F3F4F2497FC
:1005E00024313105B9F68D919C911197892B21F514
:1005F0004115510559F471938D919C911197892B57
:1006000019F441E050E002C042E050E087E0C81633
:10061000D10424F44130510509F071930894C11CB0
:10062000D11C129688E0C816D10409F0A5CF41303C
:10063000510531F4719304C04130510539F7E4CFCD
:1006400011920A191B09CF01801B910BDF91CF91E9
:100650001F910F91FF90EF90DF90CF90BF90AF90E0
:100660009F908F907F906F900895DC018C918370A4
:10067000823021F4FD012181328113C0833019F0D1
:1006800020E030E00EC0FD01319620E030E0AD0109
:10069000475F5F4F81919191280F391FE417F5074C
:1006A000C9F7C9010895EF92FF920F931F93FB01C1
:1006B000BC01882799272F2F3E2F44275527A901B2
:1006C00033272227E72EF62E002711272E293F2930
:1006D000402B512BCA01B9011F910F91FF90EF9050
:1006E00008959C01DB01FC0104C08D918193415070
:1006F000504041155105C9F7C90108958F929F9245
:10070000AF92BF92CF92DF92EF92FF920F931F931F
:10071000CF93DF936C014B01892B09F4A3C06115C2
:10072000710509F49FC080E1EB0119928A95E9F700
:10073000D60160E070E090E046C02A3301F1822FDC
:1007400080538A3030F4332727FD309520533040D2
:100750000EC0422F552747FD50952154263020F4D6
:100760009A012753304003C09A012755304044E096
:10077000660F771F4A95E1F7622B732B0DC0E92FA7
:10078000FF27EE0FFF1FE80DF91D072F162F11830E
:1007900000839F5F60E070E0FD013196ED012981EB
:1007A000222359F4E92FFF27EE0FFF1FE80DF91D53
:1007B000E72EF62EF182E08255C08C918A3311F437
:1007C0002A3341F0DF012C91222309F0B6CFFD013D
:1007D00001C0319680818823E1F7DF01119760E045
:1007E00070E017E090E03BC02C912A3311F1822F8A
:1007F00080538A3030F4332727FD30952053304022
:100800000EC0422F552747FD50952154263020F425
:100810009A012753304003C09A0127553040092ED2
:1008200002C0220F331F0A94E2F7622B732B9C5FE6
:100830000EC0E12FFF27EE0FFF1FE80DF91DA72EB9
:10084000B62EB182A082115060E070E090E0119766
:10085000FD0181818A3319F48C918A3319F0CA160B
:10086000DB0610F2DF91CF911F910F91FF90EF9077
:10087000DF90CF90BF90AF909F908F900895FC0134
:100880007183608353834283358324830895CF9299
:10089000DF92EF92FF920F931F93CF93DF938C0120
:1008A0006B01EE24FF241AC0F80182819381E89E37
:1008B000E001E99ED00DF89ED00D11248081918138
:1008C000C80FD91FCE01F6010995FFEF8F3F9F0793
:1008D00059F0019759F00894E11CF11CF80184814A
:1008E0009581E816F90600F3C0E0D0E0CE01DF9173
:1008F000CF911F910F91FF90EF90DF90CF900895CF
:10090000EF92FF920F931F93CF93DF93EC017B0144
:1009100000E010E012C08A819B819C01029FC0010F
:10092000039F900D129F900D112428813981820F11
:10093000931FF70109950F5F1F4F8C819D81081749
:10094000190748F3DF91CF911F910F91FF90EF901E
:1009500008958FB7F894992708958FBF0895982F19
:10096000969596959695ECEFF7E0E90FF11D877057
:1009700021E030E002C0220F331F8A95E2F7808128
:10098000822399270895282F9FB7F894E82FFF27EF
:10099000EC51F84F80818F3F81F4E091DC08E21741
:1009A00071F40BC02093D00804C0FF27EC51F84F1E
:1009B00020832093DC0820E007C025E005C080915B
:1009C000D0088F3F91F7EECF892F99278FBF822FC5
:1009D00099270895F82F722FAFB7F8948091E907FF
:1009E0008E7F8093E90780917C00E82FEF71262F9E
:1009F000332782958695869583709927281739071E
:100A000019F020E030E00DC050E02F2F33278E2F5B
:100A100099272817390709F051E081E05827252F39
:100A20003327522F5170252F220F8091E9078178AB
:100A30003F2F3F71932F990F990F822B892B809312
:100A4000E90741704295440F407E40726295660FFF
:100A5000660F607C432B462B842F992780937C0064
:100A6000783061F58091D1089091D20821E08638E4
:100A7000920718F027E030E020C0833C910518F081
:100A800026E030E01AC08136910518F025E030E00C
:100A900014C08033910518F024E030E00EC0883196
:100AA000910518F023E030E008C08C30910518F073
:100AB00022E030E002C020E030E0722F7770887DC5
:100AC000872B886D992780937A008A2F99278FBF6B
:100AD000852F9927089580910102882319F08FE1CD
:100AE00020E002C028E08EE140E060E00E94EA04DD
:100AF00008958091D508882311F0813011F428E001
:100B000008C0882329F0813019F08FE120E002C06D
:100B100020E08EE140E060E00E94EA0408950F9337
:100B20001F93CF93DF93182F8FB7F894282F332775
:100B3000022F80910302882361F581E080930302F4
:100B40001093CD082FBF2FB7F894332780917A00E8
:100B5000806880937A002FBF8FB7F894C82FDD2765
:100B60002C2F909100029330C1F4809103028130C8
:100B700021F480E00E94C30408C0823071F48091A7
:100B8000CD088093000290930302CFBF80E090E0F5
:100B900023C08091CD08811711F42FBFF7CF812F8B
:100BA0000E94AF04882319F085E090E014C0E12F83
:100BB000E695E695E695FF27E450F84F177081E03B
:100BC00090E002C0880F991F1A95E2F72081282B28
:100BD000208380E090E00FBFDF91CF911F910F91B4
:100BE00008958FB7F8946091FA077091FB072091F0
:100BF000940030919500C09B06C06F5F7F4F20919D
:100C000094003091950099278FBF88279927CB01B1
:100C10007727662744275527622B732B842B952B28
:100C20000895EF92FF920F931F930E94F1057B01AD
:100C30008C012091F5073091F6074091F70750910C
:100C4000F8078091F1079091F207A091F307B09116
:100C5000F407820F931FA41FB51FE216F3060407C3
:100C6000150730F082179307A407B50758F005C0A1
:100C700082179307A407B507E0F5E816F9060A07F7
:100C80001B07B8F59C01AD012E193F09400B510B14
:100C9000213060E8360760E0460760E0560768F1FB
:100CA00080E090E8A0E0B0E0E80EF91E0A1F1B1FEC
:100CB000E092F507F092F6070093F7071093F80714
:100CC00080E090E8AFEFBFEFE80EF91E0A1F1B1F90
:100CD00020503048404050402093F1073093F207B5
:100CE0004093F3075093F40720E030E840E050E0F1
:100CF00014C020E030E040E050E08093F50790938E
:100D0000F607A093F707B093F8071092F107109237
:100D1000F2071092F3071092F407A901B70120918E
:100D2000940030919500C9018E199F098C599F4FED
:100D30008417950720F0B9016C597F4F02C0640FEA
:100D4000751F6115710511F461E070E0615070402C
:100D5000709399006093980082E088BB8091710045
:100D60008260809371001F910F91FF90EF90089522
:100D70000F931F930FB7F89411276093F5077093A3
:100D8000F6078093F7079093F8072093F1073093C5
:100D9000F2074093F3075093F4070E9411060FBF28
:100DA0001F910F9108951F93CF93DF931FB7F8946E
:100DB00080910102E82FFF27EE0FFF1F9F012E51A8
:100DC000384FE901A881B981109741F4ED52F74FEE
:100DD0001182108282E00E94C30449C0ED018A8121
:100DE0009B81E90199838883892B21F4ED52F74F88
:100DF000318320838D919C9111979093CC0880939F
:100E0000CB08B093CF08A093CE08B093E107A0938E
:100E1000E0072091FD073091FE074091FF075091B8
:100E200000086091D8087091D9088091DA089091F3
:100E3000DB080E94B8068091D8089091D908A0914B
:100E4000DA08B091DB082091FD073091FE07409150
:100E5000FF0750910008820F931FA41FB51F8093B6
:100E6000D8089093D908A093DA08B093DB08812FB3
:100E700099278FBFDF91CF911F91089578941F928A
:100E80000F920FB60F9211241F932F933F934F93FE
:100E90005F936F937F938F939F93AF93BF93EF93E2
:100EA000FF93809171008D7F8093710078941FB7BC
:100EB000F8948091F1079091F207A091F307B09117
:100EC000F4070097A105B10519F40E946B0502C053
:100ED0000E941106812F99278FBFFF91EF91BF913B
:100EE000AF919F918F917F916F915F914F913F91C2
:100EF0002F911F910F900FBE0F901F90189578940F
:100F00001F920F920FB60F9211240F900FBE0F90E9
:100F10001F90189578941F920F920FB60F9211247C
:100F20000F900FBE0F901F90189578941F920F92FC
:100F30000FB60F9211248F939F93809196009091FA
:100F400097009F918F910F900FBE0F901F90189553
:100F500078941F920F920FB60F9211242F933F9304
:100F60008F939F932FB7F89433278091FA0790912E
:100F7000FB0701969093FB078093FA072FBF9F9181
:100F80008F913F912F910F900FBE0F901F9018954A
:100F9000EF92FF920F931F93CF93DF93982F8FB70A
:100FA000F894E82E80910302833009F045C08091C7
:100FB0000002891709F040C08091FC07882309F0DE
:100FC0004AC03EC0EF2DE695E695E695FF274F2DEA
:100FD0005527E450F84F9A012770307081E090E077
:100FE00002C0880F991F2A95E2F780952081282357
:100FF0002083C093020211C02196C330D10511F4A1
:10100000C0E0D0E0FC2E8C2F0E94AF048823D1F6E4
:10101000C017D10789F74FEF50E04093CD088FEF0D
:101020008093000281E08093030280E00E94C30469
:10103000EFBE80E090E015C0EFBE81E090E011C00F
:1010400083E0809300021092030280917A008F77F0
:1010500080937A00EDCF80910202082F1127E801DA
:10106000CBCFDF91CF911F910F91FF90EF9008951B
:101070001F920F920FB60F921124EF92FF921F93BF
:101080002F933F934F935F936F937F938F939F9390
:10109000AF93BF93CF93DF93EF93FF93E0907800EC
:1010A000F090790078948FB7F89499272091E90708
:1010B000122F1695117021708FBF222309F0B8C02E
:1010C00080917A00877F80937A008091010281303D
:1010D00009F487C08091CB089091CC08892B59F4F2
:1010E0000E94F1056093D8087093D9088093DA08BC
:1010F0009093DB0845C0E091E007F091E107E192B1
:10110000F192F093E107E093E0078091CB08909192
:10111000CC08880F991F2091CE083091CF08820FFC
:10112000931FE817F90779F58FB7F894C82FDD27D3
:101130008091EF079091F007892B71F0E091010207
:10114000FF27EE0FFF1FED52F74F1182108283E051
:101150000E94C304CFBF45C08091CB089091CC08BA
:101160009093D7088093D6088091CE089091CF08AD
:101170009093F0078093EF07CFBF84E00E94C304F1
:101180000E94D3062EC02091FD073091FE074091AA
:10119000FF07509100086091D8087091D90880919C
:1011A000DA089091DB080E94B8068091D8089091E7
:1011B000D908A091DA08B091DB082091FD073091A1
:1011C000FE074091FF0750910008820F931FA41F54
:1011D000B51F8093D8089093D908A093DA08B093EC
:1011E000DB088091F907813021F0823009F04AC094
:1011F0000AC0112351F0F092CA08E092C90881E0B8
:101200000E94C3043FC0112349F48DE790E0019789
:1012100001960197E1F70E94790534C01092F90711
:101220008091D508813071F511980E94C8072AC0B5
:101230008FB7F89499278FBF2FB7F89433278091F1
:101240007A00582F5770482F4072987D942B952B19
:101250008074977B982B90619F77892F9927809333
:101260007A00887D842B852B8773806199278093F2
:101270007A00887D842B852B877B806999278093D2
:101280007A002FBFFF91EF91DF91CF91BF91AF9186
:101290009F918F917F916F915F914F913F912F918E
:1012A0001F91FF90EF900F900FBE0F901F90189519
:1012B0006F927F928F929F92AF92BF92CF92DF9266
:1012C000EF92FF920F931F93823009F498C08330FE
:1012D00030F4882359F0813009F0FDC085C0833097
:1012E00009F4B1C0843009F0F6C0E6C08FB7F894B5
:1012F00099272091CD082093000223E02093030238
:101300008FBF90910002913061F0913020F09230C7
:1013100009F0E1C00EC081E08093F9071092D50872
:1013200005C082E08093F9079093D5080E94790563
:10133000D2C0E090EA07F090EB070091EC07109123
:10134000ED071092E1071092E0071092CF0810927B
:10135000CE081092CC081092CB08A090D108B09083
:10136000D208CC24DD248AE790E0A0E0B0E0E80ECB
:10137000F91E0A1F1B1FC801B70124EF30E040E02F
:1013800050E00E94E00B3B014C01C801B70124EF83
:1013900030E040E050E00E94E00BCA01B901A60134
:1013A00095010E94C10B7B018C01C401B3010E9415
:1013B000C10B66587F4F8F4F9F4F24EF30E040E0C6
:1013C00050E00E94E00BE20EF31E041F151FE09296
:1013D000FD07F092FE070093FF071093000810929C
:1013E00001020E946B0577C01092F9078091D50821
:1013F000882309F070C00E94C80712986CC0209121
:1014000001028FB7F8949927E22FFF27EE0FFF1FF5
:10141000DF01AE51B84F11961C921E92ED52F74F5C
:10142000B183A0838FBF81E080930102222309F062
:1014300052C082E00E94C8078091DD08882309F429
:101440004AC0109848C0409101028FB7F89499277C
:10145000A42FBB27FD01EE0FFF1FEE51F84F0190A7
:10146000F081E02D8FBF81E007C0442311F4809309
:10147000DD080280F381E02D3097B9F72FB7F8949B
:101480003327AA0FBB1FFD01EE51F84F11821082C6
:10149000AD52B74F842F9927880F991F8E51984FBF
:1014A0008D939C932FBF81E080930102442399F494
:1014B00082E00E94C8070FC08FB7F8949927109256
:1014C000F0071092EF078FBF80910102882319F473
:1014D00081E08093DD081F910F91FF90EF90DF90E6
:1014E000CF90BF90AF909F908F907F906F90089516
:1014F0008091D0088F3FB1F0282F3327F901EC51AC
:10150000F84F80818093D0088F3F11F48093DC08DE
:101510008FEF80832F3F31F0822F0E94580981E0A6
:1015200090E0089580E090E008951F931FB7F8942D
:1015300014BE88E10FB6F8948093600010926000AA
:101540000FBE45E050E06FEF70E084EE97E00E9440
:101550000B0C8FEF8093D0088093DC0881E08093A0
:10156000810080E28093B60083E08093B100809197
:101570008400909185004AE7209184003091850095
:101580002817390708F44150442311F0C901F4CF5A
:101590009091B2008091B2008917E1F3209184000C
:1015A000309185009091B2008091B2008917E1F3EB
:1015B0008091840090918500821B930B409625E0DA
:1015C000969587952A95E1F79093D2088093D10854
:1015D0001092B1008091B1008093810080918100D0
:1015E0008093B6001092B200109285001092840091
:1015F0008FEF87BB87B386BB8091B6008571E1F71B
:101600000A9A099A089A129A119A109A18B88FEFA2
:1016100087B90C98149810929500109294008091BC
:10162000710081608093710080919100887F826059
:101630008093910010927A000E94780A8823E1F743
:1016400082EE97E09093D4088093D3081092FC0721
:101650000E94780A8823E1F7812F99278FBF789419
:101660001092DD0880E00E948F058FB7F894482F14
:101670005527E091D308F091D4083097A1F021E0EC
:1016800038E084E690E0909302088093010810927D
:10169000040810920308318320832E5F3F4F30935C
:1016A000D4082093D3084FBF82E00E948F0588237F
:1016B00061F480E197E2A0E0B0E08093EA079093C4
:1016C000EB07A093EC07B093ED0781E00E948F0534
:1016D0008FB7F894482F552739C080916E008670D7
:1016E00009F580916F008E72E9F4809171008E721D
:1016F000C9F40CB407FC16C08091C100887191F444
:101700008091C900887171F48091BC0082FD0AC08B
:1017100080917A0087FF03C0E1E0F0E005C0E5E0DA
:10172000F0E002C0E0E0F0E083B7E63008F0E5E08A
:10173000FF27E453FF4FE491807F8160E82BE3BFF4
:1017400078948895F89483B78E7F83BF8091D00872
:101750008F3F09F4C2CF282F3327F901EC51F84FFE
:1017600080818093D0088F3F11F48093DC088FEF45
:1017700080832F3F09F4B1CF4FBF822F0E945809B9
:10178000A7CF629FD001739FF001829FE00DF11DF2
:10179000649FE00DF11D929FF00D839FF00D749FEB
:1017A000F00D659FF00D9927729FB00DE11DF91F97
:1017B000639FB00DE11DF91FBD01CF0111240895F4
:1017C000A1E21A2EAA1BBB1BFD010DC0AA1FBB1F45
:1017D000EE1FFF1FA217B307E407F50720F0A21BB7
:1017E000B30BE40BF50B661F771F881F991F1A9424
:1017F00069F760957095809590959B01AC01BD014E
:10180000CF010895FB01DC0102C001900D9241500F
:101810005040D8F70895DC0101C06D93415050400D
:06182000E0F70895FFCF80
:021826000301BC
:00000001FF
