:100000000C947C000C949B000C949B000C949B0023
:100010000C949B000C949B000C949B000C949B00F4
:100020000C949B000C949B000C949B000C949B00E4
:100030000C949B000C94AC0D0C949B000C94660BE0
:100040000C943E1B0C94741B0C941D0C0C94280CEB
:100050000C94330C0C949B000C949B000C949B0010
:100060000C947A0B0C949B000C949B000C949B00BA
:100070000C949B000C949B000C949B000C94790DA9
:100080000C94610C0C94630D0C946E0D0C948C0DFF
:100090000C949B000C949B000C949B000C949B0074
:1000A0000C949B000C949B000C949B000C949B0064
:1000B0000C949B000C949B000C949B000C949B0054
:1000C0000C949B000C949B000C949B008920812035
:1000D000252238227A223B236E23C623BF24D12433
:1000E0003D254025E8254B256025EF253E26C726E2
:1000F000622700020E060C0411241FBECFEFD1E2CE
:10010000DEBFCDBF17E0A0E0B2E0E2E6F7E500E039
:100110000BBF02C007900D92AC38B107D9F713E1BD
:10012000ACE8B7E001C01D92AE3BB107E1F70E9419
:10013000F3270C94B02B0C940000FC0120E030E07D
:1001400007C082819381280F391F0480F581E02D3B
:100150003097B9F7C9010895FB0151834083338378
:100160002283958384830895CF92DF92EF92FF924A
:100170000F931F93CF93DF938C01FB017A016901E9
:1001800005C0E81BF90BE8010C811D81E8018A819B
:100190009B81E817F907A8F71CC0E8018A819B81B9
:1001A0008E1B9F0BE7018E159F0508F4EC01D8010B
:1001B0008D919C91AE01B6018E0F9F1F0E94A02BC6
:1001C000CC0EDD1EEC1AFD0AE8010C811D81E0E079
:1001D000F0E00115110519F01E141F04F4F280E07F
:1001E00090E0DF91CF911F910F91FF90EF90DF9002
:1001F000CF9008954F925F926F927F928F929F92CD
:10020000AF92BF92CF92DF92EF92FF920F931F9324
:10021000CF93DF938C014B015A013901CC24DD24AB
:1002200004C06C01F801048115810115110519F450
:100230004424552436C0F801828193818C0D9D1D84
:100240008816990670F74424552428C07401EC18C8
:10025000FD08F801828193818E199F09E5018A15B5
:100260009B0508F4EC01F801608171816E0D7F1D22
:10027000AE01C3010E94A02B4C0E5D1EF80104814B
:1002800015810115110569F0CE0CDF1CCC0EDD1EA9
:100290008C0E9D1EAC1ABD0A6C0E7D1E1A141B041A
:1002A000ACF2C201DF91CF911F910F91FF90EF90BF
:1002B000DF90CF90BF90AF909F908F907F906F9086
:1002C0005F904F900895EF92FF920F931F93CF93FB
:1002D000DF93FC0120E030E040E050E0A0E0B0E03F
:1002E0002EC0628173816115710531F1C081D181A8
:1002F00000E010E01EC0888100FD0BC09927982FF8
:100300008827A82BB92BC80101968617970771F487
:1003100003C09927A82BB92B7D01C701AA27BB27AA
:10032000280F391F4A1F5B1FA0E0B0E00F5F1F4F6F
:10033000219606171707F9F60480F581E02D30970E
:1003400081F60BC0DA01C901A070B0709A01442790
:100350005527280F391F4A1F5B1F203080E03807C0
:1003600081E0480780E0580768F7C90180959095BB
:10037000DF91CF911F910F91FF90EF900895EF9231
:10038000FF920F931F93CF93DF93CDB7DEB76A979A
:100390000FB6F894DEBF0FBECDBFE42E08969A8745
:1003A000898740E150E05C874B879E01215F3F4F8A
:1003B0003E872D874096988B8F875A8B498BCE012D
:1003C00045969C8B8B8BCE0101969E8B8D8B88E006
:1003D00090E0988F8F8B7A8F698FCB010E949D0060
:1003E000AA2797FDA095BA2FBC01CD010E946603F4
:1003F00069837A838B839C83FF2400271127C8019C
:10040000B7010E9466036D837E838F839887CE0138
:1004100009960E9463016A960FB6F894DEBF0FBE7C
:10042000CDBFDF91CF911F910F91FF90EF90089575
:100430008CED95E090939207809391070895A1E940
:10044000B7E004969C0121703070280F391F02C05C
:10045000A40FB51F8D919C911197AC015F7042174D
:10046000530710F097FF06C0CD01815997408C5D6E
:10047000954074F38DE0AD36B80718F080E090E059
:100480000895C90102979C013F70306811963C9312
:100490002E93FD01E80FF91F481B590B5F70518324
:1004A0004083CD0102960895CF93DF939C01E1E94B
:1004B000F7E0C0E0D0E006C0808191819F70EF013D
:1004C000E80FF91FCF0102968217930739F0CF0189
:1004D000815997408C5D95407CF327C08081918144
:1004E0009C013F70DF01A20FB31F9F779183808330
:1004F000CD01815997408C5D95404CF48D919C9134
:1005000097FD05C09F70280F391F318320832097E6
:1005100061F02881398137FD08C03F708081918169
:100520009F70280F391F39832883DF91CF91089559
:10053000E1E9F7E040E050E00BC02081318137FD78
:1005400004C0C9019F70480F591F3F70E20FF31F8D
:10055000CF01815997408C5D95407CF3CA01089585
:100560006F927F928F929F92AF92BF92CF92DF92C3
:10057000EF92FF920F931F93CF93DF93FB015A01EA
:100580008B01040F151FDC01CC24DD2440E050E07A
:100590007AE398EF692E9FEF792E600E711E6E162A
:1005A0007F0608F460C0ED01E980FC9024E030E0B3
:1005B0008FEF882E982ECCE0D0E0C401022E02C02E
:1005C000969587950A94E2F78E159F0530F0423094
:1005D0005105B1F42031310599F4C7010C2E02C048
:1005E000969587950A94E2F7682F6F708F709070D8
:1005F0000A9718F4862F805D02C0862F895A81934E
:100600002C5F3F4F249724313105B9F68D919C9191
:100610001197892B21F54115510559F471938D914D
:100620009C911197892B19F441E050E002C042E0FF
:1006300050E087E0C816D10424F44130510509F098
:1006400071930894C11CD11C129688E0C816D1047D
:1006500009F0A5CF4130510531F4719304C0413008
:10066000510539F7E4CF11920A191B09CF01801BFC
:10067000910BDF91CF911F910F91FF90EF90DF9041
:10068000CF90BF90AF909F908F907F906F90089584
:10069000DC018C918370823021F4FD012181328153
:1006A00013C0833019F020E030E00EC0FD01319618
:1006B00020E030E0AD01475F5F4F81919191280FBD
:1006C000391FE417F507C9F7C9010895EF92FF92A2
:1006D0000F931F93FB01BC01882799272F2F3E2FD3
:1006E00044275527A90133272227E72EF62E002776
:1006F00011272E293F29402B512BCA01B9011F91E7
:100700000F91FF90EF9008959C01DB01FC0104C064
:100710008D9181934150504041155105C9F7C90150
:1007200008958F929F92AF92BF92CF92DF92EF92F5
:10073000FF920F931F93CF93DF936C014B01892B93
:1007400009F4A3C06115710509F49FC080E1EB01B4
:1007500019928A95E9F7D60160E070E090E046C012
:100760002A3301F1822F80538A3030F4332727FD5A
:100770003095205330400EC0422F552747FD5095ED
:100780002154263020F49A012753304003C09A01A7
:100790002755304044E0660F771F4A95E1F7622BFA
:1007A000732B0DC0E92FFF27EE0FFF1FE80DF91D7A
:1007B000072F162F118300839F5F60E070E0FD011B
:1007C0003196ED012981222359F4E92FFF27EE0FFD
:1007D000FF1FE80DF91DE72EF62EF182E08255C0CD
:1007E0008C918A3311F42A3341F0DF012C912223BA
:1007F00009F0B6CFFD0101C0319680818823E1F771
:10080000DF01119760E070E017E090E03BC02C91B1
:100810002A3311F1822F80538A3030F4332727FD99
:100820003095205330400EC0422F552747FD50953C
:100830002154263020F49A012753304003C09A01F6
:1008400027553040092E02C0220F331F0A94E2F7C9
:10085000622B732B9C5F0EC0E12FFF27EE0FFF1F53
:10086000E80DF91DA72EB62EB182A082115060E0CE
:1008700070E090E01197FD0181818A3319F48C9129
:100880008A3319F0CA16DB0610F2DF91CF911F915F
:100890000F91FF90EF90DF90CF90BF90AF909F901F
:1008A0008F900895FC017183608353834283358365
:1008B00024830895CF92DF92EF92FF920F931F93BC
:1008C000CF93DF938C016B01EE24FF241AC0F80153
:1008D00082819381E89EE001E99ED00DF89ED00DC3
:1008E000112480819181C80FD91FCE01F60109958D
:1008F000FFEF8F3F9F0759F0019759F00894E11CD3
:10090000F11CF80184819581E816F90600F3C0E036
:10091000D0E0CE01DF91CF911F910F91FF90EF902A
:10092000DF90CF900895EF92FF920F931F93CF9394
:10093000DF93EC017B0100E010E012C08A819B8113
:100940009C01029FC001039F900D129F900D1124E6
:1009500028813981820F931FF70109950F5F1F4F7F
:100960008C819D810817190748F3DF91CF911F9162
:100970000F91FF90EF9008958FB7F89499270895FD
:100980008FBF0895613718F080E090E008950C96CD
:100990000895FC0181819927807390708164986823
:1009A0008183892F99278283089580589F4F0895C6
:1009B0000B960895FC01E458FF4F808191810895C2
:1009C000CF93DF93FC01DC0111962181662351F066
:1009D000ED0189819927982F882733272062822B60
:1009E000932B09C0ED0189819927982F88273327F8
:1009F000822B932B8F7D8183892F99278983DF9188
:100A0000CF910895282F9FB7F894E82FFF27EF5331
:100A1000F24F80818F3F81F4E091B613E21771F4B9
:100A20000BC020937D1104C0FF27EF53F24F2083AA
:100A30002093B61320E007C025E005C080917D110A
:100A40008F3F91F7EECF892F99278FBF822F99275C
:100A500008951F93982F1FB7F89480918C078230C8
:100A600099F580918507891779F58091830720E0B2
:100A700030E08F3F11F421E030E0232BF1F49FEFC1
:100A8000909385078F3F19F42FEF30E00DC0282F8A
:100A90003327F901E352F24F8081809383078F3F20
:100AA00011F49093840790832093D70D81E0809375
:100AB0008C0783E00E94020505C08FEF80938507B5
:100AC00010928C0721E001C020E0812F99278FBF71
:100AD00090E0213009F491E081E09827892F99274F
:100AE0001F9108958FB7F8946091F70D7091F80DEC
:100AF0002091940030919500C09B06C06F5F7F4F9E
:100B0000209194003091950099278FBF88279927CD
:100B1000CB017727662744275527622B732B842B1D
:100B2000952B08957FB7F8946091B2002091BC0D89
:100B30003091BD0D4091BE0D5091BF0DB99B11C0BC
:100B40008091B3009091B200280F311D411D511DBD
:100B50002F5F3F4F4F4F5F4F290F311D411D511DDB
:100B600004C0260F311D411D511D872F99278FBFAE
:100B7000CA01B9010895A82F882389F48091B50D81
:100B80009927982F88272091B60D3327822B932BF6
:100B9000892B29F48AEF8093B60D1092B50D8091C0
:100BA000360F8430A9F0813099F0853089F080913A
:100BB000B50D9927982F88272091B60D3327822BC2
:100BC000932B892B29F48BEF8093B60D1092B50DE2
:100BD0008091DC0D9927809590952A2F33278223C9
:100BE0009323892B89F08091B50D9927982F882719
:100BF0002091B60D3327822B932B892B29F48CEF70
:100C00008093B60D1092B50D2FB7F89433278091CD
:100C1000AB13482F4A238A2B8093AB132FBF60E07E
:100C200070E053E217C040FF12C0859FF00111240D
:100C3000EA53F04F80819927982F88272181332705
:100C4000822B932B01968183892F99278083469548
:100C50006F5F7F4F862F442331F740E050E0B3E2CF
:100C60007CE026C0A0FF21C06B9FF0011124EC5353
:100C7000F04F80819927982F882721813327822B55
:100C8000932B01968183892F99278083679FF00199
:100C900011248091F00D9091F10DE80FF91F8781DB
:100CA000882319F4868180648683A6954F5F5F4F01
:100CB000642FAA23B9F60895EF920F931F93AE2DD8
:100CC00099E0899FF0011124E95CF04F4083518342
:100CD000628373830483158326833783A1708085A1
:100CE0008E7F8A2B8260808786E00E9402051F919A
:100CF0000F91EF900895882319F08CB5806402C09D
:100D00008CB58F7B8CBD0895882319F08CB58068D5
:100D100002C08CB58F778CBD08950F931F9380E030
:100D20000E947B060FB7F8941127229A2398219AE4
:100D3000209A8CB580618CBD80E00E9484068CB5C1
:100D4000877F8CBD8CB58B7F8CBD81E00E947B063C
:100D50008DB581608DBD8CB58C7F8CBD0FBF1F9113
:100D60000F9108950F931F93CF93DF93182F0FB711
:100D7000F89480919007882311F40E948D06802FAB
:100D800099278FBF8FB7F894C82FDD272C2F80911C
:100D90009007882361F481E0809390071093040EFC
:100DA0008EE00E940205CFBF80E090E021C0E12FDD
:100DB000FF27E150F24F80818F3F89F4E09189074E
:100DC000E11789F40CC01093880704C0FF27E15095
:100DD000F24F10831093890780E090E002C085E015
:100DE00090E02FBF05C0809188078F3F79F7EBCF48
:100DF000DF91CF911F910F9108958FB7F894282F0D
:100E00003327922F80918A07882331F480919007AD
:100E1000823011F42FBF13C09FBF8FB7F894282FD3
:100E2000332780919007882369F482E080939007AC
:100E300010928A072FBF0E948D06209A289A81E07F
:100E400090E008952FBF80E00E94B20680E090E01D
:100E500008958FB7F8942091320F3091330F40915D
:100E6000340F5091350FE0918400F0918500B09BD4
:100E700008C02F5F3F4F4F4F5F4FE0918400F091CC
:100E8000850099278FBFC901772766279F014427CF
:100E90005527622B732B842B952B0895FC01EA5761
:100EA000FF4F80818260808308958E579F4F089501
:100EB000FC0182819927982F882721813327822B53
:100EC000932B75E0969587957A95E1F781709070F0
:100ED0000895AC01EFB7F89420918400309185001B
:100EE000C901841B950B03968617970720F0B9015B
:100EF0006D5F7F4F02C0640F751F6115710511F49E
:100F000061E070E0615070407093890060938800E8
:100F100082E086BB80916F00826080936F008E2F8D
:100F200099278FBF0895CF93DF93EC010E94580754
:100F3000882339F18A8129819927982F8827332797
:100F4000822B932B87749C7C81549848D1F48F8199
:100F50004E812FB7F89433276091800770918107F5
:100F60002FBF20E09927982F88275527842B952B72
:100F70008617970709F021E081E02827822F99271B
:100F800002C080E090E0DF91CF910895EF92FF9250
:100F90000F931F937C018FB7F89499270091C20F8C
:100FA0001091C30F0F5E1E4F1093C30F0093C20F1B
:100FB000015111408FBF8BE00E940205C801B701AB
:100FC0000E94012B8A5D9E4F1F910F91FF90EF9021
:100FD00008952F923F924F925F926F927F928F92DD
:100FE0009F92AF92BF92CF92DF92EF92FF920F93B8
:100FF0001F93CF93DF93CDB7DEB729970FB6F89441
:10100000DEBF0FBECDBF6FB76983F8942090F20D9D
:101010003090F30D4090F40D5090F50D6624772438
:101020008824EEE4AE2E73E8B72ECC24DD24EE2423
:10103000FF2400E010E0222D332D442D552D662D88
:10104000772D882D90E00E9480292A833B834C8352
:101050005D836E837F8388879987822E932EA42E4B
:10106000B52E2401350100E20E947E2AA22EB32E65
:10107000C42ED52EA30192015695479537952795F5
:101080002A0D3B1D4C1D5D1D57FF05C05F772F5F6F
:101090003F4F4F4F5F4F2093F20D3093F30D40932E
:1010A000F40D5093F50DE9818E2F99278FBFCA015A
:1010B000B90129960FB6F894DEBF0FBECDBFDF9100
:1010C000CF911F910F91FF90EF90DF90CF90BF9045
:1010D000AF909F908F907F906F905F904F903F90D8
:1010E0002F900895AF92BF92CF92DF92EF92FF922E
:1010F0000F931F93F82E5A016B010E949205AB01CA
:10110000BC01F1E0EF2E960185018F2D0E945C0657
:101110001F910F91FF90EF90DF90CF90BF90AF9015
:101120000895992780FF02C0129801C0129A81FF8A
:1011300002C0119801C0119A82FF02C01098089550
:10114000109A0895FC01E458FF4F7183608308955D
:10115000FC01E458FF4F738362830895EF92FF927E
:101160000F931F930E9472057B018C012091000E4A
:101170003091010E4091020E5091030E8091FB0DB3
:101180009091FC0DA091FD0DB091FE0D820F931F6B
:10119000A41FB51FE216F3060407150730F08217E7
:1011A0009307A407B50758F005C082179307A40753
:1011B000B507E0F5E816F9060A071B07B8F59C0124
:1011C000AD012E193F09400B510B213060E8360765
:1011D00060E0460760E0560768F180E090E8A0E034
:1011E000B0E0E80EF91E0A1F1B1FE092000EF092FD
:1011F000010E0093020E1093030E80E090E8AFEF13
:10120000BFEFE80EF91E0A1F1B1F20503048404058
:1012100050402093FB0D3093FC0D4093FD0D5093F7
:10122000FE0D20E030E840E050E014C020E030E067
:1012300040E050E08093000E9093010EA093020EC8
:10124000B093030E1092FB0D1092FC0D1092FD0D49
:101250001092FE0DA901B7012091940030919500E4
:10126000C9018E199F098C599F4F8417950720F04B
:10127000B9016C597F4F02C0640F751F611571056C
:1012800011F461E070E061507040709399006093D8
:10129000980082E088BB8091710082608093710029
:1012A0001F910F91FF90EF9008952FB7F894332777
:1012B00080910002909101020196AA27BB2780939A
:1012C000F20D9093F30DA093F40DB093F50D2FBF95
:1012D00080E090E00895DF92EF92FF920F931F93CA
:1012E0008FB7F894282F3327D22E9091B300809196
:1012F000B20047B3981711F041FF02C02FBF71C071
:101300008091EF0D8823E1F10E949205E0907F0D1E
:10131000F090800D0091810D1091820D20910B12A3
:1013200030910C1240910D1250910E126E197F09DE
:10133000800B910B621773078407950720F01092BA
:10134000EF0D71E01EC02E0D3F1D401F511F8091FB
:10135000BC0D9091BD0DA091BE0DB091BF0D281B8D
:10136000390B4A0B5B0B273E31054105510540F413
:10137000822F223010F070E005C070E082E002C0E1
:1013800070E086EE682F61508091B60083FDFCCF3F
:101390008091B200681709F46F5F2091BC0D309105
:1013A000BD0D4091BE0D5091BF0DDA01C9010196EE
:1013B000A11DB11D860F911DA11DB11D821793079F
:1013C000A407B50710F4622F60958091B60083FDE5
:1013D000FCCF6093B300DFBE772319F085E00E9455
:1013E00002051F910F91FF90EF90DF900895AFB726
:1013F000F894BB27E1E0E093EF0D60937F0D7093CD
:10140000800D8093810D9093820D20930B12309369
:101410000C1240930D1250930E12AFBF0E946B0935
:101420000895EF92FF920F931F93CF93DF937C0168
:10143000162F63E00E94C204BC01DC010C914091B4
:10144000F00D5091F10D8091DC10813091F0809180
:10145000B50D9927982F88272091B60D3327822B19
:10146000932B892B31F480E38093B60D82E0809337
:10147000B50D8091360F84508330A0F08091B50D6A
:101480009927982F88272091B60D3327822B932BED
:10149000892B09F014C181E38093B60D82E080931B
:1014A000B50D0DC1823008F00AC18CE0089FD00153
:1014B0001124A40FB51F2D913C911197809100022A
:1014C000909101022817390791F08091B50D992765
:1014D000982F88272091B60D3327822B932B892BA9
:1014E00031F485E38093B60D82E08093B50D809151
:1014F000AB139927EB01088002C0959587950A9454
:10150000E2F780FD12C08091B50D9927982F8827AA
:101510002091B60D3327822B932B892B31F486E350
:101520008093B60D82E08093B50D83E2089FF001B1
:101530001124EC53F04F848525859927982F88270F
:101540003327822B932B01968587892F99278487B0
:10155000112309F047C0868527859927982F88276A
:101560003327822B932B01968787892F992786878C
:10157000ED018E8185FD0BC08091910F80FD07C02C
:101580008A859B8501969B878A8730E039C086E8EB
:1015900090E0E80EF91EE701888180FF15C0ED019B
:1015A0008A859B8501969B878A87828923899927CB
:1015B000982F88273327822B932B0196838B892F93
:1015C0009927828B31E01CC0848925899927982F1F
:1015D00088273327822B932B0196858B892F992778
:1015E000848B5FC0808921899927982F882733278A
:1015F000822B932B0196818B892F9927808B51C049
:10160000ED019F81992341F0888581508887882347
:1016100019F4988720E001C021E0332371F0ED0137
:101620009E81892F869586958695837080FF05C05B
:101630009F7B9E838F81888720E0ED018F818823A7
:1016400019F48E8186FF02C02223A1F48FB7F8948B
:10165000992721E030E0FB01008002C0220F331FF8
:101660000A94E2F720954091AB1342234093AB13C9
:101670008FBF0DC0808121819927982F882733271C
:10168000822B932B01968183892F99278083109237
:10169000DC108091AB13882391F080E00E9402055A
:1016A0000EC0848125819927982F88273327822B84
:1016B000932B01968583892F99278483DBCFDF9134
:1016C000CF911F910F91FF90EF9008951F920F926D
:1016D0000FB60F9211248F938091B0008093B000C9
:1016E0008091B60081FDFCCF8F910F900FBE0F90BF
:1016F0001F9018951F920F920FB60F9211240F93FF
:101700001F932F933F934F935F936F937F938F9389
:101710009F93AF93BF93CF93DF93EF93FF932EB538
:10172000E0915B0FF0915C0F309739F08091280FBA
:101730009091290FE80FF91F20838091280F909135
:10174000290F01969093290F8093280F80E00E9423
:101750008406C091280FD091290F2091740D3091EB
:10176000750DC217D30708F042C00091AC13109159
:10177000AD1340915B0F50915C0FCE010A96281774
:10178000390708F4C901DA01AC0FBD1FF801EC0FED
:10179000FD1F9C012150304015C00115110531F08D
:1017A00080818EBD0DB407FEFDCF04C01EBC0DB4FC
:1017B00007FEFDCF8EB54115510509F08C9321969A
:1017C00011963196C217D30740F381E00E94840638
:1017D0000115110531F00C0F1D1FF80180818EBD20
:1017E00001C01EBCD093290FC093280F11C01092C6
:1017F0005C0F10925B0F1092AD131092AC1310920D
:10180000750D1092740D1092290F1092280F8EB53D
:10181000FF91EF91DF91CF91BF91AF919F918F9108
:101820007F916F915F914F913F912F911F910F91F8
:101830000F900FBE0F901F90189578941F920F92E3
:101840000FB60F9211240F900FBE0F901F90189596
:1018500078941F920F920FB60F9211240F900FBE23
:101860000F901F90189578941F920F920FB60F92B9
:1018700011242F933F938F939F93AF93BF932FB7D1
:10188000F89433278091320F9091330FA091340F49
:10189000B091350F0196A11DB11D8093320F909329
:1018A000330FA093340FB093350F2FBFBF91AF917B
:1018B0009F918F913F912F910F900FBE0F901F908E
:1018C000189578941F920F920FB60F9211242F92B1
:1018D0003F924F925F926F927F928F929F92AF92C0
:1018E000BF92CF92DF92EF92FF920F931F932F93AD
:1018F0003F934F935F936F937F938F939F93AF9398
:10190000BF93EF93FF93CF93DF93CDB7DEB72597C8
:10191000F894DEBF7894CDBF809171008D7F809365
:10192000710078942FB72D83F8948091FB0D9091DE
:10193000FC0DA091FD0DB091FE0D0097A105B10524
:1019400009F094C00E9472055B016C018091E10D69
:101950009091E20DA091E30DB091E40D8050904F75
:10196000AF4FBF4F89839A83AB83BC838093E10DD4
:101970009093E20DA093E30DB093E40D1C012D01B3
:101980002A2D281BE1E0A21608F0E0E03B2D3319D8
:10199000A1E0B31608F0A0E0B32FBE1BEB2FF1E0DF
:1019A0003B1708F0F0E0AF2B3E2F4C2D4419B1E06F
:1019B000C41608F0B0E0E42FEA1BF1E04E1708F07F
:1019C000F0E0BF2B4E2F5D2D5519E52FEB1B5E2F41
:1019D000A090E70DB090E80DC090E90DD090EA0D11
:1019E00079018A012A153B054C055D0514F4860131
:1019F0007501E092E70DF092E80D0093E90D109368
:101A0000EA0DE090940EF090950E0091960E1091D4
:101A1000970EDA01C901E216F3060407150714F45C
:101A2000D801C7018093940E9093950EA093960EC3
:101A3000B093970E80916D0D8823D1F089819A81A2
:101A4000AB81BC818093000E9093010EA093020E97
:101A5000B093030E80E090E1A0E0B0E08093FB0D36
:101A60009093FC0DA093FD0DB093FE0D0E94AE0867
:101A7000AD818A2F99278FBF2596F894DEBFCDBF01
:101A8000DF91CF91FF91EF91BF91AF919F918F9196
:101A90007F916F915F914F913F912F911F910F9186
:101AA000FF90EF90DF90CF90BF90AF909F908F907E
:101AB0007F906F905F904F903F902F900F900FBE50
:101AC0000F901F90189578941F920F920FB60F9257
:101AD00011240F900FBE0F901F90189578941F92AD
:101AE0000F920FB60F9211240F900FBE0F901F9000
:101AF000189578941F920F920FB60F9211248F931E
:101B00009F9380919600909197009F918F910F9055
:101B10000FBE0F901F90189578941F920F920FB6DA
:101B20000F9211242F933F938F939F932FB7F89485
:101B300033278091F70D9091F80D01969093F80D51
:101B40008093F70D2FBF9F918F913F912F910F9011
:101B50000FBE0F901F9018951F920F920FB60F9205
:101B600011242F933F934F935F936F937F938F93A2
:101B70009F93AF93BF93EF93FF938091B0008093B7
:101B8000B0008091B60081FDFCCF8091B300992711
:101B90000196AA27BB272091BC0D3091BD0D409125
:101BA000BE0D5091BF0D280F391F4A1F5B1F209398
:101BB000BC0D3093BD0D4093BE0D5093BF0D789476
:101BC0000E946B09FF91EF91BF91AF919F918F910F
:101BD0007F916F915F914F913F912F910F900FBE29
:101BE0000F901F90189521E02093050E2093810FF0
:101BF0002091840030918500BC01C9010E946907D1
:101C000008950F931F93982F1FB7F8948091900712
:101C1000823099F580918A07891779F58091880734
:101C200020E030E08F3F11F421E030E0232BF1F48D
:101C30009FEF90938A078F3F19F42FEF30E00DC08C
:101C4000282F3327F901E150F24F808180938807D4
:101C50008F3F11F49093890790832093040E81E0C5
:101C6000809390078EE00E94020505C08FEF80935D
:101C70008A071092900701E001C000E0812F9927A8
:101C80008FBF1FB7F89480919007882311F40E94AA
:101C90007B06812F99278FBF90E0013009F491E0F6
:101CA00081E09827892F99271F910F910895EF922E
:101CB0000F931F93AE2D99E0899FF0011124E35AF1
:101CC000F04F40835183628373830483158326839B
:101CD0003783A17080858E7F8A2B826080878FE01A
:101CE0000E9402051F910F91EF9008958091E50DDC
:101CF000823031F481E08093E50D89E00E94020595
:101D0000089580930F12882311F484E001C081E0CC
:101D10008093E50D89E00E9402050895CF93DF933B
:101D2000EC018FE38A8780916E0D8F5F80936E0D3B
:101D30008B8380918D07882319F085E090E019C08E
:101D4000CE010E94DA04892B21F061E0CE010E94CD
:101D5000E004D093DE10C093DD101092BD0F1092FE
:101D6000BC0F81E080938D0784E00E94020580E033
:101D700090E0DF91CF910895EF92FF920F931F9320
:101D8000CF93DF93082F7B01EA01122F213718F040
:101D900086E090E089C08A81298140E09927982FC8
:101DA00088273327822B932B87749C7C81549848F7
:101DB00009F441E0442319F4CE010E94C904135FE1
:101DC00018832FB7F894332780918007909181076B
:101DD0002FBF8887892F992789872FB7F8943327B2
:101DE000809182072FBF99278C831D82CE010E948C
:101DF000D804FC010083EE828F2D99278F838FB743
:101E0000F894282F332780918C07882371F482E07F
:101E100080938C07109285072FBFCE010E948E0EF3
:101E20009927182F882399F00FC02FBFD093DB0D6F
:101E3000C093DA0D8FB7F894C82FDD272C2F80912F
:101E40008C07882399F406C080E00E942905812F21
:101E500099272AC081E080938C071092D70D83E0E8
:101E60000E940205CFBF80E090E01EC08091DD0D92
:101E70008F3F89F4E0918407EE2369F010C010923F
:101E8000830704C0FF27E352F24F108210928407A9
:101E900080E090E002C085E090E02FBF05C0809117
:101EA00083078F3F79F7EBCFDF91CF911F910F9190
:101EB000FF90EF900895EF92FF920F931F93CF93AF
:101EC000DF9380917F079927019663E070E00E947D
:101ED000152B682F80937F0700E0462F5527FA01C6
:101EE000EE0FFF1FE45DF04FC081D181209799F084
:101EF000E62FE695E695E695FF27E65FFD4E8081A5
:101F000099279A012770307002C0959587952A9578
:101F1000E2F780FF0DC0CA01019663E070E00E9405
:101F2000152B682F0F5F0330C1F600937F071FC08A
:101F300060937F076330D8F4E88083EFE80EFF24D6
:101F40000F811127102F00278E819927082B192B1D
:101F5000CE010E94D804FC012E2DAE01B801808173
:101F60000E94BC0E882319F082E00E940205DF91D6
:101F7000CF911F910F91FF90EF900895EF92FF92F4
:101F80000F931F93CF93DF93E82E8B01F42E82E003
:101F90008E1518F481E090E03BC0CE2DDD27CC0FEC
:101FA000DD1FC45DD04F88819981892B19F085E0B0
:101FB00090E02EC079836883EDE0FE0EFB01F08295
:101FC000F3EFFF0E80917F07833018F480E090E0FC
:101FD0001FC0CB010E94D804FC018081F8016781F9
:101FE0007727762F662726813327622B732BE09283
:101FF0007F072F2DA8010E94BC0E9927282F882328
:1020000029F083E080937F0719821882822F992715
:10201000DF91CF911F910F91FF90EF900895FF9264
:102020000F931F938B01F42EFB018683892F992731
:102030008783CB010E94D804FC0189E680834F2D61
:10204000B80182E00E94BE0F99271F910F91FF9067
:102050000895AF92BF92CF92DF92EF92FF920F93CB
:102060001F93CF93DF935B016C01E0E0F0E0CDE5DF
:10207000DFE0688561FF5CC0288139814A815B812E
:10208000EC80FD800E811F81D601C501821B930B60
:10209000A40BB50B8E159F05A007B10708F448C027
:1020A00060FF03C06D7F688708C02E0D3F1D401F75
:1020B000511F288339834A835B83CE2FDD27FE019E
:1020C000E551F24F8081882329F00E94BB0580E012
:1020D0000E940205C057D14F3881332379F160E067
:1020E00070E0ACE030FF1EC06A9FA0011124E091B7
:1020F000F00DF091F10DE40FF51F2681822F8695EA
:10210000869586958370992782709070892B51F0FF
:102110002F7B2683E091F00DF091F10DE40FF51F78
:102120008781808736956F5F7F4F332339F0DACF11
:1021300031962996E430F10509F09BCF8FE00E949B
:102140000205DF91CF911F910F91FF90EF90DF90EB
:10215000CF90BF90AF9008952F923F924F925F9291
:102160006F927F928F929F92AF92BF92CF92DF92A7
:10217000EF92FF920F931F93CF93DF93CDB7DEB70C
:1021800026970FB6F894DEBF0FBECDBF8091AB137C
:10219000882319F080E00E940205442455248BEE28
:1021A0009DE09C838B83E0E9FEE0FA83E98382E98A
:1021B0009FE09E838D8322243324EB81FC818081E8
:1021C000882331F4E981FA818081882309F4C5C02C
:1021D0000E9492053B014C01ED81FE818081F1015D
:1021E00073969101215F3F4F882309F457C0ED8119
:1021F000FE810781112722273327322F212F102F0D
:1022000000274581552766277727742F662755278E
:10221000442786819927AA27BB27DC01992788278D
:10222000482B592B6A2B7B2B80859927AA27BB2704
:10223000482B592B6A2B7B2B042B152B262B372B4A
:102240004381552766277727762F652F542F4427FC
:10225000C180DD24EE24FF24FC2CEE24DD24CC24DC
:1022600082819927AA27BB27DC0199278827C82ABA
:10227000D92AEA2AFB2A84819927AA27BB27C82AB8
:10228000D92AEA2AFB2A4C295D296E297F29460D85
:10229000571D681D791DE1E0EE2E5CC0EC57F04F34
:1022A00044E8A42E4FE0B42EA20EB31E02811127E3
:1022B00022273327322F212F102F00274081552727
:1022C00066277727742F662755274427818199270A
:1022D000AA27BB27DC0199278827482B592B6A2B73
:1022E0007B2B83819927AA27BB27482B592B6A2B45
:1022F0007B2B042B152B262B372BF50142815527E1
:1023000066277727762F652F542F4427C080DD243A
:10231000EE24FF24FC2CEE24DD24CC24818199279B
:10232000AA27BB27DC0199278827C82AD92AEA2AA5
:10233000FB2A83819927AA27BB27C82AD92AEA2AF8
:10234000FB2A4C295D296E297F29460D571D681DE2
:10235000791DEE24842D0E94570E0894411C511CB7
:1023600089E090E0280E391EED81FE813996FE83CA
:10237000ED838B819C8101969C838B83E981FA811B
:102380003196FA83E983F4E04F16510409F015CF32
:1023900040918B0F552766277727762F652F542F6F
:1023A00044270091890F112722273327302F222716
:1023B0001127002780918A0F9927AA27BB27DC01C4
:1023C00099278827082B192B2A2B3B2B80918C0FC0
:1023D0009927AA27BB27082B192B2A2B3B2B402BED
:1023E000512B622B732B82E00E94720826960FB647
:1023F000F894DEBF0FBECDBFDF91CF911F910F913B
:10240000FF90EF90DF90CF90BF90AF909F908F9014
:102410007F906F905F904F903F902F9008958091A4
:102420007E0D843019F485E090E00895882319F03A
:1024300089E090E0089584E080937E0D87E00E941B
:10244000020580E090E008958230910510F480E06C
:1024500090E090938F0780938E0790917E0D9D3032
:1024600011F0973159F48091480F8D7F8093480F78
:10247000915090937E0D87E00E94020508950F937E
:102480001F938091360F8350833090F08091B50D6B
:102490009927982F88272091B60D3327822B932BCD
:1024A000892B31F48FE88093B60D81E08093B50DD0
:1024B0008091510F8D7F8093510F0FB7F8941127A2
:1024C00086E00E94910886E08093360F0FBF8091CE
:1024D000650F8D7F8093650F80916E0F8D7F809348
:1024E0006E0F8091770F8D7F8093770F8091800F93
:1024F0008D7F8093800F8091910F82FF04C080E0D8
:1025000090E00E9424128091910F83FF0CC060E044
:1025100070E085EE90E10E94A20860E070E085EE38
:1025200090E10E94A8089091AB1320E030E043E2D4
:102530000DC090FF08C0849FF0011124EA51F04FB4
:1025400080818F5F808396952F5F3F4F822F9923E5
:1025500081F71092AB13809171008D7F8093710091
:1025600010926D0D8FB7F89499272091940E3091A9
:10257000950E4091960E5091970E8FBF20938C0D23
:10258000BB27A52F942F832F80938B0DCA01AA27D9
:10259000BB2780938A0D252F332744275527209367
:1025A000890D8091B70D9091B80DA091B90DB091A2
:1025B000BA0D8093900D292F3A2F4B2F552720933A
:1025C0008F0D9D014427552720938E0D8B2F992722
:1025D000AA27BB2780938D0D8091850D9091860D44
:1025E000A091870DB091880D8093940D292F3A2FDB
:1025F0004B2F55272093930D9D014427552720935A
:10260000920D8B2F9927AA27BB278093910D8FB707
:10261000F89499272091E70D3091E80D4091E90D4C
:102620005091EA0D8FBF2093980DBB27A52F942FB3
:10263000832F8093970DCA01AA27BB278093960DFD
:10264000252F3327442755272093950D80916F0D13
:102650009091700DA091710DB091720D80939C0DB1
:10266000292F3A2F4B2F552720939B0D9D0144274F
:10267000552720939A0D8B2F9927AA27BB27809344
:10268000990D8091BE0F9091BF0FA091C00FB09196
:10269000C10F8093A00D292F3A2F4B2F5527209340
:1026A0009F0D9D014427552720939E0D8B2F992721
:1026B000AA27BB2780939D0D81E08093230F80E0A4
:1026C00090E01F910F910895AF92BF92CF92DF9249
:1026D000EF92FF920F931F93CF93DF935B016C01F7
:1026E000C0E0D0E0E7E3FFE0608561FFF3C0208158
:1026F000318142815381E480F58006811781D601C2
:10270000C501821B930BA40BB50B8E159F05A0076B
:10271000B10708F4DFC060FF03C06D7F608708C0A9
:102720002E0D3F1D401F511F208331834283538351
:10273000C13051F0C13030F0C230E9F0C33009F09F
:10274000CFC0C3C084E014C080917E0D8D3011F4E1
:1027500084E10BC0873111F48AE007C0823211F4A2
:1027600083E203C0813219F484E280937E0D87E016
:102770000E940205B5C08091360F843099F08530F3
:1027800009F48DC0833009F08DC00FB7F89411277C
:1027900084E00E94910884E08093360F0FBF0E946E
:1027A000AC109EC08091650F8D7F8093650F8091E6
:1027B0006E0F8D7F80936E0F8091770F8D7F80934A
:1027C000770F8091800F8D7F8093800FE0908F0F27
:1027D000FF2400271127102F0F2DFE2CEE2420910F
:1027E0008D0F332744275527522F4427332722277D
:1027F00080918E0F9927AA27BB27DC01992788276C
:10280000282B392B4A2B5B2B8091900F9927AA27D5
:10281000BB27282B392B4A2B5B2BE22AF32A042BCC
:10282000152BE114F10401051105C9F10FB7F89456
:10283000112785E00E94910885E08093360F0FBF35
:1028400040918F0F552766277727762F652F542FB6
:10285000442700918D0F112722273327302F22275D
:102860001127002780918E0F9927AA27BB27DC010B
:1028700099278827082B192B2A2B3B2B8091900F07
:102880009927AA27BB27082B192B2A2B3B2B402B38
:10289000512B622B732B82E00E94720821C00E9490
:1028A0003F121EC08091B50D9927982F882720913F
:1028B000B60D3327822B932B892B91F48BED8093CC
:1028C000B60D81E08093B50D0BC00E9492050E9469
:1028D000291006C021963996C430D10509F004CFDD
:1028E00086E00E940205DF91CF911F910F91FF902A
:1028F000EF90DF90CF90BF90AF9008954F925F928E
:102900006F927F928F929F92AF92BF92CF92DF92FF
:10291000EF92FF920F931F93CF93DF932C0180913F
:10292000730D882309F08DC18091AE13853009F0B5
:1029300088C10E94FD06882309F483C180916E112D
:10294000882309F07EC166E8862E912C840C951CA4
:10295000D4018C9182FD02C090E00BC0E7E8F0E06A
:102960004E0E5F1EF201918129E73FEF420E531E8A
:102970009F708091980E981781F09093980E2898E8
:1029800085EC8EBD0DB407FEFDCF8EB590689EBD63
:102990000DB407FEFDCF8EB5289AE20121968981FC
:1029A000F201218140E09927982F88273327822B35
:1029B000932B87749C7C8154984809F441E044230C
:1029C00001F1289886E88EBD0DB407FEFDCF8EB5C7
:1029D0001EBC0DB407FEFDCF8EB5289A99278F71C6
:1029E00090702091F60D4091DE0D240F312D311D98
:1029F00043E0359527954A95E1F7281739070CF4F8
:102A000020C1289882EC8EBD0DB407FEFDCF8EB597
:102A100089E08EBD0DB407FEFDCF8EB5289A0E94C9
:102A200029077B018C01D4018C9184FD03C0E0E077
:102A3000F0E005C0F20180818550E80FF11D289873
:102A400081E88EBD0DB407FEFDCF8EB51EBC0DB462
:102A500007FEFDCF8EB5289A8F71893079F02898BE
:102A600082EC8EBD0DB407FEFDCF8EB586E08EBD27
:102A70000DB407FEFDCF8EB5289AE3C08FB7F8944A
:102A800099272F9A20918400309185008FBF2F982D
:102A9000289880E68EBDD2019C910DB407FEFDCF33
:102AA0008EB59EBD792F7250773010F4672F01C01C
:102AB00067E0DE01962F4D910DB407FEFDCF8EB578
:102AC0004EBD9150C1F76150C60FD11D6F5F219669
:102AD0002E193F092E553F4F3901882477FC8094E9
:102AE000982C6E0C7F1C801E911E309719F4972F26
:102AF000961B42C02081E1808281A3809927AA276A
:102B0000BB27BA2FA92F982F88273327442755276B
:102B1000522F442733272227FF240027112787011C
:102B2000FF24EE242E293F29402B512BBB24CC24FB
:102B3000DD242A293B294C295D29822B932BA42BA8
:102B4000B52B86199709A809B9098383292F3A2F2C
:102B50004B2F552722839D014427552721838B2FF7
:102B60009927AA27BB278083C2CF28810DB407FEEF
:102B7000FDCF21968EB52EBD9150B8F70DB407FE4E
:102B8000FDCF8EB5289A289882EC8EBD0DB407FE35
:102B9000FDCF8EB586E08EBD0DB407FEFDCF8EB5A0
:102BA000289A3097D1F12081E1808281A3809927F2
:102BB000AA27BB27BA2FA92F982F88273327442766
:102BC0005527522F442733272227FF240027112778
:102BD0008701FF24EE242E293F29402B512BBB24B3
:102BE000CC24DD242A293B294C295D29822B932BD7
:102BF000A42BB52B860D971DA81DB91D8383292FE6
:102C00003A2F4B2F552722839D0144275527218397
:102C10008B2F9927AA27BB278083C2010E944E07CA
:102C2000C2010E945507FC016082718282829382F8
:102C300086E08093AE1384E08093730D80E090E093
:102C400002C085E090E0DF91CF911F910F91FF903E
:102C5000EF90DF90CF90BF90AF909F908F907F903C
:102C60006F905F904F900895AF92BF92CF92DF9296
:102C7000EF92FF920F931F93CF93DF9380916E118A
:102C8000882309F407C10E94FD06882309F402C1C4
:102C90008FB7F8949927C091F90DD091FA0D8FBF95
:102CA00010926E1128988FE88EBD0DB407FEFDCFEF
:102CB0008EB51EBC0DB407FEFDCF8EB5289A982F99
:102CC0008091730D833011F0873031F485E080936B
:102CD000AE1388E08093730DA92EBB24A2FE68C0BA
:102CE0008091730D863019F41092730D03C0882300
:102CF00009F05EC0943009F046C0289886E88EBD81
:102D00000DB407FEFDCF8EB51EBC0DB407FEFDCF82
:102D10002EB5289A2F718091DE0D982F9695969555
:102D2000322F391B830F8093DE0DE091830DF091DC
:102D3000840DDF01AA57BF4F8C918B7F88608C93E5
:102D4000E957FF4F21830E9429076B017C01009105
:102D5000830D1091840DC8010E944E07C8010E9486
:102D60005507FC01CC19DD092797CE01AA2797FD4D
:102D7000A095BA2F8C0D9D1DAE1DBF1D8083918324
:102D8000A283B38312C0E091830DF091840DEA57C2
:102D9000FF4F8081877F8083E091830DF091840DC8
:102DA000EA57FF4F80818D7F808385E08093730D8C
:102DB000A3FE70C08091730D843009F04EC085E091
:102DC0008093AE131092730D8091BB0D833019F474
:102DD0001092BB0D5FC0C091B713D091B813CE0154
:102DE0000E945807882389F18A8129819927982F81
:102DF00088273327822B932B87749C7C8154984897
:102E000021F58F812E819927982F88273327822BB0
:102E1000932B8F5F9F4FC9F090E08091810F8823A3
:102E200009F491E0992389F012E01093050E81E0F6
:102E30008093810F809184009091850069E973E00F
:102E40000E9469071093BB0D25C01092BB0D109214
:102E5000E60D80E00E94810E1DC08530D9F42091DE
:102E6000F60D289886E88EBD0DB407FEFDCF8EB511
:102E70001EBC0DB407FEFDCF8EB5289A8F71922F20
:102E800096959695891B280F2093F60D89E08093DF
:102E9000730D08C09091730D992309F4EAC299301B
:102EA00009F017C2289880E28EBD0DB407FEFDCF51
:102EB0008EB51EBC0DB407FEFDCF8EB5482F55272D
:102EC000433008F49EC3842F99278E3791050CF068
:102ED00098C31EBCE091830DF091840D4083142FA4
:102EE0001250173010F4912F01C097E0BF016F5FAF
:102EF0007F4F292FFB0140E050E00DB407FEFDCFCE
:102F00008EB51EBC808381914827042E4295407F58
:102F10004025052E542F42954F7004264695542780
:102F20004527440F440F440F4025215031F791505D
:102F3000DB01A90FB11D9F5F1196E091830DF09108
:102F4000840D81818770823009F421E0222349F0C9
:102F500020E030E08091BB0D823081F421E030E050
:102F60000DC08FB7F894282F332760E08091DF10D1
:102F7000833008F461E02FBF262F3327232B09F479
:102F80005EC0191B912F18C00DB407FEFDCF8EB582
:102F90001EBC8C938D914827042E4295407F40257E
:102FA000052E542F42954F700426469554274527E9
:102FB000440F440F440F4025915030F70DB407FEE5
:102FC000FDCF8EB51EBC9A012827022E2295207FA8
:102FD0002025032E322F22952F7002262695322788
:102FE0002327220F220F220F20250DB407FEFDCF2D
:102FF0008EB51EBC2827022E2295207F2025032E69
:10300000322F22952F700226269532272327220F52
:10301000220F220F20250DB407FEFDCF8EB5E091C3
:10302000830DF091840DE957FF4F8083289A15E0B6
:103030001093AE131092730D232B31F016C20DB402
:1030400007FEFDCF8EB5DDC2E090830DF090840DBC
:1030500067010894C11CD11CF701818190E0282FE1
:103060003327277030702230310509F491E08091C8
:10307000BB0D992329F1823009F026C1F701938114
:10308000E091B713F091B8138381981709F01CC130
:103090002230310509F018C180916F008D7F809337
:1030A0006F001092810FEA57FF4F8081816080830B
:1030B0001092BB0D1092E60D80E00E94810E04C1BB
:1030C0008823C9F4C7010E9493078823A1F01093B5
:1030D0009A0E82E080939B0E10929C0EF7018381E2
:1030E00080939D0E8AE99EE00E947E14882319F445
:1030F00083E08093BB0D0091840010918500C7018F
:103100000E949307882311F0045E1C4F10932B0F2D
:1031100000932A0F80918400909185009801281BCC
:10312000390B12161306A4F48091E60D882369F476
:1031300090E08091810F882309F491E0992341F078
:10314000C9010E94F30D80E801C080688093E60DFC
:10315000F601808527819927582F44273327422B52
:10316000532B8091C00D282F3327F901EE0FFF1F3D
:10317000E159FE4E808191817091820F84179507ED
:1031800069F4F901EF54FC4E8081871709F467C098
:10319000872F8F5F8093820F80831DC000E010E037
:1031A00080E090E0CFE6D1E1E1EBF3E1DF01682FD1
:1031B0009C01888199818417950779F42093C00D2B
:1031C0009091820F8C91891709F449C0892F8F5FE4
:1031D0008093820F8C9300E829C08081972F981BE1
:1031E000091710F4092F122F6F5FC901019611966C
:1031F0002296319685309105D1F66530B9F4109359
:10320000C00DA12FBB27FD01EE0FFF1FE159FE4EA0
:10321000518340838091820F8F5F8093820FFD01E5
:10322000EF54FC4E8083A754BC4E1C929091820FA9
:10323000892F8F778F3779F40F3768F0E1EBF3E15F
:10324000292F207880818F6789132083319633E17D
:10325000E63BF307B9F78091C00D282F3327F6011D
:103260009281A22FBB27FD01E754FC4E808180FF95
:1032700007C0FD01E052FF4E8081981729F102C07E
:1032800081608083A052BF4E9C93DFB6F8948091FA
:10329000DF108330B0F4E0918011E80FE33008F0E4
:1032A000E350FF27EE0FFF1FE858F24F0081118116
:1032B000F182E0828F5F8093DF108AE00E94020536
:1032C00078018D2D99278FBFF092840DE092830DA8
:1032D000C3C0892F8150833008F09CC08150823058
:1032E000E0F43091AE133130C1F420E08091810FD1
:1032F000882309F421E0222381F02F9883E0809332
:10330000050E3093810F80918400909185006BE2CF
:1033100073E00E94690782E068C0933009F042C000
:103320008091AE13833009F097C00E94FD06882378
:10333000C9F128988FE88EBD0DB407FEFDCF8EB57C
:103340001EBC0DB407FEFDCF8EB5289A809181007A
:1033500080648093810080E286BB80916F008062F0
:1033600080936F009091D60D289888EC8EBD0DB497
:1033700007FEFDCF8EB590669EBD0DB407FEFDCF56
:103380008EB5289A289882EC8EBD0DB407FEFDCF2D
:103390008EB586E08EBD0DB407FEFDCF8EB5289AA2
:1033A00084E023C08091730D8150823000F58091BC
:1033B000AE138530E1F40E94FD068823C1F0289801
:1033C00082EC8EBD0DB407FEFDCF8EB583E08EBDC1
:1033D0000DB407FEFDCF8EB5289A80916F008F7DCA
:1033E00080936F0010926E1183E08093AE139091E2
:1033F000730D913041F48091AE138330B1F52F9A63
:103400009093AE1325C0923039F58091AE1383307E
:1034100061F51EC0973001F50E94FD068823E1F09A
:103420009091D60D289888EC8EBD0DB407FEFDCF87
:103430008EB590669EBD0DB407FEFDCF8EB5289A61
:103440008091AE13853021F484E08093AE1304C0E4
:1034500088E08093730D04C08091730D883029F447
:103460001092730D88E00E9402058091730D8823ED
:1034700009F58091AE138530D1F480916E118823C7
:10348000B1F48091BB0D882391F48091E60D8823DF
:1034900071F490E08091810F882309F491E09923E1
:1034A00031F00E94760E8091730D882319F48CE020
:1034B0000E9402058091810F823009F095C0109220
:1034C000810FC090050EF2E0CF1609F469C023E029
:1034D000C21609F46DC031E0C31609F085C0209111
:1034E0002A0F30912B0F809184009091850040919C
:1034F000E60D403829F41092E60D0E94760E74C055
:103500008901081B190B47FF03C01016110604F1AF
:10351000C091DF0DD091E00D8091BB0D8823C1F4E7
:10352000CE010E947E149927882369F4FE01EA5790
:10353000FF4F80818E7F8083C092BB0DD093B813E4
:10354000C093B71329C09927F82E882329F102C008
:1035500075E0F72E2091E60D822F99278F7701973E
:1035600059F4207822602093E60D85E89BE00E94C4
:10357000C6070E94F30D38C027FF0AC010161106B7
:103580003CF480E88093E60DC8010E94F30D02C070
:103590001092E60D8F2D09C083E08093E60D24C0C4
:1035A0001092BB0D1092E60D80E00E94810E1CC0AF
:1035B0008091AE13823019F4C092AE1313C0809183
:1035C000730D863079F41092730D289881E88EBDC2
:1035D0000DB407FEFDCF8EB51EBC0DB407FEFDCFAA
:1035E0008EB5289A0E942A1B8FB7F894282F33276C
:1035F0008091D50D813061F081E08093D50D2FBF92
:103600003DCB289A85E08093AE131092730D2DCF99
:103610001092D50D2FBFDF91CF911F910F91FF9089
:10362000EF90DF90CF90BF90AF9008958FB7F89450
:10363000282F33278091D50D81508093D50D803868
:1036400011F02FBF089581E08093D50D2FBF0E9408
:10365000341608958FB7F894282F33278091D50D0D
:10366000882329F080688093D50D2FBF089581E0CD
:103670008093D50D2FBF0E943416089578941F9221
:103680000F920FB60F9211242F933F934F935F9396
:103690006F937F938F939F93AF93BF93EF93FF931A
:1036A000E6E8F0E080819181208131818FB7F89444
:1036B00099273093FA0D2093F90D21E020936E1194
:1036C0008FBF0E942A1BFF91EF91BF91AF919F91F5
:1036D0008F917F916F915F914F913F912F910F90BB
:1036E0000FBE0F901F90189578941F920F920FB6EF
:1036F0000F9211242F933F934F935F936F937F9378
:103700008F939F93AF93BF93EF93FF9380916F003D
:103710008D7F80936F0078949FB7F8948091810F8C
:10372000813019F482E08093810F892F99278FBF10
:103730000E942A1BFF91EF91BF91AF919F918F91B2
:103740007F916F915F914F913F912F910F900FBE9D
:103750000F901F9018950F931F938C010E94C9041E
:1037600004581F4FF801118210820C571040C801F5
:103770000E94D504FC01118210820A571F4FF801E4
:1037800010821F910F9108950F931F930FB7F89414
:10379000112780E00E9491081092360F0FBF1092FF
:1037A000F10D1092F00D1092D90D1092990E109209
:1037B000DC0D86E3E4E8FFE011928A95E9F788E101
:1037C00091E0E4ECFFE011920197E9F78EE2E9E87D
:1037D000FDE011928A95E9F71092EB0D1092EC0D35
:1037E0001092ED0D1092EE0D1092900E1092910E1F
:1037F0001092920E1092930E1092AB138FEF809353
:103800007E071092DC1005EE10E1C8010E94AB1B90
:1038100060E0C8010E94E0040FB7F894112781E02E
:103820000E94910881E08093360F0FBF1F910F9186
:1038300008958F929F92AF92BF92CF92DF92EF92B4
:10384000FF920F931F93CF93DF93CDB7DEB7CC5684
:10385000D0400FB6F894DEBF0FBECDBF8FB7F8943F
:10386000282F33278091DF10882309F419C4E091B1
:103870008011FF27EE0FFF1FE858F24F80809180E4
:103880002FBF80917E0D843121F48DE080937E0DD9
:1038900002C08D3079F480918E0790918F07892B2B
:1038A00049F040918607509187076627772781E086
:1038B0000E947208F4018285178106818F3309F016
:1038C000B9C3C4010E94D804FC01E081812F99276B
:1038D000582F4427802F9927482B592B8FB7F894BE
:1038E000992720918007309181078FBF4217530796
:1038F00021F04F5F5F4F09F0B7C3FF27E63609F4A9
:10390000C5C0E83609F457C2E53609F0ADC3F40185
:1039100024854091F00D5091F10D8091360F845027
:10392000823008F0A1C3332783E2289F700111245D
:1039300084EC9FE0E80EF91E8CE0289FD001112452
:10394000A40FB51FF701868927899927982F882703
:103950003327822B932B0196878B892F9927868B70
:103960005DE0C52ED12CC80CD91CF40185858401DD
:10397000025F1F4F26859927982F88273327822B90
:10398000932BFD01228533858217930779F4F70184
:10399000808D218D9927982F88273327822B932B71
:1039A0000196818F892F9927808F57C0F70180A1B9
:1039B00021A19927982F88273327822B932B0196B3
:1039C00081A3892F992780A3F401858526859927CE
:1039D000982F88273327822B932BFD01228533854F
:1039E0008217930778F4F701828D238D9927982FFA
:1039F00088273327822B932B0196838F892F992732
:103A0000828F2BC0F701848D258D9927982F8827C9
:103A10003327822B932B0196858F892F9927848FAB
:103A2000268D478DF401858566853327322F222721
:103A30005527242B352B9927982F88277727862BD6
:103A4000972BFD0142855385841B950B280F391F49
:103A5000F701278F232F3327268FF6018081F80166
:103A600020819927982F88273327822B932B019623
:103A7000FD019387828721858091DC0D282309F43D
:103A8000F3C2822F0E94BB0580E04CC0F401848504
:103A9000282F3327243179F0253130F42530D1F126
:103AA0002A3009F0E1C241C02E3109F477C1283231
:103AB00009F0DAC273C10E943F120E94C41B109227
:103AC000230F1092D80D80917E0D873111F08D302B
:103AD00041F48091480F8D7F8093480F87E00E94CA
:103AE000020590917E0D892F8C50823010F0943118
:103AF00011F481E003C0953121F482E080937E0DC2
:103B0000B3C29A3029F0963119F0973109F0ACC25E
:103B100083E0F4CF8091D80D882309F4A5C22093C7
:103B20008F0E82E10E9402059FC28091D80D8823EA
:103B300009F49AC28091360F823091F08091B50DD0
:103B40009927982F88272091B60D3327822B932B06
:103B5000892B31F483E68093B60D81E08093B50D17
:103B600081E080936D0D2FEF3FEF4FEF5FE72093E4
:103B7000850D3093860D4093870D5093880D2093CB
:103B8000B70D3093B80D4093B90D5093BA0D82E044
:103B900090E0A0E0B0E88093BE0F9093BF0FA09399
:103BA000C00FB093C10F80936F0D9093700DA093D1
:103BB000710DB093720D0FB7F89411278093E70D34
:103BC0009093E80DA093E90DB093EA0D2093940E25
:103BD0003093950E4093960E5093970E80917100FE
:103BE0008D7F809371000E9472056093E10D709348
:103BF000E20D8093E30D9093E40D6093000E7093BB
:103C0000010E8093020E9093030E80E090E1A0E0FD
:103C1000B0E08093FB0D9093FC0DA093FD0DB0934D
:103C2000FE0D0E94AE080FBF0E9472056093240F24
:103C30007093250F8093260F9093270F80E10E94A9
:103C400002058091910F82FF0CC08091B60F9927D9
:103C5000982F88272091B70F3327822B932B0E9410
:103C600024128091910F83FF1CC06091B60F7727BB
:103C7000762F66278091B70F9927682B792B85EED1
:103C800090E10E94A2086091B80F7727762F6627EF
:103C90008091B90F9927682B792B85EE90E10E94CE
:103CA000A808E090870FFF2400271127102F0F2D61
:103CB000FE2CEE242091850F332744275527522FC1
:103CC0004427332722278091860F9927AA27BB27CD
:103CD000DC0199278827282B392B4A2B5B2B8091D5
:103CE000880F9927AA27BB27282B392B4A2B5B2B18
:103CF000E22AF32A042B152BE114F1040105110526
:103D000009F43FC00FB7F894112783E00E9491088F
:103D100083E08093360F0FBF0E94E9072091870F41
:103D2000332744275527542F432F322F2227A09083
:103D3000850FBB24CC24DD24DA2CCC24BB24AA247C
:103D4000E090860FFF24002711278701FF24EE242F
:103D5000AE28BF28C02AD12AE090880FFF24002770
:103D60001127AE28BF28C02AD12A2A293B294C294D
:103D70005D290E94282BAB01BC0182E00E947208E1
:103D800073C10FB7F894112784E00E94910884E072
:103D90008093360F0FBF0E94AC1066C18091230F35
:103DA000882309F461C120938F0EF40185858093E7
:103DB000760D81E1B7CEDE011196F4013D9686E3E2
:103DC00001900D928150E1F7DE01D796FE01319608
:103DD00086E301900D928150E1F7FFADEEAD7DAD30
:103DE0006CAD8091360F8150823090F08091B50D8E
:103DF0009927982F88272091B60D3327822B932B54
:103E0000892B31F48BE18093B60D81E08093B50D61
:103E1000EE2EFF2400271127102F0F2DFE2CEE244D
:103E2000262F332744275527522F4427332722276D
:103E3000872F9927AA27BB27DC0199278827282BBA
:103E4000392B4A2B5B2B8F2F9927AA27BB27282B8F
:103E5000392B4A2B5B2BE22AF32A042B152BE11476
:103E6000F1040105110591F48091B50D9927982F62
:103E700088272091B60D3327822B932B892B31F481
:103E80008CE18093B60D81E08093B50D8091360F63
:103E9000823009F4E9C0FFAFEEAF7DAF6CAFA4E8AC
:103EA000BFE0FE01F79686E301900D928150E1F7A5
:103EB0008091840F682F772740E050E002C04F5F69
:103EC0005F4F842F9927FC01EE0FFF1FE80FF91FAA
:103ED000EE0FFF1FEE0FFF1FEE5FFD4F22813381BC
:103EE0002115310549F0808191818F5F9F4F39F70E
:103EF0002617370721F70AC00FB7F894112780E07B
:103F00000E9491081092360F0FBFAEC08CE0489F00
:103F1000C0011124825F9D4F9093F10D8093F00DAD
:103F200081E08093D90DCC24DD2461C0F801868125
:103F30008F7B86838781808781E090E0938782876B
:103F40008091D90D99278217930710F42093D90DEA
:103F5000F801228133818091D90D99278217930727
:103F600030F4FFEF2F3F3F0711F02093D90DF801F8
:103F70002081318180910002909101022817390738
:103F800099F521E030E002C0220F331F4A95E2F795
:103F9000E22E8091DC0D822B8093DC0D8681877070
:103FA000813021F4822F0E94BB050BC0823049F47E
:103FB000F8018481E82FFF27E551F24F8081822BA1
:103FC0008083F801868186958695869583709927EA
:103FD00082709070892B41F02581E22FFF27E057F6
:103FE000F14F80818E2980830894C11CD11C4C2DF7
:103FF0008CE0C89E800111248091F00D9091F10D0C
:10400000080F191FF80120813181FFEF2F3F3F0773
:1040100009F08CCFC092990E0FB7F894112782E067
:104020000E94910882E08093360F0FBF81E0809359
:10403000D80D1AC0812F9927582F4427802F9927F0
:10404000482B592B8FB7F8949927209180073091EE
:1040500081078FBF4217530719F04F5F5F4F21F45D
:104060008FB7F89499278FBF9FB7F89480918011EC
:10407000E82FFF27EE0FFF1FE858F24F9182808252
:104080008F5F80938011833010F0109280118091A7
:10409000DF1081508093DF10892F99278FBFDECBEF
:1040A0002FBFC459DF4F0FB6F894DEBF0FBECDBF90
:1040B000DF91CF911F910F91FF90EF90DF90CF9004
:1040C000BF90AF909F908F9008956F927F928F9244
:1040D0009F92AF92BF92CF92DF92EF92FF920F9397
:1040E0001F93CF93DF93E82FFF27E331F10508F00B
:1040F0004EC7EA59FF4FEE0FFF1F0590F491E02DD8
:10410000099480910A12882309F441C790E011E0D4
:1041100079C18FB7F89499273091DC1021E0209372
:10412000DC108FBF332309F032C78091360F843003
:1041300009F02DC78091AB13882309F428C761E0EB
:1041400070E0482F30917E073F5FCB01032E02C005
:10415000880F991F0A94E2F7282F882311F430E082
:1041600021E0242389F330937E07832F9927FC01D4
:10417000EE0FFF1FE80FF91FEE0FFF1FEE0FFF1FDF
:104180008091F00D9091F10DE80FF91F20813181A0
:1041900080910002909101022817390791F08091D7
:1041A000B50D9927982F88272091B60D3327822B9C
:1041B000932B892B31F48BE98093B60D82E08093A9
:1041C000B50D85EE90E10E94AB1B63E085EE90E1BA
:1041D0000E94C2049C0180917E07D9018D93809139
:1041E0007E079927FC01EE0FFF1FE80FF91FEE0F66
:1041F000FF1FEE0FFF1F8091F00D9091F10DE80F62
:10420000F91F82859385ED018983892F9927F9010B
:1042100081838091910F282F332721FF03C00FEF57
:104220001FEF14C080917E079927FC01EE0FFF1F3E
:10423000E80FF91FEE0FFF1FEE0FFF1F8091F00D2B
:104240009091F10DE80FF91F0281138122FF16C032
:104250008091B60F9927D82FCC278091B70F992737
:10426000C82BD92BC230D10510F4C0E0D0E085EEC8
:1042700090E10E94D504FC01D183C0838091910F0D
:1042800083FF1CC06091B60F7727762F6627809139
:10429000B70F9927682B792B85EE90E10E94A20831
:1042A0006091B80F7727762F66278091B90F9927ED
:1042B000682B792B85EE90E10E94A8088091910FE0
:1042C00080FD15C080917E079927FC01EE0FFF1F2E
:1042D000E80FF91FEE0FFF1FEE0FFF1F8091F00D8B
:1042E0009091F10DE80FF91F868185FF02C061E012
:1042F00001C060E085EE90E10E94E0040093EB10C5
:10430000812F99278093EC1085EE90E10E94D804CC
:10431000FC0185E6808343E065EE70E180E00E9469
:10432000BE0F9927882321F0813009F043C016C0C1
:10433000E0917E0783E2E89FF0011124E453F04FFF
:1043400080819927982F882721813327822B932BCF
:1043500001968183892F992780833EC0E0917E0753
:1043600083E2E89FF0011124DF01A253B04F8C914A
:104370009927982F8827ED0129813327822B932BAA
:1043800001968983892F99278C93E853F04F808178
:104390009927982F882721813327822B932B0196E9
:1043A0008183892F992780831092DC1080E00E94FE
:1043B000020512C08091B50D9927982F882720916A
:1043C000B60D3327822B932B892B31F480ED80930C
:1043D000B60D82E08093B50DE0917E0783E2E89F01
:1043E000F0011124E653F04F80819927982F8827F8
:1043F00021813327822B932B01968183892F992743
:104400008083C5C520910A12812F8223C1F0E92F34
:10441000FF27EE0FFF1FE45DF04F408151811182B5
:104420001082812F8095282320930A12992339F432
:1044300063E0CA010E94110A110F91E0E3CF9F5F70
:10444000983008F0A4C5110FDDCF10917F07E12F40
:10445000FF27EE0FFF1FE45DF04FC081D181118275
:1044600010820E945B0F112309F091C561E03EC0EC
:104470002FB7F89433278091D70D8093850782E07A
:1044800080938C072FBF80918507882309F07FC513
:104490008091DA0D9091DB0D0E948E0EC82EDD24E6
:1044A000CC2009F474C580E00E942905E090DA0D63
:1044B000F090DB0DC7010E94D80410917F071330E4
:1044C00008F065C5E12FFF27EE0FFF1FE45DF04FF9
:1044D000C081D181CE15DF0509F059C51182108246
:1044E0000E945B0F112309F052C56C2DCE010E9472
:1044F000110A4DC5C091DD10D091DE10CE010E9491
:10450000DA049C0100918D07023059F5892B39F0AE
:10451000CA57DF4F8881C658D04080FF02C084E070
:104520001BC08091BC0F9091BD0F01969093BD0F61
:104530008093BC0F8217930770F481E080938D07FE
:10454000C458DF4F4A815B814115510569F06627E8
:10455000772780E0A0C185E080938D0700918D07CB
:104560004FC0013009F04CC082E080938D07C091AC
:10457000DD10D091DE1080917E0D8D3011F08731ED
:1045800041F48091480F8D7F8093480F87E00E940F
:10459000020580917E0D8A3021F0863111F087313D
:1045A00011F48EE110C08B3011F48FE10CC08C300F
:1045B00021F0843111F08D3011F480E204C0853196
:1045C00009F0DBC18DE180937E0D8F812E8140E06B
:1045D0009927982F88273327822B932B8F5F9F4F04
:1045E00009F041E0442321F061E0CE010E94E004A3
:1045F000D093B013C093AF1381E08093770DC7C4FD
:10460000043008F4C4C4232B51F06091BC0F7091A6
:10461000BD0F8091DD109091DE100E94A2081092D3
:104620008D07C091DD10D091DE108A858F3309F09F
:10463000AEC480E00E942905CE010E94D8041091EA
:104640007F07133008F0A3C4E12FFF27EE0FFF1FF1
:10465000E45DF04FE080F180EC16FD0609F097C4B0
:10466000118210820E945B0F112309F090C4045044
:10467000602FC7013CCF8091D40D882361F5209134
:10468000791130917A1140917B1150917C11EFB7E3
:10469000F894FF2760917F0D7091800D8091810DBE
:1046A0009091820DE0900B12F0900C1200910D127F
:1046B00010910E126E0D7F1D801F911FEFBF209372
:1046C000791130937A1140937B1150937C111092A1
:1046D000D40D0E94F7090E94920543C00E949205E2
:1046E0005B016C018FB7F89499271092EF0D8FBF83
:1046F0006FEFE62E6FEFF62E6FEF062F6FE7162F98
:1047000060E0E7E3FFE0808581FF1CC0808191814C
:10471000A281B381A6019501281B390B4A0B5B0BC3
:10472000DA01C9012481358146815781281B390B63
:104730004A0B5B0B2E153F05400751071CF479010E
:104740008A0161E039963FE0EB35F307E1F6662335
:1047500009F41DC41E141F04100611062CF0C60116
:10476000B5010E94641313C4E0927911F0927A119A
:1047700000937B1110937C1181E08093D40DA801EC
:104780009701C601B5010E94F70901C480917E0D11
:104790008A3011F08E3169F58FB7F89499272091FE
:1047A000D50D2F5F2093D50D8FBF8091E50D882308
:1047B000D1F48091730D8823B1F48091AE138130D0
:1047C00049F490E08091810F882309F491E09923C6
:1047D00051F002C0853039F083E08093730D0E9460
:1047E0002A1B85E025C00E94161B87E00E94020557
:1047F000CEC3843111F0813029F58FB7F894992711
:104800002091D50D2F5F2093D50D8FBF8091E50DA1
:10481000882349F78091730D882329F78091AE137F
:10482000813009F381E08093730D0E942A1B86E09A
:104830008093E50D0E94161B80917E0D8F5F809303
:104840007E0DA5C3843079F48AE080937E0D87E0E5
:104850000E9402050E94C41B0E9455091092230F5A
:104860001092D80D94C3833029F410927E0D0E94CB
:104870000F128DC38C3091F48DE080937E0D80916A
:104880008E0790918F07892B09F481C345E050E092
:1048900060E070E081E00E94720879C3863179F4AB
:1048A00040918E0750918F074115510531F087E1F6
:1048B00080937E0D66277727EDCF8AE0DBC08032BC
:1048C000A9F48091AF139091B0130E94D504FC011C
:1048D000408151814115510509F4CBC0465F5F4FBE
:1048E0006627772781E00E947208C3C0813249F5AC
:1048F0004091AF135091B0138FB7F894992720913E
:10490000D50D2F5F2093D50D8FBF8091E50D8823A6
:1049100091F45093BB0F4093BA0F81E08093E50D63
:104920001092830F89E00E9402050E94161B1092CC
:10493000770D82E284CF0E94161B85E08093770D6D
:1049400096C0843209F023C38DE080937E0D809160
:104950008E0790918F07892B49F0409186075091DF
:1049600087076627772781E00E9472088091770D7C
:10497000882319F08C5F80938D0784E037CF809176
:10498000E50D1092E50D853011F0863021F480910F
:104990007E0D8F5F6FC0873009F4F9C28093E50DFB
:1049A000F6C22FB7F89433278091D50D8F5F80938F
:1049B000D50D2FBF4091E50D413081F58091830FDA
:1049C0008F5F8093830F863048F52091BA0F309126
:1049D000BB0F8091E60D8823C1F490E08091810F98
:1049E000882309F491E0992381F03093E00D20931E
:1049F000DF0D4093E60D82EC95E00E94C6070E9411
:104A0000F30D10920F1283E004C085E080930F1223
:104A100082E08093E50D0E94161BB9C21092E50D4D
:104A20000E94161B80910F12C091BA0FD091BB0F3C
:104A30008093770D8823B1F4CE010E94D504FC0148
:104A400080819181892B71F080917E0D833251F0AC
:104A5000CE010E945807882361F0CA57DF4F888132
:104A600080FF07C08091480F8D7F8093480F84E2BC
:104A700001C081E280937E0DB8CE0E94191C87C2CE
:104A80000E94E9072FB7F89433277093C30F609300
:104A9000C20F2FBF7CC28FB7F894992710925C0F7A
:104AA00010925B0F1092AD131092AC131092750D13
:104AB0001092740D1092290F1092280F8FBF67C2A9
:104AC0002FB7F89433278091040E80938A0782E0F1
:104AD000809390072FBF80918A07882309F057C2DF
:104AE000209A289A8091AE13882309F075C08EEF22
:104AF00091E0019701960197E1F716982F9886E0CB
:104B000090E0019701960197E1F7169A289883ECB7
:104B10008EBD0DB407FEFDCF8EB51EBC0DB407FED5
:104B2000FDCF8EB5289A289882EC8EBD0DB407FE75
:104B3000FDCF8EB588E08EBD0DB407FEFDCF8EB5DE
:104B4000289A8EEF91E0019701960197E1F7289856
:104B50008EEC8EBD0DB407FEFDCF8EB58DE48EBDFF
:104B60000DB407FEFDCF8EB5289A289889EC8EBD2E
:104B70000DB407FEFDCF8EB587EC8EBD0DB407FEDC
:104B8000FDCF8EB5289A289885EC8EBD0DB407FE12
:104B9000FDCF8EB580E88EBD0DB407FEFDCF8EB57E
:104BA000289A1092980E8BE08093D60D289888EC66
:104BB0008EBD0DB407FEFDCF8EB58BE68EBD0DB458
:104BC00007FEFDCF8EB5289A2F9A81E08093AE1311
:104BD00080E00E94010EDBC10E942A1BD8C10E9406
:104BE00092055B016C0180915A0F8D7F80935A0F63
:104BF0005FEF652E5FEF752E5FEF852E5FE7952ED9
:104C000060E0EDE5FFE0808581FF1CC0808191813F
:104C1000A281B381A6019501281B390B4A0B5B0BBE
:104C2000DA01C9012481358146815781281B390B5E
:104C30004A0B5B0B26153705480559051CF439014D
:104C40004A0161E039963FE0E138F307E1F6662377
:104C500009F49DC116141704180419042CF0C60198
:104C6000B5010E94291093C141E0E42E9401830113
:104C7000B601A50183E00E945C0689C10E9472050D
:104C80005B016C010E9472056A197B098C099D0900
:104C9000E0906F0DF090700D0091710D1091720DFC
:104CA0009B01AC016E157F058007910714F4A801E4
:104CB000970120936F0D3093700D4093710D5093B9
:104CC000720D2091B70D3091B80D4091B90D5091F2
:104CD000BA0D261737074807590714F4CA01B90156
:104CE0006093B70D7093B80D8093B90D9093BA0D82
:104CF0008091240F9091250FA091260FB091270F3E
:104D0000A81AB90ACA0ADB0AC601B501E090BE0FAB
:104D1000F090BF0F0091C00F1091C10FA601950137
:104D2000AE14BF04C006D10614F4A8019701209365
:104D3000BE0F3093BF0F4093C00F5093C10F20910F
:104D4000850D3091860D4091870D5091880D261765
:104D500037074807590714F4CA01B9016093850D54
:104D60007093860D8093870D9093880D80916D0DC3
:104D7000882309F40CC10E9472056093240F70937C
:104D8000250F8093260F9093270F80E12FCD60E3AE
:104D900081E891E10E94C204EC0181E891E10E9466
:104DA000C9041092FE111092FD1181E891E10E9458
:104DB000D504FC01118210821092071280918F0E8F
:104DC0008E3109F061C08091230F882309F4DFC080
:104DD0008FE188838091760D89838091760D482FAD
:104DE00055274830510588F08091B50D9927982FA7
:104DF00088272091B60D3327822B932B892B29F4FA
:104E000086EC8093B60D1092B50D8091360F8630EA
:104E100089F08091B50D9927982F88272091B60D9C
:104E20003327822B932B892B29F487EC8093B60DA3
:104E30001092B50D8091990E99274817590788F05F
:104E40008091B50D9927982F88272091B60D33278B
:104E5000822B932B892B29F488EC8093B60D10922A
:104E6000B50D83E290E0489FF001499FF00D589FF7
:104E7000F00D1124DE011296EC53F04F83E2019005
:104E80000D928150E1F716C0883209F080C0809100
:104E9000230F882309F47BC089E288838091760DF3
:104EA0008983FE013296A9E8BDE08EE20D90019261
:104EB0008150E1F740E361E871E18FEF9FEF0E94DD
:104EC0000F1065C081E891E10E94C9041092FE11A3
:104ED0001092FD1181E891E10E94D504FC0111823C
:104EE00010821092071280918F0E853009F04FC00A
:104EF0008091D80D882309F44AC063E081E891E1EC
:104F00000E94C204FC0186E080838091360F8230CB
:104F100088F48091B50D9927982F88272091B60D98
:104F20003327822B932B892B29F484ED8093B60DA4
:104F30001092B50D8091990E81838091360F823049
:104F400088F48091B50D9927982F88272091B60D68
:104F50003327822B932B892B29F48AED8093B60D6E
:104F60001092B50D8091D90D82838FEF80938711B8
:104F70008093881181E891E10E94D804FC0187E6C2
:104F8000808343E061E871E181E00E94BE0FDF9120
:104F9000CF911F910F91FF90EF90DF90CF90BF9036
:104FA000AF909F908F907F906F90089580917D112A
:104FB0008F3FB1F0282F3327F901EF53F24F808153
:104FC00080937D118F3F11F48093B6138FEF808310
:104FD0002F3F31F0822F0E94652081E090E00895FC
:104FE00080E090E008951F931FB7F89414BE88E105
:104FF0000FB6F89480936000109260000FBE43E1FA
:1050000050E06FEF70E081EC9DE00E94A92B8FEFE4
:1050100080937D118093B61356985E9854985C984F
:1050200080916F008F7D80936F00209A289A279A35
:105030002F980E9A169A86E09EE09093840D8093A6
:10504000830D1092F60D8AE58093DE0D81E080934A
:10505000810080E28093B60083E08093B10080916C
:105060008400909185004AE720918400309185006A
:105070002817390708F44150442311F0C901F4CF2F
:105080009091B2008091B2008917E1F320918400E1
:10509000309185009091B2008091B2008917E1F3C0
:1050A0008091840090918500821B930B4096E5E0EF
:1050B00096958795EA95E1F790937F1180937E11FD
:1050C0001092B1008091B1008093810080918100A5
:1050D0008093B6001092B200109285001092840066
:1050E0008FEF87BB87B386BB8091B6008571E1F7F0
:1050F0000A9A099A089A129A119A109A18B88FEF78
:1051000087B90C9814981092950010929400809191
:10511000710081608093710080919100887F82602E
:1051200080939100109285001092840080916F000E
:10513000816080936F0080918100887F826080937E
:1051400081000E94D6278823E1F78FEF8093FF0D1F
:1051500080E00E94B2060E94550980E192E190939E
:10516000790D8093780D89E992E190937B0D80937E
:105170007A0D82E293E190937D0D80937C0D809176
:10518000B60080628093B6008091B60081FDFCCFAE
:1051900082E08093B0008091B60080FDFCCF83E078
:1051A0008093B1008091B60083FDFCCF86EE8093A2
:1051B000B300809170008260809370000E946B0940
:1051C0008FEF9FEF9093701180936F1190937211F6
:1051D0008093711190937411809373119093761151
:1051E00080937511909378118093771180910002CC
:1051F0008295807F80936E0D8FEF8093DD0D0E94EE
:10520000D6278823E1F7812F99278FBF78940E94B2
:105210000F128FB7F894482F552757C08091700010
:10522000992783709070892B19F4E5E0F0E014C0A1
:105230008091B6008A71E1F78091B3009091B2003D
:10524000891B8C3038F08091B200853F18F4E3E080
:10525000F0E002C0E2E0F0E080916E00867009F5B7
:1052600080916F008E72E9F4809171008E72C9F4A2
:105270000CB407FC16C08091C100887191F4809134
:10528000C900887171F48091BC0082FD0AC08091D0
:105290007A0087FF03C081E090E005C085E090E0E0
:1052A00002C080E090E023B78E1708F4E82FFF27B4
:1052B000EE50FF4FE491207F2160E22BE3BF789412
:1052C0008895F89483B78E7F83BF80917D118F3F3F
:1052D00009F4A4CF282F3327F901EF53F24F80812F
:1052E00080937D118F3F11F48093B6138FEF8083ED
:1052F0002F3F09F493CF4FBF822F0E94652089CFA3
:10530000ACE2B0E0E6E8F9E20C94692B222E332EF1
:10531000442E552E662E772E882E992EFE0131961C
:10532000A8E01192AA95E9F729823A824B825C8221
:105330006D827E828F829886FE013996B8E0119246
:10534000BA95E9F7A986BA86CB86DC86ED86FE8615
:105350000F87188B89819A81AB81BC8189A79AA715
:10536000ABA7BCA77C018D018FEF9FEFA0E0B0E061
:10537000E822F9220A231B2389A59AA5ABA5BCA57F
:105380001D014424552489859A85AB85BC858DA350
:105390009EA3AFA3B8A75C016D018FEF9FEFA0E0C4
:1053A000B0E0A822B922CA22DB228DA19EA1AFA122
:1053B000B8A53D0188249924C801B701A60195012B
:1053C0000E944A2B69A37AA38BA39CA3C801B701AF
:1053D000A40193010E944A2B7B018C01C201B101FF
:1053E000A60195010E944A2B5B016C01C201B1012B
:1053F000A40193010E944A2B3B014C01EA0CFB1CC7
:105400000C1D1D1D89A19AA1ABA1BCA19D01442722
:1054100055272E0D3F1D401F511F2A153B054C05DA
:105420005D0540F480E090E0A1E0B0E0680E791EF8
:105430008A1E9B1ECA01AA27BB27860D971DA81D81
:10544000B91D8D8F9E8FAF8FB8A3A9013327222757
:1054500089A19AA1ABA1BCA1A070B070280F391F7F
:105460004A1F5B1F298F3A8F4B8F5C8FA98CBA8C98
:10547000CB8CDC8CED8CFE8C0F8D18A1FE0171960F
:1054800098E011929A95E9F7ED8AFE8A0F8B188FB2
:105490002D813E814F8158856DA17EA18FA198A558
:1054A0000E944A2B3B014C012D853E854F85588932
:1054B00069A57AA58BA59CA50E944A2B2D893E89BA
:1054C0004F89588D260F371F481F591F260D371D2E
:1054D000481D591D2D8B3E8B4F8B588F6D887E88B4
:1054E0008F88988C2A2D3B2D4C2D5D2D662D772D88
:1054F000882D992DE2E1AC960C94852BA0E1B0E0CB
:10550000E4E8FAE20C94692B222E332E442E552E19
:10551000662E772E882E992E002309F466C088E027
:10552000FE01319611928A95E9F729833A834B83DC
:105530005C836D837E838F829887E0E2E01B1E167A
:10554000CCF52D813E814F815885602F772767FDEF
:105550007095DA01C901062E04C0B695A7959795F6
:1055600087950A94D2F78D879E87AF87B88B04C042
:10557000220F331F441F551FEA95D2F789819A8164
:10558000AB81BC8104C0B695A795979587956A9520
:10559000D2F7282B392B4A2B5B2B29873A874B874D
:1055A0005C8729843A844B845C846D847E848F84F8
:1055B00098881BC01D861E861F86188A2E2F3327AB
:1055C00027FD3095309521953F4F8D819E81AF818C
:1055D000B88504C0B695A795979587952A95D2F773
:1055E00089879A87AB87BC87DCCF222D332D442D4A
:1055F000552D662D772D882D992DE2E160960C941E
:10560000852BAA1BBB1B51E107C0AA1FBB1FA617F6
:10561000B70710F0A61BB70B881F991F5A95A9F75B
:1056200080959095BC01CD01089597FB092E072622
:105630000AD077FD04D0E5DF06D000201AF470957B
:1056400061957F4F0895F6F7909581959F4F089546
:10565000A1E21A2EAA1BBB1BFD010DC0AA1FBB1F76
:10566000EE1FFF1FA217B307E407F50720F0A21BE8
:10567000B30BE40BF50B661F771F881F991F1A9455
:1056800069F760957095809590959B01AC01BD017F
:10569000CF010895629FD001739FF001829FE00DBA
:1056A000F11D649FE00DF11D929FF00D839FF00DA1
:1056B000749FF00D659FF00D9927729FB00DE11D4D
:1056C000F91F639FB00DE11DF91FBD01CF0111242A
:1056D00008952F923F924F925F926F927F928F9296
:1056E0009F92AF92BF92CF92DF92EF92FF920F9371
:1056F0001F93CF93DF93CDB7DEB7CA1BDB0B0FB67B
:10570000F894DEBF0FBECDBF09942A883988488837
:105710005F846E847D848C849B84AA84B984C884CD
:10572000DF80EE80FD800C811B81AA81B981CE0FC4
:10573000D11D0FB6F894DEBF0FBECDBFED010895A9
:10574000FB01DC0102C001900D9241505040D8F79E
:105750000895DC0101C06D9341505040E0F7089579
:02576000FFCF79
:105762000100FFFF0A00000000000000000001002D
:1057720002000000010000000100FFFF0B0000001A
:105782000000000000000100020000000100000013
:105792000100020001000000010000000100FFFF03
:1057A2000C000000000000000000010002000000E8
:1057B20001000000010002000300000001000000DF
:1057C2000100030001000000010000000100FFFFD2
:1057D2000D0000000000000000000400FFFF0000B8
:1057E200010000000100FFFF0E00000000000000A9
:1057F20000000400FFFF00000100000001000300A0
:10580200FFFF0000010000000100FFFF0F00000089
:105812000000000000000400FFFF00000100000083
:1058220001000300FFFF0000010000000100020070
:10583200FFFF0000010000000100FFFF1000000058
:105842000000000000000100020000000100000052
:105852000100030004000000010000000100FFFF3E
:105862001100000000000000000001000200000022
:1058720021000000010003000400000001000000FC
:105882000100FFFF12000000000000000000010004
:10589200020000000100000001000300FFFF000001
:1058A200010000000100FFFF1300000000000000E3
:1058B20000000100020000000100000001000300DE
:1058C20002000000010000000100FFFF14000000C0
:1058D20000000000000001000400000001000000C0
:1058E20001000200040000000100000001000300AA
:1058F20004000000010000000100FFFF1E00000084
:10590200000000000000010002000000020101008E
:105912000100030004000100020101000100FFFF79
:105922001F0000000000000000000400FFFF000054
:105932000201010001000300FFFF0100020101005A
:105942000100FFFF20000000000000000000040032
:10595200FFFF00000201010001000300FFFF010040
:105962000201010001000200FFFF0200020101002A
:105972000100FFFF21000000000000000000010004
:105982000200000002010100010002000300010008
:1059920002010100010003000400020002010100F3
:1059A2000100FFFF220000000000000000000100D3
:1059B20004000000020101000100020004000100D5
:1059C20002010100010003000400020002010100C3
:1059D2000100FFFF230000000000000000000100A2
:1059E20002000000020101000100030004000000A7
:1059F200010000000100FFFF240000000000000081
:105A02000000010002000000020101000100040088
:105A1200FFFF0000010000000100FFFF3200000054
:105A2200000000000000010002000000020101026B
:105A32000100020001000000000101000100FFFF5F
:105A4200330000000000000000000100020000001E
:105A52000201010201000200010000000001010038
:105A620001000400FFFF0000010000000100FFFF31
:105A720034000000000000000000010002000000ED
:105A82000201010201000200030000000001010402
:105A92000100030004000000000101000100FFFFFB
:105AA20035000000000000000000010002000000BC
:105AB20002010102010002000300000000010104D2
:105AC20001000300040000000001010801000400BD
:105AD20005000000000101100100050006000000A1
