:100000000C9485010C94A4010C94A4010C94A401FB
:100010000C94A4010C94A4010C94A4010C94A401CC
:100020000C94A4010C94A4010C94A4010C94A401BC
:100030000C94A4010C9452130C94A4010C94D00DB4
:100040000C94BE1E0C94F41E0C94090F0C94140F07
:100050000C941F0F0C94A4010C94A4010C94A40103
:100060000C94660E0C940A110C94A4010C948D113E
:100070000C94A4010C94E40D0C94A4010C94E412CF
:100080000C94C3120C94CE120C94D9120C94F71247
:100090000C94A6120C94A4010C94B8120C94A40114
:1000A0000C94A4010C94A4010C94A4010C94A4013C
:1000B0000C94A4010C94A4010C94A4010C94A4012C
:1000C0000C94A4010C94A4010C94A40112292C29D1
:1000D0005F29BA29D429412A652AE82A292B752BB8
:1000E000782B1F2C832B972B262CFF284B2D592D3B
:1000F000932E712F5330B030B230BD30E630082926
:1001000031313F3100002110422063308440A5503E
:10011000C660E770088129914AA16BB18CC1ADD14D
:10012000CEE1EFF13112100273325222B5529442F5
:10013000F772D662399318837BB35AA3BDD39CC39D
:10014000FFF3DEE36224433420040114E664C77441
:10015000A44485546AA54BB528850995EEE5CFF5ED
:10016000ACC58DD55336722611163006D776F66695
:100170009556B4465BB77AA719973887DFF7FEE73D
:100180009DD7BCC7C448E5588668A7784008611861
:1001900002282338CCC9EDD98EE9AFF9488969998D
:1001A0000AA92BB9F55AD44AB77A966A711A500A35
:1001B000333A122AFDDBDCCBBFFB9EEB799B588BDD
:1001C0003BBB1AABA66C877CE44CC55C222C033C81
:1001D000600C411CAEED8FFDECCDCDDD2AAD0BBD2D
:1001E000688D499D977EB66ED55EF44E133E322ED5
:1001F000511E700E9FFFBEEFDDDFFCCF1BBF3AAF7D
:10020000599F788F8891A981CAB1EBA10CD12DC1DA
:100210004EF16FE18010A100C230E3200450254070
:1002200046706760B9839893FBA3DAB33DC31CD3D0
:100230007FE35EF3B1029012F322D23235421452C0
:1002400077625672EAB5CBA5A89589856EF54FE51C
:100250002CD50DC5E234C324A01481046674476410
:1002600024540544DBA7FAB79987B8975FE77EF770
:100270001DC73CD7D326F2369106B0165766767660
:10028000154634564CD96DC90EF92FE9C899E9893C
:100290008AB9ABA94458654806782768C018E108B0
:1002A0008238A3287DCB5CDB3FEB1EFBF98BD89B10
:1002B000BBAB9ABB754A545A376A167AF10AD01A00
:1002C000B32A923A2EFD0FED6CDD4DCDAABD8BAD5C
:1002D000E89DC98D267C076C645C454CA23C832C50
:1002E000E01CC10C1FEF3EFF5DCF7CDF9BAFBABFB0
:1002F000D98FF89F176E367E554E745E932EB23EA0
:10030000D10EF01E00020E060C0411241FBECFEF0A
:10031000D1E2DEBFCDBF12E0A0E0B2E0E6E4FEE64F
:1003200000E00BBF02C007900D92AA31B107D9F7C8
:1003300017E2AAE1B2E001C01D92A132B107E1F7D4
:100340000E94D3310C9422370C940000FC0120E071
:1003500030E007C082819381280F391F0480F58126
:10036000E02D3097B9F7C9010895FB01518340830F
:1003700033832283958384830895CF92DF92EF9213
:10038000FF920F931F93CF93DF938C01FB017A01B0
:10039000690105C0E81BF90BE8010C811D81E8012A
:1003A0008A819B81E817F907A8F71CC0E8018A81B8
:1003B0009B818E1B9F0BE7018E159F0508F4EC01B6
:1003C000D8018D919C91AE01B6018E0F9F1F0E94A6
:1003D0001237CC0EDD1EEC1AFD0AE8010C811D81DE
:1003E000E0E0F0E00115110519F01E141F04F4F20D
:1003F00080E090E0DF91CF911F910F91FF90EF90FF
:10040000DF90CF9008954F925F926F927F928F927C
:100410009F92AF92BF92CF92DF92EF92FF920F9393
:100420001F93CF93DF938C014B015A013901CC24E8
:10043000DD2404C06C01F80104811581011511054A
:1004400019F44424552436C0F801828193818C0D1F
:100450009D1D8816990670F74424552428C0740100
:10046000EC18FD08F801828193818E199F09E5013E
:100470008A159B0508F4EC01F801608171816E0D0D
:100480007F1DAE01C3010E9412374C0E5D1EF801A4
:10049000048115810115110569F0CE0CDF1CCC0E0D
:1004A000DD1E8C0E9D1EAC1ABD0A6C0E7D1E1A142C
:1004B0001B04ACF2C201DF91CF911F910F91FF900D
:1004C000EF90DF90CF90BF90AF909F908F907F90F4
:1004D0006F905F904F900895EF92FF920F931F934C
:1004E000CF93DF93FC0120E030E040E050E0A0E05B
:1004F000B0E02EC0628173816115710531F1C08158
:10050000D18100E010E01EC0888100FD0BC099275A
:10051000982F8827A82BB92BC80101968617970713
:1005200071F403C09927A82BB92B7D01C701AA2715
:10053000BB27280F391F4A1F5B1FA0E0B0E00F5FE9
:100540001F4F219606171707F9F60480F581E02D55
:10055000309781F60BC0DA01C901A070B0709A0122
:1005600044275527280F391F4A1F5B1F203080E082
:10057000380781E0480780E0580768F7C90180958F
:100580009095DF91CF911F910F91FF90EF9008957B
:10059000EF92FF920F931F93CF93DF93CDB7DEB708
:1005A0006A970FB6F894DEBF0FBECDBFE42E089653
:1005B0009A87898740E150E05C874B879E01215FE5
:1005C0003F4F3E872D874096988B8F875A8B498B5C
:1005D000CE0145969C8B8B8BCE0101969E8B8D8B8D
:1005E00088E090E0988F8F8B7A8F698FCB010E9483
:1005F000A601AA2797FDA095BA2FBC01CD010E94A4
:100600006F0469837A838B839C83FF2400271127DF
:10061000C801B7010E946F046D837E838F83988722
:10062000CE0109960E946C026A960FB6F894DEBF5E
:100630000FBECDBFDF91CF911F910F91FF90EF9033
:1006400008958CED95E09093500280934F020895A9
:10065000AFE4B2E004969C0121703070280F391F7E
:1006600002C0A40FB51F8D919C911197AC015F70D2
:100670004217530710F097FF06C0CD018F549240E8
:100680008C5D954074F388E0AB32B80718F080E0D9
:1006900090E00895C90102979C013F70306811965F
:1006A0003C932E93FD01E80FF91F481B590B5F7017
:1006B00051834083CD0102960895CF93DF939C012F
:1006C000EFE4F2E0C0E0D0E006C0808191819F704D
:1006D000EF01E80FF91FCF0102968217930739F057
:1006E000CF018F5492408C5D95407CF327C0808170
:1006F00091819C013F70DF01A20FB31F9F7791830F
:100700008083CD018F5492408C5D95404CF48D9147
:100710009C9197FD05C09F70280F391F318320835E
:10072000209761F02881398137FD08C03F708081B2
:1007300091819F70280F391F39832883DF91CF91D2
:100740000895EFE4F2E040E050E00BC020813181F9
:1007500037FD04C0C9019F70480F591F3F70E20F59
:10076000F31FCF018F5492408C5D95407CF3CA01FA
:1007700008956F927F928F929F92AF92BF92CF9285
:10078000DF92EF92FF920F931F93CF93DF93FB01C2
:100790005A018B01040F151FDC01CC24DD2440E03D
:1007A00050E07AE398EF692E9FEF792E600E711E6C
:1007B0006E167F0608F460C0ED01E980FC9024E02D
:1007C00030E08FEF882E982ECCE0D0E0C401022ECE
:1007D00002C0969587950A94E2F78E159F0530F032
:1007E00042305105B1F42031310599F4C7010C2E86
:1007F00002C0969587950A94E2F7682F6F708F7004
:1008000090700A9718F4862F805D02C0862F895A4F
:1008100081932C5F3F4F249724313105B9F68D9198
:100820009C911197892B21F54115510559F471932C
:100830008D919C911197892B19F441E050E002C0F1
:1008400042E050E087E0C816D10424F4413051055D
:1008500009F071930894C11CD11C129688E0C81647
:10086000D10409F0A5CF4130510531F4719304C092
:100870004130510539F7E4CF11920A191B09CF0114
:10088000801B910BDF91CF911F910F91FF90EF9003
:10089000DF90CF90BF90AF909F908F907F906F90A0
:1008A0000895DC018C918370823021F4FD01218157
:1008B000328113C0833019F020E030E00EC0FD011A
:1008C000319620E030E0AD01475F5F4F819191911B
:1008D000280F391FE417F507C9F7C9010895EF92EA
:1008E000FF920F931F93FB01BC01882799272F2F9D
:1008F0003E2F44275527A90133272227E72EF62E1E
:10090000002711272E293F29402B512BCA01B9015D
:100910001F910F91FF90EF9008959C01DB01FC0166
:1009200004C08D9181934150504041155105C9F744
:10093000C90108958F929F92AF92BF92CF92DF929A
:10094000EF92FF920F931F93CF93DF936C014B01B4
:10095000892B09F4A3C06115710509F49FC080E1DA
:10096000EB0119928A95E9F7D60160E070E090E01A
:1009700046C02A3301F1822F80538A3030F4332766
:1009800027FD3095205330400EC0422F552747FD9C
:1009900050952154263020F49A012753304003C04B
:1009A0009A012755304044E0660F771F4A95E1F7DA
:1009B000622B732B0DC0E92FFF27EE0FFF1FE80DF1
:1009C000F91D072F162F118300839F5F60E070E0F1
:1009D000FD013196ED012981222359F4E92FFF27EA
:1009E000EE0FFF1FE80DF91DE72EF62EF182E082D3
:1009F00055C08C918A3311F42A3341F0DF012C91D8
:100A0000222309F0B6CFFD0101C0319680818823F1
:100A1000E1F7DF01119760E070E017E090E03BC084
:100A20002C912A3311F1822F80538A3030F43327EE
:100A300027FD3095205330400EC0422F552747FDEB
:100A400050952154263020F49A012753304003C09A
:100A50009A0127553040092E02C0220F331F0A94F5
:100A6000E2F7622B732B9C5F0EC0E12FFF27EE0F86
:100A7000FF1FE80DF91DA72EB62EB182A0821150DE
:100A800060E070E090E01197FD0181818A3319F4F4
:100A90008C918A3319F0CA16DB0610F2DF91CF91E0
:100AA0001F910F91FF90EF90DF90CF90BF90AF908C
:100AB0009F908F900895FC017183608353834283DC
:100AC000358324830895CF92DF92EF92FF920F93A4
:100AD0001F93CF93DF938C016B01EE24FF241AC088
:100AE000F80182819381E89EE001E99ED00DF89E95
:100AF000D00D112480819181C80FD91FCE01F6013C
:100B00000995FFEF8F3F9F0759F0019759F008941F
:100B1000E11CF11CF80184819581E816F90600F3C7
:100B2000C0E0D0E0CE01DF91CF911F910F91FF90F7
:100B3000EF90DF90CF900895EF92FF920F931F9365
:100B4000CF93DF93EC017B0100E010E012C08A81BB
:100B50009B819C01029FC001039F900D129F900DED
:100B6000112428813981820F931FF70109950F5FA6
:100B70001F4F8C819D810817190748F3DF91CF9192
:100B80001F910F91FF90EF9008958FB7F8949927D8
:100B900008958FBF0895282F9FB7F894E82FFF2757
:100BA000E059F74F80818F3F81F4E091FC26E217F6
:100BB00071F40BC02093651F04C0FF27E059F74F65
:100BC00020832093FC2620E007C025E005C080910B
:100BD000651F8F3F91F7EECF892F99278FBF822F07
:100BE000992708951F931FB7F8948091B021882307
:100BF00041F483E10E94CB05882319F481E08093BE
:100C0000B021812F99278FBF1F910895382FFA01A6
:100C1000422F213718F082E090E008956683872FF5
:100C20009927858333872187809130029091310203
:100C3000892B19F085E090E008952FB7F8943327B9
:100C400085E08093330210923402F0932F02E093F8
:100C50002E0282E090E09093310280933002109255
:100C6000360210923502445F409332022FBF8FB795
:100C7000F894282F332780910B188A3011F42FBF56
:100C800019C02FBF9FB7F8948091AE09882311F047
:100C900020E006C081E08093AE091092AF0921E008
:100CA000892F99278FBF222329F00E94F20580E027
:100CB00090E00895109231021092300281E090E0AD
:100CC0000895CF93DF93582FDB01823018F081E035
:100CD00090E038C0C82FDD27CC0FDD1FC652D14EA3
:100CE00088819981892B19F085E090E02BC0798368
:100CF00068839B012B5F3F4FF90144838091190268
:100D0000823018F480E090E01DC0F9018681FB017B
:100D100065817727762F6627F90121813327622B9A
:100D2000732B50931902242FAD010E9406069927B8
:100D3000282F882329F082E08093190219821882D3
:100D4000822F9927DF91CF91089580914002E82F5B
:100D5000FF27EE0FFF1FE75CF54F0190F081E02DBC
:100D600020914202222351F08F5F80934002843110
:100D700011F410924002215020934202CF010895B5
:100D8000AC012091A108243118F081E090E0089591
:100D900080911927682F620F712D711DFB0164313D
:100DA000710508F07497EE0FFF1FE15DF74F518357
:100DB00040832F5F2093A10880E090E0089512986F
:100DC0001198109880918D0B8D7F80938D0B0895D5
:100DD000AC012091A9082A3018F081E090E0089534
:100DE00080916708682F620F712D711DFB016A30B9
:100DF000710508F03A97EE0FFF1FE259F04E51834C
:100E000040832F5F2093A90880E090E0089520910F
:100E1000A108222319F440E050E016C08091192760
:100E2000E82FFF27EE0FFF1FE15DF74F4081518153
:100E30001182108221502093A1088F5F809319277F
:100E4000843111F410921927CA010895AC01209140
:100E50004202243118F081E090E00895809141022F
:100E6000E82FFF27EE0FFF1FE75CF54F518340830C
:100E70008F5F80934102843111F4109241022F5F01
:100E80002093420280E090E00895EF920F931F9329
:100E9000AE2D99E0899FF0011124EB57F44F408368
:100EA0005183628373830483158326833783A17000
:100EB00080858E7F8A2B8260808782E00E94CB05AE
:100EC0001F910F91EF9008957FB7F8946091B20051
:100ED00020916B0830916C0840916D0850916E081C
:100EE000B99B11C08091B3009091B200280F311DC1
:100EF000411D511D2F5F3F4F4F4F5F4F290F311D38
:100F0000411D511D04C0260F311D411D511D872F4C
:100F100099278FBFCA01B901089580910B188A30B3
:100F200021F480910509843021F081E080932B0227
:100F3000089585E10E94CB0510922B0208952FB7EA
:100F4000F89433278093C600E0ECF0E08081806461
:100F500080832FBF0895FC016115710519F481E0AC
:100F600090E008958091A9099091AA09892B19F020
:100F700085E090E008957093CA1E6093C91EF093B7
:100F8000AA09E093A90910928E0910928D0981E0B7
:100F900080938F098091C00080648093C00080910D
:100FA000C10080648093C100808121E030E03093F3
:100FB0008E0920938D090E949F0780E090E008959C
:100FC0008FB7F894992720913C022E7F20933C0202
:100FD0002EE720938C088FBF61E070E08CE898E0EA
:100FE0000E94AB0799270895AC01E5E1FBE080E0A2
:100FF00090E09C01858180FF05C0808191818417EC
:10100000950741F0C90101963B968A30910589F711
:101010002FEF30E0C90108950E94F4078F3F91F04F
:1010200099272BE030E0829FF001839FF00D929F83
:10103000F00D1124EB5EF44F858181FF03C08781A1
:10104000908508958FEF9FEF08950E94F4078F3FDA
:1010500019F481E090E00895282F33278BE090E089
:10106000289FF001299FF00D389FF00D1124EB5EB1
:10107000F44F85818860858380E090E008952F9209
:101080003F924F925F926F927F928F929F92AF9218
:10109000BF92CF92DF92EF92FF920F931F93CF9365
:1010A000DF93CDB7DEB729970FB6F894DEBF0FBE3A
:1010B000CDBF6FB76983F894209096093090970957
:1010C00040909809509099096624772488248EE4EA
:1010D000A82E03E8B02ECC24DD24EE24FF2400E06B
:1010E00010E0222D332D442D552D662D772D882D82
:1010F00090E00E94E6342A833B834C835D836E83B9
:101100007F8388879987822E932EA42EB52E240163
:10111000350100E20E94E435A22EB32EC42ED52E56
:10112000A301920156954795379527952A0D3B1DAA
:101130004C1D5D1D57FF05C05F772F5F3F4F4F4F21
:101140005F4F2093960930939709409398095093E5
:101150009909E9818E2F99278FBFCA01B901299674
:101160000FB6F894DEBF0FBECDBFDF91CF911F91B8
:101170000F91FF90EF90DF90CF90BF90AF909F9036
:101180008F907F906F905F904F903F902F90089539
:10119000AF92BF92CF92DF92EF92FF920F931F9385
:1011A000F82E5A016B010E946407AB01BC0191E06B
:1011B000E92E960185018F2D0E9445071F910F9101
:1011C000FF90EF90DF90CF90BF90AF900895613780
:1011D00018F080E090E008950C96089568E00E9471
:1011E000E70808956E5F0E94E708009709F00296ED
:1011F00008950B960895CF93DF93FC01DC011196BF
:101200002181662351F0ED0189819927982F882744
:1012100033272062822B932B09C0ED018981992706
:10122000982F88273327822B932B8F7D8183892FBB
:1012300099278983DF91CF910895FC01278130851B
:10124000C90153E0880F991F5A95E1F7820F931F48
:10125000860F971F6AE070E00E949236708767835E
:101260000895FC0161859285662329F48AE0989FA0
:10127000B001112409C077278AE0989FC00111248A
:101280000E94A63611861286CF010E941D0908957C
:1012900080912202E82FFF27EE0FFF1FE656F14E46
:1012A0000190F081E02D20912402222351F08F5FE4
:1012B000809322028D3011F410922202215020934B
:1012C0002402CF0108958FB7F894992722B134E012
:1012D000232722B98FBF0895AC012091740A2C30C6
:1012E00018F081E090E0089580919B09682F620FCB
:1012F000712D711DFB016C30710508F03C97EE0FEC
:10130000FF1FEC5EF74E518340832F5F2093740ADA
:1013100080E090E00895AC012091730A2C3018F021
:1013200081E090E0089580910D20682F620F712D6B
:10133000711DFB016C30710508F03C97EE0FFF1F2B
:10134000E150F94D518340832F5F2093730A80E071
:1013500090E008950F931F93CF93DF93EC01892BB7
:10136000E9F02091C11E3091C21E8FEF2F3F380748
:10137000A9F080915908813019F4198218820BC0A4
:101380000091C31E1091C41EC9010E940C08080FD1
:10139000191F1983088380E090E002C081E090E08B
:1013A000DF91CF911F910F910895FC0180818D50A5
:1013B00099270895685F0E94E708009709F008964A
:1013C0000895FC01635F60830895882319F08CB54C
:1013D000806402C08CB58F7B8CBD08950F931F93E2
:1013E000982F1FB7F89480912002823099F5809150
:1013F0000B02891779F58091090220E030E08F3FD8
:1014000011F421E030E0232BF1F49FEF90930B02D5
:101410008F3F19F42FEF30E00DC0282F3327F9014B
:10142000EC55F64F8081809309028F3F11F4909321
:101430000A0290832093A60981E0809320028DE028
:101440000E94CB0505C08FEF80930B021092200203
:1014500001E001C000E0812F99278FBF1FB7F894EA
:1014600080912002882311F40E94E509812F992799
:101470008FBF90E0013009F491E081E09827892F37
:1014800099271F910F910895882319F08CB58068D2
:1014900002C08CB58F778CBD08950F931F9380E0A9
:1014A0000E94E5090FB7F8941127229A2398219AF0
:1014B000209A8CB580618CBD80E00E94440A8CB576
:1014C000877F8CBD8CB58B7F8CBD81E00E94E50948
:1014D0008DB581608DBD8CB58C7F8CBD0FBF1F918C
:1014E0000F9108958FB7F89420910D0B30910E0B4A
:1014F00040910F0B5091100BE0918400F09185000A
:10150000B09B08C02F5F3F4F4F4F5F4FE09184006B
:10151000F091850099278FBFC901772766279F0122
:1015200044275527622B732B842B952B0895FC01A0
:10153000EC57FF4F808182608083089580589F4FD1
:101540000895FC0182819927982F882721813327CC
:10155000822B932B25E0969587952A95E1F781704C
:1015600090700895AC01EFB7F89420918400309109
:101570008500C901841B950B03968617970720F0F9
:10158000B9016D5F7F4F02C0640F751F6115710552
:1015900011F461E070E061507040709389006093D5
:1015A000880082E086BB80916F00826080936F002C
:1015B0008E2F99278FBF0895CF93DF93EC010E9460
:1015C000A10A882339F18A8129819927982F8827B0
:1015D0003327822B932B87749C7C81549848D1F4B9
:1015E0008F814E812FB7F894332760910302709159
:1015F00004022FBF20E09927982F88275527842B96
:10160000952B8617970709F021E081E02827822F84
:10161000992702C080E090E0DF91CF91089521E00A
:101620002093AB092093490D2091840030918500CF
:10163000BC01C9010E94B20A089580910309823059
:1016400031F481E08093030988E00E94CB0508957E
:10165000EF92FF920F931F937C018FB7F894992715
:1016600000911018109111180F5E1E4F1093111851
:1016700000931018015111408FBF8AE00E94CB05E2
:10168000C801B7010E9492368A5D9E4F1F910F914B
:10169000FF90EF9008959BE0899FF0011124EB5E8D
:1016A000F44F7183608312821382148285E08583F4
:1016B0001682108617820895882349F0682F7727AD
:1016C00084EC99E00E94A6366B3F710510F06FEF35
:1016D0007FEFCB010895CF92DF92FF920F931F937C
:1016E000CF93DF93282F062F482F55278BE090E0CC
:1016F000489FE001499FD00D589FD00D1124CB5E2B
:10170000D44F8D8182FF02C08B7F8D838A81302FE1
:10171000381B0A838B818F5F8B83332379F08C8115
:10172000830F81508C833B3048F068817981822F10
:101730000E944B0B0A8381E08B836EC08BE090E0AC
:10174000489FF001499FF00D589FF00D1124EB5E6A
:10175000F44F83812481820F912D911D03971CF4F6
:10176000333008F459C0C080D180C5E1DBE0888106
:1017700099818C159D0509F049C08D81282F33274B
:1017800020FF44C06B81FC80F60E21FD16C0772738
:10179000882799272AEF30E040E050E00E94673622
:1017A0002F2D3327442755270E94B936DA01C90166
:1017B0002E830E945C0B98878F838D8182608D833E
:1017C0000E8189E0089F800111246B81772788278B
:1017D00099272AEF30E040E050E00E9467362F2D35
:1017E0003327442755270E94B936C801820F911D1F
:1017F0006AE070E00E94A636CB016E831B821C82D9
:101800000E945C0BBC01CE010E941D092B968BE04F
:10181000C338D80709F0ABCFDF91CF911F910F915B
:10182000FF90DF90CF90089580E090E0EAE1FBE048
:101830009C01808180FF08C0C90101963B968A30D7
:101840009105B1F72FEF30E0C9010895982FAFEF60
:1018500060E070E040E050E0EAE1FBE08081282FAA
:10186000332720FF0BC021FF09C023FD07C02281C1
:1018700033812617370710F0A42FB9014F5F5F4F50
:101880003B964A30510551F7892F992768177907F8
:1018900018F48FEF90E008958A2F99270895AC01EE
:1018A000309169088FEF4F3F580711F020E012C0C8
:1018B000832F99270895E22FFF2773E0EE0FFF1F74
:1018C0007A95E1F7E555F74F808191818417950767
:1018D00019F02F5F231779F7822F992708951F9307
:1018E000CF93DF93162FC0E0D0E06EE60E94F2089F
:1018F000FC0180818123811711F4C1E0D0E0CE0189
:10190000DF91CF911F910895AC01209124022D30D9
:1019100018F081E090E0089580912302E82FFF27DE
:10192000EE0FFF1FE656F14E518340838F5F809389
:1019300023028D3011F4109223022F5F2093240292
:1019400080E090E00895982F969596959695E4E816
:10195000FBE0E90FF11D877021E030E002C0220FAB
:10196000331F8A95E2F78081822399270895809119
:10197000821F882319F02FE150E002C058E02EE1C9
:10198000622F7FB7F8948091A3088E7F8093A3087D
:1019900080917C00982F9F718295869586958370A3
:1019A00019F080E090E00CC040E03327892F9927A0
:1019B0002817390709F041E081E04827842F99274B
:1019C000982F9170990F8091A3088178262F2F71FD
:1019D000422F440F440F892B842B8093A308332775
:1019E00020937C00583059F58091661F9091671FB5
:1019F00021E08638920718F087E090E01FC0833C12
:101A0000910518F086E090E019C08136910518F034
:101A100085E090E013C08033910518F084E090E0F9
:101A20000DC08831910518F083E090E007C00C9755
:101A300018F082E090E002C080E090E0582F5770EC
:101A4000887D852B886D992780937A00872F992729
:101A50008FBF0895DF92EF92FF920F931F938FB77E
:101A6000F894282F3327D22E9091B3008091B200A2
:101A700047B3981711F041FF02C02FBF71C080918A
:101A800091098823E1F10E946407E0906008F090DA
:101A90006108009162081091630820910E20309136
:101AA0000F2040911020509111206E197F09800B5A
:101AB000910B621773078407950720F01092910924
:101AC00071E01EC02E0D3F1D401F511F80916B08FD
:101AD00090916C08A0916D08B0916E08281B390B8D
:101AE0004A0B5B0B273E31054105510540F4822F1F
:101AF000223010F070E005C070E082E002C070E0BB
:101B000086EE682F61508091B60083FDFCCF8091F6
:101B1000B200681709F46F5F20916B0830916C0870
:101B200040916D0850916E08DA01C9010196A11D1E
:101B3000B11D860F911DA11DB11D82179307A4072A
:101B4000B50710F4622F60958091B60083FDFCCF3D
:101B50006093B300DFBE772319F081E00E94CB05CC
:101B60001F910F91FF90EF90DF900895AFB7F89419
:101B7000BB27E1E0E09391096093600870936108EE
:101B8000809362089093630820930E2030930F2077
:101B90004093102050931120AFBF0E942A0D08954A
:101BA0001F920F920FB60F9211248F938091B00065
:101BB0008093B0008091B60081FDFCCF8F910F9093
:101BC0000FBE0F901F9018951F920F920FB60F9295
:101BD00011242F933F934F935F936F937F938F9332
:101BE0009F93AF93BF93EF93FF93409178005091F1
:101BF000790078948FB7F89499272091A308322F11
:101C00003695317021708FBF222329F580917A009B
:101C1000877F80937A008091370A813021F082306B
:101C200009F043C00AC0332351F050930A1840937F
:101C3000091884E00E94CB0538C0332349F48DE7AE
:101C400090E0019701960197E1F70E94B70C2DC033
:101C50001092370A2AC08FB7F89499278FBF2FB7F1
:101C6000F894332780917A00582F5770482F40728C
:101C7000987D942B952B8074977B982B90619F7700
:101C8000892F992780937A00887D842B852B8773F1
:101C90008061992780937A00887D842B852B877BB0
:101CA0008069992780937A002FBFFF91EF91BF91B0
:101CB000AF919F918F917F916F915F914F913F91E4
:101CC0002F910F900FBE0F901F9018951F920F929B
:101CD0000FB60F9211240F931F932F933F934F939F
:101CE0005F936F937F938F939F93AF93BF93CF93A4
:101CF000DF93EF93FF932EB5E091C00CF091C10CF0
:101D0000309739F08091050B9091060BE80FF91F81
:101D100020838091050B9091060B01969093060B02
:101D20008093050B80E00E94440AC091050BD0917E
:101D3000060B20912D0830912E08C217D30708F00A
:101D400042C00091AB211091AC214091C00C509148
:101D5000C10CCE010A962817390708F4C901DA0127
:101D6000AC0FBD1FF801EC0FFD1F9C01215030404E
:101D700015C00115110531F080818EBD0DB407FE2F
:101D8000FDCF04C01EBC0DB407FEFDCF8EB54115BE
:101D9000510509F08C93219611963196C217D307FD
:101DA00040F381E00E94440A0115110531F00C0F47
:101DB0001D1FF80180818EBD01C01EBCD093060B93
:101DC000C093050B11C01092C10C1092C00C109260
:101DD000AC211092AB2110922E0810922D08109277
:101DE000060B1092050B8EB5FF91EF91DF91CF910D
:101DF000BF91AF919F918F917F916F915F914F9123
:101E00003F912F911F910F910F900FBE0F901F9038
:101E1000189578941F920F920FB60F9211240F907D
:101E20000FBE0F901F90189578941F920F920FB6C7
:101E30000F9211240F900FBE0F901F901895789459
:101E40001F920F920FB60F9211242F933F938F93EF
:101E50009F93AF93BF932FB7F894332780910D0BC7
:101E600090910E0BA0910F0BB091100B0196A11D3C
:101E7000B11D80930D0B90930E0BA0930F0BB0939D
:101E8000100B2FBFBF91AF919F918F913F912F91D9
:101E90000F900FBE0F901F901895E4E0F1E06927B6
:101EA000660FF11DE60FF11DC895982F802D319614
:101EB000C89590250895982F80913702882389F539
:101EC000992379F531E030933702809112028093A3
:101ED000380220912C02822F8170809368088091B3
:101EE00017029091180290933A02809339028091E0
:101EF0002D0280933B0232273170267EE32FFF278D
:101F0000EE0FFF1FED5EFD4F8081918190931802CF
:101F100080931702232B20932C0288E10E94CB058B
:101F2000089580912C0280FF02C08B7F01C08D7FBD
:101F300080932C0208950F931F93082F162F8091E2
:101F400005098130D9F0813038F0823009F44AC077
:101F5000833009F028C159C0002309F458C11092F8
:101F6000BC1E1092BB1E109213181092D51E109218
:101F700090091092120B1092110B39C1002309F035
:101F800046C18091110B9091120B0E944D0F9093BE
:101F9000120B8093110B82E0809305091093D51EDC
:101FA000143409F000C125C18695869503C080913F
:101FB0002C028695817009F0F6C080912C0299233D
:101FC00011F0846001C0826080932C0280912C0209
:101FD000877E886080932C0210922D028FEF809371
:101FE000120215C1002309F0DEC0609390098091B0
:101FF000110B9091120B0E944D0F9093120B809336
:10200000110B83E08093050902C1809113188F3F63
:1020100009F4C9C0002309F461C0823008F4C3C0C8
:10202000E091BB1EEE2309F4EBC04E2F4150E42F8C
:10203000FF27E554F14E82819927382F2227442328
:1020400011F4E2E002C0E42FE150FF27E554F14E25
:1020500082819927282B392B8091110B9091120B9B
:102060002817390709F09FC080E00E945B0F30916C
:1020700090098091FD0A2091FE0A982F9F5F96306B
:1020800008F090E0921771F0E82FFF27E350F54F2A
:1020900032838F5F8093FD0A863010F01092FD0A24
:1020A0000E94F2051092BC1E1092BB1E94E0909309
:1020B0000509109213181092D51E109290091092D3
:1020C000120B1092110B80913C028D7F80933C0289
:1020D00080912B02882309F49AC084C0823008F4CE
:1020E0004EC0E091BC1EFF27E554F14E8281482F7F
:1020F0005527342F20912C02822F86958695869520
:10210000837099278130910519F00297F9F40EC078
:10211000277E206120932C02442311F485E001C026
:1021200080E080932D023093120210C080912D0226
:10213000873860F4E0911702F0911802E80FF11D62
:10214000408380912D028F5F80932D028091BC1E71
:10215000E82FFF27E554F14E62818F5F8093BC1E0C
:10216000833010F01092BC1E77278091110B909154
:10217000120B0E944D0F9093120B8093110B8091C4
:10218000BB1EE82FFF27E554F14E12838F5F80932B
:10219000BB1E833010F01092BB1E809113188F5F0E
:1021A0008093131834C01092BC1E1092BB1E14E012
:1021B00010930509109213181092D51E10929009D1
:1021C0001092120B1092110B80913C028D7F809324
:1021D0003C0281E00E945B0F80912B02882329F052
:1021E000109305090E948D0712C0002381F081E041
:1021F00009CF80912C02982F917080FDD5CED7CE3B
:102200008091BF1E9927382F222742E01CCF1F91B3
:102210000F9108951F920F920FB60F9211242F93D2
:102220003F934F935F936F937F938F939F93AF935E
:10223000BF93EF93FF938091C00087FF42C06091EE
:10224000C600E091130BF091140B309719F18091B7
:10225000AE219091AF21E80FF91F60830196909312
:10226000AF218093AE2120911A2730911B2782172E
:10227000930738F11092140B1092130B8091D8171A
:102280008330F9F08091C1008F778093C100109264
:10229000D81717C06E3719F460E081E010C0809144
:1022A0003C026D3721F4826080933C020AC081FFBA
:1022B00005C08D7F80933C0280E2682780E00E9409
:1022C0009B0FFF91EF91BF91AF919F918F917F9164
:1022D0006F915F914F913F912F910F900FBE0F9093
:1022E0001F901895982F8D57823068F480913C028A
:1022F000816080933C0280E28927809312188DE7E9
:1023000080938C0802C090938C0861E070E08CE8A8
:1023100098E00E94AB079927089578941F920F9236
:102320000FB60F921124FF920F931F932F933F9399
:102330004F935F936F937F938F939F93AF93BF93CD
:10234000CF93DF93EF93FF9320918D0930918E0906
:102350008091C91E9091CA1E2817390780F4E09118
:10236000A909F091AA09E20FF31F80812F5F3F4F67
:1023700030938E0920938D090E949F07D1C010923F
:10238000AA091092A90910928F098091C1008F7B30
:102390008093C100FFB6F89480913C0280FF0EC08C
:1023A0008E7F80933C028091121880938C0861E0AC
:1023B00070E08CE898E00E94AB07AFC080910B18EA
:1023C000843009F48CC0853040F4823021F18330B0
:1023D000B8F5813009F09CC00DC0863009F48DC07D
:1023E000863008F483C0873009F48EC0883009F045
:1023F0008FC091C08091A5090E947211082F83E0BF
:1024000080930B186091A509809117279091182748
:102410000E944D0F10C080916D1F0E947211082FF5
:1024200083E080930B1860916D1F80911727909126
:1024300018270E944D0F909318278093172766C086
:10244000E091830BFF27EE0FFF1FE355F64F8081CE
:102450000E947211082F1091830BC12FDD27FE01FE
:10246000EE0FFF1FE355F64F608180911727909183
:1024700018270E944D0F90931827809317272091BB
:10248000A1092F5F2093A109113039F58091330202
:10249000E0912E02F0912F02E80FF11DE0818F5F95
:1024A0008093330290913202981730F482E0809347
:1024B000AE0940E050E002C04E2F5527DE01AA0FC2
:1024C000BB1FFD01E455F64F8081823031F02F3F74
:1024D00021F0A355B64F4C9319C084E012C08091EF
:1024E00017270E947211082F85E00BC080911827D2
:1024F0000E947211082F86E004C00E94E007082F96
:1025000087E080930B1802C088E003C0002329F005
:1025100089E080930B180E94F2058F2D99278FBFB9
:10252000FF91EF91DF91CF91BF91AF919F918F91EB
:102530007F916F915F914F913F912F911F910F91DB
:10254000FF900F900FBE0F901F9018951F920F9243
:102550000FB60F9211248F938091C80087FF02C09D
:102560008091CE008F910F900FBE0F901F90189505
:1025700078941F920F920FB60F9211240F900FBEF6
:102580000F901F90189578941F920F920FB60F928C
:1025900011240F900FBE0F901F90189578941F92E2
:1025A0000F920FB60F9211240F900FBE0F901F9035
:1025B000189578941F920F920FB60F9211240F90D6
:1025C0000FBE0F901F90189578941F920F920FB620
:1025D0000F9211248F939F93809196009091970072
:1025E0009F918F910F900FBE0F901F901895789428
:1025F0001F920F920FB60F9211242F933F938F9338
:102600009F932FB7F894332780919C0990919D094F
:10261000019690939D0980939C092FBF9F918F9164
:102620003F912F910F900FBE0F901F901895CF9351
:10263000DF9310921B0290913F0220E0992309F44E
:1026400021E0222361F580913D02E82FFF27EE0F64
:10265000FF1FEF5CF74E0190F081E02D222351F433
:102660008F5F80933D028A3011F410923D029150A9
:1026700090933F02309769F0C6E8DFE1DF0187E819
:102680000D9009928150E1F7CF010E94E80688235E
:1026900019F00E94DF0603C080E00E94CB05DF91A5
:1026A000CF9108951F920F920FB60F9211242F937E
:1026B0003F934F935F936F937F938F939F93AF93CA
:1026C000BF93EF93FF938091B0008093B00080910F
:1026D000B60081FDFCCF8091B30099270196AA270F
:1026E000BB2720916B0830916C0840916D08509188
:1026F0006E08280F391F4A1F5B1F20936B08309309
:102700006C0840936D0850936E0878940E942A0DCF
:10271000FF91EF91BF91AF919F918F917F916F91B9
:102720005F914F913F912F910F900FBE0F901F908F
:102730001895EF92FF920F931F9380910E02909144
:102740000F02A0911002B0911102B695A79597952E
:1027500087958093FC089093FD08A093FE08B093A2
:10276000FF080E943F08E090FC08F090FD080091EF
:10277000FE081091FF08A80197010E94B936AB012D
:10278000BC014E0D5F1D601F711F4093FC085093EC
:10279000FD086093FE087093FF081092BA1E82E055
:1027A0000E94C8081F910F91FF90EF9008950F931A
:1027B0001F93CF93DF93182F0FB7F89480912002C7
:1027C000882311F40E944D0A802F99278FBF8FB75D
:1027D000F894C82FDD272C2F80912002882361F4E4
:1027E00081E0809320021093A6098DE00E94CB0522
:1027F000CFBF80E090E021C0E12FFF27EC55F64FDE
:1028000080818F3F89F4E0910A02E11789F40CC0BE
:102810001093090204C0FF27EC55F64F1083109364
:102820000A0280E090E002C085E090E02FBF05C082
:10283000809109028F3F79F7EBCFDF91CF911F9104
:102840000F9108950F931F93FC0100810D501127E4
:1028500062E00E94E708FC01208133272F7030706E
:10286000C901880F991F820F931F081B0250802FE8
:1028700099271F910F910895CF93DF93EC018091D9
:102880001B02882391F4423109F055C0A2E9BFE14F
:10289000FB0182E101900D928150E1F782E180938A
:1028A000841F80E00E94CB0546C02091A908222306
:1028B000C9F080916708E82FFF27EE0FFF1FE2594C
:1028C000F04E408151811182108221502093A9083D
:1028D0008F5F809367088A3011F410926708411562
:1028E000510519F40E94630926C0DA011C96FB0108
:1028F00082E101900D928150E1F790913F029A3070
:10290000A8F480913E02E82FFF27EE0FFF1FEF5C37
:10291000F74E518340838F5F80933E028A3011F4DB
:1029200010923E029F5F90933F0205C0CA010E9431
:10293000E8060E94DF06CE01DF91CF9108958FB7A0
:10294000F894282F3327922F80910B02882331F49B
:1029500080912002823011F42FBF13C09FBF8FB728
:10296000F894282F332780912002882369F482E08D
:102970008093200210920B022FBF0E944D0A209AD2
:10298000289A81E090E008952FBF80E00E94D7133D
:1029900080E090E008954F925F926F927F928F92C5
:1029A0009F92AF92BF92CF92DF92EF92FF920F93DE
:1029B0001F93CF93DF932C0180912C08882309F07B
:1029C0008DC18091AD21853009F088C10E949F148E
:1029D000882309F483C18091C01E882309F07EC139
:1029E00064E8862E912C840C951CD4018C9182FD78
:1029F00002C090E00BC0E5E8F0E04E0E5F1EF20171
:102A000091812BE73FEF420E531E9F708091380A51
:102A1000981781F09093380A289885EC8EBD0DB4F4
:102A200007FEFDCF8EB590689EBD0DB407FEFDCFAD
:102A30008EB5289AE20121968981F201218140E038
:102A40009927982F88273327822B932B87749C7C78
:102A50008154984809F441E0442301F1289886E81C
:102A60008EBD0DB407FEFDCF8EB51EBC0DB407FEA6
:102A7000FDCF8EB5289A99278F71907020919A0971
:102A80004091FB08240F312D311D43E035952795EA
:102A90004A95E1F7281739070CF420C1289882ECF1
:102AA0008EBD0DB407FEFDCF8EB589E08EBD0DB491
:102AB00007FEFDCF8EB5289A0E94720A7B018C0119
:102AC000D4018C9184FD03C0E0E0F0E005C0F20188
:102AD00080818550E80FF11D289881E88EBD0DB4E6
:102AE00007FEFDCF8EB51EBC0DB407FEFDCF8EB523
:102AF000289A8F71893079F0289882EC8EBD0DB4B8
:102B000007FEFDCF8EB586E08EBD0DB407FEFDCF6E
:102B10008EB5289AE3C08FB7F89499272F9A209101
:102B20008400309185008FBF2F98289880E68EBD55
:102B3000D2019C910DB407FEFDCF8EB59EBD792FBD
:102B40007250773010F4672F01C067E0DE01962FD6
:102B50004D910DB407FEFDCF8EB54EBD9150C1F71E
:102B60006150C60FD11D6F5F21962E193F092E555A
:102B70003F4F3901882477FC8094982C6E0C7F1C81
:102B8000801E911E309719F4972F961B42C020810A
:102B9000E1808281A3809927AA27BB27BA2FA92F7A
:102BA000982F8827332744275527522F4427332728
:102BB0002227FF24002711278701FF24EE242E2936
:102BC0003F29402B512BBB24CC24DD242A293B292F
:102BD0004C295D29822B932BA42BB52B86199709A1
:102BE000A809B9098383292F3A2F4B2F5527228310
:102BF0009D014427552721838B2F9927AA27BB277F
:102C00008083C2CF28810DB407FEFDCF21968EB5FB
:102C10002EBD9150B8F70DB407FEFDCF8EB5289AA2
:102C2000289882EC8EBD0DB407FEFDCF8EB586E0F0
:102C30008EBD0DB407FEFDCF8EB5289A3097D1F129
:102C40002081E1808281A3809927AA27BB27BA2F00
:102C5000A92F982F8827332744275527522F4427F9
:102C600033272227FF24002711278701FF24EE2482
:102C70002E293F29402B512BBB24CC24DD242A298B
:102C80003B294C295D29822B932BA42BB52B860D38
:102C9000971DA81DB91D8383292F3A2F4B2F552728
:102CA00022839D014427552721838B2F9927AA270B
:102CB000BB278083C2010E94970AC2010E949E0A1C
:102CC000FC01608271828282938286E08093AD21D2
:102CD00084E080932C0880E090E002C085E090E0E2
:102CE000DF91CF911F910F91FF90EF90DF90CF90E8
:102CF000BF90AF909F908F907F906F905F904F901C
:102D000008951F93982F1FB7F89480911E02823068
:102D100099F580910802891779F58091060220E0E3
:102D200030E08F3F11F421E030E0232BF1F49FEFEE
:102D3000909308028F3F19F42FEF30E00DC0282F39
:102D40003327F901E655F74F8081809306028F3FC4
:102D500011F49093070290832093A60881E080935A
:102D60001E0285E00E94CB0505C08FEF809308020C
:102D700010921E0221E001C020E0812F99278FBF11
:102D800090E0213009F491E081E09827892F99277C
:102D90001F91089580931220882311F484E001C0CC
:102DA00081E08093030988E00E94CB050895CF92CB
:102DB000DF92EF92FF920F931F936C017B010E94B1
:102DC0003F08DC01CB01B6010E949236E80EF91EE5
:102DD00000271127B801A70184E00E94C8081F91AD
:102DE0000F91FF90EF90DF90CF900895CF93DF93F6
:102DF000EC018FE38A8780912B088F5F80932B08EB
:102E00008B8380911F02882319F085E090E01CC01D
:102E1000C458DF4F88819981CC57D040892B21F04D
:102E200061E0CE010E94FB08D0932F18C0932E18AA
:102E300010920F1810920E1881E080931F0286E006
:102E40000E94CB0580E090E0DF91CF910895FF9242
:102E50000F931F93CF93DF93F82E8B01EA01622F1C
:102E6000213718F086E090E092C0FA013196818116
:102E7000298170E09927582F44273327422B532B61
:102E8000CA0187749C7C8154984809F471E07723C7
:102E900049F4CA0180739070816498688983892F8E
:102EA00099278183635F68832FB7F89433278091D4
:102EB0000302909104022FBF8887892F9927898761
:102EC0002FB7F8943327809105022FBF99278C8361
:102ED0001D82CE010E94F908FC01F0820E83812F31
:102EE00099278F838FB7F894282F332780911E025C
:102EF000882371F482E080931E02109208022FBF93
:102F0000CE010E94F6169927182F882399F00FC03A
:102F10002FBFD093A808C093A7088FB7F894C82FE5
:102F2000DD272C2F80911E02882399F406C080E0B3
:102F30000E948116812F99272AC081E080931E026A
:102F40001092A60885E00E94CB05CFBF80E090E0FC
:102F50001EC08091AA088F3F89F4E0910702EE23FA
:102F600069F010C01092060204C0FF27E655F74F23
:102F700010821092070280E090E002C085E090E0AD
:102F80002FBF05C0809106028F3F79F7EBCFDF910D
:102F9000CF911F910F91FF900895EF92FF920F93A1
:102FA0001F93CF93DF93E82E8B01F42E81E08E15D3
:102FB00018F481E090E03BC0CE2DDD27CC0FDD1F63
:102FC000C75FD44F88819981892B19F085E090E003
:102FD0002EC079836883EDE0FE0EFB01F082F3EFF3
:102FE000FF0E80910C02823018F480E090E01FC048
:102FF000CB010E94F908FC018081F80167817727E5
:10300000762F662726813327622B732BE0920C02E2
:103010002F2DA8010E9427179927282F882329F0F0
:1030200082E080930C0219821882822F9927DF9107
:10303000CF911F910F91FF90EF900895BF92CF9283
:10304000DF92EF92FF920F931F93CF93DF93B82EEF
:103050008B017A01690180914302909144020196AB
:10306000909344028093430290E08091A1088823CA
:1030700009F491E09923C1F50E940707EC010C9631
:1030800099F140913018552760E070E00E941B379D
:10309000BC860E87812F99278D87E88A8F2D9927E7
:1030A0008F87CA8A8D2D9927898B809143029091B1
:1030B00044028C8B892F99278B8BCE010E94260787
:1030C000882331F48BE10E94CB0580E090E00EC0B4
:1030D000809145029091460201969093460280931A
:1030E0004502CE010E94C00681E090E0DF91CF91C1
:1030F0001F910F91FF90EF90DF90CF90BF900895B8
:103100001F93CF93DF93182F809143029091440235
:103110000196909344028093430290E08091A1082D
:10312000882309F491E0992361F50E940707EC01D7
:103130000C9639F140913018552760E070E00E94FC
:103140001B371C8780914302909144028C8B892FFE
:1031500099278B8BCE010E942607882331F48BE1BF
:103160000E94CB0580E090E00EC0809145029091D6
:10317000460201969093460280934502CE010E943A
:10318000C00681E090E0DF91CF911F910895CF9329
:10319000DF93EC010E944F0C282F809169082817BB
:1031A000D1F0382F31503093690813C0822F9927FE
:1031B000E3E0880F991FEA95E1F7DC01A555B74FC9
:1031C000FC01ED54F74F88E001900D928150E1F73A
:1031D0002F5F231758F38091C11E9091C21E8C1748
:1031E0009D07A1F48FEF9FEF9093C21E8093C11EA5
:1031F0001092C41E1092C31E1092C51E1092C61EBD
:1032000081E080932A0281E10E94CB05DF91CF917A
:1032100008951F93CF93DF93162FE0914002FF276D
:10322000EE0FFF1FE75CF54FC081D181209719F0A9
:10323000C817D90751F080914D0290914E02019626
:1032400090934E0280934D021AC00E94A506CE01B3
:103250000E94C006112351F480914B0290914C02C0
:10326000019690934C0280934B0209C080914902D1
:1032700090914A02019690934A02809349021092DB
:10328000831F90E080914202882309F491E0992302
:1032900019F48BE10E94CB05DF91CF911F91089526
:1032A000AF92BF92CF92DF92EF92FF920F931F9354
:1032B000CF93DF93B82E7B01A42E69018091430246
:1032C000909144020196909344028093430290E0CF
:1032D0008091A108882309F491E09923C9F50E94FF
:1032E0000707EC018C01045F1F4F91F140913018EA
:1032F000552760E070E0C8010E941B37BC86EE864F
:103300008F2D99278D87F801A382C98A8D2D992742
:10331000888B80914302909144028C8B892F99274E
:103320008B8BCE010E942607882331F48BE10E940B
:10333000CB0580E090E00EC080914502909146025E
:1033400001969093460280934502CE010E94C006EA
:1033500081E090E0DF91CF911F910F91FF90EF906E
:10336000DF90CF90BF90AF900895AF92BF92CF9271
:10337000DF92EF92FF920F931F93CF93DF93809191
:10338000C01E882309F407C10E949F14882309F4F2
:1033900002C18FB7F8949927C0919E09D0919F09D7
:1033A0008FBF1092C01E28988FE88EBD0DB407FE07
:1033B000FDCF8EB51EBC0DB407FEFDCF8EB5289A8D
:1033C000982F80912C08833011F0873031F485E0FC
:1033D0008093AD2188E080932C08A92EBB24A2FE07
:1033E00068C080912C08863019F410922C0803C014
:1033F000882309F05EC0943009F046C0289886E81A
:103400008EBD0DB407FEFDCF8EB51EBC0DB407FEFC
:10341000FDCF2EB5289A2F718091FB08982F969595
:103420009695322F391B830F8093FB08E091640837
:10343000F0916508DF01AC57BF4F8C918B7F88609E
:103440008C93EB57FF4F21830E94720A6B017C0122
:103450000091640810916508C8010E94970AC8018C
:103460000E949E0AFC01CC19DD092797CE01AA27EC
:1034700097FDA095BA2F8C0D9D1DAE1DBF1D80839D
:103480009183A283B38312C0E0916408F091650830
:10349000EC57FF4F8081877F8083E0916408F09133
:1034A0006508EC57FF4F80818D7F808385E0809396
:1034B0002C08A3FE70C080912C08843009F04EC007
:1034C00085E08093AD2110922C0880916A088330AA
:1034D00019F410926A085FC0C091FD26D091FE26B3
:1034E000CE010E94A10A882389F18A812981992726
:1034F000982F88273327822B932B87749C7C8154A9
:10350000984821F58F812E819927982F8827332776
:10351000822B932B8F5F9F4FC9F090E08091490DD4
:10352000882309F491E0992389F012E01093AB0904
:1035300081E08093490D809184009091850069E934
:1035400073E00E94B20A10936A0825C010926A08BC
:103550001092040980E00E94CA161DC08530D9F47B
:1035600020919A09289886E88EBD0DB407FEFDCFFC
:103570008EB51EBC0DB407FEFDCF8EB5289A8F7197
:10358000922F96959695891B280F20939A0989E08A
:1035900080932C0808C090912C08992309F4E9C263
:1035A000993009F016C2289880E28EBD0DB407FE4E
:1035B000FDCF8EB51EBC0DB407FEFDCF8EB5482FD6
:1035C0005527433008F49DC3842F99278E379105E2
:1035D0000CF097C31EBCE0916408F091650840832D
:1035E000542F5250573010F4452F01C047E0DF01EF
:1035F0001196242FFD0160E070E00DB407FEFDCFB1
:103600008EB51EBC992781936827062E6295607F30
:103610006025072E762F62956F70062666957627B1
:103620006727660F660F660F6025215031F74150FE
:10363000A40FB11D4F5F1196E0916408F0916508E9
:10364000818190E08770823009F491E0992349F0FC
:1036500020E030E080916A08823081F421E030E09F
:103660000DC08FB7F894282F332790E08091B41EB7
:10367000833008F491E02FBF292F3327232B09F43F
:103680005EC0952F941B18C00DB407FEFDCF8EB5FC
:103690001EBC8C938D916827062E6295607F6025F5
:1036A000072E762F62956F70062666957627672718
:1036B000660F660F660F6025915030F70DB407FE58
:1036C000FDCF8EB51EBC9B012827022E2295207FA0
:1036D0002025032E322F22952F7002262695322781
:1036E0002327220F220F220F20250DB407FEFDCF26
:1036F0008EB51EBC2827022E2295207F2025032E62
:10370000322F22952F700226269532272327220F4B
:10371000220F220F20250DB407FEFDCF8EB5E091BC
:103720006408F0916508EB57FF4F8083289A15E0F5
:103730001093AD2110922C08232B31F016C20DB43A
:1037400007FEFDCF8EB5DDC2E0906408F0906508FD
:1037500067010894C11CD11CF701818190E0282FDA
:103760003327277030702230310509F491E08091C1
:103770006A08992329F1823009F026C1F701938163
:10378000E091FD26F091FE268381981709F01CC177
:103790002230310509F018C180916F008D7F809330
:1037A0006F001092490DEC57FF4F8081816080833C
:1037B00010926A081092040980E00E94CA1604C19F
:1037C0008823C9F4C7010E94DC0A8823A1F0109362
:1037D000750A82E08093760A1092770AF701838156
:1037E0008093780A85E79AE00E94CB14882319F425
:1037F00083E080936A080091840010918500C701DE
:103800000E94DC0A882311F0045E1C4F1093080B01
:103810000093070B80918400909185009801281BEC
:10382000390B12161306A4F480910409882369F455
:1038300090E08091490D882309F491E0992341F0AB
:10384000C9010E940F0B80E801C0806880930409C1
:10385000F601808527819927582F44273327422B4B
:10386000532B80916F08282F3327F901EE0FFF1F8C
:10387000E553F14E8081918170914A0D841795072F
:1038800069F4F901E950F94D8081871709F467C09F
:10389000872F8F5F80934A0D80831DC000E010E06A
:1038A00080E090E0CBECDEE1E7EFF6E2DF01682FAD
:1038B0009C01888199818417950779F420936F087A
:1038C00090914A0D8C91891709F449C0892F8F5F17
:1038D00080934A0D8C9300E829C08081972F981B14
:1038E000091710F4092F122F6F5FC9010196119665
:1038F0002296319685309105D1F66530B9F4109352
:103900006F08A12FBB27FD01EE0FFF1FE553F14EFE
:103910005183408380914A0D8F5F80934A0DFD0152
:10392000E950F94D8083A45EB84D1C9290914A0DE8
:10393000892F8F778F3779F40F3768F0E7EFF6E24A
:10394000292F207880818F6789132083319636E272
:10395000EC3FF307B9F780916F08282F3327F60162
:103960009281A22FBB27FD01E45EF84D808180FF8C
:1039700007C0FD01EB54F14E8081981729F102C078
:1039800081608083AB54B14E9C93DFB6F8948091F4
:10399000B41E8330B0F4E0916C1FE80FE33008F000
:1039A000E350FF27EE0FFF1FE65AF74F008111810A
:1039B000F182E0828F5F8093B41E89E00E94CB0584
:1039C00078018D2D99278FBFF0926508E0926408E9
:1039D000C3C0892F8150833008F09CC08150823051
:1039E000E0F43091AD213130C1F420E08091490DF7
:1039F000882309F421E0222381F02F9883E080932B
:103A0000AB093093490D80918400909185006BE261
:103A100073E00E94B20A82E068C0933009F042C0AD
:103A20008091AD21833009F097C00E949F148823B4
:103A3000C9F128988FE88EBD0DB407FEFDCF8EB575
:103A40001EBC0DB407FEFDCF8EB5289A8091810073
:103A500080648093810080E286BB80916F008062E9
:103A600080936F009091A508289888EC8EBD0DB4C6
:103A700007FEFDCF8EB590669EBD0DB407FEFDCF4F
:103A80008EB5289A289882EC8EBD0DB407FEFDCF26
:103A90008EB586E08EBD0DB407FEFDCF8EB5289A9B
:103AA00084E023C080912C088150823000F5809101
:103AB000AD218530E1F40E949F148823C1F028983D
:103AC00082EC8EBD0DB407FEFDCF8EB583E08EBDBA
:103AD0000DB407FEFDCF8EB5289A80916F008F7DC3
:103AE00080936F001092C01E83E08093AD2190916F
:103AF0002C08913041F48091AD218330B1F52F9A9B
:103B00009093AD2125C0923039F58091AD2183305D
:103B100061F51EC0973001F50E949F148823E1F0E3
:103B20009091A508289888EC8EBD0DB407FEFDCFB6
:103B30008EB590669EBD0DB407FEFDCF8EB5289A5A
:103B40008091AD21853021F484E08093AD2104C0C3
:103B500088E080932C0804C080912C08883029F4D8
:103B600010922C0887E00E94CB0580912C088823B6
:103B700009F58091AD218530D1F48091C01E882354
:103B8000B1F480916A08882391F480910409882314
:103B900071F490E08091490D882309F491E0992314
:103BA00031F00E941D0B80912C08882319F48BE0C2
:103BB0000E94CB058091490D823009F095C010928A
:103BC000490DC090AB09F2E0CF1609F469C023E0BB
:103BD000C21609F46DC031E0C31609F085C020910A
:103BE000070B3091080B80918400909185004091E3
:103BF0000409403829F4109204090E941D0B74C076
:103C00008901081B190B47FF03C01016110604F1A8
:103C1000C0910009D091010980916A088823C1F4FC
:103C2000CE010E94CB149927882369F4FE01EC573A
:103C3000FF4F80818E7F8083C0926A08D093FE26DA
:103C4000C093FD2629C09927F82E882329F102C0A8
:103C500095E0F92E20910409822F99278F770197FB
:103C600059F4207822602093040980E198E00E94B2
:103C7000280B0E940F0B38C027FF0AC01016110630
:103C80003CF480E880930409C8010E940F0B02C035
:103C9000109204098F2D09C083E08093040924C089
:103CA00010926A081092040980E00E94CA161CC093
:103CB0008091AD21823019F4C092AD2113C0809162
:103CC0002C08863079F410922C08289881E88EBD53
:103CD0000DB407FEFDCF8EB51EBC0DB407FEFDCFA3
:103CE0008EB5289A0E94AA1E8FB7F894282F3327E2
:103CF0008091A408813061F081E08093A4082FBFF7
:103D00003ECB289A85E08093AD2110922C082DCFD0
:103D10001092A4082FBFDF91CF911F910F91FF90B8
:103D2000EF90DF90CF90BF90AF9008958FB7F89449
:103D3000282F33278091A40881508093A4088038CD
:103D400011F02FBF089581E08093A4082FBF0E9437
:103D5000B51908958FB7F894282F33278091A408B8
:103D6000882329F080688093A4082FBF089581E0FC
:103D70008093A4082FBF0E94B519089578941F92CC
:103D80000F920FB60F9211242F933F934F935F938F
:103D90006F937F938F939F93AF93BF93EF93FF9313
:103DA000E6E8F0E080819181208131818FB7F8943D
:103DB000992730939F0920939E0921E02093C01EEC
:103DC0008FBF0E94AA1EFF91EF91BF91AF919F916B
:103DD0008F917F916F915F914F913F912F910F90B4
:103DE0000FBE0F901F90189578941F920F920FB6E8
:103DF0000F9211242F933F934F935F936F937F9371
:103E00008F939F93AF93BF93EF93FF9380916F0036
:103E10008D7F80936F0078949FB7F8948091490DBF
:103E2000813019F482E08093490D892F99278FBF43
:103E30000E94AA1EFF91EF91BF91AF919F918F9128
:103E40007F916F915F914F913F912F910F900FBE96
:103E50000F901F901895CF92DF92FF920F931F93B0
:103E6000CF93DF93082F6B01F42EE82FFF27EE0F7F
:103E7000FF1FE652F14E118210828091190299279C
:103E8000019662E070E00E94A636682F80931902C6
:103E900010E0462F5527FA01EE0FFF1FE652F14EB4
:103EA000A081B181109799F0E62FE695E695E69509
:103EB000FF27E056F64F808199279A0127703070CE
:103EC00002C0959587952A95E2F780FF0DC0CA013B
:103ED000019662E070E00E94A636682F1F5F1230E4
:103EE000C1F6109319021AC0609319026230B0F43F
:103EF000FD01359624813327ED016D817727762FDB
:103F0000662781819927682B792BAD0186810E94D4
:103F10000606882319F08AE10E94CB05002319F0D8
:103F2000013051F405C06F2DC6010E94171304C063
:103F30006F2DC6010E940919DF91CF911F910F913A
:103F4000FF90DF90CF900895AF92BF92CF92DF9213
:103F5000EF920F931F9380918D0B81FF03C08D7F94
:103F600080938D0BA090630ABB24BA2CAA24809165
:103F7000640A9927A82AB92ACC24DD240E94640760
:103F8000AB01BC01EE249601850180E00E9445074B
:103F9000109257081F910F91EF90DF90CF90BF9034
:103FA000AF90089568E00E94E708FC018781992797
:103FB000089568E00E94E708FC018181992708952F
:103FC00068E00E94E708FC0186819927089568E06F
:103FD0000E94E708FC0184819927982F8827258172
:103FE0003327822B932B0895BF92CF92DF92EF92CB
:103FF000FF920F931F93CF93DF937C01B0905808EB
:10400000D090FC0ACC2428C00D2D03701127C701C5
:104010000E94E71FE801CC0FDD1FCC0FDD1FC00F92
:10402000D11FC357D74F288139818217930791F445
:10403000C7010E94E01F9A81981761F4C7010E948E
:10404000D91F9C81981731F4C7010E94D21F9B8110
:10405000981721F0C394D394CB14B1F68C2D9927E3
:10406000DF91CF911F910F91FF90EF90DF90CF9054
:10407000BF90089568E00E94E708FC0184819927B9
:10408000982F882725813327822B932B08958F9291
:104090009F92AF92BF92CF92DF92EF92FF920F93D7
:1040A0001F93CF93DF934C015B01FC018281882336
:1040B00009F044C09092AA218092A921828188238C
:1040C00051F48FB7F894992722B132E0232722B90F
:1040D0008FBF10921A02F5010781F6804423B1F0D8
:1040E00068E0C5010E94E708FC01E6801127102F57
:1040F00000278F2D9927082B192BC5010E943A20E4
:10410000FF249801AC01B70180E215C068E0C50149
:104110000E94E708FC01E6801127102F00278F2D51
:104120009927082B192BC5010E943A20FF249801DA
:10413000AC01B70186E20E941E18BEC0442309F4F8
:1041400090C0F401C080D18080915808843009F07B
:1041500046C0C6010E94F41F20915808622F0E9499
:104160008636492F9217D8F5992359F48091FC0A85
:104170009927019664E070E00E94A6368093FC0ABD
:1041800029C08091FC0A840F912D911D9C01237000
:104190003070E901CC0FDD1FCC0FDD1FC20FD31F24
:1041A000019664E070E00E94A636FC01EE0FFF1F4E
:1041B000EE0FFF1FE80FF91FC357D74FE357F74F15
:1041C00085E0019009928150E1F74F5F8091580896
:1041D0004817B8F280915808815080935808F090A1
:1041E00058088091FC0A8F0D912D911D837090705D
:1041F0008C01000F111F000F111F080F191F03570B
:10420000174FC6010E94E71FF80191838083C60102
:104210000E94E01FF8018283C6010E94D91FF801A5
:104220008483C6010E94D21FF8018383F394F09225
:104230005808F5010781E68068E0C5010E94E7089B
:10424000FC01C6801127102F0027FF240E291F29EB
:10425000C5010E943A20DD249801AC01B60182E23A
:1042600017C0FB010781E68068E0C5010E94E708EE
:10427000FC01C6801127102F0027FF240E291F29BB
:10428000C5010E943A20DD249801AC01B60187E205
:104290000E941E18F401808191810E946C0988237C
:1042A00019F081E50E948018C4010E948B098823BF
:1042B00019F082E50E948018DF91CF911F910F9134
:1042C000FF90EF90DF90CF90BF90AF909F908F9036
:1042D0000895EF92FF920F931F93CF93DF93EC011A
:1042E000E0912202FF27EE0FFF1FE656F14E0081FC
:1042F00011816623E9F00F811127102F00278E818D
:104300009927082B192BCE010E943A207C0168E0E6
:10431000CE010E94E708FC01668177279801A7017A
:1043200084E20E941E186CE170E08CE190E050C0C5
:104330008091210283FF5EC0CC57DF4F8881C45833
:10434000D04080FD57C07E010894E11CF11C8F8194
:104350009927982F88272E813327822B932B0E9411
:10436000F407982F8F3F71F08BE0989FF001112494
:10437000EB5EF44F82858F5F8287853018F0CF0126
:104380000E94310981E10E94CB05F80183818150AF
:104390008383882301F1F70106811127102F00275D
:1043A00085819927082B192BCE010E943A207C0188
:1043B00068E0CE010E94E708FC016681772798013A
:1043C000A70185E20E941E1867E070E087E090E098
:1043D0000E94D7163FC00E944809809121028F7E1B
:1043E0008093210267E070E087E090E00E94D7169A
:1043F00040E02CC00E944809809121028F7E80936A
:10440000210267E070E087E090E00E94D7168F817C
:104410009927982F88272E813327822B932B0E9450
:10442000F407982F8F3F89F08BE0989FF0011124BB
:10443000EB5EF44F81858F5F818782858F5F8287F6
:10444000853018F0CF010E94310941E0BE01C8015A
:104450000E944720DF91CF911F910F91FF90EF9025
:104460000895AF92BF92CF92DF92EF92FF920F9397
:104470001F93CF93DF93D82E5B01C42EE82FFF2725
:10448000EE0FFF1FE75FF44F1182108280910C0244
:104490009927019662E070E00E94A636682F80930B
:1044A0000C0200E0462F5527FA01EE0FFF1FE75FD1
:1044B000F44FC081D181209799F0E62FE695E695DB
:1044C000E695FF27EB57F04E808199279A012770D8
:1044D000307002C0959587952A95E2F780FF0DC050
:1044E000CA01019662E070E00E94A636682F0F5F55
:1044F0000230C1F600930C021FC060930C026230C0
:10450000D8F4E88083EFE80EFF240F811127102FE5
:1045100000278E819927082B192BCE010E94F908BC
:10452000FC012E2DAE01B80180810E94271788233F
:1045300019F080E10E94CB05DD2021F081E0D81642
:1045400089F405C06C2DC5010E9469210BC086E06D
:10455000A81689E0B80631F480912902882311F069
:1045600010922902DF91CF911F910F91FF90EF9050
:10457000DF90CF90BF90AF900895462F20910C020E
:10458000223070F4E22FFF27EE0FFF1FE75FF44F9A
:10459000608171816817790719F4822F0E94312296
:1045A0000895AF92BF92CF92DF92EF92FF920F9356
:1045B0001F93CF93DF935B016C01C0E0D0E0E5E88F
:1045C000FBE0608561FF6BC12081318142815381B5
:1045D000E480F58006811781D601C501821B930B0B
:1045E000A40BB50B8E159F05A007B10708F457C1A2
:1045F00060FF03C06D7F608708C02E0D3F1D401F08
:10460000511F2083318342835383C23009F4DDC0BC
:10461000C33030F4CC2359F0C13009F046C1D3C0C7
:10462000C33009F429C1C43009F03FC12FC18091C2
:104630005708853009F075C080911A02882309F067
:1046400057C062E18EED9EE10E94DA09009709F4FD
:10465000B7C0FC01A1E6BAE082E10D900192815061
:10466000E1F78091210281FF41C0CEEDDEE16AE1F8
:10467000CE010E94E10968E0CE010E94E708FC013A
:1046800080910002909101028583892F992784836C
:10469000809166088F5F809366088150868383E9E6
:1046A00087831182E091A921F091AA213097F1F03E
:1046B000D183C08312828EE18383CF010E94840C58
:1046C000882389F48091210282FF05C084FD03C004
:1046D0008EE00E94CB051092AA211092A92181E0C0
:1046E00080931A0205C081E10E9480180E9463092C
:1046F000109257088091A821882389F48091670A35
:104700009927982F88272091680A3327822B932B8B
:1047100001968093680A892F99278093670A1092DF
:10472000A8218FB7F894282F3327122F80911D02CC
:10473000882369F581E080931D02109245182FBFF0
:104740002FB7F894332780917A00806880937A009D
:104750002FBF8FB7F894C82FDD279C2F80910202BE
:10476000813099F480911D02813021F483E00E9410
:10477000CB0509C0823049F480914518809302022C
:1047800083E080931D02CFBF90C09FBF8EC08091F9
:104790004518882311F42FBF88C080E00E94A30C25
:1047A000882319F085E090E007C08091840B816038
:1047B0008093840B80E090E01FBF892B09F475C0C3
:1047C0000E94DF0672C086E067C0809127028823BE
:1047D00009F46BC080912802882309F466C0809197
:1047E000BA1E882309F581E10E94CB0582E10E946F
:1047F000CB0540910E0250910F0260911002709112
:1048000011028091FC089091FD08A091FE08B091E2
:10481000FF08481B590B6A0B7B0B81E08093BA1E83
:1048200082E00E94C80841C080910E0290910F0260
:10483000A0911002B0911102880F991FAA1FBB1FEF
:1048400080930E0290930F02A0931002B093110276
:104850008150904DA740B04060F080E090EDA7E01F
:10486000B0E080930E0290930F02A0931002B093D9
:1048700011020E94991319C0809127028823A9F080
:1048800080912802882389F081E106C0809121026D
:104890008F7E809321028EE00E94CB0506C0219678
:1048A0003996C530D10509F08CCE82E00E94CB0547
:1048B000DF91CF911F910F91FF90EF90DF90CF90FC
:1048C000BF90AF9008953F924F925F926F927F9208
:1048D0008F929F92AF92BF92CF92DF92EF92FF9210
:1048E0000F931F93CF93DF93CDB7DEB723970FB608
:1048F000F894DEBF0FBECDBF8FB7F894282F3327B3
:104900008091B41E882309F43CC4E0916C1FFF27FA
:10491000EE0FFF1FE65AF74FC080D1802FBFF60180
:104920008285178106818F3309F0EDC3C6010E948D
:10493000F9084C01FC016081F60171912F01812F72
:104940009927582F4427802F9927482B592B8FB709
:10495000F894992720910302309104028FBF4217E7
:10496000530721F04F5F5F4F09F003C47D507B83F5
:10497000603721F0613709F0E0C300C2F60187819A
:1049800026819927982F88273327822B932B8F5F97
:104990009F4F09F0F7C062E0C6010E94E7087C0162
:1049A000F601818520859927B82EAA243327A22ACB
:1049B000B32AC5010E94F4078F3F21F0F7016181FE
:1049C00077271CC00E94140C182F8F3FD1F0B5011F
:1049D0000E944B0BF7014181212F33278BE090E0A0
:1049E000289FF001299FF00D389FF00D1124EB5EF8
:1049F000F44F4283F70161817727812F0E946B0B6F
:104A0000C1C081E40E94260C182F8F3FA1F0282FEF
:104A100033278BE090E0289FF001299FF00D389F0D
:104A2000F00D1124EB5EF44F808191810E94C71834
:104A3000B501812FA5C090E025E830E0C20ED31E5D
:104A4000F60180812BE73FEFC20ED31E893C08F0B0
:104A500091E0992309F496C0C6010E942214982F70
:104A6000F4018081803709F08DC0953009F065C36D
:104A700065E0C6010E94F2088C01FC01818122815F
:104A80009927982F88273327822B932B8F5F9F4F4F
:104A900009F47EC0F801838124819927582F442787
:104AA0003327422B532B4115510521F18091690881
:104AB000E82EFF246091C11E7091C21EA0E020E08C
:104AC00030E0EBEAF8E00EC080819181861797070D
:104AD00031F0848195814817590708F4A1E02F5FD0
:104AE0003F4F38962E153F0514F4AA2369F3AA23E5
:104AF00009F453C010E0EAE1FBE08081992780FFD0
:104B000004C083FD02C081FF1F5F3B962BE0E838A5
:104B1000F20799F71123B1F10E943F08DC01CB01A4
:104B2000612F77270E94923600E010E0EAE1FBE077
:104B30009081992349F0292F332723FD05C021FDBA
:104B400003C081508F3F39F00F5F1F4F3B960A30F3
:104B5000110571F717C0202F0F3FA1F033278BE00D
:104B600090E0289FF001299FF00D389FF00D11244F
:104B7000EB5EF44F808191810E94C718B501802FB0
:104B80000E944B0BC6010E942214853009F0D5C249
:104B900065E0C6010E94F2088C01F201F084978062
:104BA00060E4C6010E946F0C382E58010894A11CC5
:104BB000B11CF801818125010894411C511CF501AB
:104BC00021819927982F88273327822B932B8F5F5A
:104BD0009F4F09F4BDC08F2D9927F82EEE24892D03
:104BE0009927E82AF92A63E0862E912C800E911EDF
:104BF000F801838154E0652E712C600E711E2481B2
:104C00009927982F88273327822B932B892B49F5B7
:104C1000C7010E94F4078F3F09F50E94140C8F3FD3
:104C200011F0B70119C08AE00E94260C182F8F3F9F
:104C3000A9F0282F33278BE090E0289FF001299FCF
:104C4000F00D389FF00D1124EB5EF44F80819181BF
:104C50000E94C718B701812F0E944B0BC7010E9409
:104C60002508F4019080F3018080F501B080F20105
:104C7000A080C7010E940C088C01C7010E944F0C44
:104C8000482F8A30F1F1892D9927782F6627882DB2
:104C90009927682B792B8B2D9927382F22278A2D3E
:104CA0009927282B392B809169084817C9F40233BA
:104CB000110538F5E42FFF27B3E0EE0FFF1FBA957B
:104CC000E1F7E555F74FF182E08233832283758364
:104CD000648381E0868317824F5F4093690811C027
:104CE000E42FFF27A3E0EE0FFF1FAA95E1F7E5559C
:104CF000F74FF182E082338322837583648381E0FE
:104D0000868380910D02882319F5C7010E944F0CFC
:104D1000E82F80916908E81748F4FF2753E0EE0F69
:104D2000FF1F5A95E1F7E555F74F37828091C61E70
:104D3000882311F0332049F08091C11E9091C21E4A
:104D40008E159F0529F4332019F081E10E94CB05CF
:104D500060E8C6010E946F0C882309F4EEC180E868
:104D600090E0A0E0B0E080930E0290930F02A09339
:104D70001002B09311020E949913DFC1C6010E9474
:104D8000D21FA82EC6010E94D91F082F0F5F68E00E
:104D9000C6010E94E7084C01FC010183E68011274F
:104DA000C6010E943A20FF249801AC01B70181E2BC
:104DB0000E941E18FB81F13708F0BFC1C6010E9496
:104DC000F41F20E090915808891708F421E022236D
:104DD00011F088E225C110912402812F9927B82E65
:104DE000882309F440C0C6010E94E71F3C010091DE
:104DF0002202010F0150BA940D3010F4E02F02C0CE
:104E0000E02FED50FF27EE0FFF1FE656F14E019009
:104E1000F081E02DE080F180C7010E94E71F861538
:104E2000970509F0A9C1C7010E94E01F182FC6010C
:104E30000E94E01F181709F09FC1C7010E94D91FE7
:104E4000182FC6010E94D91F181709F095C1C70174
:104E50000E94D21F182FC6010E94D21F181709F0F6
:104E60008BC189E2DDC0809159088823A9F0C60171
:104E70000E94D50923E9A21609F05FC18850082FC6
:104E80001127602FC6010E94DA09402FBC01C6011C
:104E90000E943C146C0151C180E02091740A2223CD
:104EA00009F481E0882311F080E1B7C09091730A82
:104EB00080E0992309F481E0882311F086E1ADC0F8
:104EC0009923C9F080910D20E82FFF27EE0FFF1FD7
:104ED000E150F94D0081118111821082915090931F
:104EE000730A8F5F80930D208C3011F410920D2087
:104EF0000115110511F483E593C02223C9F08091B7
:104F00009B09E82FFF27EE0FFF1FEC5EF74EA080F6
:104F1000B1801182108221502093740A8F5F809398
:104F20009B098C3011F410929B09A114B10411F467
:104F300084E576C087E8F50111928A95E9F72CE7B8
:104F400030E0C20ED31E8BE0F60111928A95E9F78C
:104F500024E83FEFC20ED31EF801D182C0828FEF4A
:104F600082838EE18383C8010E94840C882309F028
:104F700046C0CE0101960E94AA098823B9F5F40122
:104F8000828123819927982F88273327822B932B7F
:104F900029813A812817390748F180E890E0A0E09C
:104FA000B0E080930E0290930F02A0931002B09392
:104FB00011020E9499136CE170E08CE190E00E9474
:104FC000D716F20106818581F401E6801127102FA2
:104FD00000279927082B192BC6010E943A20FF248D
:104FE0009801AC01B70188E10E941E188091B10BB5
:104FF00081FD03C08EE00E94CB0565019EC0C50106
:105000000E946C09882319F081E50E948018C8016C
:105010000E948B09882319F082E50E94801881E1A3
:105020000E9480188AC068E0C6010E94E708FC015F
:1050300080818078803871F480E890E0A0E0B0E072
:1050400080930E0290930F02A0931002B09311026E
:105050000E949913C6010E94D21F833909F06DC0C6
:105060002FB7F894332782B111E0812782B92FBF7F
:10507000F601848925899927582F44273327422B05
:10508000532B8091610A9927982F88272091620AD3
:105090003327822B932B84179507B0F44093620A31
:1050A000852F99278093610A868927899927982FC8
:1050B00088273327822B932B8093640A892F992783
:1050C0008093630A0E94A41FF601828D238D992785
:1050D000582F44273327422B532B8091670A992757
:1050E000982F88272091680A3327822B932B8417C7
:1050F000950718F54093680A852F99278093670ACA
:105100001093A8211AC0812F9927582F4427802F48
:105110009927482B592B8FB7F89499272091030290
:10512000309104028FBF4217530719F04F5F5F4F52
:1051300021F48FB7F89499278FBF9FB7F894809187
:105140006C1FE82FFF27EE0FFF1FE65AF74FD182A3
:10515000C0828F5F80936C1F833010F010926C1FA1
:105160008091B41E81508093B41E892F99278FBFE0
:10517000C3CB613711F757CF0150BB2009F03BCEAD
:1051800072CE2FBF23960FB6F894DEBF0FBECDBFF1
:10519000DF91CF911F910F91FF90EF90DF90CF9013
:1051A000BF90AF909F908F907F906F905F904F9047
:1051B0003F9008956F927F928F929F92AF92BF928D
:1051C000CF92DF92EF92FF920F931F93CF93DF93D3
:1051D000CDB7DEB722970FB6F894DEBF0FBECDBFB6
:1051E000E82FFF27EC31F10510F00C94A131EA59BA
:1051F000FF4FEE0FFF1F0590F491E02D0994809171
:10520000851F882311F40C94A13110E001E013C430
:105210008091A009882311F40C94A13110E001E0E1
:105220000C9408314091841F8FEF80938C1F8093E2
:105230008B1F83E98093911F66E87FE180E00E94E5
:105240006106882321F00E9463090C94A13181E05A
:1052500080931B020C94A1318091A208882361F5F0
:105260002091D61E3091D71E4091D81E5091D91E44
:10527000EFB7F894FF276091600870916108809102
:10528000620890916308E0900E20F0900F2000914A
:105290001020109111206E0D7F1D801F911FEFBFF8
:1052A0002093D61E3093D71E4093D81E5093D91EFC
:1052B0001092A2080E94B60D0E94640744C00E948A
:1052C00064075B016C018FB7F894992710929109DC
:1052D0008FBF5FEFE52E5FEFF52E5FEF052F5FE7E6
:1052E000152F60E0E5E8FBE0808581FF1CC0808130
:1052F0009181A281B381A6019501281B390B4A0B2C
:105300005B0BDA01C9012481358146815781281B55
:10531000390B4A0B5B0B2E153F05400751071CF458
:1053200079018A0161E039963BE0E23BF307E1F65F
:10533000662311F40C94A1311E141F0410061106EB
:1053400034F0C601B5010E94D1220C94A131E09243
:10535000D61EF092D71E0093D81E1093D91E81E05E
:105360008093A208A8019701C601B5010E94B60D5D
:105370000C94A1312FB7F89433278091451880936E
:10538000020283E080931D022FBF809102028823D6
:1053900011F00C94A13181E08093370A1092821FA2
:1053A0000E94B70C0C94A1311092370AA0900918F2
:1053B000B0900A188091821F882311F00C94A131BB
:1053C0008FB7F894C82E80911D02833009F044C035
:1053D00080910202882309F03FC08091840B8823CA
:1053E00011F00C9489310C947E31ED2DE695E69503
:1053F000E695FF274D2D5527EC57F44F9A0127705E
:10540000307081E090E002C0880F991F2A95E2F782
:10541000809520812823208300931C0212C00F5FF7
:105420001F4F0130110511F400E010E0D02E802F45
:105430000E94A30C8823C9F60E151F0581F74FEFB4
:1054400050E0409345188FEF8093020281E08093F3
:105450001D0283E00E94CB05CFBEE0915708E530E6
:1054600010F00C94A131EF5FE0935708E150FF2753
:10547000EE0FFF1FE759F54FA1828B2D99278083EF
:1054800060C72FB7F89433278091A608809308024D
:1054900082E080931E022FBF80910802882309F0CA
:1054A00050C78091A7089091A8080E94F616082F6F
:1054B0001127002309F445C780E00E948116602F60
:1054C0008091A7089091A80880C0E0912E18F091D3
:1054D0002F18DF01A458BF4F2D913C9111971091C7
:1054E0001F02123051F52115310529F0EC57FF4FFD
:1054F000808180FF02C084E01BC080910E189091D3
:105500000F18019690930F1880930E188217930727
:1055100070F481E080931F02FD01428153814115A7
:10552000510569F0662777270E94C8080AC785E0F9
:1055300080931F0210911F0226C0113021F582E0D6
:1055400080931F0240912E1850912F182FB7F89476
:1055500033278091A4088F5F8093A4082FBF809188
:105560000309882369F450930D1840930C1881E0C7
:10557000809303091092D71788E00E94CB05ADC035
:105580000E94961EB0C0143008F4DBC6232B61F0D5
:10559000E0912E18F0912F18E458FF4F80910E18CB
:1055A00090910F189183808310921F02E0902E1823
:1055B000F0902F18F70182858F3309F0C2C680E082
:1055C0000E9481161450612FC7010E94BD22B9C6E6
:1055D0008091030910920309853069F581E0809379
:1055E000270280912802882311F00E943F088091B1
:1055F000210284608093210290E08091240288231C
:1056000009F491E0992319F48EE00E94CB058FB73D
:10561000F894282F3327922F80910B188A3041F06D
:1056200080910509843021F02FBF0E94DF0689C6D2
:105630009FBF84E160C6863031F4109227028091CA
:1056400021028B7FE7C1873009F47BC68093030971
:1056500078C62FB7F89433278091A4088F5F809382
:10566000A4082FBF40910309413071F58091D717ED
:105670008F5F8093D717863038F520910C183091C2
:105680000D18809104098823C1F490E08091490DA0
:10569000882309F491E0992381F030930109209344
:1056A0000009409304098BED91E10E94280B0E94B0
:1056B0000F0B1092122083E004C085E0809312202B
:1056C00082E08093030909C0109203090E94961E8C
:1056D00080911220882321F406C00E94961E31C6B4
:1056E0008C5F80931F0286E006C60E94632429C651
:1056F0000E943F082FB7F8943327709311186093D6
:1057000010182FBF1EC68FB7F89499271092C10C9E
:105710001092C00C1092AC211092AB2110922E0866
:1057200010922D081092060B1092050B6FC52FB723
:10573000F89433278091A60980930B0282E080932E
:1057400020022FBF80910B02882309F0FAC5209A0E
:10575000289A8091AD21882309F075C08EEF91E0E1
:10576000019701960197E1F716982F9886E090E04F
:10577000019701960197E1F7169A289883EC8EBD60
:105780000DB407FEFDCF8EB51EBC0DB407FEFDCFD8
:105790008EB5289A289882EC8EBD0DB407FEFDCFF9
:1057A0008EB588E08EBD0DB407FEFDCF8EB5289A6C
:1057B0008EEF91E0019701960197E1F728988EEC22
:1057C0008EBD0DB407FEFDCF8EB58DE48EBD0DB43C
:1057D00007FEFDCF8EB5289A289889EC8EBD0DB4B2
:1057E00007FEFDCF8EB587EC8EBD0DB407FEFDCF55
:1057F0008EB5289A289885EC8EBD0DB407FEFDCF96
:105800008EB580E88EBD0DB407FEFDCF8EB5289A0B
:105810001092380A8BE08093A508289888EC8EBDFA
:105820000DB407FEFDCF8EB58BE68EBD0DB407FE21
:10583000FDCF8EB5289A2F9A81E08093AD2180E02C
:105840000E94EE097EC50E94AA1E7BC5809121029E
:1058500084FD08C090E080912402882309F491E03F
:10586000992311F080E51DC080915908882359F4CF
:1058700020E08091C11E9091C21E8F5F9F4F09F062
:1058800021E0222331F0CE0101960E94AA0988234B
:1058900059F040E157E260E070E084E00E94C808FF
:1058A00082E10E9480184DC5E0912202FF27EE0F91
:1058B000FF1FE656F14EC080D180F60100811181B4
:1058C000C8010E94D509982EA090C11EB090C21E9A
:1058D000C8010E94F41F20E090915808891708F42D
:1058E00021E02223C9F08AE20E9480180E94480920
:1058F000F601808191810E946C09882319F081E56D
:105900000E948018C6010E948B09882319F082E545
:105910000E9480188EE0EFC480915908F601E08063
:10592000F180882381F1C7010E94EE08FC011781F4
:10593000A091A709B091A809F70187E801900D92FD
:105940008150E1F7E090A709F090A809C7010E94F3
:10595000D509133969F48850082F1127602FC70122
:105960000E94DA09402FBC01C7010E943C147C014F
:10597000F092A809E092A70960E0F6018081918188
:105980000E946921DEC409811A81C7010E94EE08C4
:10599000FC010383012F11270283F601808191818D
:1059A0000E94EE08FC0180818F73808361E0F60124
:1059B000808191810E94FB08809121028860809300
:1059C000210280FF0EC0F601808191810E94EE08C5
:1059D000FC01808180648083809121028E7F80938E
:1059E0002102F60100811181F801A6828B2D9927F1
:1059F0008783C8010E94F908FC0181E78083492D53
:105A0000B80180E00E94CD179927882331F4809156
:105A1000210280618093210294C4823009F091C4F4
:105A200060E7F601808191810E94E1098EE00E9489
:105A3000CB0587E136CF2091851F802F822329F166
:105A4000E12FFF27EE0FFF1FE75FF44F40815181E9
:105A500011821082802F809528232093851F112387
:105A600019F0113091F405C063E0CA010E94692168
:105A700057C44650594009F053C4809129028823E5
:105A800009F44EC4109229024BC41F5F183008F06D
:105A900058C4000FD0CF80910C02E82FFF27EE0FE3
:105AA000FF1FE75FF44F6081718141E00E94312266
:105AB00048C480915908882309F043C48824992454
:105AC000EFEFCE2EDE2E7FEF672E772EEE24FF2413
:105AD00043C0022F112763E0000F111F6A95E1F701
