S01700006275696C642F697269732F6D61696E2E7372656343
S11300000C9469010C9488010C9488010C94880167
S11300100C9488010C9488010C9488010C94880138
S11300200C9488010C9488010C9488010C94880128
S11300300C9488010C9488010C9488010C94880118
S11300400C9488010C9488010C9488010C94880108
S11300500C9488010C9488010C9488010C948801F8
S11300600C9488010C94200A0C9488010C94A30A23
S11300700C9488010C9488010C9488010C94FA0B5C
S11300800C94D90B0C94E40B0C94EF0B0C940D0C06
S11300900C94BC0B0C9488010C94CE0B0C9488012A
S11300A00C9488010C9488010C9488010C948801A8
S11300B00C9488010C9488010C9488010C94880198
S11300C00C9488010C9488010C9488010000211080
S11300D0422063308440A550C660E77008812991AE
S11300E04AA16BB18CC1ADD1CEE1EFF13112100256
S11300F073325222B5529442F772D66239931883FE
S11301007BB35AA3BDD39CC3FFF3DEE36224433421
S113011020040114E664C774A44485546AA54BB54D
S113012028850995EEE5CFF5ACC58DD553367226F5
S113013011163006D776F6669556B4465BB77AA79D
S113014019973887DFF7FEE79DD7BCC7C448E55841
S11301508668A7784008611802282338CCC9EDD9ED
S11301608EE9AFF9488969990AA92BB9F55AD44A95
S1130170B77A966A711A500A333A122AFDDBDCCB3D
S1130180BFFB9EEB799B588B3BBB1AABA66C877C61
S1130190E44CC55C222C033C600C411CAEED8FFD8D
S11301A0ECCDCDDD2AAD0BBD688D499D977EB66E35
S11301B0D55EF44E133E322E511E700E9FFFBEEFDD
S11301C0DDDFFCCF1BBF3AAF599F788F8891A9819F
S11301D0CAB1EBA10CD12DC14EF16FE18010A10089
S11301E0C230E3200450254046706760B983989379
S11301F0FBA3DAB33DC31CD37FE35EF3B1029012D9
S1130200F322D2323542145277625672EAB5CBA544
S1130210A89589856EF54FE52CD50DC5E234C32428
S1130220A01481046674476424540544DBA7FAB718
S11302309987B8975FE77EF71DC73CD7D326F23678
S11302409106B01657667676154634564CD96DC964
S11302500EF92FE9C899E9898AB9ABA944586548C8
S113026006782768C018E1088238A3287DCB5CDBB8
S11302703FEB1EFBF98BD89BBBAB9ABB754A545A18
S1130280376A167AF10AD01AB32A923A2EFD0FED84
S11302906CDD4DCDAABD8BADE89DC98D267C076C68
S11302A0645C454CA23C832CE01CC10C1FEF3EFF58
S11302B05DCF7CDF9BAFBABFD98FF89F176E367EB8
S11302C0554E745E932EB23ED10EF01E00020E0601
S11302D00C0411241FBECFEFD1E2DEBFCDBF12E06C
S11302E0A0E0B2E0E8E6F0E400E00BBF02C0079053
S11302F00D92AA31B107D9F71EE0AAE1B2E001C01C
S11303001D92A234B107E1F70E942F1E0C943320F2
S11303100C940000FC0120E030E007C0828193814E
S1130320280F391F0480F581E02D3097B9F7C901F2
S11303300895FB015183408333832283958384830F
S11303400895CF92DF92EF92FF920F931F93CF9372
S1130350DF938C01FB017A01690105C0E81BF90BED
S1130360E8010C811D81E8018A819B81E817F90766
S1130370A8F71CC0E8018A819B818E1B9F0BE701B3
S11303808E159F0508F4EC01D8018D919C91AE0166
S1130390B6018E0F9F1F0E942320CC0EDD1EEC1A87
S11303A0FD0AE8010C811D81E0E0F0E00115110572
S11303B019F01E141F04F4F280E090E0DF91CF9155
S11303C01F910F91FF90EF90DF90CF9008954F927F
S11303D05F926F927F928F929F92AF92BF92CF92D1
S11303E0DF92EF92FF920F931F93CF93DF938C01D1
S11303F04B015A013901CC24DD2404C06C01F801FD
S1130400048115810115110519F44424552436C0BD
S1130410F801828193818C0D9D1D8816990670F7D1
S11304204424552428C07401EC18FD08F801828185
S113043093818E199F09E5018A159B0508F4EC0147
S1130440F801608171816E0D7F1DAE01C3010E94B0
S113045023204C0E5D1EF801048115810115110540
S113046069F0CE0CDF1CCC0EDD1E8C0E9D1EAC1A6A
S1130470BD0A6C0E7D1E1A141B04ACF2C201DF917E
S1130480CF911F910F91FF90EF90DF90CF90BF908D
S1130490AF909F908F907F906F905F904F90089552
S11304A0EF92FF920F931F93CF93DF93FC0120E011
S11304B030E040E050E0A0E0B0E02EC06281738103
S11304C06115710531F1C081D18100E010E01EC0D9
S11304D0888100FD0BC09927982F8827A82BB92B5A
S11304E0C80101968617970771F403C09927A82BB2
S11304F0B92B7D01C701AA27BB27280F391F4A1F23
S11305005B1FA0E0B0E00F5F1F4F2196061717078F
S1130510F9F60480F581E02D309781F60BC0DA01FD
S1130520C901A070B0709A0144275527280F391FBC
S11305304A1F5B1F203080E0380781E0480780E0D5
S1130540580768F7C90180959095DF91CF911F9165
S11305500F91FF90EF900895EF92FF920F931F93E6
S1130560CF93DF93CDB7DEB76A970FB6F894DEBFAB
S11305700FBECDBFE42E08969A87898740E150E0EC
S11305805C874B879E01215F3F4F3E872D874096B6
S1130590988B8F875A8B498BCE0145969C8B8B8B7E
S11305A0CE0101969E8B8D8B88E090E0988F8F8B87
S11305B07A8F698FCB010E948A01AA2797FDA095A3
S11305C0BA2FBC01CD010E94530469837A838B83C3
S11305D09C83FF2400271127C801B7010E945304FC
S11305E06D837E838F839887CE0109960E94500283
S11305F06A960FB6F894DEBF0FBECDBFDF91CF91E0
S11306001F910F91FF90EF9008958CED95E09093DA
S11306102F0280932E020895AEE2B2E004969C016C
S113062021703070280F391F02C0A40FB51F8D919F
S11306309C911197AC015F704217530710F097FF1C
S113064006C0CD018E5292408C5D954074F388E0D3
S1130650AA30B80718F080E090E00895C901029725
S11306609C013F70306811963C932E93FD01E80F76
S1130670F91F481B590B5F7051834083CD010296CB
S11306800895CF93DF939C01EEE2F2E0C0E0D0E066
S113069006C0808191819F70EF01E80FF91FCF019F
S11306A002968217930739F0CF018E5292408C5DE7
S11306B095407CF327C0808191819C013F70DF01CC
S11306C0A20FB31F9F7791838083CD018E529240F6
S11306D08C5D95404CF48D919C9197FD05C09F7065
S11306E0280F391F31832083209761F028813981B5
S11306F037FD08C03F70808191819F70280F391F9A
S113070039832883DF91CF910895EEE2F2E040E04F
S113071050E00BC02081318137FD04C0C9019F70B6
S1130720480F591F3F70E20FF31FCF018E529240C2
S11307308C5D95407CF3CA0108956F927F928F92ED
S11307409F92AF92BF92CF92DF92EF92FF920F935C
S11307501F93CF93DF93FB015A018B01040F151FE5
S1130760DC01CC24DD2440E050E07AE398EF692EEC
S11307709FEF792E600E711E6E167F0608F460C01E
S1130780ED01E980FC9024E030E08FEF882E982E74
S1130790CCE0D0E0C401022E02C0969587950A945D
S11307A0E2F78E159F0530F042305105B1F4203147
S11307B0310599F4C7010C2E02C0969587950A94C9
S11307C0E2F7682F6F708F7090700A9718F4862F75
S11307D0805D02C0862F895A81932C5F3F4F2497F6
S11307E024313105B9F68D919C911197892B21F50E
S11307F04115510559F471938D919C911197892B51
S113080019F441E050E002C042E050E087E0C8162D
S1130810D10424F44130510509F071930894C11CAA
S1130820D11C129688E0C816D10409F0A5CF413036
S1130830510531F4719304C04130510539F7E4CFC7
S113084011920A191B09CF01801B910BDF91CF91E3
S11308501F910F91FF90EF90DF90CF90BF90AF90DA
S11308609F908F907F906F900895DC018C9183709E
S1130870823021F4FD012181328113C0833019F0CB
S113088020E030E00EC0FD01319620E030E0AD0103
S1130890475F5F4F81919191280F391FE417F50746
S11308A0C9F7C9010895EF92FF920F931F93FB01BB
S11308B0BC01882799272F2F3E2F44275527A901AC
S11308C033272227E72EF62E002711272E293F292A
S11308D0402B512BCA01B9011F910F91FF90EF904A
S11308E008959C01DB01FC0104C08D91819341506A
S11308F0504041155105C9F7C90108958F929F923F
S1130900AF92BF92CF92DF92EF92FF920F931F9319
S1130910CF93DF936C014B01892B09F4A3C06115BC
S1130920710509F49FC080E1EB0119928A95E9F7FA
S1130930D60160E070E090E046C02A3301F1822FD6
S113094080538A3030F4332727FD309520533040CC
S11309500EC0422F552747FD50952154263020F4D0
S11309609A012753304003C09A012755304044E090
S1130970660F771F4A95E1F7622B732B0DC0E92FA1
S1130980FF27EE0FFF1FE80DF91D072F162F118308
S113099000839F5F60E070E0FD013196ED012981E5
S11309A0222359F4E92FFF27EE0FFF1FE80DF91D4D
S11309B0E72EF62EF182E08255C08C918A3311F431
S11309C02A3341F0DF012C91222309F0B6CFFD0137
S11309D001C0319680818823E1F7DF01119760E03F
S11309E070E017E090E03BC02C912A3311F1822F84
S11309F080538A3030F4332727FD3095205330401C
S1130A000EC0422F552747FD50952154263020F41F
S1130A109A012753304003C09A0127553040092ECC
S1130A2002C0220F331F0A94E2F7622B732B9C5FE0
S1130A300EC0E12FFF27EE0FFF1FE80DF91DA72EB3
S1130A40B62EB182A082115060E070E090E0119760
S1130A50FD0181818A3319F48C918A3319F0CA1605
S1130A60DB0610F2DF91CF911F910F91FF90EF9071
S1130A70DF90CF90BF90AF909F908F900895FC012E
S1130A807183608353834283358324830895CF9293
S1130A90DF92EF92FF920F931F93CF93DF938C011A
S1130AA06B01EE24FF241AC0F80182819381E89E31
S1130AB0E001E99ED00DF89ED00D11248081918132
S1130AC0C80FD91FCE01F6010995FFEF8F3F9F078D
S1130AD059F0019759F00894E11CF11CF801848144
S1130AE09581E816F90600F3C0E0D0E0CE01DF916D
S1130AF0CF911F910F91FF90EF90DF90CF900895C9
S1130B00EF92FF920F931F93CF93DF93EC017B013E
S1130B1000E010E012C08A819B819C01029FC00109
S1130B20039F900D129F900D112428813981820F0B
S1130B30931FF70109950F5F1F4F8C819D81081743
S1130B40190748F3DF91CF911F910F91FF90EF9018
S1130B5008958FB7F894992708958FBF0895282F83
S1130B609FB7F894E82FFF27ED5EF74F80818F3F02
S1130B7081F4E0913D0EE21771F40BC02093340E22
S1130B8004C0FF27ED5EF74F208320933D0E20E045
S1130B9007C025E005C08091340E8F3F91F7EECF5A
S1130BA0892F99278FBF822F992708951F931FB7E5
S1130BB0F89480913C0E882341F485E00E94AF05AF
S1130BC0882319F481E080933C0E812F99278FBFED
S1130BD01F910895809333088FEF80932D0880939D
S1130BE02C088BE88093320841E0409330088091D0
S1130BF0210290912202892B09F040C02FB7F8946A
S1130C00332785E0809324021092250287E298E03E
S1130C109093200280931F0282E090E0909322023E
S1130C208093210210922702109226028DE0809375
S1130C3023022FBF8FB7F894282F33278091F70B07
S1130C408A3011F42FBF16C02FBF9FB7F89480913C
S1130C50CB08882311F020E005C04093CB08109204
S1130C60CC0821E0892F99278FBF222319F00E94F5
S1130C70D605089510922202109221021298089526
S1130C80EF92FF920F931F93A82F78018901762F7B
S1130C907695272F33278AE190E0F901E89F9001A8
S1130CA0E99F300DF89F300D1124F901E95FF14FF0
S1130CB06170660F80818D7F862B8083F901E050FF
S1130CC0F24F8081882319F085E090E056C0A0831C
S1130CD0E382F4820583168352834183772309F0E8
S1130CE044C08FB7F894282F3327922F80911B028A
S1130CF0882311F581E080931B0210921A0E2FBFF6
S1130D008FB7F894082F1127902F8091110281300A
S1130D1059F580911B02813021F484E00E94AF05D3
S1130D2009C0823009F580911A0E8093110283E084
S1130D3080931B020FBF19C080911A0E882311F4EF
S1130D402FBF13C0809126088F3F71F4E0911002E9
S1130D50EE2351F00DC010920F0204C0FF27EA5D8C
S1130D60F74F1082109210029FBF80E090E005C000
S1130D7080910F028F3F91F7EECF1F910F91FF905B
S1130D80EF900895809100029091010264E670E072
S1130D900E94E01F21E537E3A901849F9001859F0C
S1130DA0300D949F300D11242F5A384C30931C0E63
S1130DB020931B0E3093310E2093300E25E83FE034
S1130DC0AC01429FC001439F900D529F900D11248E
S1130DD08B57904F90930F0880930E08089580913D
S1130DE01B0E90911C0E9C01220F331F97FF04C011
S1130DF08BE090E128273927C901019690931C0EB6
S1130E0080931B0E20910E0830910F0882279327A0
S1130E1008950E94EF06892F9927AA27BB2780935C
S1130E20FC0D9093FD0DA093FE0DB093FF0D0E9459
S1130E30EF06BC01672F7727669570930B086093C4
S1130E400A088091FC0D9091FD0DA091FE0DB091CA
S1130E50FF0D8F3F9105A105B10560F08EEF90E085
S1130E60A0E0B0E08093FC0D9093FD0DA093FE0DE7
S1130E70B093FF0D2091FC0D3091FD0D4091FE0DBE
S1130E805091FF0DCB01AA27BB27820F931FA41FEC
S1130E90B51F81509240A040B04040F080E092E005
S1130EA0821B930B90930B0880930A0808958091FA
S1130EB0F70B8A3021F48091AF08843021F081E06F
S1130EC080931C02089587E00E94AF0510921C02D3
S1130ED008952FB7F89433278093C600E0ECF0E030
S1130EE08081806480832FBF0895FC0161157105A2
S1130EF019F481E090E008958091C7089091C808A2
S1130F00892B19F085E090E008957093250E609385
S1130F10240EF093C808E093C7081092B108109209
S1130F20B00881E08093B2088091C000806480930F
S1130F30C0008091C10080648093C100808121E061
S1130F4030E03093B1082093B0080E94690780E034
S1130F5090E008958FB7F894992720912D022E7F61
S1130F6020932D022EE720931E088FBF61E070E0CE
S1130F708EE198E00E94750799270895CF92DF9239
S1130F80EF92FF920F931F9380931A026093260EA1
S1130F90C901880F892F881F990B91958093270E7B
S1130FA0220F812F9927282B2093280E0093290E96
S1130FB0D092F30BC092F20BF092C508E092C408F1
S1130FC04093C20883E00E94AF051F910F91FF90E8
S1130FD0EF90DF90CF9008959C0160910E02462F10
S1130FE055278AE190E0489FF001499FF00D589FF2
S1130FF0F00D1124E95FF14F808181FF1AC066234F
S113100019F480E094E002C080E090E028173907EA
S113101081F48AE190E0489FF001499FF00D589FC8
S1131020F00D1124E95FF14F80818460808320E01A
S113103030E08AE190E0489FF001499FF00D589F0D
S1131040F00D1124E050F24F358724871786168659
S11310500895ECECF0E06927660FF11DE60FF11D31
S1131060C895982F802D3196C89590250895982F6E
S11310704FB7F89455272BB1277D2BB980E097FD06
S11310805B9A5D9A4A9980682BB996FD5B9A5D9A42
S11310904A9980642BB995FD5B9A5D9A4A9980625E
S11310A02BB994FD5B9A5D9A4A9980612BB993FDA3
S11310B05B9A5D9A4A9988602BB992FD5B9A5D9A16
S11310C04A9984602BB991FD5B9A5D9A4A99826032
S11310D02BB990FD5B9A5D9A4A9981604FBF99271D
S11310E00895982F80912802882389F5992379F50A
S11310F031E03093280280911202809329022091DA
S11311001D02822F817080931208809117029091A2
S1131110180290932B0280932A0280911E028093DE
S11311202C0232273170267EE32FFF27EE0FFF1F9C
S1131130ED5EFD4F80819181909318028093170298
S1131140232B20931D028AE00E94AF05089580910D
S11311501D0280FF02C08B7F01C08D7F80931D0222
S113116008950F931F93082F162F8091AF08813095
S1131170D9F0813038F0823009F44AC0833009F064
S113118028C159C0002309F458C110921E0E1092B0
S11311901D0E1092FB0D10922F0E1092B308109298
S11311A0DA0A1092D90A39C1002309F046C18091A4
S11311B0D90A9091DA0A0E9429089093DA0A809356
S11311C0D90A82E08093AF0810932F0E143409F0EB
S11311D000C125C18695869503C080911D02869520
S11311E0817009F0F6C080911D02992311F084608A
S11311F001C0826080931D0280911D02877E8860F9
S113120080931D0210921E028FEF8093120215C16B
S1131210002309F0DEC06093B3088091D90A90914D
S1131220DA0A0E9429089093DA0A8093D90A83E0A3
S11312308093AF0802C18091FB0D8F3F09F4C9C0B0
S1131240002309F461C0823008F4C3C0E0911D0E8C
S1131250EE2309F4EBC04E2F4150E42FFF27E35E49
S1131260F14F82819927382F2227442311F4E2E099
S113127002C0E42FE150FF27E35EF14F82819927FA
S1131280282B392B8091D90A9091DA0A281739072B
S113129009F09FC080E00E9471083091B3088091EA
S11312A0CD0A2091CE0A982F9F5F963008F090E0E7
S11312B0921771F0E82FFF27E353F54F32838F5FC6
S11312C08093CD0A863010F01092CD0A0E94D60584
S11312D010921E0E10921D0E94E09093AF0810927F
S11312E0FB0D10922F0E1092B3081092DA0A10928E
S11312F0D90A80912D028D7F80932D0280911C024A
S1131300882309F49AC084C0823008F44EC0E09166
S11313101E0EFF27E35EF14F8281482F5527342F9D
S113132020911D02822F8695869586958370992734
S11313308130910519F00297F9F40EC0277E2061DF
S113134020931D02442311F485E001C080E08093C2
S11313501E023093120210C080911E02873860F47E
S1131360E0911702F0911802E80FF11D408380917B
S11313701E028F5F80931E0280911E0EE82FFF27AE
S1131380E35EF14F62818F5F80931E0E833010F015
S113139010921E0E77278091D90A9091DA0A0E9442
S11313A029089093DA0A8093D90A80911D0EE82FB8
S11313B0FF27E35EF14F12838F5F80931D0E83300E
S11313C010F010921D0E8091FB0D8F5F8093FB0D2A
S11313D034C010921E0E10921D0E14E01093AF082C
S11313E01092FB0D10922F0E1092B3081092DA0A8D
S11313F01092D90A80912D028D7F80932D0281E075
S11314000E94710880911C02882329F01093AF0870
S11314100E94570712C0002381F081E009CF809118
S11314201D02982F917080FDD5CED7CE8091210ECC
S11314309927382F222742E01CCF1F910F9108953E
S11314401F920F920FB60F9211242F933F934F9335
S11314505F936F937F938F939F93AF93BF93EF9318
S1131460FF938091C00087FF42C06091C600E09165
S1131470DB0AF091DC0A309719F180913A0E9091D1
S11314803B0EE80FF91F6083019690933B0E809307
S11314903A0E2091400E3091410E8217930738F195
S11314A01092DC0A1092DB0A8091F60B8330F9F07B
S11314B08091C1008F778093C1001092F60B17C002
S11314C06E3719F460E081E010C080912D026D3711
S11314D021F4826080932D020AC081FF05C08D7FB4
S11314E080932D0280E2682780E00E94B108FF917A
S11314F0EF91BF91AF919F918F917F916F915F9188
S11315004F913F912F910F900FBE0F901F90189500
S1131510982F8D57823068F480912D0281608093DA
S11315202D0280E289278093FA0D8DE780931E08AF
S113153002C090931E0861E070E08EE198E00E9482
S113154075079927089578941F920F920FB60F92FA
S11315501124FF920F931F932F933F934F935F9305
S11315606F937F938F939F93AF93BF93CF93DF93A7
S1131570EF93FF932091B0083091B1088091240E2D
S11315809091250E2817390780F4E091C708F0914F
S1131590C808E20FF31F80812F5F3F4F3093B108DB
S11315A02093B0080E946907D1C01092C808109215
S11315B0C7081092B2088091C1008F7B8093C1004C
S11315C0FFB6F89480912D0280FF0EC08E7F809329
S11315D02D028091FA0D80931E0861E070E08EE187
S11315E098E00E947507AFC08091F70B843009F42E
S11315F08CC0853040F4823021F18330B8F58130DD
S113160009F09CC00DC0863009F48DC0863008F402
S113161083C0873009F48EC0883009F08FC091C030
S11316208091C6080E94880A082F83E08093F70BF4
S11316306091C60880913E0E90913F0E0E94290849
S113164010C08091370E0E94880A082F83E080938F
S1131650F70B6091370E80913E0E90913F0E0E94E1
S1131660290890933F0E80933E0E66C0E091E20AF3
S1131670FF27EE0FFF1FE653F74F80810E94880A71
S1131680082F1091E20AC12FDD27FE01EE0FFF1F84
S1131690E653F74F608180913E0E90913F0E0E9479
S11316A0290890933F0E80933E0E2091C3082F5F2C
S11316B02093C308113039F580912402E0911F0270
S11316C0F0912002E80FF11DE0818F5F80932402E6
S11316D090912302981730F482E08093CB0840E085
S11316E050E002C04E2F5527DE01AA0FBB1FFD019B
S11316F0E753F74F8081823031F02F3F21F0A6531A
S1131700B74F4C9319C084E012C080913E0E0E94E2
S1131710880A082F85E00BC080913F0E0E94880A3A
S1131720082F86E004C00E94AA07082F87E0809350
S1131730F70B02C088E003C0002329F089E08093FE
S1131740F70B0E94D6058F2D99278FBFFF91EF913C
S1131750DF91CF91BF91AF919F918F917F916F91C5
S11317605F914F913F912F911F910F91FF900F9097
S11317700FBE0F901F9018951F920F920FB60F92E5
S113178011248F938091C80087FF02C08091CE00FE
S11317908F910F900FBE0F901F90189578941F9201
S11317A00F920FB60F9211240F900FBE0F901F903F
S11317B0189578941F920F920FB60F9211240F90E0
S11317C00FBE0F901F90189578941F920F920FB62A
S11317D00F9211240F900FBE0F901F9018957894BC
S11317E01F920F920FB60F9211240F900FBE0F90FD
S11317F01F90189578941F920F920FB60F92112490
S11318008F939F9380919600909197009F918F91D1
S11318100F900FBE0F901F90189578941F920F92FF
S11318200FB60F9211242F933F938F939F932FB74B
S1131830F89433278091D50A9091D60A0196909313
S1131840D60A8093D50A2FBF9F918F913F912F91F4
S11318500F900FBE0F901F9018951F93182F882379
S113186019F012980E94EA0580E090E0112311F427
S113187081E090E01F9108950F931F938091F80BDE
S11318809091F90B22E08030920739F481E090E0E6
S11318909093F90B8093F80B07C001969093F90B82
S11318A08093F80B019711F40E94C2060E94090765
S11318B00091FC0D1091FD0D2091FE0D3091FF0D56
S11318C04AEF5BE060E084E00E9440060E942D0C39
S11318D01F910F9108950F931F938091F80B90918E
S11318E0F90B01969093F90B8093F80B8150924079
S11318F0F1F00E9409070091FC0D1091FD0D20915B
S1131900FE0D3091FF0D40910A0850910B080330F1
S113191087EF180783E0280780E0380798F44353DB
S1131920574F60E082E00E944006823061F400E09C
S113193010E020E030E040E050E060E083E00E940E
S1131940400601C086E00E942D0C1F910F9108955E
S11319500F931F9382309105D9F08330910579F06C
S11319600197F1F400E010E020E030E040E050E0C6
S113197060E081E00E9440060E942D0C11C00E948C
S1131980C2061092F90B1092F80B0E946B0C08C05F
S11319900E94C2061092F90B1092F80B0E943C0CA4
S11319A01F910F910895809100029091010264E6C5
S11319B070E00E94E01F2FB7F894332782B191E0C2
S11319C0892782B92FBF662319F06430D8F40CC07C
S11319D0E091320EF091330EEC30F10558F4EE5FE5
S11319E0FD4F808199270BC08091320E9091330E68
S11319F0892B19F0119880E807C0862F99270E9437
S1131A00A80C04C0129881E00E94EA058091320E6D
S1131A109091330E01969093330E8093320E089575
S1131A20EF92FF920F931F93CF93DF93EC017A0110
S1131A308B018091FC0D9091FD0DA091FE0DB09154
S1131A40FF0D0097A105B10541F041155105610550
S1131A50710519F40E94D30C29C0822F0E942D0C09
S1131A60882321F18091FC0D9091FD0DA091FE0D34
S1131A70B091FF0DE816F9060A071B0799F48BE0ED
S1131A80CA3FD80779F480910A0890910B08A701FE
S1131A90BE018353974F0E941620892B19F40E948C
S1131AA03C0C04C0129881E00E94EA05DF91CF91BA
S1131AB01F910F91FF90EF9008959F92AF92BF9264
S1131AC0CF92DF92EF92FF920F931F93CF93DF9306
S1131AD0E82E80910E02082F11272AE130E0029FA0
S1131AE0F001039FF00D129FF00D1124E050F24F0E
S1131AF0F080A090DD0AB090DE0AC090DF0AD0909A
S1131B00E00AC181D2819FEF90930E021082882354
S1131B10C9F58FB7F894982E80911B02833089F50C
S1131B2080911102882369F580910F0220E030E052
S1131B308F3F11F421E030E0232BF1F48F3F19F4AF
S1131B402FEF30E00DC0282F3327F901EA5DF74F5E
S1131B50808180930F028F3F11F490931002908341
S1131B6020931A0E8FEF8093110281E080931B0261
S1131B7084E00E94AF0505C081E0809311021092B9
S1131B801B029FBE8AE190E0089FF001099FF00DBF
S1131B90189FF00D1124E95FF14FE081E695E170A3
S1131BA0000F111FE02B82E0F816A9F08F1520F02A
S1131BB081E0F816E1F507C083E0F81631F184E01E
S1131BC0F816A9F52CC0EE2391F58E2D0E942D0C4C
S1131BD0882369F121C0EE2351F582E0E81669F407
S1131BE000E010E020E030E040E050E060E083E01E
S1131BF00E9440060E942D0C1AC08E2D0E942D0CAE
S1131C008823A9F00E946B0C12C0EE2381F48E2D60
S1131C100E942D0C882359F00E94D30C08C0EE2397
S1131C2031F42E2DB601A501CE010E94100DDF91D5
S1131C30CF911F910F91FF90EF90DF90CF90BF90C5
S1131C40AF909F900895BF92CF92DF92EF92FF9250
S1131C500F931F93B82E80910C08882339F085E0E8
S1131C6080931A0283E00E94AF051DC08B2D992733
S1131C70FC01EE0FFF1FE80FF91FE15EF74F208113
S1131C803181BB2011F461E601C060E641E0C42E5D
S1131C90D12CEE24FF2400E010E040E08AE00E9412
S1131CA0BE07B092E10A1F910F91FF90EF90DF9071
S1131CB0CF90BF900895CF92DF92EF92FF920F934F
S1131CC01F9380910C08882339F085E080931A02D1
S1131CD083E00E94AF0529C04091E30A842F99272D
S1131CE0FC01EE0FFF1FE80FF91FDF01A15EB74FE4
S1131CF02D913C91EF5DF74F808182FF06C0442314
S1131D0011F068E807C069E805C0442311F063E8EE
S1131D1001C066E871E0C72ED12CEE24FF2400E058
S1131D2010E040E089E00E94BE071F910F91FF90F0
S1131D30EF90DF90CF9008950F931F93CF93DF938D
S1131D4020911008309111082F5F3F4F30931108F4
S1131D502093100880910E02E82FFF27882319F49E
S1131D6080E094E002C080E090E02817390721F475
S1131D7010921108109210086091100870911108C7
S1131D808AE190E09F01289FF001299FF00D389F80
S1131D90F00D1124DF01A050B24FED018C859D851B
S1131DA06817790781F5E95FF14F808183FD04C0ED
S1131DB080E00E945D0D30C01092BD08FD012685B3
S1131DC037854427552780859185A285B385821B55
S1131DD0930BA40BB50B8093BB08292F3A2F4B2FE1
S1131DE055272093BA089D01442755272093B90805
S1131DF08B2F9927AA27BB278093B80880E090E00F
S1131E000E948C1709C00AE010E026EB38E04EEF80
S1131E1050E081E00E947615DF91CF911F910F91E0
S1131E20089585E08093250880910E0299272AE180
S1131E3030E0829FF001839FF00D929FF00D1124FA
S1131E40E050F24F8489958990931108809310088B
S1131E500E949C0E0895EF92FF920F931F93CF93CD
S1131E60DF93982FDB018091AE084093AE08843055
S1131E7009F4A4C4853050F4823009F4D9C0833005
S1131E8008F0AAC3813009F0A3C40AC0863008F45C
S1131E909FC4883008F4D5C38A3008F099C483C439
S1131EA040910E024F3F09F493C4992309F08CC466
S1131EB0809125088230C1F0833038F4882309F4F6
S1131EC0B4C0813009F084C40AC0843009F487C0E6
S1131ED0843008F471C0853009F07AC490C06091F0
S1131EE0F40B7091F50B5EC08091B6089927982F7A
S1131EF088272091B7083327822B932B8655924449
S1131F0009F083C1242F33278AE190E0289FF00150
S1131F10299FF00D389FF00D1124E050F24FE0900E
S1131F20BA08FF2400271127102F0F2DFE2CEE24B2
S1131F302091B808332744275527522F44273327A5
S1131F4022278091B9089927AA27BB27DC01992762
S1131F508827282B392B4A2B5B2B8091BB08992788
S1131F60AA27BB27282B392B4A2B5B2BE22AF32ADF
S1131F70042B152B80859185A285B3858E159F052D
S1131F80A007B10708F041C16091100870911108D1
S1131F908091F40B9091F50B861B970B9695879582
S1131FA0680F791F06E011E020E030E040E050E0E7
S1131FB082E00E9476150CC48091B6089927982F68
S1131FC088272091B7083327822B932B8655924478
S1131FD009F02BC18091BD0882FD1EC026C1242FAB
S1131FE033278AE190E0289FF001299FF00D389F64
S1131FF0F00D1124E050F24F64897589D3CF80919C
S1132000B6089927982F88272091B7083327822B61
S1132010932B8655924429F460911008709111080D
S1132020C1CF80E00E945D0DD3C30E949F16D0C330
S113203060910E026F3F09F4CBC3992309F0C4C326
S113204080912508833009F4E3C0843030F4813072
S113205071F0823009F0BCC377C0853009F483C2C3
S1132060853008F4EDC1863009F0B2C35EC28091B8
S1132070B6089927982F88272091B7083327822BF1
S1132080932B8655924409F04AC08091BE08992743
S1132090982F88272091BF083327822B932BA817CA
S11320A0B907E9F5262F33278AE190E0289FF0014C
S11320B0299FF00D389FF00D1124E050F24FE0906D
S11320C0BA08FF2400271127102F0F2DFE2CEE2411
S11320D02091B808332744275527522F4427332704
S11320E022278091B9089927AA27BB27DC019927C1
S11320F08827282B392B4A2B5B2B8091BB089927E7
S1132100AA27BB27282B392B4A2B5B2BE22AF32A3D
S1132110042B152BE086F1860287138711C0262F26
S113212033278AE190E0289FF001299FF00D389F22
S1132130F00D1124E050F24F10861186128613869A
S113214082E0809325085EC08091BE089927982F6D
S113215088272091BF083327822B932BA817B90710
S113216009F053C0262F33278AE190E0289FF0011D
S1132170299FF00D389FF00D1124E050F24FE090AC
S1132180BA08FF2400271127102F0F2DFE2CEE2450
S11321902091B808332744275527522F4427332743
S11321A022278091B9089927AA27BB27DC01992700
S11321B08827282B392B4A2B5B2B8091BB08992726
S11321C0AA27BB27282B392B4A2B5B2BE22AF32A7D
S11321D0042B152BE086F1860287138720911008C3
S11321E0309111088091F40B9091F50B821B930BA5
S11321F0969587952F5F3F4F820F931F90931108F9
S1132200809310080E947D19E3C20E94B019E0C2B5
S11322108091BE089927982F88272091BF083327DB
S1132220822B932BA817B90719F00E94C715D0C2A7
S1132230262F33278AE190E0A901489F9001499F06
S1132240300D589F300D1124F901E95FF14F808161
S1132250877F80838091BD08C0911008D0911108B8
S113226080FF80C08091F40B9091F50BC817D907BB
S113227099F5E090BA08FF2400271127102F0F2D9D
S1132280FE2CEE242091B808332744275527522FDB
S11322904427332722278091B9089927AA27BB27E7
S11322A0DC0199278827282B392B4A2B5B2B80911B
S11322B0BB089927AA27BB27282B392B4A2B5B2B32
S11322C0E22AF32A042B152BE114F104010511056C
S11322D019F480E090E002C0CE0101960E94EC0760
S11322E080910E0299272AE130E0829FF001839FBA
S11322F0F00D929FF00D1124E050F24F8091BA0836
S11323009927AA27BB27EE24F82E092F1A2F2091EC
S1132310B808332744275527522F44273327222729
S11323208091B9089927AA27BB27DC019927882718
S1132330282B392B4A2B5B2B8091BB089927AA2782
S1132340BB27282B392B4A2B5B2BE22AF32A042B9D
S1132350152B8EEF90E0A0E0B0E0E80EF91E0A1F06
S11323601B1F3AC0F901E050F24FD587C487609132
S1132370BC08862F992797878687E090BA08FF24A0
S113238000271127102F0F2DFE2CEE242091B808C2
S1132390332744275527522F442733272227809158
S11323A0B9089927AA27BB27DC0199278827282B56
S11323B0392B4A2B5B2B8091BB089927AA27BB2773
S11323C0282B392B4A2B5B2BE22AF32A042B152BBF
S11323D0E60EF11C011D111DE086F18602871387AC
S11323E080910E02282F33278AE190E0289FF00184
S11323F0299FF00D389FF00D1124E95FF14F809172
S1132400BD089927969587958170880F880F9081CC
S11324109B7F982B908392FF02C091FFD5C18AE1E4
S113242090E0289FF001299FF00D389FF00D1124B2
S1132430E95FF14F8081816080830E94C519C8C122
S11324408091B6089927982F88272091B7083327B9
S1132450822B932B8655924409F0E3CD8091BE08DC
S11324609927982F88272091BF083327822B932BF5
S1132470A817B90709F0D5CD7727E090BA08FF244B
S113248000271127102F0F2DFE2CEE242091B808C1
S1132490332744275527522F442733272227809157
S11324A0B9089927AA27BB27DC0199278827282B55
S11324B0392B4A2B5B2B8091BB089927AA27BB2772
S11324C0282B392B4A2B5B2BE22AF32A042B152BBE
S11324D08AE190E0689FF001699FF00D789FF00D0C
S11324E01124EF01C050D24F2E893F89442755272C
S11324F088899989AA89BB89821B930BA40BB50B84
S1132500E816F9060A071B0709F08BCDE95FF14FBE
S11325108081886080838091BD0880FF82CD809116
S1132520BC089927998F888F7CCDC6EBD8E0699138
S1132530CD010E942908DC0148E0CE3BD407B9F75D
S11325408093BF08892F99278093BE086091100853
S1132550709111080AE010E09E01285030404EEFBF
S113256050E083E026CD262F33278AE190E0289F90
S1132570F001299FF00D389FF00D1124E95FF14F10
S113258080819091BE082091BF0883FD15C0892FDA
S11325909927982F88273327822B932BA817B907BD
S11325A041F48091BD0882FF04C08091BC08992742
S11325B010C00E949C0E0CC1892F9927982F882740
S11325C03327822B932BA817B90709F02ACD80E073
S11325D090E00E948C17FCC020910E022F3F09F45A
S11325E0F7C0992309F0F0C0809125088823A1F051
S11325F0863009F0EDC0109225088091BD08C09185
S11326001008D091110880FF02C066E001C068E0A4
S1132610CE010E944A15DCC033278AE190E0289F4E
S1132620F001299FF00D389FF00D1124E050F24F76
S1132630868597858E3F910509F0F3CC0E94111889
S1132640C7C080910E028F3F09F4C2C0992309F0DC
S1132650BBC099270AE110E0809FF001819FF00D33
S1132660909FF00D1124EF01C050D24F8881823029
S113267041F1833009F45FC0813009F0A9C08EEFC5
S113268090E0A0E0B0E088879987AA87BB87E95FDC
S1132690F14F80818B7F808380E090E00E94EC0783
S11326A080910E029927809FF001819FF00D909FE9
S11326B0F00D1124E95FF14F8081877F8160808371
S11326C0B0CC8091BA089927AA27BB27EE24F82E0C
S11326D0092F1A2F2091B808332744275527522F42
S11326E04427332722278091B9089927AA27BB2793
S11326F0DC0199278827282B392B4A2B5B2B8091C7
S1132700BB089927AA27BB27282B392B4A2B5B2BDD
S1132710E22AF32A042B152B8EEF90E0A0E0B0E020
S1132720E80EF91E0A1F1B1FE886F9860A871B8715
S11327300E9402194DC08091BA089927AA27BB2785
S1132740EE24F82E092F1A2F2091B8083327442796
S11327505527522F4427332722278091B9089927D8
S1132760AA27BB27DC0199278827282B392B4A2B3A
S11327705B2B8091BB089927AA27BB27282B392BD1
S11327804A2B5B2BE22AF32A042B152B8EEF90E0C5
S1132790A0E0B0E0E80EF91E0A1F1B1FE886F986C8
S11327A00A871B873ECC80910E028F3F89F09923C4
S11327B059F41092BD080E94F4150AC080910E02CB
S11327C08F3F31F0992311F081E02CCC0E949C18AA
S11327D0DF91CF911F910F91FF90EF900895CF92C9
S11327E0DF92EF92FF920F931F934091AE085091A6
S11327F0E30A2091B4083091B508652F7727FB01CF
S1132800EE0FFF1FE60FF71FDF01A15EB74F8D919B
S11328109C9111972817390709F0F8C0453009F43D
S113282053C0463070F4423009F4B2C0433018F457
S1132830413069F48EC0433009F4C9C0443039F4DE
S11328400BC0483008F453C04A3008F45BC04093CE
S1132850AE085093E30A17C14093AE085093E30ABD
S11328608091380E9091390E81309105E1F08130DC
S1132870910520F0029709F006C110C080910C0860
S1132880882309F0DEC091E0C92ED12CEE24FF2468
S113289000E010E040E061E88BE0F3C0EF5DF74F4B
S11328A0808184608083FB01EE0FFF1FE60FF71F1A
S11328B0EF5DF74F80818260808340E060E070E0EC
S11328C080E00E942B0FDFC04093AE085093E30AD0
S11328D0EF5DF74F808181FFBFC08091380E9091EA
S11328E0390E8D939C9380818D7F808322C0EF5D10
S11328F0F74F808181FFACC086958695869583705D
S113290031F0ADC0EF5DF74F808181FFA1C0483049
S113291061F0463051F08091210881FF0CC0809114
S1132920240881FD02C051E007C04093AE085093D3
S1132930E30A80E08AC050E0852F9927FC01EE0F5E
S1132940FF1FE80FF91FEF5DF74F8081877E8083BB
S113295050CF4093AE085093E30AEF5DF74F808168
S113296080FD6FC0C090D70AD090D80AE090C0080C
S1132970F090C1080091380E1091390E552311F0D2
S113298064ED01C066ED20E030E042E082E079C011
S11329904093AE085093E30AEF5DF74F808180FDCA
S11329A050C0E090C008F090C108C090D70AD09001
S11329B0D80A0091380E1091390E552311F064EDA8
S11329C001C066ED20E030E042E083E05AC040936D
S11329D0AE085093E30AEF5DF74F808180FD31C06C
S11329E0C090D70AD090D80AE090C008F090C108EF
S11329F00091380E1091390E552311F064E801C08E
S1132A0067E820E030E040E084E03BC0EF5DF74F52
S1132A10808181FF1DC08695869586958370F9F423
S1132A20443019F42D933C93E4CE4093AE08509374
S1132A30E30A80910C08882321F45523C1F063E54F
S1132A4017C085E080931A0283E00E94AF051BC083
S1132A504093AE085093E30A0E945B0E14C0409367
S1132A60AE085093E30A852F0E94230E0CC065E53F
S1132A7011E0C12ED12CEE24FF2400E010E040E050
S1132A8088E00E94BE071F910F91FF90EF90DF90A6
S1132A90CF9008959C016093AE0880911F08909197
S1132AA020088217930719F41092E30A0FC080914B
S1132AB02208909123088217930721F481E08093E0
S1132AC0E30A04C080E00E94AF0508958091E30A00
S1132AD09927FC01EE0FFF1FE80FF91FEF5DF74F79
S1132AE08081877E80830E94EF1308950F931F9344
S1132AF0E82F8093AE081093D80A0093D70A309336
S1132B00C1082093C0087093B5086093B40850932B
S1132B10390E4093380E80911F0890912008681751
S1132B20790719F41092E30A13C080912208909156
S1132B3023086817790721F481E08093E30A08C029
S1132B4090E08091E30A882309F491E09093E30AEA
S1132B506050784098F481E00930180778F4E53043
S1132B6051F081E04830580748F4400F511F495054
S1132B70514020F407C04050584020F081E00E94AA
S1132B80AF0502C00E94EF131F910F9108950F9398
S1132B901F9380911008909111082091F40B3091AB
S1132BA0F50B8217930721F481E00E945D0D19C093
S1132BB0009729F4309311082093100805C0019759
S1132BC09093110880931008609110087091110877
S1132BD00AE010E026EB38E04EEF50E081E00E947E
S1132BE076151F910F9108958F929F92AF92BF9285
S1132BF0CF92DF92EF92FF920F931F93CF93DF93C5
S1132C0060910E02A62EBB248AE190E0A89EF001FA
S1132C10A99EF00DB89EF00D1124E050F24F818072
S1132C209280C090DD0AD090DE0AE090DF0AF09036
S1132C30E00AC685D78503811481258136810C1964
S1132C401D092E093F0911F480E00DC04485558506
S1132C50662319F480E094E002C080E090E0481715
S1132C60590721F482E00E945D0D5CC0CE01AA27C1
S1132C70BB27800F911FA21FB31F8F3F9105A10592
S1132C80B10520F00EEF10E00C1B1D0B980144273A
S1132C9055278AE190E0A89EB001A99E700DB89EC8
S1132CA0700D1124FB01E050F24F80859185A285BF
S1132CB0B385820F931FA41FB51F80879187A287B6
S1132CC0B38786859785800F911F978786872C0DFC
S1132CD03D1D4E1D5F1D2093DD0A3093DE0A409397
S1132CE0DF0A5093E00A209749F4FB01E95FF14FB2
S1132CF0808182FF03C081E080930D088C0C9D1CB1
S1132D008AE190E0A89EF001A99EF00DB89EF00D16
S1132D101124E050F24F648575859401AE0183E07F
S1132D200E947615DF91CF911F910F91FF90EF9044
S1132D30DF90CF90BF90AF909F908F9008954F9267
S1132D405F926F927F928F929F92AF92BF92CF9237
S1132D50DF92EF92FF920F931F93CF93DF934091F3
S1132D600E02642E77248AE190E09C01629EC001E9
S1132D70639E900D729E900D1124DC01A050B24F01
S1132D80FD0181809280A090DD0AB090DE0AC0909F
S1132D90DF0AD090E00AC689D789608D718DE380FF
S1132DA0F48005811681EA18FB080C091D0909F451
S1132DB051C0FC01E95FF14F808183FD21C082FF96
S1132DC006C0FD0184859585958B848B47C08860FA
S1132DD08083442319F420E034E002C020E030E092
S1132DE08AE190E0689EF001699EF00D789EF00DF6
S1132DF01124E050F24F21503040358B248B2EC0EB
S1132E00FD0124893589448455842415350511F43C
S1132E1066857785C617D70721F5442319F440E062
S1132E2054E002C040E050E0C901019684179507C0
S1132E3071F48AE190E0689EF001699EF00D789E3D
S1132E40F00D1124E95FF14F808181FF03C0241547
S1132E50350521F480E00E945D0D4DC00E94110FE4
S1132E604AC0CE01AA27BB278E0D9F1DA01FB11FEC
S1132E709B0144275527281739074A075B0710F099
S1132E80870103C08B010C1B1D0B98014427552798
S1132E90D601C501820F931FA41FB51F8093DD0ABD
S1132EA09093DE0AA093DF0AB093E00A8AE190E0EF
S1132EB0689EF001699EF00D789EF00D1124E0509B
S1132EC0F24F80899189A289B389820F931FA41F2D
S1132ED0B51F808B918BA28BB38BCE01800F911F7A
S1132EE0978B868B8A0C9B1C648975899401AE012F
S1132EF081E00E947615DF91CF911F910F91FF9091
S1132F00EF90DF90CF90BF90AF909F908F907F9085
S1132F106F905F904F900895AF92BF92CF92DF92DF
S1132F20EF92FF920F931F93CF93DF931092250894
S1132F3020910E02622F77272AE130E0629FF00190
S1132F40639FF00D729FF00D1124E050F24FA0909A
S1132F50BA08BB24CC24DD24DC2CCB2CBA2CAA2428
S1132F60E090B808FF24002711271E2D0027FF2416
S1132F70EE242091B908332744275527A901332784
S1132F802227E22AF32A042B152B2091BB0833278E
S1132F9044275527E22AF32A042B152BAE28BF28F1
S1132FA0C02AD12A9C0144275527A20EB31EC41E51
S1132FB0D51EA08AB18AC28AD38A20911008309182
S1132FC01108358B248B978B868B8091BD0880FDEF
S1132FD003C02EEF30E004C08091BC08282F3327B3
S1132FE08AE190E0689FF001699FF00D789FF00DF1
S1132FF01124DF01A050B24FED01398F288FE95F12
S1133000F14F8081886080830E949F16DF91CF9169
S11330101F910F91FF90EF90DF90CF90BF90AF90F2
S11330200895EF92FF920F931F93CF93DF9386E05F
S11330308093250880910E0299274AE1E42EF12C11
S11330408E9DB0018F9D700D9E9D700D1124FB010E
S1133050E050F24FC485D585D0931108C093100871
S1133060268537854427552780859185A285B38594
S1133070821B930BA40BB50B8093BB08292F3A2F0B
S11330804B2F55272093BA089D0144275527209399
S1133090B9088B2F9927AA27BB278093B80886E500
S11330A08093B70882E48093B608695F714FFB018F
S11330B0808182FF05C08091BD0882608093BD0835
S11330C00EEF10E020E030E040E050E0BE0182E08E
S11330D00E94761580910E0299278E9DF0018F9D96
S11330E0F00D9E9DF00D1124E050F24F84859585DE
S11330F001960E94EC0780910E0299278E9DA001F3
S11331008F9D500D9E9D500D1124FA01E050F24FF9
S113311024853585848995892817390731F4FA017E
S1133120E95FF14F8081877F8083DF91CF911F9189
S11331300F91FF90EF9008950F931F9360911008E3
S1133140709111088091F40B9091F50B0197681719
S1133150790719F585E08093BD081092BC08CB016E
S11331600E94EC0780910E0299272AE130E0829FA9
S1133170F001839FF00D929FF00D1124DF01A95FF0
S1133180B14F8C918B7F8C93E050F24F1086118657
S1133190128613860E94111811C06F5F7F4F7093BF
S11331A01108609310086150704000E010E020E0C6
S11331B030E040E050E084E00E9476151F910F91CA
S11331C0089585E08093BD0880910E0299272AE135
S11331D030E0829FF001839FF00D929FF00D112447
S11331E0E050F24F468557854093BC0824893589C1
S11331F0848595852817390711F4518F408F0E94D3
S1133200111808956F927F928F929F92AF92BF92FE
S1133210CF92DF92EF92FF920F931F93CF93DF939E
S113322020910E02C22FDD278AE190E0C89FF001B1
S1133230C99FF00DD89FF00D1124E050F24FA380E8
S1133240B480C580D6806090DD0A7090DE0A8090DC
S1133250DF0A9090E00A222319F460E074E002C0CF
S113326060E070E0882799272EEF30E040E050E0DE
S11332700E94C11F7B018C0110920D088AE190E02D
S11332809E01289FE001299FD00D389FD00D112465
S1133290C050D24F688579858A859B856E5F704062
S11332A080409040A80197010E94F41FA618B70817
S11332B0C808D908EA18FB080C091D096E157F0512
S11332C08007910718F00E94E11808C08E8580934A
S11332D0BC0884E08093BD080E94F415DF91CF916F
S11332E01F910F91FF90EF90DF90CF90BF90AF9020
S11332F09F908F907F906F9008950F931F9380916C
S1133300F40B9091F50B60911008709111086817F7
S11333107907A0F083E08093250880910E0288232A
S113332019F480E094E002C080E090E0019790936B
S1133330F50B8093F40B0E94C7150FC0861B970BE7
S113334096958795680F791F0AE010E026EB38E020
S11333504EEF50E081E00E9476151F910F91089581
S113336020911008309111088091F40B9091F50B85
S1133370821B930B96958795280F391F3093F50B75
S11333802093F40B0E947D1908956F927F928F927F
S11333909F92AF92BF92CF92DF92EF92FF920F93E0
S11333A01F93CF93DF93D0900E026D2C77248AE184
S11333B090E0689EF001699EF00D789EF00D112456
S11333C0AF01495F514FDA012C9120FD21C0E0503B
S11333D0F24F8081813009F400C181E08093250897
S11333E01092110810921008DD2019F460E074E0C6
S11333F002C060E070E0615070407093F50B609320
S1133400F40B0AE010E026EB38E04EEF50E0E1C0A8
S113341010922508EF01C050D24F8881833089F182
S1133420843030F4813051F0823009F0D9C026C0A4
S1133430843079F1853009F0D3C02EC08AE190E060
S1133440689EF001699EF00D789EF00D1124E95FED
S1133450F14F80818E7F80831092110810921008A2
S1133460DD2019F480E094E002C080E090E09093C5
S1133470F50B8093F40B0E949C18B2C00E940219B1
S1133480AFC08E859F85892B09F495C00E94E118F1
S1133490A7C00E949F16A4C089819A81AA27BB272E
S11334A05C01992488248B819C81AD81BE81882A0A
S11334B0992AAA2ABB2A277FFA012083811491041E
S11334C0A104B10429F4FEEF8F2E912CA12CB12C70
S11334D088859985AA85BB8588159905AA05BB05A4
S11334E030F0FEEF8F169104A104B10410F486E0CD
S11334F063C0888A998AAA8ABB8AE2E0EE2EEFEF3B
S1133500FE2EEFEF0E2FEFEF1E2FE80CF91C0A1D15
S11335101B1DC801B7012EEF30E040E050E00E94CF
S1133520F41F7F8B6E8BDD2021F4C12C74E0D72E29
S113353002C0CC24DD248AE190E09301289F30016D
S1133540299F700C389F700C1124E301C050D24F96
S1133550C801B7012EEF30E040E050E00E94F41FB4
S1133560CA01B9019601442755270E94F41F6B0133
S11335707C017D8B6C8B8EEF90E0998F888F8C858E
S11335809D858C159D05D9F42E853F8544275527A7
S113359088859985AA85BB85821B930BA40BB50BE3
S11335A088169906AA06BB0630F0F301E95FF14FCD
S11335B080818860808380E00E945D0D11C084E07A
S11335C0809325080AE010E026EB38E04EEF50E047
S11335D0B60181E00E94761503C0109225082ECF13
S11335E0DF91CF911F910F91FF90EF90DF90CF90DB
S11335F0BF90AF909F908F907F906F900895CF92DF
S1133600DF92EF92FF920F931F93CF93DF93853056
S113361009F4A4C1863090F4823051F1833038F437
S1133620882309F47AC1813009F0F3C21AC08330C7
S113363009F468C0843009F0ECC273C1883009F41D
S11336409FC2893038F4863009F46CC2873009F09F
S1133650E0C294C2893009F49EC28A3009F0D9C20A
S1133660B7C240E060E070E081E00E942B0FD1C25D
S113367080911A0290912408209121088630B1F596
S11336805D9A5D980000000089B1139A9E7F909323
S113369024082E7F2093210810920C0890E082FFCA
S11336A091E08091E10A992359F09927FC01EE0FEA
S11336B0FF1FE80FF91FEF5DF74F8081877ECCC0B5
S11336C09927FC01EE0FFF1FE80FF91FEF5DF74F7D
S11336D02081822F869586958695837099270297F7
S11336E01CF42D7F20830BC04AE0BCCF139A9E7F2D
S11336F0909324082E7F2093210810920C080E9496
S1133700EF1387C280911A028550823008F55D98C4
S1133710139887ED0E9437085D9882E090E0019746
S113372001960197E1F710C020E030E0E2E0F0E01C
S11337305D9A5D98CF01019701960197E1F72F5F9C
S11337403F4F28303105A1F74A9BEECF82E0BCC041
S1133750E090C408F090C5088091F20B9091F30BAF
S1133760892B09F442C08091C208C82FDD27249612
S11337705D98139860E0CC2406E21EE071E0D72E39
S113378083E0D81639F4C7010E9429087C012197E7
S113379031F52AC0E1E0DE1679F4F801C080219702
S11337A091F4D0901A020091C4081091C508C091F8
S11337B0F20BD091F30B13C0F2E0DF1639F4F801E9
S11337C06083219789F00F5F1F4F09C0F4E0DF1673
S11337D059F4209749F0F801C1908F0121978C2D5D
S11337E00E943708682FCCCF139A80911A02109246
S11337F01A028830C1F0893048F4833081F0843073
S113380009F47EC0823009F004C287C08A3009F40A
S113381041C08A3018F18B3009F0FBC158C040E038
S1133820B70180E022CF81E080930C088091E30A05
S11338309927FC01EE0FFF1FE80FF91FDF01A15EBE
S1133840B74F8091B4089091B5088D939C93EF5D28
S1133850F74F808183608B7F808351CF81E0809399
S11338600C088091E30A9927FC01EE0FFF1FE80F73
S1133870F91FEF5DF74F90819360892F86958695A8
S113388086958F5F8370880F880F880F937E982B9F
S1133890908335CF81E080930C088091E10A9927C9
S11338A0FC01EE0FFF1FE80FF91FEF5DF74F80815A
S11338B0816080838AE090E0019701960197E1F7A7
S11338C086E080931A0283E00E94AF05A2C181E0E2
S11338D080930C088091E30A9927FC01EE0FFF1FE7
S11338E0E80FF91FDF01A15EB74F8091B4089091F2
S11338F0B5088D939C93EF5DF74F808186600CC073
S11339008091E30A9927FC01EE0FFF1FE80FF91FCE
S1133910EF5DF74F8081857E808340E060E070E05A
S113392080CF2FB7F894332780911A0E8093110219
S113393083E080931B022FBF80911102882309F03A
S113394068C110920E021092DD0A1092DE0A1092E3
S1133950DF0A1092E00A0E94C5195BC18FB7F89480
S113396010923C0E2091F70B40E0283009F441E01E
S113397030E0293009F431E0442311F4332351F0C9
S11339801092F70BE091E20AFF27EE0FFF1FE753B7
S1133990F74F108299278FBF442311F4332331F159
S11339A09FB7F8948091370E8F5F8093370E809184
S11339B0C608833479F42091CE0A8091CD0A821707
S11339C079F0822F8F5F8093CE0A863048F0109270
S11339D0CE0A06C0A0E0442309F4A1E071E002C0CD
S11339E0A0E070E0892F99278FBF06C0222311F031
S11339F010E06CC0A0E070E08FB7F8949927209194
S1133A001C028FBF222341F08FB7F89499272AE034
S1133A102093F70B8FBF42C08FB7F894992760911A
S1133A20C9084091CB088FBF8FB7F894282F33274C
S1133A3050E09091CD0A8091CE0A981709F451E094
S1133A402FBF552341F5662331F55FB7F89482E023
S1133A508093C9088FB7F894282F332740E09091BA
S1133A60CD0A8091CE0A981709F441E02FBF442370
S1133A7011F080E006C0E091CE0AFF27E353F54F32
S1133A8082818093CA0883E48093C6081092E20A74
S1133A90852F99270EC04150423010F010E00BC022
S1133AA08FB7F894992725E42093C60821E0209342
S1133AB0E20A8FBF11E0772349F08FB7F894992772
S1133AC0A09325028FBF89E00E94AF058FB7F894B9
S1133AD0C82FDD278091F70B8A3021F40E94570705
S1133AE0CFBF97C0CFBF112309F493C02FB7F89469
S1133AF0332710923F0E10923E0E1092C30881E0BD
S1133B008093F70B2FBF0E94AA07882309F481C072
S1133B108FB7F894992729E02093F70B8FBF0E9461
S1133B20D60577C08091C1008F7B8093C1008091BE
S1133B30C1008F778093C1001092F60B1092B208E7
S1133B408091C10088608093C1008091C100806130
S1133B508093C1008091C10080688093C1008FB7B9
S1133B60F89499271092F70B1092AF088FBF109218
S1133B70330E1092320E0E94D30C4BC088E0A4CEB8
S1133B808091C100877F8093C1008091C1008F7EA6
S1133B908093C1003EC010922202109221028FB77E
S1133BA0F8949927209125028FBF809126028111D4
S1133BB023E0E0911F02F0912002809127028823E4
S1133BC041F583858B3829F5222319F1129821C0F8
S1133BD08FB7F894992720912A0230912B024091B3
S1133BE012088FBF8FB7F894E42FFF27EE0FFF1F43
S1133BF0ED5EFD4F3183208320911D02442311F09B
S1133C002B7F01C02D7F20931D021092280299273B
S1133C108FBFDF91CF911F910F91FF90EF90DF90B5
S1133C20CF9008958091340E8F3FB1F0282F332721
S1133C30F901ED5EF74F80818093340E8F3F11F4CC
S1133C4080933D0E8FEF80832F3F31F0822F0E94AF
S1133C50FF1A81E090E0089580E090E00895FF92DB
S1133C600F931F93CF93DF93FFB6F89414BE88E1AC
S1133C700FB6F89480936000109260000FBE4BE082
S1133C8050E06FEF70E083E198E00E942C208FEF0A
S1133C908093340E80933D0E81E08093810080E216
S1133CA08093B60083E08093B1008091840090916A
S1133CB085004AE720918400309185002817390750
S1133CC008F44150442311F0C901F4CF9091B2009B
S1133CD08091B2008917E1F320918400309185002E
S1133CE09091B2008091B2008917E1F38091840031
S1133CF090918500821B930B409635E096958795AD
S1133D003A95E1F79093360E8093350E1092B100F8
S1133D108091B10080938100809181008093B600EE
S1133D201092B20010928500109284008FEF87BB2E
S1133D3087B386BB8091B6008571E1F70A9A099A28
S1133D40089A129A119A109A18B88FEF87B90C989A
S1133D5014981092950010929400809171008160E3
S1133D608093710080919100887F8260809391009C
S1133D700B9A139A5D98559A5B9A539A5A9852984B
S1133D800E94121E8823E1F712E006E06091350ECE
S1133D907091360E882799272CE0660F771F881FAD
S1133DA0991F2A95D1F720E031EE40E050E00E94BF
S1133DB0F41F215030402093C400832F992780930F
S1133DC0C5001093C0000093C2001092C10020935C
S1133DD0CC008093CD001093C8000093CA001092C9
S1133DE0C90084E490E09093230E8093220E1092F5
S1133DF0C9081092CB088AE08093F70B1092C3088D
S1133E001092C6081092370E10923F0E10923E0E7A
S1133E1010923C0E1092E20A10921E0E10921D0E89
S1133E2084E08093AF081092FB0D10922F0E109235
S1133E30B3081092DA0A1092D90A1092CE0A10929C
S1133E40CD0A8FEF809326081092AE0881E080930C
S1133E500C0880E098E090932308809322089093C4
S1133E60200880931F088091240890912108827E65
S1133E70927E8260809324089260909321080E942D
S1133E80121E8823E1F78F2D99278FBF78940E9403
S1133E90C206CDECD8E00E94EF06892F99278883CB
S1133EA022968AE0CD3CD807B1F78FB7F894282F33
S1133EB03327922F8091F70B8A3031F08091AF082D
S1133EC0843011F02FBF04C09FBF86E00E94AF056D
S1133ED08FB7F894482F552739C080916E008670AB
S1133EE009F580916F008E72E9F4809171008E72F1
S1133EF0C9F40CB407FC16C08091C100887191F418
S1133F008091C900887171F48091BC0082FD0AC05F
S1133F1080917A0087FF03C0E1E0F0E005C0E5E0AE
S1133F20F0E002C0E0E0F0E083B7E63008F0E5E05E
S1133F30FF27E453FD4FE491807F8160E82BE3BFCA
S1133F4078948895F89483B78E7F83BF8091340EDC
S1133F508F3F09F4C2CF282F3327F901ED5EF74FC5
S1133F6080818093340E8F3F11F480933D0E8FEF48
S1133F7080832F3F09F4B1CF4FBF822F0E94FF1AD5
S1133F80A7CF629FD001739FF001829FE00DF11DC6
S1133F90649FE00DF11D929FF00D839FF00D749FBF
S1133FA0F00D659FF00D9927729FB00DE11DF91F6B
S1133FB0639FB00DE11DF91FBD01CF0111240895C8
S1133FC0AA1BBB1B51E107C0AA1FBB1FA617B7073B
S1133FD010F0A61BB70B881F991F5A95A9F7809557
S1133FE09095BC01CD010895A1E21A2EAA1BBB1B1A
S1133FF0FD010DC0AA1FBB1FEE1FFF1FA217B307B1
S1134000E407F50720F0A21BB30BE40BF50B661FC6
S1134010771F881F991F1A9469F76095709580958A
S113402090959B01AC01BD01CF010895FB01DC011A
S113403004C08D910190801921F441505040C8F77B
S1134040881B990B0895FB01DC0102C001900D92BD
S113405041505040D8F70895DC0101C06D934150A0
S10B40605040E0F70895FFCF82
S11340680100010203020303030201020303FFFF29
S10D4078FF01FFE40A6B0BE40A00E9
S9030000FC
