S01700006275696C642F697269732F6D61696E2E7372656343
S11300000C9469010C9488010C9488010C94880167
S11300100C9488010C9488010C9488010C94880138
S11300200C9488010C9488010C9488010C94880128
S11300300C9488010C9488010C9488010C94880118
S11300400C9488010C9488010C9488010C94880108
S11300500C9488010C9488010C9488010C948801F8
S11300600C9488010C94DE090C9488010C94610AA8
S11300700C9488010C9488010C9488010C94B80B9E
S11300800C94970B0C94A20B0C94AD0B0C94CB0B0F
S11300900C947A0B0C9488010C948C0B0C948801AE
S11300A00C9488010C9488010C9488010C948801A8
S11300B00C9488010C9488010C9488010C94880198
S11300C00C9488010C9488010C9488010000211080
S11300D0422063308440A550C660E77008812991AE
S11300E04AA16BB18CC1ADD1CEE1EFF13112100256
S11300F073325222B5529442F772D66239931883FE
S11301007BB35AA3BDD39CC3FFF3DEE36224433421
S113011020040114E664C774A44485546AA54BB54D
S113012028850995EEE5CFF5ACC58DD553367226F5
S113013011163006D776F6669556B4465BB77AA79D
S113014019973887DFF7FEE79DD7BCC7C448E55841
S11301508668A7784008611802282338CCC9EDD9ED
S11301608EE9AFF9488969990AA92BB9F55AD44A95
S1130170B77A966A711A500A333A122AFDDBDCCB3D
S1130180BFFB9EEB799B588B3BBB1AABA66C877C61
S1130190E44CC55C222C033C600C411CAEED8FFD8D
S11301A0ECCDCDDD2AAD0BBD688D499D977EB66E35
S11301B0D55EF44E133E322E511E700E9FFFBEEFDD
S11301C0DDDFFCCF1BBF3AAF599F788F8891A9819F
S11301D0CAB1EBA10CD12DC14EF16FE18010A10089
S11301E0C230E3200450254046706760B983989379
S11301F0FBA3DAB33DC31CD37FE35EF3B1029012D9
S1130200F322D2323542145277625672EAB5CBA544
S1130210A89589856EF54FE52CD50DC5E234C32428
S1130220A01481046674476424540544DBA7FAB718
S11302309987B8975FE77EF71DC73CD7D326F23678
S11302409106B01657667676154634564CD96DC964
S11302500EF92FE9C899E9898AB9ABA944586548C8
S113026006782768C018E1088238A3287DCB5CDBB8
S11302703FEB1EFBF98BD89BBBAB9ABB754A545A18
S1130280376A167AF10AD01AB32A923A2EFD0FED84
S11302906CDD4DCDAABD8BADE89DC98D267C076C68
S11302A0645C454CA23C832CE01CC10C1FEF3EFF58
S11302B05DCF7CDF9BAFBABFD98FF89F176E367EB8
S11302C0554E745E932EB23ED10EF01E00020E0601
S11302D00C0411241FBECFEFD1E2DEBFCDBF12E06C
S11302E0A0E0B2E0E6E6FFE300E00BBF02C0079047
S11302F00D92A631B107D9F71CE0A6E1B2E001C026
S11303001D92A835B107E1F70E94AE1D0C94B21FEF
S11303100C940000FC0120E030E007C0828193814E
S1130320280F391F0480F581E02D3097B9F7C901F2
S11303300895FB015183408333832283958384830F
S11303400895CF92DF92EF92FF920F931F93CF9372
S1130350DF938C01FB017A01690105C0E81BF90BED
S1130360E8010C811D81E8018A819B81E817F90766
S1130370A8F71CC0E8018A819B818E1B9F0BE701B3
S11303808E159F0508F4EC01D8018D919C91AE0166
S1130390B6018E0F9F1F0E94A21FCC0EDD1EEC1A09
S11303A0FD0AE8010C811D81E0E0F0E00115110572
S11303B019F01E141F04F4F280E090E0DF91CF9155
S11303C01F910F91FF90EF90DF90CF9008954F927F
S11303D05F926F927F928F929F92AF92BF92CF92D1
S11303E0DF92EF92FF920F931F93CF93DF938C01D1
S11303F04B015A013901CC24DD2404C06C01F801FD
S1130400048115810115110519F44424552436C0BD
S1130410F801828193818C0D9D1D8816990670F7D1
S11304204424552428C07401EC18FD08F801828185
S113043093818E199F09E5018A159B0508F4EC0147
S1130440F801608171816E0D7F1DAE01C3010E94B0
S1130450A21F4C0E5D1EF8010481158101151105C2
S113046069F0CE0CDF1CCC0EDD1E8C0E9D1EAC1A6A
S1130470BD0A6C0E7D1E1A141B04ACF2C201DF917E
S1130480CF911F910F91FF90EF90DF90CF90BF908D
S1130490AF909F908F907F906F905F904F90089552
S11304A0EF92FF920F931F93CF93DF93FC0120E011
S11304B030E040E050E0A0E0B0E02EC06281738103
S11304C06115710531F1C081D18100E010E01EC0D9
S11304D0888100FD0BC09927982F8827A82BB92B5A
S11304E0C80101968617970771F403C09927A82BB2
S11304F0B92B7D01C701AA27BB27280F391F4A1F23
S11305005B1FA0E0B0E00F5F1F4F2196061717078F
S1130510F9F60480F581E02D309781F60BC0DA01FD
S1130520C901A070B0709A0144275527280F391FBC
S11305304A1F5B1F203080E0380781E0480780E0D5
S1130540580768F7C90180959095DF91CF911F9165
S11305500F91FF90EF900895EF92FF920F931F93E6
S1130560CF93DF93CDB7DEB76A970FB6F894DEBFAB
S11305700FBECDBFE42E08969A87898740E150E0EC
S11305805C874B879E01215F3F4F3E872D874096B6
S1130590988B8F875A8B498BCE0145969C8B8B8B7E
S11305A0CE0101969E8B8D8B88E090E0988F8F8B87
S11305B07A8F698FCB010E948A01AA2797FDA095A3
S11305C0BA2FBC01CD010E94530469837A838B83C3
S11305D09C83FF2400271127C801B7010E945304FC
S11305E06D837E838F839887CE0109960E94500283
S11305F06A960FB6F894DEBF0FBECDBFDF91CF91E0
S11306001F910F91FF90EF9008958CED95E09093DA
S11306102B0280932A020895AAE2B2E004969C0178
S113062021703070280F391F02C0A40FB51F8D919F
S11306309C911197AC015F704217530710F097FF1C
S113064006C0CD018A5292408C5D954074F388E0D7
S1130650A630B80718F080E090E00895C901029729
S11306609C013F70306811963C932E93FD01E80F76
S1130670F91F481B590B5F7051834083CD010296CB
S11306800895CF93DF939C01EAE2F2E0C0E0D0E06A
S113069006C0808191819F70EF01E80FF91FCF019F
S11306A002968217930739F0CF018A5292408C5DEB
S11306B095407CF327C0808191819C013F70DF01CC
S11306C0A20FB31F9F7791838083CD018A529240FA
S11306D08C5D95404CF48D919C9197FD05C09F7065
S11306E0280F391F31832083209761F028813981B5
S11306F037FD08C03F70808191819F70280F391F9A
S113070039832883DF91CF910895EAE2F2E040E053
S113071050E00BC02081318137FD04C0C9019F70B6
S1130720480F591F3F70E20FF31FCF018A529240C6
S11307308C5D95407CF3CA0108956F927F928F92ED
S11307409F92AF92BF92CF92DF92EF92FF920F935C
S11307501F93CF93DF93FB015A018B01040F151FE5
S1130760DC01CC24DD2440E050E07AE398EF692EEC
S11307709FEF792E600E711E6E167F0608F460C01E
S1130780ED01E980FC9024E030E08FEF882E982E74
S1130790CCE0D0E0C401022E02C0969587950A945D
S11307A0E2F78E159F0530F042305105B1F4203147
S11307B0310599F4C7010C2E02C0969587950A94C9
S11307C0E2F7682F6F708F7090700A9718F4862F75
S11307D0805D02C0862F895A81932C5F3F4F2497F6
S11307E024313105B9F68D919C911197892B21F50E
S11307F04115510559F471938D919C911197892B51
S113080019F441E050E002C042E050E087E0C8162D
S1130810D10424F44130510509F071930894C11CAA
S1130820D11C129688E0C816D10409F0A5CF413036
S1130830510531F4719304C04130510539F7E4CFC7
S113084011920A191B09CF01801B910BDF91CF91E3
S11308501F910F91FF90EF90DF90CF90BF90AF90DA
S11308609F908F907F906F900895DC018C9183709E
S1130870823021F4FD012181328113C0833019F0CB
S113088020E030E00EC0FD01319620E030E0AD0103
S1130890475F5F4F81919191280F391FE417F50746
S11308A0C9F7C9010895EF92FF920F931F93FB01BB
S11308B0BC01882799272F2F3E2F44275527A901AC
S11308C033272227E72EF62E002711272E293F292A
S11308D0402B512BCA01B9011F910F91FF90EF904A
S11308E008959C01DB01FC0104C08D91819341506A
S11308F0504041155105C9F7C90108958F929F923F
S1130900AF92BF92CF92DF92EF92FF920F931F9319
S1130910CF93DF936C014B01892B09F4A3C06115BC
S1130920710509F49FC080E1EB0119928A95E9F7FA
S1130930D60160E070E090E046C02A3301F1822FD6
S113094080538A3030F4332727FD309520533040CC
S11309500EC0422F552747FD50952154263020F4D0
S11309609A012753304003C09A012755304044E090
S1130970660F771F4A95E1F7622B732B0DC0E92FA1
S1130980FF27EE0FFF1FE80DF91D072F162F118308
S113099000839F5F60E070E0FD013196ED012981E5
S11309A0222359F4E92FFF27EE0FFF1FE80DF91D4D
S11309B0E72EF62EF182E08255C08C918A3311F431
S11309C02A3341F0DF012C91222309F0B6CFFD0137
S11309D001C0319680818823E1F7DF01119760E03F
S11309E070E017E090E03BC02C912A3311F1822F84
S11309F080538A3030F4332727FD3095205330401C
S1130A000EC0422F552747FD50952154263020F41F
S1130A109A012753304003C09A0127553040092ECC
S1130A2002C0220F331F0A94E2F7622B732B9C5FE0
S1130A300EC0E12FFF27EE0FFF1FE80DF91DA72EB3
S1130A40B62EB182A082115060E070E090E0119760
S1130A50FD0181818A3319F48C918A3319F0CA1605
S1130A60DB0610F2DF91CF911F910F91FF90EF9071
S1130A70DF90CF90BF90AF909F908F900895FC012E
S1130A807183608353834283358324830895CF9293
S1130A90DF92EF92FF920F931F93CF93DF938C011A
S1130AA06B01EE24FF241AC0F80182819381E89E31
S1130AB0E001E99ED00DF89ED00D11248081918132
S1130AC0C80FD91FCE01F6010995FFEF8F3F9F078D
S1130AD059F0019759F00894E11CF11CF801848144
S1130AE09581E816F90600F3C0E0D0E0CE01DF916D
S1130AF0CF911F910F91FF90EF90DF90CF900895C9
S1130B00EF92FF920F931F93CF93DF93EC017B013E
S1130B1000E010E012C08A819B819C01029FC00109
S1130B20039F900D129F900D112428813981820F0B
S1130B30931FF70109950F5F1F4F8C819D81081743
S1130B40190748F3DF91CF911F910F91FF90EF9018
S1130B5008958FB7F894992708958FBF0895282F83
S1130B609FB7F894E82FFF27E35FF74F80818F3F0B
S1130B7081F4E091530CE21771F40BC020934A0CFA
S1130B8004C0FF27E35FF74F20832093530C20E03A
S1130B9007C025E005C080914A0C8F3F91F7EECF46
S1130BA0892F99278FBF822F992708951F931FB7E5
S1130BB0F8948091520C882341F485E00E94AF059B
S1130BC0882319F481E08093520C812F99278FBFD9
S1130BD01F91089580932D088FEF809327088093A9
S1130BE026088BE880932C0841E040932A088091E2
S1130BF01D0290911E02892B09F040C02FB7F89472
S1130C00332785E0809320021092210281E298E04C
S1130C1090931C0280931B0282E090E090931E024A
S1130C2080931D0210922302109222028DE0809381
S1130C301F022FBF8FB7F894282F33278091F10B11
S1130C408A3011F42FBF16C02FBF9FB7F89480913C
S1130C50C508882311F020E005C04093C508109210
S1130C60C60821E0892F99278FBF222319F00E94FB
S1130C70D605089510921E0210921D02129808952E
S1130C80EF92FF920F931F93A82F78018901762F7B
S1130C907695272F33278AE190E0F901E89F9001A8
S1130CA0E99F300DF89F300D1124F901E35EF34FF5
S1130CB06170660F80818D7F862B8083F901EA5EE7
S1130CC0F34F8081882319F085E090E056C0A0831B
S1130CD0E382F4820583168352834183772309F0E8
S1130CE044C08FB7F894282F3327922F809117028E
S1130CF0882311F581E0809317021092300C2FBFE6
S1130D008FB7F894082F1127902F80910D0281300E
S1130D1059F580911702813021F484E00E94AF05D7
S1130D2009C0823009F58091300C80930D0283E074
S1130D30809317020FBF19C08091300C882311F4DF
S1130D402FBF13C0809120088F3F71F4E0910C02F3
S1130D50EE2351F00DC010920B0204C0FF27E05E99
S1130D60F74F108210920C029FBF80E090E005C004
S1130D7080910B028F3F91F7EECF1F910F91FF905F
S1130D80EF900895809100029091010264E670E072
S1130D900E945F1F21E537E3A901849F9001859F8D
S1130DA0300D949F300D11242F5A384C3093320C4F
S1130DB02093310C3093470C2093460C25E83FE0F8
S1130DC0AC01429FC001439F900D529F900D11248E
S1130DD08B57904F90930908809308080895809149
S1130DE0310C9091320C9C01220F331F97FF04C0E9
S1130DF08BE090E128273927C90101969093320CA2
S1130E008093310C20910808309109088227932798
S1130E1008958091F10B8A3021F48091A9088430DF
S1130E2021F081E080931802089587E00E94AF05C5
S1130E301092180208952FB7F89433278093C600B0
S1130E40E0ECF0E08081806480832FBF0895FC0192
S1130E506115710519F481E090E008958091C1084D
S1130E609091C208892B19F085E090E00895709361
S1130E703B0C60933A0CF093C208E093C1081092C3
S1130E80AB081092AA0881E08093AC088091C0005E
S1130E9080648093C0008091C10080648093C1000D
S1130EA0808121E030E03093AB082093AA080E94AF
S1130EB01B0780E090E008958FB7F894992720915C
S1130EC029022E7F209329022EE7209318088FBF32
S1130ED061E070E088E198E00E942707992708956F
S1130EE0CF92DF92EF92FF920F931F93809316029B
S1130EF060933C0CC901880F892F881F990B919529
S1130F0080933D0C220F812F9927282B20933E0C90
S1130F1000933F0CD092ED0BC092EC0BF092BF0803
S1130F20E092BE084093BC0883E00E94AF051F9185
S1130F300F91FF90EF90DF90CF9008951F93182F9B
S1130F40882321F4129881E00E94EA05812F9927D1
S1130F501F9108959C0160910A02462F55278AE14A
S1130F6090E0489FF001499FF00D589FF00D112427
S1130F70E35EF34F808181FF1AC0662319F480E099
S1130F8094E002C080E090E02817390781F48AE1F8
S1130F9090E0489FF001499FF00D589FF00D1124F7
S1130FA0E35EF34F80818460808320E030E08AE157
S1130FB090E0489FF001499FF00D589FF00D1124D7
S1130FC0EA5EF34F35872487178616860895ECEC7E
S1130FD0F0E06927660FF11DE60FF11DC895982F03
S1130FE0802D3196C89590250895982F4FB7F89481
S1130FF055272BB1277D2BB980E097FD5B9A5D9A2D
S11310004A9980682BB996FD5B9A5D9A4A998064E7
S11310102BB995FD5B9A5D9A4A9980622BB994FD30
S11310205B9A5D9A4A9980612BB993FD5B9A5D9AAC
S11310304A9988602BB992FD5B9A5D9A4A998460BB
S11310402BB991FD5B9A5D9A4A9982602BB990FD08
S11310505B9A5D9A4A9981604FBF99270895982FAA
S113106080912402882389F5992379F531E030931E
S1131070240280910E028093250220911902822F6E
S1131080817080930C0880911302909114029093C4
S113109027028093260280911A0280932802322725
S11310A03170267EE32FFF27EE0FFF1FE15FFD4F18
S11310B0808191819093140280931302232B2093B7
S11310C019028AE00E94AF0508958091190280FFF9
S11310D002C08B7F01C08D7F8093190208950F9306
S11310E01F93082F162F8091A9088130D9F08130E1
S11310F038F0823009F44AC0833009F028C159C05D
S1131100002309F458C11092340C1092330C10923D
S1131110150C1092450C1092AD081092D40A10923E
S1131120D30A39C1002309F046C18091D30A9091B2
S1131130D40A0E94E7079093D40A8093D30A82E0EA
S11311408093A9081093450C143409F000C125C1FB
S11311508695869503C0809119028695817009F061
S1131160F6C080911902992311F0846001C0826055
S11311708093190280911902877E886080931902F6
S113118010921A028FEF80930E0215C1002309F00A
S1131190DEC06093AD088091D30A9091D40A0E9476
S11311A0E7079093D40A8093D30A83E08093A90835
S11311B002C18091150C8F3F09F4C9C0002309F4C2
S11311C061C0823008F4C3C0E091330CEE2309F40B
S11311D0EBC04E2F4150E42FFF27ED5CF34F82818B
S11311E09927382F2227442311F4E2E002C0E42F88
S11311F0E150FF27ED5CF34F82819927282B392B8F
S11312008091D30A9091D40A2817390709F09FC016
S113121080E00E942F083091AD088091C70A209188
S1131220C80A982F9F5F963008F090E0921771F0EB
S1131230E82FFF27E953F54F32838F5F8093C70A66
S1131240863010F01092C70A0E94D6051092340C12
S11312501092330C94E09093A9081092150C1092FC
S1131260450C1092AD081092D40A1092D30A8091C2
S113127029028D7F8093290280911802882309F422
S11312809AC084C0823008F44EC0E091340CFF2729
S1131290ED5CF34F8281482F5527342F209119029A
S11312A0822F86958695869583709927813091053E
S11312B019F00297F9F40EC0277E206120931902D9
S11312C0442311F485E001C080E080931A02309336
S11312D00E0210C080911A02873860F4E091130264
S11312E0F0911402E80FF11D408380911A028F5F80
S11312F080931A028091340CE82FFF27ED5CF34FA2
S113130062818F5F8093340C833010F01092340C20
S113131077278091D30A9091D40A0E94E70790938B
S1131320D40A8093D30A8091330CE82FFF27ED5C15
S1131330F34F12838F5F8093330C833010F010923D
S1131340330C8091150C8F5F8093150C34C0109270
S1131350340C1092330C14E01093A9081092150C5D
S11313601092450C1092AD081092D40A1092D30A30
S1131370809129028D7F8093290281E00E942F08A9
S113138080911802882329F01093A9080E94090764
S113139012C0002381F081E009CF80911902982FB7
S11313A0917080FDD5CED7CE8091370C9927382FF8
S11313B0222742E01CCF1F910F9108951F920F9294
S11313C00FB60F9211242F933F934F935F936F9314
S11313D07F938F939F93AF93BF93EF93FF938091EA
S11313E0C00087FF42C06091C600E091D50AF09129
S11313F0D60A309719F18091500C9091510CE80F56
S1131400F91F608301969093510C8093500C2091A6
S1131410560C3091570C8217930738F11092D60A64
S11314201092D50A8091F00B8330F9F08091C100BD
S11314308F778093C1001092F00B17C06E3719F4A8
S113144060E081E010C0809129026D3721F4826050
S1131450809329020AC081FF05C08D7F80932902F1
S113146080E2682780E00E946F08FF91EF91BF91AE
S1131470AF919F918F917F916F915F914F913F9128
S11314802F910F900FBE0F901F901895982F8D5786
S1131490823068F48091290281608093290280E27D
S11314A089278093140C8DE78093180802C09093C9
S11314B0180861E070E088E198E00E942707992706
S11314C0089578941F920F920FB60F921124FF92F1
S11314D00F931F932F933F934F935F936F937F9338
S11314E08F939F93AF93BF93CF93DF93EF93FF9328
S11314F02091AA083091AB0880913A0C90913B0C52
S11315002817390780F4E091C108F091C208E20F6E
S1131510F31F80812F5F3F4F3093AB082093AA08BD
S11315200E941B07D1C01092C2081092C1081092E9
S1131530AC088091C1008F7B8093C100FFB6F89402
S11315408091290280FF0EC08E7F809329028091B2
S1131550140C8093180861E070E088E198E00E9420
S11315602707AFC08091F10B843009F48CC085301B
S113157040F4823021F18330B8F5813009F09CC009
S11315800DC0863009F48DC0863008F483C08730DE
S113159009F48EC0883009F08FC091C08091C008D2
S11315A00E94460A082F83E08093F10B6091C008E3
S11315B08091540C9091550C0E94E70710C08091C3
S11315C04D0C0E94460A082F83E08093F10B609132
S11315D04D0C8091540C9091550C0E94E707909308
S11315E0550C8093540C66C0E091DC0AFF27EE0F83
S11315F0FF1FEC53F74F80810E94460A082F109179
S1131600DC0AC12FDD27FE01EE0FFF1FEC53F74F5D
S113161060818091540C9091550C0E94E70790933F
S1131620550C8093540C2091BD082F5F2093BD0866
S1131630113039F580912002E0911B02F0911C02D7
S1131640E80FF11DE0818F5F8093200290911F02CB
S1131650981730F482E08093C50840E050E002C05F
S11316604E2F5527DE01AA0FBB1FFD01ED53F74F87
S11316708081823031F02F3F21F0AC53B74F4C932F
S113168019C084E012C08091540C0E94460A082FAD
S113169085E00BC08091550C0E94460A082F86E015
S11316A004C00E945C07082F87E08093F10B02C0FE
S11316B088E003C0002329F089E08093F10B0E94A5
S11316C0D6058F2D99278FBFFF91EF91DF91CF9191
S11316D0BF91AF919F918F917F916F915F914F9146
S11316E03F912F911F910F91FF900F900FBE0F907C
S11316F01F9018951F920F920FB60F9211248F937B
S11317008091C80087FF02C08091CE008F910F9016
S11317100FBE0F901F90189578941F920F920FB6DA
S11317200F9211240F900FBE0F901F90189578946C
S11317301F920F920FB60F9211240F900FBE0F90AD
S11317401F90189578941F920F920FB60F92112440
S11317500F900FBE0F901F90189578941F920F92C0
S11317600FB60F9211240F900FBE0F901F90189573
S113177078941F920F920FB60F9211248F939F9318
S113178080919600909197009F918F910F900FBE3A
S11317900F901F90189578941F920F920FB60F9286
S11317A011242F933F938F939F932FB7F89433274C
S11317B08091CF0A9091D00A01969093D00A809399
S11317C0CF0A2FBF9F918F913F912F910F900FBE02
S11317D00F901F9018951F93182F882319F01298B3
S11317E00E94EA0580E090E0112311F481E090E08A
S11317F01F9108950F931F938091F20B9091F30B17
S113180001969093F30B8093F20B8150904149F42D
S113181000E010E020E030E040E050E061E083E0F0
S113182012C00E94EF0623E0969587952A95E1F76A
S1131830807E91708953974F00E210E020E030E001
S1131840AC0161E082E00E9440060E94EB0B1F9114
S11318500F910895BF92CF92DF92EF92FF920F9370
S11318601F93B82E80910608882339F085E0809371
S1131870160283E00E94AF051DC08B2D9927FC0141
S1131880EE0FFF1FE80FF91FE75EF74F208131814C
S1131890BB2011F461E601C060E641E0C42ED12C06
S11318A0EE24FF2400E010E040E08AE00E9470078C
S11318B0B092DB0A1F910F91FF90EF90DF90CF90D1
S11318C0BF900895CF92DF92EF92FF920F931F93F0
S11318D080910608882339F085E08093160283E01E
S11318E00E94AF0529C04091DD0A842F9927FC018D
S11318F0EE0FFF1FE80FF91FDF01A75EB74F2D9111
S11319003C91E55EF74F808182FF06C0442311F0CD
S113191068E807C069E805C0442311F063E801C022
S113192066E871E0C72ED12CEE24FF2400E010E01D
S113193040E089E00E9470071F910F91FF90EF90A3
S1131940DF90CF9008950F931F9382309105B9F0E3
S11319508330910559F0019721F500E010E020E073
S113196030E040E050E061E081E017C00E94C20630
S11319701092F30B1092F20B0E94FA0B12C00E9409
S1131980C2061092F30B1092F20B00E210E020E07A
S113199030E044EF5BE061E084E00E9440060E9496
S11319A0EB0B1F910F910895809100029091010219
S11319B064E670E00E945F1F2FB7F894332782B16A
S11319C091E0892782B92FBF662319F06430D8F4D7
S11319D00CC0E091480CF091490CE830F10558F442
S11319E0EE5FFD4F808199270BC08091480C909148
S11319F0490C892B19F0119880E807C0862F992784
S1131A000E94A30C04C0129881E00E94EA05809110
S1131A10480C9091490C01969093490C8093480C82
S1131A200895EF92FF920F931F93CF93DF93EC01EE
S1131A307A018B01411551056105710519F40E9464
S1131A40D40C40C0822F0E94EB0B8823D9F180E292
S1131A50E816F1040105110581F080E090E017C05B
S1131A6000E210E020E030E044EF5BE061E084E07D
S1131A700E9440060E94EB0B25C090E08BE0C43F1F
S1131A80D80709F091E081E09827892F99270E94CF
S1131A909E078823B9F000E010E060E070E069532D
S1131AA0774F40E250E0CE010E94951F892BC1F28E
S1131AB0005E1F4FB80182E00030180781F780E014
S1131AC00E949E07DF91CF911F910F91FF90EF909D
S1131AD008958F929F92BF92CF92DF92EF92FF92DE
S1131AE00F931F93CF93DF93082F80910A02C82F7F
S1131AF0DD272AE130E0C29FF001C39FF00DD29FA1
S1131B00F00D1124EA5EF34F1081C090D70AD090F3
S1131B10D80AE090D90AF090DA0A818092809FEF87
S1131B2090930A0210828823C9F58FB7F894B82ECF
S1131B3080911702833089F580910D02882369F51D
S1131B4080910B0220E030E08F3F11F421E030E07F
S1131B50232BF1F48F3F19F42FEF30E00DC0282F21
S1131B603327F901E05EF74F808180930B028F3FAA
S1131B7011F490930C0290832093300C8FEF809398
S1131B800D0281E08093170284E00E94AF0505C036
S1131B9081E080930D0210921702BFBE8AE190E0AB
S1131BA0C89FF001C99FF00DD89FF00D1124E35E8A
S1131BB0F34FE081E695E170CC0FDD1FEC2B123082
S1131BC091F0133018F4113051F505C01330A9F019
S1131BD0143029F51CC0E13011F5802F0E94EB0B65
S1131BE08823E9F011C0E130D1F4802F0E94EB0B7F
S1131BF08823A9F00E94FA0B12C0E13081F4802FEF
S1131C000E94EB0B882359F00E94D40C08C0E130E9
S1131C1031F4202FB701A601C4010E94110DDF91F8
S1131C20CF911F910F91FF90EF90DF90CF90BF90D5
S1131C309F908F900895EF92FF920F931F93CF93ED
S1131C40DF93982FDB018091A8084093A808843083
S1131C5009F4A4C4853050F4823009F4D9C0833027
S1131C6008F0AAC3813009F0A3C40AC0863008F47E
S1131C709FC4883008F4D5C38A3008F099C483C45B
S1131C8040910A024F3F09F493C4992309F08CC48C
S1131C9080911F088230C1F0833038F4882309F41E
S1131CA0B4C0813009F084C40AC0843009F487C008
S1131CB0843008F471C0853009F07AC490C0609112
S1131CC0EE0B7091EF0B5EC08091B0089927982FAE
S1131CD088272091B1083327822B932B8655924471
S1131CE009F083C1242F33278AE190E0289FF00173
S1131CF0299FF00D389FF00D1124EA5EF34FE09018
S1131D00B408FF2400271127102F0F2DFE2CEE24DA
S1131D102091B208332744275527522F44273327CD
S1131D2022278091B3089927AA27BB27DC0199278A
S1131D308827282B392B4A2B5B2B8091B5089927B0
S1131D40AA27BB27282B392B4A2B5B2BE22AF32A01
S1131D50042B152B80859185A285B3858E159F054F
S1131D60A007B10708F041C160910A0870910B08FF
S1131D708091EE0B9091EF0B861B970B96958795B0
S1131D80680F791F06E011E020E030E040E050E009
S1131D9082E00E9466140CC48091B0089927982FA1
S1131DA088272091B1083327822B932B86559244A0
S1131DB009F02BC18091B70882FD1EC026C1242FD3
S1131DC033278AE190E0289FF001299FF00D389F86
S1131DD0F00D1124EA5EF34F64897589D3CF8091A5
S1131DE0B0089927982F88272091B1083327822B90
S1131DF0932B8655924429F460910A0870910B083C
S1131E00C1CF80E00E94690DD3C30E94D217D0C312
S1131E1060910A026F3F09F4CBC3992309F0C4C34C
S1131E2080911F08833009F4E3C0843030F481309A
S1131E3071F0823009F0BCC377C0853009F483C2E5
S1131E40853008F4EDC1863009F0B2C35EC28091DA
S1131E50B0089927982F88272091B1083327822B1F
S1131E60932B8655924409F04AC08091B80899276B
S1131E70982F88272091B9083327822B932BA817F2
S1131E80B907E9F5262F33278AE190E0289FF0016E
S1131E90299FF00D389FF00D1124EA5EF34FE09076
S1131EA0B408FF2400271127102F0F2DFE2CEE2439
S1131EB02091B208332744275527522F442733272C
S1131EC022278091B3089927AA27BB27DC019927E9
S1131ED08827282B392B4A2B5B2B8091B50899270F
S1131EE0AA27BB27282B392B4A2B5B2BE22AF32A60
S1131EF0042B152BE086F1860287138711C0262F49
S1131F0033278AE190E0289FF001299FF00D389F44
S1131F10F00D1124EA5EF34F1086118612861386A3
S1131F2082E080931F085EC08091B8089927982F9B
S1131F3088272091B9083327822B932BA817B90738
S1131F4009F053C0262F33278AE190E0289FF0013F
S1131F50299FF00D389FF00D1124EA5EF34FE090B5
S1131F60B408FF2400271127102F0F2DFE2CEE2478
S1131F702091B208332744275527522F442733276B
S1131F8022278091B3089927AA27BB27DC01992728
S1131F908827282B392B4A2B5B2B8091B50899274E
S1131FA0AA27BB27282B392B4A2B5B2BE22AF32A9F
S1131FB0042B152BE086F1860287138720910A08EB
S1131FC030910B088091EE0B9091EF0B821B930BD9
S1131FD0969587952F5F3F4F820F931F90930B0821
S1131FE080930A080E94FB16E3C20E942E17E0C2E7
S1131FF08091B8089927982F88272091B90833270A
S1132000822B932BA817B90719F00E94B714D0C2DA
S1132010262F33278AE190E0A901489F9001499F28
S1132020300D589F300D1124F901E35EF34F808188
S1132030877F80838091B708C0910A08D0910B08EC
S113204080FF80C08091EE0B9091EF0BC817D907E9
S113205099F5E090B408FF2400271127102F0F2DC5
S1132060FE2CEE242091B208332744275527522F03
S11320704427332722278091B3089927AA27BB270F
S1132080DC0199278827282B392B4A2B5B2B80913D
S1132090B5089927AA27BB27282B392B4A2B5B2B5A
S11320A0E22AF32A042B152BE114F104010511058E
S11320B019F480E090E002C0CE0101960E94AA07C4
S11320C080910A0299272AE130E0829FF001839FE0
S11320D0F00D929FF00D1124EA5EF34F8091B40845
S11320E09927AA27BB27EE24F82E092F1A2F20910F
S11320F0B208332744275527522F44273327222752
S11321008091B3089927AA27BB27DC019927882740
S1132110282B392B4A2B5B2B8091B5089927AA27AA
S1132120BB27282B392B4A2B5B2BE22AF32A042BBF
S1132130152B8EEF90E0A0E0B0E0E80EF91E0A1F28
S11321401B1F3AC0F901EA5EF34FD587C48760913B
S1132150B608862F992797878687E090B408FF24CE
S113216000271127102F0F2DFE2CEE242091B208EA
S1132170332744275527522F44273327222780917A
S1132180B3089927AA27BB27DC0199278827282B7E
S1132190392B4A2B5B2B8091B5089927AA27BB279B
S11321A0282B392B4A2B5B2BE22AF32A042B152BE1
S11321B0E60EF11C011D111DE086F18602871387CE
S11321C080910A02282F33278AE190E0289FF001AA
S11321D0299FF00D389FF00D1124E35EF34F809199
S11321E0B7089927969587958170880F880F9081F5
S11321F09B7F982B908392FF02C091FFD5C18AE107
S113220090E0289FF001299FF00D389FF00D1124D4
S1132210E35EF34F8081816080830E944419C8C1CA
S11322208091B0089927982F88272091B1083327E7
S1132230822B932B8655924409F0E3CD8091B80804
S11322409927982F88272091B9083327822B932B1D
S1132250A817B90709F0D5CD7727E090B408FF2473
S113226000271127102F0F2DFE2CEE242091B208E9
S1132270332744275527522F442733272227809179
S1132280B3089927AA27BB27DC0199278827282B7D
S1132290392B4A2B5B2B8091B5089927AA27BB279A
S11322A0282B392B4A2B5B2BE22AF32A042B152BE0
S11322B08AE190E0689FF001699FF00D789FF00D2E
S11322C01124EF01CA5ED34F2E893F894427552735
S11322D088899989AA89BB89821B930BA40BB50BA6
S11322E0E816F9060A071B0709F08BCDE35EF34FE6
S11322F08081886080838091B70880FF82CD80913F
S1132300B6089927998F888F7CCDC0EBD8E0699166
S1132310CD010E94E707DC0148E0C83BD407B9F7C8
S11323208093B908892F99278093B80860910A0887
S113233070910B080AE010E09E01285030404EEFE7
S113234050E083E026CD262F33278AE190E0289FB2
S1132350F001299FF00D389FF00D1124E35EF34F37
S113236080819091B8082091B90883FD15C0892F08
S11323709927982F88273327822B932BA817B907DF
S113238041F48091B70882FF04C08091B608992770
S113239010C00E9443170CC1892F9927982F8827B2
S11323A03327822B932BA817B90709F02ACD80E095
S11323B090E00E94BF18FCC020910A022F3F09F44C
S11323C0F7C0992309F0F0C080911F088823A1F079
S11323D0863009F0EDC010921F088091B708C091B3
S11323E00A08D0910B0880FF02C066E001C068E0D3
S11323F0CE010E943A14DCC033278AE190E0289F82
S1132400F001299FF00D389FF00D1124EA5EF34F7F
S1132410868597858E3F910509F0F3CC0E948F1530
S1132420C7C080910A028F3F09F4C2C0992309F002
S1132430BBC099270AE110E0809FF001819FF00D55
S1132440909FF00D1124EF01CA5ED34F8881823032
S113245041F1833009F45FC0813009F0A9C08EEFE7
S113246090E0A0E0B0E088879987AA87BB87E35E05
S1132470F34F80818B7F808380E090E00E94AA07E5
S113248080910A029927809FF001819FF00D909F0F
S1132490F00D1124E35EF34F8081877F8160808398
S11324A0B0CC8091B4089927AA27BB27EE24F82E34
S11324B0092F1A2F2091B208332744275527522F6A
S11324C04427332722278091B3089927AA27BB27BB
S11324D0DC0199278827282B392B4A2B5B2B8091E9
S11324E0B5089927AA27BB27282B392B4A2B5B2B06
S11324F0E22AF32A042B152B8EEF90E0A0E0B0E043
S1132500E80EF91E0A1F1B1FE886F9860A871B8737
S11325100E9480164DC08091B4089927AA27BB2732
S1132520EE24F82E092F1A2F2091B20833274427BE
S11325305527522F4427332722278091B308992700
S1132540AA27BB27DC0199278827282B392B4A2B5C
S11325505B2B8091B5089927AA27BB27282B392BF9
S11325604A2B5B2BE22AF32A042B152B8EEF90E0E7
S1132570A0E0B0E0E80EF91E0A1F1B1FE886F986EA
S11325800A871B873ECC80910A028F3F89F09923EA
S113259059F41092B7080E94E4140AC080910A0208
S11325A08F3F31F0992311F081E02CCC0E941A1650
S11325B0DF91CF911F910F91FF90EF900895CF92EB
S11325C0DF92EF92FF920F931F934091A8085091CE
S11325D0DD0A2091AE083091AF08652F7727FB0103
S11325E0EE0FFF1FE60FF71FDF01A75EB74F8D91B8
S11325F09C9111972817390709F0F8C0453009F460
S113260053C0463070F4423009F4B2C0433018F479
S1132610413069F48EC0433009F4C9C0443039F400
S11326200BC0483008F453C04A3008F45BC04093F0
S1132630A8085093DD0A17C14093A8085093DD0AF7
S113264080914E0C90914F0C81309105E1F08130D6
S1132650910520F0029709F006C110C08091060888
S1132660882309F0DEC091E0C92ED12CEE24FF248A
S113267000E010E040E061E88BE0F3C0E55EF74F76
S1132680808184608083FB01EE0FFF1FE60FF71F3C
S1132690E55EF74F80818260808340E060E070E017
S11326A080E00E941B0EDFC04093A8085093DD0A0F
S11326B0E55EF74F808181FFBFC080914E0C909101
S11326C04F0C8D939C9380818D7F808322C0E55E27
S11326D0F74F808181FFACC086958695869583707F
S11326E031F0ADC0E55EF74F808181FFA1C0483075
S11326F061F0463051F080911B0881FF0CC080913D
S11327001E0881FD02C051E007C04093A808509301
S1132710DD0A80E08AC050E0852F9927FC01EE0F86
S1132720FF1FE80FF91FE55EF74F8081877E8083E6
S113273050CF4093A8085093DD0AE55EF74F80819F
S113274080FD6FC0C090D10AD090D20AE090BA0840
S1132750F090BB0800914E0C10914F0C552311F0D2
S113276064ED01C066ED20E030E042E082E079C033
S11327704093A8085093DD0AE55EF74F808180FD01
S113278050C0E090BA08F090BB08C090D10AD09035
S1132790D20A00914E0C10914F0C552311F064EDA8
S11327A001C066ED20E030E042E083E05AC040938F
S11327B0A8085093DD0AE55EF74F808180FD31C0A3
S11327C0C090D10AD090D20AE090BA08F090BB0829
S11327D000914E0C10914F0C552311F064E801C088
S11327E067E820E030E040E084E03BC0E55EF74F7E
S11327F0808181FF1DC08695869586958370F9F446
S1132800443019F42D933C93E4CE4093A80850939C
S1132810DD0A80910608882321F45523C1F063E57D
S113282017C085E08093160283E00E94AF051BC0A9
S11328304093A8085093DD0A0E94620C14C0409390
S1132840A8085093DD0A852F0E942A0C0CC065E568
S113285011E0C12ED12CEE24FF2400E010E040E072
S113286088E00E9470071F910F91FF90EF90DF9016
S1132870CF9008959C016093A808809119089091C5
S11328801A088217930719F41092DD0A0FC0809179
S11328901C0890911D088217930721F481E080930E
S11328A0DD0A04C080E00E94AF0508958091DD0A2E
S11328B09927FC01EE0FFF1FE80FF91FE55EF74FA4
S11328C08081877E80830E94DF1208950F931F9377
S11328D0E82F8093A8081093D20A0093D10A30936A
S11328E0BB082093BA087093AF086093AE08509366
S11328F04F0C40934E0C8091190890911A08681758
S1132900790719F41092DD0A13C080911C08909184
S11329101D086817790721F481E08093DD0A08C057
S113292090E08091DD0A882309F491E09093DD0A18
S11329306050784098F481E00930180778F4E53065
S113294051F081E04830580748F4400F511F495076
S1132950514020F407C04050584020F081E00E94CC
S1132960AF0502C00E94DF121F910F9108950F93CB
S11329701F9380910A0890910B082091EE0B3091DF
S1132980EF0B8217930721F481E00E94690D19C0AF
S1132990009729F430930B0820930A0805C0019787
S11329A090930B0880930A0860910A0870910B08B1
S11329B00AE010E020EB38E04EEF50E081E00E94A6
S11329C066141F910F9108958F929F92AF92BF92B8
S11329D0CF92DF92EF92FF920F931F93CF93DF93E7
S11329E060910A02A62EBB248AE190E0A89EF00121
S11329F0A99EF00DB89EF00D1124EA5EF34F81807C
S1132A009280C090D70AD090D80AE090D90AF0906A
S1132A10DA0AC685D78503811481258136810C198C
S1132A201D092E093F0911F480E00DC04485558528
S1132A30662319F480E094E002C080E090E0481737
S1132A40590721F482E00E94690D5CC0CE01AA27D7
S1132A50BB27800F911FA21FB31F8F3F9105A105B4
S1132A60B10520F00EEF10E00C1B1D0B980144275C
S1132A7055278AE190E0A89EB001A99E700DB89EEA
S1132A80700D1124FB01EA5EF34F80859185A285C8
S1132A90B385820F931FA41FB51F80879187A287D8
S1132AA0B38786859785800F911F978786872C0D1E
S1132AB03D1D4E1D5F1D2093D70A3093D80A4093C5
S1132AC0D90A5093DA0A209749F4FB01E35EF34FE5
S1132AD0808182FF03C081E0809307088C0C9D1CD9
S1132AE08AE190E0A89EF001A99EF00DB89EF00D39
S1132AF01124EA5EF34F648575859401AE0183E089
S1132B000E946614DF91CF911F910F91FF90EF9077
S1132B10DF90CF90BF90AF909F908F900895EF92E9
S1132B20FF920F931F93CF93DF9386E080931F0848
S1132B3080910A0299273AE1E32EF12C8E9DB0018F
S1132B408F9D700D9E9D700D1124FB01EA5EF34F65
S1132B50C485D585D0930B08C0930A08268537858C
S1132B604427552780859185A285B385821B930BC5
S1132B70A40BB50B8093B508292F3A2F4B2F55275B
S1132B802093B4089D01442755272093B3088B2F25
S1132B909927AA27BB278093B20886E58093B108BA
S1132BA082E48093B008635E734FFB01808182FFEF
S1132BB005C08091B70882608093B7080EEF10E0DB
S1132BC020E030E040E050E0BE0182E00E94661464
S1132BD080910A0299278E9DF0018F9DF00D9E9D94
S1132BE0F00D1124EA5EF34F8485958501960E94C9
S1132BF0AA0780910A0299278E9DA0018F9D500DEE
S1132C009E9D500D1124FA01EA5EF34F248535850B
S1132C10848995892817390731F4FA01E35EF34F63
S1132C208081877F8083DF91CF911F910F91FF90E7
S1132C30EF9008950F931F9360910A0870910B0809
S1132C408091EE0B9091EF0B01976817790719F5B6
S1132C5085E08093B7081092B608CB010E94AA07BA
S1132C6080910A0299272AE130E0829FF001839F34
S1132C70F00D929FF00D1124DF01A35EB34F8C91F0
S1132C808B7F8C93EA5EF34F10861186128613862F
S1132C900E948F1511C06F5F7F4F70930B08609374
S1132CA00A086150704000E010E020E030E040E0AD
S1132CB050E084E00E9466141F910F91089585E00E
S1132CC08093B70880910A0299272AE130E0829F15
S1132CD0F001839FF00D929FF00D1124EA5EF34FF3
S1132CE0468557854093B60824893589848595851A
S1132CF02817390711F4518F408F0E948F150895BA
S1132D006F927F928F929F92AF92BF92CF92DF92F7
S1132D10EF92FF920F931F93CF93DF9320910A02B8
S1132D20C22FDD278AE190E0C89FF001C99FF00D12
S1132D30D89FF00D1124EA5EF34FA380B480C580C0
S1132D40D6806090D70A7090D80A8090D90A909063
S1132D50DA0A222319F460E074E002C060E070E053
S1132D60882799272EEF30E040E050E00E94401F72
S1132D707B018C01109207088AE190E09E01289F54
S1132D80E001299FD00D389FD00D1124CA5ED34F86
S1132D90688579858A859B856E5F70408040904008
S1132DA0A80197010E94731FA618B708C808D9087C
S1132DB0EA18FB080C091D096E157F0580079107A9
S1132DC018F00E945F1608C08E858093B60884E0D0
S1132DD08093B7080E94E414DF91CF911F910F9163
S1132DE0FF90EF90DF90CF90BF90AF909F908F9027
S1132DF07F906F9008950F931F938091EE0B9091A5
S1132E00EF0B60910A0870910B0868177907A0F01E
S1132E1083E080931F0880910A02882319F480E0DC
S1132E2094E002C080E090E001979093EF0B8093D0
S1132E30EE0B0E94B7140FC0861B970B96958795CF
S1132E40680F791F0AE010E020EB38E04EEF50E005
S1132E5081E00E9466141F910F91089520910A0841
S1132E6030910B088091EE0B9091EF0B821B930B2A
S1132E7096958795280F391F3093EF0B2093EE0B0F
S1132E800E94FB1608950F931F93CF93DF93209115
S1132E900A0830910B082F5F3F4F30930B082093A3
S1132EA00A0880910A02E82FFF27882319F480E09A
S1132EB094E002C080E090E02817390721F41092D2
S1132EC00B0810920A0860910A0870910B088AE1B5
S1132ED090E09F01289FF001299FF00D389FF00D8D
S1132EE01124DF01AA5EB34FED018C859D8568171F
S1132EF0790781F5E35EF34F808183FD04C080E0B0
S1132F000E94690D30C01092B708FD0126853785EF
S1132F104427552780859185A285B385821B930B11
S1132F20A40BB50B8093B508292F3A2F4B2F5527A7
S1132F302093B4089D01442755272093B3088B2F71
S1132F409927AA27BB278093B20880E090E00E94CB
S1132F50BF1809C00AE010E020EB38E04EEF50E063
S1132F6081E00E946614DF91CF911F910F91089523
S1132F7085E080931F0880910A0299272AE130E0B6
S1132F80829FF001839FF00D929FF00D1124EA5E61
S1132F90F34F8489958990930B0880930A080E94C3
S1132FA0431708954F925F926F927F928F929F92F0
S1132FB0AF92BF92CF92DF92EF92FF920F931F9343
S1132FC0CF93DF9340910A02642E77248AE190E044
S1132FD09C01629EC001639E900D729E900D11240F
S1132FE0DC01AA5EB34FFD0181809280A090D70AD4
S1132FF0B090D80AC090D90AD090DA0AC689D78985
S1133000608D718DE380F48005811681EA18FB08D8
S11330100C091D0909F451C0FC01E35EF34F8081E2
S113302083FD21C082FF06C0FD0184859585958BB3
S1133030848B47C088608083442319F420E034E003
S113304002C020E030E08AE190E0689EF001699ED1
S1133050F00D789EF00D1124EA5EF34F21503040BC
S1133060358B248B2EC0FD012489358944845584F5
S11330702415350511F466857785C617D70721F51C
S1133080442319F440E054E002C040E050E0C90198
S113309001968417950771F48AE190E0689EF00127
S11330A0699EF00D789EF00D1124E35EF34F80814C
S11330B081FF03C02415350521F480E00E94690DC9
S11330C04DC00E94B8174AC0CE01AA27BB278E0D57
S11330D09F1DA01FB11F9B0144275527281739079F
S11330E04A075B0710F0870103C08B010C1B1D0B03
S11330F0980144275527D601C501820F931FA41FA9
S1133100B51F8093D70A9093D80AA093D90AB09395
S1133110DA0A8AE190E0689EF001699EF00D789EDB
S1133120F00D1124EA5EF34F80899189A289B38955
S1133130820F931FA41FB51F808B918BA28BB38B1F
S1133140CE01800F911F978B868B8A0C9B1C648900
S113315075899401AE0181E00E946614DF91CF91DC
S11331601F910F91FF90EF90DF90CF90BF90AF90A1
S11331709F908F907F906F905F904F900895AF9243
S1133180BF92CF92DF92EF92FF920F931F93CF9350
S1133190DF9310921F0820910A02622F77272AE1F9
S11331A030E0629FF001639FF00D729FF00D1124D7
S11331B0EA5EF34FA090B408BB24CC24DD24DC2CBD
S11331C0CB2CBA2CAA24E090B208FF2400271127A4
S11331D01E2D0027FF24EE242091B3083327442713
S11331E05527A90133272227E22AF32A042B152B7A
S11331F02091B508332744275527E22AF32A042BC4
S1133200152BAE28BF28C02AD12A9C014427552754
S1133210A20EB31EC41ED51EA08AB18AC28AD38A46
S113322020910A0830910B08358B248B978B868B61
S11332308091B70880FD03C02EEF30E004C0809178
S1133240B608282F33278AE190E0689FF001699F30
S1133250F00D789FF00D1124DF01AA5EB34FED014C
S1133260398F288FE35EF34F8081886080830E94CA
S1133270D217DF91CF911F910F91FF90EF90DF90C4
S1133280CF90BF90AF9008956F927F928F929F924C
S1133290AF92BF92CF92DF92EF92FF920F931F9360
S11332A0CF93DF93D0900A026D2C77248AE190E0CB
S11332B0689EF001699EF00D789EF00D1124AF0117
S11332C0435E534FDA012C9120FD21C0EA5EF34F97
S11332D08081813009F400C181E080931F0810923D
S11332E00B0810920A08DD2019F460E074E002C0B3
S11332F060E070E0615070407093EF0B6093EE0BF0
S11333000AE010E020EB38E04EEF50E0E1C010920C
S11333101F08EF01CA5ED34F8881833089F184305E
S113332030F4813051F0823009F0D9C026C08430A5
S113333079F1853009F0D3C02EC08AE190E0689E0F
S1133340F001699EF00D789EF00D1124E35EF34FB9
S113335080818E7F808310920B0810920A08DD20F2
S113336019F480E094E002C080E090E09093EF0BC9
S11333708093EE0B0E941A16B2C00E948016AFC052
S11333808E859F85892B09F495C00E945F16A7C07E
S11333900E94D217A4C089819A81AA27BB275C0105
S11333A0992488248B819C81AD81BE81882A992AA5
S11333B0AA2ABB2A277FFA01208381149104A1043D
S11333C0B10429F42EEF822E912CA12CB12C8885E6
S11333D09985AA85BB8588159905AA05BB0530F092
S11333E0FEEF8F169104A104B10410F486E063C0CB
S11333F0888A998AAA8ABB8A92E0E92E9FEFF92EDD
S11334009FEF092F9FEF192FE80CF91C0A1D1B1DB4
S1133410C801B7012EEF30E040E050E00E94731F76
S11334207F8B6E8BDD2021F4C12C84E0D82E02C06A
S1133430CC24DD248AE190E09301289F3001299F68
S1133440700C389F700C1124E301CA5ED34FC8017D
S1133450B7012EEF30E040E050E00E94731FCA0134
S1133460B9019601442755270E94731F6B017C0103
S11334707D8B6C8B8EEF90E0998F888F8C859D85EA
S11334808C159D05D9F42E853F85442755278885BD
S11334909985AA85BB85821B930BA40BB50B881653
S11334A09906AA06BB0630F0F301E35EF34F808170
S11334B08860808380E00E94690D11C084E080935D
S11334C01F080AE010E020EB38E04EEF50E0B601B0
S11334D081E00E94661403C010921F082ECFDF9172
S11334E0CF911F910F91FF90EF90DF90CF90BF90FD
S11334F0AF909F908F907F906F900895CF92DF92BE
S1133500EF92FF920F931F93CF93DF93853009F4CB
S1133510A4C1863090F4823051F1833038F488238A
S113352009F47AC1813009F0F3C21AC0833009F476
S113353068C0843009F0ECC273C1883009F49FC2BA
S1133540893038F4863009F46CC2873009F0E0C25F
S113355094C2893009F49EC28A3009F0D9C2B7C234
S113356040E060E070E081E00E941B0ED1C28091D7
S1133570160290911E0820911B088630B1F55D9AC1
S11335805D980000000089B1139A9E7F90931E08F5
S11335902E7F20931B081092060890E082FF91E092
S11335A08091DB0A992359F09927FC01EE0FFF1F44
S11335B0E80FF91FE55EF74F8081877ECCC099271D
S11335C0FC01EE0FFF1FE80FF91FE55EF74F2081A6
S11335D0822F8695869586958370992702971CF489
S11335E02D7F20830BC04AE0BCCF139A9E7F90931B
S11335F01E082E7F20931B08109206080E94DF12DB
S113360087C2809116028550823008F55D98139820
S113361087ED0E94F5075D9882E090E0019701969E
S11336200197E1F710C020E030E0E2E0F0E05D9ABD
S11336305D98CF01019701960197E1F72F5F3F4F06
S113364028303105A1F74A9BEECF82E0BCC0E09060
S1133650BE08F090BF088091EC0B9091ED0B892B84
S113366009F442C08091BC08C82FDD2724965D98D8
S1133670139860E0CC240CE31CE081E0D82E83E0B6
S1133680D81639F4C7010E94E7077C01219731F568
S11336902AC0E1E0DE1679F4F801C080219791F4A4
S11336A0D09016020091BE081091BF08C091EC0B97
S11336B0D091ED0B13C0F2E0DF1639F4F80160830A
S11336C0219789F00F5F1F4F09C0F4E0DF1659F40A
S11336D0209749F0F801C1908F0121978C2D0E9409
S11336E0F507682FCCCF139A809116021092160218
S11336F08830C1F0893048F4833081F0843009F493
S11337007EC0823009F004C287C08A3009F441C007
S11337108A3018F18B3009F0FBC158C040E0B70182
S113372080E022CF81E0809306088091DD0A99270A
S1133730FC01EE0FFF1FE80FF91FDF01A75EB74F73
S11337408091AE089091AF088D939C93E55EF74FFE
S1133750808183608B7F808351CF81E080930608D2
S11337608091DD0A9927FC01EE0FFF1FE80FF91F76
S1133770E55EF74F90819360892F869586958695AF
S11337808F5F8370880F880F880F937E982B9083A8
S113379035CF81E0809306088091DB0A9927FC01EC
S11337A0EE0FFF1FE80FF91FE55EF74F8081816080
S11337B080838AE090E0019701960197E1F786E023
S11337C08093160283E00E94AF05A2C181E080933A
S11337D006088091DD0A9927FC01EE0FFF1FE80F10
S11337E0F91FDF01A75EB74F8091AE089091AF0833
S11337F08D939C93E55EF74F808186600CC0809129
S1133800DD0A9927FC01EE0FFF1FE80FF91FE55EA3
S1133810F74F8081857E808340E060E070E080CF58
S11338202FB7F89433278091300C80930D0283E0F6
S1133830809317022FBF80910D02882309F068C17D
S113384010920A021092D70A1092D80A1092D90A3A
S11338501092DA0A0E9444195BC18FB7F89410924F
S1133860520C2091F10B40E0283009F441E030E0A3
S1133870293009F431E0442311F4332351F0109238
S1133880F10BE091DC0AFF27EE0FFF1FED53F74F1A
S1133890108299278FBF442311F4332331F19FB74A
S11338A0F89480914D0C8F5F80934D0C8091C008EB
S11338B0833479F42091C80A8091C70A821779F079
S11338C0822F8F5F8093C80A863048F01092C80A0E
S11338D006C0A0E0442309F4A1E071E002C0A0E026
S11338E070E0892F99278FBF06C0222311F010E0C2
S11338F06CC0A0E070E08FB7F8949927209118026B
S11339008FBF222341F08FB7F89499272AE02093A0
S1133910F10B8FBF42C08FB7F89499276091C30809
S11339204091C5088FBF8FB7F894282F332750E0F4
S11339309091C70A8091C80A981709F451E02FBFE3
S1133940552341F5662331F55FB7F89482E08093FF
S1133950C3088FB7F894282F332740E09091C70A03
S11339608091C80A981709F441E02FBF442311F04D
S113397080E006C0E091C80AFF27E953F54F828131
S11339808093C40883E48093C0081092DC0A852FD6
S113399099270EC04150423010F010E00BC08FB791
S11339A0F894992725E42093C00821E02093DC0AA9
S11339B08FBF11E0772349F08FB7F8949927A0932C
S11339C021028FBF89E00E94AF058FB7F894C82FFA
S11339D0DD278091F10B8A3021F40E940907CFBFC3
S11339E097C0CFBF112309F493C02FB7F89433279E
S11339F01092550C1092540C1092BD0881E08093E3
S1133A00F10B2FBF0E945C07882309F481C08FB794
S1133A10F894992729E02093F10B8FBF0E94D605D3
S1133A2077C08091C1008F7B8093C1008091C100D9
S1133A308F778093C1001092F00B1092AC088091A4
S1133A40C10088608093C1008091C100806180932F
S1133A50C1008091C10080688093C1008FB7F89441
S1133A6099271092F10B1092A9088FBF1092490C5C
S1133A701092480C0E94D40C4BC088E0A4CE8091D4
S1133A80C100877F8093C1008091C1008F7E8093A5
S1133A90C1003EC010921E0210921D028FB7F8940E
S1133AA09927209121028FBF80912202811123E066
S1133AB0E0911B02F0911C0280912302882341F5BE
S1133AC083858B3829F5222319F1129821C08FB7E9
S1133AD0F8949927209126023091270240910C08EE
S1133AE08FBF8FB7F894E42FFF27EE0FFF1FE15F1E
S1133AF0FD4F3183208320911902442311F02B7F41
S1133B0001C02D7F209319021092240299278FBFA0
S1133B10DF91CF911F910F91FF90EF90DF90CF90A5
S1133B20089580914A0C8F3FB1F0282F3327F90173
S1133B30E35FF74F808180934A0C8F3F11F48093A9
S1133B40530C8FEF80832F3F31F0822F0E947E1A17
S1133B5081E090E0089580E090E00895FF920F9353
S1133B601F93CF93DF93FFB6F89414BE88E10FB68A
S1133B70F89480936000109260000FBE4BE050E018
S1133B806FEF70E08DE098E00E94AB1F8FEF8093A1
S1133B904A0C8093530C81E08093810080E28093EF
S1133BA0B60083E08093B1008091840090918500F9
S1133BB04AE720918400309185002817390708F4DA
S1133BC04150442311F0C901F4CF9091B200809187
S1133BD0B2008917E1F3209184003091850090911F
S1133BE0B2008091B2008917E1F380918400909132
S1133BF08500821B930B4096F5E096958795FA9580
S1133C00E1F790934C0C80934B0C1092B10080918F
S1133C10B10080938100809181008093B60010925E
S1133C20B20010928500109284008FEF87BB87B397
S1133C3086BB8091B6008571E1F70A9A099A089AC1
S1133C40129A119A109A18B88FEF87B90C98149891
S1133C50109295001092940080917100816080937D
S1133C60710080919100887F8260809391000B9A0B
S1133C70139A5D98559A5B9A539A5A9852980E944F
S1133C80911D8823E1F712E006E060914B0C7091DE
S1133C904C0C88279927ECE0660F771F881F991F23
S1133CA0EA95D1F720E031EE40E050E00E94731F26
S1133CB0215030402093C400832F99278093C5005E
S1133CC01093C0000093C2001092C1002093CC0056
S1133CD08093CD001093C8000093CA001092C900CD
S1133CE084E490E09093390C8093380C1092C308CC
S1133CF01092C5088AE08093F10B1092BD081092CF
S1133D00C00810924D0C1092550C1092540C109245
S1133D10520C1092DC0A1092340C1092330C84E092
S1133D208093A9081092150C1092450C1092AD08BE
S1133D301092D40A1092D30A1092C80A1092C70A99
S1133D408FEF809320081092A80881E080930608E2
S1133D5080E098E090931D0880931C0890931A08C3
S1133D608093190880911E0890911B08827E927E90
S1133D70826080931E08926090931B080E94911D9C
S1133D808823E1F78F2D99278FBF78940E94C2066C
S1133D90C7ECD8E00E94EF06892F992788832296E2
S1133DA08AE0C73CD807B1F78FB7F894282F332798
S1133DB0922F8091F10B8A3031F08091A9088430E0
S1133DC011F02FBF04C09FBF86E00E94AF058FB7DC
S1133DD0F894482F552739C080916E00867009F5F4
S1133DE080916F008E72E9F4809171008E72C9F433
S1133DF00CB407FC16C08091C100887191F48091C5
S1133E00C900887171F48091BC0082FD0AC0809160
S1133E107A0087FF03C0E1E0F0E005C0E5E0F0E0F0
S1133E2002C0E0E0F0E083B7E63008F0E5E0FF2709
S1133E30E453FD4FE491807F8160E82BE3BF7894E5
S1133E408895F89483B78E7F83BF80914A0C8F3F07
S1133E5009F4C2CF282F3327F901E35FF74F80819C
S1133E6080934A0C8F3F11F48093530C8FEF80831F
S1133E702F3F09F4B1CF4FBF822F0E947E1AA7CFE4
S1133E80629FD001739FF001829FE00DF11D649F3A
S1133E90E00DF11D929FF00D839FF00D749FF00DC6
S1133EA0659FF00D9927729FB00DE11DF91F639F67
S1133EB0B00DE11DF91FBD01CF0111240895AA1B06
S1133EC0BB1B51E107C0AA1FBB1FA617B70710F001
S1133ED0A61BB70B881F991F5A95A9F78095909533
S1133EE0BC01CD010895A1E21A2EAA1BBB1BFD0142
S1133EF00DC0AA1FBB1FEE1FFF1FA217B307E407C5
S1133F00F50720F0A21BB30BE40BF50B661F771F1C
S1133F10881F991F1A9469F76095709580959095FC
S1133F209B01AC01BD01CF010895FB01DC0104C07C
S1133F308D910190801921F441505040C8F7881B9D
S1133F40990B0895FB01DC0102C001900D924150D0
S1133F505040D8F70895DC0101C06D9341505040A2
S1093F60E0F70895FFCF15
S1133F6601000102030203030302FFFFFF01FFDE58
S1093F760A650BDE0A00DF
S9030000FC
