S01700006275696C642F697269732F6D61696E2E7372656343
S11300000C9469000C9488000C9488000C9488006B
S11300100C9488000C9488000C9488000C9488003C
S11300200C9488000C9488000C9488000C9488002C
S11300300C9488000C9488000C9488000C9488001C
S11300400C9488000C9488000C9488000C9488000C
S11300500C9488000C9488000C9488000C948800FC
S11300600C9488000C9488000C9488000C948800EC
S11300700C9488000C9488000C9488000C948800DC
S11300800C9488000C9488000C9488000C948800CC
S11300900C9488000C9488000C9488000C948800BC
S11300A00C9488000C9488000C9488000C948800AC
S11300B00C9488000C9488000C9488000C9488009C
S11300C00C9488000C9488000C94880000020E069E
S11300D00C0411241FBECFEFD1E2DEBFCDBF12E06E
S11300E0A0E0B2E0E2E4FBE000E00BBF02C0079056
S11300F00D92A030B107D9F717E0A0E0B2E001C03B
S11301001D92A03EB107E1F70E94CD040C94A00516
S11301100C940000FC0120E030E007C08281938150
S1130120280F391F0480F581E02D3097B9F7C901F4
S11301300895FB0151834083338322839583848311
S11301400895CF92DF92EF92FF920F931F93CF9374
S1130150DF938C01FB017A01690105C0E81BF90BEF
S1130160E8010C811D81E8018A819B81E817F90768
S1130170A8F71CC0E8018A819B818E1B9F0BE701B5
S11301808E159F0508F4EC01D8018D919C91AE0168
S1130190B6018E0F9F1F0E949705CC0EDD1EEC1A30
S11301A0FD0AE8010C811D81E0E0F0E00115110574
S11301B019F01E141F04F4F280E090E0DF91CF9157
S11301C01F910F91FF90EF90DF90CF9008954F9281
S11301D05F926F927F928F929F92AF92BF92CF92D3
S11301E0DF92EF92FF920F931F93CF93DF938C01D3
S11301F04B015A013901CC24DD2404C06C01F801FF
S1130200048115810115110519F44424552436C0BF
S1130210F801828193818C0D9D1D8816990670F7D3
S11302204424552428C07401EC18FD08F801828187
S113023093818E199F09E5018A159B0508F4EC0149
S1130240F801608171816E0D7F1DAE01C3010E94B2
S113025097054C0E5D1EF8010481158101151105E9
S113026069F0CE0CDF1CCC0EDD1E8C0E9D1EAC1A6C
S1130270BD0A6C0E7D1E1A141B04ACF2C201DF9180
S1130280CF911F910F91FF90EF90DF90CF90BF908F
S1130290AF909F908F907F906F905F904F90089554
S11302A0EF92FF920F931F93CF93DF93FC0120E013
S11302B030E040E050E0A0E0B0E02EC06281738105
S11302C06115710531F1C081D18100E010E01EC0DB
S11302D0888100FD0BC09927982F8827A82BB92B5C
S11302E0C80101968617970771F403C09927A82BB4
S11302F0B92B7D01C701AA27BB27280F391F4A1F25
S11303005B1FA0E0B0E00F5F1F4F21960617170791
S1130310F9F60480F581E02D309781F60BC0DA01FF
S1130320C901A070B0709A0144275527280F391FBE
S11303304A1F5B1F203080E0380781E0480780E0D7
S1130340580768F7C90180959095DF91CF911F9167
S11303500F91FF90EF900895EF92FF920F931F93E8
S1130360CF93DF93CDB7DEB76A970FB6F894DEBFAD
S11303700FBECDBFE42E08969A87898740E150E0EE
S11303805C874B879E01215F3F4F3E872D874096B8
S1130390988B8F875A8B498BCE0145969C8B8B8B80
S11303A0CE0101969E8B8D8B88E090E0988F8F8B89
S11303B07A8F698FCB010E948A00AA2797FDA095A6
S11303C0BA2FBC01CD010E94530369837A838B83C6
S11303D09C83FF2400271127C801B7010E945303FF
S11303E06D837E838F839887CE0109960E94500186
S11303F06A960FB6F894DEBF0FBECDBFDF91CF91E2
S11304001F910F91FF90EF9008958CED95E09093DC
S11304100102809300020895A0E0B2E004969C01DA
S113042021703070280F391F02C0A40FB51F8D91A1
S11304309C911197AC015F704217530710F097FF1E
S113044006C0CD01805092408C5D954074F387E0E6
S1130450AC3DB80718F080E090E00895C901029718
S11304609C013F70306811963C932E93FD01E80F78
S1130470F91F481B590B5F7051834083CD010296CD
S11304800895CF93DF939C01E0E0F2E0C0E0D0E078
S113049006C0808191819F70EF01E80FF91FCF01A1
S11304A002968217930739F0CF01805092408C5DF9
S11304B095407CF327C0808191819C013F70DF01CE
S11304C0A20FB31F9F7791838083CD018050924008
S11304D08C5D95404CF48D919C9197FD05C09F7067
S11304E0280F391F31832083209761F028813981B7
S11304F037FD08C03F70808191819F70280F391F9C
S113050039832883DF91CF910895E0E0F2E040E061
S113051050E00BC02081318137FD04C0C9019F70B8
S1130520480F591F3F70E20FF31FCF0180509240D4
S11305308C5D95407CF3CA0108956F927F928F92EF
S11305409F92AF92BF92CF92DF92EF92FF920F935E
S11305501F93CF93DF93FB015A018B01040F151FE7
S1130560DC01CC24DD2440E050E07AE398EF692EEE
S11305709FEF792E600E711E6E167F0608F460C020
S1130580ED01E980FC9024E030E08FEF882E982E76
S1130590CCE0D0E0C401022E02C0969587950A945F
S11305A0E2F78E159F0530F042305105B1F4203149
S11305B0310599F4C7010C2E02C0969587950A94CB
S11305C0E2F7682F6F708F7090700A9718F4862F77
S11305D0805D02C0862F895A81932C5F3F4F2497F8
S11305E024313105B9F68D919C911197892B21F510
S11305F04115510559F471938D919C911197892B53
S113060019F441E050E002C042E050E087E0C8162F
S1130610D10424F44130510509F071930894C11CAC
S1130620D11C129688E0C816D10409F0A5CF413038
S1130630510531F4719304C04130510539F7E4CFC9
S113064011920A191B09CF01801B910BDF91CF91E5
S11306501F910F91FF90EF90DF90CF90BF90AF90DC
S11306609F908F907F906F900895DC018C918370A0
S1130670823021F4FD012181328113C0833019F0CD
S113068020E030E00EC0FD01319620E030E0AD0105
S1130690475F5F4F81919191280F391FE417F50748
S11306A0C9F7C9010895EF92FF920F931F93FB01BD
S11306B0BC01882799272F2F3E2F44275527A901AE
S11306C033272227E72EF62E002711272E293F292C
S11306D0402B512BCA01B9011F910F91FF90EF904C
S11306E008959C01DB01FC0104C08D91819341506C
S11306F0504041155105C9F7C90108958F929F9241
S1130700AF92BF92CF92DF92EF92FF920F931F931B
S1130710CF93DF936C014B01892B09F4A3C06115BE
S1130720710509F49FC080E1EB0119928A95E9F7FC
S1130730D60160E070E090E046C02A3301F1822FD8
S113074080538A3030F4332727FD309520533040CE
S11307500EC0422F552747FD50952154263020F4D2
S11307609A012753304003C09A012755304044E092
S1130770660F771F4A95E1F7622B732B0DC0E92FA3
S1130780FF27EE0FFF1FE80DF91D072F162F11830A
S113079000839F5F60E070E0FD013196ED012981E7
S11307A0222359F4E92FFF27EE0FFF1FE80DF91D4F
S11307B0E72EF62EF182E08255C08C918A3311F433
S11307C02A3341F0DF012C91222309F0B6CFFD0139
S11307D001C0319680818823E1F7DF01119760E041
S11307E070E017E090E03BC02C912A3311F1822F86
S11307F080538A3030F4332727FD3095205330401E
S11308000EC0422F552747FD50952154263020F421
S11308109A012753304003C09A0127553040092ECE
S113082002C0220F331F0A94E2F7622B732B9C5FE2
S11308300EC0E12FFF27EE0FFF1FE80DF91DA72EB5
S1130840B62EB182A082115060E070E090E0119762
S1130850FD0181818A3319F48C918A3319F0CA1607
S1130860DB0610F2DF91CF911F910F91FF90EF9073
S1130870DF90CF90BF90AF909F908F900895FC0130
S11308807183608353834283358324830895CF9295
S1130890DF92EF92FF920F931F93CF93DF938C011C
S11308A06B01EE24FF241AC0F80182819381E89E33
S11308B0E001E99ED00DF89ED00D11248081918134
S11308C0C80FD91FCE01F6010995FFEF8F3F9F078F
S11308D059F0019759F00894E11CF11CF801848146
S11308E09581E816F90600F3C0E0D0E0CE01DF916F
S11308F0CF911F910F91FF90EF90DF90CF900895CB
S1130900EF92FF920F931F93CF93DF93EC017B0140
S113091000E010E012C08A819B819C01029FC0010B
S1130920039F900D129F900D112428813981820F0D
S1130930931FF70109950F5F1F4F8C819D81081745
S1130940190748F3DF91CF911F910F91FF90EF901A
S113095008958FB7F894992708958FBF08958091CB
S1130960DC078F3F19F480E090E00895282F3327A7
S1130970F901E452F84F80818093DC078F3F11F432
S11309808093DF078FEF808390E02F3F09F491E09D
S113099081E09827892F992708951F931FB7F8940A
S11309A014BE88E10FB6F894809360001092600042
S11309B00FBE8FEF8093DC078093DF0781E0809385
S11309C0810080E28093B60083E08093B10080913F
S11309D08400909185004AE720918400309185003D
S11309E02817390708F44150442311F0C901F4CF02
S11309F09091B2008091B2008917E1F320918400B4
S1130A00309185009091B2008091B2008917E1F392
S1130A108091840090918500821B930B409625E081
S1130A20969587952A95E1F79093DE078093DD07E5
S1130A301092B1008091B100809381008091810077
S1130A408093B6001092B200109285001092840038
S1130A508FEF87BB87B386BB8091B6008571E1F7C2
S1130A6018B88FEF87B90C9814980E94AF048823A4
S1130A70E1F70E94AF048823E1F7812F99278FBF04
S1130A8078948FB7F894482F552739C080916E0019
S1130A90867009F580916F008E72E9F4809171007F
S1130AA08E72C9F40CB407FC16C08091C100887121
S1130AB091F48091C900887171F48091BC0082FD29
S1130AC00AC080917A0087FF03C0E1E0F0E005C02E
S1130AD0E5E0F0E002C0E0E0F0E083B7E63008F0E3
S1130AE0E5E0FF27E453FF4FE491807F8160E82B2A
S1130AF0E3BF78948895F89483B78E7F83BF809101
S1130B00DC078F3F09F4C2CF282F3327F901E452C1
S1130B10F84F80818093DC078F3F11F48093DF07C7
S1130B208FEF80832F3F09F4B1CF4FBFAACFFB01D2
S1130B30DC0102C001900D9241505040D8F7089555
S1050B40FFCFE1
S9030000FC
