:100000000C9486010C94A5010C94A5010C94A501F7
:100010000C94A5010C94A5010C94A5010C94A501C8
:100020000C94A5010C94A5010C94A5010C94A501B8
:100030000C94A5010C948B0F0C94A5010C94230A2D
:100040000C94AB190C94E1190C94DA0A0C94E50A9F
:100050000C94F00A0C94A5010C94A5010C94A50134
:100060000C94370A0C945D0D0C94A5010C94E00DD2
:100070000C94A5010C941E0B0C94A5010C94370F45
:100080000C94160F0C94210F0C942C0F0C944A0F07
:100090000C94F90E0C94A5010C940B0F0C94A50173
:1000A0000C94A5010C94A5010C94A5010C94A50138
:1000B0000C94A5010C94A5010C94A5010C94A50128
:1000C0000C94A5010C94A5010C94A501482897282F
:1000D000D628A429122A152A202A532A472BAB2ACC
:1000E000BF2A3028742B862B3728982B9E2CA12CC6
:1000F000822D9A2D3F281C2E362E182F402F422F4E
:100100004D2F8D2FAF2F00002110422063308440EF
:10011000A550C660E770088129914AA16BB18CC1D6
:10012000ADD1CEE1EFF13112100273325222B5524D
:100130009442F772D662399318837BB35AA3BDD326
:100140009CC3FFF3DEE36224433420040114E6641D
:10015000C774A44485546AA54BB528850995EEE576
:10016000CFF5ACC58DD55336722611163006D7762D
:10017000F6669556B4465BB77AA719973887DFF7C6
:10018000FEE79DD7BCC7C448E5588668A7784008F5
:10019000611802282338CCC9EDD98EE9AFF9488916
:1001A00069990AA92BB9F55AD44AB77A966A711A8D
:1001B000500A333A122AFDDBDCCBBFFB9EEB799B66
:1001C000588B3BBB1AABA66C877CE44CC55C222CDD
:1001D000033C600C411CAEED8FFDECCDCDDD2AADB6
:1001E0000BBD688D499D977EB66ED55EF44E133E6D
:1001F000322E511E700E9FFFBEEFDDDFFCCF1BBF06
:100200003AAF599F788F8891A981CAB1EBA10CD1DF
:100210002DC14EF16FE18010A100C230E3200450E7
:10022000254046706760B9839893FBA3DAB33DC35A
:100230001CD37FE35EF3B1029012F322D232354237
:10024000145277625672EAB5CBA5A89589856EF5EA
:100250004FE52CD50DC5E234C324A0148104667487
:10026000476424540544DBA7FAB79987B8975FE73A
:100270007EF71DC73CD7D326F2369106B0165766D7
:100280007676154634564CD96DC90EF92FE9C899C2
:10029000E9898AB9ABA94458654806782768C01827
:1002A000E1088238A3287DCB5CDB3FEB1EFBF98B9A
:1002B000D89BBBAB9ABB754A545A376A167AF10A77
:1002C000D01AB32A923A2EFD0FED6CDD4DCDAABDAA
:1002D0008BADE89DC98D267C076C645C454CA23CC7
:1002E000832CE01CC10C1FEF3EFF5DCF7CDF9BAF7A
:1002F000BABFD98FF89F176E367E554E745E932E17
:10030000B23ED10EF01E00020E060C0411241FBED8
:10031000CFEFD1E2DEBFCDBF12E0A0E0B2E0E0E778
:10032000FAE600E00BBF02C007900D92AA31B107B8
:10033000D9F71DE0AAE1B2E001C01D92AB3AB107C6
:10034000E1F70E9433300C9437350C9400008FB7DE
:10035000F894992708958FBF0895282F9FB7F89490
:10036000E82FFF27E151FD4F80818F3F81F4E0911D
:10037000860DE21771F40BC020938E0A04C0FF278C
:10038000E151FD4F20832093860D20E007C025E03A
:1003900005C080918E0A8F3F91F7EECF892F992764
:1003A0008FBF822F992708951F931FB7F8948091CC
:1003B0004C0B882341F486E10E94AD01882319F497
:1003C00081E080934C0B812F99278FBF1F91089557
:1003D000382FFA01422F2D3118F082E090E0089575
:1003E0006683872F992785833387218780913502FC
:1003F00090913602892B19F085E090E008952FB78F
:10040000F894332785E08093380210923902F093F4
:100410003402E093330282E090E0909336028093BE
:10042000350210923B0210923A02445F4093370229
:100430002FBF8FB7F894282F33278091D7078A30A2
:1004400011F42FBF19C02FBF9FB7F8948091D90323
:10045000882311F020E006C081E08093D903109238
:10046000DA0321E0892F99278FBF222329F00E94E8
:10047000D40180E090E00895109236021092350287
:1004800081E090E00895CF93DF93582FDB01823015
:1004900018F081E090E038C0C82FDD27CC0FDD1FB9
:1004A000C657D54F88819981892B19F085E090E056
:1004B0002BC0798368839B012B5F3F4FF9014483F5
:1004C00080911202823018F480E090E01DC0F901A2
:1004D0008681FB0165817727762F6627F9012181C7
:1004E0003327622B732B50931202242FAD010E94ED
:1004F000E8019927282F882329F082E080931202AF
:1005000019821882822F9927DF91CF9108958091C7
:100510005102E82FFF27EE0FFF1FE45FFB4F019012
:10052000F081E02D20915302222351F08F5F8093C0
:1005300051028A3011F4109251022150209353023B
:10054000CF010895AC01209121032A3018F081E0F9
:1005500090E008958091A30D682F620F712D711D99
:10056000FB016A30710508F03A97EE0FFF1FEE5657
:10057000FD4F518340832F5F2093210380E090E063
:1005800008951F93CF93DF938091120299270196CC
:1005900062E070E00E94BB34682F8093120210E08A
:1005A000462F5527FA01EE0FFF1FE657F54FA081A2
:1005B000B181109799F0E62FE695E695E695FF272D
:1005C000E553FC4F808199279A012770307002C053
:1005D000959587952A95E2F780FF0DC0CA0101968F
:1005E00062E070E00E94BB34682F1F5F1230C1F6DA
:1005F000109312021AC0609312026230B0F4FD012F
:10060000359624813327ED016D817727762F662774
:1006100081819927682B792BAD0186810E94E801A1
:10062000882319F085E10E94AD01DF91CF911F91E0
:100630000895AC0110921B0220912B032C30A0F4E2
:100640008091E602682F620F712D711DFB016C30E5
:10065000710508F03C97EE0FFF1FE956F54F5183E7
:1006600040832F5F20932B0390E0809150028823DA
:1006700009F491E0992319F480E00E94AD010895F6
:10068000882319F08CB5806402C08CB58F7B8CBD3B
:100690000895882319F08CB5806802C08CB58F77D7
:1006A0008CBD08950F931F9380E00E9440030FB705
:1006B000F8941127229A2398219A209A8CB5806168
:1006C0008CBD80E00E9449038CB5877F8CBD8CB5C2
:1006D0008B7F8CBD81E00E9440038DB581608DBD14
:1006E0008CB58C7F8CBD0FBF1F910F9108950F9318
:1006F0001F93CF93DF93182F0FB7F89480911F02A9
:10070000882311F40E945203802F99278FBF8FB73F
:10071000F894C82FDD272C2F80911F02882361F4C5
:1007200081E080931F021093D1038AE00E94AD0103
:10073000CFBF80E090E021C0E12FFF27E153FC4FC5
:1007400080818F3F89F4E0910902E11789F40CC0A0
:100750001093080204C0FF27E153FC4F108310934D
:10076000090280E090E002C085E090E02FBF05C064
:10077000809108028F3F79F7EBCFDF91CF911F91E6
:100780000F910895FB0121E030E002C0220F331FDA
:100790008A95E2F784A5822B84A708958FB7F894F1
:1007A00020919504309196044091970450919804BB
:1007B000E0918400F0918500B09B08C02F5F3F4F0F
:1007C0004F4F5F4FE0918400F091850099278FBFD4
:1007D000C901772766279F0144275527622B732B72
:1007E000842B952B0895FC0182819927982F8827C7
:1007F00021813327822B932B75E0969587957A95E7
:10080000E1F7817090700895FC0140E050E0828132
:100810009927982F882721813327822B932B877440
:100820009C7C8154984811F441E050E0CA0108953D
:10083000FC0187819927982F882726813327822BCF
:10084000932B0895AC01EFB7F89420918400309178
:100850008500C901841B950B03968617970720F026
:10086000B9016D5F7F4F02C0640F751F611571057F
:1008700011F461E070E06150704070938900609302
:10088000880082E086BB80916F00826080936F0059
:100890008E2F99278FBF08958093B70A882311F46C
:1008A00084E001C081E08093860383E00E94AD0173
:1008B000089520E030E0FC0181818770823011F4DE
:1008C00021E030E0C9010895CF93DF93EC010E944D
:1008D000F3038823D1F0CE010E9404048823A9F0F9
:1008E000CE010E9418042FB7F894332740910202DA
:1008F000509103022FBF20E08417950709F021E0F3
:1009000081E02827822F992702C080E090E0DF91C4
:10091000CF910895FB0121E030E002C0220F331F88
:100920008A95E2F784A582239927089521E02093F0
:10093000D6032093CA052091840030918500BC0124
:10094000C9010E9422040895FC0181859927982FEE
:10095000882720853327822B932B0895EF92FF92CF
:100960000F931F937C018FB7F89499270091DA07B2
:100970001091DB070F5E1E4F1093DB070093DA0721
:10098000015111408FBF85E00E94AD01C801B70140
:100990000E94A7348A5D9E4F1F910F91FF90EF90A8
:1009A00008958091D7078A3021F48091880384309C
:1009B00021F081E080933002089588E10E94AD012A
:1009C0001092300208952FB7F89433278093C60011
:1009D000E0ECF0E08081806480832FBF0895FC010B
:1009E0006115710519F481E090E008958091D403B8
:1009F0009091D503892B19F085E090E008957093CC
:100A00007A0A6093790AF093D503E093D4031092A5
:100A1000B9031092B80381E08093BA038091C000BB
:100A200080648093C0008091C10080648093C10085
:100A3000808121E030E03093B9032093B8030E9415
:100A4000E30480E090E008958FB7F894992720910F
:100A500041022E7F209341022EE720930C038FBF8B
:100A600061E070E08CE093E00E94EF049927089524
:100A70008091AF0A882319F02FE150E002C058E0BE
:100A80002EE1622F7FB7F894809123038E7F8093AD
:100A9000230380917C00982F9F718295869586957F
:100AA000837019F080E090E00CC040E03327892F7C
:100AB00099272817390709F041E081E04827842F5A
:100AC0009927982F9170990F809123038178262F71
:100AD0002F71422F440F440F892B842B80932303C3
:100AE000332720937C00583059F580918F0A9091DC
:100AF000900A21E08638920718F087E090E01FC046
:100B0000833C910518F086E090E019C0813691058C
:100B100018F085E090E013C08033910518F084E070
:100B200090E00DC08831910518F083E090E007C097
:100B30000C9718F082E090E002C080E090E0582F1F
:100B40005770887D852B886D992780937A00872F31
:100B500099278FBF0895AC01EEE9F4E080E090E0C2
:100B60009C01858180FF05C0808191818417950754
:100B700041F0C90101963B968A30910589F72FEF24
:100B800030E0C90108950E94AB058F3F91F099278D
:100B90002BE030E0829FF001839FF00D929FF00DDB
:100BA0001124E256FB4F858181FF03C08781908528
:100BB00008958FEF9FEF089520912103222319F4C8
:100BC00040E050E016C08091A30DE82FFF27EE0F04
:100BD000FF1FEE56FD4F408151811182108221503E
:100BE000209321038F5F8093A30D8A3011F410921C
:100BF000A30DCA010895AC01209153022A3018F0C8
:100C000081E090E0089580915202E82FFF27EE0FD7
:100C1000FF1FE45FFB4F518340838F5F809352023D
:100C20008A3011F4109252022F5F2093530280E019
:100C300090E008950E94AB058F3F19F481E090E0A9
:100C40000895282F33278BE090E0289FF001299FFB
:100C5000F00D389FF00D1124E256FB4F858188601E
:100C6000858380E090E008952F923F924F925F92AB
:100C70006F927F928F929F92AF92BF92CF92DF92AC
:100C8000EF92FF920F931F93CF93DF93CDB7DEB711
:100C900029970FB6F894DEBF0FBECDBF6FB769833B
:100CA000F8942090C1033090C2034090C303509049
:100CB000C403662477248824FEE4AF2EE3E8BE2E26
:100CC000CC24DD24EE24FF2400E010E0222D332D7F
:100CD000442D552D662D772D882D90E00E94FB32F6
:100CE0002A833B834C835D836E837F8388879987C8
:100CF000822E932EA42EB52E2401350100E20E94EF
:100D0000F933A22EB32EC42ED52EA30192015695EF
:100D10004795379527952A0D3B1D4C1D5D1D57FFA7
:100D200005C05F772F5F3F4F4F4F5F4F2093C10349
:100D30003093C2034093C3035093C403E9818E2FC1
:100D400099278FBFCA01B90129960FB6F894DEBF63
:100D50000FBECDBFDF91CF911F910F91FF90EF900C
:100D6000DF90CF90BF90AF909F908F907F906F90CB
:100D70005F904F903F902F900895EF920F931F93A5
:100D8000AE2D99E0899FF0011124E25FFA4F408374
:100D90005183628373830483158326833783A17011
:100DA00080858E7F8A2B8260808787E00E94AD01DC
:100DB0001F910F91EF9008957FB7F8946091B20062
:100DC0002091EA023091EB024091EC025091ED0249
:100DD000B99B11C08091B3009091B200280F311DD2
:100DE000411D511D2F5F3F4F4F4F5F4F290F311D49
:100DF000411D511D04C0260F311D411D511D872F5E
:100E000099278FBFCA01B90108956D3118F080E0AC
:100E100090E008950C9608956E5F0E940507009774
:100E200009F0029608950B960895FC01655F6083B2
:100E300008950F931F93CF93DF93EC01892BE9F073
:100E40002091710A3091720A8FEF2F3F3807A9F075
:100E50008091D702813019F4198218820BC0009159
:100E6000730A1091740AC9010E94C305080F191F63
:100E70001983088380E090E002C081E090E0DF9178
:100E8000CF911F910F91089580912502E82FFF27A0
:100E9000EE0FFF1FE65BF54F0190F081E02D2091F2
:100EA0002702222351F08F5F809325028D3011F4A9
:100EB00010922502215020932702CF010895AC0102
:100EC000209121042C3018F081E090E00895809169
:100ED000C603682F620F712D711DFB016C30710507
:100EE00008F03C97EE0FFF1FE252F84F518340830A
:100EF0002F5F2093210480E090E00895AC012091C1
:100F000020042C3018F081E090E008958091B20A1E
:100F1000682F620F712D711DFB016C30710508F097
:100F20003C97EE0FFF1FE757F24F518340832F5F2F
:100F30002093200480E090E00895685F0E940507F8
:100F4000009709F008960895FC0180818551992742
:100F500008958FB7F894992722B132E0232722B958
:100F60008FBF0895FC0127813085C90143E0880FB8
:100F7000991F4A95E1F7820F931F860F971F6AE02A
:100F800070E00E94A734708767830895FC01618533
:100F90009285662329F48AE0989FB001112409C044
:100FA00077278AE0989FC00111240E94BB341186E4
:100FB0001286CF010E94B2070895AF92BF92CF92DE
:100FC000DF92EF92FF920F931F93F82E5A016B015D
:100FD0000E94DC06AB01BC01EE24960185018F2D39
:100FE0000E94BD061F910F91FF90EF90DF90CF9070
:100FF000BF90AF90089580913A058D7F80933A0518
:101000004091F8075091F9076091FA077091FB073A
:1010100084E00E94DD070895AC01209127022D3065
:1010200018F081E090E0089580912602E82FFF27D4
:10103000EE0FFF1FE65BF54F518340838F5F809378
:1010400026028D3011F4109226022F5F2093270282
:1010500080E090E008954FB7F8945527FC0173E0C5
:10106000F695E7957A95E1F7E453FA4F877090701B
:1010700021E030E002C0220F331F8A95E2F7808121
:10108000822B80834FBF0895DF92EF92FF920F93E0
:101090001F938FB7F894282F3327D22E9091B30047
:1010A0008091B20047B3981711F041FF02C02FBFE3
:1010B00071C08091BC038823E1F10E94DC06E090BE
:1010C000DF02F090E0020091E1021091E202209133
:1010D000B30A3091B40A4091B50A5091B60A6E191C
:1010E0007F09800B910B621773078407950720F027
:1010F0001092BC0371E01EC02E0D3F1D401F511FFA
:101100008091EA029091EB02A091EC02B091ED0285
:10111000281B390B4A0B5B0B273E31054105510556
:1011200040F4822F223010F070E005C070E082E0C1
:1011300002C070E086EE682F61508091B60083FD9A
:10114000FCCF8091B200681709F46F5F2091EA022A
:101150003091EB024091EC025091ED02DA01C901AD
:101160000196A11DB11D860F911DA11DB11D8217F4
:101170009307A407B50710F4622F60958091B6001D
:1011800083FDFCCF6093B300DFBE772319F086E0C8
:101190000E94AD011F910F91FF90EF90DF90089595
:1011A000AFB7F894BB27E1E0E093BC036093DF02A4
:1011B0007093E0028093E1029093E2022093B30ADD
:1011C0003093B40A4093B50A5093B60AAFBF0E9459
:1011D000440808959BE0899FF0011124E256FB4FDB
:1011E0007183608312821382148285E08583168264
:1011F000108617820895882349F0682F772784EC9A
:1012000099E00E94BB346B3F710510F06FEF7FEFE8
:10121000CB010895CF92DF92FF920F931F93CF934C
:10122000DF93282F062F482F55278BE090E0489F0B
:10123000E001499FD00D589FD00D1124C256DB4FBD
:101240008D8182FF02C08B7F8D838A81302F381B76
:101250000A838B818F5F8B83332379F08C81830F9B
:1012600081508C833B3048F068817981822F0E94C5
:10127000EA080A8381E08B836EC08BE090E0489F90
:10128000F001499FF00D589FF00D1124E256FB4FDD
:1012900083812481820F912D911D03971CF433309B
:1012A00008F459C0C080D180CEE9D4E0888199810A
:1012B0008C159D0509F049C08D81282F332720FF0B
:1012C00044C06B81FC80F60E21FD16C0772788276D
:1012D00099272AEF30E040E050E00E947C342F2D27
:1012E0003327442755270E94CE34DA01C9012E83C3
:1012F0000E94FB0898878F838D8182608D830E8189
:1013000089E0089F800111246B817727882799271E
:101310002AEF30E040E050E00E947C342F2D33274C
:10132000442755270E94CE34C801820F911D6AE0E0
:1013300070E00E94BB34CB016E831B821C820E9432
:10134000FB08BC01CE010E94B2072B9685E0CC3091
:10135000D80709F0ABCFDF91CF911F910F91FF908C
:10136000DF90CF90089580E090E0E3EAF4E09C0104
:10137000808180FF08C0C90101963B968A309105A3
:10138000B1F72FEF30E0C9010895982FAFEF60E07B
:1013900070E040E050E0E3EAF4E08081282F33275A
:1013A00020FF0BC021FF09C023FD07C0228133812C
:1013B0002617370710F0A42FB9014F5F5F4F3B96F8
:1013C0004A30510551F7892F99276817790718F482
:1013D0008FEF90E008958A2F99270895AC013091FE
:1013E000E8028FEF4F3F580711F020E012C0832F23
:1013F00099270895E22FFF27A3E0EE0FFF1FAA957C
:10140000E1F7E35DFC4F808191818417950719F026
:101410002F5F231779F7822F992708951F93CF9372
:10142000DF93162FC0E0D0E06AE10E940C07FC01B8
:1014300080818123811711F4C1E0D0E0CE01DF91DA
:10144000CF911F9108951F920F920FB60F92112402
:101450008F938091B0008093B0008091B60081FDA1
:10146000FCCF8F910F900FBE0F901F9018951F9279
:101470000F920FB60F9211240F931F932F933F9348
:101480004F935F936F937F938F939F93AF93BF938C
:10149000CF93DF93EF93FF932EB5E0919905F091F1
:1014A0009A05309739F08091890490918A04E80F69
:1014B000F91F20838091890490918A04019690936A
:1014C0008A048093890480E00E944903C0918904C2
:1014D000D0918A042091610230916202C217D30731
:1014E00008F042C00091470B1091480B40919905BC
:1014F00050919A05CE010A962817390708F4C901B8
:10150000DA01AC0FBD1FF801EC0FFD1F9C0121504B
:10151000304015C00115110531F080818EBD0DB42C
:1015200007FEFDCF04C01EBC0DB407FEFDCF8EB577
:101530004115510509F08C93219611963196C217E9
:10154000D30740F381E00E9449030115110531F0F2
:101550000C0F1D1FF80180818EBD01C01EBCD093F1
:101560008A04C093890411C010929A0510929905BB
:101570001092480B1092470B109262021092610277
:1015800010928A04109289048EB5FF91EF91DF9139
:10159000CF91BF91AF919F918F917F916F915F910B
:1015A0004F913F912F911F910F910F900FBE0F9070
:1015B0001F90189578941F920F920FB60F921124D6
:1015C0000F900FBE0F901F90189578941F920F9256
:1015D0000FB60F9211240F900FBE0F901F90189509
:1015E00078941F920F920FB60F9211242F933F936E
:1015F0008F939F93AF93BF932FB7F8943327809126
:10160000950490919604A0919704B0919804019646
:10161000A11DB11D8093950490939604A093970407
:10162000B09398042FBFBF91AF919F918F913F913D
:101630002F910F900FBE0F901F9018951F920F9231
:101640000FB60F9211242F933F934F935F936F9395
:101650007F938F939F93AF93BF93EF93FF934091AB
:1016600078005091790078948FB7F8949927209159
:101670002303322F3695317021708FBF222329F535
:1016800080917A00877F80937A0080910A0481306C
:1016900021F0823009F043C00AC0332351F0509347
:1016A000D6074093D50783E10E94AD0138C03323AC
:1016B00049F48DE790E0019701960197E1F70E94C8
:1016C00038052DC010920A042AC08FB7F8949927C4
:1016D0008FBF2FB7F894332780917A00582F577017
:1016E000482F4072987D942B952B8074977B982B74
:1016F00090619F77892F992780937A00887D842B2A
:10170000852B87738061992780937A00887D842B4D
:10171000852B877B8069992780937A002FBFFF9163
:10172000EF91BF91AF919F918F917F916F915F9159
:101730004F913F912F910F900FBE0F901F901895D2
:10174000E6E0F1E06927660FF11DE60FF11DC8958F
:10175000982F802D3196C89590250895982F8091C7
:101760003C02882389F5992379F531E030933C02D6
:101770008091130280933D0220913102822F81706B
:101780008093E702809118029091190290933F0292
:1017900080933E0280913202809340023227317062
:1017A000267EE32FFF27EE0FFF1FEC5EFD4F8081AB
:1017B00091819093190280931802232B2093310278
:1017C0008BE10E94AD0108958091310280FF02C03B
:1017D0008B7F01C08D7F8093310208950F931F93FB
:1017E000082F162F809188038130D9F0813038F08E
:1017F000823009F44AC0833009F028C159C000235F
:1018000009F458C110926C0A10926B0A1092DD070D
:101810001092850A1092BB0310929A0410929904B8
:1018200039C1002309F046C18091990490919A042E
:101830000E94A00B90939A048093990482E0809375
:1018400088031093850A143409F000C125C18695D8
:10185000869503C0809131028695817009F0F6C0AB
:1018600080913102992311F0846001C082608093DD
:10187000310280913102877E88608093310210921C
:1018800032028FEF8093130215C1002309F0DEC0EE
:101890006093BB038091990490919A040E94A00BDD
:1018A00090939A048093990483E08093880302C103
:1018B0008091DD078F3F09F4C9C0002309F461C09E
:1018C000823008F4C3C0E0916B0AEE2309F4EBC048
:1018D0004E2F4150E42FFF27E559F54F828199277C
:1018E000382F2227442311F4E2E002C0E42FE15014
:1018F000FF27E559F54F82819927282B392B8091B5
:10190000990490919A042817390709F09FC080E044
:101910000E94AE0B3091BB03809181042091820420
:10192000982F9F5F963008F090E0921771F0E82FA3
:10193000FF27EF57FB4F32838F5F80938104863000
:1019400010F0109281040E94D40110926C0A10923F
:101950006B0A94E0909388031092DD071092850A39
:101960001092BB0310929A04109299048091410244
:101970008D7F8093410280913002882309F49AC0C0
:1019800084C0823008F44EC0E0916C0AFF27E5590C
:10199000F54F8281482F5527342F20913102822F15
:1019A000869586958695837099278130910519F0E3
:1019B0000297F9F40EC0277E206120933102442360
:1019C00011F485E001C080E080933202309313026D
:1019D00010C0809132028F3260F4E0911802F091D1
:1019E0001902E80FF11D4083809132028F5F8093CE
:1019F000320280916C0AE82FFF27E559F54F62818A
:101A00008F5F80936C0A833010F010926C0A7727F6
:101A10008091990490919A040E94A00B90939A044B
:101A20008093990480916B0AE82FFF27E559F54FC1
:101A300012838F5F80936B0A833010F010926B0AD1
:101A40008091DD078F5F8093DD0734C010926C0AB0
:101A500010926B0A14E0109388031092DD07109225
:101A6000850A1092BB0310929A04109299048091F7
:101A700041028D7F8093410281E00E94AE0B8091F4
:101A80003002882329F0109388030E94D10412C0E9
:101A9000002381F081E009CF80913102982F91706D
:101AA00080FDD5CED7CE80916F0A9927382F222777
:101AB00042E01CCF1F910F9108951F920F920FB615
:101AC0000F9211242F933F934F935F936F937F93C4
:101AD0008F939F93AF93BF93EF93FF938091C00039
:101AE00087FF42C06091C600E0919B04F0919C0486
:101AF000309719F180914A0B90914B0BE80FF91F29
:101B00006083019690934B0B80934A0B2091A40D18
:101B10003091A50D8217930738F110929C04109212
:101B20009B048091A4078330F9F08091C1008F77E6
:101B30008093C1001092A40717C06E3719F460E0BB
:101B400081E010C0809141026D3721F48260809362
:101B500041020AC081FF05C08D7F8093410280E26F
:101B6000682780E00E94EE0BFF91EF91BF91AF914B
:101B70009F918F917F916F915F914F913F912F91A5
:101B80000F900FBE0F901F901895982F8D57823091
:101B900068F48091410281608093410280E289274C
:101BA0008093DC078DE780930C0302C090930C03B5
:101BB00061E070E08CE093E00E94EF0499270895C3
:101BC00078941F920F920FB60F921124FF920F93E9
:101BD0001F932F933F934F935F936F937F938F93B5
:101BE0009F93AF93BF93CF93DF93EF93FF93209196
:101BF000B8033091B9038091790A90917A0A281735
:101C0000390780F4E091D403F091D503E20FF31F7C
:101C100080812F5F3F4F3093B9032093B8030E9418
:101C2000E304D1C01092D5031092D4031092BA03EA
:101C30008091C1008F7B8093C100FFB6F8948091A2
:101C4000410280FF0EC08E7F809341028091DC07AD
:101C500080930C0361E070E08CE093E00E94EF045D
:101C6000AFC08091D707843009F48CC0853040F430
:101C7000823021F18330B8F5813009F09CC00DC06D
:101C8000863009F48DC0863008F483C0873009F4AB
:101C90008EC0883009F08FC091C08091D0030E941F
:101CA000C50D082F83E08093D7076091D003809102
:101CB000A10D9091A20D0E94A00B10C08091960AD8
:101CC0000E94C50D082F83E08093D7076091960A84
:101CD0008091A10D9091A20D0E94A00B9093A20D56
:101CE0008093A10D66C0E0910C05FF27EE0FFF1F4A
:101CF000E852FC4F80810E94C50D082F10910C0501
:101D0000C12FDD27FE01EE0FFF1FE852FC4F60815F
:101D10008091A10D9091A20D0E94A00B9093A20D15
:101D20008093A10D2091CC032F5F2093CC03113021
:101D300039F580913802E0913302F0913402E80FD6
:101D4000F11DE0818F5F80933802909137029817E0
:101D500030F482E08093D90340E050E002C04E2F7F
:101D60005527DE01AA0FBB1FFD01E952FC4F808100
:101D7000823031F02F3F21F0A852BC4F4C9319C054
:101D800084E012C08091A10D0E94C50D082F85E04E
:101D90000BC08091A20D0E94C50D082F86E004C0E3
:101DA0000E942405082F87E08093D70702C088E0AF
:101DB00003C0002329F089E08093D7070E94D40153
:101DC0008F2D99278FBFFF91EF91DF91CF91BF9119
:101DD000AF919F918F917F916F915F914F913F91C3
:101DE0002F911F910F91FF900F900FBE0F901F909A
:101DF00018951F920F920FB60F9211248F93809116
:101E0000C80087FF02C08091CE008F910F900FBE57
:101E10000F901F90189578941F920F920FB60F9203
:101E200011240F900FBE0F901F90189578941F9259
:101E30000F920FB60F9211240F900FBE0F901F90AC
:101E4000189578941F920F920FB60F9211240F904D
:101E50000FBE0F901F90189578941F920F920FB697
:101E60000F9211240F900FBE0F901F901895789429
:101E70001F920F920FB60F9211248F939F93809110
:101E80009600909197009F918F910F900FBE0F90A9
:101E90001F90189578941F920F920FB60F921124ED
:101EA0002F933F938F939F932FB7F894332780916D
:101EB000C7039091C80301969093C8038093C7030A
:101EC0002FBF9F918F913F912F910F900FBE0F9039
:101ED0001F901895EF92FF920F931F9379018A013B
:101EE000643018F044E050E002C0462F5527BC0192
:101EF00088EF97E00E942735E0922002F0922102BD
:101F000000932202109323020E94FB071F910F915E
:101F1000FF90EF9008951F920F920FB60F92112429
:101F20002F933F934F935F936F937F938F939F93E1
:101F3000AF93BF93EF93FF938091B0008093B00075
:101F40008091B60081FDFCCF8091B3009927019666
:101F5000AA27BB272091EA023091EB024091EC02C4
:101F60005091ED02280F391F4A1F5B1F2093EA0290
:101F70003093EB024093EC025093ED0278940E9470
:101F80004408FF91EF91BF91AF919F918F917F9105
:101F90006F915F914F913F912F910F900FBE0F90D6
:101FA0001F9018956E5F0E9415070895AF92BF921B
:101FB000CF92DF92EF92FF920F931F9380910D02C9
:101FC00090910E02A0910F02B0911002B695A795C4
:101FD0009795879580937E0390937F03A0938003CA
:101FE000B09381030E943406E0907E03F0907F035B
:101FF0000091800310918103A80197010E94CE34C3
:102000005B016C01AE0CBF1CC01ED11EA0927E03F2
:10201000B0927F03C0928003D092810310926A0A2B
:102020000E94DC06AB01BC01E1E0EE2E96018501C9
:1020300081E00E94BD061F910F91FF90EF90DF900D
:10204000CF90BF90AF9008950F931F93FC01008134
:102050000D50112762E00E940507FC012081332703
:102060002F703070C901880F991F820F931F081BB2
:102070000250802F99271F910F9108950F931F935E
:10208000982F1FB7F89480911F02823099F58091A4
:102090000A02891779F58091080220E030E08F3F2D
:1020A00011F421E030E0232BF1F49FEF90930A022A
:1020B0008F3F19F42FEF30E00DC0282F3327F9019F
:1020C000E153FC4F8081809308028F3F11F490937D
:1020D000090290832093D10381E080931F028AE05C
:1020E0000E94AD0105C08FEF80930A0210921F027B
:1020F00001E001C000E0812F99278FBF1FB7F8943E
:1021000080911F02882311F40E944003812F992798
:102110008FBF90E0013009F491E081E09827892F8A
:1021200099271F910F9108951F93982F1FB7F89427
:1021300080911E02823091F580910702891771F516
:102140008091050220E030E08F3F11F421E030E083
:10215000232BE9F49FEF909307028F3F19F42FEFA1
:1021600030E00DC0282F3327F901E45DFC4F80815A
:10217000809305028F3F11F4909306029083209381
:10218000280381E080931E020E94AD0105C08FEFFD
:102190008093070210921E0221E001C020E0812FEF
:1021A00099278FBF90E0213009F491E081E09827D2
:1021B000892F99271F9108958FB7F894282F3327D7
:1021C000922F80910A02882331F480911F0282307D
:1021D00011F42FBF13C09FBF8FB7F894282F332758
:1021E00080911F02882369F482E080931F0210927D
:1021F0000A022FBF0E945203209A289A81E090E0A1
:1022000008952FBF80E00E94770380E090E008955A
:1022100080918603823031F481E08093860383E0ED
:102220000E94AD0108953F924F925F926F927F920C
:102230008F929F92AF92BF92CF92DF92EF92FF92D6
:102240000F931F93CF93DF932C018091600288231B
:1022500009F07AC18091490B853009F075C10E945F
:10226000DC10882309F470C18091700A882309F07A
:102270006BC1B20182E00E948A04882311F490E0CD
:1022800003C0F20196A59F7080910B04981781F00E
:1022900090930B04289885EC8EBD0DB407FEFDCFFE
:1022A0008EB590689EBD0DB407FEFDCF8EB5289A01
:1022B000C2010E940404882301F1289886E88EBD9B
:1022C0000DB407FEFDCF8EB51EBC0DB407FEFDCFCD
:1022D0008EB5289A99278F7190702091C5034091EF
:1022E0007D03240F312D311D43E0359527954A9507
:1022F000E1F7281739070CF427C1289882EC8EBD26
:102300000DB407FEFDCF8EB589E08EBD0DB407FE7E
:10231000FDCF8EB5289A0E94CE037B018C01B201BD
:1023200084E00E948A04882319F4E0E0F0E006C00B
:10233000D2018C918550F201E80FF11D289881E8B7
:102340008EBD0DB407FEFDCF8EB51EBC0DB407FECD
:10235000FDCF8EB5289A8F71893079F0289882EC5C
:102360008EBD0DB407FEFDCF8EB586E08EBD0DB4DB
:1023700007FEFDCF8EB5289AE7C08FB7F89499274E
:102380002F9A20918400309185008FBF2F98289834
:1023900080E68EBDD2019C910DB407FEFDCF8EB5B7
:1023A0009EBD8EEF382E390EB6E0B31510F0632DBA
:1023B00001C067E0A2014F5F5F4FDA01962F7D9168
:1023C0000DB407FEFDCF8EB57EBD9150C1F76150B3
:1023D000EA01C60FD11D6F5F21962E193F092E55B8
:1023E0003F4F3901882477FC8094982C6E0C7F1C19
:1023F000801E911E309719F4932D961B42C02081A8
:10240000E1808281A3809927AA27BB27BA2FA92F11
:10241000982F8827332744275527522F44273327BF
:102420002227FF24002711278701FF24EE242E29CD
:102430003F29402B512BBB24CC24DD242A293B29C6
:102440004C295D29822B932BA42BB52B8619970938
:10245000A809B9098383292F3A2F4B2F55272283A7
:102460009D014427552721838B2F9927AA27BB2716
:102470008083C2CF28810DB407FEFDCF21968EB593
:102480002EBD9150B8F70DB407FEFDCF8EB5289A3A
:10249000289882EC8EBD0DB407FEFDCF8EB586E088
:1024A0008EBD0DB407FEFDCF8EB5289A3097D1F1C1
:1024B0002081E1808281A3809927AA27BB27BA2F98
:1024C000A92F982F8827332744275527522F442791
:1024D00033272227FF24002711278701FF24EE241A
:1024E0002E293F29402B512BBB24CC24DD242A2923
:1024F0003B294C295D29822B932BA42BB52B860DD0
:10250000971DA81DB91D8383292F3A2F4B2F5527BF
:1025100022839D014427552721838B2F9927AA27A2
:10252000BB278083B20181E00E94C203F20160A652
:1025300071A682A693A686E08093490B84E08093DF
:10254000600280E090E002C085E090E0DF91CF91F2
:102550001F910F91FF90EF90DF90CF90BF90AF90C1
:102560009F908F907F906F905F904F903F900895D5
:10257000AF92BF92CF92DF92EF92FF920F931F9391
:10258000CF93DF938091700A882309F4F5C00E94ED
:10259000DC10882309F4F0C08FB7F8949927C09114
:1025A000C903D091CA038FBF1092700A28988FE890
:1025B0008EBD0DB407FEFDCF8EB51EBC0DB407FE5B
:1025C000FDCF8EB5289A982F80916002833011F04C
:1025D000873031F485E08093490B88E08093600276
:1025E000A92EBB24A2FE63C080916002863019F43C
:1025F0001092600203C0882309F059C0943009F09A
:1026000045C0289886E88EBD0DB407FEFDCF8EB577
:102610001EBC0DB407FEFDCFFEB4289A2FE1F222B6
:1026200080917D03982F969596953F2D391B830FAA
:1026300080937D030091E3021091E402F80184A5E8
:102640008B7F84A7B80183E00E94C203F801F6A63D
:102650000E94CE037B018C01C090E302D090E40283
:10266000B60181E00E94C203CE19DF092797CE018F
:10267000AA2797FDA095BA2F8E0D9F1DA01FB11FF1
:10268000F60180A791A7A2A7B3A70EC0E091E3022D
:10269000F091E40284A5877F84A7E091E302F091A2
:1026A000E40284A58D7F84A785E080936002A3FE69
:1026B00063C080916002843009F041C085E080935E
:1026C000490B109260028091E902833019F4109254
:1026D000E90252C00091870D1091880DC8010E9437
:1026E000F303882321F1C8010E9404048823F9F030
:1026F000C8010E9418048F5F9F4FC9F090E080913D
:10270000CA05882309F491E0992389F012E0109317
:10271000D60381E08093CA05809184009091850062
:1027200069E973E00E9422041093E90225C0109227
:10273000E9021092870380E00E944C041DC085309E
:10274000D9F42091C503289886E88EBD0DB407FE04
:10275000FDCF8EB51EBC0DB407FEFDCF8EB5289AF9
:102760008F71922F96959695891B280F2093C503FC
:1027700089E08093600208C090916002992309F477
:10278000D6C2993009F003C2289880E28EBD0DB4FC
:1027900007FEFDCF8EB51EBC0DB407FEFDCF8EB576
:1027A000482F5527433008F487C3842F99278A97E9
:1027B0000CF082C31EBCE091E302F091E40240837E
:1027C000042F0250073010F4102F01C017E09F01B2
:1027D0002F5F3F4F912FF901EE24FF240DB407FE28
:1027E000FDCF8EB51EBC80838191A7014827042EA2
:1027F0004295407F4025052E542F42954F70042668
:10280000469554274527440F440F440F40257A012D
:10281000915021F71150E901C10FD11D1F5F219681
:102820008091E3029091E4020E945904882349F0C8
:1028300020E030E08091E902823081F421E030E054
:102840000DC08FB7F894282F332790E08091640A49
:10285000833008F491E02FBF292F3327232B09F46D
:102860005FC0902F911B1AC00DB407FEFDCF8EB52F
:102870001EBC88838991F701E8270E2EE295E07F40
:10288000E0250F2EFE2FE295EF700E26E695FE272F
:10289000EF27EE0FEE0FEE0FE0257F01915020F7AE
:1028A0000DB407FEFDCF8EB51EBC97012827022E62
:1028B0002295207F2025032E322F22952F7002266D
:1028C000269532272327220F220F220F20250DB411
:1028D00007FEFDCF8EB51EBC2827022E2295207F35
:1028E0002025032E322F22952F700226269532277F
:1028F0002327220F220F220F20250DB407FEFDCF24
:102900008EB5E091E302F091E40285A7289A15E0E4
:102910001093490B10926002232B09F004C205C0EA
:102920000DB407FEFDCF8EB5C7C2C091E302D091B2
:10293000E402CE010E9459049091E902882321F11A
:10294000923009F01FC19B81E091870DF091880DB5
:102950008381981709F016C189818770823009F048
:1029600011C180916F008D7F80936F001092CA0516
:10297000BF0180E00E94C2031092E9021092870317
:1029800080E00E944C04FEC09923C1F4CE010E9455
:102990006404882399F01093220482E08093230436
:1029A000109224048B818093250482E294E00E949B
:1029B0001311882319F483E08093E90200918400C5
:1029C00010918500CE010E946404882311F0045EFA
:1029D0001C4F10938C0400938B0480918400909181
:1029E00085009801281B390B12161306A4F4809158
:1029F0008703882369F490E08091CA05882309F44D
:102A000091E0992341F0C9010E94960480E801C039
:102A1000806880938703CE010E94A404AC0180915A
:102A2000EE02282F3327F901EE0FFF1FE558F54F6F
:102A3000808191810091CB058417950749F4F901B4
:102A4000EF57F24F8081801709F468C0802F1BC0B8
:102A5000EE24FF2480E090E0ABE7BAE0E1E8FDE09F
:102A6000BF01182F9C018D919C9111978417950798
:102A700089F42093EE029091CB05FB0180818917A8
:102A800009F44CC0892F8F5F8093CB058083E0E8E9
:102A9000EE2E2AC08081902F981BE91610F4E92EA3
:102AA000F22E1F5FC90101966F5F7F4F129631961C
:102AB00085309105B1F61530B9F4F092EE02AF2DE4
:102AC000BB27FD01EE0FFF1FE558F54F51834083F3
:102AD0008091CB058F5F8093CB05FD01EF57F24FBF
:102AE0008083AA55B24F1C929091CB05892F8F7786
:102AF0008F3781F4EEE7EE1568F4E1E8FDE0292F69
:102B0000207880818F678913208331963DE0E638F5
:102B1000F307B9F78091EE02282F33279B81A22F6C
:102B2000BB27FD01EA55F24F808180FF07C0FD0100
:102B3000EB59F54F8081981729F102C0816080839D
:102B4000AB59B54F9C93FFB6F8948091640A8330DB
:102B5000B0F4E091950AE80FE33008F0E350FF2766
:102B6000EE0FFF1FE852FD4F00811181D183C0831A
:102B70008F5F8093640A84E00E94AD01E8018F2D8D
:102B800099278FBFD093E402C093E302C3C0892F7B
:102B90008150833008F09CC081508230E0F4309145
:102BA000490B3130C1F420E08091CA05882309F433
:102BB00021E0222381F02F9883E08093D603309385
:102BC000CA0580918400909185006BE273E00E94B9
:102BD000220482E068C0933009F042C08091490B22
:102BE000833009F097C00E94DC108823C9F128982F
:102BF0008FE88EBD0DB407FEFDCF8EB51EBC0DB4A3
:102C000007FEFDCF8EB5289A809181008064809365
:102C1000810080E286BB80916F00806280936F00AC
:102C200090912703289888EC8EBD0DB407FEFDCF48
:102C30008EB590669EBD0DB407FEFDCF8EB5289A69
:102C4000289882EC8EBD0DB407FEFDCF8EB586E0D0
:102C50008EBD0DB407FEFDCF8EB5289A84E023C04B
:102C6000809160028150823000F58091490B85305F
:102C7000E1F40E94DC108823C1F0289882EC8EBD1C
:102C80000DB407FEFDCF8EB583E08EBD0DB407FEFB
:102C9000FDCF8EB5289A80916F008F7D80936F0055
:102CA0001092700A83E08093490B909160029130FA
:102CB00041F48091490B8330B1F52F9A9093490BE1
:102CC00025C0923039F58091490B833061F51EC0E3
:102CD000973001F50E94DC108823E1F090912703E2
:102CE000289888EC8EBD0DB407FEFDCF8EB590669A
:102CF0009EBD0DB407FEFDCF8EB5289A8091490B7D
:102D0000853021F484E08093490B04C088E08093EF
:102D1000600204C080916002883029F41092600241
:102D200082E00E94AD0180916002882309F58091C4
:102D3000490B8530D1F48091700A8823B1F48091D9
:102D4000E902882391F480918703882371F490E04D
:102D50008091CA05882309F491E0992331F00E94FB
:102D6000081180916002882319F488E00E94AD0167
:102D70008091CA05823009F092C01092CA05F09085
:102D8000D60342E0F41609F466C053E0F51609F4E0
:102D90006AC081E0F81609F082C020918B0430915E
:102DA0008C04809184009091850040918703403885
:102DB00029F4109287030E94081171C08901081B31
:102DC000190B47FF03C010161106ECF0C0918203E7
:102DD000D09183038091E9028823A9F4CE010E9457
:102DE00013119927882351F48CA58E7F8CA7F0921C
:102DF000E902D093880DC093870D29C09927F82E3A
:102E0000882329F102C055E0F52E20918703822FF7
:102E100099278F77019759F42078226020938703B0
:102E200080E198E00E94AE040E94960438C027FF1B
:102E30000AC0101611063CF480E880938703C8018D
:102E40000E94960402C0109287038F2D09C083E070
:102E50008093870324C01092E9021092870380E0D8
:102E60000E944C041CC08091490B823019F4F092EE
:102E7000490B13C080916002863079F41092600291
:102E8000289881E88EBD0DB407FEFDCF8EB51EBC1F
:102E90000DB407FEFDCF8EB5289A0E9497198FB703
:102EA000F894282F332780912403813061F081E04A
:102EB000809324032FBF66CB289A85E08093490B2B
:102EC0001092600230CF109224032FBFDF91CF9178
:102ED0001F910F91FF90EF90DF90CF90BF90AF9038
:102EE00008958FB7F894282F3327809124038150B9
:102EF00080932403803811F02FBF089581E08093E0
:102F000024032FBF0E94B81208951F93FC018FE382
:102F10008287809154028F5F8093540283832FB7FE
:102F2000F8943327809124038F5F809324032FBF6D
:102F300080918603882311F015E00DC0F093D90726
:102F4000E093D80781E0809386031092A30783E083
:102F50000E94AD0110E00E947117812F99271F91E7
:102F60000895EF92FF920F931F93CF93DF93082F53
:102F70007B01EA01122F2D3118F086E090E086C027
:102F8000CA010E940404882351F48981992780731F
:102F90009070816498688983892F99278A831E5F3E
:102FA000612FCE010E9415072FB7F8943327809127
:102FB0000202909103022FBF8887892F9927898762
:102FC0002FB7F8943327809104022FBF99278C8361
:102FD0001D82CE010E941307FC010083EE828F2D1B
:102FE00099278F838FB7F894282F332780911E025B
:102FF000882371F482E080931E02109207022FBF93
:10300000CE010E9485179927182F882399F00FC0A9
:103010002FBFD0932A03C09329038FB7F894C82FEA
:10302000DD272C2F80911E02882391F406C080E0BA
:103030000E949410812F992729C081E080931E025D
:10304000109228030E94AD01CFBF80E090E01EC027
:1030500080912C038F3F89F4E0910602EE2369F002
:1030600010C01092050204C0FF27E45DFC4F1082DF
:103070001092060280E090E002C085E090E02FBF51
:1030800005C0809105028F3F79F7EBCFDF91CF919B
:103090001F910F91FF90EF900895EF92FF920F9381
:1030A0001F93CF93DF9380910B029927019664E0E1
:1030B00070E00E94BB34682F80930B0200E0462F23
:1030C0005527FA01EE0FFF1FE357FB4FC081D18157
:1030D000209799F0E62FE695E695E695FF27EF54C1
:1030E000F54F808199279A012770307002C095951D
:1030F00087952A95E2F780FF0DC0CA01019664E02A
:1031000070E00E94BB34682F0F5F0430C1F600935B
:103110000B021AC060930B026430B0F408810D50AA
:103120001127CE010E9418047C01CE010E941307D2
:10313000FC01202FAE01B70180810E94B1178823C6
:1031400019F08CE00E94AD01DF91CF911F910F919A
:10315000FF90EF900895CF92DF92EF92FF920F933E
:103160001F93CF93DF93D82E7B01C42E83E08D1560
:1031700018F481E090E037C0CD2DDD27CC0FDD1FA6
:10318000C357DB4F88819981892B19F085E090E046
:103190002AC0798368836C2D6E5FC7010E94150772
:1031A00080910B02843018F480E090E01CC0C701CD
:1031B0000E941307FC0100811127C7010E94180417
:1031C000D0920B022C2DA701BC01802F0E94B117B9
:1031D0009927282F882329F084E080930B021982F5
:1031E0001882822F9927DF91CF911F910F91FF9025
:1031F000EF90DF90CF900895CF92DF92EF92FF9201
:103200000F931F93CF93DF936C018091DE0288238D
:1032100009F484C080918403882309F07FC066E0AC
:1032200083E692E00E940507EC01892B09F476C041
:1032300081E080938403C9828D2D9927888381E062
:10324000C816D10429F020E030E040E050E008C08A
:1032500020912002309121024091220250912302BC
:10326000FE0132962383BB27A52F942F832F8283C1
:10327000CA01AA27BB278183252F33274427552737
:103280002A83E280FF2400271127102F0F2DFE2C08
:10329000EE24522F4427332722279927AA27BB271A
:1032A000DC0199278827282B392B4A2B5B2B83811C
:1032B0009927AA27BB27282B392B4A2B5B2BE22ADD
:1032C000F32A042B152BE114F1040105110511F467
:1032D00010E011C081E0C816D10421F414E068EFB9
:1032E00077E003C010E060E070E0412F5527CE0189
:1032F00006960E9427358FEF8093690280936A02B9
:1033000083E692E00E941307FC0180E680831A5F47
:10331000412F63E672E080E00E94AB18DF91CF910D
:103320001F910F91FF90EF90DF90CF9008958FB78E
:10333000F894282F332780912403882329F080686C
:10334000809324032FBF089581E0809324032FBF2F
:103350000E94B812089578941F920F920FB60F92A0
:1033600011242F933F934F935F936F937F938F938A
:103370009F93AF93BF93EF93FF93E6E8F0E08081D4
:103380009181208131818FB7F89499273093CA03B6
:103390002093C90321E02093700A8FBF0E949719E0
:1033A000FF91EF91BF91AF919F918F917F916F911D
:1033B0005F914F913F912F910F900FBE0F901F90F3
:1033C000189578941F920F920FB60F9211242F9395
:1033D0003F934F935F936F937F938F939F93AF939D
:1033E000BF93EF93FF9380916F008D7F80936F0069
:1033F00078949FB7F8948091CA05813019F482E0DF
:103400008093CA05892F99278FBF0E949719FF9132
:10341000EF91BF91AF919F918F917F916F915F914C
:103420004F913F912F910F900FBE0F901F901895C5
:103430001F938FB7F8949927209124032F5F20932F
:1034400024038FBF80918603882311F015E023C0E9
:10345000809160028823E1F48091490B813049F426
:1034600090E08091CA05882309F491E0992381F0C6
:1034700005C0853019F489E090E00CC083E08093AA
:1034800060020E94971985E08093860310E003C0D4
:1034900085E090E0182F0E947117812F99271F91C6
:1034A00008951F93CF93DF93162FE0915102FF27CA
:1034B000EE0FFF1FE45FFB4FC081D181209719F011
:1034C000C817D90751F080914C0290914D02019696
:1034D00090934D0280934C021AC00E948702CE0145
:1034E0000E94A202112351F480914A0290914B0252
:1034F000019690934B0280934A0209C08091480242
:10350000909149020196909349028093480210924B
:10351000B00A90E080915302882309F491E0992346
:1035200019F48CE10E94AD01DF91CF911F910895B4
:103530001F93CF93DF93182F809142029091430203
:103540000196909343028093420290E08091210380
:10355000882309F491E0992361F50E94DC05EC01D0
:103560000C9639F14091FC07552760E070E00E940D
:1035700030351C8780914202909143028C8B892FB9
:1035800099278B8BCE010E94FB05882331F48CE1B7
:103590000E94AD0180E090E00EC0809144029091C5
:1035A000450201969093450280934402CE010E9409
:1035B000A20281E090E0DF91CF911F910895AF9238
:1035C000BF92CF92DF92EF92FF920F931F93CF9310
:1035D000DF93B82E7B01A42E690180914202909165
:1035E00043020196909343028093420290E08091BF
:1035F0002103882309F491E09923C9F50E94DC0591
:10360000EC018C01045F1F4F91F14091FC0755279D
:1036100060E070E0C8010E943035BC86EE868F2DD8
:1036200099278D87F801A382C98A8D2D9927888BC8
:1036300080914202909143028C8B892F99278B8B2A
:10364000CE010E94FB05882331F48CE10E94AD017C
:1036500080E090E00EC08091440290914502019676
:103660009093450280934402CE010E94A20281E021
:1036700090E0DF91CF911F910F91FF90EF90DF903D
:10368000CF90BF90AF900895BF92CF92DF92EF920C
:10369000FF920F931F93CF93DF93B82E8B017A0184
:1036A00069018091420290914302019690934302F6
:1036B0008093420290E080912103882309F491E0F5
:1036C0009923C1F50E94DC05EC010C9699F140911B
:1036D000FC07552760E070E00E943035BC860E87FD
:1036E000812F99278D87E88A8F2D99278F87CA8AFE
:1036F0008D2D9927898B80914202909143028C8B6A
:10370000892F99278B8BCE010E94FB05882331F4EA
:103710008CE10E94AD0180E090E00EC080914402F7
:103720009091450201969093450280934402CE0108
:103730000E94A20281E090E0DF91CF911F910F9152
:10374000FF90EF90DF90CF90BF900895AF92BF921F
:10375000CF92DF92EF92FF920F931F93282F332780
:103760008BE090E0289FF001299FF00D389FF00D2D
:103770001124EB5AFD4F82819381A481B58100977A
:10378000A105B10569F080819181880F991F91830E
:1037900080838150944020F080E094E09183808386
:1037A0008BE090E0289F5001299FB00C389FB00C0F
:1037B000112485E592E0A80EB91EF5018681978156
:1037C000A085B18582839383A483B583C080D18093
:1037D000EE24FF2469E0CC0CDD1CEE1CFF1C6A9576
:1037E000D1F70E943406DC01CB01F5010081118183
:1037F000B801762F6627770F0E94A734AA27BB2728
:103800008C0D9D1DAE1DBF1D222733274AE0000FE2
:10381000111F221F331F4A95D1F7081B190B2A0BC2
:103820003B0B0683178320873187228133814481B4
:103830005581280F391F4A1F5B1F2283338344831E
:1038400055831F910F91FF90EF90DF90CF90BF9025
:10385000AF900895CF93DF93EC010E94EE09282FDB
:103860008091E8022817D1F0382F31503093E802C8
:1038700013C0822F9927E3E0880F991FEA95E1F79B
:10388000DC01A35DBC4FFC01EB5CFC4F88E00190C8
:103890000D928150E1F72F5F231758F38091710A41
:1038A0009091720A8C179D07A1F48FEF9FEF909370
:1038B000720A8093710A1092740A1092730A10921D
:1038C000750A1092760A81E080932D0280E10E94B1
:1038D000AD01DF91CF9108958F929F92AF92BF92E9
:1038E000CF92DF92EF92FF920F931F93CF93DF93CC
:1038F0008091D702882309F02DC1AA24BB243FEF71
:10390000E32EF32E2FEF822E922E00E010E03DC02A
:10391000C22FDD2793E0CC0FDD1F9A95E1F7C35D41
:10392000DC4F2A813B818FEF2F3F380761F1809177
:10393000F6079091F7072817390729F188819981AF
:103940000E94C305FC016C817D81AC01460F571FAD
:10395000288139818091710A9091720AAF8128176C
:10396000390741F47093740A6093730AA093760A3E
:103970004A0109C0AA2339F4F29728F44E155F05CD
:1039800010F45E017A010F5F1F4F202F8091E80233
:10399000081708F4BDCFEFEFEE16EFEFFE0609F4BF
:1039A000C6C0FFEF8F16FFEF9F0691F08091760A59
:1039B000882341F08091730A9091740A0A96E81660
:1039C000F90630F0C7010F968815990508F0AFC0C9
:1039D0008091910A9091920AA091930AB091940AD1
:1039E0000196A11DB11D8093910A9093920AA09314
:1039F000930AB093940AF501C480D58000811181A7
:103A000080914202909143020196909343028093E9
:103A1000420290E080912103882309F491E09923E8
:103A2000B9F50E94DC05EC010C9691F14091FC0780
:103A3000552760E070E00E94303581E38C870E8767
:103A4000812F99278D87C88A8D2D99278F87EA8A9C
:103A50008F2D9927898B80914202909143028C8B04
:103A6000892F99278B8BCE010E94FB05882321F497
:103A70008CE10E94AD010CC08091440290914502FE
:103A800001969093450280934402CE010E94A202C7
:103A90008091710A9091720A0E94AB058F3F81F06C
:103AA000282F33278BE090E0289FF001299FF00D0D
:103AB000389FF00D1124E256FB4F8581877F858367
:103AC000F501808191810E941A06F5018081918122
:103AD0000E94AB058F3F41F0EBE08E9FF001112477
:103AE000E256FB4F12861186F501808191819093F9
:103AF000720A8093710A848195819093740A8093ED
:103B0000730A87818093760AC4018E199F094597AD
:103B100070F080E890E0A0E0B0E080930D02909318
:103B20000E02A0930F02B09310020E94D60F809154
:103B30002D02882369F4FFEF8F16FFEF9F0641F4F3
:103B40008FEFE8168FEFF80619F08FE00E94AD01B5
:103B500010922D02DF91CF911F910F91FF90EF9066
:103B6000DF90CF90BF90AF909F908F90089568E0C6
:103B70000E940507FC0186819927089568E00E944C
:103B80000507FC0184819927982F882725813327F1
:103B9000822B932B08950F931F93CF93DF93EC0108
:103BA0000E94A907CE010E94BE1D8130910509F532
:103BB00080911D028130A1F42FB7F894332782B190
:103BC00094E0892782B92FBFCE010E94B71D9927A3
:103BD00020911C02821B910902972CF0109803C0BF
:103BE00081E080931D02CE010E94B71D80931C02CC
:103BF00010C08230910519F40E94A9070AC00397EA
:103C000041F48FB7F894992722B131E0232722B9E4
:103C10008FBF90912B0380E0992309F481E08823E2
:103C2000E9F520915002322F2C30C0F5992319F478
:103C300000E010E016C08091E602E82FFF27EE0FAB
:103C4000FF1FE956F54F00811181118210829150BA
:103C500090932B038F5F8093E6028C3011F41092C7
:103C6000E6023C30A0F480914F02E82FFF27EE0FD0
:103C7000FF1FE350F84FD183C0838F5F80934F02C3
:103C80008C3011F410924F022F5F209350028091DC
:103C90001B02882321F40E94AD0101C08E01C801DE
:103CA000DF91CF911F910F91089568E00E94050761
:103CB000FC0187819927089568E00E940507FC01AF
:103CC00081819927089568E00E940507FC0186819B
:103CD00099270895DF92EF92FF920F931F93CF934E
:103CE000DF938C01D090D602F0905104EE2432C0C4
:103CF00068E0C8010E940507FC014F2D437055275D
:103D000024813327322F222785819927282B392B8D
:103D1000EA01CC0FDD1FCC0FDD1FC40FD51FC35F21
:103D2000DC4F888199812817390791F4C8010E94D6
:103D3000631E9A81981761F4C8010E945C1E9C81E1
:103D4000981731F4C8010E94551E9B81981721F0E5
:103D5000E394F394ED1461F68E2D9927DF91CF91C2
:103D60001F910F91FF90EF90DF9008956F927F92D7
:103D70008F929F92AF92BF92DF92EF92FF920F933A
:103D80001F93CF93DF933C015B01FC018281882369
:103D900079F57092460B6092450B8281882311F46D
:103DA00010921A02442389F0C5010E9418047C0174
:103DB000C5010E94BE1D8C01C5010E94B71D992737
:103DC0009701A801BC0180E210C0C5010E9418043F
:103DD0007C01C5010E94BE1D8C01C5010E94B71D5A
:103DE00099279701A801BC0186E20E94441BBBC031
:103DF000442309F494C0F301808091808091D6021D
:103E0000843009F046C0C4010E946A1E2091D60287
:103E1000622F0E949B34492F9217D8F5992359F4A9
:103E2000809151049927019664E070E00E94BB34B0
:103E30008093510429C080915104840F912D911DCC
:103E40009C0123703070E901CC0FDD1FCC0FDD1F0A
:103E5000C20FD31F019664E070E00E94BB34FC01E6
:103E6000EE0FFF1FEE0FFF1FE80FF91FC35FDC4FC0
:103E7000E35FFC4F85E0019009928150E1F74F5FCD
:103E80008091D6024817B8F28091D6028150809373
:103E9000D602D090D602E0905104ED0CF12CF11C2A
:103EA000F3E0EF22FF2468E0C4010E940507FC0153
:103EB000848125818701000F111F000F111F0E0D36
:103EC0001F1D035F1C4F9927982F88273327822BAC
:103ED000932BF80191838083C4010E94631EF80133
:103EE0008283C4010E945C1EF8018483C4010E9485
:103EF000551EF8018383D394D092D602C5010E9447
:103F000018047C01C5010E94BE1D8C01C5010E94E0
:103F1000B71D99279701A801BC0182E210C0CB010F
:103F20000E9418047C01C5010E94BE1D8C01C501C0
:103F30000E94B71D99279701A801BC0187E20E9442
:103F4000441BF301808191810E945F07882319F04F
:103F500081E50E94981AC3010E947E07882319F008
:103F600082E50E94981ADF91CF911F910F91FF90E7
:103F7000EF90DF90BF90AF909F908F907F906F9069
:103F80000895AF92BF92CF92DF92EF92FF920F937C
:103F90001F930E94DC067B018C0160910E057091DD
:103FA0000F058091100590911105A0905702B090D7
:103FB0005802C0905902D0905A02A114B104C10411
:103FC000D10409F44EC0EFB7F8942091CC0520FD40
:103FD00036C0A8019701261B370B480B590B2A1531
:103FE0003B054C055D05C8F4A21AB30AC40AD50AFC
:103FF0008091570290915802A0915902B0915A02B3
:10400000821B930BA40BB50B80935702909358021D
:10401000A0935902B0935A0215C081E090E0A0E04D
:10402000B0E08093570290935802A0935902B09346
:104030005A02F1E0AF2EB12CC12CD12C03C02E7F3F
:104040002093CC058E2F99278FBF0E94DC06AB01F1
:10405000BC01E1E0EE2E9601850180E00E94BD06E4
:1040600005C0809116058D7F809316051F910F91D5
:10407000FF90EF90DF90CF90BF90AF900895FF92A8
:104080000F931F93CF93DF93F82E282F33278BE0C6
:1040900090E0289FE001299FD00D389FD00D11247A
:1040A000CB5ADD4F81E090E0998388831A868A811C
:1040B0009B81AC81BD810097A105B105A1F00FB72F
:1040C000F8941127C9010E942B080FBF1A821B8286
:1040D0001C821D821E821F82188619868F2D0E94C7
:1040E000A61B0E94C11FDF91CF911F910F91FF90DE
:1040F0000895AF92BF92CF92DF92EF920F931F93EA
:104100005B016C010E94DC06AB01BC01A1E0EA2E60
:104110009601850184E00E94BD061F910F91EF90EA
:10412000DF90CF90BF90AF9008958F929F92AF9203
:10413000BF92CF92DF92EF92FF920F931F93CF9394
:10414000DF93CDB7DEB722970FB6F894DEBF0FBE70
:10415000CDBF4B015C01CC24DD24EEE0F5E06085B1
:1041600061FF79C12081318142815381E480F580F2
:1041700006811781D501C401821B930BA40BB50BDB
:104180008E159F05A007B10708F465C160FF03C045
:104190006D7F608708C02E0D3F1D401F511F20837B
:1041A00031834283538322E0C21609F4A6C02C1542
:1041B00038F0CC2071F081E0C81609F055C13EC03E
:1041C000E3E0CE1609F4A5C0F4E0CF1609F04CC127
:1041D000A9C020911205309113054091140550910A
:1041E00015058091570290915802A0915902B09103
:1041F0005A020097A105B105F1F082179307A407B1
:10420000B507C9F480915F02882361F42FB7F89451
:10421000332780919D04816080939D042FBF8EE0A1
:104220000E94AD0180E090E00E942B0880E00E9497
:10423000A61B10925F020E94C11F16C180912A0224
:10424000882309F411C180912B02882309F40CC141
:1042500080916A0A882349F580E10E94AD0181E1DD
:104260000E94AD01A0900D02B0900E02C0900F020E
:10427000D090100280917E0390917F03A0918003E3
:10428000B0918103A81AB90ACA0ADB0A81E08093B7
:104290006A0A0E94DC06AB01BC01E1E0EE2E960149
:1042A000850181E00E94BD06DFC080910D029091E2
:1042B0000E02A0910F02B0911002880F991FAA1F41
:1042C000BB1F80930D0290930E02A0930F02B09338
:1042D00010028150904DA740B04060F080E090ED1A
:1042E000A7E0B0E080930D0290930E02A0930F021E
:1042F000B09310020E94D60FB7C080912A02882383
:1043000009F4B2C080912B02882309F4ADC080E18A
:1043100006C0809124028F7E809324028FE00E9449
:10432000AD01A2C00E94340673708070907060501E
:104330007E4F8F4F9F4F0E94792080911A028823D1
:1043400009F092C042E5C42E44E0D42E6FE0C601CD
:104350000E949D078C01E090710AF090720A8FEF25
:10436000E8168FEFF80611F4EE24FF24CE01019633
:104370000E9419078091000290910102F801818347
:10438000892F992780838091250390912603838329
:10439000892F992782838EEF81878AEC8087E58237
:1043A0008F2D99278483128689819A818783892F0B
:1043B000992786838091240281FF48C067E1C60166
:1043C0000E94D20F68E0C6010E940507FC0180919F
:1043D0000002909101028583892F9927848380911F
:1043E000E5028F5F8093E502815086838EEE87839E
:1043F0001182E091450BF091460B309739F1D18253
:10440000C08212828EE18383CF010E940C08882330
:10441000D1F48091240282FF05C084FD03C08FE0A7
:104420000E94AD011092460B1092450B81E08093E3
:104430001A028091250390912603019690932603FA
:104440008093250311C081E10E94981A80E40E94A4
:10445000981A129809C00894C11CD11C399625E0FD
:10446000C216D10409F07BCE87E00E94AD012296EE
:104470000FB6F894DEBF0FBECDBFDF91CF911F9175
:104480000F91FF90EF90DF90CF90BF90AF909F90F3
:104490008F900895AF92BF92CF92DF92EF920F93D9
:1044A0001F935B016C010E94DC06AB01BC01F1E0D3
:1044B000EF2E9601850183E00E94BD061F910F91AA
:1044C000EF90DF90CF90BF90AF900895CF92DF92A2
:1044D000EF92FF920F931F936C017B010E943406B1
:1044E000DC01CB01B6010E94A734E80EF91E0027BB
:1044F0001127C801B7010E944A221F910F91FF9016
:10450000EF90DF90CF900895EF92FF920F931F935B
:10451000CF93DF93EC01E0912502FF27EE0FFF1F01
:10452000E65BF54F008111816623B1F00E9418040B
:104530007C01CE010E94BE1D8C01CE010E94B71DE0
:1045400099279701A801BC0184E20E94441B6CE1F9
:1045500070E08CE190E040C08091240283FF4EC067
:10456000BE0180E00E948A04882309F047C0CE0182
:104570000E9418040E94AB05982F8F3F71F08BE0CA
:10458000989FF0011124E256FB4F82858F5F82874E
:10459000853018F0CF010E94C60780E10E94AD016E
:1045A000F8018381815083838823C9F0CE010E9462
:1045B00018047C01CE010E94BE1D8C01CE010E9418
:1045C000B71D99279701A801BC0185E20E94441BF1
:1045D00067E070E087E090E00E9466223AC00E94A7
:1045E0004407809124028F7E8093240267E070E06C
:1045F00087E090E00E94662240E027C00E944407C6
:10460000809124028F7E8093240267E070E087E02F
:1046100090E00E946622CE010E9418040E94AB0521
:10462000982F8F3F89F08BE0989FF0011124E2567C
:10463000FB4F81858F5F818782858F5F8287853081
:1046400018F0CF010E94C60741E0BE01C8010E94D8
:10465000B61EDF91CF911F910F91FF90EF900895BB
:10466000282FCB01213039F0213028F0223031F0D1
:10467000233089F407C0109284030895642F0E94A8
:10468000842208956958734031F480912C02882364
:1046900011F010922C0208952F923F924F925F9248
:1046A0006F927F928F929F92AF92BF92CF92DF9242
:1046B000EF92FF920F931F93CF93DF93CDB7DEB7A7
:1046C00022970FB6F894DEBF0FBECDBF8FB7F89418
:1046D000282F33278091640A882309F484C4E09149
:1046E000950AFF27EE0FFF1FE852FD4F8080918053
:1046F0002FBFF40182858F3309F03BC4C4010E94AF
:1047000013075C01FC011081F4010081C4010E94C7
:104710001804AC018FB7F8949927209102023091C8
:1047200003028FBF4217530721F04F5F5F4F09F01D
:1047300052C49CE0292E312C280C391C83EF782E92
:10474000700E103709F4C3C0113730F4103641F041
:10475000113609F024C493C0113709F020C48FC268
:10476000F401848525859927782F66273327622BC6
:10477000732B26856784908951886130710521F0FB
:10478000AA24BB24650108C0A0902002B090210299
:10479000C0902202D09023028091DE02882309F487
:1047A000FEC3892F9927AA27BB27EE24F82E092FAD
:1047B0001A2F332744275527522F442733272227E0
:1047C000862D9927AA27BB27DC0199278827282B24
:1047D000392B4A2B5B2B852D9927AA27BB27282B02
:1047E000392B4A2B5B2BE22AF32A042B152BA1141D
:1047F000B104C104D10461F4E114F104010511050F
:1048000091F16130710509F0CAC3FAEF7F0E1BC048
:10481000E114F1040105110529F46130710509F075
:10482000BEC318C0D801C7018A199B09AC09BD09CC
:10483000181619061A061B068CF46130710509F06A
:10484000AEC32AEF720EA8019701672DC10106962B
:104850000E946A0F80E00E943F20A1C3EA14FB047B
:104860000C051D0551F46130710509F098C3809164
:104870005F028F5F80935F0292C3CB0125C080915E
:10488000DE02882309F48BC3F401848525859927EA
:10489000982F88273327822B932B019709F07FC30A
:1048A0008091200290912102A0912202B0912302D6
:1048B0000097A105B10509F472C3F1018081992720
:1048C000982F8827822B932B0E94FC1868C3C40161
:1048D0000E9418048F5F9F4F09F0EAC062E0C40194
:1048E0000E9405078C01C4010E94A4046C010E946F
:1048F000AB058F3F21F0F801618177271DC00E9431
:10490000B309F82EFFEF8F17D1F0B6010E94EA0825
:10491000F80141812F2D33278BE090E0289FF00193
:10492000299FF00D389FF00D1124E256FB4F428372
:10493000F801618177278F2D0E940A09B9C081E4AF
:104940000E94C509182F8F3FA1F0282F33278BE035
:1049500090E0289FF001299FF00D389FF00D112461
:10496000E256FB4F808191810E942A1CB601812F63
:104970009DC090E0F40185A5893C08F091E0992361
:1049800009F496C0C4010E942410982FF50180817B
:10499000803709F08DC0953009F001C365E0C4018E
:1049A0000E940C078C01FC01818122819927982F9C
:1049B00088273327822B932B8F5F9F4F09F47EC06C
:1049C000F801838124819927582F44273327422BCC
:1049D000532B4115510521F18091E802E82EFF2467
:1049E0006091710A7091720AA0E020E030E0EDE27F
:1049F000F3E00EC0808191818617970731F08481A2
:104A000095814817590708F4A1E02F5F3F4F38966A
:104A10002E153F0514F4AA2369F3AA2309F453C001
:104A200010E0E3EAF4E08081992780FF04C083FD71
:104A300002C081FF1F5F3B9625E0E131F20799F745
:104A40001123B1F10E943406DC01CB01612F7727DD
:104A50000E94A73400E010E0E3EAF4E0908199239B
:104A600049F0292F332723FD05C021FD03C08150C4
:104A70008F3F39F00F5F1F4F3B960A30110571F7DA
:104A800017C0202F0F3FA1F033278BE090E0289F25
:104A9000F001299FF00D389FF00D1124E256FB4FD5
:104AA000808191810E942A1CB601802F0E94EA0811
:104AB000C4010E942410853009F071C265E0C40170
:104AC0000E940C078C01C4010E94A4047C0160E4D4
:104AD000C4010E940E0A382E68010894C11CD11C22
:104AE000F801818126010894411C511CF6012181A5
:104AF0009927982F88273327822B932B8F5F9F4FDF
:104B000009F4B5C063E0A62EB12CA00EB11EF801C9
:104B1000838154E0652E712C600E711E24819927CB
:104B2000982F88273327822B932B892B49F5C70190
:104B30000E94AB058F3F09F50E94B3098F3F11F02A
:104B4000B70119C08AE00E94C509182F8F3FA9F04C
:104B5000282F33278BE090E0289FF001299FF00D4C
:104B6000389FF00D1124E256FB4F808191810E9405
:104B70002A1CB701812F0E94EA08C7010E941A0669
:104B8000F501B080F301A080F601D080F201C08071
:104B9000C7010E94C3058C01C7010E94EE09482F7E
:104BA0008A30F1F18B2D9927782F66278A2D992746
:104BB000682B792B8D2D9927382F22278C2D99271B
:104BC000282B392B8091E8024817C9F402331105CC
:104BD00038F5E42FFF27B3E0EE0FFF1FBA95E1F79A
:104BE000E35DFC4FF182E08233832283758364832B
:104BF00081E0868317824F5F4093E80211C0E42F63
:104C0000FF27A3E0EE0FFF1FAA95E1F7E35DFC4F3E
:104C1000F182E082338322837583648381E086831B
:104C200080910C02882319F5C7010E94EE09E82F34
:104C30008091E802E81748F4FF2773E0EE0FFF1FAA
:104C40007A95E1F7E35DFC4F37828091760A8823FD
:104C500011F0332049F08091710A9091720A8E15FB
:104C60009F0529F4332019F080E10E94AD0160E82E
:104C7000C4010E940E0A882309F491C16BC1C401CA
:104C80000E94551EC82EC4010E945C1E082F0F5F93
:104C900068E0C4010E9405075C01FC010183112743
:104CA000C4010E94BE1D7C01C4010E94B71D99274A
:104CB0009801A701BC0181E20E94441BFCE1F715A9
:104CC00008F46DC1C4010E946A1E20E09091D602D2
:104CD000891708F421E0222311F088E22FC12091E6
:104CE0002702822F9927D82E882309F44FC00091DC
:104CF0002502020F0150DA940D3010F4E02F02C0AB
:104D0000E02FED50FF27EE0FFF1FE65BF54F019000
:104D1000F081E02DE080F18068E0C7010E94050786
:104D2000FC0124814581F501848165813327322F7F
:104D300022275527242B352B9927982F882777272B
:104D4000862B972B2817390709F048C1C7010E9405
:104D5000631E182FC4010E94631E181709F03EC17C
:104D6000C7010E945C1E182FC4010E945C1E181708
:104D700009F034C1C7010E94551E182FC4010E94BA
:104D8000551E181709F02AC189E2D8C08091D702B0
:104D9000882399F0C4010E94A407182FFEEECF16B5
:104DA00009F0FDC0682FC4010E949D07412FBC017E
:104DB000C4010E94CB1D4C01F2C080E0209121046F
:104DC000222309F481E0882311F080E1B4C090919E
:104DD000200480E0992309F481E0882311F086E122
:104DE000AAC09923C9F08091B20AE82FFF27EE0FDD
:104DF000FF1FE757F24F00811181118210829150FD
:104E0000909320048F5F8093B20A8C3011F410923B
:104E1000B20A0115110511F483E590C02223C9F0EF
:104E20008091C603E82FFF27EE0FFF1FE252F84FD5
:104E3000C080D180118210822150209321048F5F85
:104E40008093C6038C3011F41092C603C114D104B0
:104E500011F484E573C08FE2F60111928A95E9F7A7
:104E600088E290E0880E991E87E0F40111928A95FD
:104E7000E9F788ED9FEF880E991EF80191828082F4
:104E80008FEF82838EE18383C8010E940C08882300
:104E900009F043C0CE0101960E9419078823A1F5AD
:104EA000F501828123819927982F88273327822B28
:104EB000932B29813A812817390730F180E890E057
:104EC000A0E0B0E080930D0290930E02A0930F0239
:104ED000B09310020E94D60F6CE170E08CE190E07C
:104EE0000E946622C4010E9418047C01C4010E9431
:104EF000BE1D8C01C4010E94B71D99279701A8010E
:104F0000BC0188E10E94441B8091310581FD03C0F2
:104F10008FE00E94AD01460142C0C6010E945F07BA
:104F2000882319F081E50E94981AC8010E947E0723
:104F3000882319F082E50E94981A81E10E94981A4C
:104F40002EC068E0C4010E940507FC0180818078C2
:104F5000803829F580E890E0A0E0B0E080930D0271
:104F600090930E02A0930F02B09310020E94D60FEE
:104F700016C0C4010E941804AC018FB7F894992799
:104F800020910202309103028FBF4217530719F09C
:104F90004F5F5F4F21F48FB7F89499278FBF9FB76A
:104FA000F8948091950AE82FFF27EE0FFF1FE85233
:104FB000FD4F918280828F5F8093950A833010F03D
:104FC0001092950A8091640A81508093640A892F17
:104FD00099278FBF7BCB113711F7B3CF0150DD205D
:104FE00009F089CED3CE2FBF22960FB6F894DEBF3C
:104FF0000FBECDBFDF91CF911F910F91FF90EF902A
:10500000DF90CF90BF90AF909F908F907F906F90E8
:105010005F904F903F902F9008958F929F92AF9204
:10502000BF92CF92DF92EF92FF920F931F93CF9395
:10503000DF93CDB7DEB723970FB6F894DEBF0FBE70
:10504000CDBFE82FFF27ED31F10510F00C940330B0
:10505000EA59FF4FEE0FFF1F0590F491E02D0994E0
:105060008091B10A882309F019C30C9403308FB7DB
:10507000F89420919D0420FD4CC320E04EC3809104
:10508000CB03882311F40C94033010E001E0ABC58E
:1050900020E090915002992309F421E0222311F09D
:1050A0000C94033080911B02882311F00C94033080
:1050B00080914E02E82FFF27EE0FFF1FE350F84FBD
:1050C000C080D180222351F48F5F80934E028C30B8
:1050D00011F410924E02915090935002D6014C91CF
:1050E0008FEFF601868385838EEE83874D5055279B
:1050F000B60180E00E944302882329F481E0809376
:105100001B020C940330C6010E9418047C01C601E6
:105110000E94BE1D8C01C6010E94B71D99279701F0
:10512000A801BC0181E40E94441B0C9403302FB7FA
:10513000F8943327809128038093070282E08093BC
:105140001E022FBF80910702882309F05CC780915F
:10515000290390912A030E948517A82EBB24AA2018
:1051600009F451C780E00E949410C0902903D090A8
:105170002A03C6010E941307F0900B02F3E0FF150B
:1051800008F441C7EF2DFF27EE0FFF1FE357FB4F3A
:10519000008111810C151D0509F035C7118210829F
:1051A0000E944D184A2DB8018F2D39C18091860378
:1051B00010928603853009F0B9C0B1E0FB2EF09261
:1051C0002A0280912B02882311F00E9434068091DC
:1051D000240284608093240290E080912702882337
:1051E00009F491E0992319F48FE00E94AD018091B8
:1051F000570290915802A0915902B0915A0200971B
:10520000A105B10529F5109257021092580210928B
:10521000590210925A0210925B0210925C02109294
:105220005D0210925E0210925F0280E00E94A61B57
:105230000FB7F894112780E090E00E942B080FBF71
:105240000E94C11F80E00E943F20F092A60203C08E
:1052500080E00E943F2011E01093DE028091240242
:105260008260809324028FB7F894992720910202DC
:10527000309103028FBF3093F7072093F607809198
:105280002B028823B9F410932B0280E890E0A0E071
:10529000B0E080930D0290930E02A0930F02B093A2
:1052A00010020E94D60F40E050E260E070E082E021
:1052B0000E94DD07809100029091010264EF71E08D
:1052C0000E94A734892B21F52091710A3091720A2E
:1052D0001093D7028091F6079091F7079093720A86
:1052E0008093710A1092740A1092730A2F5F3F4FD5
:1052F00019F48FE00E94AD012091730A3091740A75
:105300006091710A7091720A40E081E30E94DF1A95
:1053100010922603109225030E94340688279927AD
:105320007170807090700E9479206DC6863031F463
:1053300010922A02809124028B7FEFC2873009F4F9
:1053400062C6809386035FC62FB7F8943327809197
:1053500024038F5F809324032FBF40918603413045
:1053600081F58091A3078F5F8093A307863048F56E
:105370002091D8073091D907809187038823C1F401
:1053800090E08091CA05882309F491E0992381F087
:105390003093830320938203409387038BED91E145
:1053A0000E94AE040E9496041092B70A83E004C0E3
:1053B00085E08093B70A82E0809386030E9471178C
:1053C00022C6109286030E947117C090B70A0091FE
:1053D000D8071091D907F80182858F3309F013C6D9
:1053E00080E00E949410C8010E941307D0900B0225
:1053F000F3E0FD1508F407C6ED2DFF27EE0FFF1FA4
:10540000E357FB4FE080F180E016F10609F0FBC5A1
:10541000118210820E944D184C2DB7018D2D0E94D3
:105420003023F1C50E944C23EEC50E9434062FB7ED
:10543000F89433277093DB076093DA072FBFE3C537
:1054400080912203882361F52091860A3091870A92
:105450004091880A5091890AEFB7F894FF2760912C
:10546000DF027091E0028091E1029091E202E0900F
:10547000B30AF090B40A0091B50A1091B60A6E0D05
:105480007F1D801F911FEFBF2093860A3093870AEC
:105490004093880A5093890A109222030E94D008F0
:1054A0000E94DC0643C00E94DC065B016C018FB7E2
:1054B000F89499271092BC038FBFEFEFEE2EEFEF19
:1054C000FE2EEFEF0E2FEFE71E2F60E0EEE0F5E08F
:1054D000808581FF1CC080819181A281B381A6015A
:1054E0009501281B390B4A0B5B0BDA01C90124819A
:1054F000358146815781281B390B4A0B5B0B2E15D2
:105500003F05400751071CF479018A0161E0399693
:1055100035E0EB33F307E1F6662309F474C51E1496
:105520001F04100611062CF0C601B5010E9495203B
:105530006AC5E092860AF092870A0093880A10935F
:10554000890A81E080932203A8019701C601B50171
:105550000E94D00858C58FB7F894992710929A05E1
:10556000109299051092480B1092470B109262020C
:105570001092610210928A0410928904EEC42FB72F
:10558000F89433278091D10380930A0282E08093BC
:105590001F022FBF80910A02882309F034C5209A88
:1055A000289A8091490B882309F075C08EEF91E00D
:1055B000019701960197E1F716982F9886E090E001
:1055C000019701960197E1F7169A289883EC8EBD12
:1055D0000DB407FEFDCF8EB51EBC0DB407FEFDCF8A
:1055E0008EB5289A289882EC8EBD0DB407FEFDCFAB
:1055F0008EB588E08EBD0DB407FEFDCF8EB5289A1E
:105600008EEF91E0019701960197E1F728988EECD3
:105610008EBD0DB407FEFDCF8EB58DE48EBD0DB4ED
:1056200007FEFDCF8EB5289A289889EC8EBD0DB463
:1056300007FEFDCF8EB587EC8EBD0DB407FEFDCF06
:105640008EB5289A289885EC8EBD0DB407FEFDCF47
:105650008EB580E88EBD0DB407FEFDCF8EB5289ABD
:1056600010920B048BE080932703289888EC8EBD62
:105670000DB407FEFDCF8EB58BE68EBD0DB407FED3
:10568000FDCF8EB5289A2F9A81E08093490B80E058
:105690000E943E10B8C40E949719B5C471E0D72E7D
:1056A000EE24FF240DE814E09091B10A8D2D89239A
:1056B00079F0D8016D917C9111971D921C928D2DDE
:1056C000809598239093B10A43E08E2D0E94302359
:1056D0000894E11CF11C0E5F1F4FB8E0EB16F104BB
:1056E00009F491C4DD0CE0CF10910B02E12FFF27EC
:1056F000EE0FFF1FE357FB4FE080F1801182108215
:105700000E944D1841E0B701812F89CE0E94FB070E
:105710007AC42E7F20939D0421E099278FBF2223F6
:1057200009F471C481E090E00E94FC188EE054C43A
:105730008091240284FD08C090E080912702882394
:1057400009F491E0992311F080E51CC08091D70203
:10575000882359F420E08091710A9091720A8F5F3A
:105760009F4F09F021E0222331F0CE0101960E94E3
:105770001907882351F060E177E280E090E00E9411
:105780004A2282E10E94981A3EC4E0912502FF2736
:10579000EE0FFF1FE65BF54FE080F180D701ED9142
:1057A000FC91B0808090710A9090720ACF010E94A3
:1057B0006A1E20E09091D602891708F421E0222386
:1057C000C9F08AE20E94981A0E944407F70180817A
:1057D00091810E945F07882319F081E50E94981A41
:1057E000C7010E947E07882319F082E50E94981A5B
:1057F0008FE0F2C38091D702D701CD90DC9088234F
:1058000081F168E0C6010E940507FC01B780A09104
:10581000D203B091D303F6018FE201900D92815033
:10582000E1F70091D2031091D303C8010E94A407AD
:10583000D82EFEEEBF1651F4682FC8010E949D07B6
:105840004D2DBC01C8010E94CB1D8C011093D303C8
:105850000093D20360E0D7018D919C910E94842235
:10586000D2C309811A8168E0C6010E940507FC01C4
:105870000383012F1127028368E0F7018081918162
:105880000E940507FC0180818F738083D7014D91B1
:105890005C91DA011196FD018181FA01218199273C
:1058A000982F882733272062822B932B8183892F7F
:1058B0009927FD01818380912402886080932402CE
:1058C00080FF0FC068E0D7018D919C910E94050771
:1058D000FC01808180648083809124028E7F80938C
:1058E0002402F70100811181F8018682892D992710
:1058F0008783C8010E941307FC0181E78083F3EFCF
:10590000BF0E4B2D5527B80182E00E94AB18992796
:10591000882331F48091240280618093240273C330
:10592000823009F070C36CE1D7018D919C910E9487
:10593000D20F8FE00E94AD0187E124CF0E946C1C42
:1059400062C380912C02882309F05DC3E091CD03EE
:10595000F091CE0310828091710A9091720AE091C9
:10596000CD03F091CE038283892F99278183809183
:10597000D702882329F08091730A9091740A20C07D
:105980008091710A9091720A0091730A1091740AC1
:10599000BFEF8F3F9B0781F4E091CD03F091CE03E1
:1059A0000483812F99278383E091CD03F091CE0367
:1059B0008081806880830CC00E94C305800F911F86
:1059C000E091CD03F091CE038483892F99278383BF
:1059D000E091CD03F091CE032381848161814281E6
:1059E0003327322F22279927282B392B7727762FF9
:1059F00066275527642B752B40E083E30E94DF1A4E
:105A000062E089E893E00E9405076C0168E089E89C
:105A100093E00E940C0775E0A72EB12CA80EB91ECA
:105A2000FF2440E000E010E06BE0862E912C53E074
:105A3000E52E8091290299270196800F911F6AE037
:105A400070E00E94BB349C019927889DD001899DFC
:105A5000B00D989DB00D1124A256BB4FFD0185815C
:105A6000992780FF15C081FF13C08D919C911197DC
:105A7000FE9CA00111244A0D5B1DFA018183892F30
:105A800099278083FD018681FA018283F394422F56
:105A90000930110529F00F5F1F4FF6E0FF1548F69A
:105AA00040932902809128028F5F809328028150C1
:105AB000F60181838F2D8F7080838FEF80938F030A
:105AC0008093900389E893E00E941307FC0180E72C
:105AD000808383E0F89EC0011124895F482F5527F9
