S01700006275696C642F697269732F6D61696E2E7372656343
S11300000C9486010C94A5010C94A5010C94A501F3
S11300100C94A5010C94A5010C94A5010C94A501C4
S11300200C94A5010C94A5010C94A5010C94A501B4
S11300300C94A5010C940F100C94A5010C94A70A20
S11300400C947C1A0C94B21A0C945E0B0C94690BED
S11300500C94740B0C94A5010C94A5010C94A501AB
S11300600C94BB0A0C94E10D0C94A5010C94640E41
S11300700C94A5010C94A20B0C94A5010C94BB0F39
S11300800C949A0F0C94A50F0C94B00F0C94CE0FF3
S11300900C947D0F0C94A5010C948F0F0C94A50166
S11300A00C94A5010C94A5010C94A5010C94A50134
S11300B00C94A5010C94A5010C94A5010C94A50124
S11300C00C94A5010C94A5010C94A50133277E275B
S11300D0A4277528E128E428EF282229162A7A295A
S11300E08E291B27432A572A2227692A6F2B4A2C39
S11300F0522C722C2A27C92CDD2CBF2DE72DE92D7B
S1130100F42D342E562E00002110422063308440FA
S1130110A550C660E770088129914AA16BB18CC1D2
S1130120ADD1CEE1EFF13112100273325222B55249
S11301309442F772D662399318837BB35AA3BDD322
S11301409CC3FFF3DEE36224433420040114E66419
S1130150C774A44485546AA54BB528850995EEE572
S1130160CFF5ACC58DD55336722611163006D77629
S1130170F6669556B4465BB77AA719973887DFF7C2
S1130180FEE79DD7BCC7C448E5588668A7784008F1
S1130190611802282338CCC9EDD98EE9AFF9488912
S11301A069990AA92BB9F55AD44AB77A966A711A89
S11301B0500A333A122AFDDBDCCBBFFB9EEB799B62
S11301C0588B3BBB1AABA66C877CE44CC55C222CD9
S11301D0033C600C411CAEED8FFDECCDCDDD2AADB2
S11301E00BBD688D499D977EB66ED55EF44E133E69
S11301F0322E511E700E9FFFBEEFDDDFFCCF1BBF02
S11302003AAF599F788F8891A981CAB1EBA10CD1DB
S11302102DC14EF16FE18010A100C230E3200450E3
S1130220254046706760B9839893FBA3DAB33DC356
S11302301CD37FE35EF3B1029012F322D232354233
S1130240145277625672EAB5CBA5A89589856EF5E6
S11302504FE52CD50DC5E234C324A0148104667483
S1130260476424540544DBA7FAB79987B8975FE736
S11302707EF71DC73CD7D326F2369106B0165766D3
S11302807676154634564CD96DC90EF92FE9C899BE
S1130290E9898AB9ABA94458654806782768C01823
S11302A0E1088238A3287DCB5CDB3FEB1EFBF98B96
S11302B0D89BBBAB9ABB754A545A376A167AF10A73
S11302C0D01AB32A923A2EFD0FED6CDD4DCDAABDA6
S11302D08BADE89DC98D267C076C645C454CA23CC3
S11302E0832CE01CC10C1FEF3EFF5DCF7CDF9BAF76
S11302F0BABFD98FF89F176E367E554E745E932E13
S1130300B23ED10EF01E00020E060C0411241FBED4
S1130310CFEFD1E2DEBFCDBF12E0A0E0B2E0E8E96A
S1130320F7E600E00BBF02C007900D92AA31B107B7
S1130330D9F71DE0AAE1B2E001C01D92AD3AB107C0
S1130340E1F70E94C72E0C94CB330C9400008FB7B6
S1130350F894992708958FBF0895282F9FB7F8948C
S1130360E82FFF27EF50FD4F80818F3F81F4E0910C
S1130370880DE21771F40BC02093900A04C0FF2784
S1130380EF50FD4F20832093880D20E007C025E027
S113039005C08091900A8F3F91F7EECF892F99275E
S11303A08FBF822F992708951F931FB7F8948091C8
S11303B04E0B882341F486E10E94AD01882319F491
S11303C081E080934E0B812F99278FBF1F91089551
S11303D0382FFA01422F2D3118F082E090E0089571
S11303E06683872F992785833387218780913702F6
S11303F090913802892B19F085E090E008952FB789
S1130400F894332785E080933A0210923B02F093EC
S11304103602E093350282E090E0909338028093B4
S1130420370210923D0210923C02445F409339021D
S11304302FBF8FB7F894282F33278091D9078A309C
S113044011F42FBF19C02FBF9FB7F8948091DB031D
S1130450882311F020E006C081E08093DB03109232
S1130460DC0321E0892F99278FBF222329F00E94E2
S1130470D40180E090E0089510923802109237027F
S113048081E090E00895CF93DF93582FDB01823011
S113049018F081E090E038C0C82FDD27CC0FDD1FB5
S11304A0C457D54F88819981892B19F085E090E054
S11304B02BC0798368839B012B5F3F4FF9014483F1
S11304C080911202823018F480E090E01DC0F9019E
S11304D08681FB0165817727762F6627F9012181C3
S11304E03327622B732B50931202242FAD010E94E9
S11304F0E8019927282F882329F082E080931202AB
S113050019821882822F9927DF91CF9108958091C3
S11305105302E82FFF27EE0FFF1FE25FFB4F01900E
S1130520F081E02D20915502222351F08F5F8093BA
S113053053028A3011F41092530221502093550231
S1130540CF010895AC01209123032A3018F081E0F3
S113055090E008958091A50D682F620F712D711D93
S1130560FB016A30710508F03A97EE0FFF1FEC5655
S1130570FD4F518340832F5F2093230380E090E05D
S113058008951F93CF93DF938091120299270196C8
S113059062E070E00E944F33682F8093120210E0F3
S11305A0462F5527FA01EE0FFF1FE457F54FA081A0
S11305B0B181109799F0E62FE695E695E695FF2729
S11305C0E353FC4F808199279A012770307002C051
S11305D0959587952A95E2F780FF0DC0CA0101968B
S11305E062E070E00E944F33682F1F5F1230C1F643
S11305F0109312021AC0609312026230B0F4FD012B
S1130600359624813327ED016D817727762F662770
S113061081819927682B792BAD0186810E94E8019D
S1130620882319F085E10E94AD01DF91CF911F91DC
S11306300895882319F08CB5806402C08CB58F7B33
S11306408CBD0895882319F08CB5806802C08CB5E0
S11306508F778CBD08950F931F9380E00E94190338
S11306600FB7F8941127229A2398219A209A8CB5CF
S113067080618CBD80E00E9422038CB5877F8CBD95
S11306808CB58B7F8CBD81E00E9419038DB5816090
S11306908DBD8CB58C7F8CBD0FBF1F910F910895BC
S11306A00F931F93CF93DF93182F0FB7F894809174
S11306B02102882311F40E942B03802F99278FBFD6
S11306C08FB7F894C82FDD272C2F8091210288231F
S11306D061F481E0809321021093D3038AE00E94A5
S11306E0AD01CFBF80E090E021C0E12FFF27EF52A2
S11306F0FC4F80818F3F89F4E0910902E11789F46E
S11307000CC01093080204C0FF27EF52FC4F108363
S11307101093090280E090E002C085E090E02FBFD2
S113072005C0809108028F3F79F7EBCFDF91CF911D
S11307301F910F910895FB0121E030E002C0220FC8
S1130740331F8A95E2F784A5822B84A708958FB777
S1130750F894209197043091980440919904509111
S11307609A04E0918400F0918500B09B08C02F5F4B
S11307703F4F4F4F5F4FE0918400F09185009927E0
S11307808FBFC901772766279F0144275527622B0E
S1130790732B842B952B0895FC0182819927982F24
S11307A0882721813327822B932B25E096958795E3
S11307B02A95E1F7817090700895FC0140E050E0C3
S11307C082819927982F882721813327822B932B85
S11307D087749C7C8154984811F441E050E0CA012C
S11307E00895FC0187819927982F8827268133272C
S11307F0822B932B0895AC01EFB7F89420918400D9
S113080030918500C901841B950B039686179707C1
S113081020F0B9016D5F7F4F02C0640F751F611531
S1130820710511F461E070E06150704070938900CB
S11308306093880082E086BB80916F008260809321
S11308406F008E2F99278FBF089520E030E0FC01C0
S113085081818770823011F421E030E0C90108956C
S1130860CF93DF93EC010E94CC038823D1F0CE0117
S11308700E94DD038823A9F0CE010E94F1032FB763
S1130880F894332740910202509103022FBF20E0D5
S11308908417950709F021E081E02827822F992702
S11308A002C080E090E0DF91CF910895FB0121E048
S11308B030E002C0220F331F8A95E2F784A5822319
S11308C09927089521E02093D8032093CC05209103
S11308D0840030918500BC01C9010E94FB03089586
S11308E0FC0181859927982F882720853327822B1F
S11308F0932B089580918803823031F481E08093B2
S1130900880383E00E94AD010895EF92FF920F9354
S11309101F937C018FB7F89499270091DC071091FD
S1130920DD070F5E1E4F1093DD070093DC070151B6
S113093011408FBF85E00E94AD01C801B7010E943C
S11309403B338A5D9E4F1F910F91FF90EF90089566
S11309508091D9078A3021F480918A03843021F070
S113096081E080933202089588E10E94AD011092E3
S1130970320208952FB7F89433278093C600E0EC31
S1130980F0E08081806480832FBF0895FC016115AD
S1130990710519F481E090E008958091D603909157
S11309A0D703892B19F085E090E0089570937C0AB1
S11309B060937B0AF093D703E093D6031092BB03B2
S11309C01092BA0381E08093BC038091C0008064DC
S11309D08093C0008091C10080648093C1008081B5
S11309E021E030E03093BB032093BA030E94BA04A1
S11309F080E090E008958FB7F894992720914302FE
S1130A002E7F209343022EE720930E038FBF61E0D5
S1130A1070E08EE093E00E94C60499270895982F11
S1130A20969596959695EFE0F5E0E90FF11D8770A0
S1130A3021E030E002C0220F331F8A95E2F7808163
S1130A408223992708958091B10A882311F0813077
S1130A5011F458E008C0882329F0813019F02FE1FF
S1130A6050E002C050E02EE1622F7FB7F8948091ED
S1130A7025038E7F8093250380917C00982F9F719E
S1130A80829586958695837019F080E090E00CC07D
S1130A9040E03327892F99272817390709F041E0C7
S1130AA081E04827842F9927982F9170990F80917E
S1130AB025038178262F2F71422F440F440F892B51
S1130AC0842B80932503332720937C00583059F5D9
S1130AD08091910A9091920A21E08638920718F049
S1130AE087E090E01FC0833C910518F086E090E019
S1130AF019C08136910518F085E090E013C0803369
S1130B00910518F084E090E00DC08831910518F04B
S1130B1083E090E007C00C9718F082E090E002C0F8
S1130B2080E090E0582F5770887D852B886D992739
S1130B3080937A00872F99278FBF089520912303EC
S1130B40222319F440E050E016C08091A50DE82F4F
S1130B50FF27EE0FFF1FEC56FD4F4081518111829C
S1130B6010822150209323038F5F8093A50D8A3038
S1130B7011F41092A50DCA010895AC0120915502FB
S1130B802A3018F081E090E0089580915402E82F13
S1130B90FF27EE0FFF1FE25FFB4F518340838F5F00
S1130BA0809354028A3011F4109254022F5F2093E0
S1130BB0550280E090E008956D3118F080E090E0F7
S1130BC008950C9608956E5F0E94DC05009709F065
S1130BD0029608950B960895FC01655F608308955D
S1130BE01F93982F1FB7F89480912002823091F5BB
S1130BF080910702891771F58091050220E030E0A9
S1130C008F3F11F421E030E0232BE9F49FEF909320
S1130C1007028F3F19F42FEF30E00DC0282F332740
S1130C20F901E25DFC4F8081809305028F3F11F44E
S1130C3090930602908320932A0381E080932002FC
S1130C400E94AD0105C08FEF80930702109220022D
S1130C5021E001C020E0812F99278FBF90E021304F
S1130C6009F491E081E09827892F99271F9108952D
S1130C702F923F924F925F926F927F928F929F92A8
S1130C80AF92BF92CF92DF92EF92FF920F931F9396
S1130C90CF93DF93CDB7DEB729970FB6F894DEBFB5
S1130CA00FBECDBF6FB76983F8942090C303309013
S1130CB0C4034090C5035090C60366247724882457
S1130CC0EEE4AE2E73E8B72ECC24DD24EE24FF240C
S1130CD000E010E0222D332D442D552D662D772D67
S1130CE0882D90E00E948F312A833B834C835D835F
S1130CF06E837F8388879987822E932EA42EB52EA8
S1130D002401350100E20E948D32A22EB32EC42E9E
S1130D10D52EA301920156954795379527952A0D0F
S1130D203B1D4C1D5D1D57FF05C05F772F5F3F4F77
S1130D304F4F5F4F2093C3033093C4034093C503C5
S1130D405093C603E9818E2F99278FBFCA01B90139
S1130D5029960FB6F894DEBF0FBECDBFDF91CF91B9
S1130D601F910F91FF90EF90DF90CF90BF90AF90C5
S1130D709F908F907F906F905F904F903F902F90B7
S1130D800895EF920F931F93AE2D99E0899FF00180
S1130D901124E05FFA4F4083518362837383048399
S1130DA0158326833783A17080858E7F8A2B82608A
S1130DB0808787E00E94AD011F910F91EF90089505
S1130DC07FB7F8946091B2002091EC023091ED026B
S1130DD04091EE025091EF02B99B11C08091B30093
S1130DE09091B200280F311D411D511D2F5F3F4FBF
S1130DF04F4F5F4F290F311D411D511D04C0260F58
S1130E00311D411D511D872F99278FBFCA01B9017B
S1130E100895FC01892B81F08091730A9091740AE2
S1130E208F5F9F4F49F08091D902813011F4118274
S1130E30108280E090E0089581E090E00895809130
S1130E402702E82FFF27EE0FFF1FE45BF54F019009
S1130E50F081E02D20912902222351F08F5F8093AD
S1130E6027028D3011F41092270221502093290279
S1130E70CF010895AC01209123042C3018F081E0B7
S1130E8090E008958091C803682F620F712D711D41
S1130E90FB016C30710508F03C97EE0FFF1FE05228
S1130EA0F84F518340832F5F2093230480E090E028
S1130EB00895AC01209122042C3018F081E090E0D8
S1130EC008958091B40A682F620F712D711DFB0182
S1130ED06C30710508F03C97EE0FFF1FE557F24F99
S1130EE0518340832F5F2093220480E090E0089593
S1130EF0675F0E94DC05009709F009960895FC01DC
S1130F0080818651992708958FB7F894992722B143
S1130F1032E0232722B98FBF0895AC01E0EAF4E060
S1130F2080E090E09C01858180FF05C080819181F3
S1130F308417950741F0C90101963B968A309105C3
S1130F4089F72FEF30E0C9010895FC01278130852E
S1130F50C90143E0880F991F4A95E1F7820F931F57
S1130F60860F971F6AE070E00E943B3370876783A7
S1130F700895FC0161859285662329F48AE0989F8F
S1130F80B001112409C077278AE0989FC001112479
S1130F900E944F3311861286CF010E94A50708953F
S1130FA06E5F0E94EC050895AF92BF92CF92DF92DC
S1130FB0EF92FF920F931F93F82E5A016B010E9438
S1130FC0E006AB01BC01EE24960185018F2D0E9441
S1130FD0C1061F910F91FF90EF90DF90CF90BF90CB
S1130FE0AF90089580913C058D7F80933C0540919E
S1130FF0FA075091FB076091FC077091FD0784E0AC
S11310000E94D4070895AC013091EA028FEF4F3F5C
S1131010580711F020E012C0832F99270895E22F7A
S1131020FF2763E0EE0FFF1F6A95E1F7E15DFC4FD8
S1131030808191818417950719F02F5F231779F721
S1131040822F99270895CF93DF93EC018091210596
S113105081FF03C08D7F80932105CE010E94030888
S1131060282F8A3019F480E090E04DC08091EA0284
S11310702817D9F4E22FFF2773E0EE0FFF1F7A95AC
S1131080E1F7E15DFC4F80910002909101029183B0
S11310908083D383C28381E0868381E090E095835B
S11310A0848317822F5F2093EA028091000290913B
S11310B001020E948D078F3F81F0282F33278BE098
S11310C090E0289FF001299FF00D389FF00D112426
S11310D0E056FB4F858188608583D093740AC09362
S11310E0730A81E08093770A1092780A80912C0227
S11310F0882339F080912D02882319F080E10E9421
S1131100AD0181E090E0DF91CF9108950F931F939B
S1131110CF93DF93182F8FB7F894282F3327022FFC
S113112080913102882379F581E080933102109314
S113113017082FBF2FB7F894332780917A0080685F
S113114080937A002FBF8FB7F894C82FDD279C2F88
S1131150809111028230A9F480913102813021F40E
S113116082E10E94AD0109C0823059F480911708D0
S11311708093110283E080933102CFBF80E090E03E
S113118025C09FBFFBCF80911708811711F42FBF93
S1131190F5CF812F0E940F05882319F085E090E098
S11311A014C0E12FE695E695E695FF27E15FFA4F37
S11311B0177081E090E002C0880F991F1A95E2F73A
S11311C02081282B208380E090E00FBFDF91CF9116
S11311D01F910F910895AC01209129022D3018F030
S11311E081E090E0089580912802E82FFF27EE0F18
S11311F0FF1FE45BF54F518340838F5F8093280288
S11312008D3011F4109228022F5F2093290280E080
S113121090E008954FB7F8945527FC01B3E0F69594
S1131220E795BA95E1F7E253FA4F8770907021E0A1
S113123030E002C0220F331F8A95E2F78081822BAF
S113124080834FBF0895DF92EF92FF920F931F9315
S11312508FB7F894282F3327D22E9091B300809122
S1131260B20047B3981711F041FF02C02FBF71C0FD
S11312708091BE038823E1F10E94E006E090E10240
S1131280F090E2020091E3021091E4022091B50A89
S11312903091B60A4091B70A5091B80A6E197F0985
S11312A0800B910B621773078407950720F0109247
S11312B0BE0371E01EC02E0D3F1D401F511F8091C3
S11312C0EC029091ED02A091EE02B091EF02281B86
S11312D0390B4A0B5B0B273E31054105510540F4A0
S11312E0822F223010F070E005C070E082E002C06E
S11312F070E086EE682F61508091B60083FDFCCFCC
S11313008091B200681709F46F5F2091EC0230916C
S1131310ED024091EE025091EF02DA01C90101960B
S1131320A11DB11D860F911DA11DB11D821793072B
S1131330A407B50710F4622F60958091B60083FD71
S1131340FCCF6093B300DFBE772319F086E00E94E0
S1131350AD011F910F91FF90EF90DF900895AFB70B
S1131360F894BB27E1E0E093BE036093E10270933D
S1131370E2028093E3029093E4022093B50A30934F
S1131380B60A4093B70A5093B80AAFBF0E94230924
S113139008959BE0899FF0011124E056FB4F71836F
S11313A0608312821382148285E0858316821086FC
S11313B017820895882349F0682F772784EC99E0F1
S11313C00E944F336B3F710510F06FEF7FEFCB013D
S11313D00895CF92DF92FF920F931F93CF93DF93E1
S11313E0282F062F482F55278BE090E0489FE001D7
S11313F0499FD00D589FD00D1124C056DB4F8D81CD
S113140082FF02C08B7F8D838A81302F381B0A8331
S11314108B818F5F8B83332379F08C81830F815091
S11314208C833B3048F068817981822F0E94C909FE
S11314300A8381E08B836EC08BE090E0489FF001CB
S1131440499FF00D589FF00D1124E056FB4F838106
S11314502481820F912D911D03971CF4333008F4DD
S113146059C0C080D180C0EAD4E0888199818C15AC
S11314709D0509F049C08D81282F332720FF44C0E2
S11314806B81FC80F60E21FD16C0772788279927EB
S11314902AEF30E040E050E00E9410332F2D332734
S11314A0442755270E946233DA01C9012E830E9422
S11314B0DA0998878F838D8182608D830E8189E01C
S11314C0089F800111246B817727882799272AEFA9
S11314D030E040E050E00E9410332F2D33274427A2
S11314E055270E946233C801820F911D6AE070E0A3
S11314F00E944F33CB016E831B821C820E94DA0947
S1131500BC01CE010E94A5072B9685E0CE30D807FA
S113151009F0ABCFDF91CF911F910F91FF90DF9036
S1131520CF9008951F93CF93DF93162FC0E0D0E0A0
S11315306AE10E94E305FC0180818123811711F493
S1131540C1E0D0E0CE01DF91CF911F9108951F92A9
S11315500F920FB60F9211248F938091B000809355
S1131560B0008091B60081FDFCCF8F910F900FBE2B
S11315700F901F9018951F920F920FB60F9211247F
S11315800F931F932F933F934F935F936F937F9387
S11315908F939F93AF93BF93CF93DF93EF93FF9377
S11315A02EB5E0919B05F0919C05309739F0809120
S11315B08B0490918C04E80FF91F208380918B0495
S11315C090918C04019690938C0480938B0480E01A
S11315D00E942203C0918B04D0918C042091630259
S11315E030916402C217D30708F042C00091490B3E
S11315F010914A0B40919B0550919C05CE010A968F
S11316002817390708F4C901DA01AC0FBD1FF80126
S1131610EC0FFD1F9C012150304015C00115110530
S113162031F080818EBD0DB407FEFDCF04C01EBC19
S11316300DB407FEFDCF8EB54115510509F08C930D
S1131640219611963196C217D30740F381E00E9488
S113165022030115110531F00C0F1D1FF8018081C3
S11316608EBD01C01EBCD0938C04C0938B0411C0EA
S113167010929C0510929B0510924A0B1092490BF4
S1131680109264021092630210928C0410928B04E4
S11316908EB5FF91EF91DF91CF91BF91AF919F9163
S11316A08F917F916F915F914F913F912F911F91F6
S11316B00F910F900FBE0F901F90189578941F9262
S11316C00F920FB60F9211240F900FBE0F901F9020
S11316D0189578941F920F920FB60F9211240F90C1
S11316E00FBE0F901F90189578941F920F920FB60B
S11316F00F9211242F933F938F939F93AF93BF9394
S11317002FB7F89433278091970490919804A0916F
S11317109904B0919A040196A11DB11D8093970478
S113172090939804A0939904B0939A042FBFBF9107
S1131730AF919F918F913F912F910F900FBE0F907A
S11317401F9018951F920F920FB60F9211242F938A
S11317503F934F935F936F937F938F939F93AF9335
S1131760BF93EF93FF934091780050917900789460
S11317708FB7F894992720912503322F369531702D
S113178021708FBF222329F580917A00877F80936F
S11317907A0080910C04813021F0823009F043C03A
S11317A00AC0332351F05093D8074093D70783E1FD
S11317B00E94AD0138C0332349F48DE790E00197CE
S11317C001960197E1F70E9423052DC010920C04A5
S11317D02AC08FB7F89499278FBF2FB7F89433276F
S11317E080917A00582F5770482F4072987D942B1F
S11317F0952B8074977B982B90619F77892F9927DD
S113180080937A00887D842B852B87738061992748
S113181080937A00887D842B852B877B8069992728
S113182080937A002FBFFF91EF91BF91AF919F9169
S11318308F917F916F915F914F913F912F910F9075
S11318400FBE0F901F901895E6E0F1E06927660F30
S1131850F11DE60FF11DC895982F802D3196C8957E
S113186090250895982F80913E02882389F5992325
S113187079F531E030933E028091130280933F0268
S113188020913302822F81708093E90280911802A3
S11318909091190290934102809340028091340206
S11318A08093420232273170267EE32FFF27EE0F0A
S11318B0FF1FEC5EFD4F808191819093190280930C
S11318C01802232B209333028BE10E94AD0108956B
S11318D08091330280FF02C08B7F01C08D7F809393
S11318E0330208950F931F93082F162F80918A03B4
S11318F08130D9F0813038F0823009F44AC0833025
S113190009F028C159C0002309F458C110926E0A85
S113191010926D0A1092DF071092870A1092BD038D
S113192010929C0410929B0439C1002309F046C113
S113193080919B0490919C040E94240C90939C049D
S113194080939B0482E080938A031093870A143463
S113195009F000C125C18695869503C080913302A4
S11319608695817009F0F6C080913302992311F0B5
S1131970846001C082608093330280913302877E49
S1131980886080933302109234028FEF80931302A5
S113199015C1002309F0DEC06093BD0380919B0450
S11319A090919C040E94240C90939C0480939B042B
S11319B083E080938A0302C18091DF078F3F09F49B
S11319C0C9C0002309F461C0823008F4C3C0E091A7
S11319D06D0AEE2309F4EBC04E2F4150E42FFF278C
S11319E0E359F54F82819927382F2227442311F494
S11319F0E2E002C0E42FE150FF27E359F54F828172
S1131A009927282B392B80919B0490919C042817AB
S1131A10390709F09FC080E00E94320C3091BD0369
S1131A208091830420918404982F9F5F963008F05E
S1131A3090E0921771F0E82FFF27ED57FB4F3283A8
S1131A408F5F80938304863010F0109283040E9489
S1131A50D40110926E0A10926D0A94E090938A0356
S1131A601092DF071092870A1092BD0310929C0413
S1131A7010929B04809143028D7F80934302809156
S1131A803202882309F49AC084C0823008F44EC01C
S1131A90E0916E0AFF27E359F54F8281482F5527BD
S1131AA0342F20913302822F8695869586958370F4
S1131AB099278130910519F00297F9F40EC0277E19
S1131AC0206120933302442311F485E001C080E0B7
S1131AD0809334023093130210C0809134028F3209
S1131AE060F4E0911802F0911902E80FF11D4083AF
S1131AF0809134028F5F8093340280916E0AE82FC4
S1131B00FF27E359F54F62818F5F80936E0A83301C
S1131B1010F010926E0A772780919B0490919C0498
S1131B200E94240C90939C0480939B0480916D0AE2
S1131B30E82FFF27E359F54F12838F5F80936D0AD7
S1131B40833010F010926D0A8091DF078F5F8093CD
S1131B50DF0734C010926E0A10926D0A14E01093DD
S1131B608A031092DF071092870A1092BD03109225
S1131B709C0410929B04809143028D7F80934302C6
S1131B8081E00E94320C80913202882329F0109364
S1131B908A030E94A80412C0002381F081E009CFC7
S1131BA080913302982F917080FDD5CED7CE80914D
S1131BB0710A9927382F222742E01CCF1F910F91D9
S1131BC008951F920F920FB60F9211242F933F93F3
S1131BD04F935F936F937F938F939F93AF93BF9331
S1131BE0EF93FF938091C00087FF42C06091C600CD
S1131BF0E0919D04F0919E04309719F180914C0B73
S1131C0090914D0BE80FF91F6083019690934D0B53
S1131C1080934C0B2091A60D3091A70D821793074A
S1131C2038F110929E0410929D048091A60783308F
S1131C30F9F08091C1008F778093C1001092A607BC
S1131C4017C06E3719F460E081E010C08091430240
S1131C506D3721F48260809343020AC081FF05C07E
S1131C608D7F8093430280E2682780E00E94720C9B
S1131C70FF91EF91BF91AF919F918F917F916F9160
S1131C805F914F913F912F910F900FBE0F901F9036
S1131C901895982F8D57823068F4809143028160A3
S1131CA08093430280E289278093DE078DE7809347
S1131CB00E0302C090930E0361E070E08EE093E0A7
S1131CC00E94C6049927089578941F920F920FB624
S1131CD00F921124FF920F931F932F933F934F93CF
S1131CE05F936F937F938F939F93AF93BF93CF93A0
S1131CF0DF93EF93FF932091BA033091BB0380915C
S1131D007B0A90917C0A2817390780F4E091D60366
S1131D10F091D703E20FF31F80812F5F3F4F309381
S1131D20BB032093BA030E94BA04D1C01092D70314
S1131D301092D6031092BC038091C1008F7B8093D4
S1131D40C100FFB6F8948091430280FF0EC08E7FDD
S1131D50809343028091DE0780930E0361E070E07C
S1131D608EE093E00E94C604AFC08091D90784300E
S1131D7009F48CC0853040F4823021F18330B8F509
S1131D80813009F09CC00DC0863009F48DC08630C6
S1131D9008F483C0873009F48EC0883009F08FC0FE
S1131DA091C08091D2030E94490E082F83E0809352
S1131DB0D9076091D2038091A30D9091A40D0E9444
S1131DC0240C10C08091980A0E94490E082F83E0C9
S1131DD08093D9076091980A8091A30D9091A40DE6
S1131DE00E94240C9093A40D8093A30D66C0E091EF
S1131DF00E05FF27EE0FFF1FE652FC4F80810E9465
S1131E00490E082F10910E05C12FDD27FE01EE0F9C
S1131E10FF1FE652FC4F60818091A30D9091A40DA9
S1131E200E94240C9093A40D8093A30D2091CE03C3
S1131E302F5F2093CE03113039F580913A02E0915F
S1131E403502F0913602E80FF11DE0818F5F809337
S1131E503A0290913902981730F482E08093DB03C0
S1131E6040E050E002C04E2F5527DE01AA0FBB1FF1
S1131E70FD01E752FC4F8081823031F02F3F21F089
S1131E80A652BC4F4C9319C084E012C08091A30D9C
S1131E900E94490E082F85E00BC08091A40D0E947A
S1131EA0490E082F86E004C00E94FB04082F87E037
S1131EB08093D90702C088E003C0002329F089E099
S1131EC08093D9070E94D4018F2D99278FBFFF914A
S1131ED0EF91DF91CF91BF91AF919F918F917F91BE
S1131EE06F915F914F913F912F911F910F91FF90AF
S1131EF00F900FBE0F901F9018951F920F920FB660
S1131F000F9211248F938091C80087FF02C08091A3
S1131F10CE008F910F900FBE0F901F90189578945C
S1131F201F920F920FB60F9211240F900FBE0F90B5
S1131F301F90189578941F920F920FB60F92112448
S1131F400F900FBE0F901F90189578941F920F92C8
S1131F500FB60F9211240F900FBE0F901F9018957B
S1131F6078941F920F920FB60F9211240F900FBE08
S1131F700F901F90189578941F920F920FB60F929E
S1131F8011248F939F9380919600909197009F9135
S1131F908F910F900FBE0F901F90189578941F92F9
S1131FA00F920FB60F9211242F933F938F939F9309
S1131FB02FB7F89433278091C9039091CA030196EF
S1131FC09093CA038093C9032FBF9F918F913F9130
S1131FD02F910F900FBE0F901F901895EF92FF92C4
S1131FE00F931F9379018A01643018F044E050E0A4
S1131FF002C0462F5527BC018AEF97E00E94BB33ED
S1132000E0922202F092230200932402109325020C
S11320100E94F2071F910F91FF90EF9008951F9275
S11320200F920FB60F9211242F933F934F935F9308
S11320306F937F938F939F93AF93BF93EF93FF938C
S11320408091B0008093B0008091B60081FDFCCFF8
S11320508091B30099270196AA27BB272091EC020F
S11320603091ED024091EE025091EF02280F391F9A
S11320704A1F5B1F2093EC023093ED024093EE0263
S11320805093EF0278940E942309FF91EF91BF913E
S1132090AF919F918F917F916F915F914F913F91FC
S11320A02F910F900FBE0F901F901895AF92BF9273
S11320B0CF92DF92EF92FF920F931F9380910D02C4
S11320C090910E02A0910F02B0911002B695A795BF
S11320D0979587958093800390938103A0938203BF
S11320E0B09383030E943806E0908003F09081034C
S11320F00091820310918303A80197010E94623327
S11321005B016C01AE0CBF1CC01ED11EA0928003EB
S1132110B0928103C0928203D092830310926C0A1E
S11321200E94E006AB01BC01E1E0EE2E96018501C0
S113213081E00E94C1061F910F91FF90EF90DF9004
S1132140CF90BF90AF900895AC0110921B022091E4
S11321502D032C30A0F48091E802682F620F712DBA
S1132160711DFB016C30710508F03C97EE0FFF1FE9
S1132170E756F54F518340832F5F20932D0390E062
S113218080915202882309F491E0992319F480E0A4
S11321900E94AD0108958FB7F894282F3327922F0A
S11321A080910A02882331F480912102823011F453
S11321B02FBF13C09FBF8FB7F894282F3327809168
S11321C02102882369F482E08093210210920A029A
S11321D02FBF0E942B03209A289A81E090E0089553
S11321E02FBF80E00E94500380E090E008950F9399
S11321F01F93FC0100810D50112762E00E94DC0551
S1132200FC01208133272F703070C901880F991F7A
S1132210820F931F081B0250802F99271F910F9143
S11322200895EF92FF920F931F93CF93DF93982F0C
S11322308FB7F894E82E80913102833009F045C0BD
S113224080911102891709F040C080910F058823FD
S113225009F04AC03EC0EF2DE695E695E695FF27C6
S11322604F2D5527E15FFA4F9A012770307081E0B6
S113227090E002C0880F991F2A95E2F7809520818B
S113228028232083C093300211C02196C230D10587
S113229011F4C0E0D0E0FC2E8C2F0E940F0588239F
S11322A0D1F6C017D10789F74FEF50E040931708D4
S11322B08FEF8093110281E08093310282E10E94CA
S11322C0AD01EFBE80E090E015C0EFBE81E090E08C
S11322D011C082E0809311021092310280917A0041
S11322E08F7780937A00EDCF80913002082F1127E9
S11322F0E801CBCFDF91CF911F910F91FF90EF9029
S113230008950F931F93982F1FB7F894809121027B
S1132310823099F580910A02891779F58091080233
S113232020E030E08F3F11F421E030E0232BF1F482
S11323309FEF90930A028F3F19F42FEF30E00DC006
S1132340282F3327F901EF52FC4F80818093080234
S11323508F3F11F49093090290832093D30381E07B
S1132360809321028AE00E94AD0105C08FEF809323
S11323700A021092210201E001C000E0812F992796
S11323808FBF1FB7F89480912102882311F40E9413
S11323901903812F99278FBF90E0013009F491E050
S11323A081E09827892F99271F910F910895809391
S11323B0B90A882311F484E001C081E08093880382
S11323C083E00E94AD0108953F924F925F926F9215
S11323D07F928F929F92AF92BF92CF92DF92EF92B1
S11323E0FF920F931F93CF93DF932C01809162028E
S11323F0882309F07AC180914B0B853009F075C1AF
S11324000E94CB10882309F470C18091720A88233A
S113241009F06BC1B20182E00E945604882311F4D2
S113242090E003C0F20196A59F7080910D04981767
S113243081F090930D04289885EC8EBD0DB407FEB1
S1132440FDCF8EB590689EBD0DB407FEFDCF8EB551
S1132450289AC2010E94DD03882301F1289886E8A6
S11324608EBD0DB407FEFDCF8EB51EBC0DB407FEA8
S1132470FDCF8EB5289A99278F7190702091C7034C
S113248040917F03240F312D311D43E0359527956D
S11324904A95E1F7281739070CF427C1289882ECEC
S11324A08EBD0DB407FEFDCF8EB589E08EBD0DB493
S11324B007FEFDCF8EB5289A0E94A7037B018C01ED
S11324C0B20184E00E945604882319F4E0E0F0E0AD
S11324D006C0D2018C918550F201E80FF11D2898B5
S11324E081E88EBD0DB407FEFDCF8EB51EBC0DB4C4
S11324F007FEFDCF8EB5289A8F71893079F0289820
S113250082EC8EBD0DB407FEFDCF8EB586E08EBD88
S11325100DB407FEFDCF8EB5289AE7C08FB7F894A7
S113252099272F9A20918400309185008FBF2F988E
S1132530289880E68EBDD2019C910DB407FEFDCF94
S11325408EB59EBD8EEF382E390EB6E0B31510F061
S1132550632D01C067E0A2014F5F5F4FDA01962F40
S11325607D910DB407FEFDCF8EB57EBD9150C1F7B0
S11325706150EA01C60FD11D6F5F21962E193F09E4
S11325802E553F4F3901882477FC8094982C6E0C8B
S11325907F1C801E911E309719F4932D961B42C008
S11325A02081E1808281A3809927AA27BB27BA2FA3
S11325B0A92F982F8827332744275527522F44279C
S11325C033272227FF24002711278701FF24EE2425
S11325D02E293F29402B512BBB24CC24DD242A292E
S11325E03B294C295D29822B932BA42BB52B8619CF
S11325F09709A809B9098383292F3A2F4B2F552707
S113260022839D014427552721838B2F9927AA27AD
S1132610BB278083C2CF28810DB407FEFDCF21964E
S11326208EB52EBD9150B8F70DB407FEFDCF8EB513
S1132630289A289882EC8EBD0DB407FEFDCF8EB586
S113264086E08EBD0DB407FEFDCF8EB5289A309777
S1132650D1F12081E1808281A3809927AA27BB2719
S1132660BA2FA92F982F8827332744275527522F6D
S1132670442733272227FF24002711278701FF241B
S1132680EE242E293F29402B512BBB24CC24DD24BE
S11326902A293B294C295D29822B932BA42BB52B6A
S11326A0860D971DA81DB91D8383292F3A2F4B2F03
S11326B0552722839D014427552721838B2F992752
S11326C0AA27BB278083B20181E00E949B03F20109
S11326D060A671A682A693A686E080934B0B84E045
S11326E08093620280E090E002C085E090E0DF9198
S11326F0CF911F910F91FF90EF90DF90CF90BF90FB
S1132700AF909F908F907F906F905F904F903F908D
S11327100895AF92BF92CF92DF92EF92FF920F9300
S11327201F93CF93DF938091720A882309F4F5C035
S11327300E94CB10882309F4F0C08FB7F89499272E
S1132740C091CB03D091CC038FBF1092720A28980A
S11327508FE88EBD0DB407FEFDCF8EB51EBC0DB443
S113276007FEFDCF8EB5289A982F809162028330A0
S113277011F0873031F485E080934B0B88E080932F
S11327806202A92EBB24A2FE63C08091620286303D
S113279019F41092620203C0882309F059C09430DE
S11327A009F045C0289886E88EBD0DB407FEFDCF1C
S11327B08EB51EBC0DB407FEFDCFFEB4289A2FE1E2
S11327C0F22280917F03982F969596953F2D391B81
S11327D0830F80937F030091E5021091E602F801D4
S11327E084A58B7F84A7B80183E00E949B03F80132
S11327F0F6A60E94A7037B018C01C090E502D0904D
S1132800E602B60181E00E949B03CE19DF092797F7
S1132810CE01AA2797FDA095BA2F8E0D9F1DA01F4C
S1132820B11FF60180A791A7A2A7B3A70EC0E0919C
S1132830E502F091E60284A5877F84A7E091E50292
S1132840F091E60284A58D7F84A785E080936202DF
S1132850A3FE63C080916202843009F041C085E028
S113286080934B0B109262028091EB02833019F437
S11328701092EB0252C00091890D10918A0DC8018B
S11328800E94CC03882321F1C8010E94DD03882320
S1132890F9F0C8010E94F1038F5F9F4FC9F090E0E7
S11328A08091CC05882309F491E0992389F012E002
S11328B01093D80381E08093CC058091840090919B
S11328C0850069E973E00E94FB031093EB0225C0C5
S11328D01092EB021092890380E00E94D7111DC070
S11328E08530D9F42091C703289886E88EBD0DB4AD
S11328F007FEFDCF8EB51EBC0DB407FEFDCF8EB511
S1132900289A8F71922F96959695891B280F20935C
S1132910C70389E08093620208C090916202992300
S113292009F4D6C2993009F003C2289880E28EBD1A
S11329300DB407FEFDCF8EB51EBC0DB407FEFDCF52
S11329408EB5482F5527433008F487C3842F992721
S11329508A970CF082C31EBCE091E502F091E60276
S11329604083042F0250073010F4102F01C017E0E9
S11329709F012F5F3F4F912FF901EE24FF240DB4E7
S113298007FEFDCF8EB51EBC80838191A701482729
S1132990042E4295407F4025052E542F42954F70BA
S11329A00426469554274527440F440F440F4025D9
S11329B07A01915021F71150E901C10FD11D1F5F18
S11329C021968091E5029091E6020E9425048823D5
S11329D049F020E030E08091EB02823081F421E084
S11329E030E00DC08FB7F894282F332790E0809102
S11329F0660A833008F491E02FBF292F3327232B55
S1132A0009F45FC0902F911B1AC00DB407FEFDCFCF
S1132A108EB51EBC88838991F701E8270E2EE295B6
S1132A20E07FE0250F2EFE2FE295EF700E26E6954F
S1132A30FE27EF27EE0FEE0FEE0FE0257F019150FA
S1132A4020F70DB407FEFDCF8EB51EBC97012827D5
S1132A50022E2295207F2025032E322F22952F70BF
S1132A600226269532272327220F220F220F202504
S1132A700DB407FEFDCF8EB51EBC2827022E22956D
S1132A80207F2025032E322F22952F700226269593
S1132A9032272327220F220F220F20250DB407FEF1
S1132AA0FDCF8EB5E091E502F091E60285A7289A64
S1132AB015E010934B0B10926202232B09F004C211
S1132AC005C00DB407FEFDCF8EB5C7C2C091E502A7
S1132AD0D091E602CE010E9425049091EB02882356
S1132AE021F1923009F01FC19B81E091890DF09191
S1132AF08A0D8381981709F016C189818770823005
S1132B0009F011C180916F008D7F80936F00109246
S1132B10CC05BF0180E00E949B031092EB0210924F
S1132B20890380E00E94D711FEC09923C1F4CE012D
S1132B300E943004882399F01093240482E0809347
S1132B402504109226048B818093270484E294E068
S1132B500E94E411882319F483E08093EB0200912E
S1132B60840010918500CE010E943004882311F066
S1132B70045E1C4F10938E0400938D048091840096
S1132B80909185009801281B390B12161306A4F4A2
S1132B9080918903882369F490E08091CC0588238F
S1132BA009F491E0992341F0C9010E94620480E88C
S1132BB001C0806880938903CE010E947004AC0137
S1132BC08091F002282F3327F901EE0FFF1FE358FD
S1132BD0F54F808191810091CD058417950749F4C3
S1132BE0F901ED57F24F8081801709F468C0802FF6
S1132BF01BC0EE24FF2480E090E0ADE7BAE0E3E8F8
S1132C00FDE0BF01182F9C018D919C9111978417B1
S1132C10950789F42093F0029091CD05FB01808102
S1132C20891709F44CC0892F8F5F8093CD05808369
S1132C30E0E8EE2E2AC08081902F981BE91610F44C
S1132C40E92EF22E1F5FC90101966F5F7F4F129626
S1132C50319685309105B1F61530B9F4F092F00251
S1132C60AF2DBB27FD01EE0FFF1FE358F54F518336
S1132C7040838091CD058F5F8093CD05FD01ED5795
S1132C80F24F8083A855B24F1C929091CD05892FA5
S1132C908F778F3781F4EEE7EE1568F4E3E8FDE013
S1132CA0292F207880818F678913208331963DE016
S1132CB0E838F307B9F78091F002282F33279B8176
S1132CC0A22FBB27FD01E855F24F808180FF07C08A
S1132CD0FD01E959F54F8081981729F102C08160FF
S1132CE08083A959B54F9C93FFB6F8948091660AE6
S1132CF08330B0F4E091970AE80FE33008F0E35032
S1132D00FF27EE0FFF1FE652FD4F00811181D18393
S1132D10C0838F5F8093660A84E00E94AD01E8015E
S1132D208F2D99278FBFD093E602C093E502C3C0CD
S1132D30892F8150833008F09CC081508230E0F4A8
S1132D4030914B0B3130C1F420E08091CC058823C5
S1132D5009F421E0222381F02F9883E08093D803A3
S1132D603093CC0580918400909185006BE273E0F0
S1132D700E94FB0382E068C0933009F042C0809156
S1132D804B0B833009F097C00E94CB108823C9F104
S1132D9028988FE88EBD0DB407FEFDCF8EB51EBCFE
S1132DA00DB407FEFDCF8EB5289A80918100806412
S1132DB08093810080E286BB80916F008062809363
S1132DC06F0090912903289888EC8EBD0DB407FEFE
S1132DD0FDCF8EB590669EBD0DB407FEFDCF8EB5BA
S1132DE0289A289882EC8EBD0DB407FEFDCF8EB5CF
S1132DF086E08EBD0DB407FEFDCF8EB5289A84E023
S1132E0023C0809162028150823000F580914B0B87
S1132E108530E1F40E94CB108823C1F0289882EC1D
S1132E208EBD0DB407FEFDCF8EB583E08EBD0DB40F
S1132E3007FEFDCF8EB5289A80916F008F7D809319
S1132E406F001092720A83E080934B0B90916202A0
S1132E50913041F480914B0B8330B1F52F9A9093CC
S1132E604B0B25C0923039F580914B0B833061F5C3
S1132E701EC0973001F50E94CB108823E1F0909199
S1132E802903289888EC8EBD0DB407FEFDCF8EB5BE
S1132E9090669EBD0DB407FEFDCF8EB5289A809135
S1132EA04B0B853021F484E080934B0B04C088E005
S1132EB08093620204C080916202883029F41092E7
S1132EC0620282E00E94AD0180916202882309F5CA
S1132ED080914B0B8530D1F48091720A8823B1F430
S1132EE08091EB02882391F480918903882371F403
S1132EF090E08091CC05882309F491E0992331F086
S1132F000E947A0480916202882319F488E00E9466
S1132F10AD018091CC05823009F092C01092CC05AD
S1132F20F090D80342E0F41609F466C053E0F516B5
S1132F3009F46AC081E0F81609F082C020918D047A
S1132F4030918E0480918400909185004091890392
S1132F50403829F4109289030E947A0471C08901CF
S1132F60081B190B47FF03C010161106ECF0C091A3
S1132F708403D09185038091EB028823A9F4CE01C8
S1132F800E94E4119927882351F48CA58E7F8CA785
S1132F90F092EB02D0938A0DC093890D29C0992732
S1132FA0F82E882329F102C055E0F52E20918903DB
S1132FB0822F99278F77019759F4207822602093E4
S1132FC0890380E198E00E9485040E94620438C06D
S1132FD027FF0AC0101611063CF480E88093890389
S1132FE0C8010E94620402C0109289038F2D09C097
S1132FF083E08093890324C01092EB02109289032A
S113300080E00E94D7111CC080914B0B823019F4D0
S1133010F0924B0B13C080916202863079F41092C7
S11330206202289881E88EBD0DB407FEFDCF8EB5EF
S11330301EBC0DB407FEFDCF8EB5289A0E94681AF7
S11330408FB7F894282F332780912603813061F0BD
S113305081E0809326032FBF66CB289A85E0809376
S11330604B0B1092620230CF109226032FBFDF91D8
S1133070CF911F910F91FF90EF90DF90CF90BF9071
S1133080AF9008958FB7F894282F332780912603A3
S1133090815080932603803811F02FBF089581E07A
S11330A0809326032FBF0E94891308951F93FC0168
S11330B08FE38287809156028F5F809356028383C9
S11330C02FB7F8943327809126038F5F80932603CC
S11330D02FBF80918803882311F015E00DC0F09371
S11330E0DB07E093DA0781E0809388031092A50759
S11330F083E00E94AD0110E00E944218812F9927BD
S11331001F910895EF92FF920F931F93CF93DF9334
S1133110082F7B01EA01122F2D3118F086E090E090
S113312086C0CA010E94DD03882351F4898199274E
S113313080739070816498688983892F99278A8322
S11331401E5F612FCE010E94EC052FB7F894332740
S113315080910202909103022FBF8887892F9927BB
S113316089872FB7F8943327809104022FBF9927BA
S11331708C831D82CE010E94EA05FC010083EE824D
S11331808F2D99278F838FB7F894282F3327809119
S11331902002882371F482E08093200210920702B7
S11331A02FBFCE010E9456189927182F882399F013
S11331B00FC02FBFD0932C03C0932B038FB7F89469
S11331C0C82FDD272C2F80912002882391F406C07C
S11331D080E00E94F005812F992729C081E0809327
S11331E0200210922A030E94AD01CFBF80E090E03C
S11331F01EC080912E038F3F89F4E0910602EE23D6
S113320069F010C01092050204C0FF27E25DFC4F74
S113321010821092060280E090E002C085E090E007
S11332202FBF05C0809105028F3F79F7EBCFDF9167
S1133230CF911F910F91FF90EF900895EF92FF921D
S11332400F931F93CF93DF9380910B0299270196DD
S113325064E070E00E944F33682F80930B0200E01B
S1133260462F5527FA01EE0FFF1FE157FB4FC08190
S1133270D181209799F0E62FE695E695E695FF270C
S1133280ED54F54F808199279A012770307002C060
S1133290959587952A95E2F780FF0DC0CA0101969E
S11332A064E070E00E944F33682F0F5F0430C1F672
S11332B000930B021AC060930B026430B0F40881CF
S11332C00D501127CE010E94F1037C01CE010E9412
S11332D0EA05FC01202FAE01B70180810E9482180B
S11332E0882319F08CE00E94AD01DF91CF911F91EA
S11332F00F91FF90EF900895CF92DF92EF92FF929B
S11333000F931F93CF93DF93D82E7B01C42E83E0BA
S11333108D1518F481E090E037C0CD2DDD27CC0F5A
S1133320DD1FC157DB4F88819981892B19F085E016
S113333090E02AC0798368836C2D6E5FC7010E9478
S1133340EC0580910B02843018F480E090E01CC0FE
S1133350C7010E94EA05FC0100811127C7010E94F0
S1133360F103D0920B022C2DA701BC01802F0E94E7
S113337082189927282F882329F084E080930B0250
S113338019821882822F9927DF91CF911F910F9173
S1133390FF90EF90DF90CF900895CF92DF92EF925D
S11333A0FF920F931F93CF93DF936C018091E00200
S11333B0882309F484C080918603882309F07FC0A0
S11333C066E085E692E00E94DC05EC01892B09F4B5
S11333D076C081E080938603C9828D2D99278883E6
S11333E081E0C816D10429F020E030E040E050E04C
S11333F008C020912202309123024091240250916E
S11334002502FE0132962383BB27A52F942F832FF9
S11334108283CA01AA27BB278183252F3327442708
S113342055272A83E280FF2400271127102F0F2D10
S1133430FE2CEE24522F4427332722279927AA272C
S1133440BB27DC0199278827282B392B4A2B5B2B98
S113345083819927AA27BB27282B392B4A2B5B2B3F
S1133460E22AF32A042B152BE114F10401051105BA
S113347011F410E011C081E0C816D10421F414E065
S11334806AEF77E003C010E060E070E0412F552759
S1133490CE0106960E94BB338FEF80936B0280931C
S11334A06C0285E692E00E94EA05FC0180E68083D6
S11334B01A5F412F65E672E080E00E947C19DF917B
S11334C0CF911F910F91FF90EF90DF90CF900895CF
S11334D08FB7F894282F332780912603882329F067
S11334E08068809326032FBF089581E0809326038C
S11334F02FBF0E948913089578941F920F920FB6DC
S11335000F9211242F933F934F935F936F937F9365
S11335108F939F93AF93BF93EF93FF93E6E8F0E00D
S113352080819181208131818FB7F89499273093DC
S1133530CC032093CB0321E02093720A8FBF0E9417
S1133540681AFF91EF91BF91AF919F918F917F91F5
S11335506F915F914F913F912F910F900FBE0F90FC
S11335601F90189578941F920F920FB60F92112402
S11335702F933F934F935F936F937F938F939F9377
S1133580AF93BF93EF93FF9380916F008D7F8093F0
S11335906F0078949FB7F8948091CC05813019F42A
S11335A082E08093CC05892F99278FBF0E94681AE7
S11335B0FF91EF91BF91AF919F918F917F916F9107
S11335C05F914F913F912F910F900FBE0F901F90DD
S11335D018951F938FB7F8949927209126032F5F8E
S11335E0209326038FBF80918803882311F015E070
S11335F023C0809162028823E1F480914B0B8130D7
S113360049F490E08091CC05882309F491E0992352
S113361081F005C0853019F489E090E00CC083E0A6
S1133620809362020E94681A85E08093880310E008
S113363003C085E090E0182F0E944218812F99273B
S11336401F910895AF92BF92CF92DF92EF92FF92B3
S11336500F931F93282F33278BE090E0289FF001CE
S1133660299FF00D389FF00D1124E95AFD4F8281F6
S11336709381A481B5810097A105B10569F080818A
S11336809181880F991F918380838150944020F009
S113369080E094E0918380838BE090E0289F500148
S11336A0299FB00C389FB00C112487E592E0A80E36
S11336B0B91EF50186819781A085B18582839383A4
S11336C0A483B583C080D180EE24FF2469E0CC0CB0
S11336D0DD1CEE1CFF1C6A95D1F70E943806DC0144
S11336E0CB01F50100811181B801762F6627770F90
S11336F00E943B33AA27BB278C0D9D1DAE1DBF1D09
S1133700222733274AE0000F111F221F331F4A9537
S1133710D1F7081B190B2A0B3B0B06831783208751
S113372031872281338144815581280F391F4A1FF3
S11337305B1F22833383448355831F910F91FF9032
S1133740EF90DF90CF90BF90AF900895BF92CF924B
S1133750DF92EF92FF920F931F93CF93DF93B82ED4
S11337608B017A016901809144029091450201968E
S1133770909345028093440290E080912303882330
S113378009F491E09923C1F50E949E05EC010C9681
S113379099F14091FE07552760E070E00E94C43320
S11337A0BC860E87812F99278D87E88A8F2D9927CC
S11337B08F87CA8A8D2D9927898B80914402909195
S11337C045028C8B892F99278B8BCE010E94BD05D6
S11337D0882331F48CE10E94AD0180E090E00EC0BA
S11337E080914602909147020196909347028093FC
S11337F04602CE010E94A20281E090E0DF91CF91C7
S11338001F910F91FF90EF90DF90CF90BF9008959C
S11338101F93CF93DF93182F809144029091450218
S11338200196909345028093440290E08091230393
S1133830882309F491E0992361F50E949E05EC0127
S11338400C9639F14091FE07552760E070E00E9424
S1133850C4331C8780914402909145028C8B892F3C
S113386099278B8BCE010E94BD05882331F48CE10E
S11338700E94AD0180E090E00EC0809146029091DC
S1133880470201969093470280934602CE010E941C
S1133890A20281E090E0DF91CF911F9108951F93E0
S11338A0CF93DF93162FE0915302FF27EE0FFF1FF4
S11338B0E25FFB4FC081D181209719F0C817D90767
S11338C051F080914E0290914F02019690934F02D5
S11338D080934E021AC00E948702CE010E94A20267
S11338E0112351F480914C0290914D0201969093D2
S11338F04D0280934C0209C080914A0290914B0280
S1133900019690934B0280934A021092B20A90E07F
S113391080915502882309F491E0992319F48CE1EC
S11339200E94AD01DF91CF911F910895282FCB0103
S1133930222319F0213041F404C0642F0E94A41002
S11339400895642F0E944F1C0895AF92BF92CF92A6
S1133950DF92EF92FF920F931F93CF93DF93B82ED2
S11339607B01A42E69018091440290914502019645
S1133970909345028093440290E08091230388232E
S113398009F491E09923C9F50E949E05EC018C018C
S1133990045F1F4F91F14091FE07552760E070E0EE
S11339A0C8010E94C433BC86EE868F2D99278D876B
S11339B0F801A382C98A8D2D9927888B80914402AE
S11339C0909145028C8B892F99278B8BCE010E9475
S11339D0BD05882331F48CE10E94AD0180E090E0C4
S11339E00EC080914602909147020196909347023F
S11339F080934602CE010E94A20281E090E0DF9112
S1133A00CF911F910F91FF90EF90DF90CF90BF90D7
S1133A10AF90089569E00E94DC05FC018781992735
S1133A20089569E00E94DC05FC01818199270895CD
S1133A3069E00E94DC05FC0186819927089569E00C
S1133A400E94DC05FC0184819927982F8827258111
S1133A503327822B932B089569E00E94DC05FC0137
S1133A6080859927089569E00E94DC05FC01868120
S1133A70992708950F931F93CF93DF93EC018B0144
S1133A800E942C1DF8018087CE010E941F1D8130E9
S1133A90910509F580911F028130A1F42FB7F894A4
S1133AA0332782B194E0892782B92FBFCE010E94C7
S1133AB0331D992720911E02821B910902972CF035
S1133AC0109803C081E080931F02CE010E94331D31
S1133AD080931E0210C08230910519F40E9484075D
S1133AE00AC0039741F48FB7F894992722B131E0C3
S1133AF0232722B98FBF90912D0380E0992309F4E5
S1133B0081E08823E9F520915202322F2C30C0F550
S1133B10992319F400E010E016C08091E802E82F20
S1133B20FF27EE0FFF1FE756F54F00811181118229
S1133B301082915090932D038F5F8093E8028C3014
S1133B4011F41092E8023C30A0F480915102E82F65
S1133B50FF27EE0FFF1FE150F84FD183C0838F5F23
S1133B60809351028C3011F4109251022F5F2093F4
S1133B70520280911B02882321F40E94AD0101C0EE
S1133B808E01C801DF91CF911F910F910895DF92AB
S1133B90EF92FF920F931F93CF93DF938C01D090FA
S1133BA0D802F0905304EE2432C069E0C8010E94A8
S1133BB0DC05FC014F2D4370552724813327322F18
S1133BC0222785819927282B392BEA01CC0FDD1F69
S1133BD0CC0FDD1FC40FD51FC15FDC4F88819981D5
S1133BE02817390791F4C8010E94181D9A81981763
S1133BF061F4C8010E94111D9C81981731F4C80119
S1133C000E940A1D9B81981721F0E394F394ED140C
S1133C1061F68E2D9927DF91CF911F910F91FF901F
S1133C20EF90DF9008956F927F928F929F92AF9260
S1133C30BF92DF92EF92FF920F931F93CF93DF9384
S1133C403C015B01042FFC0182818823B9F5709249
S1133C50480B6092470B8281882351F480910002C3
S1133C6090910102892B11F00E94840710921A028C
S1133C70002389F0C5010E94F1037C01C5010E9463
S1133C801F1D8C01C5010E94331D99279701A801AE
S1133C90BC0180E210C0C5010E94F1037C01C50192
S1133CA00E941F1D8C01C5010E94331D9927970195
S1133CB0A801BC0186E20E94A61BBCC0442309F4EF
S1133CC095C0F301808091808091D802843009F0FE
S1133CD046C0C4010E94C71D2091D802622F0E94D1
S1133CE02F33492F9217D8F5992359F4809153040F
S1133CF09927019664E070E00E944F338093530447
S1133D0029C080915304840F912D911D9C0123702F
S1133D103070E901CC0FDD1FCC0FDD1FC20FD31FA4
S1133D20019664E070E00E944F33FC01EE0FFF1F28
S1133D30EE0FFF1FE80FF91FC15FDC4FE15FFC4F7F
S1133D4085E0019009928150E1F74F5F8091D8029C
S1133D504817B8F28091D80281508093D802D0904D
S1133D60D802009153040D0D112D111D0370107014
S1133D7069E0C4010E94DC05FC017801EE0CFF1C23
S1133D80EE0CFF1CE00EF11E8FE093E0E80EF91E2E
S1133D9084819927982F882725813327822B932B79
S1133DA0F70191838083C4010E94181DF701828367
S1133DB0C4010E94111DF7018483C4010E940A1DDD
S1133DC0F7018383D394D092D802C5010E94F103F2
S1133DD07C01C5010E941F1D8C01C5010E94331D79
S1133DE099279701A801BC0182E210C0CB010E946F
S1133DF0F1037C01C5010E941F1D8C01C5010E94B5
S1133E00331D99279701A801BC0187E20E94A61BD4
S1133E10F301808191810E943A07882319F081E59A
S1133E200E94081CC3010E945907882319F082E5E7
S1133E300E94081CDF91CF911F910F91FF90EF908A
S1133E40DF90BF90AF909F908F907F906F90089578
S1133E50AF92BF92CF92DF92EF920F931F935B01C9
S1133E606C010E94E006AB01BC01E1E0EE2E96017C
S1133E70850183E00E94C1061F910F91EF90DF90AE
S1133E80CF90BF90AF900895CF92DF92EF92FF92C0
S1133E900F931F936C017B010E943806DC01CB0158
S1133EA0B6010E943B33E80EF91E00271127C80112
S1133EB0B7010E94281F1F910F91FF90EF90DF9090
S1133EC0CF900895EF92FF920F931F93CF93DF93B8
S1133ED0EC01E0912702FF27EE0FFF1FE45BF54F93
S1133EE0008111816623B1F00E94F1037C01CE01AF
S1133EF00E941F1D8C01CE010E94331D992797013A
S1133F00A801BC0184E20E94A61B6CE170E08CE174
S1133F1090E040C08091260283FF4EC0BE0180E045
S1133F200E945604882309F047C0CE010E94F10381
S1133F300E948D07982F8F3F71F08BE0989FF001BE
S1133F401124E056FB4F82858F5F8287853018F0FD
S1133F50CF010E94B90781E10E94AD01F80183817C
S1133F60815083838823C9F0CE010E94F1037C0130
S1133F70CE010E941F1D8C01CE010E94331D992782
S1133F809701A801BC0185E20E94A61B67E070E0CE
S1133F9087E090E00E94441F3AC00E941F0780916E
S1133FA026028F7E8093260267E070E087E090E02F
S1133FB00E94441F40E027C00E941F0780912602F0
S1133FC08F7E8093260267E070E087E090E00E9495
S1133FD0441FCE010E94F1030E948D07982F8F3F4A
S1133FE089F08BE0989FF0011124E056FB4F818506
S1133FF08F5F818782858F5F8287853018F0CF013C
S11340000E94B90741E0BE01C8010E94131EDF915E
S1134010CF911F910F91FF90EF900895282FCB011E
S1134020213039F0213028F0223031F0233089F466
S113403007C0109286030895642F0E94621F08959A
S11340406B58734031F480912E02882311F0109242
S11340502E0208950F931F93CF93DF93062F109191
S11340600B021430A0F4E12FFF27EE0FFF1FE157DE
S1134070FB4FC081D181C817D90749F4118210823E
S11340800E941E19402FBE01812F0E940E20DF9135
S1134090CF911F910F910895AF92BF92CF92DF926B
S11340A0EF92FF920F931F930E94E0067B018C0115
S11340B0609110057091110580911205909113057E
S11340C0A0905902B0905A02C0905B02D0905C025A
S11340D0A114B104C104D10409F44EC0EFB7F8949B
S11340E02091CE0520FD36C0A8019701261B370B71
S11340F0480B590B2A153B054C055D05C8F4A21A5B
S1134100B30AC40AD50A8091590290915A02A09127
S11341105B02B0915C02821B930BA40BB50B8093E2
S1134120590290935A02A0935B02B0935C0215C0AB
S113413081E090E0A0E0B0E08093590290935A02AD
S1134140A0935B02B0935C0201E0A02EB12CC12CC1
S1134150D12C03C02E7F2093CE058E2F99278FBF9D
S11341600E94E006AB01BC0111E0E12E960185013D
S113417080E00E94C10605C0809118058D7F809360
S113418018051F910F91FF90EF90DF90CF90BF9093
S1134190AF900895FF920F931F93CF93DF93F82E60
S11341A0282F33278BE090E0289FE001299FD00D32
S11341B0389FD00D1124C95ADD4F81E090E09983D6
S11341C088831A868A819B81AC81BD810097A10571
S11341D0B105A1F00FB7F8941127C9010E940A098B
S11341E00FBF1A821B821C821D821E821F821886A8
S11341F019868F2D0E94221B0E944C20DF91CF91A3
S11342001F910F91FF9008952F923F924F925F92CA
S11342106F927F928F929F92AF92BF92CF92DF92D2
S1134220EF92FF920F931F93CF93DF93CDB7DEB737
S113423022970FB6F894DEBF0FBECDBF8FB7F894A8
S1134240282F33278091660A882309F41DC4E0913E
S1134250970AFF27EE0FFF1FE652FD4F80809180E3
S11342602FBFF40182858F3309F0D4C3C4010E94A7
S1134270EA052C01FC011081F4010081C4010E94B3
S1134280F103AC018FB7F894992720910202309181
S113429003028FBF4217530721F04F5F5F4F09F0AE
S11342A0EBC39CE0292E312C280C391C83EF782E8B
S11342B0700E103709F4C3C0113730F4103641F0D2
S11342C0113609F0BDC393C0113709F0B9C328C230
S11342D0F401848525859927782F66273327622B57
S11342E0732B26856784908951886130710521F08C
S11342F0AA24BB24650108C0A0902202B090230226
S1134300C0902402D09025028091E002882309F411
S113431097C3892F9927AA27BB27EE24F82E092FA4
S11343201A2F332744275527522F44273327222770
S1134330862D9927AA27BB27DC0199278827282BB4
S1134340392B4A2B5B2B852D9927AA27BB27282B92
S1134350392B4A2B5B2BE22AF32A042B152BA114AD
S1134360B104C104D10461F4E114F104010511059F
S113437091F16130710509F063C3FAEF7F0E1BC040
S1134380E114F1040105110529F46130710509F006
S113439057C318C0D801C7018A199B09AC09BD09C4
S11343A0181619061A061B068CF46130710509F0FB
S11343B047C32AEF720EA8019701672DC101069623
S11343C00E94EE0F80E00E94CA203AC3EA14FB0464
S11343D00C051D0551F46130710509F031C380915C
S11343E061028F5F809361022BC3CB0125C0809152
S11343F0E002882309F424C3F401848525859927E0
S1134400982F88273327822B932B019709F018C301
S11344108091220290912302A0912402B09125025E
S11344200097A105B10509F40BC3F1018081992717
S1134430982F8827822B932B0E94CD1901C3C40186
S11344400E94F1038F5F9F4F09F0F0C062E0C40146
S11344500E94DC057C01C4010E9470045C010E947E
S11344608D078F3F21F0F7016181772729C000E094
S113447010E0E5EAF4E0808180FF07C00F5F1F4F82
S11344803B960A301105B9F71EC0FFEF0F17D9F09C
S1134490B501802F0E94C909F7014181202F3327DC
S11344A08BE090E0289FF001299FF00D389FF00DDC
S11344B01124E056FB4F4283F70161817727802F57
S11344C00E94E909B3C06FEF40E050E020E030E023
S11344D0E5EAF4E08081992780FF0BC081FF09C0E1
S11344E083FD07C0828193818417950710F0622FA2
S11344F0AC012F5F3F4F3B962A30310559F74134C9
S1134500510530F0862F99278F3F11F0B5018CC0EB
S113451090E0F40185A5893C08F091E0992309F421
S113452085C0C4010E94F710982FF2018081803762
S113453009F07CC0953009F083C265E0C4010E9493
S1134540E3058C01FC01818122819927982F88271A
S11345503327822B932B8F5F9F4F09F46DC0F80193
S1134560838124819927582F44273327422B532BA7
S11345704115510521F18091EA02E82EFF24609152
S1134580730A7091740AA0E020E030E0EFE2F3E0F7
S11345900EC0808191818617970731F084819581BF
S11345A04817590708F4A1E02F5F3F4F38962E159E
S11345B03F0514F4AA2369F3AA2309F442C010E0C6
S11345C0E5EAF4E08081992780FF04C083FD02C0FE
S11345D081FF1F5F3B9625E0E331F20799F7112332
S11345E029F10E943806DC01CB01612F77270E9454
S11345F03B3340E050E0E5EAF4E09081992349F050
S1134600292F332723FD05C021FD03C081508F3F8F
S113461039F04F5F5F4F3B964A30510571F706C042
S11346204F3F21F0B501842F0E94C909C4010E94A3
S1134630F710853009F004C265E0C4010E94E30567
S11346408C01C4010E9470046C0160E4C4010E94E6
S1134650920AB82EF801818122819927F82EEE243E
S11346603327E22AF32AFFEFEF16FFEFFF0609F4E0
S11346704FC0F801A3801481C6010E948D07C601B2
S11346800E940308E82F8A30E1F08091EA02E817DB
S1134690C1F0FF2783E0EE0FFF1F8A95E1F7E15D8C
S11346A0FC4FD182C082F382E2828A2D9927982F0F
S11346B08827212F3327822B932B9583848381E0B2
S11346C0868380910C02882319F5C6010E94030891
S11346D0E82F8091EA02E81748F4FF27B3E0EE0FD1
S11346E0FF1FBA95E1F7E15DFC4FB7828091780A2C
S11346F0882311F0BB2049F08091730A9091740AC9
S11347008C159D0529F4BB2019F081E10E94AD01AF
S113471060E8C4010E94920A882309F491C16BC124
S1134720C4010E940A1DC82EC4010E94111D082F35
S11347300F5F69E0C4010E94DC055C01FC01018398
S11347401127C4010E941F1D7C01C4010E94331D56
S113475099279801A701BC0181E20E94A61BFCE1F4
S1134760F71508F46DC1C4010E94C71D20E09091A3
S1134770D802891708F421E0222311F088E22FC11E
S113478020912902822F9927D82E882309F44FC01B
S113479000912702020F0150DA940D3010F4E02F3B
S11347A002C0E02FED50FF27EE0FFF1FE45BF54F33
S11347B00190F081E02DE080F18069E0C7010E9462
S11347C0DC05FC0124814581F50184816581332761
S11347D0322F22275527242B352B9927982F8827CA
S11347E07727862B972B2817390709F048C1C7016B
S11347F00E94181D182FC4010E94181D181709F0D3
S11348003EC1C7010E94111D182FC4010E94111D31
S1134810181709F034C1C7010E940A1D182FC401DA
S11348200E940A1D181709F02AC189E2D8C0809194
S1134830D902882399F0C4010E947F07182FFEEE45
S1134840CF1609F0FDC0682FC4010E947807412FDC
S1134850BC01C4010E943A1D4C01F2C080E02091C9
S11348602304222309F481E0882311F080E1B4C0F9
S11348709091220480E0992309F481E0882311F0C7
S113488086E1AAC09923C9F08091B40AE82FFF27D2
S1134890EE0FFF1FE557F24F008111811182108244
S11348A09150909322048F5F8093B40A8C3011F45A
S11348B01092B40A0115110511F483E590C0222366
S11348C0C9F08091C803E82FFF27EE0FFF1FE052C5
S11348D0F84FC080D180118210822150209323048C
S11348E08F5F8093C8038C3011F41092C803C114F5
S11348F0D10411F484E573C08FE2F60111928A9514
S1134900E9F788E290E0880E991E87E0F40111929D
S11349108A95E9F788ED9FEF880E991EF801918238
S113492080828FEF82838EE18383C8010E94EB082B
S1134930882309F043C0CE0101960E940907882309
S1134940A1F5F501828123819927982F88273327A0
S1134950822B932B29813A812817390730F180E87B
S113496090E0A0E0B0E080930D0290930E02A0933B
S11349700F02B09310020E9456106CE170E08CE1BB
S113498090E00E94441FC4010E94F1037C01C40111
S11349900E941F1D8C01C4010E94331D9927970199
S11349A0A801BC0188E10E94A61B8091330581FD0A
S11349B003C08FE00E94AD01460142C0C6010E94BF
S11349C03A07882319F081E50E94081CC8010E9457
S11349D05907882319F082E50E94081C81E10E948E
S11349E0081C2EC069E0C4010E94DC05FC01808122
S11349F08078803829F580E890E0A0E0B0E08093EA
S1134A000D0290930E02A0930F02B09310020E9425
S1134A10561016C0C4010E94F103AC018FB7F8947C
S1134A20992720910202309103028FBF4217530746
S1134A3019F04F5F5F4F21F48FB7F89499278FBF18
S1134A409FB7F8948091970AE82FFF27EE0FFF1F76
S1134A50E652FD4F918280828F5F8093970A833064
S1134A6010F01092970A8091660A81508093660A2A
S1134A70892F99278FBFE2CB113711F7B3CF01509C
S1134A80DD2009F089CED3CE2FBF22960FB6F8943D
S1134A90DEBF0FBECDBFDF91CF911F910F91FF906D
S1134AA0EF90DF90CF90BF90AF909F908F907F90CA
S1134AB06F905F904F903F902F900895AF92BF9268
S1134AC0CF92DF92EF92FF920F931F93CF93DF93D6
S1134AD05B016C01C0E0D0E0E0E1F5E0608561FFDE
S1134AE073C12081318142815381E480F580068144
S1134AF01781D601C501821B930BA40BB50B8E1530
S1134B009F05A007B10708F45FC160FF03C06D7F74
S1134B10608708C02E0D3F1D401F511F2083318325
S1134B2042835383C23009F4A3C0C33030F4CC238E
S1134B3059F0C13009F04EC13CC0C33009F4A4C0DF
S1134B40C43009F047C1A9C020911405309115055E
S1134B5040911605509117058091590290915A027F
S1134B60A0915B02B0915C020097A105B105F1F040
S1134B7082179307A407B507C9F4809161028823BB
S1134B8061F42FB7F894332780919F048160809358
S1134B909F042FBF8EE00E94AD0180E090E00E9450
S1134BA00A0980E00E94221B109261020E944C209C
S1134BB011C180912C02882309F40CC180912D022B
S1134BC0882309F407C180916C0A882349F581E19F
S1134BD00E94AD0180E10E94AD01A0900D02B09051
S1134BE00E02C0900F02D090100280918003909129
S1134BF08103A0918203B0918303A81AB90ACA0A57
S1134C00DB0A81E080936C0A0E94E006AB01BC01E0
S1134C1001E0E02E9601850181E00E94C106DAC020
S1134C2080910D0290910E02A0910F02B09110029A
S1134C30880F991FAA1FBB1F80930D0290930E0229
S1134C40A0930F02B09310028150904DA740B04042
S1134C5060F080E090EDA7E0B0E080930D029093C7
S1134C600E02A0930F02B09310020E945610B2C01D
S1134C7080912C02882309F4ADC080912D028823F1
S1134C8009F4A8C081E106C0809126028F7E80933A
S1134C9026028FE00E94AD019DC080911A028823F4
S1134CA009F098C0F4E5EF2EF4E0FF2E69E0C701A7
S1134CB00E947807EC0180910002909101028C011E
S1134CC001501040019721F480E090E00E942308F5
S1134CD080910002909101028F5F9F4F21F48EEF2B
S1134CE09FEF0E94230880E00E94860880910002C2
S1134CF0909101028983892F9927888380912703C2
S1134D00909128038B83892F99278A830D83812F80
S1134D1099278C8380911C0290911D028F83892F87
S1134D2099278E838091260281FF4AC062E1C701E0
S1134D300E94D00769E0C7010E94DC05FC01809154
S1134D400002909101028583892F992784838091A1
S1134D50E7028F5F8093E702815086838EEE87831C
S1134D6011828FEF8087E091470BF091480B3097C9
S1134D7039F1F182E08212828EE18383CF010E94B5
S1134D80EB088823D1F48091260282FF05C084FDBC
S1134D9003C08FE00E94AD011092480B1092470BA4
S1134DA081E080931A028091270390912803019651
S1134DB090932803809327030DC081E10E94081C6F
S1134DC080E40E94081C06C021963996C530D1059E
S1134DD009F084CE87E00E94AD01DF91CF911F914D
S1134DE00F91FF90EF90DF90CF90BF90AF90089518
S1134DF08F929F92AF92BF92CF92DF92EF92FF92E7
S1134E000F931F93CF93DF93CDB7DEB723970FB6DE
S1134E10F894DEBF0FBECDBFE82FFF27ED31F105BB
S1134E2010F00C94972EEA59FF4FEE0FFF1F0590D8
S1134E30F491E02D09948091B30A882309F0FDC20E
S1134E400C94972E8FB7F89420919F0420FD32C3C1
S1134E5020E034C38091CD03882311F40C94972E61
S1134E6010E001E06DC520E090915202992309F40D
S1134E7021E0222309F05BC780911B02882309F0FB
S1134E8056C780915002E82FFF27EE0FFF1FE15015
S1134E90F84FC080D180222351F48F5F8093500259
S1134EA08C3011F410925002915090935202D6011A
S1134EB04C918FEFF601868385838EEE83874D5068
S1134EC05527B60180E00E944302882321F481E043
S1134ED080931B022CC7C6010E94F1037C01C6010A
S1134EE00E941F1D8C01C6010E94331D9927970142
S1134EF0A801BC0181E40E94A61B19C72FB7F8942E
S1134F00332780912A038093070282E08093200252
S1134F102FBF80910702882309F009C780912B03D2
S1134F2090912C030E945618082F1127002309F48E
S1134F30FEC680E00E94F005602F80912B039091C3
S1134F402C030E942A20F3C68091880310928803C0
S1134F50853009F0BCC0B1E0FB2EF0922C028091A8
S1134F602D02882311F00E94380680912602846065
S1134F708093260290E080912902882309F491E02D
S1134F80992319F48FE00E94AD0180915902909108
S1134F905A02A0915B02B0915C020097A105B10591
S1134FA029F51092590210925A0210925B02109243
S1134FB05C0210925D0210925E0210925F021092E7
S1134FC060021092610280E00E94221B0FB7F894E5
S1134FD0112780E090E00E940A090FBF0E944C2034
S1134FE080E00E94CA20F092A80203C080E00E94E0
S1134FF0CA2011E01093E00280912602826080931F
S113500026028FB7F8949927209102023091030267
S11350108FBF3093F9072093F80780912D028823DE
S1135020B9F410932D0280E890E0A0E0B0E0809302
S11350300D0290930E02A0930F02B09310020E94EF
S1135040561040E050E260E070E082E00E94D40735
S11350508091000290910102009751F52091730A0A
S11350603091740A1093D9028091F8079091F9074E
S11350709093740A8093730A1092760A1092750AB8
S11350802F5F3F4F19F48FE00E94AD012091750A04
S11350903091760A6091730A7091740A40E081E35A
S11350A00E94A51C8091000290910102009719F0C2
S11350B001970E942308109228031092270340E0CE
S11350C054E060E070E084E00E94D40730C686308B
S11350D031F410922C02809126028B7FEFC287302C
S11350E009F425C68093880322C62FB7F894332782
S11350F0809126038F5F809326032FBF40918803FE
S1135100413081F58091A5078F5F8093A507863094
S113511048F52091DA073091DB07809189038823D1
S1135120C1F490E08091CC05882309F491E099239F
S113513081F03093850320938403409389038BED9E
S113514091E10E9485040E9462041092B90A83E0EE
S113515004C085E08093B90A82E0809388030E94AA
S11351604218E5C5109288030E944218C090B90AFB
S11351700091DA071091DB07F80182858F3309F07B
S1135180D6C580E00E94F005C8010E94EA05D090CF
S11351900B02F3E0FD1508F4CAC5ED2DFF27EE0F51
S11351A0FF1FE157FB4FE080F180E016F10609F0A4
S11351B0BEC5118210820E941E194C2DB7018D2D7F
S11351C073C10E940421B3C50E9438062FB7F89416
S11351D033277093DD076093DC072FBFA8C5809148
S11351E02403882361F52091880A3091890A40912B
S11351F08A0A50918B0AEFB7F894FF276091E10275
S11352007091E2028091E3029091E402E090B50A89
S1135210F090B60A0091B70A1091B80A6E0D7F1D7E
S1135220801F911FEFBF2093880A3093890A40930F
S11352308A0A50938B0A109224030E94AF090E9499
S1135240E00643C00E94E0065B016C018FB7F8944E
S113525099271092BE038FBFEFEFEE2EEFEFFE2ED5
S1135260EFEF0E2FEFE71E2F60E0E0E1F5E0808521
S113527081FF1CC080819181A281B381A601950127
S1135280281B390B4A0B5B0BDA01C90124813581D8
S113529046815781281B390B4A0B5B0B2E153F05A2
S11352A0400751071CF479018A0161E0399635E021
S11352B0ED33F307E1F6662309F439C51E141F0420
S11352C0100611062CF0C601B5010E945E252FC5FB
S11352D0E092880AF092890A00938A0A10938B0A52
S11352E081E080932403A8019701C601B5010E94BF
S11352F0AF091DC58FB7F894992710929C05109299
S11353009B0510924A0B1092490B10926402109262
S1135310630210928C0410928B04C6C42FB7F894C5
S113532033278091D30380930A0282E08093210281
S11353302FBF80910A02882309F0F9C4209A289A81
S113534080914B0B882309F075C08EEF91E0019793
S113535001960197E1F716982F9886E090E001975F
S113536001960197E1F7169A289883EC8EBD0DB447
S113537007FEFDCF8EB51EBC0DB407FEFDCF8EB566
S1135380289A289882EC8EBD0DB407FEFDCF8EB509
S113539088E08EBD0DB407FEFDCF8EB5289A8EEF42
S11353A091E0019701960197E1F728988EEC8EBD64
S11353B00DB407FEFDCF8EB58DE48EBD0DB407FE92
S11353C0FDCF8EB5289A289889EC8EBD0DB407FEC2
S11353D0FDCF8EB587EC8EBD0DB407FEFDCF8EB527
S11353E0289A289885EC8EBD0DB407FEFDCF8EB5A6
S11353F080E88EBD0DB407FEFDCF8EB5289A1092BD
S11354000D048BE080932903289888EC8EBD0DB49D
S113541007FEFDCF8EB58BE68EBD0DB407FEFDCF26
S11354208EB5289A2F9A81E080934B0B80E00E94DE
S113543081117DC40E94681A7AC471E0D72EEE24CB
S1135440FF240FE814E09091B30A8D2D892379F09D
S1135450D8016D917C9111971D921C928D2D809590
S113546098239093B30A43E08E2D0E940E20089453
S1135470E11CF11C0E5F1F4FB8E0EB16F10409F4B8
S113548056C4DD0CE0CF10910B02E12FFF27EE0F85
S1135490FF1FE157FB4FE080F180118210820E94D0
S11354A01E1941E0B701812F0E940E2040C40E94C2
S11354B0F2073DC42E7F20939F0421E099278FBFDC
S11354C0222309F434C481E090E00E94CD198EE0D7
S11354D028C48091260284FD08C090E080912902AE
S11354E0882309F491E0992311F080E51CC0809190
S11354F0D902882359F420E08091730A9091740AA8
S11355008F5F9F4F09F021E0222331F0CE010196F5
S11355100E940907882351F060E177E280E090E07F
S11355200E94281F82E10E94081C01C4E091270206
S1135530FF27EE0FFF1FE45BF54FE080F180D701FA
S1135540ED91FC91B0808090730A9090740ACF0121
S11355500E94C71D20E09091D802891708F421E029
S11355602223C9F08AE20E94081C0E941F07F70147
S1135570808191810E943A07882319F081E50E9475
S1135580081CC7010E945907882319F082E50E946C
S1135590081C8FE0C6C38091D902D701CD90DC905E
S11355A0882381F169E0C6010E94DC05FC01B78013
S11355B0A091D403B091D503F6018FE201900D922E
S11355C08150E1F70091D4031091D503C8010E94E2
S11355D07F07D82EFEEEBF1651F4682FC8010E9433
S11355E078074D2DBC01C8010E943A1D8C0110930F
S11355F0D5030093D40360E0D7018D919C910E9460
S1135600621F95C309811A8169E0C6010E94DC0505
S1135610FC010383012F1127028369E0F7018081D4
S113562091810E94DC05FC0180818F738083D70106
S11356304D915C91DA011196FD018181FA0121817C
S11356409927982F882733272062822B932B8183D5
S1135650892F9927FD018183809126028860809398
S1135660260280FF0FC069E0D7018D919C910E94B2
S1135670DC05FC01808180648083809126028E7F1A
S113568080932602F70100811181F8018682892D19
S113569099278783C8010E94EA05FC0181E780837A
S11356A0F3EFBF0E4B2D5527B80182E00E947C1901
S11356B09927882331F48091260280618093260201
S11356C036C3823009F033C36CE1D7018D919C91CC
S11356D00E94D0078FE00E94AD0187E124CF809122
S11356E02E02882309F023C3E091CF03F091D00365
S11356F010828091730A9091740AE091CF03F09123
S1135700D0038283892F992781838091D9028823AA
S113571069F08091750A9091760AE091CF03F09137
S1135720D0038483892F992783831AC08091730AB5
S11357309091740A8F5F9F4F99F48091750A9091AC
S1135740760AE091CF03F091D0038483892F9927BF
S11357508383E091CF03F091D003808180688083BC
S1135760E091CF03F091D003238184816181428150
S11357703327322F22279927282B392B7727762F67
S113578066275527642B752B40E083E30E94A51CF4
S113579062E08BE893E00E94DC056C0168E08BE832
S11357A093E00E94E30575E0A72EB12CA80EB91E64
S11357B040E0FF2400E010E06BE0862E912C53E0E3
S11357C0E52E80912B0299270196800F911F6AE0A4
S11357D070E00E944F339C019927889DD001899DD8
S11357E0B00D989DB00D1124A056BB4FFD018581CD
S11357F0992780FF15C081FF13C08D919C9111974B
S1135800FE9CA00111244A0D5B1DFA018183892F9E
S113581099278083FD018681FA018283F394422FC4
S11358200930110529F00F5F1F4FF6E0FF1548F608
S113583040932B0280912A028F5F80932A02815029
S1135840F60181838F2D8F7080838FEF8093910376
S1135850809392038BE893E00E94EA05FC0180E7C1
S1135860808383E0F89EC0011124895F482F552767
S11358706BE873E083E00E947C199927882321F464
S113588081E080932E0253C2843009F050C21092FA
S11358902C024DC28091D902882309F048C210928B
S11358A02F0245C28FB7F8949927209117082093A7
S11358B0110223E0209331028FBF809111028823CB
S11358C021F0813009F033C206C081E080930C04DA
S11358D01092B10A04C080930C048093B10A0E9410
S11358E0230525C210920C040091D7071091D80704
S11358F08091B10A882319F0813049F404C080E012
S11359000E94111107C081E00E94111110C2882366
S113591009F00DC298014427552760E078E581E13C
S113592090E00E94623330931D0220931C02FFC159
S11359300E94A8040FBFFBC181E08093B20AF7C1A3
S11359402091CD03802F8223F1F0E12FFF27EE0F6A
S1135950FF1FE457F54F4081518111821082802F3F
S1135960809528232093CD03112319F0113059F485
S113597005C063E0CA010E94A410D6C163E0CA0155
S11359800E944F1CD1C11F5F183008F0D0C1000F16
S1135990D7CF10911202E12FFF27EE0FFF1FE4571C
S11359A0F54FE080F180118210820E94C10241E033
S11359B0B701812F0E94961CBAC18FB7F894109238
S11359C04E0B2091D90740E0283009F441E030E043
S11359D0293009F431E0442311F4332351F01092B7
S11359E0D907E0910E05FF27EE0FFF1FE752FC4F8A
S11359F0108299278FBF442311F4332331F19FB7C9
S1135A00F8948091980A8F5F8093980A8091D203CA
S1135A10833479F42091840480918304821779F08B
S1135A20822F8F5F80938404863048F01092840420
S1135A3006C0A0E0442309F4A1E071E002C0A0E0A4
S1135A4070E0892F99278FBF06C0222311F0FF240D
S1135A506DC0A0E070E08FB7F894992720913202CE
S1135A608FBF222341F08FB7F89499272AE020931F
S1135A70D9078FBF42C08FB7F89499276091D90393
S1135A804091DB038FBF8FB7F894282F332750E062
S1135A909091830480918404981709F451E02FBFF6
S1135AA0552341F5662331F55FB7F89482E080937E
S1135AB0D9038FB7F894282F332740E090918304BB
S1135AC080918404981709F441E02FBF442311F016
S1135AD080E006C0E0918404FF27ED57FB4F8281EC
S1135AE08093DA0383E48093D20310920E05852F0A
S1135AF099270EC04150423010F0FF240CC08FB7DC
S1135B00F894992725E42093D20321E020930E05ED
S1135B108FBF61E0F62E772349F08FB7F894992769
S1135B20A0933B028FBF8AE10E94AD018FB7F89426
S1135B30082F11278091D9078A3009F4F9CE0FBFB5
S1135B40FF2009F4F4C02FB7F89433271092A40D62
S1135B501092A30D1092CE0381E08093D9072FBF3A
S1135B600E94FB04882309F4E2C08FB7F8949927B4
S1135B7029E02093D9078FBF0E94D401D8C0809117
S1135B80C1008F7B8093C1008091C1008F77809387
S1135B90C1001092A6071092BC038091C1008860D6
S1135BA08093C1008091C10080618093C100809185
S1135BB0C10080688093C1008FB7F8949927109230
S1135BC0D90710928A038FBF0E94E91AB0C089E1F5
S1135BD0A8C08091C100877F8093C1008091C100DB
S1135BE08F7E8093C100A3C01092380210923702B6
S1135BF08FB7F8949927F0903B028FBF80913C02B5
S1135C00882311F053E0F52E2091350230913602AD
S1135C1080913D02882309F08AC08091120282306B
S1135C2008F085C0E82FFF27EE0FFF1FE457F54F5C
S1135C30008111810217130709F079C011821082C3
S1135C408B830E94C1028B81882321F0813009F06B
S1135C506EC005C06F2DC8010E94A41068C06F2DCE
S1135C60C8010E944F1C63C08FB7F89499272091F4
S1135C704002309141024091E9028FBF8FB7F894FE
S1135C80E42FFF27EE0FFF1FEC5EFD4F31832083CF
S1135C9020913302442311F02B7F01C02D7F2093E8
S1135CA0330210923E0299278FBF41C08091B20AFD
S1135CB08823E9F590E080915502882309F491E066
S1135CC09923A9F5E0915302FF27EE0FFF1FE25F2E
S1135CD0FB4F008111814091FE078FEFF80186830D
S1135CE0858386E18387B80181E00E94430288238B
