S01700006275696C642F697269732F6D61696E2E7372656343
S11300000C94D5010C94F4010C94F4010C94F401B7
S11300100C94F4010C94F4010C94F4010C94F40188
S11300200C94F4010C94F4010C94F4010C94F40178
S11300300C94F4010C94E80C0C94F4010C94840BCF
S11300400C94C61A0C94FC1A0C943B0C0C94460C9D
S11300500C94510C0C94F4010C94F4010C94F401E0
S11300600C94980B0C94F4010C94F4010C94F4018A
S11300700C94F4010C94F4010C94F4010C94F40128
S11300800C94F4010C94F4010C94F4010C94F40118
S11300900C94F4010C94F4010C94F4010C94F40108
S11300A00C94F4010C94F4010C94F4010C94F401F8
S11300B00C94F4010C94F4010C94F4010C94F401E8
S11300C00C94F4010C94F4010C94F401660D6D0D80
S11300D05F0D660D6D0D5F0D740D660D6D0D5F0D7D
S11300E0740D660D6D0D5F0D660D6D0D5F0DB90D13
S11300F0BE0DB40DB90DBE0DB40DC30DB90DBE0DBD
S1130100B40DC30DB90DBE0DB40DB90DBE0DB40DB6
S1130110230E280E1E0E230E280E1E0E2D0E230E49
S1130120280E1E0E2D0E230E280E1E0E230E280E34
S11301301E0E7B13861370137B1386137013911397
S11301407B138613701391137B13861370137B1325
S113015086137013DD13E813D213DD13E813D213DF
S1130160F313DD13E813D213F313DD13E813D213DF
S1130170DD13E813D213F72A2A2B832BE52AC72B86
S1130180D82B182CBD2C052D512D8B3032319530A8
S1130190AA3093323931403188319832B932DA3267
S11301A0EC2AED3200002110422063308440A55037
S11301B0C660E770088129914AA16BB18CC1ADD1A9
S11301C0CEE1EFF13112100273325222B552944251
S11301D0F772D662399318837BB35AA3BDD39CC3F9
S11301E0FFF3DEE36224433420040114E664C7749D
S11301F0A44485546AA54BB528850995EEE5CFF549
S1130200ACC58DD55336722611163006D776F666F0
S11302109556B4465BB77AA719973887DFF7FEE798
S11302209DD7BCC7C448E5588668A77840086118BC
S113023002282338CCC9EDD98EE9AFF948896999E8
S11302400AA92BB9F55AD44AB77A966A711A500A90
S1130250333A122AFDDBDCCBBFFB9EEB799B588B38
S11302603BBB1AABA66C877CE44CC55C222C033CDC
S1130270600C411CAEED8FFDECCDCDDD2AAD0BBD88
S1130280688D499D977EB66ED55EF44E133E322E30
S1130290511E700E9FFFBEEFDDDFFCCF1BBF3AAFD8
S11302A0599F788F8891A981CAB1EBA10CD12DC136
S11302B04EF16FE18010A100C230E32004502540CC
S11302C046706760B9839893FBA3DAB33DC31CD32C
S11302D07FE35EF3B1029012F322D232354214521C
S11302E077625672EAB5CBA5A89589856EF54FE578
S11302F02CD50DC5E234C324A0148104667447646C
S113030024540544DBA7FAB79987B8975FE77EF7CB
S11303101DC73CD7D326F2369106B01657667676BB
S1130320154634564CD96DC90EF92FE9C899E98997
S11303308AB9ABA94458654806782768C018E1080B
S11303408238A3287DCB5CDB3FEB1EFBF98BD89B6B
S1130350BBAB9ABB754A545A376A167AF10AD01A5B
S1130360B32A923A2EFD0FED6CDD4DCDAABD8BADB7
S1130370E89DC98D267C076C645C454CA23C832CAB
S1130380E01CC10C1FEF3EFF5DCF7CDF9BAFBABF0B
S1130390D98FF89F176E367E554E745E932EB23EFB
S11303A0D10EF01E00020E060C0411241FBECFEF66
S11303B0D1E2DEBFCDBF12E0A0E0B2E0E0EEFEE6A7
S11303C000E00BBF02C007900D92A232B107D9F72B
S11303D01EE0A2E2B2E001C01D92AC3FB107E1F71A
S11303E00E941F330C946F370C940000FC0120E032
S11303F030E007C082819381280F391F0480F58182
S1130400E02D3097B9F7C9010895FB01518340836A
S113041033832283958384830895CF92DF92EF926E
S1130420FF920F931F93CF93DF938C01FB017A010B
S1130430690105C0E81BF90BE8010C811D81E80185
S11304408A819B81E817F907A8F71CC0E8018A8113
S11304509B818E1B9F0BE7018E159F0508F4EC0111
S1130460D8018D919C91AE01B6018E0F9F1F0E9401
S11304704937CC0EDD1EEC1AFD0AE8010C811D8102
S1130480E0E0F0E00115110519F01E141F04F4F268
S113049080E090E0DF91CF911F910F91FF90EF905A
S11304A0DF90CF9008954F925F926F927F928F92D8
S11304B09F92AF92BF92CF92DF92EF92FF920F93EF
S11304C01F93CF93DF938C014B015A013901CC2444
S11304D0DD2404C06C01F8010481158101151105A6
S11304E019F44424552436C0F801828193818C0D7B
S11304F09D1D8816990670F74424552428C074015C
S1130500EC18FD08F801828193818E199F09E50199
S11305108A159B0508F4EC01F801608171816E0D68
S11305207F1DAE01C3010E9449374C0E5D1EF801C8
S1130530048115810115110569F0CE0CDF1CCC0E68
S1130540DD1E8C0E9D1EAC1ABD0A6C0E7D1E1A1487
S11305501B04ACF2C201DF91CF911F910F91FF9068
S1130560EF90DF90CF90BF90AF909F908F907F904F
S11305706F905F904F900895EF92FF920F931F93A7
S1130580CF93DF93FC0120E030E040E050E0A0E0B6
S1130590B0E02EC0628173816115710531F1C081B3
S11305A0D18100E010E01EC0888100FD0BC09927B6
S11305B0982F8827A82BB92BC8010196861797076F
S11305C071F403C09927A82BB92B7D01C701AA2771
S11305D0BB27280F391F4A1F5B1FA0E0B0E00F5F45
S11305E01F4F219606171707F9F60480F581E02DB1
S11305F0309781F60BC0DA01C901A070B0709A017E
S113060044275527280F391F4A1F5B1F203080E0DD
S1130610380781E0480780E0580768F7C9018095EA
S11306209095DF91CF911F910F91FF90EF900895D6
S1130630EF92FF920F931F93CF93DF93CDB7DEB763
S11306406A970FB6F894DEBF0FBECDBFE42E0896AE
S11306509A87898740E150E05C874B879E01215F40
S11306603F4F3E872D874096988B8F875A8B498BB7
S1130670CE0145969C8B8B8BCE0101969E8B8D8BE8
S113068088E090E0988F8F8B7A8F698FCB010E94DE
S1130690F601AA2797FDA095BA2FBC01CD010E94AF
S11306A0BF0469837A838B839C83FF2400271127EB
S11306B0C801B7010E94BF046D837E838F8398872E
S11306C0CE0109960E94BC026A960FB6F894DEBF6A
S11306D00FBECDBFDF91CF911F910F91FF90EF908F
S11306E008958CED95E0909334028093330208953D
S11306F0A3E3B2E004969C0121703070280F391FE7
S113070002C0A40FB51F8D919C911197AC015F702D
S11307104217530710F097FF06C0CD018353924050
S11307208C5D954074F388E0AF30B80718F080E032
S113073090E00895C90102979C013F7030681196BA
S11307403C932E93FD01E80FF91F481B590B5F7072
S113075051834083CD0102960895CF93DF939C018A
S1130760E3E3F2E0C0E0D0E006C0808191819F70B5
S1130770EF01E80FF91FCF0102968217930739F0B2
S1130780CF01835392408C5D95407CF327C08081D8
S113079091819C013F70DF01A20FB31F9F7791836A
S11307A08083CD01835392408C5D95404CF48D91B0
S11307B09C9197FD05C09F70280F391F31832083BA
S11307C0209761F02881398137FD08C03F7080810E
S11307D091819F70280F391F39832883DF91CF912E
S11307E00895E3E3F2E040E050E00BC02081318162
S11307F037FD04C0C9019F70480F591F3F70E20FB5
S1130800F31FCF01835392408C5D95407CF3CA0162
S113081008956F927F928F929F92AF92BF92CF92E0
S1130820DF92EF92FF920F931F93CF93DF93FB011D
S11308305A018B01040F151FDC01CC24DD2440E098
S113084050E07AE398EF692E9FEF792E600E711EC7
S11308506E167F0608F460C0ED01E980FC9024E088
S113086030E08FEF882E982ECCE0D0E0C401022E29
S113087002C0969587950A94E2F78E159F0530F08D
S113088042305105B1F42031310599F4C7010C2EE1
S113089002C0969587950A94E2F7682F6F708F705F
S11308A090700A9718F4862F805D02C0862F895AAB
S11308B081932C5F3F4F249724313105B9F68D91F4
S11308C09C911197892B21F54115510559F4719388
S11308D08D919C911197892B19F441E050E002C04D
S11308E042E050E087E0C816D10424F441305105B9
S11308F009F071930894C11CD11C129688E0C816A3
S1130900D10409F0A5CF4130510531F4719304C0ED
S11309104130510539F7E4CF11920A191B09CF016F
S1130920801B910BDF91CF911F910F91FF90EF905E
S1130930DF90CF90BF90AF909F908F907F906F90FB
S11309400895DC018C918370823021F4FD012181B2
S1130950328113C0833019F020E030E00EC0FD0175
S1130960319620E030E0AD01475F5F4F8191919176
S1130970280F391FE417F507C9F7C9010895EF9245
S1130980FF920F931F93FB01BC01882799272F2FF8
S11309903E2F44275527A90133272227E72EF62E79
S11309A0002711272E293F29402B512BCA01B901B9
S11309B01F910F91FF90EF9008959C01DB01FC01C2
S11309C004C08D9181934150504041155105C9F7A0
S11309D0C90108958F929F92AF92BF92CF92DF92F6
S11309E0EF92FF920F931F93CF93DF936C014B0110
S11309F0892B09F4A3C06115710509F49FC080E136
S1130A00EB0119928A95E9F7D60160E070E090E075
S1130A1046C02A3301F1822F80538A3030F43327C1
S1130A2027FD3095205330400EC0422F552747FDF7
S1130A3050952154263020F49A012753304003C0A6
S1130A409A012755304044E0660F771F4A95E1F735
S1130A50622B732B0DC0E92FFF27EE0FFF1FE80D4C
S1130A60F91D072F162F118300839F5F60E070E04C
S1130A70FD013196ED012981222359F4E92FFF2745
S1130A80EE0FFF1FE80DF91DE72EF62EF182E0822E
S1130A9055C08C918A3311F42A3341F0DF012C9133
S1130AA0222309F0B6CFFD0101C03196808188234D
S1130AB0E1F7DF01119760E070E017E090E03BC0E0
S1130AC02C912A3311F1822F80538A3030F433274A
S1130AD027FD3095205330400EC0422F552747FD47
S1130AE050952154263020F49A012753304003C0F6
S1130AF09A0127553040092E02C0220F331F0A9451
S1130B00E2F7622B732B9C5F0EC0E12FFF27EE0FE1
S1130B10FF1FE80DF91DA72EB62EB182A082115039
S1130B2060E070E090E01197FD0181818A3319F44F
S1130B308C918A3319F0CA16DB0610F2DF91CF913B
S1130B401F910F91FF90EF90DF90CF90BF90AF90E7
S1130B509F908F900895FC01718360835383428337
S1130B60358324830895CF92DF92EF92FF920F93FF
S1130B701F93CF93DF938C016B01EE24FF241AC0E3
S1130B80F80182819381E89EE001E99ED00DF89EF0
S1130B90D00D112480819181C80FD91FCE01F60197
S1130BA00995FFEF8F3F9F0759F0019759F008947B
S1130BB0E11CF11CF80184819581E816F90600F323
S1130BC0C0E0D0E0CE01DF91CF911F910F91FF9053
S1130BD0EF90DF90CF900895EF92FF920F931F93C1
S1130BE0CF93DF93EC017B0100E010E012C08A8117
S1130BF09B819C01029FC001039F900D129F900D49
S1130C00112428813981820F931FF70109950F5F01
S1130C101F4F8C819D810817190748F3DF91CF91ED
S1130C201F910F91FF90EF9008958FB7F894992733
S1130C3008958FBF0895CF92DF92EF92FF920F93A2
S1130C401F93CF93DF936C018B017A01E901232B6E
S1130C5019F1FB0183E0F695E7958A95E1F7EE0D2E
S1130C60FF1D808199279B012770307002C09595E4
S1130C7087952A95E2F780FF06C0F60171836083A9
S1130C8080E090E00BC0CB010196BE010E94EB36E0
S1130C90BC0180179107E9F681E090E0DF91CF91E4
S1130CA01F910F91FF90EF90DF90CF900895282F20
S1130CB09FB7F894E82FFF27EE53F74F80818F3FBB
S1130CC081F4E091F40EE21771F40BC02093650CEB
S1130CD004C0FF27EE53F74F20832093F40E20E047
S1130CE007C025E005C08091650C8F3F91F7EECFDA
S1130CF0892F99278FBF822F99270895CF93DF9348
S1130D00982F8FB7F894282F3327422F80912B02E6
S1130D10882321F581E080932B029093430C2FBF0D
S1130D208FB7F894C82FDD279C2F80911E02843042
S1130D3099F480912B02813021F482E10E945706BC
S1130D4009C0823049F48091430C80931E0283E0F1
S1130D5080932B02CFBF07C09FBF05C08091430C77
S1130D60891721F42FBF80E090E021C0E92FFF27ED
S1130D70E559F34F80818F3F89F4E0911D02E91713
S1130D8089F40CC090931C0204C0FF27E559F34F6B
S1130D90908390931D0280E090E002C085E090E093
S1130DA04FBF05C080911C028F3F79F7EBCFDF91D5
S1130DB0CF910895CF92DF92EF92FF920F931F93FA
S1130DC0CF93DF93782FC62FDD278BE090E0C89F69
S1130DD0F001C99FF00DD89FF00D1124EF5EF44F80
S1130DE08081882319F085E090E048C0643018F4CD
S1130DF080E091E002C080E090E0AA27BB27BA2FF0
S1130E00A92F982F882782179307A407B507A0F165
S1130E10821B930BA40BB50B8C159D05AE05BF056A
S1130E2058F18BE090E0C89FF001C99FF00DD89F66
S1130E30F00D1124EF5EF44F7083238334834583D4
S1130E405683C782D086E186F2861283018361309D
S1130E5069F0613028F0623059F0633059F003C012
S1130E6080E00E947E0680E090E008C081E0F9CF37
S1130E7082E0F7CF83E0F5CF86E090E0DF91CF9179
S1130E801F910F91FF90EF90DF90CF900895EF9214
S1130E900F931F93AE2D99E0899FF0011124E25224
S1130EA0F44F4083518362837383048315832683C1
S1130EB03783A17080858E7F8A2B8260808781E052
S1130EC00E9457061F910F91EF9008957FB7F894F1
S1130ED06091B2002091BD083091BE084091BF08D6
S1130EE05091C008B99B11C08091B3009091B20099
S1130EF0280F311D411D511D2F5F3F4F4F4F5F4F35
S1130F00290F311D411D511D04C0260F311D411DE6
S1130F10511D872F99278FBFCA01B90108952F92B8
S1130F203F924F925F926F927F928F929F92AF9275
S1130F30BF92CF92DF92EF92FF920F931F93CF93C2
S1130F40DF93CDB7DEB729970FB6F894DEBF0FBE97
S1130F50CDBF6FB76983F8942090F1093090F209FE
S1130F604090F3095090F409662477248824BEE461
S1130F70AB2EA3E8BA2ECC24DD24EE24FF2400E01B
S1130F8010E0222D332D442D552D662D772D882DDF
S1130F9090E00E944B352A833B834C835D836E83B0
S1130FA07F8388879987822E932EA42EB52E2401C1
S1130FB0350100E20E944936A22EB32EC42ED52E4E
S1130FC0A301920156954795379527952A0D3B1D08
S1130FD04C1D5D1D57FF05C05F772F5F3F4F4F4F7F
S1130FE05F4F2093F1093093F2094093F309509332
S1130FF0F409E9818E2F99278FBFCA01B901299677
S11310000FB6F894DEBF0FBECDBFDF91CF911F9115
S11310100F91FF90EF90DF90CF90BF90AF909F9093
S11310208F907F906F905F904F903F902F90089596
S11310300B960895E4EAF1E06927660FF11DE60FC7
S1131040F11DC895982F802D3196C8959025089547
S11310501F93CF93DF93142FEB0104C069910E9477
S11310601A0811501123D1F7DF91CF911F910895E0
S1131070CF93DF93982F8FB7F894C82FDD272C2FA9
S113108080912C02882361F481E080932C02909358
S1131090EC0E83E10E945706CFBF80E090E021C0B0
S11310A0E92FFF27E553F64F80818F3F89F4E091C4
S11310B02002E91789F40CC090931F0204C0FF2793
S11310C0E553F64F90839093200280E090E002C0B5
S11310D085E090E02FBF05C080911F028F3F79F714
S11310E0EBCFDF91CF9108951F93182F8091320297
S11310F08823E1F4623041F0633041F0613011F053
S113110081E007C080E103C08EE001C08FE00E944F
S1131110380890E0882309F491E0909332029923EF
S113112029F01093550C80E090E002C081E090E03B
S11311301F9108958FB7F894282F3327922F809109
S11311402102813149F480912C02823029F42FBF8D
S113115086E10E94570608959FBF81E10E943808E6
S11311600895CF92DF92EF92FF920F931F93809393
S11311702A026093580CC901880F892F881F990B84
S113118091958093590C220F812F9927282B209316
S11311905A0C00935B0CD0921C0CC0921B0CF09266
S11311A0FD09E092FC094093FA0981E10E94570687
S11311B01F910F91FF90EF90DF90CF900895E82F4B
S11311C09A01AB01BB27A52F942F832FBC01E130DB
S11311D049F0E13078F0E23041F0E33049F060E08A
S11311E078E008C060507F4F05C060507E4F02C059
S11311F060507D4F88279927982F872F762F662751
S1131200307044275527620F731F841F951F08955C
S1131210882319F08CB5806402C08CB58F7B8CBD9B
S11312200895882319F08CB5806802C08CB58F7737
S11312308CBD08950F931F9380E00E9408090FB797
S1131240F8941127229A2398219A209A8CB58061C8
S11312508CBD80E00E9411098CB5877F8CBD8CB554
S11312608B7F8CBD81E00E9408098DB581608DBDA6
S11312708CB58C7F8CBD0FBF1F910F9108950F9378
S11312801F93CF93DF93182F0FB7F8948091280200
S1131290882311F40E941A09802F99278FBF8FB7D2
S11312A0F894C82FDD272C2F80912802882361F41D
S11312B081E0809328021093FE098DE00E94570676
S11312C0CFBF80E090E021C0E12FFF27E550F64F2B
S11312D080818F3F89F4E0911902E11789F40CC0F1
S11312E01093180204C0FF27E550F64F10831093A3
S11312F0190280E090E002C085E090E02FBF05C0B5
S1131300809118028F3F79F7EBCFDF91CF911F9136
S11313100F9108958FB7F894282F3327922F809137
S11313201A02882331F480912802823011F42FBFED
S113133013C09FBF8FB7F894282F332780912802BA
S1131340882369F482E08093280210921A022FBF46
S11313500E941A09209A289A81E090E008952FBFEC
S113136080E00E943F0980E090E008958FB7F894F0
S11313702091D30B3091D40B4091D50B5091D60BC7
S1131380E0918400F0918500B09B08C02F5F3F4F2F
S11313904F4F5F4FE0918400F091850099278FBFF4
S11313A0C901772766279F0144275527622B732B92
S11313B0842B952B0895FC01EC57FF4F80818260AC
S11313C08083089580589F4F0895FC018281992756
S11313D0982F882721813327822B932BE5E096953C
S11313E08795EA95E1F7817090700895AC01EFB7A5
S11313F0F8942091840030918500C901841B950BD9
S113140003968617970720F0B9016D5F7F4F02C0DE
S1131410640F751F6115710511F461E070E061508E
S11314207040709389006093880082E086BB80914D
S11314306F00826080936F008E2F99278FBF08956D
S1131440CF93DF93EC010E94E509882339F18A8167
S113145029819927982F88273327822B932B8774E8
S11314609C7C81549848D1F48F814E812FB7F89495
S1131470332760911202709113022FBF20E0992745
S1131480982F88275527842B952B8617970709F0C3
S113149021E081E02827822F992702C080E090E094
S11314A0DF91CF910895EF92FF920F931F937C01E8
S11314B08FB7F89499270091260C1091270C0F5E92
S11314C01E4F1093270C0093260C015111408FBF1F
S11314D08AE00E945706C801B7010E94EB368A5D74
S11314E09E4F1F910F91FF90EF900895813049F026
S11314F0813078F0823041F0833049F060E070E070
S113150008C060507E4F05C060507D4F02C06050DF
S11315107F4FCB010895982F4FB7F89455272BB1DF
S1131520277D2BB980E097FD5B9A5D9A4A99806884
S11315302BB996FD5B9A5D9A4A9980642BB995FD07
S11315405B9A5D9A4A9980622BB994FD5B9A5D9A85
S11315504A9980612BB993FD5B9A5D9A4A99886098
S11315602BB992FD5B9A5D9A4A9984602BB991FDDF
S11315705B9A5D9A4A9982602BB990FD5B9A5D9A59
S11315804A9981604FBF992708954FB7F89455271A
S1131590FC0153E0F695E7955A95E1F7E25EF34FC7
S11315A08770907021E030E002C0220F331F8A95CB
S11315B0E2F78081822B80834FBF0895DF92EF9200
S11315C0FF920F931F938FB7F894282F3327D22EAF
S11315D09091B3008091B20047B3981711F041FF86
S11315E002C02FBF71C08091E2098823E1F10E94FB
S11315F06607E090B408F090B5080091B608109121
S1131600B7082091700C3091710C4091720C50917C
S1131610730C6E197F09800B910B62177307840793
S1131620950720F01092E20971E01EC02E0D3F1DB7
S1131630401F511F8091BD089091BE08A091BF0822
S1131640B091C008281B390B4A0B5B0B273E3105B0
S11316504105510540F4822F223010F070E005C09E
S113166070E082E002C070E086EE682F61508091E5
S1131670B60083FDFCCF8091B200681709F46F5F58
S11316802091BD083091BE084091BF085091C00818
S1131690DA01C9010196A11DB11D860F911DA11D7D
S11316A0B11D82179307A407B50710F4622F609544
S11316B08091B60083FDFCCF6093B300DFBE772337
S11316C019F080E00E9457061F910F91FF90EF9050
S11316D0DF900895AFB7F894BB27E1E0E093E20907
S11316E06093B4087093B5088093B6089093B708D4
S11316F02093700C3093710C4093720C5093730CC4
S1131700AFBF0E94DE0A08951F920F920FB60F9288
S113171011248F938091B0008093B0008091B60023
S113172081FDFCCF8F910F900FBE0F901F901895E5
S11317301F920F920FB60F9211240F931F932F93A2
S11317403F934F935F936F937F938F939F93AF9345
S1131750BF93CF93DF93EF93FF932EB5E091180CD3
S1131760F091190C309739F080913E0B90913F0B1A
S1131770E80FF91F208380913E0B90913F0B019657
S113178090933F0B80933E0B80E00E941109C0911F
S11317903E0BD0913F0B20911C0830911D08C217BD
S11317A0D30708F042C00091EA0E1091EB0E40916D
S11317B0180C5091190CCE010A962817390708F411
S11317C0C901DA01AC0FBD1FF801EC0FFD1F9C012C
S11317D02150304015C00115110531F080818EBDB6
S11317E00DB407FEFDCF04C01EBC0DB407FEFDCF33
S11317F08EB54115510509F08C93219611963196B9
S1131800C217D30740F381E00E94110901151105A5
S113181031F00C0F1D1FF80180818EBD01C01EBC6C
S1131820D0933F0BC0933E0B11C01092190C109231
S1131830180C1092EB0E1092EA0E10921D081092E2
S11318401C0810923F0B10923E0B8EB5FF91EF9146
S1131850DF91CF91BF91AF919F918F917F916F91C4
S11318605F914F913F912F911F910F910F900FBE58
S11318700F901F90189578941F920F920FB60F92A5
S113188011240F900FBE0F901F90189578941F92FB
S11318900F920FB60F9211240F900FBE0F901F904E
S11318A0189578941F920F920FB60F9211242F93CC
S11318B03F938F939F93AF93BF932FB7F89433279E
S11318C08091D30B9091D40BA091D50BB091D60BF2
S11318D00196A11DB11D8093D30B9093D40BA093BB
S11318E0D50BB093D60B2FBFBF91AF919F918F9122
S11318F03F912F910F900FBE0F901F901895EF926C
S1131900FF920F931F93CF93DF93EA017B010AC0E9
S11319108C010F5F1F4F0E945937F70181937F019C
S11319202197C8012097A1F780E090E0DF91CF9143
S11319301F910F91FF90EF900895CF92DF92EF9255
S1131940FF920F931F93CF93DF93CDB7DEB7289702
S11319500FB6F894DEBF0FBECDBF7B018C018FB7ED
S1131960F89448E050E06E010894C11CD11CB60103
S113197080EF9FE00E947F0CEB82FC820D831E832C
S11319808FEF8F83188680910002909101029A83D1
S11319908983760180EF9FE0F70161917F018C01DB
S11319A00F5F1F4F0E946137FFE0083F1F0711F0D0
S11319B0C801F2CFF999FECF88E190E029E00FB693
S11319C0F894A895809360000FBE20936000FFCF29
S11319D01F920F920FB60F9211242F933F934F93A0
S11319E05F936F937F938F939F93AF93BF93EF9383
S11319F0FF938091B0008093B0008091B60081FD88
S1131A00FCCF8091B30099270196AA27BB27209188
S1131A10BD083091BE084091BF085091C008280FFE
S1131A20391F4A1F5B1F2093BD083093BE084093A3
S1131A30BF085093C00878940E94DE0AFF91EF918A
S1131A40BF91AF919F918F917F916F915F914F91D2
S1131A503F912F910F900FBE0F901F901895BF923A
S1131A60CF92DF92EF92FF920F931F93B82ED7017C
S1131A7080912902882319F085E090E03CC0EB2D89
S1131A80FF27E131F105B8F4EA59FF4FEE0FFF1FCC
S1131A900590F491E02D099485E00E94DA069927D7
S1131AA0282F882349F481E080932902B092EE0E16
S1131AB080E090E020C021E0822F99271CC06801BB
S1131AC079018D019A01AB0163E0E6CF68017901E8
S1131AD08D019A01AB0161E0DFCF680179018D01CD
S1131AE09A01AB0162E0D8CF680179018D019A01B6
S1131AF0AB0160E0D1CF1F910F91FF90EF90DF9089
S1131B00CF90BF900895BF92CF92DF92EF92FF9251
S1131B100F931F93B82E67017801809129028823BF
S1131B2019F085E090E034C0EB2DFF27E131F10599
S1131B30B8F4E958FF4FEE0FFF1F0590F491E02D24
S1131B40099484E00E94DA069927282F882349F40F
S1131B5081E080932902B092EE0E80E090E018C0FC
S1131B6021E0822F992714C089019A01AB0163E017
S1131B70E8CF89019A01AB0161E0E3CF89019A01C1
S1131B80AB0162E0DECF89019A01AB0160E0D9CFFD
S1131B901F910F91FF90EF90DF90CF90BF90089529
S1131BA0EF92FF920F931F93813051F0813030F008
S1131BB0823041F0833041F081E009C086E005C005
S1131BC089E003C087E001C088E00E94830D992763
S1131BD01F910F91FF90EF900895BF92CF92DF92E3
S1131BE0EF92FF920F931F93B82E670178018091B3
S1131BF02902882319F085E090E034C0EB2DFF27FB
S1131C00E131F105B8F4E857FF4FEE0FFF1F0590DF
S1131C10F491E02D099481E00E94DA069927282F97
S1131C20882349F481E080932902B092EE0E80E08B
S1131C3090E018C021E0822F992714C089019A01ED
S1131C40AB0163E0E8CF89019A01AB0161E0E3CF26
S1131C5089019A01AB0162E0DECF89019A01AB01EF
S1131C6060E0D9CF1F910F91FF90EF90DF90CF905C
S1131C70BF900895AF92BF92CF92DF92EF92FF92FE
S1131C800F931F938091E109992720E730E0829F09
S1131C90A001839F500D929F500D1124FA01E25F21
S1131CA0F14F8081A82EBB24CC24DD24FAE0AA0CB9
S1131CB0BB1CCC1CDD1CFA95D1F7FA01E15FF14F96
S1131CC080812AE6829FC0011124AA27BB27A80E7F
S1131CD0B91ECA1EDB1E9A01205F314F8091240277
S1131CE0823079F08330B1F0813011F081E01CC092
S1131CF0EAE6EE2EF12C012D112DB601A50185E0A9
S1131D0011C07AE6E72EF12C012D112DB601A501A3
S1131D1083E008C06AE6E62EF12C012D112DB601F0
S1131D20A50184E00E94ED0D882311F01092D908DA
S1131D301F910F91FF90EF90DF90CF90BF90AF90E5
S1131D40089521E02093FF0920931A0C2091840028
S1131D5030918500BC01C9010E94F60908951F93C2
S1131D60982F1FB7F89480912602823099F58091BC
S1131D701702891779F58091150220E030E08F3F32
S1131D8011F421E030E0232BF1F49FEF909317023C
S1131D908F3F19F42FEF30E00DC0282F3327F901BE
S1131DA0E953F64F8081809315028F3F11F490938D
S1131DB0160290832093C30981E08093260285E074
S1131DC00E94570605C08FEF8093170210922602D7
S1131DD021E001C020E0812F99278FBF90E02130BE
S1131DE009F491E081E09827892F99271F9108959C
S1131DF01F93982F8FB7F894182F80912B0283305C
S1131E00B1F580911E02891791F580911C0220E0A2
S1131E1030E08F3F11F421E030E0232BF9F48F3FC1
S1131E2019F42FEF30E00EC0282F3327F901E559BC
S1131E30F34F808180931C028F3F11F480931D0225
S1131E408FEF80832093430C8FEF80931E0281E0F9
S1131E5080932B0282E10E94570605C084E08093A0
S1131E601E0210922B021FBF80E090E003C01FBF30
S1131E7081E090E01F9108951F93982F1FB7F89465
S1131E8080912C02823099F580912102891779F58D
S1131E9080911F0220E030E08F3F11F421E030E018
S1131EA0232BF1F49FEF909321028F3F19F42FEF2E
S1131EB030E00DC0282F3327F901E553F64F808118
S1131EC080931F028F3F11F49093200290832093FC
S1131ED0EC0E81E080932C0283E10E94570605C03A
S1131EE08FEF8093210210922C0221E001C020E0A8
S1131EF0812F99278FBF90E0213009F491E081E090
S1131F009827892F99271F910895109232028230C1
S1131F1031F0833041F0813049F480E101C08EE03A
S1131F200E943C0F08958FE00E943C0F08950F9388
S1131F301F93982F1FB7F89480912802823099F547
S1131F4080911A02891779F58091180220E030E017
S1131F508F3F11F421E030E0232BF1F49FEF9093B5
S1131F601A028F3F19F42FEF30E00DC0282F3327CA
S1131F70F901E550F64F8081809318028F3F11F4E8
S1131F809093190290832093FE0981E080932802A4
S1131F908DE00E94570605C08FEF80931A021092BD
S1131FA0280201E001C000E0812F99278FBF1FB7ED
S1131FB0F89480912802882311F40E940809812F43
S1131FC099278FBF90E0013009F491E081E09827D0
S1131FD0892F99271F910F910895AF92BF92CF92A5
S1131FE0DF92EF92FF920F931F93282F33278BE0FA
S1131FF090E0289FF001299FF00D389FF00D1124E7
S1132000E05FF74F82819381A481B5810097A10598
S1132010B10569F080819181880F991F9183808334
S11320208150944020F080E094E0918380838BE0A1
S113203090E0289F5001299FB00C389FB00C1124C8
S113204080E198E0A80EB91EF50186819781A085EC
S1132050B18582839383A483B583C080D180EE2429
S1132060FF2469E0CC0CDD1CEE1CFF1C6A95D1F743
S11320700E948F07DC01CB01F50100811181B801B9
S1132080762F6627770F0E94EB36AA27BB278C0D85
S11320909D1DAE1DBF1D222733274AE0000F111FCF
S11320A0221F331F4A95D1F7081B190B2A0B3B0B30
S11320B006831783208731872281338144815581A8
S11320C0280F391F4A1F5B1F2283338344835583A0
S11320D01F910F91FF90EF90DF90CF90BF90AF9042
S11320E008958091DF09823031F481E08093DF0923
S11320F088E00E94570608958093740C882311F495
S113210084E001C081E08093DF0988E00E945706E3
S11321100895843021F0853051F0833079F4809132
S11321200602813059F482E00E9457060895809196
S11321300602813019F482E00E9457060895CF9375
S1132140DF93FC018FE3828780910F088F5F809378
S11321500F08DF011196ED018A83809127028823FD
S113216019F085E090E026C0E458FF4F808191810A
S1132170EC57F040892B71F0ED0129813327322F80
S11321802227818199278062282B392B2183232FB1
S113219033272983F0932F0CE0932E0C1092250CF7
S11321A01092240C81E08093270286E00E94570657
S11321B080E090E0DF91CF910895FF920F931F93F9
S11321C0CF93DF93F82E8B01EA01622F213718F0A9
S11321D086E090E092C0FA0131968181298170E015
S11321E09927582F44273327422B532BCA0187742E
S11321F09C7C8154984809F471E0772349F4CA011E
S113220080739070816498688983892F992781836A
S1132210635F68832FB7F8943327809112029091FB
S113222013022FBF8887892F992789872FB7F8949E
S11322303327809114022FBF99278C831D82CE01EE
S11322400E941808FC01F0820E83812F99278F8346
S11322508FB7F894282F332780912602882371F4AE
S113226082E080932602109217022FBFCE010E94B3
S11322709F109927182F882399F00FC02FBFD09350
S1132280C509C093C4098FB7F894C82FDD272C2F34
S113229080912602882399F406C080E00E94AF0E44
S11322A0812F99272AC081E0809326021092C309C6
S11322B085E00E945706CFBF80E090E01EC0809169
S11322C0C7098F3F89F4E0911602EE2369F010C02C
S11322D01092150204C0FF27E953F64F10821092A2
S11322E0160280E090E002C085E090E02FBF05C0B8
S11322F0809115028F3F79F7EBCFDF91CF911F913A
S11323000F91FF900895EF92FF920F931F93CF9335
S1132310DF93809111029927019665E070E00E9495
S1132320FF36682F8093110200E0462F5527FA01EB
S1132330EE0FFF1FE753F44FC081D181209799F02E
S1132340E62FE695E695E695FF27E159F34F808160
S113235099279A012770307002C0959587952A9520
S1132360E2F780FF0DC0CA01019665E070E00E94AB
S1132370FF36682F0F5F0530C1F6009311021FC0AE
S1132380609311026530D8F4E88083EFE80EFF24EF
S11323900F811127102F00278E819927082B192BC5
S11323A0CE010E941808FC012E2DAE01B8018081D7
S11323B00E94DD10882319F084E00E945706DF9103
S11323C0CF911F910F91FF90EF900895EF92FF929C
S11323D00F931F93CF93DF93E82E8B01F42E84E0A9
S11323E08E1518F481E090E03BC0CE2DDD27CC0F94
S11323F0DD1FC753D44F88819981892B19F085E05B
S113240090E02EC079836883EDE0FE0EFB01F0823C
S1132410F3EFFF0E80911102853018F480E090E014
S11324201FC0CB010E941808FC018081F80167815C
S11324307727762F662726813327622B732BE0922A
S113244011022F2DA8010E94DD109927282F88231F
S113245029F085E08093110219821882822F99272E
S1132460DF91CF911F910F91FF90EF900895AF925C
S1132470BF92CF92DF92EF92FF920F931F93BC0112
S11324808091B308882309F47DC08091DD098823F5
S113249009F078C081E08093DD0960932B08872FD1
S11324A0992780932A088EED6030780721F0AA24BA
S11324B0BB24650108C0A0902D02B0902E02C090EC
S11324C02F02D0903002A0922F0811270D2DFC2C42
S11324D0EB2CE0922E0896014427552720932D08D3
S11324E08D2D9927AA27BB27EAE2F8E08283FF24EF
S11324F000271127102F0F2DFE2CEE24B82FAA270A
S113250099278827332744275527A90133272227CA
S1132510822B932BA42BB52B2A2D33274427552705
S1132520822B932BA42BB52BE82AF92A0A2B1B2BDD
S1132530E114F1040105110511F410E010C060501C
S11325407E4D21F41AE069E37CE003C010E060E012
S113255070E0412F552780E398E00E9449378FEFC0
S113256080932408809325088EE198E00E9418083F
S1132570FC0180E680831A5F412F6EE178E083E0FE
S11325800E94E6111F910F91FF90EF90DF90CF9082
S1132590BF90AF900895BF92CF92DF92EF92FF92D7
S11325A00F931F93B82E8091A708882339F085E0F4
S11325B080932A0281E10E9457061DC08B2D992722
S11325C0FC01EE0FFF1FE80FF91FE652F74F2081C1
S11325D03181BB2011F461E601C060E6A1E0CA2E9E
S11325E0D12CEE24FF2400E010E040E08AE00E94B9
S11325F0B108B092D90B1F910F91FF90EF90DF902B
S1132600CF90BF900895CF92DF92EF92FF920F93F5
S11326101F938091A708882339F085E080932A02CC
S113262081E10E94570629C04091DB0B842F992732
S1132630FC01EE0FFF1FE80FF91FDF01A652B74F91
S11326402D913C91E452F74F808182FF06C04423D0
S113265011F068E807C069E805C0442311F063E895
S113266001C066E811E0C12ED12CEE24FF2400E065
S113267010E040E089E00E94B1081F910F91FF90A3
S1132680EF90DF90CF900895CF92DF92EF92FF9278
S11326900F931F93982F80912902882319F085E0C6
S11326A090E04AC0E92FFF27E131F105A8F4E7568D
S11326B0FF4FEE0FFF1F0590F491E02D099483E086
S11326C00E94DA069927282F882339F481E0809321
S11326D0290280E090E030C021E0822F99272CC0AD
S11326E0CC24DD24760100E010E020E030E040E07E
S11326F050E063E0E4CFCC24DD24760100E010E078
S113270020E030E040E050E061E0D9CFCC24DD248B
S1132710760100E010E020E030E040E050E062E0CC
S1132720CECFCC24DD24760100E010E020E030E0C0
S113273040E050E060E0C3CF1F910F91FF90EF9015
S1132740DF90CF900895BF92CF92DF92EF92FF92E5
S11327500F931F93B82E80912902882319F085E0E6
S113276090E04CC0EB2DFF27E131F105B8F4E655BC
S1132770FF4FEE0FFF1F0590F491E02D099482E0C6
S11327800E94DA069927282F882349F481E0809350
S11327902902B092EE0E80E090E030C021E0822F5A
S11327A099272CC0CC24DD24760100E010E020E041
S11327B030E040E050E063E0E2CFCC24DD24760159
S11327C000E010E020E030E040E050E061E0D7CFEE
S11327D0CC24DD24760100E010E020E030E040E08D
S11327E050E062E0CCCFCC24DD24760100E010E0A0
S11327F020E030E040E050E060E0C1CF1F910F9155
S1132800FF90EF90DF90CF90BF9008954F925F922A
S11328106F927F928F929F92AF92BF92CF92DF92EC
S1132820EF92FF920F931F93CF93DF932C0180912C
S11328301B08882309F08EC18091ED0E853009F0C4
S113284089C10E948A09882309F484C180914A0CB1
S1132850882309F07FC1E201CC57DF4F888182FDD4
S113286002C090E00BC025E830E0420E531EF20196
S113287091812BE73FEF420E531E9F708091870A90
S1132880981781F09093870A289885EC8EBD0DB433
S113289007FEFDCF8EB590689EBD0DB407FEFDCF3B
S11328A08EB5289A42010894811C911CF4018181FF
S11328B0F201218140E09927982F88273327822B22
S11328C0932B87749C7C8154984809F441E04423F9
S11328D001F1289886E88EBD0DB407FEFDCF8EB5B4
S11328E01EBC0DB407FEFDCF8EB5289A99278F71B3
S11328F090702091F5094091C809240F312D311DA4
S113290043E0359527954A95E1F7281739070CF4E4
S113291021C1289882EC8EBD0DB407FEFDCF8EB583
S113292089E08EBD0DB407FEFDCF8EB5289A0E94B6
S1132930B6097B018C01888184FD03C0C0E0D0E02E
S113294006C0F20180818550E201C80FD11D28988C
S113295081E88EBD0DB407FEFDCF8EB51EBC0DB44F
S113296007FEFDCF8EB5289A8F71893079F02898AB
S113297082EC8EBD0DB407FEFDCF8EB586E08EBD14
S11329800DB407FEFDCF8EB5289AE4C08FB7F89436
S113299099272F9A20918400309185008FBF2F981A
S11329A0289880E68EBDF20190810DB407FEFDCF1C
S11329B08EB59EBD792F7250773010F4672F01C009
S11329C067E0962FF40141910DB407FEFDCF8EB55B
S11329D04EBD9150C1F76150F401E60FF11D6F5FD8
S11329E031962E193F092E553F4F3901882477FC23
S11329F08094982C6E0C7F1C801E911E209719F4D5
S1132A00972F961B42C02881E9808A81AB80992741
S1132A10AA27BB27BA2FA92F982F88273327442703
S1132A205527522F442733272227FF240027112715
S1132A308701FF24EE242E293F29402B512BBB2450
S1132A40CC24DD242A293B294C295D29822B932B74
S1132A50A42BB52B86199709A809B9098B83292FAB
S1132A603A2F4B2F55272A839D0144275527298325
S1132A708B2F9927AA27BB278883C2CF20810DB427
S1132A8007FEFDCF31968EB52EBD9150B8F70DB42B
S1132A9007FEFDCF8EB5289A289882EC8EBD0DB422
S1132AA007FEFDCF8EB586E08EBD0DB407FEFDCFCB
S1132AB08EB5289A2097D1F12881E9808A81AB804C
S1132AC09927AA27BB27BA2FA92F982F88273327FE
S1132AD044275527522F442733272227FF24002732
S1132AE011278701FF24EE242E293F29402B512B47
S1132AF0BB24CC24DD242A293B294C295D29822BA3
S1132B00932BA42BB52B860D971DA81DB91D8B8364
S1132B10292F3A2F4B2F55272A839D0144275527C8
S1132B2029838B2F9927AA27BB278883C2010E9458
S1132B30DB09C2010E94E209FC0160827182828287
S1132B40938286E08093ED0E84E080931B0880E0FE
S1132B5090E002C085E090E0DF91CF911F910F914A
S1132B60FF90EF90DF90CF90BF90AF909F908F90A9
S1132B707F906F905F904F900895AF92BF92CF92E5
S1132B80DF92EF92FF920F931F93CF93DF93809185
S1132B904A0C882309F407C10E948A09882309F48E
S1132BA002C18FB7F8949927C091F809D091F90917
S1132BB08FBF10924A0C28988FE88EBD0DB407FE83
S1132BC0FDCF8EB51EBC0DB407FEFDCF8EB5289A81
S1132BD0982F80911B08833011F0873031F485E001
S1132BE08093ED0E88E080931B08A92EBB24A2FEDF
S1132BF068C080911B08863019F410921B0803C02A
S1132C00882309F05EC0943009F046C0289886E80D
S1132C108EBD0DB407FEFDCF8EB51EBC0DB407FEF0
S1132C20FDCF2EB5289A2F718091C809982F9695BB
S1132C309695322F391B830F8093C809E091B80809
S1132C40F091B908DF01AC57BF4F8C918B7F88603E
S1132C508C93EB57FF4F21830E94B6096B017C01D3
S1132C600091B8081091B908C8010E94DB09C80195
S1132C700E94E209FC01CC19DD092797CE01AA279D
S1132C8097FDA095BA2F8C0D9D1DAE1DBF1D808391
S1132C909183A283B38312C0E091B808F091B9087C
S1132CA0EC57FF4F8081877F8083E091B808F091D3
S1132CB0B908EC57FF4F80818D7F808385E0809336
S1132CC01B08A3FE70C080911B08843009F04EC01D
S1132CD085E08093ED0E10921B088091BA08833032
S1132CE019F41092BA085FC0C091F50ED091F60E97
S1132CF0CE010E94E509882389F18A8129819927D7
S1132D00982F88273327822B932B87749C7C81549C
S1132D10984821F58F812E819927982F882733276A
S1132D20822B932B8F5F9F4FC9F090E080911A0CF8
S1132D30882309F491E0992389F012E01093FF09A4
S1132D4081E080931A0C809184009091850069E958
S1132D5073E00E94F6091093BA0825C01092BA08CD
S1132D601092E00980E00E947C101DC08530D9F4E7
S1132D702091F509289886E88EBD0DB407FEFDCF95
S1132D808EB51EBC0DB407FEFDCF8EB5289A8F718B
S1132D90922F96959695891B280F2093F50989E023
S1132DA080931B0808C090911B08992309F4E9C279
S1132DB0993009F016C2289880E28EBD0DB407FE42
S1132DC0FDCF8EB51EBC0DB407FEFDCF8EB5482FCA
S1132DD05527433008F49DC3842F99278E379105D6
S1132DE00CF097C31EBCE091B808F091B908408379
S1132DF0542F5250573010F4452F01C047E0DF01E3
S1132E001196242FFD0160E070E00DB407FEFDCFA4
S1132E108EB51EBC992781936827062E6295607F24
S1132E206025072E762F62956F70062666957627A5
S1132E306727660F660F660F6025215031F74150F2
S1132E40A40FB11D4F5F1196E091B808F091B90835
S1132E50818190E08770823009F491E0992349F0F0
S1132E6020E030E08091BA08823081F421E030E043
S1132E700DC08FB7F894282F332790E08091440C2D
S1132E80833008F491E02FBF292F3327232B09F433
S1132E905EC0952F941B18C00DB407FEFDCF8EB5F0
S1132EA01EBC8C938D916827062E6295607F6025E9
S1132EB0072E762F62956F7006266695762767270C
S1132EC0660F660F660F6025915030F70DB407FE4C
S1132ED0FDCF8EB51EBC9B012827022E2295207F94
S1132EE02025032E322F22952F7002262695322775
S1132EF02327220F220F220F20250DB407FEFDCF1A
S1132F008EB51EBC2827022E2295207F2025032E55
S1132F10322F22952F700226269532272327220F3F
S1132F20220F220F20250DB407FEFDCF8EB5E091B0
S1132F30B808F091B908EB57FF4F8083289A15E041
S1132F401093ED0E10921B08232B31F016C20DB412
S1132F5007FEFDCF8EB5DDC2E090B808F090B90849
S1132F6067010894C11CD11CF701818190E0282FCE
S1132F703327277030702230310509F491E08091B5
S1132F80BA08992329F1823009F026C1F701938107
S1132F90E091F50EF091F60E8381981709F01CC1AB
S1132FA02230310509F018C180916F008D7F809324
S1132FB06F0010921A0CEC57FF4F80818160808360
S1132FC01092BA081092E00980E00E947C1004C1BB
S1132FD08823C9F4C7010E94200A8823A1F0109312
S1132FE0880A82E08093890A10928A0AF701838111
S1132FF080938B0A88E89AE00E940614882319F4C7
S113300083E08093BA080091840010918500C70181
S11330100E94200A882311F0045E1C4F1093C80BF1
S11330200093C70B80918400909185009801281B20
S1133030390B12161306A4F48091E009882369F46D
S113304090E080911A0C882309F491E0992341F0CF
S1133050C9010E94A10E80E801C080688093E00944
S1133060F601808527819927582F44273327422B3F
S1133070532B8091C108282F3327F901EE0FFF1F2E
S1133080E55BF34F8081918170911D0C8417950746
S113309069F4F901E151F14F8081871709F467C0A0
S11330A0872F8F5F80931D0C80831DC000E010E08C
S11330B080E090E0CBE4DCE0EFEEFEE0DF01682F9F
S11330C09C01888199818417950779F42093C1081C
S11330D090911D0C8C91891709F449C0892F8F5F39
S11330E080931D0C8C9300E829C08081972F981B36
S11330F0091710F4092F122F6F5FC9010196119659
S11331002296319685309105D1F66530B9F4109345
S1133110C108A12FBB27FD01EE0FFF1FE55BF34F95
S11331205183408380911D0C8F5F80931D0CFD01A2
S1133130E151F14F8083A950B14F1C9290911D0C25
S1133140892F8F778F3779F40F3768F0EFEEFEE031
S1133150292F207880818F678913208331963EE060
S1133160E43FF307B9F78091C108282F3327F6010C
S11331709281A22FBB27FD01E950F14F808180FF8E
S113318007C0FD01EB5BF34F8081981729F102C062
S113319081608083AB5BB34F9C93DFB6F8948091DE
S11331A0440C8330B0F4E091680CE80FE33008F08D
S11331B0E350FF27EE0FFF1FE855F74F0081118101
S11331C0F182E0828F5F8093440C89E00E9457066D
S11331D078018D2D99278FBFF092B908E092B80835
S11331E0C3C0892F8150833008F09CC08150823045
S11331F0E0F43091ED0E3130C1F420E080911A0CEE
S1133200882309F421E0222381F02F9883E080931E
S1133210FF0930931A0C80918400909185006BE231
S113322073E00E94F60982E068C0933009F042C05E
S11332308091ED0E833009F097C00E948A0988239B
S1133240C9F128988FE88EBD0DB407FEFDCF8EB569
S11332501EBC0DB407FEFDCF8EB5289A8091810067
S113326080648093810080E286BB80916F008062DD
S113327080936F009091C209289888EC8EBD0DB49C
S113328007FEFDCF8EB590669EBD0DB407FEFDCF43
S11332908EB5289A289882EC8EBD0DB407FEFDCF1A
S11332A08EB586E08EBD0DB407FEFDCF8EB5289A8F
S11332B084E023C080911B088150823000F5809106
S11332C0ED0E8530E1F40E948A098823C1F0289824
S11332D082EC8EBD0DB407FEFDCF8EB583E08EBDAE
S11332E00DB407FEFDCF8EB5289A80916F008F7DB7
S11332F080936F0010924A0C83E08093ED0E9091BE
S11333001B08913041F48091ED0E8330B1F52F9A72
S11333109093ED0E25C0923039F58091ED0E8330F7
S113332061F51EC0973001F50E948A098823E1F0F7
S11333309091C209289888EC8EBD0DB407FEFDCF8C
S11333408EB590669EBD0DB407FEFDCF8EB5289A4E
S11333508091ED0E853021F484E08093ED0E04C05D
S113336088E080931B0804C080911B08883029F4EE
S113337010921B0887E00E94570680911B0888233F
S113338009F58091ED0E8530D1F480914A0C8823A3
S1133390B1F48091BA08882391F48091E0098823DC
S11333A071F490E080911A0C882309F491E0992338
S11333B031F00E94711080911B08882319F48BE06E
S11333C00E94570680911A0C823009F095C0109221
S11333D01A0CC090FF09F2E0CF1609F469C023E08B
S11333E0C21609F46DC031E0C31609F085C02091FE
S11333F0C70B3091C80B8091840090918500409157
S1133400E009403829F41092E0090E94711074C058
S11334108901081B190B47FF03C01016110604F19C
S1133420C091C909D091CA098091BA088823C1F40E
S1133430CE010E9406149927882369F4FE01EC57F3
S1133440FF4F80818E7F8083C092BA08D093F60E9E
S1133450C093F50E29C09927F82E882329F102C0BC
S113346065E0F62E2091E009822F99278F77019746
S113347059F4207822602093E00980E198E00E94CA
S1133480530A0E94A10E38C027FF0AC01016110665
S11334903CF480E88093E009C8010E94A10E02C0B8
S11334A01092E0098F2D09C083E08093E00924C0C5
S11334B01092BA081092E00980E00E947C101CC0AF
S11334C08091ED0E823019F4C092ED0E13C08091FC
S11334D01B08863079F410921B08289881E88EBD69
S11334E00DB407FEFDCF8EB51EBC0DB407FEFDCF97
S11334F08EB5289A0E94B21A8FB7F894282F3327D2
S11335008091C109813061F081E08093C1092FBFAE
S11335103ECB289A85E08093ED0E10921B082DCFA8
S11335201092C1092FBFDF91CF911F910F91FF908E
S1133530EF90DF90CF90BF90AF9008958FB7F8943D
S1133540282F33278091C10981508093C109803885
S113355011F02FBF089581E08093C1092FBF0E940D
S1133560BD1508958FB7F894282F33278091C1098A
S1133570882329F080688093C1092FBF089581E0D2
S11335808093C1092FBF0E94BD15089578941F929E
S11335900F920FB60F9211242F933F934F935F9383
S11335A06F937F938F939F93AF93BF93EF93FF9307
S11335B0E6E8F0E080819181208131818FB7F89431
S11335C099273093F9092093F80921E020934A0CB4
S11335D08FBF0E94B21AFF91EF91BF91AF919F915B
S11335E08F917F916F915F914F913F912F910F90A8
S11335F00FBE0F901F90189578941F920F920FB6DC
S11336000F9211242F933F934F935F936F937F9364
S11336108F939F93AF93BF93EF93FF9380916F002A
S11336208D7F80936F0078949FB7F89480911A0CE3
S1133630813019F482E080931A0C892F99278FBF67
S11336400E94B21AFF91EF91BF91AF919F918F9118
S11336507F916F915F914F913F912F910F900FBE8A
S11336600F901F901895EF92FF920F931F938091E4
S11336703D0B843090F41092AE0864E5E62EF12CF4
S1133680012D112D2DE639E040E050E060E070E0BE
S11336908091EF090E94D00D2DC08FB7F89499271F
S11336A02091C1092F5F2093C1098FBF8091DF0949
S11336B08823D9F480911B088823B9F48091ED0EF6
S11336C0813049F490E080911A0C882309F491E048
S11336D0992359F002C0853041F083E080931B08A0
S11336E00E94B21A85E08093DF090E949E1A83E04B
S11336F08093AE081F910F91FF90EF900895EF9281
S1133700FF920F931F938091AE08823009F04EC050
S11337108091BB089927982F88272091BC083327CC
S1133720822B932BE816F906A9F08091EF098130DA
S113373049F0813028F0823049F08330B9F508C06F
S11337408AE001C08DE00E94A31330C08BE0FBCF60
S11337508CE0F9CF4091C6094F5F4093C609809130
S113376075094817B0F481E08093AE085527440FDB
S1133770551F40585F4F66277727E2E0EE2EF12C65
S1133780012D112D2BEB38E08091EF090E94D00D13
S11337900DC0E0913D0BEF5FE0933D0BFF27EE5F23
S11337A0FD4F80818093EF090E94331B1F910F917D
S11337B0FF90EF900895CF92EF92FF920F931F9393
S11337C0873061F0883018F4863079F405C0883089
S11337D039F0893051F406C080E005C082E003C0AE
S11337E083E001C081E00E947F1B1F910F91FF9035
S11337F0EF90CF9008958091AE08823019F0833015
S113380071F4FBCFE0913D0BEF5FE0933D0BFF279D
S1133810EE5FFD4F80818093EF090E94331B089572
S11338209F92AF92BF92CF92DF92EF92FF920F934B
S11338301F93982EF9018091AE08813009F4D5C008
S1133840813008F478C0843009F00FC183E080939C
S1133850AE088091560C882309F007C1A280BB24CE
S1133860CC24DD24DC2CCB2CBA2CAA2420813327B5
S113387044275527522F442733272227818199270C
S1133880AA27BB27DC0199278827282B392B4A2B09
S11338905B2B83819927AA27BB27282B392B4A2BFB
S11338A05B2BA22AB32AC42AD52AE090E809FF2474
S11338B000271127102F0F2DFE2CEE242091E6094E
S11338C0332744275527522F442733272227809113
S11338D0E7099927AA27BB27DC0199278827282BE2
S11338E0392B4A2B5B2B8091E9099927AA27BB27FF
S11338F0282B392B4A2B5B2BE22AF32A042B152B7A
S1133900AE14BF04C006D10681F48091E509843069
S113391051F440E050E060E070E0892D0E94DF083F
S11339200E949D0CA2C081E001C082E0809331021C
S11339300E949A089AC0CC2009F097C0E0906F09C1
S1133940FF2400271127102F0F2DFE2CEE24209189
S11339506D09332744275527522F4427332722271D
S113396080916E099927AA27BB27DC01992788270C
S1133970282B392B4A2B5B2B809170099927AA2776
S1133980BB27282B392B4A2B5B2BE22AF32A042B47
S1133990152B8FEFE8168FEFF8068FEF08078FEFE0
S11339A01807A9F01092C60981E08093AE08B2E02E
S11339B0EB2EF12C012D112D2BEB38E040E850E0DB
S11339C060E070E08091EF090E94D00D4EC0E0915C
S11339D03D0BEF5FE0933D0BFF27EE5FFD4F8081D2
S11339E08093EF090E94331B40C082E08093AE08AD
S11339F06091C60977278827992720E534E040E0BD
S1133A0050E00E94CC36AB01BC0140585E4F6F4F72
S1133A107F4F8091EF09813079F0813028F0823036
S1133A2099F0833011F518C0EE24FF2400E514E06A
S1133A3020E030E086E017C0EE24FF2400E514E027
S1133A4020E030E089E00FC0EE24FF2400E514E01C
S1133A5020E030E087E007C0EE24FF2400E514E016
S1133A6020E030E088E00E942F0D1F910F91FF901D
S1133A70EF90DF90CF90BF90AF909F900895AF925A
S1133A80BF92CF92DF92EF92FF920F931F930E9407
S1133A9066077B018C016091020C7091030C80918C
S1133AA0040C9091050CA0901208B0901308C090DB
S1133AB01408D0901508A114B104C104D10409F468
S1133AC04EC0EFB7F89420911E0C20FD36C0A8011B
S1133AD09701261B370B480B590B2A153B054C0540
S1133AE05D05C8F4A21AB30AC40AD50A8091120863
S1133AF090911308A0911408B0911508821B930BA0
S1133B00A40BB50B8093120890931308A093140888
S1133B10B093150815C081E090E0A0E0B0E0809378
S1133B20120890931308A0931408B093150821E089
S1133B30A22EB12CC12CD12C03C02E7F20931E0C9D
S1133B408E2F99278FBF0E946607AB01BC0191E0BD
S1133B50E92E9601850184E00E94470705C0809103
S1133B600A0C8D7F80930A0C1F910F91FF90EF90A8
S1133B70DF90CF90BF90AF900895FF920F931F9363
S1133B80CF93DF93F82E282F33278BE090E0289FE4
S1133B90E001299FD00D389FD00D1124C05FD74F6D
S1133BA081E090E0998388831A868A819B81AC8125
S1133BB0BD810097A105B105A1F00FB7F8941127B5
S1133BC0C9010E94C50A0FBF1A821B821C821D8272
S1133BD01E821F82188619868F2D0E94ED0F0E9467
S1133BE03F1DDF91CF911F910F91FF900895AF92E8
S1133BF0BF92CF92DF92EF920F931F9320912C0CE0
S1133C0033272150304081E090E0A0E0B0E004C0D0
S1133C10880F991FAA1FBB1F2A95D2F78093280CDF
S1133C209093290CA0932A0CB0932B0C0E948F071D
S1133C30A090280CB090290CC0902A0CD0902B0C8A
S1133C40882799270894A108B108C108D1086A21D6
S1133C507B218C219D210894A11CB11CC11CD11C69
S1133C60A60EB71EC81ED91EA092280CB092290C0D
S1133C70C0922A0CD0922B0C80912D0C8E7F8093B5
S1133C802D0C8091010C8D7F8093010C0E9466079E
S1133C90AB01BC0131E0E32E9601850183E00E9473
S1133CA047071F910F91EF90DF90CF90BF90AF9097
S1133CB0089580912C0C893029F089E080932C0C94
S1133CC00E94F71D0895AF92BF92CF92DF92EF92B8
S1133CD00F931F93882389F00E948F075B016C0167
S1133CE08FEF90E0A0E0B0E0A822B922CA22DB2244
S1133CF080E190E0A0E0B0E010C00E948F075B017B
S1133D006C018FE790E0A0E0B0E0A822B922CA22BB
S1133D10DB2280E890E0A0E0B0E0A80EB91ECA1E45
S1133D20DB1E0E946607AB01BC01E1E0EE2E9601AA
S1133D30850181E00E9447071F910F91EF90DF906A
S1133D40CF90BF90AF900895EF920F931F9382305E
S1133D50E1F0833028F4882341F08130D9F508C09C
S1133D608330B1F18430B1F533C01092220232C0F5
S1133D7080912302853071F58091F0098150809300
S1133D80F00980E00E94631E25C02091510BE22FB0
S1133D90E695E695E695FF27E05EF34F277081E010
S1133DA090E002C0880F991F2A95E2F78095208140
S1133DB0282320830E946607AB01BC01F1E0EF2EAB
S1133DC002E010E020E030E081E00E94470702C0FA
S1133DD01092DD091F910F91EF900895EF92FF92D9
S1133DE00F931F93CF93DF93CDB7DEB722970FB610
S1133DF0F894DEBF0FBECDBF60912302862F8250A0
S1133E00823008F0CBC0E090320CFF240027112749
S1133E10102F0F2DFE2CEE242091300C3327442735
S1133E205527522F4427332722278091310C992775
S1133E30AA27BB27DC0199278827282B392B4A2B53
S1133E405B2B8091330C9927AA27BB27282B392B6E
S1133E504A2B5B2BE22AF32A042B152B80910702B1
S1133E6090910802A0910902B0910A028E159F0553
S1133E70A007B10729F480912D0C816080932D0C4B
S1133E80623061F580912502882309F087C081E0C2
S1133E908093250283E00E94DB1F809107029091AA
S1133EA00802A0910902B0910A0280934F0B292FB6
S1133EB03A2F4B2F552720934E0B9D01442755270E
S1133EC020934D0B8B2F9927AA27BB2780934C0B4C
S1133ED080910B028093500B1092510B6091510B07
S1133EE077272AE030E040E25CE0CE0101960E94B0
S1133EF01B06882321F081E00E94DB1F4FC08981CB
S1133F008093510B20910B02422F55276627772768
S1133F109AE0440F551F661F771F9A95D1F72AE63A
S1133F20829FC0011124AA27BB27480F591F6A1F6B
S1133F307B1F80912402823079F08330B1F081308C
S1133F4011F081E01CC00AE6E02EF12C012D112DA8
S1133F5022E53BE082E011C01AE6E12EF12C012DAE
S1133F60112D22E53BE080E008C0BAE6EB2EF12CEF
S1133F70012D112D22E53BE081E00E94830D882371
S1133F8069F00E946607AB01BC01A1E0EA2E00E1E2
S1133F9010E020E030E081E00E94470722960FB64F
S1133FA0F894DEBF0FBECDBFDF91CF911F910F916B
S1133FB0FF90EF900895823040F490912302933063
S1133FC011F0953011F41092250280932302089584
S1133FD00F931F938B019C0190912302892F825090
S1133FE08230F0F48091070290910802A0910902B6
S1133FF0B0910A02081719072A073B074CF0081763
S113400019072A073B0741F580910B02481720F551
S113401081E00E94DB1F1092200C1092210C1CC026
S113402094509230C8F480910C0290910D02A091AA
S11340300E02B0910F02081719072A073B074CF02C
S1134040081719072A073B0739F4809110028417CF
S113405018F081E08093570C1F910F910895CF922F
S1134060EF920F931F9389018BE02235380789F56E
S113407080912302833069F5CC2021F081E00E94F5
S1134080DB1F27C08091DC0B9091DD0B8093460BE6
S1134090892F99278093470BC90142970E941808DA
S11340A0FC0182E5808340E7B8016251704082E000
S11340B00E94E611882369F00E946607AB01BC01E7
S11340C0A1E0EA2E00E110E020E030E081E00E946F
S11340D047071F910F91EF90CF900895CF92EF92E1
S11340E0FF920F931F938630C1F0873038F48130EC
S11340F071F0813050F08230C9F40DC0883089F0FD
S1134100883068F0893091F40EC082E001C083E009
S11341100E942F200BC081E0FBCF80E005C082E02D
S113412003C083E001C081E00E94101C1F910F9125
S1134130FF90EF90CF900895DF92EF92FF920F934C
S11341401F937B018C01D42E80912302882319F4C0
S113415081E00E94DB1FE0920C02F0920D020093BA
S11341600E0210930F02D09210028FEF80930F0B68
S11341708093100B80E090E01F910F91FF90EF90DF
S1134180DF900895809123028430F1F58091250217
S1134190882309F079C081E08093250285E00E949C
S11341A0DB1F8091DC0B9091DD0B80934D0B892FED
S11341B0992780934C0B8091000290910102809387
S11341C04F0B892F992780934E0B80910C0290916D
S11341D00D02A0910E02B0910F028093530B292F70
S11341E03A2F4B2F55272093520B9D0144275527D7
S11341F02093510B8B2F9927AA27BB278093500B11
S1134200809110028093540B809123028530E1F554
S11342108091570C882331F080E00E94631E109235
S1134220570C08958091F009882321F481E00E94BD
S1134230DB1F089580910F0B8093550B8091100B19
S11342408093560B80914C0B9927982F88272091A7
S11342504D0B3327822B932B8093460B892F992761
S11342608093470B80E49BE00E941808FC0181E5E1
S113427080834BE060E47BE081E00E94E6118823C8
S113428019F080E00E94631E0895AF92BF92CF920E
S1134290DF92EF92FF920F931F93CF93DF935B0113
S11342A06C01C0E0D0E0EEEDFBE0608561FFD3C0BF
S11342B02081318142815381E480F5800681178118
S11342C0D601C501821B930BA40BB50B8E159F055C
S11342D0A007B10708F4BFC060FF03C06D7F60870B
S11342E008C02E0D3F1D401F511F20833183428380
S11342F05383C230E1F0C33030F4CC2351F0C130E9
S113430009F0AFC00FC0C330B1F0C43009F0A9C088
S11343106DC08FB7F894992722B134E0232722B9CE
S11343208FBF9FC00E94C2200E94EE1E9AC086E0EA
S11343300E94570696C080912D0C80FD33C0809159
S11343402202882379F580910002909101028093E2
S1134350ED08892F99278093EC0882E08093EE087A
S11343601092EF08A0EFB8E0E0E3FCE089E00190F0
S11343700D928150E1F78FEF8093E6088093E70870
S113438080EE98E00E941808FC0180E580834EE0EE
S113439060EE78E080E00E94E611882319F481E061
S11343A08093220290E080912302823008F091E011
S11343B080912D0C992319F08170846007C0982F87
S11343C0969531F09150990F8170892B80932D0C23
S11343D080912D0C8E7F39F480912C0C863118F449
S11343E08F5F80932C0C0E94F71D3BC02091060C1C
S11343F03091070C4091080C5091090C80911208DF
S113440090911308A0911408B09115080097A10584
S1134410B105F1F082179307A407B507C9F4809199
S11344201A08882361F42FB7F89433278091DA0BA4
S113443081608093DA0B2FBF85E10E94570680E0EC
S113444090E00E94C50A80E00E94ED0F10921A08C5
S11344500E943F1D06C021963996C630D10509F049
S113446024CF81E00E945706DF91CF911F910F91D5
S1134470FF90EF90DF90CF90BF90AF900895809120
S1134480010C8D7F8093010C8091EF0B8D7F8093C5
S1134490EF0B80E00E94DB1F8FEF90E0A0E0B0E024
S11344A080930C0290930D02A0930E02B0930F021E
S11344B09FEF9093100210920F0B1092100B10921A
S11344C0200C1092210C85E0809306029093330C0B
S11344D01092320C1092310C1092300C9093340CD8
S11344E09093370C10922C0C80E090E00895EF929A
S11344F0FF920F931F938091370CE82FFF27809131
S1134500340CE817A0F56091320C77278827992797
S1134510982F872F762F6627E090300CFF240027F2
S113452011271E2D0027FF24EE242091310C332760
S113453044275527A90133272227E22AF32A042BEB
S1134540152B2091330C332744275527E22AF32ACD
S1134550042B152B6E297F29802B912B4E2F0E9423
S11345609C2084E080932D0C0E94591E1BC04FEFA9
S11345706FEF70E080E090E00E949C200E943F2258
S113458081E0809306028091A508823031F0833067
S113459031F0813039F485E003C083E001C084E068
S11345A00E9444131F910F91FF90EF90089583E0B0
S11345B0809306028091AF089091B008A091B10851
S11345C0B091B2088093330C292F3A2F4B2F5527E3
S11345D02093320C9D01442755272093310C8B2FB7
S11345E09927AA27BB278093300C8091140C9091B3
S11345F0150CA091160CB091170C0197A109B109E3
S11346003AE0B695A795979587953A95D1F78F5F38
S11346108093340C1092370C45E060E37CE080E03A
S113462090E00E9428088093360C892F9927809364
S1134630350C80910602833011F40E94591E84E0E7
S1134640809306028091A508809324020E94772219
S113465008958B3029F18C3060F48430C1F08530BA
S113466018F4833071F513C0853089F08A3049F528
S113467015C08E30E9F08F3028F48C3099F08D30ED
S113468001F512C08F30B1F08031D9F417C0809198
S113469006028823B1F40E94D722089580E005C061
S11346A082E003C083E001C081E00E94FB1B089507
S11346B082E001C083E00E94850F089581E00E949A
S11346C0850F0895CF92EF92FF920F931F93CF938C
S11346D0DF93CDB7DEB722970FB6F894DEBF0FBED7
S11346E0CDBF8091E109482F552780E790E0489F8E
S11346F0F001499FF00D589FF00D1124CF01805F08
S1134700914F2817390709F0E9C0CC2031F08FEF19
S113471080930F0B8093100BD8C0E15FF14F208181
S11347203327E22FE695E695E695FF27E15FF44F00
S11347302770307081E090E002C0880F991F2A959D
S1134740E2F78095208128232083CA01019662E044
S113475070E00E94FF368093E1098091D90881506E
S11347608093D9082AE030E04FE05BE060E070E03D
S1134770CE0101960E941B06882309F4A9C0119A50
S113478060911002E090320CFF2400271127102FB3
S11347900F2DFE2CEE242091300C3327442755276F
S11347A0522F4427332722278091310C9927AA2797
S11347B0BB27DC0199278827282B392B4A2B5B2B15
S11347C08091330C9927AA27BB27282B392B4A2BF6
S11347D05B2BE22AF32A042B152B80910C02909177
S11347E00D02A0910E02B0910F028E159F05A00735
S11347F0B10709F067C08091370C681709F062C0EF
S11348006F5F6093370C45E060E37CE080E090E00C
S11348100E9428088093360C892F99278093350CA1
S11348208091370CE82FFF278091340CE81718F497
S11348300E94772247C06091320C772788279927F6
S1134840982F872F762F6627E090300CFF240027BF
S113485011271E2D0027FF24EE242091310C33272D
S113486044275527A90133272227E22AF32A042BB8
S1134870152B2091330C332744275527E22AF32A9A
S1134880042B152B6E297F29802B912B4E2F0E94F0
S11348909C2081E0809306028091A508823041F03B
S11348A0833041F0813011F081E007C085E003C01E
S11348B083E001C084E00E944413882319F082E05D
S11348C00E94570681E00E94DB1F1092D90806C09F
S11348D08091D908882311F00E943A0E22960FB6CF
S11348E0F894DEBF0FBECDBFDF91CF911F910F9122
S11348F0FF90EF90CF900895CF92EF92FF920F9395
S11349001F93843031F0853031F0833039F482E004
S113491003C083E001C081E00E9462231F910F91D4
S1134920FF90EF90CF900895CF92DF92EF92FF9295
S11349300F931F93CF93DF93C82E7B01D0901B025C
S1134940CD2DDD278BE090E0C89FF001C99FF00DCD
S1134950D89FF00D1124EF5EF44F10818FEF8093F8
S11349601B02108281E0D81659F0D81638F082E084
S1134970D81641F083E0D81651F406C080E005C093
S113498081E003C082E001C083E00E94F80E13308E
S113499009F4A3C0143030F41130B1F1123009F02D
S11349A0AEC05EC0143021F0153009F0A8C06CC050
S11349B0E0906709F09068090091690910916A090B
S11349C08BE090E0C89FF001C99FF00DD89FF00DD7
S11349D01124EF5EF44F43815481658176812181F6
S11349E0328181E0D81649F0D81638F082E0D81622
S11349F021F083E0D81609F082C010922902809138
S1134A00EE0E0E946E207BC0E0906709F09068096A
S1134A100091690910916A098BE090E0C89FF00148
S1134A20C99FF00DD89FF00D1124EF5EF44F438120
S1134A305481658176812181328181E0D81649F0E3
S1134A40D81638F082E0D81621F083E0D81609F0A1
S1134A5056C0109229028091EE0E0E947C244FC011
S1134A6081E0D81649F0D81638F082E0D81621F043
S1134A7083E0D81609F043C0109229026C2D80916E
S1134A80EE0E0E9429233BC000916709109168092A
S1134A902091690930916A098BE090E0C89FF00188
S1134AA0C99FF00DD89FF00D1124EF5EF44F4381A0
S1134AB054816581768181E0D81641F0D81630F0B2
S1134AC082E0D81619F083E0D816C9F410922902AE
S1134AD08091EE0E0E94DB1B12C081E0D81641F0DB
S1134AE0D81630F082E0D81619F083E0D81639F4DD
S1134AF0109229026C2D8091EE0E0E948910DF9194
S1134B00CF911F910F91FF90EF90DF90CF90089578
S1134B10282F8091DE094093DE098330A9F0843088
S1134B2028F4813089F0823069F506C0843009F1B7
S1134B308650823038F513C080911B028F3F11F1EB
S1134B40222389F4CB0108C080911B028F3FD1F04E
S1134B50222349F480E090E00E9463270895809125
S1134B601B028F3F79F060E070E0822F0E94942452
S1134B70089580911B028F3F29F060E070E0822F3E
S1134B800E9494240895CF92DF92EF92FF920F93A4
S1134B901F932091E3093091E4096091DB0B462FC8
S1134BA05527FA01EE0FFF1FE40FF51FDF01A65290
S1134BB0B74F8D919C9111972817390709F0D3C0ED
S1134BC09091DE09953009F44DC0963080F492300E
S1134BD009F493C0933020F4913009F0F7C072C007
S1134BE0933009F4A5C0943009F0F0C007C09830A0
S1134BF008F447C09A3008F0E9C04EC08091690CAF
S1134C0090916A0C81309105E1F08130910520F09A
S1134C10029709F0DBC010C08091A708882309F02F
S1134C20BBC001E0C02ED12CEE24FF2400E010E034
S1134C3040E061E88BE0C8C0E452F74F80818460B3
S1134C408083FA01EE0FFF1FE40FF51FE452F74FC4
S1134C5080818260808340E060E070E080E00E94B8
S1134C608825B4C0E452F74F808181FF9CC08091B5
S1134C70690C90916A0C8D939C9380818D7F8083C5
S1134C8019C0E452F74F808181FF8DC086958695C7
S1134C908695837059F08AC0FA01EE0FFF1FE40F66
S1134CA0F51FE452F74F808181FF7DC0983011F0E9
S1134CB0963011F48EE074C01092DE09892F0E94A0
S1134CC0ED2684C0E452F74F808180FD65C0C0901A
S1134CD0D70BD090D80BE090F609F090F70900912B
S1134CE0690C10916A0C662311F064ED01C066ED45
S1134CF020E030E042E082E067C0E452F74F808178
S1134D0080FD4AC0E090F609F090F709C090D70BF7
S1134D10D090D80B0091690C10916A0C662311F0A5
S1134D2064ED01C066ED20E030E042E083E04CC079
S1134D30E452F74F808180FD2FC0C090D70BD090F4
S1134D40D80BE090F609F090F7090091690C1091E6
S1134D506A0C662311F064E801C067E820E030E0E3
S1134D6040E084E031C0E452F74F808181FF1BC0F2
S1134D708695869586958370C9F48091DE09843082
S1134D8019F42D933C930DCF8091A708882321F427
S1134D90662381F063E50FC085E080932A0281E1F8
S1134DA00E94570613C00E94031310C0862F0E944E
S1134DB0CB120CC065E5A1E0CA2ED12CEE24FF2451
S1134DC000E010E040E088E00E94B1081F910F91DC
S1134DD0FF90EF90DF90CF9008958093DE0980914B
S1134DE0DC0881FD03C01092DB0B0CC08091DF084E
S1134DF081FD04C081E08093DB0B04C08EE00E943F
S1134E00570608958091DB0B9927FC01EE0FFF1FD5
S1134E10E80FF91FE452F74F8081877E80830E9458
S1134E20C32508950F931F93E82F8093DE091093F1
S1134E30D80B0093D70B3093F7092093F60970939E
S1134E40E4096093E30950936A0C4093690C8091E0
S1134E50DA089091DB086817790719F41092DB0BD4
S1134E6013C08091DD089091DE086817790721F45A
S1134E7081E08093DB0B08C090E08091DB0B8823FA
S1134E8009F491E09093DB0B6050784098F481E052
S1134E900930180778F4E53051F081E048305807BC
S1134EA048F4400F511F4950514020F407C040506E
S1134EB0584020F08FE00E94570602C00E94C3258C
S1134EC01F910F9108952F923F924F925F926F928C
S1134ED07F928F929F92AF92BF92CF92DF92EF9286
S1134EE0FF920F931F93CF93DF931C0140911B02FA
S1134EF0242F3327609067097090680980906909AE
S1134F0090906A098BE090E0289FE001299FD00DE2
S1134F10389FD00D1124CF5ED44FAF80B884C9849C
S1134F20DA84A618B708C808D90849805A80A11499
S1134F30B104C104D10429F4B10180E00E94942495
S1134F404FC0EB80FC800D811E81E60CF71C081D10
S1134F50191D9927812F702F6F2D842F0E94760A97
S1134F60BC01A7015070E12C31E0F32EE41AF50ADC
S1134F70C701AA27BB27A816B906CA06DB0608F488
S1134F8075012881243051F0253071F0213089F4E5
S1134F90460C571C8701920183E009C0460C571C3C
S1134FA08701920181E003C08701910182E00E94A0
S1134FB01227970144275527809167099091680922
S1134FC0A0916909B0916A09820F931FA41FB51FAC
S1134FD08093670990936809A0936909B0936A095B
S1134FE0DF91CF911F910F91FF90EF90DF90CF90C1
S1134FF0BF90AF909F908F907F906F905F904F90F5
S11350003F902F9008950F931F93482F80931B0276
S1135010282F33278BE090E0289FF001299FF00D83
S1135020389FF00D1124EF5EF44F8081823019F027
S11350308330A9F410C060E070E0842F0E94760AE7
S113504000E010E020E030E040E050E0BC0184E00B
S11350500E94122710C087E00E94ED260CC08181B7
S1135060928110926709109268091092690910924E
S11350706A090E9463271F910F91089581E10E949C
S11350803C0F80913102823031F46091EA09772734
S113509080E00E9474080E943F2210923102089519
S11350A0AF92BF92CF92DF92EF92FF920F931F9332
S11350B08091390C9927813041F0813008F4C9C0BE
S11350C08350823008F0C5C003C00E943E28C1C08E
S11350D080913102823009F064C0A0903C0CBB2462
S11350E0CC24DD24DC2CCB2CBA2CAA2420913A0C21
S11350F0332744275527522F4427332722278091CB
S11351003B0C9927AA27BB27DC0199278827282B42
S1135110392B4A2B5B2B80913D0C9927AA27BB275F
S1135120282B392B4A2B5B2BA22AB32AC42AD52A33
S1135130E090E809FF2400271127102F0F2DFE2CE3
S1135140EE242091E609332744275527522F44277C
S1135150332722278091E7099927AA27BB27DC0157
S113516099278827282B392B4A2B5B2B8091E90917
S11351709927AA27BB27282B392B4A2B5B2BE22AFA
S1135180F32A042B152BAE14BF04C006D10639F440
S113519090913E0C8091EA09981709F45AC00E9434
S11351A03E28E0903C0CFF2400271127102F0F2DE0
S11351B0FE2CEE2420913A0C332744275527522FF6
S11351C044273327222780913B0C9927AA27BB2702
S11351D0DC0199278827282B392B4A2B5B2B8091BC
S11351E03D0C9927AA27BB27282B392B4A2B5B2B4D
S11351F0E22AF32A042B152B86E1E81684E6F80646
S113520089ED080788EB1807F9F090913E0C80911E
S1135210AE088330F1F41092560C64E5E62EF12CBE
S1135220012D112D2DE639E040E050E060E070E002
S1135230892F0E94D00D882311F484E002C080914C
S1135240AE088093AE0805C081E0809331020E94CD
S11352509A08A5EEB9E0E9E3FCE08AE001900D923A
S11352608150E1F71F910F91FF90EF90DF90CF9065
S1135270BF90AF900895EF92FF920F931F9379011F
S11352808A016A3018F04AE050E002C0462F5527E0
S1135290BC0189E39CE00E944937E0922D02F09220
S11352A02E0200932F02109330020E9450281F9167
S11352B00F91FF90EF9008957F928F929F92AF92FB
S11352C0BF92CF92DF92EF92FF920F931F93809140
S11352D03102813021F0823009F04CC1CAC0809083
S11352E0EA09A090ED09BB24CC24DD24DC2CCB2CD2
S11352F0BA2CAA242091EB09332744275527522F8F
S11353004427332722278091EC099927AA27BB2712
S1135310DC0199278827282B392B4A2B5B2B80917A
S1135320EE099927AA27BB27282B392B4A2B5B2B5D
S1135330A22AB32AC42AD52AE090E809FF24002728
S11353401127102F0F2DFE2CEE242091E609332770
S113535044275527522F4427332722278091E709D2
S11353609927AA27BB27DC0199278827282B392BC3
S11353704A2B5B2B8091E9099927AA27BB27282B65
S1135380392B4A2B5B2BE22AF32A042B152B0E9480
S11353903F2282E080930602E092330CBB27A12FC8
S11353A0902F8F2D8093320CC801AA27BB2780939E
S11353B0310CE12EFF2400271127E092300C0894D1
S11353C0A108B108C108D108BAE0D694C794B7942B
S11353D0A794BA95D1F7A394A092340CA092370C59
S11353E045E060E37CE080E090E00E942808809340
S11353F0360C892F99278093350C809106028230D0
S113540011F40E94591E84E08093060280922402C3
S11354104091340C55276091320C772788279927BF
S1135420982F872F762F6627C090300CDD24EE242A
S1135430FF24FC2CEE24DD24CC240091310C112714
S113544022273327980111270027C02AD12AE22ACC
S1135450F32A0091330C112722273327C02AD12A9B
S1135460E22AF32A6C297D298E299F290E949C20F7
S113547081C08090EA099924A090ED09BB24CC2432
S1135480DD24DC2CCB2CBA2CAA242091EB09332765
S113549044275527522F4427332722278091EC098C
S11354A09927AA27BB27DC0199278827282B392B82
S11354B04A2B5B2B8091EE099927AA27BB27282B1F
S11354C0392B4A2B5B2BA22AB32AC42AD52AE09073
S11354D0E809FF2400271127102F0F2DFE2CEE249E
S11354E02091E609332744275527522F4427332791
S11354F022278091E7099927AA27BB27DC0199274E
S11355008827282B392B4A2B5B2B8091E909992773
S1135510AA27BB27282B392B4A2B5B2BE22AF32AF9
S1135520042B152B0E943F22E092AF08F092B008A2
S11355300093B1081093B208A092140CB092150C09
S1135540C092160CD092170C8092A50882E088169F
S113555041F083E0881639F081E0881639F485E05B
S113556003C083E001C084E00E94A313882311F4E4
S1135570109206021F910F91FF90EF90DF90CF9051
S1135580BF90AF909F908F907F9008954F925F92BD
S11355906F927F928F929F92AF92BF92CF92DF923F
S11355A0EF92FF920F931F93CF93DF93E82FFF2780
S11355B0E731F10510F00C94F132E554FF4FEE0F92
S11355C0FF1F0590F491E02D099480916F0C8823BE
S11355D009F0BCC00C94F1328FB7F8942091DA0B27
S11355E020FF02C00C94DD3220E00C94E132809163
S11355F06B09882361F52091610C3091620C409114
S1135600630C5091640CEFB7F894FF276091B408D1
S11356107091B5088091B6089091B708E090700C2D
S1135620F090710C0091720C1091730C6E0D7F1D33
S1135630801F911FEFBF2093610C3093620C409345
S1135640630C5093640C10926B090E946A0B0E94C5
S1135650660744C00E9466073B014C018FB7F8946B
S113566099271092E2098FBF0FEFE02E0FEFF02E73
S11356700FEF002F0FE7102F60E0EEEDFBE08085C9
S113568081FF1CC080819181A281B381A401930117
S1135690281B390B4A0B5B0BDA01C90124813581C4
S11356A046815781281B390B4A0B5B0B2E153F058E
S11356B0400751071CF479018A0161E039963CE006
S11356C0E431F307E1F6662311F40C94F1321E146D
S11356D01F04100611062CF0C401B3010E944521D9
S11356E080C7E092610CF092620C0093630C1093FB
S11356F0640C81E080936B09A8019701C401B30194
S11357000E946A0B6EC78FB7F8949927129A119862
S113571010988FBF109231028091E5099927833048
S113572021F0843009F05DC706C081E08093310226
S11357300E949A0856C740E050E060E070E0809113
S1135740EA090E94DF080E949D0C4BC711E0F12E6C
S113575000E010E0C9ECDBE090916F0C8F2D892301
S113576069F068817981198218828F2D8095982338
S113577090936F0C43E0802F0E94A41E0F5F1F4F75
S113578022960830110509F42CC7FF0CE5CF1091BF
S11357901102E12FFF27EE0FFF1FE753F44FE080C4
S11357A0F180118210820E94831141E0B7013CC054
S11357B02FB7F89433278091C3098093170282E0AE
S11357C0809326022FBF80911702882309F009C70E
S11357D08091C4099091C5090E949F10882E992434
S11357E0882009F4FEC680E00E94AF0EE090C40950
S11357F0F090C509C7010E941808109111021530D4
S113580008F0EFC6E12FFF27EE0FFF1FE753F44F19
S1135810C081D181CE15DF0509F0E3C61182108263
S11358200E948311482DBE01812F0E94A41ED9C657
S1135830E0912E0CF0912F0CDF01A458BF4F2D9155
S11358403C911197F090270242E0F41689F5211556
S1135850310529F0EC57FF4F808180FF02C084E0BE
S113586022C08091240C9091250C01969093250CD4
S11358708093240C82179307A8F481E08093270275
S1135880FD010281138101151105A9F00E9466072B
S1135890AB01BC0122273327E1E0EE2E82E00E9417
S11358A047079FC685E080932702F090270227C010
S11358B0F1E0FF1621F582E08093270240912E0C3F
S11358C050912F0C2FB7F89433278091C1098F5F23
S11358D08093C1092FBF8091DF09882369F4509315
S11358E0230C4093220C81E08093DF0910921F0C5B
S11358F088E00E945706CDC00E949E1AD0C043E0A3
S11359004F1508F06EC6232B61F0E0912E0CF09138
S11359102F0CE458FF4F8091240C9091250C918317
S1135920808310922702C0912E0CD0912F0C8A856F
S11359308F3309F056C680E00E94AF0ECE010E945C
S11359401808E090110254E05E1508F44AC6EE2DE2
S1135950FF27EE0FFF1FE753F44F008111810C174F
S11359601D0709F03EC6118210820E9483118CEF3C
S1135970F80E4F2DB8018E2D58CF8091DF0910926B
S1135980DF098530C9F58091120890911308A09120
S11359901408B09115080097A105B10531F51092CE
S11359A012081092130810921408109215081092FD
S11359B016081092170810921808109219081092DD
S11359C01A0880E00E94ED0F0FB7F894112780E0C9
S11359D090E00E94C50A0FBF0E943F1D80E00E9414
S11359E0BD1D81E08093A60803C080E00E94BD1D18
S11359F081E08093B308F5C5863009F4F2C5873099
S1135A0009F4EFC58093DF09ECC52FB7F894332769
S1135A108091C1098F5F8093C1092FBF4091DF0935
S1135A20413071F580911F0C8F5F80931F0C86307D
S1135A3038F52091220C3091230C8091E0098823C1
S1135A40C1F490E080911A0C882309F491E0992321
S1135A5081F03093CA092093C9094093E0098BED82
S1135A6091E10E94530A0E94A10E1092740C83E0EB
S1135A7004C085E08093740C82E08093DF0909C040
S1135A801092DF090E949E1A8091740C882321F4DD
S1135A9006C00E949E1AA5C58C5F8093270286E0EB
S1135AA099C58FB7F894282F33278091440C882305
S1135AB009F496C5E091680CFF27EE0FFF1FE85527
S1135AC0F74FC081D1812FBF8A851F810E818F330B
S1135AD009F0EBC2CE010E941808FC01E081DE014E
S1135AE06D913D01812F9927582F4427802F9927A5
S1135AF0482B592B8FB7F894992720911202309193
S1135B0013028FBF4217530721F04F5F5F4F09F015
S1135B10E6C22CE0422E512C4C0E5D1EFF27E235CE
S1135B2009F465C1E33530F4E03559F0E13509F0A5
S1135B30D6C2C4C0E03609F406C2E13609F0CFC2C9
S1135B408EC2BE01605F7F4F88892989AA88EB884D
S1135B50BB24CC24DD24DC2CCB2CBA2CAA249927FE
S1135B60AA27BB27B82FAA27992788273327442792
S1135B705527A90133272227822B932BA42BB52B3E
S1135B80FF24002711278E299F29A02BB12BA82A97
S1135B90B92ACA2ADB2AE090320CFF2400271127F5
S1135BA0102F0F2DFE2CEE242091300C3327442788
S1135BB05527522F4427332722278091310C9927C8
S1135BC0AA27BB27DC0199278827282B392B4A2BA6
S1135BD05B2B8091330C9927AA27BB27282B392BC1
S1135BE04A2B5B2BE22AF32A042B152BAE14BF0499
S1135BF0C006D10609F073C28E85823009F06FC2E7
S1135C0080910602843009F06AC20D89EE8845E06D
S1135C1080E090E00E9428081127102F0027FF241D
S1135C200E291F290817190709F059C28D892E89D1
S1135C309927982F88273327822B932B892B09F4B4
S1135C404EC280910602843009F049C28F89409186
S1135C50370C282F3327421708F580912D0C8E7F9F
S1135C6051F50C85FD8410912302113021F584E057
S1135C700E94DB1F802F9927982F88272F2D3327E9
S1135C80822B932B9093DD0B8093DC0B1093F00904
S1135C901092570C81E00E94631E0DC090912D0C50
S1135CA0241728F49170946090932D0C04C0916093
S1135CB090932D0C14C20E94591E11C2809123028C
S1135CC0882309F40CC22889E9888A89AB88992732
S1135CD0AA27BB276624782E892E9A2E3327442799
S1135CE05527522F442733272227FF240027112723
