:100000000C9469000C9488000C9488000C9488006F
:100010000C9488000C9488000C9488000C94880040
:100020000C9488000C9488000C9488000C94880030
:100030000C9488000C94E91B0C9488000C948D1C83
:100040000C9488000C9488000C9488000C94880010
:100050000C9488000C9488000C9488000C94880000
:100060000C9488000C9488000C9488000C948800F0
:100070000C9488000C9488000C9488000C948800E0
:100080000C9488000C9488000C9488000C948800D0
:100090000C9488000C9488000C9488000C948800C0
:1000A0000C9488000C9488000C9488000C948800B0
:1000B0000C9488000C9488000C9488000C948800A0
:1000C0000C9488000C9488000C94880000020E06A2
:1000D0000C0411241FBECFEFD1E2DEBFCDBF12E072
:1000E000A0E0B2E0E4EBF9E300E00BBF02C0079050
:1000F0000D92A230B107D9F718E0A2E0B2E001C03A
:100100001D92A631B107E1F70E944D090C94D91C4C
:100110000C940000CF93DF93CDB7DEB764970FB692
:10012000F894DEBF0FBECDBF9A8789877C876B8727
:100130005E874D87388B2F8718861F821E821D820F
:1001400010C0E985FA85228133818F819885820FDD
:10015000931F98878F83E985FA85848195819A8793
:10016000898789859A85009769F0E985FA852281D2
:1001700033818F819885280F391F8B859C85821745
:100180009307F8F689859A85009709F47CC075C0B5
:100190002B853C858F819885A901481B590BCA0185
:1001A0009C838B83E985FA85228133818B819C81B5
:1001B000A901481B590BCA012D853E853C8B2B8B11
:1001C0009A8B898B49895A898B899C8984179507D1
:1001D00020F42B893C893A8B298B49895A895A8387
:1001E000498349815A81E985FA85208131818B8152
:1001F0009C81280F391F8F859889FC01CA01AC01A9
:10020000B901CF010E94C91C2B813C8189819A814F
:10021000280F391F8F819885820F931F98878F83AE
:100220002B853C8589819A81820F931F9C878B87C0
:100230002D813E8189819A81820F931F9E838D83B8
:100240002D853E8589819A81A901481B590BCA01D8
:100250009E878D8789819A819C018F859889820FDD
:10026000931F988B8F87E985FA85848195819A877A
:10027000898789859A85009731F08D859E85181626
:1002800019060CF485CF8D819E8164960FB6F89483
:10029000DEBF0FBECDBFDF91CF910895CF93DF9327
:1002A000CDB7DEB724970FB6F894DEBF0FBECDBF33
:1002B0009C838B831A82198210C0EB81FC8122817E
:1002C000338189819A81820F931F9A838983EB817D
:1002D000FC81848195819C838B838B819C81009799
:1002E00061F789819A8124960FB6F894DEBF0FBE1C
:1002F000CDBFDF91CF910895CF93DF93CDB7DEB718
:1003000028970FB6F894DEBF0FBECDBF9A838983BE
:100310007C836B835E834D8338872F83EB81FC81E5
:100320008D819E8191838083EB81FC818F81988573
:1003300093838283EB81FC8189819A819583848375
:1003400028960FB6F894DEBF0FBECDBFDF91CF91D8
:100350000895CF93DF93CDB7DEB760970FB6F894CB
:10036000DEBF0FBECDBF9E838D8378876F835A8794
:1003700049873C872B871C821B8212C02F813885BE
:10038000ED81FE8182819381A901481B590BCA012D
:1003900098878F83ED81FE81848195819E838D83F3
:1003A0008F819885ED81FE812281338182179307A9
:1003B00028F74DC0ED81FE81228133818F819885A0
:1003C000A901481B590BCA0129853A85388B2F870B
:1003D0009E878D874D855E858F85988984179507C3
:1003E00020F42F8538893E872D874D855E855A8379
:1003F000498349815A81ED81FE81208131818F813C
:100400009885820F931F2B853C85FC01CA01AC01A6
:10041000B901CF010E94C91C89819A819C018B85F9
:100420009C85820F931F9C878B8729853A858981BC
:100430009A81A901481B590BCA019A878987188696
:100440001F82ED81FE81848195819E838D838D81C4
:100450009E81009741F02B813C8189859A852817E0
:1004600039070CF4A7CF8B819C8160960FB6F89466
:10047000DEBF0FBECDBFDF91CF910895CF93DF9345
:10048000CDB7DEB72C970FB6F894DEBF0FBECDBF49
:100490009C878B871F82188619861A861E821D826A
:1004A0006DC0EB85FC8582819381009709F460C063
:1004B000EB85FC85808191819A8389831C821B82D4
:1004C0004DC08B819C81817090700097F1F48B817D
:1004D0009C819C0189819A81F901E80FF91F808133
:1004E0009927382F22278D819E81822B932B9E83E3
:1004F0008D838B819C8101969C01EB85FC8582819B
:1005000093812817390791F024C08B819C819C012D
:1005100089819A81F901E80FF91F8081282F3327FB
:100520008D819E81822B932B9E838D838D819E81D5
:100530009C01442755278F819885A985BA85820F0C
:10054000931FA41FB51F8F839887A987BA871E8220
:100550001D828B819C8101969C838B838B819C81E6
:10056000EB85FC85228133818217930708F4A9CF9C
:10057000EB85FC85848195819C878B878B859C8509
:10058000009709F08ECF17C08F819885A985BA850D
:100590009C01AD01407050708F819885A985BA8506
:1005A000CD01AA27BB27820F931FA41FB51F8F83DE
:1005B0009887A987BA878F819885A985BA85803061
:1005C00020E0920721E0A20720E0B207E8F68F8141
:1005D0009885809590952C960FB6F894DEBF0FBE47
:1005E000CDBFDF91CF910895CF93DF93CDB7DEB725
:1005F0006F970FB6F894DEBF0FBECDBF9C8F8B8F69
:100600007E8F6D8F4F8F8B8D9C8D08969A838983FB
:1006100080E190E09C838B83CE0107969E838D833F
:100620008B8D9C8D489698878F8380E190E09A8788
:100630008987CE010D969C878B87CE0143969E8736
:100640008D8788E090E0988B8F878D8D9E8D9A8B1B
:10065000898B8D8D9E8D0E944E01AA2797FDA095B6
:10066000BA2FBC01CD010E94C307DC01CB018B8BEB
:100670009C8BAD8BBE8B8F8D9927AA27BB27BC0186
:10068000CD010E94C307DC01CB018F8B988FA98F0E
:10069000BA8FCE0101960E943E026F960FB6F89473
:1006A000DEBF0FBECDBFDF91CF910895CF93DF9313
:1006B000CDB7DEB722970FB6F894DEBF0FBECDBF21
:1006C00084E092E09A838983E981FA818CED95E058
:1006D0009183808322960FB6F894DEBF0FBECDBF04
:1006E000DF91CF910895CF93DF93CDB7DEB72A97EF
:1006F0000FB6F894DEBF0FBECDBF98878F8384E01E
:1007000092E09E838D838F819885049698878F834E
:100710008F8198859C01217030708F819885820F20
:10072000931F98878F830CC0ED81FE81808191811A
:100730009F709C018D819E81820F931F9E838D836C
:10074000ED81FE81808191819C013F708F81988530
:100750002817390730F0ED81FE818081918199233E
:1007600054F48D819E8124E032E0821B930B25E0BE
:100770008C3D9207CCF22D813E8180EE97E02817C8
:10078000390788F5ED81FE81808191819F709C837E
:100790008B838F819885029798878F832D813E81E7
:1007A0008F819885820F931F9A8389838F81988583
:1007B0009F709068ED81FE81918380832B813C81C5
:1007C0008F819885A901481B590BCA019F70E98147
:1007D000FA81918380838D819E819C012E5F3F4FA2
:1007E0003A87298702C01A86198689859A852A96AA
:1007F0000FB6F894DEBF0FBECDBFDF91CF91089545
:10080000CF93DF93CDB7DEB728970FB6F894DEBF4E
:100810000FBECDBF98878F831E821D821A821982D8
:1008200084E092E09C838B8310C08B819C819E83AB
:100830008D83EB81FC81808191819F709C018B81F4
:100840009C81820F931F9C838B838B819C819C0155
:100850002E5F3F4F8F8198852817390751F08B8184
:100860009C8124E032E0821B930B25E08C3D9207B3
:10087000E4F28B819C819C012E5F3F4F8F81988594
:100880002817390709F053C0EB81FC8180819181E1
:100890009F709C018B819C81820F931F9A83898317
:1008A000EB81FC81808191819F77EB81FC81918339
:1008B000808329813A8184E092E0A901481B590B89
:1008C000CA0155E08C3D9507BCF4E981FA8180812D
:1008D000918199238CF0EB81FC81808191819C0135
:1008E0003F70E981FA81808191819F70820F931F0F
:1008F000EB81FC81918380838D819E810097B9F08B
:10090000ED81FE818081918199238CF0ED81FE81C2
:10091000808191819C013F70EB81FC81808191817C
:100920009F70820F931FED81FE81918380832896B3
:100930000FB6F894DEBF0FBECDBFDF91CF91089503
:10094000CF93DF93CDB7DEB724970FB6F894DEBF11
:100950000FBECDBF1C821B8284E092E09A83898304
:100960001EC0E981FA8180819181992364F0E98137
:10097000FA81808191819C013F708B819C81820FE3
:10098000931F9C838B83E981FA81808191819F7081
:100990009C0189819A81820F931F9A83898389811F
:1009A0009A8124E032E0821B930B25E08C3D920774
:1009B000C4F28B819C8124960FB6F894DEBF0FBEE3
:1009C000CDBFDF91CF910895CF93DF93CDB7DEB741
:1009D00068970FB6F894DEBF0FBECDBF98878F83A0
:1009E0007A8769871E821D828F8198859C838B837D
:1009F0001A8219828F819885009709F443C18985ED
:100A00009A85009709F43EC189859A8520E1FC0109
:100A1000DF01322F1D923A95E9F794C0EB81FC81FA
:100A200080818A3309F44DC08D819E818295929593
:100A3000907F9827807F98279E838D83EB81FC8110
:100A40008081803384F0EB81FC8180818A335CF487
:100A5000EB81FC818081992787FD9095DC01D097FF
:100A6000B88FAF8B25C0EB81FC81808181348CF005
:100A7000EB81FC818081873464F4EB81FC8180818F
:100A8000992787FD90959C01275330403E8B2D8BF5
:100A90000BC0EB81FC818081992787FD9095DC015B
:100AA000A755B040BE8BAD8B2D893E89388F2F8BDB
:100AB0008F89988D2D813E81822B932B9E838D83F0
:100AC00016C08A8199273E813B8BAD81AC8B2985ED
:100AD0003A85880F991FFC01E20FF31F2B893C898F
:100AE000318320838A818F5F8A831E821D828B815E
:100AF0009C8101969C838B83EB81FC818081882380
:100B0000A9F48A8199273E81398BAD81AA8B2985E9
:100B10003A85880F991FFC01E20FF31F29893A8952
:100B2000318320838A818F5F8A83ACC08B819C81D3
:100B3000FC01319780818A3329F4EB81FC8180812B
:100B40008A3331F0EB81FC818081882309F066CF04
:100B500087E08A831E821D8205C08B819C8101965D
:100B60009C838B83EB81FC8180818823B1F78B810F
:100B70009C8101979C838B837DC0EB81FC8180816C
:100B80008A3309F44FC0EB81FC818081803384F08B
:100B9000EB81FC8180818A335CF4EB81FC81808174
:100BA000992787FD9095DC01D097B88BAF8725C03A
:100BB000EB81FC81808181348CF0EB81FC81808130
:100BC000873464F4EB81FC818081992787FD9095BF
:100BD0009C01275330403E872D870BC0EB81FC8161
:100BE0008081992787FD9095DC01A755B040BE878D
:100BF000AD872D853E85388B2F8789819927AF85D5
:100C0000B88902C0AA0FBB1F8A95E2F7CD019C01EB
:100C10008D819E81822B932B9E838D8389818C5F16
:100C2000898317C08A819927BE81BB872D812C8734
:100C300029853A85880F991FFC01E20FF31F8B85E8
:100C40009C85918380838A8181508A831E821D8244
:100C500019828B819C8101979C838B838B819C81E2
:100C6000FC01319680818A3329F4EB81FC818081FB
:100C70008A3341F02B813C818F81988582179307BD
:100C800008F47BCF68960FB6F894DEBF0FBECDBFD9
:100C9000DF91CF910895CF93DF93CDB7DEB7639700
:100CA0000FB6F894DEBF0FBECDBF9C878B877E87C3
:100CB0006D87588B4F878F8598899C018D859E8580
:100CC000820F931F98878F831A8219821C821B823E
:100CD000D3C08F8198859C01285030408D859E859A
:100CE0002817390708F4DCC08B819C812B853C8553
:100CF000880F991FFC01E20FF31F808191819A8B6D
:100D00008B8B2A893B893A87298784E090E09E83F0
:100D10008D835EC08FEF9FEF9C010D8002C03695E2
:100D200027950A94E2F789859A852817390760F094
:100D300089819A818230910509F045C08D819E811B
:100D40008031910509F03FC020E130E08D819E8126
:100D5000281B390B89859A85022E02C096958795A6
:100D60000A94E2F78F7090708A30910590F420E138
:100D700030E08D819E81281B390B89859A85022E52
:100D800002C0969587950A94E2F78F70805D898BF3
:100D900011C020E130E08D819E81281B390B8985AF
:100DA0009A85022E02C0969587950A94E2F78F7075
:100DB000895A898BED85FE85398930838D859E859D
:100DC00001969E878D878D819E8104969E838D835B
:100DD0008D819E81813191050CF49CCF8B819C810A
:100DE0002B853C85880F991FFC01E20FF31F808142
:100DF0009181009791F489819A81009771F4ED8532
:100E0000FE858AE380838D859E8501969E878D87EA
:100E100089819A8101969A8389838B819C812B8514
:100E20003C85880F991FFC01E20FF31F808191819F
:100E3000009751F089819A818130910529F4898147
:100E40009A8101969A8389838B819C818730910551
:100E500074F489819A818130910549F0ED85FE8590
:100E60008AE380838D859E8501969E878D878B8101
:100E70009C8101969C838B838B819C81883091051A
:100E80000CF427CF89819A818130910549F4ED8551
:100E9000FE858AE380838D859E8501969E878D875A
:100EA000ED85FE8510828D859E8501969E878D87B6
:100EB0004D855E858F8598899C018F819885821BE1
:100EC000930B9A01281B390BC90163960FB6F8944E
:100ED000DEBF0FBECDBFDF91CF910895CF93DF93DB
:100EE000CDB7DEB72A970FB6F894DEBF0FBECDBFE1
:100EF00098878F83EF81F88580818370823041F4F9
:100F0000EF81F8850180F281E02DFA87E98730C012
:100F1000EF81F88580818370833041F51C821B82CC
:100F20008F81988501969A8389831E821D8214C0C1
:100F3000E981FA81208131818B819C81820F931F0D
:100F40009C838B8389819A8102969A8389838D8180
:100F50009E8101969E838D838D819E818430910533
:100F600038F38B819C819A87898702C01A861986FB
:100F700089859A852A960FB6F894DEBF0FBECDBF3D
:100F8000DF91CF910895CF93DF93CDB7DEB72C9744
:100F90000FB6F894DEBF0FBECDBF6D837E838F8307
:100FA00098878D819E819C838B838D819E81AF816B
:100FB000B885CD01AA27BB279A8389838C8189872D
:100FC0009B819A8789859A859C838B839A819B874D
:100FD00089818C878B859C859A8389838B819C8171
:100FE000AA27BB27AC013327222789819A81AA2708
:100FF000BB27822B932BA42BB52BBC01CD012C96A8
:101000000FB6F894DEBF0FBECDBFDF91CF9108952C
:10101000CF93DF93CDB7DEB72C970FB6F894DEBF32
:101020000FBECDBF98878F837A8769875C874B8790
:101030008F8198859E838D8389859A859C838B83F8
:101040008F8198859A83898315C0EB81FC8180818B
:10105000ED81FE8180838D819E8101969E838D83AB
:101060008B819C8101969C838B838B859C850197CA
:101070009C878B878B859C85009739F789819A811E
:101080002C960FB6F894DEBF0FBECDBFDF91CF9187
:101090000895CF93DF93CDB7DEB728970FB6F894B6
:1010A000DEBF0FBECDBF9A8389837C836B835E8353
:1010B0004D8338872F83E981FA818B819C819183CD
:1010C0008083E981FA818D819E8193838283E98186
:1010D000FA818F8198859583848328960FB6F8943A
:1010E000DEBF0FBECDBFDF91CF910895CF93DF93C9
:1010F000CDB7DEB72C970FB6F894DEBF0FBECDBFCD
:101100009E838D8378876F831C821B8236C0ED811E
:10111000FE8140815181ED81FE81228133818B816D
:101120009C81BC01269FC001279F900D369F900D8A
:101130001124840F951F9A83898389819A81EF8175
:10114000F88509959C878B878B859C852FEF8F3F32
:10115000920759F06B857C856130710509F008C0F4
:1011600089819A819A87898713C01A86198610C047
:101170008B819C8101969C838B838B819C81ED81EB
:10118000FE81248135818217930708F21A86198619
:1011900089859A852C960FB6F894DEBF0FBECDBF19
:1011A000DF91CF910895CF93DF93CDB7DEB7269728
:1011B0000FB6F894DEBF0FBECDBF9C838B837E83BA
:1011C0006D831A8219821CC0EB81FC8140815181A0
:1011D000EB81FC812281338189819A81BC01269F28
:1011E000C001279F900D369F900D1124840F951FED
:1011F000ED81FE81099589819A8101969A8389837F
:1012000089819A81EB81FC81248135818217930742
:10121000D8F226960FB6F894DEBF0FBECDBFDF9191
:10122000CF910895CF93DF93CDB7DEB721970FB657
:10123000F894DEBF0FBECDBFEFE5F0E0808189837B
:101240000E942D098981992721960FB6F894DEBF57
:101250000FBECDBFDF91CF910895CF93DF93CDB770
:10126000DEB7F894DF91CF910895CF93DF93CDB798
:10127000DEB721970FB6F894DEBF0FBECDBF8983CE
:10128000EFE5F0E08981808321960FB6F894DEBF08
:101290000FBECDBFDF91CF910895CF93DF93CDB730
:1012A000DEB721970FB6F894DEBF0FBECDBF0E9408
:1012B00012098983E4E5F0E0108288E10FB6F89422
:1012C00080936000109260000FBE0E9487090E9408
:1012D000A5090E94080D8823E1F70E94D80B0E94FF
:1012E000080D8823E1F789810E9435090E94200DAD
:1012F0000E94280D0E94890D8FEF9FEF21960FB657
:10130000F894DEBF0FBECDBFDF91CF910895CF938C
:10131000DF93CDB7DEB70E949009DF91CF9108959A
:10132000CF93DF93CDB7DEB788EE97E043E050E090
:101330006FEF70E00E94D21C8FEF80930E088FEF4A
:1013400080931508DF91CF910895CF93DF93CDB7A8
:10135000DEB721970FB6F894DEBF0FBECDBF0E9457
:10136000BD0989838981992721960FB6F894DEBF3C
:101370000FBECDBFDF91CF910895CF93DF93CDB74F
:10138000DEB721970FB6F894DEBF0FBECDBF0E9427
:10139000DC0989830E94910A682F89810E94B30B1E
:1013A00089838981992721960FB6F894DEBF0FBEF5
:1013B000CDBFDF91CF910895CF93DF93CDB7DEB747
:1013C00021970FB6F894DEBF0FBECDBF0E94F4097F
:1013D00089838981992721960FB6F894DEBF0FBEC5
:1013E000CDBFDF91CF910895CF93DF93CDB7DEB717
:1013F00026970FB6F894DEBF0FBECDBFE1E8F0E050
:1014000081E08083E6EBF0E080E28083E1EBF0E0D6
:1014100083E08083E4E8F0E0808191819C838B838A
:101420008AE78D8314C0E4E8F0E0808191819A839B
:10143000898329813A818B819C812817390718F487
:101440008D8181508D8389819A819C838B838D814D
:10145000882349F7E2EBF0E080818E83E2EBF0E055
:1014600090818E819817D1F3E4E8F0E0808191813A
:101470009C838B83E2EBF0E080818E83E2EBF0E0F3
:1014800090818E819817D1F3E4E8F0E0808191811A
:101490009093100880930F0820910F083091100846
:1014A0008B819C81A901481B590BCA0140969695D6
:1014B0008795929582958F7089279F708927909341
:1014C000100880930F0826EB30E0A1E8B0E0E1EBD4
:1014D000F0E0108280818C938C91F9018083E2EBA3
:1014E000F0E01082E4E8F0E011821082A6E3B0E0C0
:1014F000E7E3F0E08FEF808380818C93E6EBF0E010
:1015000080819927857190700097C1F780E090E005
:1015100026960FB6F894DEBF0FBECDBFDF91CF91F8
:101520000895CF93DF93CDB7DEB721970FB6F89428
:10153000DEBF0FBECDBF0E94B00A89830E944F0B51
:10154000682F89810E94B30B89838981992721960D
:101550000FB6F894DEBF0FBECDBFDF91CF910895D7
:10156000CF93DF93CDB7DEB70E94C50A0E94DC0A95
:101570000E94F30A0E940A0B0E94210B0E94380B62
:1015800080E090E0DF91CF910895CF93DF93CDB7C6
:10159000DEB70E94CE0ADF91CF910895CF93DF93FB
:1015A000CDB7DEB7A1E2B0E0E1E2F0E08081846097
:1015B0008C93DF91CF910895CF93DF93CDB7DEB7B2
:1015C0000E94E50ADF91CF910895CF93DF93CDB7C5
:1015D000DEB7A1E2B0E0E1E2F0E0808182608C93CE
:1015E000DF91CF910895CF93DF93CDB7DEB70E94FF
:1015F000FC0ADF91CF910895CF93DF93CDB7DEB78B
:10160000A1E2B0E0E1E2F0E0808181608C93DF91C3
:10161000CF910895CF93DF93CDB7DEB70E94130B20
:10162000DF91CF910895CF93DF93CDB7DEB7A2E2DC
:10163000B0E0E2E2F0E0808184608C93DF91CF91B2
:101640000895CF93DF93CDB7DEB70E942A0BDF91C9
:10165000CF910895CF93DF93CDB7DEB7A2E2B0E08C
:10166000E2E2F0E0808182608C93DF91CF91089577
:10167000CF93DF93CDB7DEB70E94410BDF91CF91BF
:101680000895CF93DF93CDB7DEB7A2E2B0E0E2E2F8
:10169000F0E0808181608C93DF91CF910895CF93AA
:1016A000DF93CDB7DEB7E8E2F0E01082E7E2F0E0EA
:1016B0008FEF80830E94640B0E947B0B0E94920B31
:1016C0009927DF91CF910895CF93DF93CDB7DEB700
:1016D0000E946D0BDF91CF910895CF93DF93CDB72B
:1016E000DEB7A1E2B0E0E1E2F0E080818F7E8C9392
:1016F000DF91CF910895CF93DF93CDB7DEB70E94EE
:10170000840BDF91CF910895CF93DF93CDB7DEB7F0
:10171000A2E2B0E0E2E2F0E080818F7E8C93DF9184
:10172000CF910895CF93DF93CDB7DEB721970FB652
:10173000F894DEBF0FBECDBF0E94AA0B89838981BA
:10174000992721960FB6F894DEBF0FBECDBFDF916B
:10175000CF910895CF93DF93CDB7DEB780E090E0CF
:10176000DF91CF910895CF93DF93CDB7DEB7249764
:101770000FB6F894DEBF0FBECDBF89836A8399810F
:101780008A81981731F48981282F33273C832B8352
:1017900004C081E090E09C838B838B819C812496A4
:1017A0000FB6F894DEBF0FBECDBFDF91CF91089585
:1017B000CF93DF93CDB7DEB721970FB6F894DEBF96
:1017C0000FBECDBF0E94F70B89830E94080C682FC3
:1017D00089810E94B30B89838981992721960FB64D
:1017E000F894DEBF0FBECDBFDF91CF910895CF93A8
:1017F000DF93CDB7DEB78DEE97E041E050E060E0DB
:1018000070E00E94D21C80E090E0DF91CF910895BB
:10181000CF93DF93CDB7DEB722970FB6F894DEBF34
:101820000FBECDBF0E94350C1982898182608983E9
:1018300089810E944C0C1A828A81887F83608A8306
:101840008A810E94830C86EE0E94BA0C0E94F10CE1
:101850000E94D71980E090E022960FB6F894DEBF80
:101860000FBECDBFDF91CF910895CF93DF93CDB75A
:10187000DEB70E943E0CDF91CF910895CF93DF93A6
:10188000CDB7DEB7A6EBB0E0E6EBF0E0808180629A
:101890008C93DF91CF910895CF93DF93CDB7DEB7CF
:1018A00021970FB6F894DEBF0FBECDBF8983898123
:1018B0000E94630C21960FB6F894DEBF0FBECDBF19
:1018C000DF91CF910895CF93DF93CDB7DEB7219706
:1018D0000FB6F894DEBF0FBECDBF8983E6EBF0E014
:1018E00080819927827090700097C1F7E0EBF0E05B
:1018F0008981808321960FB6F894DEBF0FBECDBFDD
:10190000DF91CF910895CF93DF93CDB7DEB72197C5
:101910000FB6F894DEBF0FBECDBF898389810E94C8
:101920009A0C21960FB6F894DEBF0FBECDBFDF91A3
:10193000CF910895CF93DF93CDB7DEB721970FB640
:10194000F894DEBF0FBECDBF8983E6EBF0E0808167
:101950009927817090708823C1F7E1EBF0E08981CD
:10196000808321960FB6F894DEBF0FBECDBFDF9106
:10197000CF910895CF93DF93CDB7DEB721970FB600
:10198000F894DEBF0FBECDBF898389810E94D10C40
:1019900021960FB6F894DEBF0FBECDBFDF91CF9179
:1019A0000895CF93DF93CDB7DEB721970FB6F894A4
:1019B000DEBF0FBECDBF8983E6EBF0E080819927C3
:1019C000887090700097C1F7E3EBF0E08981808325
:1019D00021960FB6F894DEBF0FBECDBFDF91CF9139
:1019E0000895CF93DF93CDB7DEB70E94FA0CDF9155
:1019F000CF910895CF93DF93CDB7DEB7A0E7B0E0E6
:101A0000E0E7F0E0808182608C93DF91CF910895D0
:101A1000CF93DF93CDB7DEB721970FB6F894DEBF33
:101A20000FBECDBF0E94620F8983898199272196BD
:101A30000FB6F894DEBF0FBECDBFDF91CF910895F2
:101A4000CF93DF93CDB7DEB77894DF91CF91089530
:101A5000CF93DF93CDB7DEB70E94310DDF91CF91E9
:101A60000895CF93DF93CDB7DEB70E943E0D0E945D
:101A7000570D0E94700DDF91CF910895CF93DF93A2
:101A8000CDB7DEB721970FB6F894DEBF0FBECDBF3E
:101A900080E00E946A1889838981992721960FB670
:101AA000F894DEBF0FBECDBFDF91CF910895CF93E5
:101AB000DF93CDB7DEB721970FB6F894DEBF0FBE28
:101AC000CDBF82E00E946A18898389819927219677
:101AD0000FB6F894DEBF0FBECDBFDF91CF91089552
:101AE000CF93DF93CDB7DEB721970FB6F894DEBF63
:101AF0000FBECDBF81E00E946A1889838981992732
:101B000021960FB6F894DEBF0FBECDBFDF91CF9107
:101B10000895CF93DF93CDB7DEB70E94920DDF918A
:101B2000CF910895CF93DF93CDB7DEB722970FB64D
:101B3000F894DEBF0FBECDBF0E941209898302C098
:101B40000E94AF0D0E94DD0E8A838A818F3FC1F310
:101B500089810E9435098A810E941A0FEDCFCF93A7
:101B6000DF93CDB7DEB70E94B80DDF91CF91089516
:101B70001F93CF93DF93CDB7DEB724970FB6F894BA
:101B8000DEBF0FBECDBF0E94F70D182F0E94540E6E
:101B9000612F0E94BB0E8C83A3E5B0E0E3E5F0E08B
:101BA0008081982F80EF292F28238C8199278453B7
:101BB0009F4F9B838A83EA81FB81849189838981FA
:101BC000822B81608C9378948895F894A3E5B0E09B
:101BD000E3E5F0E080818E7F8C9324960FB6F89435
:101BE000DEBF0FBECDBFDF91CF911F910895CF9380
:101BF000DF93CDB7DEB721970FB6F894DEBF0FBEE7
:101C0000CDBF0E940F0E89838981992721960FB637
:101C1000F894DEBF0FBECDBFDF91CF910895CF9373
:101C2000DF93CDB7DEB723970FB6F894DEBF0FBEB4
:101C3000CDBFE0E7F0E08081992783709070009736
:101C400021F1E6EBF0E0808199278A71907000978E
:101C5000C1F7E3EBF0E09081E2EBF0E08081292F27
:101C6000281B822F898389818C3028F0E2EBF0E0F9
:101C70008081853F28F082E090E09B838A8309C0C1
:101C800083E090E09B838A8304C085E090E09B839F
:101C90008A838A819B8123960FB6F894DEBF0FBE9C
:101CA000CDBFDF91CF910895CF93DF93CDB7DEB74E
:101CB00022970FB6F894DEBF0FBECDBFEEE6F0E080
:101CC0008081992786709070009781F4EFE6F0E0AC
:101CD000808199278E729070009741F4E1E7F0E0DF
:101CE000808199278E729070009719F01A8219825C
:101CF00037C0ECE4F0E0808188231CF41A8219825A
:101D00002FC0E1ECF0E080819927887190700097F6
:101D100019F01A82198224C0E9ECF0E08081992739
:101D200088719070009719F01A82198219C0ECEB33
:101D3000F0E08081992784709070009719F01A82E2
:101D400019820EC0EAE7F0E0808188232CF481E05C
:101D500090E09A83898304C085E090E09A83898328
:101D600089819A8122960FB6F894DEBF0FBECDBF4F
:101D7000DF91CF910895CF93DF93CDB7DEB724974E
:101D80000FB6F894DEBF0FBECDBF89836A83298169
:101D90002C838A818B839B812C81291710F48C8161
:101DA0008B832B81822F992724960FB6F894DEBF60
:101DB0000FBECDBFDF91CF910895CF93DF93CDB705
:101DC000DEB723970FB6F894DEBF0FBECDBF80916C
:101DD0000E088F3F01F180910E08898380910E08D3
:101DE0009927FC01E851F84F808180930E0880917B
:101DF0000E088F3F19F48FEF80931508898199277A
:101E0000FC01E851F84F8FEF80838981282F332719
:101E10003B832A8304C08FEF90E09B838A838A816F
:101E20009B8123960FB6F894DEBF0FBECDBFDF9126
:101E3000CF910895CF93DF93CDB7DEB723970FB639
:101E4000F894DEBF0FBECDBF89838981282F332749
:101E50003B832A838A819B818130910569F02A81A5
:101E60003B812230310559F08A819B81009709F02E
:101E700009C00E944F1B09C00E94BC1306C00E94EB
:101E80008B0F03C089810E944E0F23960FB6F894E2
:101E9000DEBF0FBECDBFDF91CF910895CF93DF930B
:101EA000CDB7DEB721970FB6F894DEBF0FBECDBF1A
:101EB000898321960FB6F894DEBF0FBECDBFDF91A8
:101EC000CF910895CF93DF93CDB7DEB724970FB6A8
:101ED000F894DEBF0FBECDBF0E94DD0E8A838A81DB
:101EE0008F3F39F419828981282F33273C832B8334
:101EF00007C08A810E941A0F81E090E09C838B8347
:101F00008B819C8124960FB6F894DEBF0FBECDBFA7
:101F1000DF91CF910895CF93DF93CDB7DEB72197AF
:101F20000FB6F894DEBF0FBECDBF0E9412098983A1
:101F3000809109088093000283E0809303028981E5
:101F40000E943509809100020E94B30F8091000227
:101F50000E94DE0F21960FB6F894DEBF0FBECDBFF4
:101F6000DF91CF910895CF93DF93CDB7DEB721975F
:101F70000FB6F894DEBF0FBECDBF898389810E9462
:101F8000CA0F21960FB6F894DEBF0FBECDBFDF910A
:101F9000CF910895CF93DF93CDB7DEB721970FB6DA
:101FA000F894DEBF0FBECDBF898321960FB6F8949B
:101FB000DEBF0FBECDBFDF91CF910895CF93DF93EA
:101FC000CDB7DEB723970FB6F894DEBF0FBECDBFF7
:101FD00089838981282F33273B832A838A819B81A8
:101FE0008130910569F02A813B812230310559F019
:101FF0008A819B81009709F009C00E94121009C0D4
:102000000E94061106C00E94711103C089810E94BE
:10201000DC1123960FB6F894DEBF0FBECDBFDF9163
:10202000CF910895CF93DF93CDB7DEB76AEF70E01D
:1020300080E090E00E9421100E94CA10DF91CF91B1
:102040000895CF93DF93CDB7DEB724970FB6F894FA
:10205000DEBF0FBECDBF69837A838B839C8389816A
:102060009A81AB81BC81AC01BD0180E00E9441102E
:1020700024960FB6F894DEBF0FBECDBFDF91CF918F
:102080000895EF920F931F93CF93DF93CDB7DEB7F1
:1020900025970FB6F894DEBF0FBECDBF89834A8364
:1020A0005B836C837D830E946E10AB01BC018A81CF
:1020B0009B81AC81BD81EE24E3948C019D018981DB
:1020C0000E94F01125960FB6F894DEBF0FBECDBF6B
:1020D000DF91CF911F910F91EF900895CF93DF93F0
:1020E000CDB7DEB724970FB6F894DEBF0FBECDBFD5
:1020F0000E948F10DC01CB0189839A83AB83BC8360
:1021000089819A81AB81BC81BC01CD0124960FB637
:10211000F894DEBF0FBECDBFDF91CF910895CF936E
:10212000DF93CDB7DEB70E949C10DC01CB01BC0170
:10213000CD01DF91CF910895CF93DF93CDB7DEB777
:1021400024970FB6F894DEBF0FBECDBF0E94BD101E
:10215000DC01CB0189839A83AB83BC8389819A811B
:10216000AB81BC81BC01CD0124960FB6F894DEBFD3
:102170000FBECDBFDF91CF910895CF93DF93CDB741
:10218000DEB70E94EA12DC01CB01BC01CD01DF9178
:10219000CF910895CF93DF93CDB7DEB70E94D310D0
:1021A000DF91CF910895CF93DF93CDB7DEB70E9433
:1021B000DC10DF91CF910895CF93DF93CDB7DEB7D9
:1021C0000E94E510DF91CF910895CF93DF93CDB7B3
:1021D000DEB721970FB6F894DEBF0FBECDBF0E94C9
:1021E00012098983A2E2B0E0E2E2F0E0908184E0AB
:1021F00089278C9389810E94350921960FB6F8941E
:10220000DEBF0FBECDBFDF91CF910895CF93DF9397
:10221000CDB7DEB76AEF70E080E090E00E94151164
:102220000E943511DF91CF910895CF93DF93CDB701
:10223000DEB724970FB6F894DEBF0FBECDBF69831B
:102240007A838B839C8389819A81AB81BC81AC0129
:10225000BD0181E00E94411024960FB6F894DEBFC4
:102260000FBECDBFDF91CF910895CF93DF93CDB750
:10227000DEB70E943E11DF91CF910895CF93DF9397
:10228000CDB7DEB70E944711DF91CF910895CF936C
:10229000DF93CDB7DEB70E945011DF91CF91089543
:1022A000CF93DF93CDB7DEB721970FB6F894DEBF9B
:1022B0000FBECDBF0E9412098983A2E2B0E0E2E224
:1022C000F0E0908182E089278C9389810E94350912
:1022D00021960FB6F894DEBF0FBECDBFDF91CF9130
:1022E0000895CF93DF93CDB7DEB76AEF70E080E05B
:1022F00090E00E9480110E94A011DF91CF9108957B
:10230000CF93DF93CDB7DEB724970FB6F894DEBF37
:102310000FBECDBF69837A838B839C8389819A8129
:10232000AB81BC81AC01BD0182E00E9441102496CA
:102330000FB6F894DEBF0FBECDBFDF91CF910895E9
:10234000CF93DF93CDB7DEB70E94A911DF91CF9174
:102350000895CF93DF93CDB7DEB70E94B211DF911E
:10236000CF910895CF93DF93CDB7DEB70E94BB1115
:10237000DF91CF910895CF93DF93CDB7DEB721974B
:102380000FB6F894DEBF0FBECDBF0E94120989833D
:10239000A2E2B0E0E2E2F0E0908181E089278C9354
:1023A00089810E94350921960FB6F894DEBF0FBED1
:1023B000CDBFDF91CF910895CF93DF93CDB7DEB737
:1023C00021970FB6F894DEBF0FBECDBF898321964B
:1023D0000FB6F894DEBF0FBECDBFDF91CF91089549
:1023E000EF920F931F93CF93DF93CDB7DEB72C9768
:1023F0000FB6F894DEBF0FBECDBF8B834C835D83D9
:102400006E837F83088719872A873B87EC868B81B9
:10241000282F3327C901880F991F880F991F880F0C
:10242000991F820F931F8251984F9A838983E98164
:10243000FA818C819D81AE81BF8180839183A2834B
:10244000B383E981FA8188859985AA85BB858483D0
:102450009583A683B7838C858170E981FA81982F53
:10246000917080858E7F892B8087E981FA818085B4
:10247000826080870E9448122C960FB6F894DEBFC7
:102480000FBECDBFDF91CF911F910F91EF900895B7
:10249000CF93DF93CDB7DEB721970FB6F894DEBFA9
:1024A0000FBECDBF81E00E94611289838981992787
:1024B00021960FB6F894DEBF0FBECDBFDF91CF914E
:1024C0000895CF93DF93CDB7DEB724970FB6F89476
:1024D000DEBF0FBECDBF8B830E9412098A838B8122
:1024E0000E948812882311F01C8202C085E08C8330
:1024F0008C8189838A810E94350989819927249654
:102500000FB6F894DEBF0FBECDBFDF91CF91089517
:10251000CF93DF93CDB7DEB723970FB6F894DEBF26
:102520000FBECDBF898389810E94C0128823D9F450
:1025300080910E088F3F39F4898180930E0889813C
:10254000809315080BC0809115089927FC01E8516C
:10255000F84F8981808389818093150881E090E01C
:102560009B838A8302C01B821A828A819B81239665
:102570000FB6F894DEBF0FBECDBFDF91CF910895A7
:10258000CF93DF93CDB7DEB723970FB6F894DEBFB6
:102590000FBECDBF898389819927FC01E851F84F8F
:1025A00080818F3F29F4909115088981981729F42B
:1025B00081E090E09B838A8302C01B821A828A8119
:1025C000992723960FB6F894DEBF0FBECDBFDF91DB
:1025D000CF910895EF92FF920F931F93CF93DF93C4
:1025E000CDB7DEB726970FB6F894DEBF0FBECDBFCE
:1025F0000E9412098A830E94991389830E945313AF
:102600008270882329F10E947613282F33274427CC
:1026100055278091E4079091E507A091E607B091D6
:10262000E70779018A01E80EF91E0A1F1B1F0E94A5
:1026300099139927AA27BB278E0D9F1DA01FB11F95
:102640000196A11DB11D8B839C83AD83BE8315C0F4
:102650008981282F3327442755278091E4079091BB
:10266000E507A091E607B091E707820F931FA41F2B
:10267000B51F8B839C83AD83BE838A810E943509FD
:102680008B819C81AD81BE81BC01CD0126960FB6A8
:10269000F894DEBF0FBECDBFDF91CF911F910F9198
:1026A000FF90EF900895CF93DF93CDB7DEB72197DA
:1026B0000FB6F894DEBF0FBECDBF0E946B138983A7
:1026C0008981992721960FB6F894DEBF0FBECDBF42
:1026D000DF91CF910895CF93DF93CDB7DEB7E7E3D6
:1026E000F0E080819927DF91CF910895CF93DF9318
:1026F000CDB7DEB721970FB6F894DEBF0FBECDBFC2
:102700000E948E1389838981992721960FB6F894A8
:10271000DEBF0FBECDBFDF91CF910895CF93DF9382
:10272000CDB7DEB7E3EBF0E080819927DF91CF9161
:102730000895CF93DF93CDB7DEB721970FB6F89406
:10274000DEBF0FBECDBF0E94B11389838981992757
:1027500021960FB6F894DEBF0FBECDBFDF91CF91AB
:102760000895CF93DF93CDB7DEB7E2EBF0E0808141
:102770009927DF91CF910895EF92FF920F931F93C6
:10278000CF93DF93CDB7DEB765970FB6F894DEBF72
:102790000FBECDBF0E946E10DC01CB018A8B9B8BDC
:1027A000AC8BBD8B8FEF9FEFAFEFBFE78E879F871F
:1027B000A88BB98B1D860E9470141C861B865AC07C
:1027C0002B853C85C901880F991F880F991F880F99
:1027D000991F820F931F8251984F9A878987E985A5
:1027E000FA8580858270882309F43FC0E985FA85DF
:1027F00020813181428153818A899B89AC89BD893D
:10280000821B930BA40BB50B8D839E83AF83B8877C
:10281000E985FA8524813581468157818D819E81A4
:10282000AF81B88579018A01E81AF90A0A0B1B0BF6
:10283000D801C70189839A83AB83BC8329813A81FC
:102840004B815C818E859F85A889B98928173907B6
:102850004A075B0754F489819A81AB81BC818E87DA
:102860009F87A88BB98B81E08D878B859C8501968E
:102870009C878B878B859C858330910508F4A0CF3E
:102880008D85882301F18E859F85A889B9891816C1
:1028900019061A061B064CF08A899B89AC89BD89EA
:1028A000BC01CD010E947D150EC08E859F85A88933
:1028B000B989EA88FB880C891D899C01AD01C80192
:1028C000B7010E94A61465960FB6F894DEBF0FBE3E
:1028D000CDBFDF91CF911F910F91FF90EF900895A1
:1028E000CF93DF93CDB7DEB70E947914DF91CF91FC
:1028F0000895CF93DF93CDB7DEB70E948214DF91A6
:10290000CF910895CF93DF93CDB7DEB70E948B149C
:10291000DF91CF910895CF93DF93CDB7DEB72197A5
:102920000FB6F894DEBF0FBECDBF0E941209898397
:102930001092EC0789810E94350921960FB6F89410
:10294000DEBF0FBECDBFDF91CF910895EF92FF9212
:102950000F931F93CF93DF93CDB7DEB728970FB6B2
:10296000F894DEBF0FBECDBF69837A838B839C83CF
:102970002D833E834F8358878D819E81AF81B8859B
:10298000E980FA800B811C819C01AD01C801B7016F
:102990000E94D71428960FB6F894DEBF0FBECDBFA5
:1029A000DF91CF911F910F91FF90EF900895CF92FB
:1029B000DF92EF92FF920F93CF93DF93CDB7DEB705
:1029C00028970FB6F894DEBF0FBECDBF69837A8318
:1029D0008B839C832D833E834F8358878D819E817B
:1029E000AF81B885C980DA80EB80FC8001E09C0172
:1029F000AD01C701B6010E940B1528960FB6F894D9
:102A0000DEBF0FBECDBFDF91CF910F91FF90EF9052
:102A1000DF90CF900895EF92FF920F931F93CF9383
:102A2000DF93CDB7DEB729970FB6F894DEBF0FBEA0
:102A3000CDBF69837A838B839C832D833E834F83B1
:102A4000588709878D819E81AF81B88580930A0858
:102A500090930B08A0930C08B0930D088985809380
:102A6000EB078D819E81AF81B885E980FA800B816B
:102A70001C819C01AD01C801B7010E944C1529962B
:102A80000FB6F894DEBF0FBECDBFDF91CF911F917F
:102A90000F91FF90EF900895EF92FF920F931F9385
:102AA000CF93DF93CDB7DEB728970FB6F894DEBF8C
:102AB0000FBECDBF69837A838B839C832D833E8336
:102AC0004F8358878D819E81AF81B885E980FA80D8
:102AD0000B811C819C01AD01C801B7010E949919AD
:102AE00028960FB6F894DEBF0FBECDBFDF91CF9111
:102AF0001F910F91FF90EF900895CF93DF93CDB783
:102B0000DEB72C970FB6F894DEBF0FBECDBF698736
:102B10007A878B879C8718861F8262C02F813885B1
:102B2000C901880F991F880F991F880F991F820F5D
:102B3000931F8251984F9E838D83ED81FE81808506
:102B40008270882309F447C0ED81FE8120813181A4
:102B50004281538189859A85AB85BC85821B930B05
:102B6000A40BB50B89839A83AB83BC83ED81FE8173
:102B7000248135814681578189819A81AB81BC81CD
:102B800082179307A407B50730F1ED81FE81808598
:102B90008170882331F0ED81FE8180858D7F808773
:102BA00016C0ED81FE812081318142815381ED810A
:102BB000FE8184819581A681B781820F931FA41F16
:102BC000B51FED81FE8180839183A283B3838F81C2
:102BD0000E9401160BC08F819885019698878F837C
:102BE0008F8198858330910508F498CF0E94481210
:102BF0002C960FB6F894DEBF0FBECDBFDF91CF91FC
:102C00000895CF93DF93CDB7DEB723970FB6F8942F
:102C1000DEBF0FBECDBF89838981282F33273B8339
:102C20002A838A819B818130910569F02A813B81C9
:102C30002230310559F08A819B81009709F009C043
:102C40000E94351609C00E94591606C00E947D16C2
:102C500003C089810E94A11623960FB6F894DEBFA7
:102C60000FBECDBFDF91CF910895CF93DF93CDB746
:102C7000DEB70E9440160E943E0DDF91CF9108956D
:102C8000CF93DF93CDB7DEB721970FB6F894DEBFB1
:102C90000FBECDBF80E00E94B51689838981992738
:102CA00021960FB6F894DEBF0FBECDBFDF91CF9156
:102CB0000895CF93DF93CDB7DEB70E9464160E94CC
:102CC000700DDF91CF910895CF93DF93CDB7DEB72D
:102CD00021970FB6F894DEBF0FBECDBF81E00E94F2
:102CE000B51689838981992721960FB6F894DEBF9E
:102CF0000FBECDBFDF91CF910895CF93DF93CDB7B6
:102D0000DEB70E9488160E94570DDF91CF9108957B
:102D1000CF93DF93CDB7DEB721970FB6F894DEBF20
:102D20000FBECDBF82E00E94B516898389819927A5
:102D300021960FB6F894DEBF0FBECDBFDF91CF91C5
:102D40000895CF93DF93CDB7DEB721970FB6F894F0
:102D5000DEBF0FBECDBF898321960FB6F894DEBFCC
:102D60000FBECDBFDF91CF910895CF93DF93CDB745
:102D7000DEB725970FB6F894DEBF0FBECDBF8B83AD
:102D80000E9412098A8380910302833069F5909131
:102D900000028B81981741F50E940617882381F461
:102DA0000E945517809309088FEF8093000281E0FD
:102DB000809303020E94EA178B810E9403180AC0C5
:102DC00083E080930002109203028B810E9403181B
:102DD0000E942E1819828A810E9435098981282F24
:102DE00033273D832C8307C08A810E94350981E007
:102DF00090E09D838C838C819D8125960FB6F894FD
:102E0000DEBF0FBECDBFDF91CF910895CF93DF938B
:102E1000CDB7DEB721970FB6F894DEBF0FBECDBF9A
:102E20000E941E1789838981992721960FB6F894ED
:102E3000DEBF0FBECDBFDF91CF910895CF93DF935B
:102E4000CDB7DEB726970FB6F894DEBF0FBECDBF65
:102E50001C821B8214C08B819C81FC01E351F84FC2
:102E60008081882339F01A828A81282F33273E8374
:102E70002D8310C08B819C8101969C838B838B81D9
:102E80009C81009741F381E089838981282F332732
:102E90003E832D838D819E8126960FB6F894DEBFEA
:102EA0000FBECDBFDF91CF910895CF93DF93CDB704
:102EB000DEB721970FB6F894DEBF0FBECDBF0E94DC
:102EC0006D1789838981992721960FB6F894DEBF03
:102ED0000FBECDBFDF91CF910895CF93DF93CDB7D4
:102EE000DEB726970FB6F894DEBF0FBECDBF809138
:102EF0000202992701969C838B838B819C8183306E
:102F0000910511F41C821B828B810E943E1888233C
:102F100071F08B810E94B8178B81809302028B81A4
:102F20008A838A81282F33273E832D8316C0809180
:102F30000202282F33278B819C812817390731F013
:102F40008B819C8101969C838B83D7CF8FEF898364
:102F50008981282F33273E832D838D819E8126965C
:102F60000FB6F894DEBF0FBECDBFDF91CF910895AD
:102F7000CF93DF93CDB7DEB721970FB6F894DEBFBE
:102F80000FBECDBF89838981869586958695482F0A
:102F900055279927FC01E351F84F8081682F8981DB
:102FA00099279C012770307081E090E002C0880F63
:102FB000991F2A95E2F780958623FA01E351F84F8D
:102FC000808321960FB6F894DEBF0FBECDBFDF9190
:102FD000CF910895CF93DF93CDB7DEB721970FB68A
:102FE000F894DEBF0FBECDBF82E00E9461128983DC
:102FF0008981992721960FB6F894DEBF0FBECDBF09
:10300000DF91CF910895CF93DF93CDB7DEB72197AE
:103010000FB6F894DEBF0FBECDBF898389810E94B1
:103020001A1821960FB6F894DEBF0FBECDBFDF9100
:10303000CF910895CF93DF93CDB7DEB721970FB629
:10304000F894DEBF0FBECDBF898321960FB6F894EA
:10305000DEBF0FBECDBFDF91CF910895CF93DF9339
:10306000CDB7DEB70E943718DF91CF910895CF9387
:10307000DF93CDB7DEB7DF91CF910895CF93DF9384
:10308000CDB7DEB721970FB6F894DEBF0FBECDBF28
:10309000898389818695869586959927FC01E351D8
:1030A000F84F8081482F898199279C0127703070C3
:1030B00081E090E002C0880F991F2A95E2F78423EF
:1030C000992721960FB6F894DEBF0FBECDBFDF91D2
:1030D000CF910895CF93DF93CDB7DEB726970FB684
:1030E000F894DEBF0FBECDBF8C83809100020E949A
:1030F000B4180E9412098B8380910302882371F413
:1031000081E0809303028C81809309088B810E9467
:1031100035090E94DF181E821D821BC0909109088C
:103120008C81981751F41A828B810E9435098A810B
:10313000282F33273E832D830CC08C810E943919A0
:1031400089838B810E9435098981282F33273E830B
:103150002D838D819E8126960FB6F894DEBF0FBE1B
:10316000CDBFDF91CF910895CF93DF93CDB7DEB779
:1031700021970FB6F894DEBF0FBECDBF898389813A
:103180000E94CB1821960FB6F894DEBF0FBECDBFBC
:10319000DF91CF910895CF93DF93CDB7DEB721971D
:1031A0000FB6F894DEBF0FBECDBF898321960FB650
:1031B000F894DEBF0FBECDBFDF91CF910895CF93BE
:1031C000DF93CDB7DEB70E94E818DF91CF91089565
:1031D000CF93DF93CDB7DEB70E94F118DF91CF9187
:1031E0000895CF93DF93CDB7DEB725970FB6F89448
:1031F000DEBF0FBECDBF0E9412098B8380910002FB
:10320000833029F580910302813061F40E94EA172E
:103210001A828B810E9435098A81282F33273D83AA
:103220002C831CC080910302823089F480910908AC
:103230008093000283E08093030219828B810E94B5
:1032400035098981282F33273D832C8307C08B8143
:103250000E94350981E090E09D838C838C819D8163
:1032600025960FB6F894DEBF0FBECDBFDF91CF918C
:103270000895CF93DF93CDB7DEB722970FB6F894BA
:10328000DEBF0FBECDBF8A838A810E945319898316
:103290008981992722960FB6F894DEBF0FBECDBF65
:1032A000DF91CF910895CF93DF93CDB7DEB7259708
:1032B0000FB6F894DEBF0FBECDBF8B838B810E940B
:1032C0003E18882321F58B81869586958695482F13
:1032D00055279927FC01E351F84F8081682F8B8196
:1032E00099279C012770307081E090E002C0880F20
:1032F000991F2A95E2F7862BFA01E351F84F808354
:103300001A828A81282F33273D832C8307C085E0CA
:1033100089838981282F33273D832C838C819D814C
:1033200025960FB6F894DEBF0FBECDBFDF91CF91CB
:103330000895CF93DF93CDB7DEB729970FB6F894F2
:10334000DEBF0FBECDBF6A837B838C839D832E83BC
:103350003F83488759870E941209898381E08093BF
:10336000EC078A819B81AC81BD818093E0079093BB
:10337000E107A093E207B093E3078E819F81A885C0
:10338000B9858093110890931208A0931308B09305
:10339000140889810E9435090E94D71929960FB611
:1033A000F894DEBF0FBECDBFDF91CF910895EF92AD
:1033B000FF920F931F93CF93DF93CDB7DEB72D9777
:1033C0000FB6F894DEBF0FBECDBF1D860E94120956
:1033D0008C870E947613182F0E949913E12EE81A09
:1033E0008E2D8F5F8B870E94531389878B8588234F
:1033F00019F08B85823030F0898599278270907022
:10340000009721F08C850E94350981C08091EC07DE
:10341000882319F486EE8A876CC00E94EA12DC01C8
:10342000CB018D839E83AF83B8872091E0073091D5
:10343000E1074091E2075091E3078D819E81AF81C2
:10344000B8857C018D01E21AF30A040B150BA80163
:1034500097018091110890911208A0911308B091E2
:103460001408281739074A075B0738F01092EC0751
:1034700081E08D8786EE8A873CC02091E0073091FD
:10348000E1074091E2075091E30780911108909184
:103490001208A0911308B0911408280F391F4A1F71
:1034A0005B1F8091E4079091E507A091E607B0913A
:1034B000E70779018A01E81AF90A0A0B1B0BD80100
:1034C000C70189839A83AB83BC8389819A81AB814D
:1034D000BC81873E9105A105B10518F086EE8A876B
:1034E00008C08981823018F482E08A8702C089810D
:1034F0008A878A8581508A878A850E94941A8C855A
:103500000E9435098D85882311F00E94241B2D9679
:103510000FB6F894DEBF0FBECDBFDF91CF911F91E4
:103520000F91FF90EF900895CF93DF93CDB7DEB763
:1035300021970FB6F894DEBF0FBECDBF89830E94DE
:10354000E61A0097E1F70E949913982F898198173E
:1035500019F489818F5F89838981282F3327442734
:1035600055278091E4079091E507A091E607B09177
:10357000E707820F931FA41FB51F9C01AD012F5FAA
:103580003F4F4F4F5F4F8091E4079091E507A09127
:10359000E607B091E707281739074A075B0750F499
:1035A0008091E4079091E507A091E607B091E707C5
:1035B0008095898389810E94BA0C21960FB6F89470
:1035C000DEBF0FBECDBFDF91CF910895CF93DF93C4
:1035D000CDB7DEB722970FB6F894DEBF0FBECDBFD2
:1035E0000E94FF1A9A83898389819A8122960FB655
:1035F000F894DEBF0FBECDBFDF91CF910895CF937A
:10360000DF93CDB7DEB722970FB6F894DEBF0FBEBB
:10361000CDBFE6EBF0E080819927887090709A83A7
:10362000898389819A81009721F081E090E09A83D3
:10363000898389819A8122960FB6F894DEBF0FBEE6
:10364000CDBFDF91CF910895CF93DF93CDB7DEB794
:103650000E942D1BDF91CF910895CF93DF93CDB7BB
:10366000DEB70E94361BDF91CF910895CF93DF9391
:10367000CDB7DEB721970FB6F894DEBF0FBECDBF32
:1036800080E00E94611289838981992721960FB673
:10369000F894DEBF0FBECDBFDF91CF910895CF92DA
:1036A000DF92EF92FF920F93CF93DF93CDB7DEB708
:1036B0008091EB07882399F4C0900A08D0900B08FA
:1036C000E0900C08F0900D080E94791BDC01CB0102
:1036D00000E0A7019601BC01CD010E940B150E94DC
:1036E000D11BDF91CF910F91FF90EF90DF90CF90A2
:1036F0000895CF93DF93CDB7DEB724970FB6F89434
:10370000DEBF0FBECDBF0E949A1BDC01CB018983B7
:103710009A83AB83BC8389819A81AB81BC81BC01D4
:10372000CD0124960FB6F894DEBF0FBECDBFDF915A
:10373000CF910895CF93DF93CDB7DEB725970FB61E
:10374000F894DEBF0FBECDBF0E9412098D83209179
:10375000E0073091E1074091E2075091E307809143
:10376000110890911208A0911308B0911408820FCB
:10377000931FA41FB51F89839A83AB83BC838D815C
:103780000E94350989819A81AB81BC81BC01CD0140
:1037900025960FB6F894DEBF0FBECDBFDF91CF9157
:1037A0000895CF93DF93CDB7DEB70E94DA1BDF9188
:1037B000CF910895CF93DF93CDB7DEB70E946E10FF
:1037C000DC01CB01BC01CD010E947D15DF91CF91C1
:1037D00008951F920F920FB60F9211242F933F93CB
:1037E0004F935F936F937F938F939F93AF93BF9309
:1037F000EF93FF93CF93DF93CDB7DEB70E94151CF5
:103800000E942A1CDF91CF91FF91EF91BF91AF9160
:103810009F918F917F916F915F914F913F912F91E8
:103820000F900FBE0F901F901895CF93DF93CDB7D9
:10383000DEB7E0EBF0E0A0EBB0E08C918083E6EB4C
:10384000F0E080819927827090700097C1F7DF9136
:10385000CF910895CF93DF93CDB7DEB70E94331C8D
:10386000DF91CF910895CF93DF93CDB7DEB7229745
:103870000FB6F894DEBF0FBECDBF0E947613992716
:1038800001969C01442755278091E4079091E50714
:10389000A091E607B091E707820F931FA41FB51F01
:1038A0008093E4079093E507A093E607B093E707BA
:1038B0008091E4079091E507A091E607B091E707B2
:1038C0001A8219820097A105B10521F481E090E0E8
:1038D0009A8389830E94200D0E94D71989819A8139
:1038E000009711F00E947D1C22960FB6F894DEBF5F
:1038F0000FBECDBFDF91CF910895CF93DF93CDB7AA
:10390000DEB70E94861CDF91CF910895CF93DF939D
:10391000CDB7DEB7DF91CF9108951F920F920FB60A
:103920000F9211242F933F934F935F936F937F9345
:103930008F939F93AF93BF93EF93FF93CF93DF93B7
:10394000CDB7DEB70E94151C0E94B91CDF91CF9144
:10395000FF91EF91BF91AF919F918F917F916F9167
:103960005F914F913F912F910F900FBE0F901F903D
:103970001895CF93DF93CDB7DEB70E94C21CDF91BD
:10398000CF910895CF93DF93CDB7DEB7DF91CF917D
:103990000895FB01DC0102C001900D92415050409E
:1039A000D8F70895DC0101C06D9341505040E0F715
:0439B0000895FFCFA8
:0239B40003000E
:00000001FF
