S01700006275696C642F697269732F6D61696E2E7372656343
S11300000C9483010C94A2010C94A2010C94A201FF
S11300100C94A2010C94A2010C94A2010C94A201D0
S11300200C94A2010C94A2010C94A2010C94A201C0
S11300300C94A2010C9489120C94A2010C94A50DA9
S11300400C94EA200C9420210C945C0E0C94670E02
S11300500C94720E0C94A2010C94A2010C94A201B3
S11300600C94B90D0C945D100C94A2010C94E01046
S11300700C94A2010C94A2010C94A2010C943712CA
S11300800C9416120C9421120C942C120C944A12F7
S11300900C94F9110C94A2010C940B120C94A2016F
S11300A00C94A2010C94A2010C94A2010C94A20140
S11300B00C94A2010C94A2010C94A2010C94A20130
S11300C00C94A2010C94A2010C94A20111273627CE
S11300D039276E27712719286428B62CC02CC32C05
S11300E0D72CDA2CDD2C032D072D122D372DFB26D2
S11300F0F52D542E0127082E0B2E0E2E0927322EF5
S113010000002110422063308440A550C660E7708F
S1130110088129914AA16BB18CC1ADD1CEE1EFF137
S11301203112100273325222B5529442F772D662DF
S1130130399318837BB35AA3BDD39CC3FFF3DEE387
S11301406224433420040114E664C774A44485542F
S11301506AA54BB528850995EEE5CFF5ACC58DD5D7
S11301605336722611163006D776F6669556B4467F
S11301705BB77AA719973887DFF7FEE79DD7BCC727
S1130180C448E5588668A7784008611802282338CF
S1130190CCC9EDD98EE9AFF9488969990AA92BB977
S11301A0F55AD44AB77A966A711A500A333A122A1F
S11301B0FDDBDCCBBFFB9EEB799B588B3BBB1AABC7
S11301C0A66C877CE44CC55C222C033C600C411C6F
S11301D0AEED8FFDECCDCDDD2AAD0BBD688D499D17
S11301E0977EB66ED55EF44E133E322E511E700EBF
S11301F09FFFBEEFDDDFFCCF1BBF3AAF599F788F67
S11302008891A981CAB1EBA10CD12DC14EF16FE146
S11302108010A100C230E32004502540467067607E
S1130220B9839893FBA3DAB33DC31CD37FE35EF396
S1130230B1029012F322D2323542145277625672CE
S1130240EAB5CBA5A89589856EF54FE52CD50DC5E6
S1130250E234C324A014810466744764245405441E
S1130260DBA7FAB79987B8975FE77EF71DC73CD736
S1130270D326F2369106B01657667676154634566E
S11302804CD96DC90EF92FE9C899E9898AB9ABA986
S11302904458654806782768C018E1088238A328BE
S11302A07DCB5CDB3FEB1EFBF98BD89BBBAB9ABBD6
S11302B0754A545A376A167AF10AD01AB32A923A0E
S11302C02EFD0FED6CDD4DCDAABD8BADE89DC98D26
S11302D0267C076C645C454CA23C832CE01CC10C5E
S11302E01FEF3EFF5DCF7CDF9BAFBABFD98FF89F76
S11302F0176E367E554E745E932EB23ED10EF01EAE
S113030000020E060C0411241FBECFEFD1E2DEBFA3
S1130310CDBF12E0A0E0B2E0EAEEF6E600E00BBFEB
S113032002C007900D92AA31B107D9F716E1AAE1EC
S1130330B2E001C01D92AF3AB107E1F70E948A2EE4
S11303400C9474330C940000FC0120E030E007C0EE
S113035082819381280F391F0480F581E02D309725
S1130360B9F7C9010895FB01518340833383228384
S1130370958384830895CF92DF92EF92FF920F9337
S11303801F93CF93DF938C01FB017A01690105C0B0
S1130390E81BF90BE8010C811D81E8018A819B812E
S11303A0E817F907A8F71CC0E8018A819B818E1B16
S11303B09F0BE7018E159F0508F4EC01D8018D9180
S11303C09C91AE01B6018E0F9F1F0E946433CC0E28
S11303D0DD1EEC1AFD0AE8010C811D81E0E0F0E06D
S11303E00115110519F01E141F04F4F280E090E0C9
S11303F0DF91CF911F910F91FF90EF90DF90CF90FD
S113040008954F925F926F927F928F929F92AF92D4
S1130410BF92CF92DF92EF92FF920F931F93CF93ED
S1130420DF938C014B015A013901CC24DD2404C033
S11304306C01F801048115810115110519F4442496
S1130440552436C0F801828193818C0D9D1D881638
S1130450990670F74424552428C07401EC18FD084B
S1130460F801828193818E199F09E5018A159B0504
S113047008F4EC01F801608171816E0D7F1DAE01FD
S1130480C3010E9464334C0E5D1EF8010481158182
S11304900115110569F0CE0CDF1CCC0EDD1E8C0E8F
S11304A09D1EAC1ABD0A6C0E7D1E1A141B04ACF200
S11304B0C201DF91CF911F910F91FF90EF90DF90D8
S11304C0CF90BF90AF909F908F907F906F905F90F0
S11304D04F900895EF92FF920F931F93CF93DF9362
S11304E0FC0120E030E040E050E0A0E0B0E02EC0AD
S11304F0628173816115710531F1C081D18100E0A0
S113050010E01EC0888100FD0BC09927982F882712
S1130510A82BB92BC80101968617970771F403C05D
S11305209927A82BB92B7D01C701AA27BB27280F20
S1130530391F4A1F5B1FA0E0B0E00F5F1F4F2196D9
S113054006171707F9F60480F581E02D309781F638
S11305500BC0DA01C901A070B0709A014427552775
S1130560280F391F4A1F5B1F203080E0380781E0C5
S1130570480780E0580768F7C90180959095DF9196
S1130580CF911F910F91FF90EF900895EF92FF92FA
S11305900F931F93CF93DF93CDB7DEB76A970FB650
S11305A0F894DEBF0FBECDBFE42E08969A878987E4
S11305B040E150E05C874B879E01215F3F4F3E87BF
S11305C02D874096988B8F875A8B498BCE01459601
S11305D09C8B8B8BCE0101969E8B8D8B88E090E05B
S11305E0988F8F8B7A8F698FCB010E94A401AA27E1
S11305F097FDA095BA2FBC01CD010E946D046983BB
S11306007A838B839C83FF2400271127C801B701B9
S11306100E946D046D837E838F839887CE01099633
S11306200E946A026A960FB6F894DEBF0FBECDBF71
S1130630DF91CF911F910F91FF90EF9008958CED72
S113064095E090933E0280933D020895ADE3B2E0BD
S113065004969C0121703070280F391F02C0A40F2A
S1130660B51F8D919C911197AC015F704217530790
S113067010F097FF06C0CD018D5392408C5D9540DC
S113068074F388E0A931B80718F080E090E0089589
S1130690C90102979C013F70306811963C932E93D8
S11306A0FD01E80FF91F481B590B5F70518340830C
S11306B0CD0102960895CF93DF939C01EDE3F2E020
S11306C0C0E0D0E006C0808191819F70EF01E80F07
S11306D0F91FCF0102968217930739F0CF018D538A
S11306E092408C5D95407CF327C0808191819C0170
S11306F03F70DF01A20FB31F9F7791838083CD01E9
S11307008D5392408C5D95404CF48D919C9197FD56
S113071005C09F70280F391F31832083209761F013
S11307202881398137FD08C03F70808191819F7095
S1130730280F391F39832883DF91CF910895EDE382
S1130740F2E040E050E00BC02081318137FD04C06D
S1130750C9019F70480F591F3F70E20FF31FCF016B
S11307608D5392408C5D95407CF3CA0108956F923D
S11307707F928F929F92AF92BF92CF92DF92EF922D
S1130780FF920F931F93CF93DF93FB015A018B01C9
S1130790040F151FDC01CC24DD2440E050E07AE393
S11307A098EF692E9FEF792E600E711E6E167F06EC
S11307B008F460C0ED01E980FC9024E030E08FEFA4
S11307C0882E982ECCE0D0E0C401022E02C096956B
S11307D087950A94E2F78E159F0530F04230510553
S11307E0B1F42031310599F4C7010C2E02C096955D
S11307F087950A94E2F7682F6F708F7090700A974C
S113080018F4862F805D02C0862F895A81932C5F4D
S11308103F4F249724313105B9F68D919C9111975E
S1130820892B21F54115510559F471938D919C91B2
S11308301197892B19F441E050E002C042E050E0E6
S113084087E0C816D10424F44130510509F07193AE
S11308500894C11CD11C129688E0C816D10409F072
S1130860A5CF4130510531F4719304C04130510595
S113087039F7E4CF11920A191B09CF01801B910BA0
S1130880DF91CF911F910F91FF90EF90DF90CF9068
S1130890BF90AF909F908F907F906F900895DC01F0
S11308A08C918370823021F4FD012181328113C047
S11308B0833019F020E030E00EC0FD01319620E0D5
S11308C030E0AD01475F5F4F81919191280F391F4F
S11308D0E417F507C9F7C9010895EF92FF920F9342
S11308E01F93FB01BC01882799272F2F3E2F4427F4
S11308F05527A90133272227E72EF62E0027112793
S11309002E293F29402B512BCA01B9011F910F9168
S1130910FF90EF9008959C01DB01FC0104C08D91D0
S113092081934150504041155105C9F7C9010895BB
S11309308F929F92AF92BF92CF92DF92EF92FF92EB
S11309400F931F93CF93DF936C014B01892B09F411
S1130950A3C06115710509F49FC080E1EB011992F0
S11309608A95E9F7D60160E070E090E046C02A334A
S113097001F1822F80538A3030F4332727FD3095DC
S1130980205330400EC0422F552747FD5095215427
S1130990263020F49A012753304003C09A0127558A
S11309A0304044E0660F771F4A95E1F7622B732BC2
S11309B00DC0E92FFF27EE0FFF1FE80DF91D072FCC
S11309C0162F118300839F5F60E070E0FD01319674
S11309D0ED012981222359F4E92FFF27EE0FFF1F90
S11309E0E80DF91DE72EF62EF182E08255C08C91B8
S11309F08A3311F42A3341F0DF012C91222309F0C8
S1130A00B6CFFD0101C0319680818823E1F7DF0173
S1130A10119760E070E017E090E03BC02C912A331E
S1130A2011F1822F80538A3030F4332727FD30951B
S1130A30205330400EC0422F552747FD5095215476
S1130A40263020F49A012753304003C09A012755D9
S1130A503040092E02C0220F331F0A94E2F7622BA2
S1130A60732B9C5F0EC0E12FFF27EE0FFF1FE80DD5
S1130A70F91DA72EB62EB182A082115060E070E05D
S1130A8090E01197FD0181818A3319F48C918A33A6
S1130A9019F0CA16DB0610F2DF91CF911F910F9166
S1130AA0FF90EF90DF90CF90BF90AF909F908F908A
S1130AB00895FC01718360835383428335832483C7
S1130AC00895CF92DF92EF92FF920F931F93CF93EB
S1130AD0DF938C016B01EE24FF241AC0F80182819C
S1130AE09381E89EE001E99ED00DF89ED00D11247B
S1130AF080819181C80FD91FCE01F6010995FFEFBE
S1130B008F3F9F0759F0019759F00894E11CF11C9D
S1130B10F80184819581E816F90600F3C0E0D0E07D
S1130B20CE01DF91CF911F910F91FF90EF90DF9055
S1130B30CF900895EF92FF920F931F93CF93DF937B
S1130B40EC017B0100E010E012C08A819B819C01D2
S1130B50029FC001039F900D129F900D11242881C4
S1130B603981820F931FF70109950F5F1F4F8C8105
S1130B709D810817190748F3DF91CF911F910F91B9
S1130B80FF90EF9008958FB7F894992708958FBF39
S1130B900895282F9FB7F894E82FFF27E853F74FBD
S1130BA080818F3F81F4E0918B16E21771F40BC0C2
S1130BB02093DB1404C0FF27E853F74F20832093CE
S1130BC08B1620E007C025E005C08091DB148F3F21
S1130BD091F7EECF892F99278FBF822F99270895F8
S1130BE084E10E94C9059927089586E10E94C905F8
S1130BF09927089581E00E94C9059927089585E100
S1130C000E94C905992708951F931FB7F8948091EE
S1130C108516882341F48BE00E94C905882319F4C2
S1130C2081E080938516812F99278FBF1F910895A6
S1130C30382FFA01422F213718F082E090E008950E
S1130C406683872F992785833387218780912202A2
S1130C5090912302892B19F085E090E008952FB735
S1130C60F894332785E08093250210922602F093AE
S1130C702102E093200282E090E09093230280938B
S1130C8022021092280210922702445F4093240209
S1130C902FBF8FB7F894282F33278091970D8A3070
S1130CA011F42FBF19C02FBF9FB7F8948091FD098D
S1130CB0882311F020E006C081E08093FD091092A2
S1130CC0FE0921E0892F99278FBF222329F00E9452
S1130CD0040680E090E0089510922302109222020C
S1130CE081E090E00895EF92FF921F93CF93DF93FA
S1130CF0182F7B01E82FFF27EE0FFF1FE752FB4E53
S1130D001182108210921802A091D914B091DA14B1
S1130D10109721F08091EF0980FF11C081E080934A
S1130D20180203C089E10E94C9051123E1F48EE48D
S1130D30E81684E1F806B9F41092DA0C14C0FD0147
S1130D40359624813327ED016D817727762F662729
S1130D5081819927682B792BAD0186810E94180621
S1130D60882319F3DFCFDF91CF911F91FF90EF908C
S1130D700895AC01EEE2FBE080E090E09C01858107
S1130D8080FF05C0808191818417950741F0C901D6
S1130D9001963B968A30910589F72FEF30E0C9011F
S1130DA008950E94B9068F3F91F099272BE030E017
S1130DB0829FF001839FF00D929FF00D1124E25D5C
S1130DC0F44F858181FF03C08781908508958FEF5B
S1130DD09FEF08950E94B9068F3F19F481E090E0D7
S1130DE00895282F33278BE090E0289FF001299F56
S1130DF0F00D389FF00D1124E25DF44F8581886079
S1130E00858380E090E008952F923F924F925F9205
S1130E106F927F928F929F92AF92BF92CF92DF9206
S1130E20EF92FF920F931F93CF93DF93CDB7DEB76B
S1130E3029970FB6F894DEBF0FBECDBF6FB7698395
S1130E40F8942090E5093090E6094090E709509025
S1130E50E809662477248824EEE4AE2E73E8B72EDE
S1130E60CC24DD24EE24FF2400E010E0222D332DD9
S1130E70442D552D662D772D882D90E00E94383114
S1130E802A833B834C835D836E837F838887998722
S1130E90822E932EA42EB52E2401350100E20E9449
S1130EA03632A22EB32EC42ED52EA301920156950E
S1130EB04795379527952A0D3B1D4C1D5D1D57FF02
S1130EC005C05F772F5F3F4F4F4F5F4F2093E5097A
S1130ED03093E6094093E7095093E809E9818E2F9E
S1130EE099278FBFCA01B90129960FB6F894DEBFBE
S1130EF00FBECDBFDF91CF911F910F91FF90EF9067
S1130F00DF90CF90BF90AF909F908F907F906F9025
S1130F105F904F903F902F9008950E940407DC014A
S1130F20CB0108957FB7F8946091B2002091C30873
S1130F303091C4084091C5085091C608B99B11C0AE
S1130F408091B3009091B200280F311D411D511DB5
S1130F502F5F3F4F4F4F5F4F290F311D411D511DD3
S1130F6004C0260F311D411D511D872F99278FBFA6
S1130F70CA01B9010895613718F080E090E008953E
S1130F800C96089568E00E94BB07089562E00E94F1
S1130F90BB0708956E5F0E94BB07009709F0029695
S1130FA008950B960895CF93DF93FC01DC0111960D
S1130FB02181662351F0ED0189819927982F882793
S1130FC033272062822B932B09C0ED018981992755
S1130FD0982F88273327822B932B8F7D8183892F0A
S1130FE099278983DF91CF9108950F931F93CF930E
S1130FF0DF93EC01892BE9F02091391430913A14F4
S11310008FEF2F3F3807A9F08091B108813019F490
S1131010198218820BC000913B1410913C14C90131
S11310200E94D106080F191F1983088380E090E0FD
S113103002C081E090E0DF91CF911F910F9108955C
S113104080913402E82FFF27EE0FFF1FEC5EFB4E6A
S11310500190F081E02D20913602222351F08F5F20
S1131060809334028C3011F4109234022150209376
S11310703602CF010895AC012091880A2C3018F073
S113108081E090E008958091EA09682F620F712D44
S1131090711DFB016C30710508F03C97EE0FFF1FCA
S11310A0E056F24F518340832F5F2093880A80E0FB
S11310B090E00895AC012091870A2C3018F081E06B
S11310C090E008958091E514682F620F712D711DD1
S11310D0FB016C30710508F03C97EE0FFF1FE257DF
S11310E0F94E518340832F5F2093870A80E090E07C
S11310F00895685F0E94BB07009709F00896089559
S1131100FC018081855199270895CF93DF93EC01E9
S1131110FB01642F8FB7F894992722B134E0232779
S113112022B98FBF4230E1F58091DA0C8823C1F5F2
S11311309081818180935B1490935A144EE454E11E
S11311408FEF809354148093531486E18093591441
S11311508091D9149091DA14892B11F55093DA14F3
S11311604093D91460935714809118028823A9F0EE
S11311701092180222E06FEF7FEF86E10E941806BA
S11311809927282F882349F081E080931802109230
S1131190DA141092D914222319F481E08093DA0C22
S11311A0CE01DF91CF910895FC0127813085C901DB
S11311B0A3E0880F991FAA95E1F7820F931F860F6A
S11311C0971F6AE070E00E94E43270876783089595
S11311D0FC0161859285662329F48AE0989FB00119
S11311E0112409C077278AE0989FC00111240E9426
S11311F0F83211861286CF010E94D40808954FB7A1
S1131200F8945527FC01B3E0F695E795BA95E1F714
S1131210EC59F24F8770907021E030E002C0220F49
S1131220331F8A95E2F78081822B80834FBF089514
S11312308091970D8A3021F480915809843021F0EF
S113124081E080931D0208958DE00E94C9051092EB
S11312501D0208952FB7F89433278093C600E0EC5D
S1131260F0E08081806480832FBF0895FC016115C4
S1131270710519F481E090E008958091F809909146
S1131280F909892B19F085E090E0089570934214D0
S113129060934114F093F909E093F8091092E1097D
S11312A01092E00981E08093E2098091C00080649B
S11312B08093C0008091C10080648093C1008081CC
S11312C021E030E03093E1092093E0090E942A09EB
S11312D080E090E008958FB7F894992720912E022A
S11312E02E7F20932E022EE72093E2088FBF61E029
S11312F070E082EE98E00E943609992708951F93C2
S1131300CF93DF938FB7F894109285162091970DA1
S113131040E0283009F441E030E0293009F431E0BC
S1131320442311F4332351F01092970DE0919C0B58
S1131330FF27EE0FFF1FE550F64F108299278FBF4E
S1131340442311F4332331F19FB7F8948091E314CB
S11313508F5F8093E3148091F409833479F42091AE
S1131360120B8091110B821779F0822F8F5F80937B
S1131370120B863048F01092120B06C0A0E04423F2
S113138009F4A1E071E002C0A0E070E0892F992780
S11313908FBF06C0222311F010E06CC0A0E070E003
S11313A08FB7F894992720911D028FBF222341F013
S11313B08FB7F89499272AE02093970D8FBF42C0E6
S11313C08FB7F89499276091FB094091FD098FBF6D
S11313D08FB7F894282F332750E09091110B809108
S11313E0120B981709F451E02FBF552341F56623DA
S11313F031F55FB7F89482E08093FB098FB7F894D6
S1131400282F332740E09091110B8091120B9817ED
S113141009F441E02FBF442311F080E006C0E091BD
S1131420120BFF27EF5EF44F82818093FC0983E463
S11314308093F40910929C0B852F99270EC041507C
S1131440423010F010E00BC08FB7F894992725E4D0
S11314502093F40921E020939C0B8FBF11E07723A4
S113146049F08FB7F8949927A09326028FBF8FE095
S11314700E94C9058FB7F894C82FDD278091970D76
S11314808A3021F40E941809CFBF1DC0CFBF112399
S1131490D1F02FB7F89433271092A7161092A616FE
S11314A01092F00981E08093970D2FBF0E946B0981
S11314B0882349F08FB7F894992729E02093970D52
S11314C08FBF0E940406DF91CF911F910895882356
S11314D019F08CB5806402C08CB58F7B8CBD0895E7
S11314E00F931F93982F1FB7F89480911C0282309A
S11314F099F580910A02891779F58091080220E014
S113150030E08F3F11F421E030E0232BF1F49FEF22
S113151090930A028F3F19F42FEF30E00DC0282F6B
S11315203327F901ED50F64F8081809308028F3FF5
S113153011F49093090290832093F50981E080933C
S11315401C028AE00E94C90505C08FEF80930A023D
S113155010921C0201E001C000E0812F99278FBF87
S11315601FB7F89480911C02882311F40E94670A23
S1131570812F99278FBF90E0013009F491E081E039
S11315809827892F99271F910F91089580E00E9431
S1131590700A99270895882319F08CB5806802C0D1
S11315A08CB58F778CBD08950F931F9380E00E94B4
S11315B0670A0FB7F8941127229A2398219A209A40
S11315C08CB580618CBD80E00E94CB0A8CB5877F8E
S11315D08CBD8CB58B7F8CBD81E00E94670A8DB574
S11315E081608DBD8CB58C7F8CBD0FBF1F910F9119
S11315F008958FB7F8942091250B3091260B4091D4
S1131600270B5091280BE0918400F0918500B09B4A
S113161008C02F5F3F4F4F4F5F4FE0918400F09120
S1131620850099278FBFC901772766279F01442723
S11316305527622B732B842B952B0895FC01EC57B3
S1131640FF4F808182608083089580589F4F089562
S1131650FC0182819927982F882721813327822BA7
S1131660932B25E0969587952A95E1F781709070E4
S11316700895AC01EFB7F89420918400309185006F
S1131680C901841B950B03968617970720F0B901AF
S11316906D5F7F4F02C0640F751F6115710511F4F2
S11316A061E070E06150704070938900609388003D
S11316B082E086BB80916F00826080936F008E2FE2
S11316C099278FBF08958093EA14882311F484E046
S11316D001C081E08093560985E00E94C905089500
S11316E0CF93DF93EC010E94280B882339F18A8180
S11316F029819927982F88273327822B932B877446
S11317009C7C81549848D1F48F814E812FB7F894F2
S1131710332760910202709103022FBF20E09927C2
S1131720982F88275527842B952B8617970709F020
S113173021E081E02827822F992702C080E090E0F1
S1131740DF91CF910895EF92FF920F931F937C0145
S11317508FB7F894992700919C0D10919D0D0F5E01
S11317601E4F10939D0D00939C0D015111408FBF8E
S113177087E00E94C905C801B7010E94E4328A5D6E
S11317809E4F1F910F91FF90EF9008959BE0899FCA
S1131790F0011124E25DF44F71836083128213829D
S11317A0148285E085831682108617820895882323
S11317B049F0682F772784EC99E00E94F8326B3F58
S11317C0710510F06FEF7FEFCB010895CF92DF9298
S11317D0FF920F931F93CF93DF93282F062F482F49
S11317E055278BE090E0489FE001499FD00D589F1A
S11317F0D00D1124C25DD44F8D8182FF02C08B7F36
S11318008D838A81302F381B0A838B818F5F8B8372
S1131810332379F08C81830F81508C833B3048F0E3
S113182068817981822F0E94C60B0A8381E08B83B1
S11318306EC08BE090E0489FF001499FF00D589FE7
S1131840F00D1124E25DF44F83812481820F912DE8
S1131850911D03971CF4333008F459C0C080D18023
S1131860CEE2DBE0888199818C159D0509F049C0A1
S11318708D81282F332720FF44C06B81FC80F60E16
S113188021FD16C07727882799272AEF30E040E00A
S113189050E00E94B9322F2D3327442755270E9448
S11318A00B33DA01C9012E830E94D70B98878F83EB
S11318B08D8182608D830E8189E0089F80011124CF
S11318C06B817727882799272AEF30E040E050E0A2
S11318D00E94B9322F2D3327442755270E940B33FA
S11318E0C801820F911D6AE070E00E94F832CB01BA
S11318F06E831B821C820E94D70BBC01CE010E9406
S1131900D4082B968BE0CC39D80709F0ABCFDF9104
S1131910CF911F910F91FF90DF90CF90089580E0B9
S113192090E0E3E3FBE09C01808180FF08C0C901F3
S113193001963B968A309105B1F72FEF30E0C9014B
S11319400895982FAFEF60E070E040E050E0E3E3EB
S1131950FBE08081282F332720FF0BC021FF09C023
S113196023FD07C0228133812617370710F0A42FE7
S1131970B9014F5F5F4F3B964A30510551F7892FAC
S113198099276817790718F48FEF90E008958A2F44
S113199099270895AC013091C1088FEF4F3F580744
S11319A011F020E012C0832F99270895E22FFF271A
S11319B073E0EE0FFF1F7A95E1F7E250F74F808155
S11319C091818417950719F02F5F231779F7822FD8
S11319D0992708951F93CF93DF93162FC0E0D0E08B
S11319E06EE60E94CA07FC0180818123811711F4ED
S11319F0C1E0D0E0CE01DF91CF911F910895DF9235
S1131A00EF92FF920F931F938FB7F894282F3327E9
S1131A10D22E9091B3008091B20047B3981711F081
S1131A2041FF02C02FBF71C08091E4098823E1F116
S1131A300E949207E090B908F090BA080091BB08A0
S1131A401091BC082091E6143091E7144091E814F9
S1131A505091E9146E197F09800B910B621773077B
S1131A608407950720F01092E40971E01EC02E0D42
S1131A703F1D401F511F8091C3089091C408A0913D
S1131A80C508B091C608281B390B4A0B5B0B273ECF
S1131A9031054105510540F4822F223010F070E0E9
S1131AA005C070E082E002C070E086EE682F6150ED
S1131AB08091B60083FDFCCF8091B200681709F4D1
S1131AC06F5F2091C3083091C4084091C5085091BC
S1131AD0C608DA01C9010196A11DB11D860F911D29
S1131AE0A11DB11D82179307A407B50710F4622F37
S1131AF060958091B60083FDFCCF6093B300DFBE98
S1131B00772319F082E00E94C9051F910F91FF907D
S1131B10EF90DF900895AFB7F894BB27E1E0E0932E
S1131B20E4096093B9087093BA088093BB08909352
S1131B30BC082093E6143093E7144093E8145093C0
S1131B40E914AFBF0E94FF0C08951F920F920FB6C5
S1131B500F9211248F938091B0008093B0008091F4
S1131B60B60081FDFCCF8F910F900FBE0F901F9098
S1131B7018951F920F920FB60F9211240F931F9373
S1131B802F933F934F935F936F937F938F939F9381
S1131B90AF93BF93CF93DF93EF93FF932EB5E09171
S1131BA0D80CF091D90C309739F08091190B9091A1
S1131BB01A0BE80FF91F20838091190B90911A0BCF
S1131BC0019690931A0B8093190B80E00E94CB0A24
S1131BD0C091190BD0911A0B209126083091270837
S1131BE0C217D30708F042C00091801610918116E5
S1131BF04091D80C5091D90CCE010A962817390778
S1131C0008F4C901DA01AC0FBD1FF801EC0FFD1F88
S1131C109C012150304015C00115110531F080811F
S1131C208EBD0DB407FEFDCF04C01EBC0DB407FE6F
S1131C30FDCF8EB54115510509F08C93219611966F
S1131C403196C217D30740F381E00E94CB0A0115F5
S1131C50110531F00C0F1D1FF80180818EBD01C0EC
S1131C601EBCD0931A0BC093190B11C01092D90C3F
S1131C701092D80C10928116109280161092270898
S1131C801092260810921A0B1092190B8EB5FF9120
S1131C90EF91DF91CF91BF91AF919F918F917F9100
S1131CA06F915F914F913F912F911F910F910F90E1
S1131CB00FBE0F901F90189578941F920F920FB635
S1131CC00F9211240F900FBE0F901F9018957894C7
S1131CD01F920F920FB60F9211240F900FBE0F9008
S1131CE01F90189578941F920F920FB60F9211249B
S1131CF02F933F938F939F93AF93BF932FB7F894F2
S1131D0033278091250B9091260BA091270BB0913E
S1131D10280B0196A11DB11D8093250B9093260BD2
S1131D20A093270BB093280B2FBFBF91AF919F9126
S1131D308F913F912F910F900FBE0F901F90189588
S1131D40E0E0F1E06927660FF11DE60FF11DC8958B
S1131D50982F802D3196C89590250895982F8091BD
S1131D602902882389F5992379F531E030932902F2
S1131D7080910B0280932A0220911E02822F81708F
S1131D808093C008809110029091110290932C02CC
S1131D9080932B0280911F0280932D023227317091
S1131DA0267EE32FFF27EE0FFF1FE45FFD4F8081A8
S1131DB091819093110280931002232B20931E0291
S1131DC080E10E94C905089580911E0280FF02C02F
S1131DD08B7F01C08D7F80931E0208950F931F9304
S1131DE0082F162F809158098130D9F0813038F0AE
S1131DF0823009F44AC0833009F028C159C0002355
S1131E0009F458C1109234141092331410929F0D97
S1131E1010924D141092E30910922A0B1092290B80
S1131E2039C1002309F046C18091290B90912A0BF6
S1131E300E94A00E90932A0B8093290B82E080933A
S1131E40580910934D14143409F000C125C1869526
S1131E50869503C080911E028695817009F0F6C0B4
S1131E6080911E02992311F0846001C082608093E6
S1131E701E0280911E02877E886080931E0210924B
S1131E801F028FEF80930B0215C1002309F0DEC0FF
S1131E906093E3098091290B90912A0B0E94A00E74
S1131EA090932A0B8093290B83E08093580902C1F5
S1131EB080919F0D8F3F09F4C9C0002309F461C0CC
S1131EC0823008F4C3C0E0913314EE2309F4EBC06C
S1131ED04E2F4150E42FFF27ED5CFB4E8281992762
S1131EE0382F2227442311F4E2E002C0E42FE1500A
S1131EF0FF27ED5CFB4E82819927282B392B80919B
S1131F00290B90912A0B2817390709F09FC080E00C
S1131F100E94AE0E3091E3098091110B2091120BB7
S1131F20982F9F5F963008F090E0921771F0E82F99
S1131F30FF27EF5EF44F32838F5F8093110B86305F
S1131F4010F01092110B0E94040610923414109297
S1131F50331494E09093580910929F0D10924D14ED
S1131F601092E30910922A0B1092290B80912E02F1
S1131F708D7F80932E0280911D02882309F49AC0DC
S1131F8084C0823008F44EC0E0913414FF27ED5C25
S1131F90FB4E8281482F5527342F20911E02822F19
S1131FA0869586958695837099278130910519F0D9
S1131FB00297F9F40EC0277E206120931E02442369
S1131FC011F485E001C080E080931F0230930B027E
S1131FD010C080911F02873860F4E0911002F091E4
S1131FE01102E80FF11D408380911F028F5F8093DF
S1131FF01F0280913414E82FFF27ED5CFB4E6281B1
S11320008F5F80933414833010F010923414772748
S11320108091290B90912A0B0E94A00E90932A0B79
S11320208093290B80913314E82FFF27ED5CFB4E3E
S113203012838F5F80933314833010F01092331423
S113204080919F0D8F5F80939F0D34C01092341444
S11320501092331414E01093580910929F0D1092AB
S11320604D141092E30910922A0B1092290B8091BF
S11320702E028D7F80932E0281E00E94AE0E80910D
S11320801D02882329F0109358090E94180912C0D0
S1132090002381F081E009CF80911E02982F917076
S11320A080FDD5CED7CE809137149927382F22279B
S11320B042E01CCF1F910F9108951F920F920FB60B
S11320C00F9211242F933F934F935F936F937F93BA
S11320D08F939F93AF93BF93EF93FF938091C0002F
S11320E087FF42C06091C600E0912B0BF0912C0B4E
S11320F0309719F18091831690918416E80FF91F97
S11321006083019690938416809383162091A81679
S11321103091A9168217930738F110922C0B109264
S11321202B0B8091660D8330F9F08091C1008F777D
S11321308093C1001092660D17C06E3719F460E0E9
S113214081E010C080912E026D3721F4826080936B
S11321502E020AC081FF05C08D7F80932E0280E28B
S1132160682780E00E94EE0EFF91EF91BF91AF913E
S11321709F918F917F916F915F914F913F912F919B
S11321800F900FBE0F901F901895982F8D57823087
S113219068F480912E02816080932E0280E2892768
S11321A080939E0D8DE78093E20802C09093E2082D
S11321B061E070E082EE98E00E9436099927089564
S11321C078941F920F920FB60F921124FF920F93DF
S11321D01F932F933F934F935F936F937F938F93AB
S11321E09F93AF93BF93CF93DF93EF93FF9320918C
S11321F0E0093091E109809141149091421428172B
S1132200390780F4E091F809F091F909E20FF31F1E
S113221080812F5F3F4F3093E1092093E0090E94B2
S11322202A09D1C01092F9091092F8091092E20912
S11322308091C1008F7B8093C100FFB6F894809198
S11322402E0280FF0EC08E7F80932E0280919E0D01
S11322508093E20861E070E082EE98E00E94360923
S1132260AFC08091970D843009F48CC0853040F460
S1132270823021F18330B8F5813009F09CC00DC063
S1132280863009F48DC0863008F483C0873009F4A1
S11322908EC0883009F08FC091C08091F4090E94EB
S11322A0C510082F83E08093970D6091F409809105
S11322B0A6169091A7160E94A00E10C08091E31458
S11322C00E94C510082F83E08093970D6091E3145A
S11322D08091A6169091A7160E94A00E9093A7161F
S11322E08093A61666C0E0919C0BFF27EE0FFF1F9C
S11322F0E450F64F80810E94C510082F10919C0B6A
S1132300C12FDD27FE01EE0FFF1FE450F64F608161
S11323108091A6169091A7160E94A00E9093A716DE
S11323208093A6162091F0092F5F2093F0091130B5
S113233039F580912502E0912002F0912102E80F05
S1132340F11DE0818F5F80932502909124029817FC
S113235030F482E08093FD0940E050E002C04E2F4B
S11323605527DE01AA0FBB1FFD01E550F64F808102
S1132370823031F02F3F21F0A450B64F4C9319C056
S113238084E012C08091A6160E94C510082F85E033
S11323900BC08091A7160E94C510082F86E004C0C8
S11323A00E946B09082F87E08093970D02C088E094
S11323B003C0002329F089E08093970D0E9404064E
S11323C08F2D99278FBFFF91EF91DF91CF91BF910F
S11323D0AF919F918F917F916F915F914F913F91B9
S11323E02F911F910F91FF900F900FBE0F901F9090
S11323F018951F920F920FB60F9211248F9380910C
S1132400C80087FF02C08091CE008F910F900FBE4D
S11324100F901F90189578941F920F920FB60F92F9
S113242011240F900FBE0F901F90189578941F924F
S11324300F920FB60F9211240F900FBE0F901F90A2
S1132440189578941F920F920FB60F9211240F9043
S11324500FBE0F901F90189578941F920F920FB68D
S11324600F9211240F900FBE0F901F90189578941F
S11324701F920F920FB60F9211248F939F93809106
S11324809600909197009F918F910F900FBE0F909F
S11324901F90189578941F920F920FB60F921124E3
S11324A02F933F938F939F932FB7F8943327809163
S11324B0EB099091EC0901969093EC098093EB0958
S11324C02FBF9F918F913F912F910F900FBE0F902F
S11324D01F901895EF92FF920F931F9379018A0131
S11324E0643018F044E050E002C0462F5527BC0188
S11324F08CEB9DE00E946433E0922F02F092300254
S113250000933102109332021F910F91FF90EF90CC
S113251008951F920F920FB60F9211242F933F9399
S11325204F935F936F937F938F939F93AF93BF93D7
S1132530EF93FF938091B0008093B0008091B60038
S113254081FDFCCF8091B30099270196AA27BB2770
S11325502091C3083091C4084091C5085091C60821
S1132560280F391F4A1F5B1F2093C3083093C408E8
S11325704093C5085093C60878940E94FF0CFF91BD
S1132580EF91BF91AF919F918F917F916F915F91E7
S11325904F913F912F910F900FBE0F901F90189560
S11325A021E02093FA092093620D20918400309158
S11325B08500BC01C9010E94390B08951F93982F0F
S11325C01FB7F89480911A02823099F5809107021E
S11325D0891779F58091050220E030E08F3F11F4EE
S11325E021E030E0232BF1F49FEF909307028F3F1B
S11325F019F42FEF30E00DC0282F3327F901E350F1
S1132600F74F8081809305028F3F11F49093060267
S113261090832093FA0881E080931A0280E00E945C
S1132620C90505C08FEF8093070210921A0221E0BA
S113263001C020E0812F99278FBF90E0213009F459
S113264091E081E09827892F99271F91089580E0D0
S11326500E94DE1299270895EF920F931F93AE2DD7
S113266099E0899FF0011124E356F44F408351838C
S1132670628373830483158326833783A1708085E3
S11326808E7F8A2B8260808783E00E94C9051F9118
S11326900F91EF900895AF92BF92CF92DF92EF9295
S11326A0FF920F931F938091140290911502A091B1
S11326B01602B0911702B695A795979587958093C2
S11326C04F0990935009A0935109B09352090E9465
S11326D00407E0904F09F0905009009151091091BE
S11326E05209A80197010E940B335B016C01AE0CE7
S11326F0BF1CC01ED11EA0924F09B0925009C092B7
S11327005109D0925209109232140E949207AB01DF
S1132710BC0131E0E32E9601850182E00E942C1376
S11327201F910F91FF90EF90DF90CF90BF90AF90EB
S1132730089580E890E0A0E0B0E0809314029093C4
S11327401502A0931602B09317020E944B1308952A
S11327500F931F93CF93DF93182F0FB7F8948091A3
S11327601C02882311F40E94D40A802F99278FBF5A
S11327708FB7F894C82FDD272C2F80911C02882353
S113278061F481E080931C021093F5098AE00E94B1
S1132790C905CFBF80E090E021C0E12FFF27ED50B5
S11327A0F64F80818F3F89F4E0910902E11789F4A3
S11327B00CC01093080204C0FF27ED50F64F10839D
S11327C01093090280E090E002C085E090E02FBF02
S11327D005C0809108028F3F79F7EBCFDF91CF914D
S11327E01F910F9108958FB7F894282F3327922FB4
S11327F080910A02882331F480911C02823011F402
S11328002FBF13C09FBF8FB7F894282F3327809111
S11328101C02882369F482E080931C0210920A024D
S11328202FBF0E94D40A209A289A81E090E008954C
S11328302FBF80E00E94A81380E090E008950F93DA
S11328401F93FC0100810D50112762E00E94BB0719
S1132850FC01208133272F703070C901880F991F24
S1132860820F931F081B0250802F99271F910F91ED
S1132870089580915609823031F481E0809356099D
S113288085E00E94C9050895CF93DF93EC018FE39F
S11328908A87809119088F5F809319088B838091B0
S11328A01B02882319F085E090E01BC0C458DF4F59
S11328B088819981CC57D040892B21F061E0CE01E9
S11328C00E94D307D093BB0DC093BA0D10929B0DF9
S11328D010929A0D81E080931B020E94C90580E04A
S11328E090E0DF91CF910895FF920F931F93CF93C0
S11328F0DF93F82E8B01EA01622F213718F086E06E
S113290090E092C0FA0131968181298170E0992783
S1132910582F44273327422B532BCA0187749C7C9E
S11329208154984809F471E0772349F4CA0180730B
S11329309070816498688983892F99278183635F64
S113294068832FB7F8943327809102029091030291
S11329502FBF8887892F992789872FB7F894332722
S1132960809104022FBF99278C831D82CE010E947F
S1132970D107FC01F0820E83812F99278F838FB7B3
S1132980F894282F332780911A02882371F482E067
S113299080931A02109207022FBFCE010E944414A2
S11329A09927182F882399F00FC02FBFD093FC08C4
S11329B0C093FB088FB7F894C82FDD272C2F809184
S11329C01A02882399F406C080E00E94DE12812F47
S11329D099272AC081E080931A021092FA0880E0B5
S11329E00E94C905CFBF80E090E01EC08091FD0821
S11329F08F3F89F4E0910602EE2369F010C0109233
S1132A00050204C0FF27E350F74F1082109206021C
S1132A1080E090E002C085E090E02FBF05C0809187
S1132A2005028F3F79F7EBCFDF91CF911F910F9183
S1132A30FF900895EF92FF920F931F93CF93DF932C
S1132A40809112029927019664E070E00E94F832A6
S1132A50682F8093120200E0462F5527FA01EE0FEB
S1132A60FF1FE35EF44FC081D181209799F0E62FD8
S1132A70E695E695E695FF27EC51FB4E8081992774
S1132A809A012770307002C0959587952A95E2F7D0
S1132A9080FF0DC0CA01019664E070E00E94F83224
S1132AA0682F0F5F0430C1F6009312021FC06093B9
S1132AB012026430D8F4E88083EFE80EFF240F811B
S1132AC01127102F00278E819927082B192BCE014F
S1132AD00E94D107FC012E2DAE01B80180810E9415
S1132AE07414882319F082E10E94C905DF91CF9103
S1132AF01F910F91FF90EF900895EF92FF920F9323
S1132B001F93CF93DF93E82E8B01F42E83E08E1571
S1132B1018F481E090E03BC0CE2DDD27CC0FDD1F03
S1132B20C35ED44F88819981892B19F085E090E0A8
S1132B302EC079836883EDE0FE0EFB01F082F3EF93
S1132B40FF0E80911202843018F480E090E01FC0E0
S1132B50CB010E94D107FC018081F80167817727AE
S1132B60762F662726813327622B732BE09212027D
S1132B702F2DA8010E9474149927282F882329F047
S1132B8084E08093120219821882822F9927DF91A0
S1132B90CF911F910F91FF90EF900895CF92DF9204
S1132BA0EF92FF920F931F93CF93DF936C01809169
S1132BB0B808882309F484C080915509882309F052
S1132BC07FC066E088E298E00E94BB07EC01892B95
S1132BD009F476C081E080935509C9828D2D992727
S1132BE088838AE2C816D10429F020E030E040E06E
S1132BF050E008C020912F02309130024091310200
S1132C0050913202FE0132962383BB27A52F942FC5
S1132C10832F8283CA01AA27BB278183252F3327C9
S1132C20442755272A83E280FF2400271127102FE9
S1132C300F2DFE2CEE24522F4427332722279927C9
S1132C40AA27BB27DC0199278827282B392B4A2B55
S1132C505B2B83819927AA27BB27282B392B4A2B47
S1132C605B2BE22AF32A042B152BE114F104010552
S1132C70110511F410E011C08AE2C816D10421F440
S1132C8014E06CEB7DE003C010E060E070E0412FE5
S1132C905527CE0106960E9464338FEF80932E0849
S1132CA080932F0888E298E00E94D107FC0180E617
S1132CB080831A5F412F68E278E080E00E947D15EE
S1132CC0DF91CF911F910F91FF90EF90DF90CF9004
S1132CD008958F929F92AF92BF92CF92DF92EF921C
S1132CE0FF920F931F93CF93DF9380913B0288232E
S1132CF009F0BEC0E091F109F091F20910828091CF
S1132D00391490913A14E091F109F091F209828317
S1132D10892F992781838091B108882329F0809194
S1132D203B1490913C1420C08091391490913A1432
S1132D30C0913B14D0913C142FEF8F3F920781F444
S1132D40E091F109F091F209C4838D2F99278383CF
S1132D50E091F109F091F2098081806880830CC0D0
S1132D600E94D1068C0F9D1FE091F109F091F209A8
S1132D708483892F9927838362E089E599E00E94FF
S1132D80BB077C0168E089E599E00E94CA0765E019
S1132D90C62ED12CC80ED91E40E010E088249924F8
S1132DA05BE0A52EB12C03E08091380299270196AF
S1132DB0880D991D6AE070E00E94F8329C01992701
S1132DC08A9DD0018B9DB00D9A9DB00D1124A25DFA
S1132DD0B44FED018D81992780FF11C081FF0FC091
S1132DE08D919C91109FF0011124EC0DFD1D8183A8
S1132DF0892F992780838E8182831F5F422FE9E088
S1132E008E16910429F00894811C911C1F3060F2E5
S1132E1040933802809137028F5F8093370281504C
S1132E20E7018983812F8F7088838FEF80935F09F7
S1132E308093600989E599E00E94D107FC0180E74D
S1132E40808383E0189FC0011124895F482F552790
S1132E5069E579E083E00E947D159927882321F4B0
S1132E6081E080933B0204C0843011F41092390253
S1132E70DF91CF911F910F91FF90EF90DF90CF9052
S1132E80BF90AF909F908F900895AF92BF92CF92D2
S1132E90DF92EF92FF920F931F93282F33278BE03B
S1132EA090E0289FF001299FF00D389FF00D112428
S1132EB0E65EF74F82819381A481B5810097A105D5
S1132EC0B10569F080819181880F991F9183808376
S1132ED08150944020F080E094E0918380838BE0E3
S1132EE090E0289F5001299FB00C389FB00C11240A
S1132EF08AE198E0A80EB91EF50186819781A08524
S1132F00B18582839383A483B583C080D180EE246A
S1132F10FF2469E0CC0CDD1CEE1CFF1C6A95D1F784
S1132F200E940407DC01CB01F50100811181B80185
S1132F30762F6627770F0E94E432AA27BB278C0DD1
S1132F409D1DAE1DBF1D222733274AE0000F111F10
S1132F50221F331F4A95D1F7081B190B2A0B3B0B71
S1132F6006831783208731872281338144815581E9
S1132F70280F391F4A1F5B1F2283338344835583E1
S1132F801F910F91FF90EF90DF90CF90BF90AF9083
S1132F900895CF93DF93EC010E94CA0C282F8091EF
S1132FA0C1082817D1F0382F31503093C10813C00D
S1132FB0822F9927E3E0880F991FEA95E1F7DC0156
S1132FC0A250B74FFC01EA5FF64F88E001900D92E2
S1132FD08150E1F72F5F231758F3809139149091B2
S1132FE03A148C179D07A1F48FEF9FEF90933A1436
S1132FF08093391410923C1410923B1410923D1497
S113300010923E1481E080933C0286E10E94C9053F
S1133010DF91CF910895AF92BF92CF92DF92EF925A
S1133020FF920F931F93CF93DF938091B10888236E
S113303009F0DDC0CC24DD240FEF1FEFAFEFAA2E83
S1133040BA2EEE24FF243EC0C22FDD27F3E0CC0FBE
S1133050DD1FFA95E1F7C250D74F2A813B818FEFEC
S11330602F3F380761F18091B80D9091B90D281761
S1133070390729F1888199810E94D106FC016C816C
S11330807D81AC01460F571F288139818091391405
S113309090913A14AF812817390741F470933C1486
S11330A060933B14A0933E145A0109C0AA2339F437
S11330B0F29728F44017510710F46E018A0108941E
S11330C0E11CF11C2E2D8091C108E81608F4BCCF38
S11330D0EFEF0F3F1E0709F479C0FFEFAF16FFEFC4
S11330E0BF0691F080913E14882341F080913B14F7
S11330F090913C140A960817190730F0C8010F96EE
S11331008A159B0508F062C08091DE149091DF144B
S1133110A091E014B091E1140196A11DB11D80931A
S1133120DE149093DF14A093E014B093E114809123
S1133130391490913A140E94B9068F3F81F0282FD8
S113314033278BE090E0289FF001299FF00D389FF2
S1133150F00D1124E25DF44F8581877F8583F601AC
S1133160808191810E94EA06F601808191810E940A
S1133170B9068F3F41F0EBE08E9FF0011124E25D30
S1133180F44F12861186F6018081918190933A144E
S1133190809339148481958190933C1480933B14DB
S11331A0878180933E14C501801B910B459770F075
S11331B080E890E0A0E0B0E08093140290931502C0
S11331C0A0931602B09317020E944B1380913C0205
S11331D0882359F4FFEFAF16FFEFBF0631F40F5FFA
S11331E01F4F19F085E10E94C90510923C02DF913E
S11331F0CF911F910F91FF90EF90DF90CF90BF90F0
S1133200AF90089568E00E94BB07FC01868199276E
S1133210089568E00E94BB07FC01878199270895FF
S113322068E00E94BB07FC0181819927089568E04A
S11332300E94BB07FC0186819927089568E00E94DB
S1133240BB07FC0184819927982F88272581332780
S1133250822B932B089568E00E94BB07FC018481B4
S11332609927982F882725813327822B932B08951C
S1133270DF92EF92FF920F931F93CF93DF938C0112
S1133280D090B008F090100BEE2432C068E0C80172
S11332900E94BB07FC014F2D43705527248133271F
S11332A0322F222785819927282B392BEA01CC0F2D
S11332B0DD1FCC0FDD1FC40FD51FCD51D74F888123
S11332C099812817390791F4C8010E9417199A8126
S11332D0981761F4C8010E9410199C81981731F461
S11332E0C8010E9409199B81981721F0E394F39473
S11332F0ED1461F68E2D9927DF91CF911F910F91D7
S1133300FF90EF90DF9008958F929F92AF92BF92BB
S1133310DF92EF92FF920F931F93CF93DF934C01B1
S1133320442309F484C0FC01A080B1808091B008DA
S1133330843009F046C0C5010E9438192091B008B4
S1133340622F0E94D832492F9217D8F5992359F445
S11333508091100B9927019664E070E00E94F83286
S11333608093100B29C08091100B840F912D911D17
S11333709C0123703070E901CC0FDD1FCC0FDD1FE1
S1133380C20FD31F019664E070E00E94F832FC0182
S1133390EE0FFF1FEE0FFF1FE80FF91FCD51D74FA0
S11333A0ED51F74F85E0019009928150E1F74F5FAD
S11333B08091B0084817B8F28091B008815080938A
S11333C0B008D090B0080091100B0D0D112D111DF7
S11333D00370107068E0C5010E94BB07FC0178010E
S11333E0EE0CFF1CEE0CFF1CE00EF11E83EE98E0C9
S11333F0E80EF91E84819927982F88272581332781
S1133400822B932BF70191838083C5010E941719A6
S1133410F7018283C5010E941019F7018483C50155
S11334200E940919F7018383D394D092B008F40160
S1133430808191810E943B08C4010E945A08DF9157
S1133440CF911F910F91FF90EF90DF90BF90AF90BD
S11334509F908F9008954F925F926F927F928F9278
S11334609F92AF92BF92CF92DF92EF92FF920F930F
S11334701F93CF93DF932C0180912508882309F0B3
S11334808DC180918216853009F088C10E94F313A2
S1133490882309F483C180913814882309F07EC1FC
S11334A064E8862E912C840C951CD4018C9182FDA9
S11334B002C090E00BC0E5E8F0E04E0E5F1EF201A2
S11334C091812BE73FEF420E531E9F708091860A35
S11334D0981781F09093860A289885EC8EBD0DB4D8
S11334E007FEFDCF8EB590689EBD0DB407FEFDCFDF
S11334F08EB5289AE20121968981F201218140E06A
S11335009927982F88273327822B932B87749C7CA9
S11335108154984809F441E0442301F1289886E84D
S11335208EBD0DB407FEFDCF8EB51EBC0DB407FED7
S1133530FDCF8EB5289A99278F7190702091E90953
S113354040914E09240F312D311D43E035952795C7
S11335504A95E1F7281739070CF420C1289882EC22
S11335608EBD0DB407FEFDCF8EB589E08EBD0DB4C2
S113357007FEFDCF8EB5289A0E94F90A7B018C01C3
S1133580D4018C9184FD03C0E0E0F0E005C0F201B9
S113359080818550E80FF11D289881E88EBD0DB417
S11335A007FEFDCF8EB51EBC0DB407FEFDCF8EB554
S11335B0289A8F71893079F0289882EC8EBD0DB4E9
S11335C007FEFDCF8EB586E08EBD0DB407FEFDCFA0
S11335D08EB5289AE3C08FB7F89499272F9A209133
S11335E08400309185008FBF2F98289880E68EBD87
S11335F0D2019C910DB407FEFDCF8EB59EBD792FEF
S11336007250773010F4672F01C067E0DE01962F07
S11336104D910DB407FEFDCF8EB54EBD9150C1F74F
S11336206150C60FD11D6F5F21962E193F092E558B
S11336303F4F3901882477FC8094982C6E0C7F1CB2
S1133640801E911E309719F4972F961B42C020813B
S1133650E1808281A3809927AA27BB27BA2FA92FAB
S1133660982F8827332744275527522F4427332759
S11336702227FF24002711278701FF24EE242E2967
S11336803F29402B512BBB24CC24DD242A293B2960
S11336904C295D29822B932BA42BB52B86199709D2
S11336A0A809B9098383292F3A2F4B2F5527228341
S11336B09D014427552721838B2F9927AA27BB27B0
S11336C08083C2CF28810DB407FEFDCF21968EB52D
S11336D02EBD9150B8F70DB407FEFDCF8EB5289AD4
S11336E0289882EC8EBD0DB407FEFDCF8EB586E022
S11336F08EBD0DB407FEFDCF8EB5289A3097D1F15B
S11337002081E1808281A3809927AA27BB27BA2F31
S1133710A92F982F8827332744275527522F44272A
S113372033272227FF24002711278701FF24EE24B3
S11337302E293F29402B512BBB24CC24DD242A29BC
S11337403B294C295D29822B932BA42BB52B860D69
S1133750971DA81DB91D8383292F3A2F4B2F552759
S113376022839D014427552721838B2F9927AA273C
S1133770BB278083C2010E941E0BC2010E94250B3D
S1133780FC01608271828282938286E08093821639
S113379084E08093250880E090E002C085E090E01A
S11337A0DF91CF911F910F91FF90EF90DF90CF9019
S11337B0BF90AF909F908F907F906F905F904F904D
S11337C00895AF92BF92CF92DF92EF92FF920F9340
S11337D01F93CF93DF9380913814882309F407C192
S11337E00E94F313882309F402C18FB7F894992730
S11337F0C091ED09D091EE098FBF1092381428982A
S11338008FE88EBD0DB407FEFDCF8EB51EBC0DB482
S113381007FEFDCF8EB5289A982F80912508833016
S113382011F0873031F485E08093821688E080932C
S11338302508A92EBB24A2FE68C0809125088630E5
S113384019F41092250803C0882309F05EC094304F
S113385009F046C0289886E88EBD0DB407FEFDCF5A
S11338608EB51EBC0DB407FEFDCF2EB5289A2F7160
S113387080914E09982F96959695322F391B830F78
S113388080934E09E091BD08F091BE08DF01AC576A
S1133890BF4F8C918B7F88608C93EB57FF4F2183B4
S11338A00E94F90A6B017C010091BD081091BE08C9
S11338B0C8010E941E0BC8010E94250BFC01CC19F3
S11338C0DD092797CE01AA2797FDA095BA2F8C0D65
S11338D09D1DAE1DBF1D80839183A283B38312C03F
S11338E0E091BD08F091BE08EC57FF4F8081877FBF
S11338F08083E091BD08F091BE08EC57FF4F8081B2
S11339008D7F808385E080932508A3FE70C080911D
S11339102508843009F04EC085E080938216109209
S113392025088091C208833019F41092C2085FC040
S1133930C0918C16D0918D16CE010E94280B88233D
S113394089F18A8129819927982F88273327822B07
S1133950932B87749C7C8154984821F58F812E8108
S11339609927982F88273327822B932B8F5F9F4F7C
S1133970C9F090E08091620D882309F491E09923C5
S113398089F012E01093FA0981E08093620D80912E
S113399084009091850069E973E00E94390B1093CB
S11339A0C20825C01092C2081092570980E00E94F4
S11339B0630B1DC08530D9F42091E909289886E865
S11339C08EBD0DB407FEFDCF8EB51EBC0DB407FE33
S11339D0FDCF8EB5289A8F71922F96959695891B57
S11339E0280F2093E90989E08093250808C0909165
S11339F02508992309F4E9C2993009F016C22898D8
S1133A0080E28EBD0DB407FEFDCF8EB51EBC0DB495
S1133A1007FEFDCF8EB5482F5527433008F49DC3CC
S1133A20842F99278E3791050CF097C31EBCE09123
S1133A30BD08F091BE084083542F5250573010F403
S1133A40452F01C047E0DF011196242FFD0160E0FE
S1133A5070E00DB407FEFDCF8EB51EBC992781938F
S1133A606827062E6295607F6025072E762F629563
S1133A706F700626669576276727660F660F660FB2
S1133A806025215031F74150A40FB11D4F5F1196AD
S1133A90E091BD08F091BE08818190E0877082308A
S1133AA009F491E0992349F020E030E08091C208C4
S1133AB0823081F421E030E00DC08FB7F894282FD4
S1133AC0332790E080912C14833008F491E02FBFC9
S1133AD0292F3327232B09F45EC0952F941B18C07C
S1133AE00DB407FEFDCF8EB51EBC8C938D91682757
S1133AF0062E6295607F6025072E762F62956F7083
S1133B000626669576276727660F660F660F60257B
S1133B10915030F70DB407FEFDCF8EB51EBC9B014E
S1133B202827022E2295207F2025032E322F22952E
S1133B302F700226269532272327220F220F220FC9
S1133B4020250DB407FEFDCF8EB51EBC2827022EFE
S1133B502295207F2025032E322F22952F700226B6
S1133B60269532272327220F220F220F20250DB45A
S1133B7007FEFDCF8EB5E091BD08F091BE08EB576E
S1133B80FF4F8083289A15E010938216109225081F
S1133B90232B31F016C20DB407FEFDCF8EB5DDC266
S1133BA0E090BD08F090BE0867010894C11CD11CC8
S1133BB0F701818190E0282F33272770307022305D
S1133BC0310509F491E08091C208992329F18230EA
S1133BD009F026C1F7019381E0918C16F0918D16BE
S1133BE08381981709F01CC12230310509F018C1EE
S1133BF080916F008D7F80936F001092620DEC575F
S1133C00FF4F8081816080831092C208109257090F
S1133C1080E00E94630B04C18823C9F4C7010E9499
S1133C20700B8823A1F01093890A82E080938A0A9A
S1133C3010928B0AF701838180938C0A89E89AE0B9
S1133C400E942B1A882319F483E08093C208009100
S1133C50840010918500C7010E94700B882311F025
S1133C60045E1C4F10931C0B00931B0B809184006B
S1133C70909185009801281B390B12161306A4F4A1
S1133C8080915709882369F490E08091620D88231C
S1133C9009F491E0992341F0C9010E94D01280E80F
S1133CA001C0806880935709F60180852781992790
S1133CB0582F44273327422B532B8091C708282F92
S1133CC03327F901EE0FFF1FED5BFB4E80819181DD
S1133CD07091630D8417950769F4F901EA57F94E59
S1133CE08081871709F467C0872F8F5F8093630DE6
S1133CF080831DC000E010E080E090E0C3E4D4E1E4
S1133D00E6E8F6E1DF01682F9C0188819981841738
S1133D10950779F42093C7089091630D8C918917C6
S1133D2009F449C0892F8F5F8093630D8C9300E859
S1133D3029C08081972F981B091710F4092F122F7F
S1133D406F5FC901019611962296319685309105CF
S1133D50D1F66530B9F41093C708A12FBB27FD0134
S1133D60EE0FFF1FED5BFB4E518340838091630D8B
S1133D708F5F8093630DFD01EA57F94E8083A6554A
S1133D80B94E1C929091630D892F8F778F3779F4F8
S1133D900F3768F0E6E8F6E1292F207880818F67F5
S1133DA089132083319636E1EB38F307B9F7809114
S1133DB0C708282F3327F6019281A22FBB27FD01C4
S1133DC0E655F94E808180FF07C0FD01E35DFB4E9F
S1133DD08081981729F102C081608083A35DBB4E66
S1133DE09C93DFB6F89480912C148330B0F4E09166
S1133DF0E214E80FE33008F0E350FF27EE0FFF1F53
S1133E00EE54F74F00811181F182E0828F5F80933D
S1133E102C1486E00E94C90578018D2D99278FBF47
S1133E20F092BE08E092BD08C3C0892F8150833050
S1133E3008F09CC081508230E0F430918216313019
S1133E40C1F420E08091620D882309F421E022234B
S1133E5081F02F9883E08093FA093093620D80916A
S1133E608400909185006BE273E00E94390B82E03C
S1133E7068C0933009F042C080918216833009F003
S1133E8097C00E94F3138823C9F128988FE88EBD48
S1133E900DB407FEFDCF8EB51EBC0DB407FEFDCFDD
S1133EA08EB5289A8091810080648093810080E29D
S1133EB086BB80916F00806280936F009091F908B7
S1133EC0289888EC8EBD0DB407FEFDCF8EB59066A4
S1133ED09EBD0DB407FEFDCF8EB5289A289882ECBE
S1133EE08EBD0DB407FEFDCF8EB586E08EBD0DB43C
S1133EF007FEFDCF8EB5289A84E023C08091250863
S1133F008150823000F5809182168530E1F40E9460
S1133F10F3138823C1F0289882EC8EBD0DB407FEFC
S1133F20FDCF8EB583E08EBD0DB407FEFDCF8EB5FB
S1133F30289A80916F008F7D80936F0010923814BF
S1133F4083E08093821690912508913041F480910A
S1133F5082168330B1F52F9A9093821625C0923041
S1133F6039F580918216833061F51EC0973001F5D2
S1133F700E94F3138823E1F09091F908289888ECC3
S1133F808EBD0DB407FEFDCF8EB590669EBD0DB4FB
S1133F9007FEFDCF8EB5289A80918216853021F4D4
S1133FA084E08093821604C088E08093250804C0CE
S1133FB080912508883029F41092250884E00E9415
S1133FC0C90580912508882309F5809182168530DA
S1133FD0D1F4809138148823B1F48091C2088823E5
S1133FE091F480915709882371F490E08091620DD7
S1133FF0882309F491E0992331F00E9439148091C7
S11340002508882319F488E00E94C9058091620D6F
S1134010823009F095C01092620DC090FA09F2E066
S1134020CF1609F469C023E0C21609F46DC031E06B
S1134030C31609F085C020911B0B30911C0B809195
S113404084009091850040915709403829F41092DA
S113405057090E94391474C08901081B190B47FFC2
S113406003C01016110604F1C0915309D0915409EC
S11340708091C2088823C1F4CE010E942B1A99278B
S1134080882369F4FE01EC57FF4F80818E7F808383
S1134090C092C208D0938D16C0938C1629C099275C
S11340A0F82E882329F102C075E0F72E20915709D4
S11340B0822F99278F77019759F4207822602093D3
S11340C0570980E198E00E94A30B0E94D01238C0E7
S11340D027FF0AC0101611063CF480E880935709A4
S11340E0C8010E94D01202C0109257098F2D09C036
S11340F083E08093570924C01092C2081092570994
S113410080E00E94630B1CC080918216823019F4F7
S1134110C092821613C080912508863079F41092DB
S11341202508289881E88EBD0DB407FEFDCF8EB515
S11341301EBC0DB407FEFDCF8EB5289A0E94D62072
S11341408FB7F894282F33278091F808813061F0D5
S113415081E08093F8082FBF3ECB289A85E08093B6
S11341608216109225082DCF1092F8082FBFDF91E8
S1134170CF911F910F91FF90EF90DF90CF90BF9060
S1134180AF9008958FB7F894282F33278091F808BB
S113419081508093F808803811F02FBF089581E092
S11341A08093F8082FBF0E94E11B08958FB7F894FD
S11341B0282F33278091F808882329F0806880937A
S11341C0F8082FBF089581E08093F8082FBF0E945C
S11341D0E11B089578941F920F920FB60F92112449
S11341E02F933F934F935F936F937F938F939F93FB
S11341F0AF93BF93EF93FF93E6E8F0E08081918162
S1134200208131818FB7F89499273093EE09209358
S1134210ED0921E0209338148FBF0E94D620FF912E
S1134220EF91BF91AF919F918F917F916F915F912A
S11342304F913F912F910F900FBE0F901F901895A3
S113424078941F920F920FB60F9211242F933F93DD
S11342504F935F936F937F938F939F93AF93BF938A
S1134260EF93FF9380916F008D7F80936F0078941C
S11342709FB7F8948091620D813019F482E08093A5
S1134280620D892F99278FBF0E94D620FF91EF914D
S1134290BF91AF919F918F917F916F915F914F915A
S11342A03F912F910F900FBE0F901F9018952FB72D
S11342B0F89433278091F50980930A0282E0809371
S11342C01C022FBF80910A02882309F07EC0209A25
S11342D0289A80918216882309F075C08EEF91E0A8
S11342E0019701960197E1F716982F9886E090E0E0
S11342F0019701960197E1F7169A289883EC8EBDF1
S11343000DB407FEFDCF8EB51EBC0DB407FEFDCF68
S11343108EB5289A289882EC8EBD0DB407FEFDCF89
S11343208EB588E08EBD0DB407FEFDCF8EB5289AFC
S11343308EEF91E0019701960197E1F728988EECB2
S11343408EBD0DB407FEFDCF8EB58DE48EBD0DB4CC
S113435007FEFDCF8EB5289A289889EC8EBD0DB442
S113436007FEFDCF8EB587EC8EBD0DB407FEFDCFE5
S11343708EB5289A289885EC8EBD0DB407FEFDCF26
S11343808EB580E88EBD0DB407FEFDCF8EB5289A9C
S11343901092860A8BE08093F908289888EC8EBDE9
S11343A00DB407FEFDCF8EB58BE68EBD0DB407FEB2
S11343B0FDCF8EB5289A2F9A81E08093821680E0F3
S11343C00E94700A08950E94D6200895AF92BF9269
S11343D0CF92DF92EF920F931F935B016C010E94C7
S11343E09207AB01BC01E1E0EE2E9601850184E069
S11343F00E942C131F910F91EF90DF90CF90BF90EC
S1134400AF900895CF92DF92EF92FF920F931F9394
S11344106C017B010E940407DC01CB01B6010E9400
S1134420E432E80EF91E00271127C801B7010E94E3
S1134430E6211F910F91FF90EF90DF90CF900895A8
S11344400F931F93CF93DF93EC01E0913402FF2786
S1134450EE0FFF1FEC5EFB4E00811181662329F0F5
S11344606CE170E08CE190E033C08091330283FF13
S113447041C0CC57DF4F8881C458D04080FD3AC03A
S11344808F819927982F88272E813327822B932B6E
S11344900E94B906982F8F3F71F08BE0989FF0012E
S11344A01124E25DF44F82858F5F8287853018F096
S11344B0CF010E94E80886E10E94C905F8018381C2
S11344C081508383882339F067E070E087E090E0CF
S11344D00E9402223FC00E942008809133028F7EF6
S11344E08093330267E070E087E090E00E9402224C
S11344F040E02CC00E942008809133028F7E80937C
S1134500330267E070E087E090E00E9402228F812E
S11345109927982F88272E813327822B932B0E944B
S1134520B906982F8F3F89F08BE0989FF0011124F2
S1134530E25DF44F81858F5F818782858F5F8287FB
S1134540853018F0CF010E94E80841E0BE01C8019F
S11345500E948419DF91CF911F910F910895282F04
S1134560CB01213039F0213028F0223031F02330D2
S113457089F407C0109255090895642F0E942022DF
S113458008956955794031F480913B02882311F0F4
S113459010923B0208950F931F93CF93DF93062F3E
S11345A0109112021430A0F4E12FFF27EE0FFF1F29
S11345B0E35EF44FC081D181C817D90749F4118251
S11345C010820E941A15402FBE01812F0E94AF2233
S11345D0DF91CF911F910F910895EF92FF921F9356
S11345E010911202E12FFF27EE0FFF1FE35EF44F3D
S11345F0E080F180118210820E941A1541E0B70117
S1134600812F0E94AF221F91FF90EF9008958F9207
S11346109F92BF92CF92DF92EF92FF920F931F93DC
S1134620CF93DF93CDB7DEB722970FB6F894DEBFF2
S11346300FBECDBF8091330284FDDDC090E0809138
S11346403602882309F491E0992309F0D4C08091BB
S1134650B108882359F420E08091391490913A14D8
S11346608F5F9F4F09F021E0222331F0CE010196A4
S11346700E94F507882339F060E177E280E090E05A
S11346800E94E621B8C0E0913402FF27EE0FFF1F1D
S1134690EC5EFB4EC080D180D601ED91FC91B080E0
S11346A08090391490903A14CF010E94381920E078
S11346B09091B008891708F421E0222359F00E9450
S11346C02008F601808191810E943B08C6010E9466
S11346D05A088EC08091B108D601ED90FC908823D1
S11346E081F168E0C7010E94BB07FC01B780A0917B
S11346F0F609B091F709F70187E801900D9281500E
S1134700E1F70091F6091091F709C8010E948008A9
S1134710F82EFBE0BF1651F4682FC8010E947908F7
S11347204F2DBC01C8010E9485088C011093F70924
S11347300093F60960E0D6018D919C910E9420229D
S11347405AC009811A8168E0C7010E94BB07FC01B5
S11347500383012F1127028368E0F6018081918190
S11347600E94BB07FC0180818F73808361E0D601C6
S11347708D919C910E94D30780913302886080932D
S1134780330280FF0FC068E0F601808191810E94AE
S1134790BB07FC01808180648083809133028E7F1B
S11347A080933302D6010D911C91F8018682892DE4
S11347B099278783C8010E94D107FC0181E7808380
S11347C0F3EFBF0E4B2D5527B80182E00E947D15F3
S11347D09927882331F480913302806180933302D6
S11347E00AC0823041F4D601ED91FC918DE78083BB
S11347F085E10E94C90522960FB6F894DEBF0FBE6C
S1134800CDBFDF91CF911F910F91FF90EF90DF907B
S1134810CF90BF909F908F900895AF92BF92CF9208
S1134820DF92EF92FF920F931F930E9492077B01F6
S11348308C016091A60B7091A70B8091A80B9091AD
S1134840A90BA0901C08B0901D08C0901E08D09021
S11348501F08A114B104C104D10409F44EC0EFB778
S1134860F8942091640D20FD36C0A8019701261B01
S1134870370B480B590B2A153B054C055D05C8F44D
S1134880A21AB30AC40AD50A80911C0890911D0883
S1134890A0911E08B0911F08821B930BA40BB50BAB
S11348A080931C0890931D08A0931E08B0931F08C2
S11348B015C081E090E0A0E0B0E080931C089093E4
S11348C01D08A0931E08B0931F08F1E0AF2EB12C71
S11348D0C12CD12C03C02E7F2093640D8E2F9927D9
S11348E08FBF0E949207AB01BC01E1E0EE2E96015E
S11348F0850181E00E942C1305C08091AE0B8D7F51
S11349008093AE0B1F910F91FF90EF90DF90CF90AB
S1134910BF90AF9008950F931F938A9789F581E014
S113492090E090931B0880931A08109224088091B9
S11349301C0890911D08A0911E08B0911F080097B3
S1134940A105B105E9F00FB7F894112780E090E0D4
S11349500E94FF080FBF10921C0810921D081092AD
S11349601E0810921F08109220081092210810921D
S113497022081092230880E00E9445170E940D240B
S11349801F910F910895EF92FF920F931F93CF936E
S1134990DF93C091BA0DD091BB0DFE01E458FF4FD7
S11349A020813181E0901B0282E0E81691F5211507
S11349B0310539F0CC57DF4F8881C458D04080FF8F
S11349C002C084E021C080919A0D90919B0D0196C4
S11349D090939B0D80939A0D82179307A0F481E026
S11349E080931B020281138101151105A9F00E9415
S11349F09207AB01BC0122273327B1E0EB2E80E004
S1134A000E942C135FC085E080931B02E0901B0280
S1134A1028C081E0E81629F582E080931B022FB7B5
S1134A20F89433278091F8088F5F8093F8082FBF9C
S1134A3080915609882379F4D093990DC093980DE9
S1134A4081E0809356091092650D85E00E94C905A6
S1134A500E94C22037C00E94C22081E00E94C90582
S1134A6031C083E08E1570F5232B31F080919A0DBF
S1134A7090919B0D9183808310921B028A858F33C2
S1134A8009F580E00E94DE12CE010E94D107F09069
S1134A90120283E08F15B0F0EF2DFF27EE0FFF1FFA
S1134AA0E35EF44F008111810C171D0759F4118244
S1134AB010820E941A158CEFE80E4E2DB8018F2D2E
S1134AC00E94AF22DF91CF911F910F91FF90EF9041
S1134AD00895AF92BF92CF92DF92EF92FF920F931D
S1134AE01F93CF93DF935B016C01C0E0D0E0EDE94D
S1134AF0FBE0608561FFDCC020813181428153810C
S1134B00E480F58006811781D601C501821B930BD1
S1134B10A40BB50B8E159F05A007B10708F4C8C0F8
S1134B2060FF03C06D7F608708C02E0D3F1D401FCE
S1134B30511F2083318342835383C23009F446C01A
S1134B40C33030F4CC2359F0C13009F0B7C009C0E8
S1134B50C33009F49AC0C43009F0B0C0A0C081E0E9
S1134B60A4C02091AA0B3091AB0B4091AC0B509197
S1134B70AD0B80911C0890911D08A0911E08B09166
S1134B801F080097A105B105F1F082179307A40748
S1134B90B507C9F480912408882361F42FB7F894E9
S1134BA0332780912D0B816080932D0B2FBF84E1DF
S1134BB00E94C90580E090E00E94FF0880E00E9406
S1134BC04517109224080E940D2478C08091390260
S1134BD0882309F473C080913A02882309F46EC0D3
S1134BE080913214882349F586E10E94C90587E142
S1134BF00E94C905A0901402B0901502C09016023C
S1134C00D090170280914F0990915009A0915109B9
S1134C10B0915209A81AB90ACA0ADB0A81E0809342
S1134C2032140E949207AB01BC0101E0E02E960110
S1134C30850182E00E942C1341C08091140290915E
S1134C401502A0911602B0911702880F991FAA1F8E
S1134C50BB1F8093140290931502A0931602B09385
S1134C6017028150904DA740B04060F080E090ED75
S1134C70A7E0B0E08093140290931502A09316026B
S1134C80B09317020E944B1319C0809139028823F4
S1134C90A9F080913A02882389F086E106C08091C8
S1134CA033028F7E8093330285E10E94C90506C0DA
S1134CB021963996C530D10509F01BCF83E00E94B7
S1134CC0C905DF91CF911F910F91FF90EF90DF9075
S1134CD0CF90BF90AF900895AF92BF92CF92DF92E2
S1134CE0EF92FF920F931F930E9492075B016C0156
S1134CF08FB7F89499271092E4098FBF8FEFE82EAD
S1134D008FEFF82E8FEF082F8FE7182F60E0EDE973
S1134D10FBE0808581FF1CC080819181A281B381E9
S1134D20A6019501281B390B4A0B5B0BDA01C9015B
S1134D302481358146815781281B390B4A0B5B0B33
S1134D402E153F05400751071CF479018A0161E0E3
S1134D5039963BE0EA3CF307E1F66623D9F01E14EA
S1134D601F04100611062CF0C601B5010E94692526
S1134D7011C0E092D514F092D6140093D714109376
S1134D80D81481E08093F708A8019701C601B50102
S1134D900E948B0D1F910F91FF90EF90DF90CF90A9
S1134DA0BF90AF9008952F923F924F925F926F926F
S1134DB07F928F929F92AF92BF92CF92DF92EF92A7
S1134DC0FF920F931F93CF93DF93CDB7DEB7229754
S1134DD00FB6F894DEBF0FBECDBFE82FFF27EA3130
S1134DE0F10508F061C7EA59FF4FEE0FFF1F059068
S1134DF0F491E02D09948091E414882309F0D0C63D
S1134E0053C78FB7F89420912D0B20FDF1C620E0F5
S1134E10F3C68091EF09882309F446C740E051E0C6
S1134E2001C72FB7F89433278091FA0880930702BB
S1134E3082E080931A022FBF80910702882309F031
S1134E4033C78091FB089091FC080E944414082FFA
S1134E501127002309F428C70E942713602F80918B
S1134E60FB089091FC080E94CB221EC70E94C32419
S1134E701BC78091F708882361F52091D5143091E0
S1134E80D6144091D7145091D814EFB7F894FF2753
S1134E906091B9087091BA088091BB089091BC08E0
S1134EA0E090E614F090E7140091E8141091E914EE
S1134EB06E0D7F1D801F911FEFBF2093D51430937B
S1134EC0D6144093D7145093D8141092F7080E9424
S1134ED08B0D0E9492070E946925E6C60E946C26EB
S1134EE0E3C68091560910925609853009F091C0A5
S1134EF051E0F52EF092390280913A02882311F0A4
S1134F000E948D078091330284608093330290E085
S1134F1080913602882309F491E0992311F40E94C8
S1134F20FF0580911C0890911D08A0911E08B09166
S1134F301F080097A105B10531F510921C081092C5
S1134F401D0810921E0810921F081092200810923B
S1134F50210810922208109223081092240880E05D
S1134F600E9445170FB7F894112780E090E00E9443
S1134F70FF080FBF0E940D248AE290E00E948B2458
S1134F80F092AF0804C08AE290E00E948B2441E0D2
S1134F90F42EF092B8088091330282608093330239
S1134FA08FB7F894992720910202309103028FBFA2
S1134FB03093B90D2093B80D80913A02882381F47F
S1134FC0F0923A020E9499130E949207AB01BC012D
S1134FD0EE2400E010E220E030E083E00E942C1395
S1134FE02091391430913A14F092B1088091B80D9F
S1134FF09091B90D90933A148093391410923C1403
S113500010923B142F5F3F4F09F04EC60E94FF05DC
S11350104BC6863041F410923902809133028B7F63
S11350208093330241C6873009F43EC68093560903
S11350303BC62FB7F89433278091F8088F5F80938D
S1135040F8082FBF40915609413081F58091650DD4
S11350508F5F8093650D863048F52091980D3091CF
S1135060990D809157098823C1F490E08091620DD5
S1135070882309F491E0992381F030935409209313
S11350805309409357098BED91E10E94A30B0E94B1
S1135090D0121092EA1483E004C085E08093EA14ED
S11350A082E0809356090E94C220FEC510925609E0
S11350B00E94C2208091EA14882319F08C5F8093A7
S11350C01B020E94FA05F0C58FB7F894282F3327E6
S11350D080912C14882309F4E6C5E091E214FF279B
S11350E0EE0FFF1FEE54F74F608071802FBFF30166
S11350F08285178106818F3309F002C4C3010E949F
S1135100D1074C01FC017081F30161915F01812F92
S11351109927582F4427802F9927482B592B8FB72D
S1135120F894992720910202309103028FBF42170D
S1135130530721F04F5F5F4F09F0A2C51CE0212EF9
S1135140312C260C371CB3EF5B2E560E703709F446
S1135150C0C0713730F4703641F0713609F0EAC3DB
S113516090C0713709F0E6C3A2C2F3018485258596
S11351709927D82ECC243327C22AD32A268567859B
S113518090897189FAE2CF16D10421F088249924F8
S1135190540108C080902F0290903002A0903102F8
S11351A0B09032028091B808882309F4C3C3892FD0
S11351B09927AA27BB27EE24F82E092F1A2F332765
S11351C044275527522F442733272227862F9927F0
S11351D0AA27BB27DC0199278827282B392B4A2BA0
S11351E05B2B872F9927AA27BB27282B392B4A2BE0
S11351F05B2BE22AF32A042B152B81149104A104BE
S1135200B10461F4E114F1040105110569F12AE224
S1135210C216D10401F53AEF530E16C0E114F1049D
S113522001051105C1F0D801C70188199909AA0916
S1135230BB09181619061A061B068CF48AE2C8164E
S1135240D10449F49AEF590EA8019701652DC101C3
S113525006960E946A12C6010E948B246BC3E8144E
S1135260F9040A051B0559F4EAE2CE16D10409F043
S113527061C3809124088F5F809324085BC3C601B7
S113528025C08091B808882309F454C3F3018485A8
S113529025859927982F88273327822B932B8A9744
S11352A009F048C380912F0290913002A0913102FD
S11352B0B09132020097A105B10509F43BC3F10195
S11352C080819927982F8827822B932B0E94CE15B3
S11352D031C3F301878126819927982F88273327A3
S11352E0822B932B8F5F9F4F09F0F4C0C3010E9460
S11352F0C6077C01F301818520859927D82ECC240B
S11353003327C22AD32AC6010E94B9068F3F21F04F
S1135310F701618177271CC00E948F0C182F8F3FE3
S1135320D1F0B6010E94C60BF7014181212F33272A
S11353308BE090E0289FF001299FF00D389FF00D3D
S11353401124E25DF44F4283F70161817727812FB5
S11353500E94E60BBFC081E40E94A10C182F8F3F6E
S1135360A1F0282F33278BE090E0289FF001299F9C
S1135370F00D389FF00D1124E25DF44F808191818E
S11353800E94C917B601812FA3C090E025E830E040
S1135390620E731EF30180812BE73FEF620E731ED2
S11353A0893C08F091E0992309F494C0C3010E9458
S11353B01F14982FF4018081803709F08BC0953039
S11353C009F0B8C265E0C3010E94CA078C01FC0160
S11353D0818122819927982F88273327822B932B29
S11353E08F5F9F4F09F47CC0F80183812481992742
S11353F0582F44273327422B532B4115510521F1B4
S11354008091C108E82EFF246091391470913A14F8
S1135410A0E020E030E0EEEFF8E00EC08081918162
S11354208617970731F0848195814817590708F446
S1135430A1E02F5F3F4F38962E153F0514F4AA23A1
S113544069F3AA2309F451C010E0E3E3FBE080818F
S1135450992780FF04C083FD02C081FF1F5F3B9634
S11354602BE0E13AF20799F71123A1F10E948D078D
S1135470612F77270E94E43200E010E0E3E3FBE0D1
S11354809081992349F0292F332723FD05C021FD5D
S113549003C081508F3F39F00F5F1F4F3B960A3096
S11354A01105C1F0EDCF202F0F3FA1F033278BE082
S11354B090E0289FF001299FF00D389FF00D1124F2
S11354C0E25DF44F808191810E94C917B601802F5B
S11354D00E94C60BC3010E941F14853009F02AC222
S11354E065E0C3010E94CA078C01F501F084B7800E
S11354F060E4C3010E94EA0C382E68010894C11CC0
S1135500D11CF801818126010894411C511CF6012B
S113551021819927982F88273327822B932B8F5FFC
S11355209F4F09F4BCC08F2D9927F82EEE248B2DA4
S11355309927E82AF92A63E0A62EB12CA00EB11E01
S1135540F801838154E0852E912C800E911E2481D4
S11355509927982F88273327822B932B892B49F55A
S1135560C7010E94B9068F3F09F50E948F0C8F3F37
S113557011F0B70119C08AE00E94A10C182F8F3FC7
S1135580A9F0282F33278BE090E0289FF001299F72
S1135590F00D389FF00D1124E25DF44F808191816C
S11355A00E94C917B701812F0E94C60BC7010E9430
S11355B0EA06F501B080F401A080F601D080F20182
S11355C0C080C7010E94D1068C01C7010E94CA0C89
S11355D0482F8A30F1F18B2D9927782F66278A2D51
S11355E09927682B792B8D2D9927382F22278C2DDD
S11355F09927282B392B8091C1084817C9F4023305
S1135600110538F5E42FFF27B3E0EE0FFF1FBA951D
S1135610E1F7E250F74FF182E0823383228375830E
S1135620648381E0868317824F5F4093C10811C071
S1135630E42FFF27A3E0EE0FFF1FAA95E1F7E25046
S1135640F74FF182E082338322837583648381E0A0
S1135650868380911302882311F5C7010E94CA0C26
S1135660E82F8091C108E81748F4FF2763E0EE0FA4
S1135670FF1F6A95E1F7E250F74F378280913E149D
S1135680882311F0332049F08091391490913A1411
S11356908E159F0521F4332011F00E94F50560E872
S11356A0C3010E94EA0C882309F444C126C1C30142
S11356B00E940919C82EC3010E941019182F1F5FD8
S11356C0C3010E94C2075C01FC011183F0E7F515D8
S11356D008F430C1C3010E94381920E09091B00849
S11356E0891708F421E0222309F024C1109136021D
S11356F0812F9927D82E882309F43FC0C3010E9423
S11357001E194C0100913402010F0150DA940C303F
S113571010F4E02F02C0E02FEC50FF27EE0FFF1F24
S1135720EC5EFB4E0190F081E02DE080F180C7013A
S11357300E941E198815990509F0A6C2C7010E9486
S11357401719182FC3010E941719181709F09CC2C2
S1135750C7010E941019182FC3010E9410191817AD
S113576009F092C2C7010E940919182FC3010E94AF
S11357700919181709F088C2DDC08091B10888237F
S113578099F0C3010E948008182F2BE0C21609F07B
S1135790D1C0682FC3010E947908412FBC01C30105
S11357A00E9485083C01C6C080E02091880A22231B
S11357B009F481E0882309F0BDC09091870A9923F8
S11357C009F481E0882309F0B5C0992309F4B2C033
S11357D08091E514E82FFF27EE0FFF1FE257F94EE3
S11357E0008111811182108291509093870A8F5FFA
S11357F08093E5148C3011F41092E5140115110511
S113580009F498C0222309F495C08091EA09E82F8D
S1135810FF27EE0FFF1FE056F24FE080F180118268
S1135820108221502093880A8F5F8093EA098C307C
S113583011F41092EA09E114F10409F47BC087E839
S1135840F70111928A95E9F72CE730E0620E731E96
S11358508BE0F30111928A95E9F724E83FEF620E99
S1135860731EF801718260828FEF82838EE18383DD
S1135870909136029C3008F00CC280913502E82FDA
S1135880FF27EE0FFF1FEC5EFB4E118300838F5F3B
S1135890809335028C3011F4109235029F5F9093FF
S11358A03602CE0101960E94F5078823B1F4F50172
S11358B0828123819927982F88273327822B932B42
S11358C029813A812817390740F00E9499136CE125
S11358D070E08CE190E00E9402228091C90B81FD6E
S11358E002C00E94FF05370125C0C3010E94C20700
S11358F0FC01808180788038E9F40E9499131AC0F1
S1135900812F9927582F4427802F9927482B592BCB
S11359108FB7F894992720910202309103028FBF28
S11359204217530719F04F5F5F4F21F48FB7F89474
S113593099278FBF9FB7F8948091E214E82FFF272F
S1135940EE0FFF1FEE54F74F718260828F5F8093DA
S1135950E214833010F01092E21480912C148150E0
S113596080932C14892F99278FBFAECB0E948D076B
S11359702FB7F894332790939D0D80939C0D93C17A
S11359800E94C60A91C18FB7F89499271092D90C36
S11359901092D80C1092811610928016109227083B
S11359A01092260810921A0B1092190B2AC00E940A
S11359B057217AC10E947F0977C18091C1008F7BF2
S11359C08093C1008091C1008F778093C1001092B1
S11359D0660D1092E2098091C10088608093C10035
S11359E08091C10080618093C1008091C100806872
S11359F08093C1008FB7F89499271092970D109255
S1135A0058098FBF51C18EE00E94C9054DC18091D4
S1135A10C100877F8093C1008091C1008F7E8093F5
S1135A20C10042C110922302109222028FB7F8944F
S1135A309927409126028FBF80912702811143E06C
S1135A40209120023091210280912802882309F0BC
S1135A502BC180911802882309F026C16091D914C2
S1135A607091DA146217730709F01EC106C18FB76B
S1135A70F894992720912A0200912B0210912C026C
S1135A8030912D02F090C0088FBF222309F071C01D
S1135A90932F9C50F8018385863309F06AC09430B3
S1135AA009F067C02FB7F894332782B191E08927B2
S1135AB082B92FBF8091AF08882309F45AC0848526
S1135AC09585A685B7858093BC0D9093BD0DA09355
S1135AD0BE0DB093BF0D80912F0290913002A09122
S1135AE03102B0913202CD01AA27BB270196A11D34
S1135AF0B11D80932F0290933002A0933102B09392
S1135B0032020097A105B10561F481E090E0A0E0C4
S1135B10B0E080932F0290933002A0933102B093AF
S1135B20320220912F023091300240913102509183
S1135B303202A901332722278091000290910102A9
S1135B40AA27BB27280F391F4A1F5B1F20932F0248
S1135B503093300240933102509332028AE290E053
S1135B600E94CE158AE290E00E948B2483E10E9479
S1135B70C9058FB7F894EF2DFF27EE0FFF1FE45FE1
S1135B80FD4F1183008320911E02FF2011F02B7F13
S1135B9001C02D7F20931E0210922902992731CF34
S1135BA031E0D32EEE24FF240DE11BE09091E414A8
S1135BB08D2D892371F0F801608171811182108229
S1135BC08D2D809598239093E41443E08E2D0E94AC
S1135BD0AF220894E11CF11C0E5F1F4FF8E0EF1692
S1135BE0F10409F461C0DD0CE1CF0E94ED225CC038
S1135BF02E7F20932D0B21E099278FBF222309F4B8
S1135C0053C08AE290E00E94CE150E94F0054CC079
S1135C100E94072349C00E940B1846C00E946916BF
S1135C2043C0550F9091EF09852F8923B9F0E42FD4
S1135C30FF27EE0FFF1FE752FB4E208131811182B7
S1135C401082852F809598239093EF09442331F493
S1135C502E54344129F51092DA0C22C04F5F48309B
S1135C6000F322C080911802E82FFF27EE0FFF1FD8
S1135C70E752FB4E6081718141E00E94730614C0BB
S1135C80713709F057CE31CE0150DD2009F475CDBE
S1135C903DCDC7010E943B08C8010E945A084ACE64
S1135CA0550F41E0BFCF2FBF22960FB6F894DEBF49
S1135CB00FBECDBFDF91CF911F910F91FF90EF9059
S1135CC0DF90CF90BF90AF909F908F907F906F9018
S1135CD05F904F903F902F9008958091DB148F3FF9
S1135CE0B1F0282F3327F901E853F74F80818093CF
